S00F000053455034494F542E737265630D
S113000050C200006FC200006DC200006BC200004D
S113001069C2000067C2000065C2000063C200003C
S113002061C200005FC200005DC200005BC200004C
S11300300C94450D57C2000055C2000053C2000085
S113004051C200004FC200004DC200004BC200006C
S113005049C2000047C2000045C2000043C200007C
S113006041C200000C94A1270C94F3273BC200006A
S113007039C2000037C2000035C2000033C200009C
S113008031C200002FC200002DC200002BC20000AC
S11300900C9437280C94892825C200000C94212B39
S11300A021C200001FC200001DC200001BC20000CC
S11300B019C2000017C2000015C2000013C20000DC
S11300C011C200000FC200000DC200000C94CD2824
S11300D00C941F2907C200000C9463290C94B529C1
S11300E001C20000C601C601C601000208021E02C8
S11300F0C601C60100020802432BB32BB32BB32B5A
S1130100B32BB32BB32BB32B432BB32BB32BB32B6B
S1130110B32BB32BB32BB32B452BB32BB32BB32B59
S1130120B32BB32BB32BB32BB32BB32BB32BB32BDB
S1130130B32BB32BB32BB32B452BB32BB32BB32B39
S1130140B32BB32BB32BB32BB32BB32BB32BB32BBB
S1130150B32BB32BB32BB32BAF2BB32BB32BB32BAF
S1130160B32BB32BB32BB32B7A2BB32BB32BB32BD4
S1130170B32BB32BB32BB32BB32BB32BB32BB32B8B
S1130180B32BB32BB32BB32B6E2BB32BB32BB32BC0
S1130190B32BB32BB32BB32B922B05E519E10F2E05
S11301A0F5E8EF2EF9E1FF2EF02D80915419882304
S11301B029F10FB6F8940F92D8011796ED91FC919E
S11301C01897C085D185CE0102960E94AA0B809112
S11301D04819815080934819809154198150809313
S11301E054190F900FBE8B8D9C8D0E94060BCE016F
S11301F00E94060B809154198111DBCFF701808195
S1130200823010F00E947F0C0E94971DCECFCF93B6
S1130210DF93CDB7DEB760970FB6F894DEBF0FBE9D
S1130220CDBFCE0101969A878987812C912CA12C70
S1130230B12C69847A84E091BD19F091BE19808152
S1130240882309F414C10780F085E02D20803180D3
S1130250428053800E94DC15CE0101960E94011D4C
S11302606B877C878D879E878981811167C08B8589
S11302709C85AD85BE8582159305A405B50508F456
S113028045C00E94C516E091BD19F091BE190780C2
S1130290F085E02DA085B185B88BAF87CD0102969E
S11302A00E94AA0BEF85F889878982FF21C04685C1
S11302B0578560897189420D531D641D751D720136
S11302C061010B851C852D853E85CF010E94101C84
S11302D0882399F0C82CD92CEA2CFB2C00E010E0E0
S11302E0A201910160E08F8598890E94A31C05C03A
S11302F08E7FAF85B88957968C93AF85B88954960D
S1130300ED91FC915597CD011995A2C020E0B20161
S1130310A1018B859C85AD85BE85481B590B6A0B55
S11303207B0B8091B9199091BA190E94E1100E9437
S1130330C51681118DC00E947F0C8AC00E94C5160B
S113034087C0898188230CF483C04E805F80D201EA
S11303501C968D919C911D97892B21F0C2010296C8
S11303600E94AA0BCE0108960E94011D8B019C01DC
S1130370E9810E2E000CFF0BEA30F10508F068C08D
S11303808827EE58FF4F8F4F0C940B2EF20187896C
S11303908160878BCA80DB80EC80FD804685578531
S11303A0608971894C0D5D1D6E1D7F1DC2010E9407
S11303B0101C882309F44CC0D2015496ED91FC9191
S11303C05597C2011995F201878982FF41C04A817C
S11303D05B816C817D8186859785A089B1899A012D
S11303E0AB01280F391F4A1F5B1FC82CD92CEA2CDC
S11303F0FB2C00E010E060E0C2010E94A31C28C0B6
S1130400D20157968C9157978E7F57968C9320C024
S1130410F20187898160878B4A815B816C817D8150
S113042046875787608B718B400F511F621F731F64
S113043068017901C2010E94101C0AC0F201878977
S113044081FD04C0C2010E94060B02C08E7F878B0F
S1130450282D392D4A2D5B2D662D772D8091B919C4
S11304609091BA190E947D0F81116BCFE4CE0E9446
S1130470DC15CE0101960E94011D6B877C878D8758
S11304809E87898181115ACFE091BB19F091BC19E3
S1130490808121E0811120E0282C392C4A2C5B2C0E
S11304A036CF11241FBECFEFD1E2DEBFCDBF00E0B7
S11304B00CBF18E0A0E0B2E0E2EAF5E600E00BBF12
S11304C002C007900D92A83BB107D9F72BE1A8EB26
S11304D0B8E001C01D92A137B207E1F70E945F1E88
S11304E00C94CF328DCD8093B8089093B9089F9324
S11304F08F938EE692E09F938F930E94B12F0F907B
S11305000F900F900F9008952F923F924F925F9209
S11305106F927F928F929F92AF92BF92CF92DF920F
S1130520EF92FF920F931F93CF93DF93882E962E13
S11305301A0128013901870161E070E084E090E04C
S11305400E94132EEC01009779F1FC011192119293
S11305507F013092C5082092C4084092C00850928E
S1130560C1086092C2087092C3081093BF08009338
S1130570BE08A092BA08B092BB08C092BC08D09240
S1130580BD0863E772E083E00E941D26492D50E018
S1130590082D9E0162E872E089E393E00E948114D1
S11305A08CE892E00E94C42FCE01DF91CF911F917D
S11305B00F91FF90EF90DF90CF90BF90AF909F90FE
S11305C08F907F906F905F904F903F902F90089501
S11305D0CF92DF92EF92FF920F931F93CF93DF930B
S11305E0EC014091C0085091C1086091C20870911B
S11305F0C308CC24CA94DC2C760101E021E080916C
S1130600C4089091C508A3D50091C0081091C108F1
S11306102091C2083091C308DC01CB0180239123CF
S1130620A223B323081719072A073B07C9F40E941A
S11306304B268091B8089091B9089983888383E9FF
S113064092E00E94C42F4091BA085091BB08609177
S1130650BC087091BD088091BE089091BF0837D640
S1130660DF91CF911F910F91FF90EF90DF90CF908A
S11306700895EC01CE01ACDFFDCFFC0180819181B6
S1130680089581E08093C9081092C8080E94290F38
S11306909093C7088093C60808950F93CF93209131
S11306A0C6083091C70821153105B1F0C82F4FEFA6
S11306B05FEFBA01C9010E941510C093C90800E098
S11306C020E030E0A90160E070E08091C6089091DC
S11306D0C7080E94890E02C08093C908CF910F9168
S11306E008950F93CF93DF932091C6083091C708E4
S11306F021153105B9F0EC014FEF5FEFBA01C901E3
S11307000E9415108091C908888300E020E030E041
S1130710A90160E070E08091C6089091C7080E942A
S1130720890E04C02091C908FC012083DF91CF9178
S11307300F9108950F93CF932091C6083091C70865
S113074021153105B1F0C82F4FEF5FEFBA01C90190
S11307500E941510C093C80800E020E030E0A90111
S113076060E070E08091C6089091C7080E94890EED
S113077002C08093C808CF910F9108950F93CF932F
S1130780DF932091C6083091C70821153105B9F0CF
S1130790EC014FEF5FEFBA01C9010E94151080917F
S11307A0C808888300E020E030E0A90160E070E040
S11307B08091C6089091C7080E94890E04C02091B8
S11307C0C808FC012083DF91CF910F91089561E067
S11307D070E088E090E00E94132E009739F0FC014D
S11307E01382128215821482118210820895009756
S11307F019F0FC01718360830895009719F0FC01DE
S1130800758364830895009719F0FC0173836283F0
S11308100895FC01DB0112962C91129713963C91DA
S1130820139714968C91149715969C9141E04083EC
S113083044E041833283238394838583CF010895E5
S11308402F923F924F925F926F927F928F929F92DC
S1130850AF92BF92CF92DF92EF92FF920F931F93CA
S1130860CF93DF9300D01F92CDB7DEB7282E362E5C
S11308705C834B832801390161E070E088E090E0FB
S11308800E94132E9A838983009709F43EC0FC01C9
S1130890918280828A8D9B8D9383828398DFE98104
S11308A0FA81958384838B819C819093ED08809356
S11308B0EC084092E8085092E9086092EA087092C5
S11308C0EB08F092E708E092E608A092E208B09202
S11308D0E308C092E408D092E5088C8D9D8D909336
S11308E0E1088093E008432D50E07F0196E0E90E93
S11308F0F11C022D9F0164EA72E080E995E00E94F8
S113090081148BEA92E00E94C42F89819A810F900E
S11309100F900F900F90DF91CF911F910F91FF9047
S1130920EF90DF90CF90BF90AF909F908F907F908B
S11309306F905F904F903F902F900895FC018481B9
S113094095815BCF0895FC0182819381009711F01A
S11309506AC208958FEF9FEF0895FC018481958109
S113096046CF0895FC0180819181009711F085CED6
S113097008958FEF9FEF0895FC018481958143CF03
S11309800895FC0182819381009711F050C208956B
S11309908FEF9FEF0895AF92BF92CF92DF92EF92C5
S11309A0FF920F931F93CF93DF93CDB7DEB7669774
S11309B00FB6F894DEBF0FBECDBF5C0181E090E0BE
S11309C06CD58C018EDEF8018081882309F491C0F6
S11309D04091E8085091E9086091EA087091EB08A9
S11309E08091EC089091ED0872D485EB92E00E941E
S11309F0C42F4091E2085091E3086091E40870919B
S1130A00E508CC24CA94DC2C760101E021E0809135
S1130A10E6089091E7089BD30091E2081091E3085F
S1130A202091E4083091E508DC01CB018023912377
S1130A30A223B323081719072A073B0709F05FC04D
S1130A40C50190DFBC01C50188DFC5019ADFBC0187
S1130A50C50192DFC50177DFBC01C5016FDF89ECF9
S1130A6092E00E94C42FC5017DDF9F938F938DED8B
S1130A7092E09F938F930E94B12FC50182DF9F93D1
S1130A808F9389EE92E09F938F930E94B12FC501BB
S1130A905ADF9F938F938DEF92E09F938F930E94E1
S1130AA0B12FF50164817581CE010196B2DE86E134
S1130AB0FE013196AAECB8E001900D928A95E1F717
S1130AC068EE73E080E090E00E9441170FEF1FEFA3
S1130AD0980146E150E06AEC78E08091E00890915A
S1130AE0E1080E9451120FB6F894DEBF0FBECDBFCD
S1130AF006C068E873E180E090E00E9441176696C2
S1130B000FB6F894DEBF0FBECDBFDF91CF911F911A
S1130B100F91FF90EF90DF90CF90BF90AF9008952A
S1130B20EC01CE0138DFFDCFEF92FF920F939B01D2
S1130B30E12CF12C082F48E851E06EE073E08EE3DD
S1130B4096E00E9481140F91FF90EF9008950F9307
S1130B501F93CF93DF930FEF1FEF980146E150E00F
S1130B606EEE78E00E943E13CEEED8E089811F92AB
S1130B708F938B811F928F938A811F928F9387E12A
S1130B8093E09F938F930E94B12F8DB79EB70896E1
S1130B900FB6F8949EBF0FBE8DBF8981823009F0D5
S1130BA068C0FE01CA818381C80F81E090E075D4DA
S1130BB08C01CB34E9F018F4CA3439F052C0C6358C
S1130BC051F1C73509F43AC04CC080E066DDC80174
S1130BD088DDF80180811F928F9388E493E09F93CE
S1130BE08F930E94B12F0F900F900F900F9041C0E0
S1130BF081E053DDC80175DDF80180811F928F9378
S1130C0088E493E09F938F930E94B12F0F900F90ED
S1130C100F900F902EC080E08DDDC801AFDDF8018C
S1130C2080811F928F9389E693E09F938F930E9414
S1130C30B12F0F900F900F900F901BC081E07ADDC1
S1130C40C8019CDDF80180811F928F9389E693E0AF
S1130C509F938F930E94B12F0F900F900F900F903E
S1130C6008C08FE893E09F938F930E94B12F0F9059
S1130C700F90DF91CF911F910F910895EC01CE0158
S1130C8066DF68EB7BE080E090E00E944117F7CFDD
S1130C902F923F924F925F926F927F928F929F9288
S1130CA0AF92BF92CF92DF92EF92FF920F931F9376
S1130CB0CF93DF93882E962E1A012801390161E023
S1130CC070E086E090E00E94132EEC01009771F131
S1130CD0198218821B821A8230920F0920920E09FF
S1130CE040920A0950920B0960920C0970920D0906
S1130CF0F0920909E0920809A0920409B09205094A
S1130D00C0920609D0920709492D50E07C0184E085
S1130D10E80EF11C082D9E016FE973E08FE097E067
S1130D200E94811480EB93E00E94C42FCE01DF91D6
S1130D30CF911F910F91FF90EF90DF90CF90BF90D4
S1130D40AF909F908F907F906F905F904F903F9067
S1130D502F900895CF92DF92EF92FF920F931F93FB
S1130D60CF93DF93EC0140910A0950910B096091F4
S1130D700C0970910D09CC24CA94DC2C760101E095
S1130D8021E080910E0990910F09E1D100910A09A7
S1130D9010910B0920910C0930910D09DC01CB0154
S1130DA080239123A223B323081719072A073B079B
S1130DB069F50E94E21E62E370E080E090E00E9428
S1130DC041170E94F71E65E070E080E090E00E9409
S1130DD041170E94DF1E882361F00E941D1F998322
S1130DE088830E94431F9B838A838FEC93E00E9435
S1130DF0C42F40910409509105096091060970912E
S1130E000709809108099091090961D2DF91CF9176
S1130E101F910F91FF90EF90DF90CF900895EC0118
S1130E20CE0198DFFDCFFC01808191810895FC0102
S1130E30828193810895EF92FF920F939B01E12C9D
S1130E40F12C082F48E851E065EF73E084E798E05F
S1130E500E9481140F91FF90EF900895DF92EF921A
S1130E60FF920F931F93CF93DF937C01809110091E
S1130E708111D0C081E00E94632262E070E080E0D2
S1130E8090E00E94411780E00E94632266E970E0CE
S1130E9080E090E00E9441170E94192281E00E94A4
S1130EA071200E9477220E94F4249F938F938EEFE7
S1130EB093E09F938F930E94B12F0E94F5230E9489
S1130EC0F4249F938F9381E194E09F938F930E94E6
S1130ED0B12F87E299E00E9489220E94F424C7E29C
S1130EE0D9E0DF93CF939F938F938AE294E09F930B
S1130EF08F930E94B12FCE010E94A5220E94F42458
S1130F009F938F93DF93CF938EE394E09F938F937C
S1130F100E94B12FAE0163E574E084E794E00E947F
S1130F20D3240E94F4249F938F93DF93CF9383E57C
S1130F3094E09F938F9384E794E09F938F9385E845
S1130F4094E09F938F930E94B12F0E94D8220E9415
S1130F50F4249F938F938BEB94E09F938F930E9441
S1130F60B12F8DB79EB782960FB6F8949EBF0FBE71
S1130F708DBF81E00E94D2230E94F4249F938F931B
S1130F808AEC94E09F938F930E94B12F84EF91E0B9
S1130F900E94DD230E94F4249F938F9381E08F931A
S1130FA084EF8F938BEE94E09F938F930E94B12FE5
S1130FB08DB79EB70A960FB6F8949EBF0FBE8DBF2D
S1130FC0CAE0D0E00BE015E080E00E94DE22D82EDB
S1130FD00E94F4249F938F93DF93CF931F930F93D7
S1130FE00E94B12F0F900F900F900F900F900F90C1
S1130FF088E0D81609F462C080E00E94DD2066E330
S113100071E080E090E00E9441172197E9F65DC00D
S113101076D4FECF00E010E0980142E350E061E1B5
S113102079E0C7010E943E13029708F440C083E0B0
S11310300E94EF20C1E1D9E08A811F928F938BE255
S113104095E09F938F930E94B12F8B811F928F9372
S11310508DE495E09F938F930E94B12F8C811F9212
S11310608F9380E795E09F938F930E94B12F8D819A
S11310701F928F938FE895E09F938F930E94B12FD7
S1131080BE0180E00E9407230E94F4249F938F9363
S11310908FEA95E09F938F930E94B12F8DB79EB7EF
S11310A044960FB6F8949EBF0FBE8DBF15C060ED79
S11310B077E080E090E00E9441170EC081E00E943A
S11310C0BF2081E080931009A5CF81E00E94CE204B
S11310D080E00E9498209CCFDF91CF911F910F91C7
S11310E0FF90EF90DF900895EC01CE01B7DE68EB3E
S11310F07BE080E090E00E944117F7CFE7E0F1E069
S113110080818F6080830895E8E0F1E09081907F92
S1131110908390818F70982B90830895E8E0F1E09C
S11311208081807F80830895CF93DF9380E190E076
S1131130B4D1EC01009739F0FC0111921192119293
S11311401192CF0194D2CE01DF91CF9108952F92C5
S11311503F924F925F926F927F928F929F92AF9243
S1131160BF92CF92DF92EF92FF920F931F93CF9390
S1131170DF93EC014A015B01622E702E0E94DC15A4
S1131180288039804A805B8001110DC081E0B20162
S1131190A101482159216A217B21452B462B472B4C
S11311A079F480E00DC081E0B201A1014821592108
S11311B06A217B21481559056A057B0509F080E001
S11311C0882381F0662009F46BC080949094A094E5
S11311D0B09482209320A420B52088829982AA8288
S11311E0BB825EC0C114D104E104F10409F458C007
S11311F0662029F040E050E060E071E003C040E088
S113120050E0BA0171107460482959296A297B2970
S113121097018601CE0104960E94F0170E94C5161C
S1131220811101C06CD30E94371A91FD35C00FB6ED
S1131230F8940F92688179818A819B8171100DC025
S113124021E075016401C622D722E822F922CD28C3
S1131250CE28CF2879F420E00DC021E07501640187
S1131260C622D722E822F922C814D904EA04FB04CE
S113127009F020E0222371F0662061F080949094BC
S1131280A094B09486229722A822B92288829982B7
S1131290AA82BB820F900FBE1B012C01552402C0F1
S11312A00E94C516C201B101DF91CF911F910F9128
S11312B0FF90EF90DF90CF90BF90AF909F908F9072
S11312C07F906F905F904F903F902F9008954F9232
S11312D05F926F927F928F929F92AF92BF92CF92C2
S11312E0DF92EF92FF920F931F93CF93DF93EC0162
S11312F06A017B018C01095F1F4F0E94DC15EB859D
S1131300FC8588819981AA81BB81C82AD92AEA2AC5
S1131310FB2AC882D982EA82FB820E171F0709F4CE
S113132045C0C12CD12C760199249394812CA4809E
S1131330B58080819181A281B381AC01BD01772701
S1131340B2FD0FC0488059806A807B8044225522B8
S113135066227722292D45284628472889F4282DF6
S11313600FC0488059806A807B80442255226622BF
S11313707722292D441655066606770609F0282D8E
S1131380222371F0B0FF04C0C42AD52AE62AF72A22
S1131390488159816A817B817260CF010E947618ED
S11313A0EA2DFB2D0E171F0711F603C0C12CD12CFB
S11313B07601C094D094E094F09488819981AA81B4
S11313C0BB81C822D922EA22FB22C882D982EA82BE
S11313D0FB820E94C516688179818A819B81DF9195
S11313E0CF911F910F91FF90EF90DF90CF90BF901E
S11313F0AF909F908F907F906F905F904F900895E3
S1131400CF93DF93DC01E3E9F9E001C0F901208126
S113141031812A173B07D0F382819381AF01480FB2
S1131420591FA417B50749F412964D915C9113976F
S1131430840F951F93838283DF0112968D919C9173
S11314401397ED01C80FD91F2C173D07D9F420912C
S1131450910930919209C217D30781F02A813B8107
S1131460820F931F13969C938E931297C081D18100
S11314708881998111969C938E9307C01196DC9371
S1131480CE9303C011963C932E93AE17BF0711F071
S1131490B183A083DF91CF910895CF92DF92EF9231
S11314A0FF920F931F93CF93DF93EC010E94DC15FF
S11314B08091910990919209892B41F5E3E9F9E032
S11314C0A7E9B9E0B183A08313821282E3E3F9E1CF
S11314D0F0939209E093910913821282118210828F
S11314E08CE99FE013969C938E931297ED93FC9353
S11314F090938E0980938D099093900980938F091E
S113150080E090E890938C0980938B09E0908B099C
S1131510F0908C09C7018C239D23892B09F066C0A8
S1131520209709F466C0AE014C5F5F4F09F45EC0BA
S113153000918F09109190090417150708F456C0FB
S1131540C0919309D0919409E3E9F9E002C0FE0146
S1131550E9012A813B812417350728F42881398140
S113156021153105A1F78091910990919209C8172D
S1131570D907E1F1C080D18084E0C80ED11C8881F4
S11315809981918380832A813B81241B350B2930E7
S1131590310548F0CE01840F951FFC01338322836B
S11315A05B834A832DDF8A819B81081B190B10936F
S11315B0900900938F0920918D0930918E090217AB
S11315C0130720F410938E0900938D09E82AF92A51
S11315D0FB82EA82198218820E94C516C114D104C2
S11315E059F40E94981DC12CD12C06C00E94C51626
S11315F0F8CF0E94C516F5CFC601DF91CF911F9198
S11316000F91FF90EF90DF90CF900895CF93DF93E9
S1131610009751F1FC0134972281338140918B0969
S113162050918C09B90164237523672BE9F060811B
S11316307181672BC9F4EF0140955095242335231C
S1131640338322830E94DC1520918F093091900905
S11316508A819B81820F931F9093900980938F09B5
S1131660CE01CEDE0E94C516DF91CF910895FC0114
S11316700396928381834FEF5FEFBA0143835483D0
S11316806583768390878783928781871082089504
S1131690FC01138612860895CF93DF939C01FB010E
S11316A0DC011196CD91DC911297D583C4838E8190
S11316B09F81978386838E819F81DC0115967C931D
S11316C06E9314977F836E8333872287F901808119
S11316D08F5F8083DF91CF9108950F931F93CF93F2
S11316E0DF93EB01088119812A813B810F3F4FEF82
S11316F014072407340721F4FC01A185B28511C025
S1131700DC01139601C0DF011496ED91FC9115974D
S113171040815181628173810417150726073707B9
S113172090F71496ED91FC911597FD83EC83D78384
S1131730C683BF83AE831596DC93CE9314979B87A1
S11317408A87FC0120812F5F2083DF91CF911F9135
S11317500F910895CF93DF93FC01A285B385C481D3
S1131760D581868197819F838E83C681D781848129
S113177095819D838C8311968D919C911297E81786
S1131780F90731F48681978112969C938E93119771
S1131790138612868C9181508C938C91DF91CF911A
S11317A0089531E1FC013083319722E2208331979F
S11317B0A3E3A083319760833197708331971082BC
S11317C031971082319760E86083319710823197A6
S11317D0108231971082319762E06083319763E021
S11317E06083319764E06083319765E0608331976B
S11317F066E06083319767E06083319768E06083D7
S1131800319769E06083319760E160833197308379
S1131810319732E13083319733E13083319734E1CA
S11318203083319735E13083319736E13083319716
S113183037E13083319738E13083319739E13083B0
S1131840319730E23083319731E23083319720830E
S1131850319723E220833197408331975083319726
S113186026E22083319727E22083319728E22083E0
S1131870319729E22083319720E32083319721E3B4
S1131880208389970895A89590EC88E10FB6F89481
S1131890A895809360000FBE90936000A091B11949
S11318A0B091B219CD91CDBFDD91DEBFFF91EF9123
S11318B0DF91CF91BF91AF919F918F917F916F9164
S11318C05F914F913F912F911F910F91FF90EF9056
S11318D0DF90CF90BF90AF909F908F907F906F904C
S11318E05F904F903F902F901F900F900CBE0F90E1
S11318F00BBE0F900FBE0F90089581E008950F92D4
S11319000FB6F8940F920BB60F920CB60F921F926B
S113191011242F923F924F925F926F927F928F92F7
S11319209F92AF92BF92CF92DF92EF92FF920F936A
S11319301F932F933F934F935F936F937F938F9353
S11319409F93AF93BF93CF93DF93EF93FF93A091B4
S1131950B119B091B2190DB60D920EB60D920E9446
S11319605A17A091B119B091B219CD91CDBFDD91A3
S1131970DEBFFF91EF91DF91CF91BF91AF919F9126
S11319808F917F916F915F914F913F912F911F9113
S11319900F91FF90EF90DF90CF90BF90AF909F900A
S11319A08F907F906F905F904F903F902F901F90FB
S11319B00F900CBE0F900BBE0F900FBE0F900895AA
S11319C00F920FB6F8940F920BB60F920CB60F92BB
S11319D01F9211242F923F924F925F926F927F92A7
S11319E08F929F92AF92BF92CF92DF92EF92FF922B
S11319F00F931F932F933F934F935F936F937F9313
S1131A008F939F93AF93BF93CF93DF93EF93FF9302
S1131A10A091B119B091B2190DB60D920EB60D92F6
S1131A2013BE0E94F01581110E945A17A091B1199A
S1131A30B091B219CD91CDBFDD91DEBFFF91EF9191
S1131A40DF91CF91BF91AF919F918F917F916F91D2
S1131A505F914F913F912F911F910F91FF90EF90C4
S1131A60DF90CF90BF90AF909F908F907F906F90BA
S1131A705F904F903F902F901F900F900CBE0F904F
S1131A800BBE0F900FBE0F9008959ADF18950FB6F6
S1131A90F8940F92FC01968D0F900FBE81E0911186
S1131AA080E008950F931F93CF93DF93EC01042FED
S1131AB01E8D48A141110CC088819981892B09F0A0
S1131AC042C08C819D810E94AB191D821C8242C040
S1131AD0011117C050E08A819B810E94522F28A1D6
S1131AE08A819B81820F911D9B838A832C813D81F6
S1131AF08217930750F1888199819B838A8380E0C0
S1131B0029C050E08E819F810E94522F88A190E0CD
S1131B109195819591092E813F81280F391F3F832B
S1131B202E83488159812417350730F42C813D8157
S1131B30820F931F9F838E83023049F4112349F04F
S1131B40115080E007C080E005C080E003C080E061
S1131B5001C080E01F5F1E8FDF91CF911F910F9115
S1131B600895FC0140A14423A9F050E02681378167
S1131B70240F351F378326838481958128173907DD
S1131B8020F08081918197838683CB016681778160
S1131B900C94522F0895EF92FF920F931F93CF93BB
S1131BA08C010FB6F8940F92FC01C2A11C16ACF480
S1131BB08389811106C011C0F8018389811105C090
S1131BC00CC07801F3E1EF0EF11CC7010E94341838
S1131BD081110E942619C15079F78FEFF80182A371
S1131BE00F900FBE0FB6F8940F92C1A11C16ACF45F
S1131BF08085811106C011C0F8018085811105C05E
S1131C000CC07801F8E0EF0EF11CC7010E943418F3
S1131C1081110E942619C15079F78FEFF80181A331
S1131C200F900FBECF911F910F91FF90EF900895E9
S1131C30CF93DF93EC010FB6F8940F92E881F9810A
S1131C408F8D28A190E030E0829FA001839F500DEA
S1131C50929F500D11244E0F5F1F5D834C831E8E87
S1131C60FB83EA830197829FA001839F500D929F7B
S1131C70500D1124CF01840F951F9F838E838FEF06
S1131C8089A38AA361110BC08885882371F0CE01D2
S1131C9008960E943418882341F031DE06C0CE0134
S1131CA00896E5DCCE014396E2DC0F900FBE81E09E
S1131CB0DF91CF910895FF920F931F93CF93DF93FA
S1131CC0082F162FF42E6623B9F0869FC001112425
S1131CD08596E3DBEC01009741F414C00F8F18A341
S1131CE061E0CE01A5DFFCA20DC0859699838883AF
S1131CF0F5CFD983C883F2CF85E290E0CEDBEC0147
S1131D00892BB9F7CE01DF91CF911F910F91FF90ED
S1131D1008959F92AF92BF92CF92DF92EF92FF927B
S1131D200F931F93CF93DF93CDB7DEB729970FB6E9
S1131D30F894DEBF0FBECDBF7C015B012E833F83D1
S1131D404887598710E0992493946C0188E0C80E61
S1131D50D11C0FB6F8940F92F701968D878D9817C2
S1131D6010F00230B1F4402FB501C7019BDEF7013A
S1131D709389992341F0C70143960E94341888231C
S1131D8021F0BDDD02C08111BADD0F900FBE81E0EC
S1131D904EC08E819F81A885B985892B8A2B8B2B78
S1131DA021F40F900FBE80E042C0111105C0CE0196
S1131DB001960E94C018192D0F900FBEFDD60FB6C4
S1131DC0F8940F92F70181A18F3F09F411A2F70152
S1131DD082A18F3F09F412A20F900FBEBE016A5F69
S1131DE07F4FCE0101960E94D11881111CC00FB6FD
S1131DF0F8940F92F701968D878D0F900FBE98136C
S1131E000EC04E815F8168857985C6010E94D9170D
S1131E10C701C1DEBAD781119CCF71DD9ACFC7014A
S1131E20BADEB3D796CFC701B6DEAFD780E0299626
S1131E300FB6F894DEBF0FBECDBFDF91CF911F91D7
S1131E400F91FF90EF90DF90CF90BF90AF909F9055
S1131E5008950F93CF93DF93482F60E081E02BDF49
S1131E60EC01009761F01D821C82198218821E8287
S1131E7000E020E030E0A90160E070E04ADFCE013C
S1131E80DF91CF910F910895EF92FF920F931F93DB
S1131E90CF93DF938A01FC01568D378D531710F0D1
S1131EA02230E9F4422F7801EC011AA1FBDD1F3F37
S1131EB081F48B898823A9F0CE0143960E943418BB
S1131EC0882389F0E114F10481F081E0F701808333
S1131ED00DC0FF24F394F10EFAA281E007C080E064
S1131EE005C081E003C081E001C081E0DF91CF91B2
S1131EF01F910F91FF90EF9008959F92AF92BF9220
S1131F00CF92DF92EF92FF920F931F93CF93DF93C1
S1131F10CDB7DEB729970FB6F894DEBF0FBECDBF9D
S1131F208C015B012E833F8348875987E12C9924D8
S1131F3093946C0183E1C80ED11C0FB6F8940F92F0
S1131F40F801F68CFF2099F0B501C8010ADEFA9475
S1131F50F801F68E8085882331F0C80108960E9426
S1131F6034188111CCDC0F900FBE81E04CC08E81FF
S1131F709F81A885B985892B8A2B8B2B21F40F90FF
S1131F800FBE80E040C0E11005C0CE0101960E9462
S1131F90C018E92C0F900FBE0FD60FB6F8940F920D
S1131FA0F80181A18F3F09F411A2F80182A18F3FAA
S1131FB009F412A20F900FBEBE016A5F7F4FCE01DB
S1131FC001960E94D118811115C0C80160DD8823D3
S1131FD069F04E815F8168857985C601EAD7C801B9
S1131FE0DADDD3D68111A9CF8ADCA7CFC801D3DD2E
S1131FF0CCD6A3CFC801CFDDC8D6C80148DD88231D
S113200009F49BCF80E029960FB6F894DEBF0FBE8B
S1132010CDBFDF91CF911F910F91FF90EF90DF9093
S1132020CF90BF90AF909F900895BF92CF92DF92D0
S1132030EF92FF920F931F93CF93DF93CDB7DEB749
S113204029970FB6F894DEBF0FBECDBF8C014E8327
S11320505F8368877987B12CD12CCC24C3947C010D
S113206083E1E80EF11C0FB6F8940F92D8015E9646
S11320708C915E978823D9F081505E968C935E97FD
S11320808D919C91892B29F40E945F1AF801958304
S11320908483D80118968C91882329F0C801089666
S11320A0E3D781112CDC0F900FBE81E07AC08E81C2
S11320B09F81A885B985892B8A2B8B2B21F40F90BE
S11320C00FBE80E06EC0D11005C0CE0101960E9403
S11320D0C018DC2C0F900FBE6FD50FB6F8940F927A
S11320E0F80181A18F3F09F411A2D80192968C9135
S11320F092978F3F11F492961C920F900FBEBE01DF
S11321006A5F7F4FCE0101960E94D118811124C0CD
S1132110C801BDDC8823E1F0F80180819181892B1D
S113212051F40FB6F8940F92848195810E943D1961
S1132130B82E0F900FBE4E815F8168857985C701E7
S113214038D7C80128DD21D681118DCFD8DB8BCFBC
S1132150C80121DD1AD687CFC8011DDD16D6C801F6
S113216096DC882309F47FCFBB20D1F00FB6F89416
S11321700F92F8018389882339F0028CF38DE02DC6
S1132180808164E0681B01C060E0D80114968D91E1
S11321909C9115970E94EB190F900FBE80E001C02F
S11321A080E029960FB6F894DEBF0FBECDBFDF9155
S11321B0CF911F910F91FF90EF90DF90CF90BF9040
S11321C00895CF93DF93EC010FB6F8940F9289A191
S11321D08F3F09F419A28AA18F3F09F41AA20F9024
S11321E00FBE8E8D811103C0CE0143961DD7CE0143
S11321F0D2DCDF91CF910895FC0144815581228185
S11322003381240F351F80819181B901681B790BBB
S1132210CB016417750710F0841B950B0895AF92DA
S1132220BF92CF92DF92EF92FF920F931F93CF93BF
S1132230DF936C015B017A01FC01C281D3810481CB
S113224015810C1B1D0B4017510708F48A01F60178
S113225084859585A801B5018C0F9D1F0E94522F7E
S11322600E151F0558F4A701401B510BB501600F53
S1132270711FF601848595850E94522FCE018E0D23
S11322809F1DF601248135818217930710F0821B6C
S1132290930BF60193838283C701DF91CF911F9142
S11322A00F91FF90EF90DF90CF90BF90AF90089583
S11322B0CF92DF92EF92FF920F931F93CF93DF930E
S11322C01F921F92CDB7DEB75A834983211531057A
S11322D0C9F06B017C01FC01868580FD08C0CA0140
S11322E02417350708F4C9019A83898311C020177C
S11322F0310758F042E050E0BE016F5F7F4FC701E5
S11323008EDF06C080E090E008C080E090E005C069
S113231049815A81B601C70182DF0F900F90DF9186
S1132320CF911F910F91FF90EF90DF90CF90089580
S1132330AF92BF92CF92DF92EF92FF920F931F93CF
S1132340CF93DF937C015B01E9014217530708F443
S1132350EA01209779F1F70100811181C480D580C9
S1132360C01AD10ACC15DD0508F46E01F7016485A5
S11323707585600F711FA601C5010E94522FCC16EE
S1132380DD0658F4AE014C195D09F70164857585C5
S1132390C5018C0D9D1D0E94522F0C0F1D1FF701AE
S11323A0848195810817190710F0081B190BF70190
S11323B011830083CE01DF91CF911F910F91FF9084
S11323C0EF90DF90CF90BF90AF900895EF92FF927F
S11323D01F93CF93DF93EB0111E0413009F010E03C
S11323E0209711F4C1E0D0E07C012FEFE21AF20A49
S11323F0419653D8009781F020E1FC0111922A956F
S1132400E9F79C01205F3F4FFC0135872487F58263
S1132410E482D783C6831687DF91CF911F91FF9003
S1132420EF900895CF93DF93FC0127850FB6F894BE
S11324300F9280859185892BD1F482859385892B90
S1132440C1F486854681578164817581A485B585EB
S113245090E1EF0119929A95E9F7B587A4877583FE
S11324606483578346838687278781E003C080E09F
S113247001C080E00F900FBEDF91CF910895FC0161
S1132480248135818081918142815381820F931F00
S11324900197841B950B8217930710F0821B930BF3
S11324A008952F923F924F925F926F927F928F92F4
S11324B09F92AF92BF92CF92DF92EF92FF920F93CF
S11324C01F93CF93DF93CDB7DEB729970FB6F89458
S11324D0DEBF0FBECDBF5C011B012A010E831F832B
S11324E028873987FC01868580FF05C03A01F2E020
S11324F06F0E711C01C03A018E819F81A885B98538
S1132500892B8A2B8B2B09F434C0CE01019622D659
S11325100FB6F8940F92C501B2DF4C0186159705EA
S113252018F580E090E00E94FC1B94D6F501938797
S113253082870F900FBECE80DF80E884F98400E0AC
S113254010E020E030E0A90160E070E0CB01C9D7E1
S1132550F50113861286BE016A5F7F4FCE01019694
S113256020D68823A9F202C00F900FBE81149104D3
S113257019F4C50184DF4C0183019401A201B10166
S1132580C50196DE7C01892BE1F0C50135DEF5013C
S11325902681378182179307A0F00ED3F501808539
S11325A09185892B69F08085918500E010E020E019
S11325B040E050E0BA010E94FB1AF5011186108632
S11325C0E4D3C70129960FB6F894DEBF0FBECDBF82
S11325D0DF91CF911F910F91FF90EF90DF90CF90FB
S11325E0BF90AF909F908F907F906F905F904F902F
S11325F03F902F900895AF92BF92CF92DF92EF92C7
S1132600FF920F931F93CF93DF93EC015B016A0159
S113261079018E8580FF04C08A010E5F1F4F01C0BF
S11326208A01CE012CDF9C01A601B501CE0140DE5A
S11326306C01892BB9F0CE01DFDD2E813F81821739
S1132640930780F088859985892B61F08885998521
S113265000E010E020E040E050E0BA010E94731B6B
S113266019861886C601DF91CF911F910F91FF90B3
S1132670EF90DF90CF90BF90AF9008954F925F920C
S11326806F927F928F929F92AF92BF92CF92DF927E
S1132690EF92FF920F931F93CF93DF931F921F929A
S11326A0CDB7DEB75C012B013A0168017901FC0169
S11326B0868580FD03C0812C912C04C068948824F5
S11326C081F8912CC114D104E104F10431F10FB665
S11326D0F8940F92C50190DD8C018816990640F09C
S11326E080E090E00E94FC1BB5D5F50191878087BE
S11326F00F900FBE80169106B0F000E010E020E0CD
S113270030E0A90160E070E0CB01EBD6F501118661
S11327101086C50171DD8C0103C0C5016DDD8C011E
S113272080169106B8F581149104C1F0F501E0809A
S1132730F1809801A401BE016F5F7F4FC501F8DDF0
S113274089819A81081919096816790630F4F50106
S1132750F182E082612C712C01C03C019801A3013B
S1132760B201C501E5DD7C01892BB1F025D2F5016B
S113277082859385892B61F08285938500E010E042
S113278020E040E050E0BA0136D7F5011386128606
S1132790FCD202C0E12CF12CC7010F900F90DF9105
S11327A0CF911F910F91FF90EF90DF90CF90BF904A
S11327B0AF909F908F907F906F905F904F9008950F
S11327C0E0916D19F0916E19808181110CC08FEF29
S11327D09FEFDC0180933A1990933B19A0933C1925
S11327E0B0933D190895E0916D19F0916E19078029
S11327F0F085E02D0084F185E02D82819381A48110
S1132800B58180933A1990933B19A0933C19B093E6
S11328103D1908958F929F92AF92BF92CF92DF920B
S1132820EF92FF92CF936B017C01C42F80904419E7
S113283090904519A0904619B09047198091B1190C
S11328409091B21902960E94AA0B8FEFC816D8066F
S1132850E806F80669F4CC2359F06091B119709137
S1132860B2196E5F7F4F89E499E10E944C0B3FC01F
S1132870C80CD91CEA1CFB1CE091B119F091B219E7
S1132880C282D382E482F582C814D904EA04FB0428
S113289068F46091B1197091B21980916B1990919B
S11328A06C196E5F7F4F0E946D0B21C06091B1194E
S11328B07091B21980916D1990916E196E5F7F4F6E
S11328C00E946D0B80913A1990913B19A0913C198B
S11328D0B0913D19C816D906EA06FB0640F4C09229
S11328E03A19D0923B19E0923C19F0923D19CF91DC
S11328F0FF90EF90DF90CF90BF90AF909F908F901C
S113290008954F925F926F927F928F929F92AF92AF
S1132910BF92CF92DF92EF92FF920F93CF93DF9308
S11329204C016B015A012901CA010E944D0A3C0164
S1132930892B09F4F4C080E390E00E944D0AEC0175
S1132940892B99F07C8E6B8EA50165EA70E0C3013A
S11329500E945B2F21E0A21AB1088B8D9C8DA80EDA
S1132960B91EC114D10429F420C0C3010E94060B6E
S1132970D6C0D6018C918D8F8C918823A1F0AE01A5
S1132980425E5F4FF6013196B8E0CB0ED11CCF0109
S11329902191DA012D93AD01DC018C91882319F08A
S11329A0EC15FD05A1F71CA201C01D8E043008F032
S11329B003E00A8F0FA318A66E01B2E0CB0ED11C60
S11329C0C6010E94480BCE010E960E94480BDB877D
S11329D0CA8784E090E0A0E0B0E0801B9109A109DF
S11329E0B1098E879F87A88BB98BDF8BCE8B1AA6F4
S11329F019A61BA61CA61DA61EA61FA6A201B401ED
S1132A00C5010E94D10B99838883E114F10419F064
S1132A10F701D183C0830FB6F8940F9280914819BF
S1132A208F5F809348198091B1199091B219892BC5
S1132A30D1F5D093B219C093B1198091481981305E
S1132A4009F041C085E899E10E94370B80E999E1DA
S1132A500E94370B8BE999E10E94370B86EA99E1D2
S1132A600E94370B8AE799E10E94370B8FE699E1C0
S1132A700E94370B80E699E10E94370B85E599E1C6
S1132A800E94370B89E499E10E94370B8AE799E1A8
S1132A9090936E1980936D198FE699E190936C1958
S1132AA080936B1910C08091421981110CC0E09180
S1132AB0B119F091B219928D8A8D891720F0D093B3
S1132AC0B219C093B11980913E198F5F80933E195A
S1132AD08DA38A8D90914319981710F4809343190C
S1132AE0FBE08F9FC0011124B6018B57964E0E94C4
S1132AF04C0B0F900FBE80914219882361F0E09136
S1132B00B119F091B219928D8A8D981730F40E9400
S1132B107F0C81E005C081E003C081E001C08FEF3C
S1132B20DF91CF910F91FF90EF90DF90CF90BF9006
S1132B30AF909F908F907F906F905F904F9008958B
S1132B40EF92FF920F930F2EF8E3EF2EF9E1FF2E91
S1132B50F02D00E020E030E040EC50E064EC75E063
S1132B608DEC90E0CEDE813019F5CCD6813001F5C4
S1132B70F8948FEF9FEFDC0180933A1990933B19FF
S1132B80A0933C19B0933D1981E0809342191092AF
S1132B904419109245191092461910924719E09160
S1132BA0B119F091B21981A50E9484080E94430CC6
S1132BB00F91FF90EF900895809137198F5F809364
S1132BC0371908950FB6F8940F92609144197091D3
S1132BD0451980914619909147190F900FBE089599
S1132BE09F92AF92BF92CF92DF92EF92FF920F9398
S1132BF01F93CF93DF93809137198111ADC0C0909B
S1132C004419D0904519E0904619F09047198FEF78
S1132C10C81AD80AE80AF80AC0924419D092451989
S1132C20E0924619F0924719C114D104E104F10469
S1132C30B1F480916D1990916E1920916B193091B6
S1132C406C1930936E1920936D1990936C198093BD
S1132C506B1980913F198F5F80933F19B1DD80918B
S1132C603A1990913B19A0913C19B0913D19C8169D
S1132C70D906EA06FB0610F4B12C5DC0B12C0F2E68
S1132C80FBE0AF2EF02D99249394E0916D19F0910F
S1132C906E19808181110CC08FEF9FEFDC0180934E
S1132CA03A1990933B19A0933C19B0933D1943C032
S1132CB0E0916D19F0916E190780F085E02DC085C3
S1132CC0D1858A819B81AC81BD81C816D906EA066B
S1132CD0FB0648F480933A1990933B19A0933C194E
S1132CE0B0933D1928C08E010E5F1F4FC8010E948A
S1132CF0AA0B888D998D892B21F0CE010E960E9406
S1132D00AA0B8A8D90914319981710F48093431954
S1132D10A89EC0011124B8018B57964E0E944C0BFB
S1132D20E091B119F091B2199A8D828D981708F437
S1132D30ACCFB92CAACFE091B119F091B219E28DC0
S1132D408BE0E89FF0011124EB57F64E808182302E
S1132D5048F0BB24B39406C0809141198F5F8093DF
S1132D604119B12C80914019882311F0BB24B394EC
S1132D708B2DDF91CF911F910F91FF90EF90DF90FA
S1132D80CF90BF90AF909F900895CF92DF92EF9233
S1132D90FF920F931F93CF93DF930FB6F8940F9284
S1132DA08091371981508093371980913719811197
S1132DB05AC08091481981112CC058C0D701179668
S1132DC0ED91FC911897C085D185CE010E960E9495
S1132DD0AA0B8E010E5F1F4FC8010E94AA0B8A8D99
S1132DE090914319981710F480934319D89EC00109
S1132DF01124B8018B57964E0E944C0BE091B119E7
S1132E00F091B2199A8D828D981788F0C09240196A
S1132E100EC0C0E0D0E00F2EF0E6EF2EF9E1FF2E59
S1132E20F02D0F2EFBE0DF2EF02DCC24C394F70100
S1132E3080818111C3CFCD2B09F0C2DCC09141192F
S1132E40CC2349F0D1E0CCDE8111D0934019C1509C
S1132E50D1F71092411980914019882331F00E94D2
S1132E607F0C81E003C080E001C080E00F900FBEC2
S1132E70DF91CF911F910F91FF90EF90DF90CF9052
S1132E800895CF92DF92EF92FF926B017C01672B42
S1132E90682B692B41F090DE40E0C701B601BADC33
S1132EA074DF811102C00E947F0CFF90EF90DF90CD
S1132EB0CF90089580913719882321F081E0809381
S1132EC04019089510924019E091B119F091B21986
S1132ED081A50E948E08A091B119B091B219E09118
S1132EE0B119F091B2192D913C91838D948D821773
S1132EF0930758F06091B1197091B2198091B1198A
S1132F009091B219635E7F4F20D680914319282F88
S1132F1030E09BE0899FF0011124EB57F64E90813D
S1132F2091110EC04BE08150282F30E0429FF001F8
S1132F30439FF00D1124EB57F64E9081992399F39A
S1132F409BE0929FA001939F500D1124DA01AB578F
S1132F50B64E1196ED91FC9112970480F581E02D07
S1132F601296FC93EE9311974857564EE417F507C3
S1132F7029F444815581FD01528341839BE0929F52
S1132F80F001939FF00D1124EB57F64E0180F2816E
S1132F90E02D208531853093B2192093B1198093A7
S1132FA04319E091B119F091B21981A50C948408E8
S1132FB00895CF92DF92EF92FF926A017B016091B4
S1132FC0B1197091B219625F7F4F0E946D0B41E09D
S1132FD0C701B6011FDCFF90EF90DF90CF900895FA
S1132FE0CF92DF92EF92FF920F931F9368017901C2
S1132FF0E091B119F091B219706846875787608BD8
S1133000718B6091B1197091B219625F7F4F0E9408
S11330104C0B41E0C701B601FDDB1F910F91FF90FE
S1133020EF90DF90CF900895CF92DF92EF92FF92CE
S1133030CF936A017B01C22F6091B1197091B219CB
S1133040625F7F4F0E944C0BCC2321F0CC24CA94A6
S1133050DC2C76014C2FC701B601DCDBCF91FF904D
S1133060EF90DF90CF9008950F931F93CF93DF934A
S1133070DC011796ED91FC911897C085D1858E01DE
S1133080025F1F4FC8010E94AA0B8091371981115A
S113309016C00C501109C8010E94AA0B8A8D909188
S11330A04319981710F480934319BBE08B9FC00118
S11330B01124B8018B57964E0E944C0B05C0B801E1
S11330C080E699E10E944C0BE091B119F091B2199C
S11330D09A8D828D891720F481E08093401901C074
S11330E080E0DF91CF911F910F9108950F931F936B
S11330F0CF93DF937068FC014083518362837383B1
S1133100C085D1850E94AA0B8E010E5F1F4FC80196
S11331100E94AA0B8A8D90914319981710F48093FA
S11331204319FBE08F9FC0011124B8018B57964EC1
S11331300E944C0BE091B119F091B2199A8D828DD5
S1133140891718F481E080934019DF91CF911F9182
S11331500F9108950FB6F8940F9220913F19FC0136
S113316020834091441950914519609146197091FA
S1133170471941835283638374830F900FBE08956C
S113318020913F19FC012083409144195091451925
S11331906091461970914719418352836383748304
S11331A00895CF92DF92EF92FF920F931F93CF93E4
S11331B0DF93FB010FB6F8940F924091441950919C
S11331C04519609146197091471900811181228136
S11331D033810F3FAFEF1A072A073A0749F1EC0191
S11331E0C980DA80EB80FC80A0913F19B881BA17BE
S11331F029F04C155D056E057F05E0F44C195D0959
S11332006E097F09401751076207730758F4041BBE
S1133210150B260B370B0083118322833383B0DF16
S113322080E009C0108211821282138281E003C0FF
S113323080E001C081E00F900FBEDF91CF911F911C
S11332400F91FF90EF90DF90CF90089581E08093ED
S1133250401908958091B1199091B21908958091FF
S11332604219882331F080913719882321F080E0B6
S1133270089581E0089582E008950F931F93CF93FA
S1133280DF93FC01892B09F460C0828DA091B119F0
S1133290B091B2195A969C91891708F04AC0468594
S11332A0578560897189772394F0A091B119B09101
S11332B0B2195A969C9144E050E060E070E0491BDA
S11332C051096109710946875787608B718B2BE01F
S11332D0829FC00111248B57964E2485358528176B
S11332E03907F1F48F01EF012296CE010E94AA0B57
S11332F0E091B119F091B219828DF801828F909109
S11333004319981710F480934319FBE08F9FC00171
S11333101124BE018B57964E0E944C0B81E016C0BF
S1133320A091B119B091B2195A968C91828F81E013
S11333300DC0A091B119B091B21981E027A15A969C
S11333409C91291718F080E001C080E0DF91CF91B3
S11333501F910F9108950F931F93CF93DF93FC0157
S1133360892B79F180A5815080A7228D97A12917F7
S113337051F181112AC0EF018F010E5F1F4FC80167
S11333800E94AA0B8FA18A8F44E050E060E070E0B5
S1133390481B5109610971094E875F87688B798BD6
S11333A090914319981710F4809343192BE0829F4E
S11333B0C0011124B8018B57964E0E944C0B81E03A
S11333C005C080E003C080E001C080E0DF91CF91C0
S11333D01F910F9108950F931F93CF93DF93FC01D7
S11333E0892B09F43FC087A1861708F4862F928D94
S11333F09817C1F120A52130A9F5828F46855785FC
S113340060897189772364F044E050E060E070E003
S1133410481B51096109710946875787608B718B75
S11334202BE0929FC00111248B57964E248535853D
S113343028173907B9F4EF018F010E5F1F4FC80138
S11334400E94AA0B8A8D90914319981710F48093C7
S113345043192BE0829FC0011124B8018B57964E6B
S11334600E944C0BDF91CF911F910F910895CF9241
S1133470DF92EF92FF92E091B119F091B219668553
S1133480778580899189E091B119F091B219A09161
S1133490B119B091B2195A962C91C12CD12C760144
S11334A06894C2F8C21AD108E108F108C686D78622
S11334B0E08AF18AFF90EF90DF90CF900895809199
S11334C0B1199091B219892B39F0E091B119F091A9
S11334D0B21980A58F5F80A78091B1199091B2191C
S11334E008954F925F926F927F928F929F92AF92C4
S11334F0BF92CF92DF92EF92FF920F931F934901F5
S11335005A010FB6F8940F92E091B119F091B219E3
S113351027A5223039F1E091B119F091B21943A4F1
S113352054A465A476A4DC01CB0180959095A09564
S1133530B09584219521A621B72183A794A7A5A797
S1133540B6A7E091B119F091B21981E087A7C1142F
S1133550D104E104F10431F041E0C701B6015AD9C4
S11335600E947F0C0F900FBE0FB6F8940F920115B6
S1133570110569F0E091B119F091B21983A594A5F0
S1133580A5A5B6A5F80180839183A283B383E091B6
S1133590B119F091B21987A58230B1F4E091B11953
S11335A0F091B21983A594A5A5A5B6A5809490948D
S11335B0A094B09488229922AA22BB2283A694A61E
S11335C0A5A6B6A681E001C080E0E091B119F09112
S11335D0B21917A60F900FBE1F910F91FF90EF9095
S11335E0DF90CF90BF90AF909F908F907F906F901F
S11335F05F904F9008950F931F93CF93DF93FC0137
S11336000FB6F8940F920115110549F083A594A5FE
S1133610A5A5B6A5E80188839983AA83BB8387A55A
S113362092E097A72230B1F018F4213031F02AC08B
S11336302330E9F0243001F125C003A514A525A504
S113364036A5402B512B622B732B43A754A765A798
S113365076A718C043A554A565A576A54F5F5F4F0F
S11336606F4F7F4F43A754A765A776A70BC043A707
S113367054A765A776A706C0823049F143A754A78B
S113368065A776A7813029F5EF018F010E5F1F4FE3
S1133690C8010E94AA0B8A8D90914319981710F4BF
S11336A0809343192BE0829FC0011124B8018B57EA
S11336B0964E0E944C0BE091B119F091B2199A8D7B
S11336C0828D891740F40E947F0C81E005C080E060
S11336D003C081E001C081E00F900FBEDF91CF9164
S11336E01F910F910895EF92FF920F931F93CF9321
S11336F0DF93FC010115110549F083A594A5A5A547
S1133700B6A5E80188839983AA83BB8387A592E041
S113371097A72230B1F018F4213031F02AC02330B9
S1133720E9F0243001F125C003A514A525A536A58B
S1133730402B512B622B732B43A754A765A776A765
S113374018C043A554A565A576A54F5F5F4F6F4F7D
S11337507F4F43A754A765A776A70BC043A754A7D9
S113376065A776A706C08230D9F143A754A765A7F9
S113377076A78130B9F5EF0180913719811117C00F
S11337808F010E5F1F4FC8010E94AA0B8A8D909172
S11337904319981710F480934319EBE08E9FC001EE
S11337A01124B8018B57964E0E944C0B07C0BF01E1
S11337B0625F7F4F80E699E10E944C0BE091B11962
S11337C0F091B2199A8D828D891770F4E114F10485
S11337D019F081E0E701888381E08093401905C0F6
S11337E080E003C081E001C081E0DF91CF911F91AF
S11337F00F91FF90EF900895009721F48091B119F3
S11338009091B2190FB6F8940F92FC0127A52230BB
S113381019F417A681E001C080E00F900FBE08954F
S1133820CF92DF92EF92FF920F931F93FC0142839A
S11338305383648375839387828704171507260748
S11338403707C0F00C191D092E093F098685978595
S1133850A089B189081719072A073B0700F5BF019A
S11338606E5F7F4F8091BB199091BC190E946D0BC4
S113387080E018C00C151D052E053F0528F44C15D5
S11338805D056E057F0568F4BF016E5F7F4F809113
S1133890BD199091BE190E946D0B80E003C081E0B8
S11338A001C081E01F910F91FF90EF90DF90CF90C6
S11338B008950FB6F8940F928091B9199091BA199E
S11338C0892BE9F48AEC99E10E94370B8FEB99E19B
S11338D00E94370B8AEC99E19093BE198093BD192D
S11338E08FEB99E19093BC198093BB1940E067E09A
S11338F08AE00E945B0E9093BA198093B9190F90D5
S11339000FBE0895EF92FF920F93D3DF8091B91900
S11339109091BA19892B91F00F2EF7EBEF2EF9E164
S1133920FF2EF02D03E020E030E045E550E069ECA7
S113393075E087E091E00E94811401C080E00F915E
S1133940FF90EF9008958F929F92AF92BF92CF9283
S1133950DF92EF92FF920F931F93CF93DF93CDB734
S1133960DEB727970FB6F894DEBF0FBECDBFE09148
S1133970B919F091BA19309781F169832A833B838D
S11339804C835D839F838E836630F4F468DC8230DD
S113399069F400E0A7019601BE016F5F7F4F80913B
S11339A0B9199091BA190E94890E18C000E020E05C
S11339B030E0A901BE016F5F7F4F8091B9199091EA
S11339C0BA190E94890E0AC020E0A801BE016F5FE7
S11339D07F4FCF010E94440F01C080E027960FB6AD
S11339E0F894DEBF0FBECDBFDF91CF911F910F9131
S11339F0FF90EF90DF90CF90BF90AF909F908F900B
S1133A0008952F923F924F925F926F927F928F927E
S1133A109F92AF92BF92CF92DF92EF92FF920F9359
S1133A201F93CF93DF931C01CDD82B013C018091D0
S1133A30B3199091B419A091B519B091B61948165B
S1133A4059066A067B0608F053C03BC00780F08520
S1133A50E02D80809180A280B380C085D1858E01C5
S1133A600E5F1F4FC8010E94AA0BEC89FD89CE018D
S1133A7019958F8982FF25C08E859F85A889B9896C
S1133A80880D991DAA1DBB1D88169906AA06BB069A
S1133A9070F48A839B83AC83BD83DB87CA87B801B8
S1133AA08091BD199091BE190E946D0B0AC0C12C62
S1133AB0D12C760100E010E0A501940160E0CE0174
S1133AC042DFE091BD19F091BE1980818111BECF12
S1133AD08091BB199091BC199093BE198093BD1924
S1133AE0F093BC19E093BB1981E0F101808302C01B
S1133AF0F10110824092B3195092B4196092B51931
S1133B007092B619C301B201DF91CF911F910F9149
S1133B10FF90EF90DF90CF90BF90AF909F908F90E9
S1133B207F906F905F904F903F902F9008950895ED
S1133B30279A2F9A2FEF80E792E0215080409040FF
S1133B40E1F700C000001F9AF5CF279A2F9A2FEFB4
S1133B5087EA91E6215080409040E1F700C00000E0
S1133B601F9AF5CF8F929F92AF92BF92CF92DF921E
S1133B70EF92FF920F931F93CF93DF930E949408C9
S1133B809093501B80934F1B0E9494089093361B74
S1133B908093351B41E060E070E084E690E00E9491
S1133BA0E6119093321B8093311B41E060E070E09A
S1133BB08CE290E00E94E6119093341B8093331BB7
S1133BC00E944103E090351BF090361B40914F1B3F
S1133BD05091501BA12CB12C65016894A4F801E00C
S1133BE010E020E030E060EC81E00E944806C82F3D
S1133BF0D92FE090351BF090361B40914F1B50910C
S1133C00501BA12CB12C65016894A5F802E010E0CA
S1133C1020E030E060EC81E00E948402E090351BFB
S1133C20F090361B40914F1B5091501B2091321B3A
S1133C302F932091311B2F93DF93CF934C010F2EA1
S1133C40F0E3AF2EB12CC12CD12CF02D03E010E009
S1133C5020E030E060EC83E00E9420046091311B9E
S1133C607091321B83E00E941B076091331B70919B
S1133C70341B82E00E9494050F900F900F900F90D8
S1133C80DF91CF911F910F91FF90EF90DF90CF9034
S1133C90BF90AF909F908F90089581B1816881B952
S1133CA00E947E0880E00E94172A85E011D060916E
S1133CB0331B7091341B81E0C3D369C00895EDDFD9
S1133CC081ED95E00E94C42F4DDF0E94A015FFCF27
S1133CD0E1E5FBE125E735E23183208328E735E29E
S1133CE03383228323E835E23583248327E835E2CE
S1133CF0378326832DE835E23187208729E935E2A9
S1133D00338722872EE935E2358724872AEA35E28C
S1133D10378726872AE835E2318B208B2FEA35E274
S1133D20338B228B2CEB35E2358B248B682FCF0120
S1133D3053C108956530F1F4FA0180818F7390E0E6
S1133D40982F88272181822B90930902809308025F
S1133D508281F0E48F9FC0011124FA01238126950A
S1133D602695822B909307028093060281E080932C
S1133D70D5190895643051F080E090E490930702DF
S1133D8080930602909309028093080208950F938A
S1133D901F930AE91EE120E034E244EF50E060E0C2
S1133DA087E20E94512A9093D7198093D61921E073
S1133DB0892B09F020E0822F1F910F9108958091A3
S1133DC0D51908958091D6199091D719009759F073
S1133DD040E060E070E00E94A22A843031F4109246
S1133DE0D51980E0089582E0089583E008958091D4
S1133DF0D6199091D719009739F064E00E94EE2A01
S1133E00853021F083E0089582E0089580E00895EC
S1133E10609108027091090280E090E00E94F82C01
S1133E2020E030E048EC52E40E94862D20E038EF98
S1133E304FE756E40C945F2C0895EADF20E030E06D
S1133E4040E251E40E94862D0E94CC2CCB010895BF
S1133E50609106027091070280E090E00E94F82CC5
S1133E6020E030E045E253E40E94862D20E038EF64
S1133E704FE756E40E945F2C20E030E040E252E439
S1133E800C94FA2B0895E4DF20E030E040E251E4A2
S1133E900E94862D0E94C72CCB010895CF93DF93F7
S1133EA090E0FC01EE0FFF1FE80FF91FEE0FFF1F5C
S1133EB0E852F64E238121110AC0EF01E091591B0B
S1133EC0F0915A1B6A8188819981199512C0DC018D
S1133ED0AA0FBB1FED01C80FD91FCC0FDD1FC8529D
S1133EE0D64EE091631BF091641B6A8188819981AD
S1133EF01995DF91CF910895CF93DF9390E0FC0162
S1133F00EE0FFF1FE80FF91FEE0FFF1FE852F64EEA
S1133F10238121110AC0EF01E091631BF091641B1E
S1133F206A8188819981199512C0DC01AA0FBB1F8F
S1133F30ED01C80FD91FCC0FDD1FC852D64EE0913A
S1133F40591BF0915A1B6A81888199811995DF91D7
S1133F50CF9108950F2EF1E5CF2EFBE1DF2EF02D4A
S1133F6004E0C8EDD9E110E08C81813069F0E8F01B
S1133F70823039F5D6011C96ED91FC911D976A812A
S1133F808881998119951DC08D818F5F8A3010F4C5
S1133F908D8317C01D82D6011C96ED91FC911D974F
S1133FA06A818881998119950CC08D81882331F0AB
S1133FB0812FA2DF8D8181508D8303C00C83812FDB
S1133FC06DDF1F5F2696143079F665E070E080E0BF
S1133FD090E00E944117C5CFCF92DF92EF92FF92FB
S1133FE00F931F93CF93DF93062F0F2EF1E5EF2E40
S1133FF0FBE1FF2EF02DD7011896ED91FC91199756
S113400066E087E290E01995C8EDD9E10F2EF8E259
S1134010CF2ED12CF02DD982C88286E08A831B82D0
S113402014E01C8380E03ADFD7011896ED91FC91EF
S1134030199767E087E290E01995DF82CE8287E0E6
S1134040888719861A8781E029DFD7011896ED91B0
S1134050FC91199765E083E390E01995D7011896D0
S1134060ED91FC91199761E084E390E0199584E364
S113407090E09D878C8785E08E871F86188B82E071
S11340800DDFD7011896ED91FC91199764E081E05A
S113409091E01995D7011896ED91FC91199761E07B
S11340A082E091E0199582E091E09B8B8A8B1C8BD6
S11340B01D8A1E8B83E0F2DEE12CF12C20E030E03F
S11340C040EC50E063EE75E08AEA9FE10E948114BF
S11340D0DF91CF911F910F91FF90EF90DF90CF90E0
S11340E008950F931F93CF93DF93C82FD0E08E01D1
S11340F0000F111FD801AC0FBD1FAA0FBB1FA85280
S1134100B64EE0915D1BF0915E1B12966C91129776
S11341108D919C911995C00FD11FCC0FDD1FC852F2
S1134120D64E81E08C83DF91CF911F910F9108953A
S11341300F931F93CF93DF93C82FD0E08E01000F0E
S1134140111FD801AC0FBD1FAA0FBB1FA852B64E3A
S1134150E0915D1BF0915E1B12966C9112978D910C
S11341609C911995C00FD11FCC0FDD1FC852D64E9C
S113417082E08C83DF91CF911F910F910895282FB6
S113418030E0F901EE0FFF1FE20FF31FEE0FFF1FE8
S1134190E852F64E93E09483AFCE0895282F30E092
S11341A0F901EE0FFF1FE20FF31FEE0FFF1FE8529E
S11341B0F64E94E0948372CE089590E0FC01EE0FE5
S11341C0FF1FDF01A80FB91FAA0FBB1FA852B64ECD
S11341D024E015962C931597FD011482089590E020
S11341E0FC01EE0FFF1FDF01A80FB91FAA0FBB1FB1
S11341F0A852B64E21E015962C931597FD01148212
S113420008950F931F93CF93DF931F921F92CDB7FF
S1134210DEB78C0119822DC0E091541AEC3250F4AF
S113422081E08E0F8093541AF0E0EA57F54E8A81AC
S1134230808302C01092541A8A818A30D1F440914A
S1134240541A50E0FA01EC57F54E108241505109CE
S11342509E012F5F3F4F66E87AE18091571A909153
S1134260581A0E94FB12898181110E947F0C1092BE
S1134270541ABE016E5F7F4FC80147D6882361F28E
S11342800F900F90DF91CF911F910F9108950F938D
S11342901F93CF93DF938C01EB018091571A909178
S11342A0581A0E941212B80180EF99E10E94922FCD
S11342B0209779F0E0EFF9E101900020E9F73197D8
S11342C080E290E091838083BE0180EF99E10E94B7
S11342D0872FE0EFF9E1DF010D900020E9F7119756
S11342E08DE09AE011969C938E9312961C92019005
S11342F00020E9F73197E05FF941AE2F80EF99E1B3
S1134300AC016A2F8091591A90915A1AAED5811135
S113431011C008E215E020E030E04DE250E060EE2C
S11343207AE18091571A9091581A0E943E1380EEB8
S11343309AE102C080E090E0DF91CF911F910F914C
S113434008952F923F924F925F926F927F928F9235
S11343509F92AF92BF92CF92DF92EF92FF920F9310
S11343601F93CF93DF935C01FC0101900020E9F7D8
S113437031976F01C81AD90A5C2C0F2EF4E88F2EDE
S1134380F8E09F2EF02DE12CF12C4C2C3701F40198
S113439001811281E80109900020E9F72197C01BEF
S11343A0D10B3C2EF9E0CF16D10458F0F401208053
S11343B0FEE02F1206C0B801C5010E94622F892BAE
S11343C009F5442D351408F44C2F50E0B801C5010B
S11343D00E94992F892B49F4F301EE0FFF1FE60D7C
S11343E0F71DEC57F74F20800DC08FEFE81AF80A3D
S11343F0E3E08E0E911CF1E1EF16F10439F66894B6
S1134400222424F8822DDF91CF911F910F91FF90E8
S1134410EF90DF90CF90BF90AF909F908F907F9060
S11344206F905F904F903F902F90089530DF89CF29
S113443008958091571A9091581A0C941212089565
S11344408F929F92AF92CF92EF920F931F93CF933D
S1134450C82F8B0141E060E070E088EC90E00E949E
S1134460E6119093581A8093571A1093561A009392
S1134470551A0F2EF1E08F2EF1E29F2EF02D689445
S1134480AA24A6F86894CC24C6F8E12C00E023E022
S113449040E051EE60E070E08C2F2CD490935A1AD7
S11344A08093591AE091591BF0915A1B64E087E0FC
S11344B091E01995CF911F910F91EF90CF90AF900C
S11344C09F908F900895882349F0E091631BF091A9
S11344D0641B64E088E091E019950895E091591B0C
S11344E0F0915A1B64E088E091E01995089560E02A
S11344F070E08AE096E0CBDEE0EEFAE10190002085
S1134500E9F73197E05EFA4181E0759708F080E0C1
S11345100895CF93DF93EC0160E070E08BE196E0C7
S1134520B6DEE0EEFAE101900020E9F7E15FFA413E
S113453039F460EE7AE1CE010E94922F80E002C04D
S1134540188281E0DF91CF910895FC010190002051
S1134550E9F79F01215131092817390729F4BC01D2
S113456089E496E063CF089589E00895FC01019001
S11345700020E9F79F01215131092817390729F44F
S1134580BC0188E596E052CF089589E00895FC01C6
S113459001900020E9F79F012152310928173907BA
S11345A029F4BC0187E696E041CF089589E0089597
S11345B060E070E086EA96E039CF08950F931F9388
S11345C0E82FF0E0EE0FFF1FE058F74F6081718194
S11345D08FEA96E02BDF811114C008E215E020E099
S11345E030E04DE250E060EE7AE18091571A90910C
S11345F0581A0E943E13882321F080EE9AE1A1DE2E
S113460003C080EE9AE19DDE1F910F9108950F93F0
S11346101F93CF93DF931F92CDB7DEB7DB011196C3
S11346209C911197953108F0B4C0992381F160E011
S113463070E0272F30E0462F50E0FD01E40FF51F16
S1134640928192959F709A3010F0995C01C0905DB0
S1134650F901EF58F54E90832F5F3F4FFD01E40FB2
S1134660F51F92819F70492F50E04A30510514F094
S1134670995C01C0905DF901EF58F54E90837E5F1F
S11346806F5F11969C911197691798F201C070E0C1
S1134690E72FF0E0EF58F54E10824C91811103C0E2
S11346A088EB96E002C08AEB96E021E73AE13F937B
S11346B02F931F924F939F938F938EEB96E09F932C
S11346C08F9383EB9AE19F938F930E94F42F60E082
S11346D070E083EB9AE1AADE0FB6F894DEBF0FBE5A
S11346E0CDBF811159C008E215E020E030E04DE271
S11346F050E060EE7AE18091571A9091581A0E9426
S11347003E13882309F447C080EE9AE11ADE8E3006
S113471009F042C087E089838091551A9091561A16
S1134720892BA9F1BE016F5F7F4F80EE9AE168D1BA
S113473080935B1AE981F0E0E052F54EDF010D90C1
S11347400020E9F71197AE1BBF0BAA2391F0BB27FA
S1134750CD0101979C0112F42F5F3F4F35952795AA
S113476020935C1AAF014F5F5F4F64E18DE59AE1DE
S113477073D101E010E020E030E046E150E06BE569
S11347807AE18091551A9091561A0E9451128EE046
S113479003C084E101C080E00F90DF91CF911F91AD
S11347A00F910895813019F06EEC76E002C067EA4B
S11347B077E082ED96E03ACE08959F938F9383E05D
S11347C097E09F938F9383EB9AE19F938F930E943B
S11347D0F42F60E070E083EB9AE128DE0F900F90F5
S11347E00F900F900F900F9008952F923F924F9239
S11347F05F926F927F928F929F92AF92BF92CF926D
S1134800DF92EF92FF920F931F93CF93DF93CDB775
S1134810DEB7A0970FB6F894DEBF0FBECDBF60E33E
S113482077E08CE397E033DD8CDD8111A3C080E277
S1134830E1E2F2E0DE01119601900D928A95E1F732
S11348409E012F5F3F4F6901E12CF12C0F2EF8E4FC
S1134850AF2EF7E0BF2EF02D03EB1AE10F2EF1E699
S11348604F2EF7E05F2EF02D0F2EF8E78F2EF7E096
S11348709F2EF02D0F2EF2E96F2EF7E07F2EF02DF4
S11348803E2C2F2CFF92EF92BF92AF921F930F9367
S11348900E94F42F60E070E0C801F9DC52DD0F9053
S11348A00F900F900F900F900F90811163C032E022
S11348B03E15E8F4F60183818F9382818F93818181
S11348C08F9380818F93FF92EF925F924F921F9309
S11348D00F930E94F42F60E070E0C801D8DC31DD52
S11348E00FB6F894DEBF0FBECDBF811143C02F9227
S11348F03F929F928F921F930F930E94F42F60E038
S113490070E0C801C4DC1DDD0F900F900F900F9074
S11349100F900F9081112EC02F923F927F926F9231
S11349201F930F930E94F42F60E070E0C801AFDC86
S113493008DD0F900F900F900F900F900F90811142
S113494019C03FEFE31AF30A84E0C80ED11C98E0C3
S1134950E916F10409F094CF60E070E08AEA97E088
S113496096DCEFDC811106C060E070E08BEB97E031
S11349708EDCE7DCA0960FB6F894DEBF0FBECDBF89
S1134980DF91CF911F910F91FF90EF90DF90CF9027
S1134990BF90AF909F908F907F906F905F904F905B
S11349A03F902F900895EF92FF920F931F93CF9310
S11349B0DF93EC018B017A0181E0F4DE81110DC0FB
S11349C0CE01D4DD811109C0C801E1DD811105C02A
S11349D0C701BBDD811101C0EBDDDF91CF911F91D8
S11349E00F91FF90EF90089590E0FC01EE0FFF1FF0
S11349F08E0F9F1FFC01EC57F74F81819281089520
S1134A00DC01009729F1FB012081FC0101900020C9
S1134A10E9F73197E81BF90B822F90E0E817F907C3
S1134A20C8F080E008C0880F382F330F330F830F8E
S1134A308053890F2F5FFD01E20FF11D908130ED4E
S1134A40390F3A3010F49111EECFFB012083089511
S1134A5080E0089580E008950F931F93CF93DF9330
S1134A60DC01EA012097E1F1FA0101900020E9F765
S1134A703197E41BF50B329710F532C08D01040F0A
S1134A80151F30E0AE01420F531FFA01908191349B
S1134A9028F09753592F5295507F03C0592F5295A0
S1134AA0507F2C0F3D1FF9019181913410F09753E1
S1134AB001C09053950FF80190838F5F01C080E08F
S1134AC0282F220F482F50E0FE0101900020E9F723
S1134AD03197EC1BFD0B4E175F0710F48613CECFF6
S1134AE0DF91CF911F910F910895FC01808108956A
S1134AF0FC01208181E090E002C0880F991F6A9533
S1134B00E2F782230895FC01808186230895FC0145
S1134B1060830895FC0110820895FC01408121E026
S1134B2030E002C0220F331F6A95E2F7242B208362
S1134B300895FC012081622B60830895FC0140816B
S1134B4021E030E002C0220F331F6A95E2F72427E8
S1134B5020830895FC012081622760830895FC016D
S1134B60908121E030E002C0220F331F6A95E2F702
S1134B702095292320830895FC0190816095692361
S1134B80608308958091101B860F8093101B909171
S1134B90131B913079F028F09230A9F0933019F179
S1134BA008956F3F09F048C01092101B81E0809374
S1134BB0131B0895663809F03FC010920F1B82E062
S1134BC08093131B0895E0910F1B81E08E0F809357
S1134BD00F1BF0E0E35FF44E6083823069F583E0FD
S1134BE08093131B089590910F1B21E0290F2093AC
S1134BF00F1B963009F581110EC0EDE0FBE18081B9
S1134C0090E0982F88272181820F911D9093151B86
S1134C108093141B04C01092151B1092141B109245
S1134C20131BE091111BF091121B309729F0809116
S1134C30141B9091151B199508958F929F92AF9212
S1134C40CF92EF920F93CF93DF93EB010F2EF2EC01
S1134C508F2EF5E29F2EF02D6894AA24A4F8689470
S1134C60CC24C4F8E12C00E023E040E855E260E005
S1134C7070E040D09093171B8093161BD093121BA7
S1134C80C093111BDF91CF910F91EF90CF90AF9014
S1134C909F908F900895CF93DF93CDB7DEB7299778
S1134CA00FB6F894DEBF0FBECDBF89E0E1E4F2E0B9
S1134CB09E012F5F3F4FD90101900D928A95E1F734
S1134CC01092151B1092141B8091161B9091171BA8
S1134CD0009731F0422F532F69E0C7D080E001C024
S1134CE082E029960FB6F894DEBF0FBECDBFDF91E8
S1134CF0CF9108952F923F924F925F926F927F923D
S1134D008F929F92AF92CF92EF92FF920F931F9345
S1134D10CF93DF93CDB7DEB7F82E2A013B0188E0AD
S1134D2090E09BD78C018F2D90E0880F991FFC0198
S1134D30E85EF44E11830083FC01E65FFD4F808141
S1134D409181D8018D939C936C2D70E084E090E068
S1134D506AD71C0161E070E086E090E064D77C01D2
S1134D604C2DB1012BD5F801F582E4826A2D70E057
S1134D7084E090E058D71C0161E070E086E090E0A8
S1134D8052D77C014A2DB10119D5D8011396FC9252
S1134D90EE92129717969C928E921697FFB6F894FD
S1134DA0ED91FC91119736978081826080838D907C
S1134DB09C90C301B2011CD620E030E040E051E4F5
S1134DC0A5D69B01AC0160E074E284E79BE477D54F
S1134DD020E030E040E85FE30DD5DED5F401329702
S1134DE06083D801ED91FC911197359788E9808310
S1134DF0ED91FC91349786E08083FFBEC801DF917A
S1134E00CF911F910F91FF90EF90CF90AF909F9013
S1134E108F907F906F905F904F903F902F90089568
S1134E20CF93DF93EC01EA81FB8193818281258119
S1134E30981B922384819817A1F0938126952923A6
S1134E40A081B181A20FB11D6C939F5F2581922334
S1134E509383E881F981359780818062808380E043
S1134E6001C082E0DF91CF910895EF92FF920F93FA
S1134E701F93CF93DF937C01DC011296ED91FC919B
S1134E80139793818281981B858198238481891B40
S1134E90861798F1662341F1842F952FDC01615028
S1134EA0462F50E04F5F5F4F480F591FE701EA81DB
S1134EB0FB81938182812581981B92238481981799
S1134EC079F08C91938126952923608171818B01DE
S1134ED0020F111DE80188839F5F858198239383C6
S1134EE01196A417B50711F7D701ED91FC913597E9
S1134EF080818062808380E001C082E0DF91CF9175
S1134F001F910F91FF90EF900895DC011496ED919D
S1134F10FC91159793818281981789F092818581FC
S1134F2086958923A081B181A80FB11D8C91DB01E5
S1134F308C939F5F85819823928380E0089583E01A
S1134F4008951F920F920FB60F9211240BB60F9271
S1134F502F933F934F935F936F937F938F939F937D
S1134F60AF93BF93CF93DF93EF93FF93A091181B5D
S1134F70B091191B109711F16091C6001496ED9130
S1134F80FC911597938182812581981B92238481BA
S1134F90981761F0838126952823C081D181C20F9F
S1134FA0D11D68838F5F9581892383831696ED9144
S1134FB0FC911797309711F0CD011995FF91EF915E
S1134FC0DF91CF91BF91AF919F918F917F916F911D
S1134FD05F914F913F912F910F900BBE0F900FBE99
S1134FE00F901F9018951F920F920FB60F921124D5
S1134FF00BB60F922F938F939F93AF93BF93EF931F
S1135000FF93E091181BF091191B3097B9F00280BF
S1135010F381E02D938182819817B1F0928185818B
S1135020282F26952923A081B181A20FB11D2C918F
S11350309F5F892382832093C6000BC0E1ECF0E0DC
S113504080818F7D808305C0E1ECF0E080818F7DDD
S11350508083FF91EF91BF91AF919F918F912F9199
S11350600F900BBE0F900FBE0F901F9018951F92BC
S11350700F920FB60F9211240BB60F922F933F93FA
S11350804F935F936F937F938F939F93AF93BF934C
S1135090CF93DF93EF93FF93A0911A1BB0911B1B47
S11350A0109711F16091CE001496ED91FC91159733
S11350B0938182812581981B92238481981761F0C2
S11350C0838126952823C081D181C20FD11D688395
S11350D08F5F9581892383831696ED91FC911797B1
S11350E0309711F0CD011995FF91EF91DF91CF9198
S11350F0BF91AF919F918F917F916F915F914F91EC
S11351003F912F910F900BBE0F900FBE0F901F90E9
S113511018951F920F920FB60F9211240BB60F928F
S11351202F938F939F93AF93BF93EF93FF93E0914C
S11351301A1BF0911B1B3097B9F00280F381E02D0C
S1135140938182819817B1F092818581282F2695C9
S11351502923A081B181A20FB11D2C919F5F8923C6
S113516082832093CE000BC0E9ECF0E080818F7D38
S1135170808305C0E9ECF0E080818F7D8083FF911E
S1135180EF91BF91AF919F918F912F910F900BBE93
S11351900F900FBE0F901F9018951F920F920FB68D
S11351A00F9211240BB60F922F933F934F935F935B
S11351B06F937F938F939F93AF93BF93CF93DF931B
S11351C0EF93FF93A0911C1BB0911D1B109711F13D
S11351D06091D6001496ED91FC911597938182818C
S11351E02581981B92238481981761F083812695E9
S11351F02823C081D181C20FD11D68838F5F95811F
S1135200892383831696ED91FC911797309711F0BB
S1135210CD011995FF91EF91DF91CF91BF91AF919E
S11352209F918F917F916F915F914F913F912F91BA
S11352300F900BBE0F900FBE0F901F9018951F92EA
S11352400F920FB60F9211240BB60F922F938F93D8
S11352509F93AF93BF93EF93FF93E0911C1BF09147
S11352601D1B3097B9F00280F381E02D9381828178
S11352709817B1F092818581282F26952923A08142
S1135280B181A20FB11D2C919F5F8923828320934A
S1135290D6000BC0E1EDF0E080818F7D808305C0F6
S11352A0E1EDF0E080818F7D8083FF91EF91BF91EC
S11352B0AF919F918F912F910F900BBE0F900FBEC6
S11352C00F901F9018951F920F920FB60F921124F2
S11352D00BB60F922F933F934F935F936F937F93EC
S11352E08F939F93AF93BF93CF93DF93EF93FF93EA
S11352F0A0911E1BB0911F1B109711F160913601F4
S11353001496ED91FC911597938182812581981BC8
S113531092238481981761F0838126952823C08184
S1135320D181C20FD11D68838F5F958189238383C7
S11353301696ED91FC911797309711F0CD011995C0
S1135340FF91EF91DF91CF91BF91AF919F918F9199
S11353507F916F915F914F913F912F910F900BBE71
S11353600F900FBE0F901F9018951F920F920FB6BB
S11353700F9211240BB60F922F938F939F93AF9399
S1135380BF93EF93FF93E0911E1BF0911F1B309787
S1135390B9F00280F381E02D938182819817B1F0F6
S11353A092818581282F26952923A081B181A20F7E
S11353B0B11D2C919F5F89238283209336010BC0FA
S11353C0E1E3F1E080818F7D808305C0E1E3F1E0DA
S11353D080818F7D8083FF91EF91BF91AF919F91E9
S11353E08F912F910F900BBE0F900FBE0F901F90B7
S11353F01895CF93DF931F92CDB7DEB7BE016F5FD1
S11354007F4F8091201B9091211B7FDD8111F6CF6E
S1135410898190E00F90DF91CF910895682F80915A
S1135420201B9091211BFCDC80E090E008958F927A
S11354309F92AF92CF92EF920F93812C912C68940C
S1135440AA24A7F86894CC24C7F8E12C00E023E050
S113545040E051EE60E070E04DDC9093211B8093BE
S1135460201BEBE6FBE182E192E09183808393834E
S113547082830F91EF90CF90AF909F908F9008957B
S11354808091301B81110CC08CE08093B8008FEFA9
S11354908093BB0084E08093BC0081E08093301B48
S11354A00895AF92BF92CF92DF92EF92FF920F9343
S11354B01F93CF93DF93A82EB62E69017A0184E05F
S11354C090E0CBD3EC01892B61F1A88281E0B81282
S11354D012C0C701B60120EA36E841E050E079D3B2
S11354E0DA01C9014097A109B109B695A795979525
S11354F08795898311C0C701B60120E83AE146E0E7
S113550050E067D3DA01C9014097A109B109B69502
S1135510A7959795879589831B830A838C2F9D2F45
S113552002C080E090E0DF91CF911F910F91FF9036
S1135530EF90DF90CF90BF90AF9008958091BC0022
S113554081700895FF920F931F93CF93DF93009779
S1135550D1F14A30D0F5F42E8B01EC01EFDF81114B
S113556036C08091231B9091241BC817D90741F0A2
S113557087DF89818093B800D093241BC093231BB9
S113558081E08F0D8093251B8881880F8093261BD3
S1135590FF2089F0F801A7E2BBE14FEF4F0D642F24
S11355A070E0CB010196B801680F791F81918D934A
S11355B0E617F707D9F788EF8093200285EA8093EE
S11355C0BC0084E005C086E003C087E001C082E03F
S11355D0DF91CF911F910F91FF9008951F93CF9367
S11355E0DF93009729F16B3028F5162FEC01A6DF25
S11355F0811122C08091231B9091241BC817D907C5
S113560041F03EDF89818093B800D093241BC0937E
S1135610231B1093251B8881880F81608093261B90
S113562088EF8093200285EA8093BC0085E005C062
S113563086E003C087E001C082E0DF91CF911F9133
S113564008951F920F920FB60F9211240BB60F926A
S11356502F933F934F935F936F937F938F939F9376
S1135660AF93BF93EF93FF93E091B9008E2F90E037
S1135670FC013897E135F10508F075C08827E45836
S1135680FF4F8F4FC8C21092221BE091221B8091C2
S1135690251BE81770F481E08E0F8093221BF0E045
S11356A0EA5DF44E80818093BB0085E88093BC0062
S11356B072C084E98093BC008091231B9091241BC9
S11356C0DC011296ED91FC911397309709F463C0B5
S11356D020E040E050E064E019955DC0E091221BB9
S11356E081E08E0F8093221B8091BB00F0E0EA5D85
S11356F0F44E80838091B900803411F41092221BFF
S11357002091221B30E08091251B90E001972817FF
S1135710390724F485EC8093BC003DC085E8809370
S1135720BC0039C08091BB00E091221BF0E0EA5D2F
S1135730F44E808384E98093BC008091231B909174
S1135740241BDC011296ED91FC911397309719F10B
S11357502091251B46E25BE165E019951CC085EAB2
S11357608093BC0018C08091B9008093200284E02B
S11357708093BC008091231B9091241BDC01129622
S1135780ED91FC911397309731F020E040E050E028
S1135790609120021995FF91EF91BF91AF919F9174
S11357A08F917F916F915F914F913F912F910F90C6
S11357B00BBE0F900FBE0F901F901895FC01411166
S11357C001C06CD3842F90E09C01215031098223C5
S11357D09323892B09F062D3413808F05FD31282F6
S11357E013824483440F415045837183608380E076
S11357F090E008955058BB27AA270ED04DC13ED142
S113580030F043D120F031F49F3F11F41EF433C142
S11358100EF4E095E7FB29C1E92F4FD180F3BA17C5
S1135820620773078407950718F071F49EF567C142
S11358300EF4E0950B2EBA2FA02D0B01B9019001A7
S11358400C01CA01A0011124FF27591B99F0593FEB
S113585050F4503E68F11A16F040A22F232F342F33
S11358604427585FF3CF469537952795A795F04081
S11358705395C9F77EF41F16BA0B620B730B840B96
S1135880BAF09150A1F0FF0FBB1F661F771F881F4E
S1135890C2F70EC0BA0F621F731F841F48F48795A6
S11358A077956795B795F7959E3F08F0B3CF939595
S11358B0880F08F09927EE0F9795879508950CD0D7
S11358C0EBC0E3D040F0DAD030F021F45F3F19F0C0
S11358D0CCC0511115C1CFC0F0D098F39923C9F3AE
S11358E05523B1F3951B550BBB27AA2762177307E2
S11358F0840738F09F5F5F4F220F331F441FAA1F96
S1135900A9F333D00E2E3AF0E0E830D09150504055
S1135910E695001CCAF729D0FE2F27D0660F771F03
S1135920881FBB1F261737074807AB07B0E809F0E5
S1135930BB0B802DBF01FF2793585F4F2AF09E3F7A
S1135940510568F092C0DCC05F3FECF3983EDCF395
S1135950869577956795B795F7959F5FC9F7880FF3
S1135960911D9695879597F90895E1E0660F771F45
S1135970881FBB1F621773078407BA0720F0621BD6
S1135980730B840BBA0BEE1F88F7E095089504D0CF
S11359906894B111B5C0089598D088F09F5790F0DD
S11359A0B92F9927B751A0F0D1F0660F771F881F40
S11359B0991F1AF0BA95C9F712C0B13081F09FD07F
S11359C0B1E008959CC0672F782F8827B85F39F01D
S11359D0B93FCCF3869577956795B395D9F73EF49F
S11359E090958095709561957F4F8F4F9F4F089547
S11359F0E89409C097FB3EF4909580957095619565
S1135A007F4F8F4F9F4F9923A9F0F92F96E9BB271A
S1135A109395F695879577956795B795F111F8CF96
S1135A20FAF4BB0F11F460FF1BC06F5F7F4F8F4F01
S1135A309F4F16C0882311F096E911C0772321F0F7
S1135A409EE8872F762F05C0662371F096E8862F8F
S1135A5070E060E02AF09A95660F771F881FDAF7E6
S1135A60880F9695879597F9089597F99F6780E829
S1135A7070E060E008959FEF80EC089500240A949C
S1135A801616170618060906089500240A94121615
S1135A901306140605060895092E0394000C11F448
S1135AA0882352F0BB0F40F4BF2B11F460FF04C0F5
S1135AB06F5F7F4F8F4F9F4F089557FD9058440F4E
S1135AC0551F59F05F3F71F04795880F97FB991F59
S1135AD061F09F3F79F08795089512161306140616
S1135AE0551FF2CF4695F1DF08C0161617061806A3
S1135AF0991FF1CF86957105610508940895E8947E
S1135B00BB2766277727CB0197F908950BD0C4CF1D
S1135B10B5DF28F0BADF18F0952309F0A6CFABCF94
S1135B201124EECFCADFA0F3959FD1F3950F50E077
S1135B30551F629FF001729FBB27F00DB11D639F3B
S1135B40AA27F00DB11DAA1F649F6627B00DA11DE1
S1135B50661F829F2227B00DA11D621F739FB00D87
S1135B60A11D621F839FA00D611D221F749F3327F7
S1135B70A00D611D231F849F600D211D822F762F90
S1135B806A2F11249F5750408AF0E1F088234AF08D
S1135B90EE0FFF1FBB1F661F771F881F91505040D9
S1135BA0A9F79E3F510570F060CFAACF5F3FECF399
S1135BB0983EDCF3869577956795B795F795E795C5
S1135BC09F5FC1F7FE2B880F911D9695879597F9D6
S1135BD00895A1E21A2EAA1BBB1BFD010DC0AA1F2A
S1135BE0BB1FEE1FFF1FA217B307E407F50720F042
S1135BF0A21BB30BE40BF50B661F771F881F991FBD
S1135C001A9469F760957095809590959B01AC0105
S1135C10BD01CF010895EE0FFF1F881F8BBF0790B2
S1135C20F691E02D19940F931F93CF93DF93869FE2
S1135C308001879F100D969F100D1124C8010DD06F
S1135C40EC01009721F0A80160E070E034D1CE01AE
S1135C50DF91CF911F910F9108950F931F93CF93CD
S1135C60DF938230910510F482E090E0E091691BAB
S1135C70F0916A1B20E030E0A0E0B0E0309719F129
S1135C80408151810281138148175907C8F0841754
S1135C90950769F4109731F012960C9312971396A6
S1135CA01C9327C00093691B10936A1B22C0211503
S1135CB0310519F04217530718F49A01BD01EF0199
S1135CC0DF01F801DBCF21153105F9F0281B390B71
S1135CD02430310580F48A819B816115710521F09E
S1135CE0FB019383828304C090936A1B8093691B96
