:100000004FC200006EC200006CC200006AC2000055
:1000100068C2000066C2000064C2000062C2000044
:1000200060C200005EC200005CC200005AC2000054
:100030000C949E0B56C2000054C2000052C2000035
:1000400050C200004EC200004CC200004AC2000074
:1000500048C2000046C2000044C2000042C2000084
:1000600040C200000C941F240C9471243AC200007A
:1000700038C2000036C2000034C2000032C20000A4
:1000800030C200002EC200002CC200002AC20000B4
:100090000C94B5240C94072524C200000C9453271B
:1000A00020C200001EC200001CC200001AC20000D4
:1000B00018C2000016C2000014C2000012C20000E4
:1000C00010C200000EC200000CC200000C944B25B0
:1000D0000C949D2506C200000C94E1250C94332657
:1000E00000C20000C601C601C601000208021E02CD
:1000F000C601C601000208027527E527E527E527A6
:10010000E527E527E527E5277527E527E527E527FF
:10011000E527E527E527E5277727E527E527E527ED
:10012000E527E527E527E527E527E527E527E5276F
:10013000E527E527E527E5277727E527E527E527CD
:10014000E527E527E527E527E527E527E527E5274F
:10015000E527E527E527E527E127E527E527E52743
:10016000E527E527E527E527AC27E527E527E52768
:10017000E527E527E527E527E527E527E527E5271F
:10018000E527E527E527E527A027E527E527E52754
:10019000E527E527E527E527C4270AED17E10F2E18
:1001A000FAE0EF2EF8E1FF2EF02D8091D917882389
:1001B00029F10FB6F8940F92D8011796ED91FC91A2
:1001C0001897C085D185CE0102960E94030A8091BE
:1001D000CD1781508093CD178091D917815080938E
:1001E000D9170F900FBE8B8D9C8D0E945F09CE0199
:1001F0000E945F098091D9178111DBCFF7018081BF
:10020000823010F00E94D80A0E94521ACECFCF93AB
:10021000DF93CDB7DEB760970FB6F894DEBF0FBEA1
:10022000CDBFCE0101969A878987812C912CA12C74
:10023000B12C69847A84E0914218F091431880814E
:10024000882309F413C10780F085E02D20803180D8
:10025000428053800E946413CE0101960E94BC1913
:100260006B877C878D879E878981811167C08B858D
:100270009C85AD85BE8582159305A405B50508F45A
:1002800045C00E944D14E0914218F0914318078038
:10029000F085E02DA085B185B88BAF87CD010296A2
:1002A0000E94030AEF85F889878982FF21C046856D
:1002B000578560897189420D531D641D751D72013A
:1002C00061010B851C852D853E85CF010E94CC18D0
:1002D000882399F0C82CD92CEA2CFB2C00E010E0E4
:1002E000A201910160E08F8598890E945E1905C086
:1002F0008E7FAF85B88957968C93AF85B889549611
:10030000ED91FC915597CD011995A1C020E0B20166
:10031000A1018B859C85AD85BE85481B590B6A0B59
:100320007B0B80913E1890913F180E946D0E0E94A9
:100330004D1481118CC00E94D80A89C00E944D14AE
:1003400086C0898188230CF482C04E805F80D201F0
:100350001C968D919C911D97892B21F0C2010296CC
:100360000E94030ACE0108960E94BC198B019C01D1
:10037000E9810E2E000CFF0BEA30F10508F067C092
:100380008827EE58FF4F8F4F0C94AE29F2018789D2
:100390008160878BCA80DB80EC80FD804685578535
:1003A000608971894C0D5D1D6E1D7F1DC2010E940B
:1003B000CC18882309F44BC0D2015496ED91FC91DE
:1003C0005597C2011995F201878982FF40C04A8181
:1003D0005B816C817D8186859785A089B1899A0131
:1003E000AB01280F391F4A1F5B1FC82CD92CEA2CE0
:1003F000FB2C00E010E060E0C2010E945E1927C003
:10040000D20157968C9157978E7F57968C931FC029
:10041000F20187898160878B4A815B816C817D8154
:1004200046875787608B718B400F511F621F731F68
:1004300068017901C2010E94CC1809C0F2018789C4
:1004400081FD03C0C2013BD702C08E7F878B282D60
:10045000392D4A2D5B2D662D772D80913E18909178
:100460003F180E94D60D81116CCFE5CE0E94641317
:10047000CE0101960E94BC196B877C878D879E8771
:10048000898181115BCFE0914018F0914118808102
:1004900021E0811120E0282C392C4A2C5B2C37CF0D
:1004A00011241FBECFEFD1E2DEBFCDBF00E00CBFF5
:1004B00017E0A0E0B2E0E8EEFCE500E00BBF02C010
:1004C00007900D92A037B107D9F729E1A0E7B7E06F
:1004D00001C01D92A93EB207E1F70E942A1B0C94AD
:1004E000722E8ECD2F923F924F925F926F927F929B
:1004F0008F929F92AF92BF92CF92DF92EF92FF9234
:100500000F931F93CF93DF93882E962E1A01280105
:10051000390161E070E083E090E00E94B629EC01CF
:10052000009769F1FC01119230927B0720927A07C3
:100530004092760750927707609278077092790719
:10054000F0927507E0927407A0927007B09271075D
:10055000C0927207D0927307492D50E07F01082D99
:100560009C0163E472E089E293E00E9409128DE449
:1005700092E09F938F930E94542B0F900F90CE0187
:10058000DF91CF911F910F91FF90EF90DF90CF906F
:10059000BF90AF909F908F907F906F905F904F90A3
:1005A0003F902F900895CF92DF92EF92FF920F939A
:1005B0001F93CF93DF93EC0140917607509177071B
:1005C0006091780770917907CC24CA94DC2C76016D
:1005D00001E021E080917A0790917B0711D400918E
:1005E0007607109177072091780730917907DC0121
:1005F000CB0180239123A223B323081719072A07CD
:100600003B07F1F488818F5F888384E592E09F93B4
:100610008F930E94542B64EC79E080E090E00E947C
:10062000C9144091700750917107609172077091E1
:1006300073078091740790917507A2D40F900F9063
:10064000DF91CF911F910F91FF90EF90DF90CF90AE
:100650000895EC01CE01A7DFFDCFFC018081089554
:10066000CF93DF93EC0161E070E08AE090E00E94BC
:10067000B629009719F0FC01D183C083DF91CF9197
:100680000895009719F0FC01738362830895009721
:1006900019F0FC01778366830895009719F0FC0137
:1006A000758364830895FC01DB0114962C911497E3
:1006B00015963C91159716968C91169717969C91C6
:1006C00041E0408344E041833283238394838583E4
:1006D000CF0108952F923F924F925F926F927F9237
:1006E0008F929F92AF92BF92CF92DF92EF92FF9242
:1006F0000F931F93CF93DF9300D01F92CDB7DEB738
:10070000282E362E5C834B832801390161E070E08E
:1007100088E090E00E94B6299A838983009709F4C3
:1007200046C0FC01918280828A8D9B8D9383828357
:10073000809106029091070293DFE981FA81958307
:1007400084838B819C819093890780938807409252
:100750008407509285076092860770928707F0920F
:100760008307E0928207A0927E07B0927F07C09233
:100770008007D09281078C8D9D8D90937D0780930B
:100780007C07432D50E07F0196E0E90EF11C022D1D
:100790009F0165E672E084EC94E00E9409128CE609
:1007A00092E09F938F930E94542B0F900F9089811A
:1007B0009A810F900F900F900F90DF91CF911F9122
:1007C0000F91FF90EF90DF90CF90BF90AF909F90F0
:1007D0008F907F906F905F904F903F902F900895F3
:1007E000FC018481958153CF0895FC01848195811A
:1007F00048CF0895FC0180819181009719F02DDF89
:1008000090E008958FEF9FEF0895FC01848195811A
:1008100044CF0895AF92BF92CF92DF92EF92FF92B2
:100820000F931F93CF93DF93CDB7DEB766970FB6C5
:10083000F894DEBF0FBECDBF5C014091840750919C
:10084000850760918607709187078091880790914E
:10085000890796D386E792E09F938F930E94542B4B
:1008600040917E0750917F076091800770918107CA
:10087000CC24CA94DC2C760101E021E0809182072F
:1008800090918307BDD200917E0710917F07209140
:10089000800730918107DC01CB0180239123A223C3
:1008A000B3230F900F90081719072A073B0709F089
:1008B0005AC08AE892E00E94672BF50180819181FD
:1008C000CCDE1F928F938EE992E09F938F930E94CC
:1008D000542BF501828193813ED19F938F937F9317
:1008E0006F938AEA92E09F938F930E94542BF501B5
:1008F000828193812AD19F938F937F936F938EEB05
:1009000092E09F938F930E94542BC50173DFBC012B
:10091000C5016BDFF501828193811DD10E94331BDC
:10092000C50173DFF501828193810FD10E94381BCD
:10093000C50156DFF50164817581CE010196B3DEF4
:100940000FEF1FEF980146E150E0BE016F5F7F4F50
:1009500080917C0790917D070E94DD0F0FB6F8947F
:10096000DEBF0FBECDBF66960FB6F894DEBF0FBEDA
:10097000CDBFDF91CF911F910F91FF90EF90DF904E
:10098000CF90BF90AF900895EC01CE0143DFFDCF33
:100990002F923F924F925F926F927F928F929F928F
:1009A000AF92BF92CF92DF92EF92FF920F931F937D
:1009B000CF93DF93882E962E1A012801390161E02A
:1009C00070E08AE090E00E94B629EC01892BC1F129
:1009D000188219821A821B821C821D821E821F822B
:1009E0003092950720929407409290075092910779
:1009F0006092920770929307F0928F07E0928E07B1
:100A0000A0928A07B0928B07C0928C07D0928D0774
:100A10000E94291C492D50E07E0188E0E80EF11C5F
:100A2000082D9E016FEC72E081EA95E00E940912A8
:100A300080EE92E09F938F930E94542B0F900F9023
:100A4000CE01DF91CF911F910F91FF90EF90DF903A
:100A5000CF90BF90AF909F908F907F906F905F905E
:100A60004F903F902F900895CF92DF92EF92FF9298
:100A70000F931F93CF93DF93EC0140919007509118
:100A800091076091920770919307CC24CA94DC2C53
:100A9000760101E021E08091940790919507B0D113
:100AA0000091900710919107209192073091930740
:100AB000DC01CB0180239123A223B323081719075C
:100AC0002A073B07A9F50E94441C0E94411C892B60
:100AD000E1F00E94551CBC01990F880B990B0E94F4
:100AE000661B688379838A839B830E94691CBC018F
:100AF000990F880B990B0E94661B6C837D838E83F4
:100B00009F838FEF92E00E94672B64EC79E080E096
:100B100090E00E94C91440918A0750918B07609120
:100B20008C0770918D0780918E0790918F0728D246
:100B3000DF91CF911F910F91FF90EF90DF90CF90B9
:100B40000895EC01CE0190DFFDCFFC016081718141
:100B5000828193810895FC016481758186819781EA
:100B60000895EF92FF920F939B01E12CF12C082F37
:100B700048E851E065E273E08DEC96E00E940912CE
:100B80000F91FF90EF900895DF92EF92FF920F93F5
:100B90001F93CF93DF937C0181E00E94981F62E056
:100BA00070E080E090E00E94C91480E00E94981FED
:100BB00066E970E080E090E00E94C9140E944E1F38
:100BC00081E00E94A61D0E94AC1F0E9429229F93D3
:100BD0008F938EE293E09F938F930E94542B0E94F9
:100BE0002A210E9429229F938F9381E493E09F936F
:100BF0008F930E94542B8CEA97E00E94BE1F0E94A4
:100C00002922CCEAD7E0DF93CF939F938F938AE595
:100C100093E09F938F930E94542BCE010E94DA1F82
:100C20000E9429229F938F93DF93CF938EE693E0C8
:100C30009F938F930E94542BAE0163E873E084EA84
:100C400093E00E9408220E9429229F938F93DF93B2
:100C5000CF9383E893E09F938F9384EA93E09F93ED
:100C60008F9385EB93E09F938F930E94542B0E9468
:100C70000D200E9429229F938F938BEE93E09F93E8
:100C80008F930E94542B8DB79EB782960FB6F8941F
:100C90009EBF0FBE8DBF81E00E9407210E942922C6
:100CA0009F938F938AEF93E09F938F930E94542B8F
:100CB00084EF91E00E9412210E9429229F938F933A
:100CC00081E08F9384EF8F938BE194E09F938F93D8
:100CD0000E94542B8DB79EB70A960FB6F8949EBF0C
:100CE0000FBE8DBFCAE0D0E00BE314E080E00E94AD
:100CF0001320D82E0E9429229F938F93DF93CF93A6
:100D00001F930F930E94542B0F900F900F900F90F2
:100D10000F900F9088E0D816A9F080E00E94121E74
:100D200066E371E080E090E00E94C9142197F1F63B
:100D300002C03ED4FECF81E00E94031E80E00E94EC
:100D4000CD1DF7CF81E00E94F41D00E010E0980176
:100D500042E350E066E977E0C7010E94C81083E0F3
:100D60000E94241E66E977E080E00E943C200E94F9
:100D700029229F938F938BE594E09F938F930E94FA
:100D8000542B0F900F900F900F90DF91CF911F91E8
:100D90000F91FF90EF90DF900895EC01CE01F4DE0B
:100DA00060EE73E984E090E00E94C914F7CFE7E0B9
:100DB000F1E080818F6080830895E8E0F1E0908128
:100DC000907F908390818F70982B90830895E8E0B6
:100DD000F1E08081807F80830895CF93DF9380E16D
:100DE00090E0B4D1EC01009739F0FC01119211921E
:100DF00011921192CF0194D2CE01DF91CF9108953B
:100E00002F923F924F925F926F927F928F929F921A
:100E1000AF92BF92CF92DF92EF92FF920F931F9308
:100E2000CF93DF93EC014A015B01622E702E0E948A
:100E30006413288039804A805B8001110DC081E0F5
:100E4000B201A101482159216A217B21452B462B62
:100E5000472B79F480E00DC081E0B201A101482167
:100E600059216A217B21481559056A057B0509F03E
:100E700080E0882381F0662009F46BC08094909410
:100E8000A094B09482209320A420B52088829982D7
:100E9000AA82BB825EC0C114D104E104F10409F44A
:100EA00058C0662029F040E050E060E071E003C0E7
:100EB00040E050E0BA0171107460482959296A294C
:100EC0007B2997018601CE0104960E9478150E9425
:100ED0004D14811101C06CD30E94051791FD35C0DE
:100EE0000FB6F8940F92688179818A819B81711085
:100EF0000DC021E075016401C622D722E822F92243
:100F0000CD28CE28CF2879F420E00DC021E075014E
:100F10006401C622D722E822F922C814D904EA04BF
:100F2000FB0409F020E0222371F0662061F0809438
:100F30009094A094B09486229722A822B922888205
:100F40009982AA82BB820F900FBE1B012C015524EF
:100F500002C00E944D14C201B101DF91CF911F91D7
:100F60000F91FF90EF90DF90CF90BF90AF909F9048
:100F70008F907F906F905F904F903F902F9008954B
:100F80004F925F926F927F928F929F92AF92BF9299
:100F9000CF92DF92EF92FF920F931F93CF93DF9345
:100FA000EC016A017B018C01095F1F4F0E946413F1
:100FB000EB85FC8588819981AA81BB81C82AD92AC1
:100FC000EA2AFB2AC882D982EA82FB820E171F070F
:100FD00009F445C0C12CD12C760199249394812C1D
:100FE000A480B58080819181A281B381AC01BD01D3
:100FF0007727B2FD0FC0488059806A807B804422E9
:10100000552266227722292D45284628472889F42B
:10101000282D0FC0488059806A807B804422552249
:1010200066227722292D441655066606770609F0B2
:10103000282D222371F0B0FF04C0C42AD52AE62A45
:10104000F72A488159816A817B817260CF010E94B1
:10105000FE15EA2DFB2D0E171F0711F603C0C12C3C
:10106000D12C7601C094D094E094F0948881998139
:10107000AA81BB81C822D922EA22FB22C882D98256
:10108000EA82FB820E944D14688179818A819B816A
:10109000DF91CF911F910F91FF90EF90DF90CF9054
:1010A000BF90AF909F908F907F906F905F904F9088
:1010B0000895CF93DF93DC01E8E1F8E001C0F90186
:1010C000208131812A173B07D0F382819381AF01C0
:1010D000480F591FA417B50749F412964D915C911A
:1010E0001397840F951F93838283DF0112968D914E
:1010F0009C911397ED01C80FD91F2C173D07D9F408
:101100002091160830911708C217D30781F02A8161
:101110003B81820F931F13969C938E931297C081ED
:10112000D1818881998111969C938E9307C01196E5
:10113000DC93CE9303C011963C932E93AE17BF075A
:1011400011F0B183A083DF91CF910895CF92DF9208
:10115000EF92FF920F931F93CF93DF93EC010E94C6
:1011600064138091160890911708892B41F5E8E1E6
:10117000F8E0ACE1B8E0B183A08313821282E8EB1F
:10118000F7E1F0931708E093160813821282118298
:1011900010828CE99FE013969C938E931297ED93A7
:1011A000FC939093130880931208909315088093F2
:1011B000140880E090E89093110880931008E09064
:1011C0001008F0901108C7018C239D23892B09F08A
:1011D00066C0209709F466C0AE014C5F5F4F09F40A
:1011E0005EC000911408109115080417150708F443
:1011F00056C0C0911808D0911908E8E1F8E002C083
:10120000FE01E9012A813B812417350728F4288152
:10121000398121153105A1F78091160890911708A1
:10122000C817D907E1F1C080D18084E0C80ED11C75
:1012300088819981918380832A813B81241B350B8E
:101240002930310548F0CE01840F951FFC0133830E
:1012500022835B834A832DDF8A819B81081B190BC4
:101260001093150800931408209112083091130868
:101270000217130720F41093130800931208E82AAA
:10128000F92AFB82EA82198218820E944D14C11445
:10129000D10459F40E94531AC12CD12C06C00E94CB
:1012A0004D14F8CF0E944D14F5CFC601DF91CF91B8
:1012B0001F910F91FF90EF90DF90CF900895CF9303
:1012C000DF93009751F1FC013497228133814091E3
:1012D000100850911108B90164237523672BE9F0B8
:1012E00060817181672BC9F4EF01409550952423EB
:1012F0003523338322830E94641320911408309194
:1013000015088A819B81820F931F90931508809303
:101310001408CE01CEDE0E944D14DF91CF910895C6
:10132000FC010396928381834FEF5FEFBA01438301
:101330005483658376839087878392878187108221
:101340000895FC01138612860895CF93DF939C01C4
:10135000FB01DC011196CD91DC911297D583C483FA
:101360008E819F81978386838E819F81DC01159674
:101370007C936E9314977F836E8333872287F90162
:1013800080818F5F8083DF91CF9108950F931F93AA
:10139000CF93DF93EB01088119812A813B810F3FB5
:1013A0004FEF14072407340721F4FC01A185B2850F
:1013B00011C0DC01139601C0DF011496ED91FC9180
:1013C00015974081518162817381041715072607A3
:1013D000370790F71496ED91FC911597FD83EC83F8
:1013E000D783C683BF83AE831596DC93CE931497C1
:1013F0009B878A87FC0120812F5F2083DF91CF911B
:101400001F910F910895CF93DF93FC01A285B385BF
:10141000C481D581868197819F838E83C681D78140
:10142000848195819D838C8311968D919C911297D7
:10143000E817F90731F48681978112969C938E9371
:101440001197138612868C9181508C938C91DF9129
:10145000CF91089531E1FC013083319722E220835E
:101460003197A3E3A08331976083319770833197DD
:10147000108231971082319760E860833197108233
:101480003197108231971082319762E060833197F3
:1014900063E06083319764E06083319765E0608347
:1014A000319766E06083319767E06083319768E049
:1014B0006083319769E06083319760E160833197A1
:1014C0003083319732E13083319733E13083319784
:1014D00034E13083319735E13083319736E1308321
:1014E000319737E13083319738E13083319739E1F3
:1014F0003083319730E23083319731E23083319756
:101500002083319723E220833197408331975083A2
:10151000319726E22083319727E22083319728E212
:101520002083319729E22083319720E3208331976C
:1015300021E3208389970895A89590EC88E10FB660
:10154000F894A895809360000FBE90936000A091DE
:101550003618B0913718CD91CDBFDD91DEBFFF9128
:10156000EF91DF91CF91BF91AF919F918F917F913B
:101570006F915F914F913F912F911F910F91FF902C
:10158000EF90DF90CF90BF90AF909F908F907F9023
:101590006F905F904F903F902F901F900F900CBED8
:1015A0000F900BBE0F900FBE0F90089581E008952D
:1015B0000F920FB6F8940F920BB60F920CB60F92D3
:1015C0001F9211242F923F924F925F926F927F92BF
:1015D0008F929F92AF92BF92CF92DF92EF92FF9243
:1015E0000F931F932F933F934F935F936F937F932B
:1015F0008F939F93AF93BF93CF93DF93EF93FF931B
:10160000A0913618B09137180DB60D920EB60D9206
:101610000E94E214A0913618B0913718CD91CDBF39
:10162000DD91DEBFFF91EF91DF91CF91BF91AF913F
:101630009F918F917F916F915F914F913F912F91EA
:101640001F910F91FF90EF90DF90CF90BF90AF90E0
:101650009F908F907F906F905F904F903F902F90D2
:101660001F900F900CBE0F900BBE0F900FBE0F90EF
:1016700008950F920FB6F8940F920BB60F920CB616
:101680000F921F9211242F923F924F925F926F926E
:101690007F928F929F92AF92BF92CF92DF92EF9202
:1016A000FF920F931F932F933F934F935F936F93EB
:1016B0007F938F939F93AF93BF93CF93DF93EF93DA
:1016C000FF93A0913618B09137180DB60D920EB653
:1016D0000D9213BE0E94781381110E94E214A09112
:1016E0003618B0913718CD91CDBFDD91DEBFFF9197
:1016F000EF91DF91CF91BF91AF919F918F917F91AA
:101700006F915F914F913F912F911F910F91FF909A
:10171000EF90DF90CF90BF90AF909F908F907F9091
:101720006F905F904F903F902F901F900F900CBE46
:101730000F900BBE0F900FBE0F9008959ADF189573
:101740000FB6F8940F92FC01968D0F900FBE81E0BA
:10175000911180E008950F931F93CF93DF93EC01D5
:10176000042F1E8D48A141110CC088819981892BBD
:1017700009F042C08C819D810E94C5161D821C8289
:1017800042C0011117C050E08A819B810E94F52A56
:1017900028A18A819B81820F911D9B838A832C8142
:1017A0003D818217930750F1888199819B838A83B9
:1017B00080E029C050E08E819F810E94F52A88A197
:1017C00090E09195819591092E813F81280F391FD5
:1017D0003F832E83488159812417350730F42C81AB
:1017E0003D81820F931F9F838E83023049F4112322
:1017F00049F0115080E007C080E005C080E003C0E0
:1018000080E001C080E01F5F1E8FDF91CF911F91AC
:101810000F910895FC0140A14423A9F050E02681D6
:101820003781240F351F37832683848195812817BC
:10183000390720F08081918197838683CB0166816F
:1018400077810C94F52A0895EF92FF920F931F93DE
:10185000CF938C010FB6F8940F92FC01C2A11C1615
:10186000ACF48389811106C011C0F801838981110C
:1018700005C00CC07801F3E1EF0EF11CC7010E9416
:10188000BC1581110E94AE16C15079F78FEFF80197
:1018900082A30F900FBE0FB6F8940F92C1A11C1631
:1018A000ACF48085811106C011C0F80180858111DA
:1018B00005C00CC07801F8E0EF0EF11CC7010E94D2
:1018C000BC1581110E94AE16C15079F78FEFF80157
:1018D00081A30F900FBECF911F910F91FF90EF90BA
:1018E0000895CF93DF93EC010FB6F8940F92E8813F
:1018F000F9818F8D28A190E030E0829FA001839F25
:10190000500D929F500D11244E0F5F1F5D834C832D
:101910001E8EFB83EA830197829FA001839F500D57
:10192000929F500D1124CF01840F951F9F838E83AA
:101930008FEF89A38AA361110BC08885882371F07A
:10194000CE0108960E94BC15882341F031DE06C006
:10195000CE010896E5DCCE014396E2DC0F900FBE87
:1019600081E0DF91CF910895FF920F931F93CF9362
:10197000DF93082F162FF42E6623B9F0869FC0013F
:1019800011248596E3DBEC01009741F414C00F8F1E
:1019900018A361E0CE01A5DFFCA20DC08596998356
:1019A0008883F5CFD983C883F2CF85E290E0CEDB80
:1019B000EC01892BB9F7CE01DF91CF911F910F91E7
:1019C000FF9008959F92AF92BF92CF92DF92EF92D5
:1019D000FF920F931F93CF93DF93CDB7DEB7299775
:1019E0000FB6F894DEBF0FBECDBF7C015B012E8326
:1019F0003F834887598710E0992493946C0188E0CD
:101A0000C80ED11C0FB6F8940F92F701968D878DF2
:101A1000981710F00230B1F4402FB501C7019BDEDA
:101A2000F7019389992341F0C70143960E94BC15A1
:101A3000882321F0BDDD02C08111BADD0F900FBEF9
:101A400081E04EC08E819F81A885B985892B8A2B24
:101A50008B2B21F40F900FBE80E042C0111105C006
:101A6000CE0101960E944816192D0F900FBE2CD65C
:101A70000FB6F8940F92F70181A18F3F09F411A2DC
:101A8000F70182A18F3F09F412A20F900FBEBE0191
:101A90006A5F7F4FCE0101960E94591681111CC0CA
:101AA0000FB6F8940F92F701968D878D0F900FBEA9
:101AB00098130EC04E815F8168857985C6010E94AA
:101AC0006115C701C1DEE9D681119CCF71DD9ACFC6
:101AD000C701BADEE2D696CFC701B6DEDED680E019
:101AE00029960FB6F894DEBF0FBECDBFDF91CF9120
:101AF0001F910F91FF90EF90DF90CF90BF90AF902C
:101B00009F9008950F93CF93DF93482F60E081E07B
:101B10002BDFEC01009761F01D821C821982188274
:101B20001E8200E020E030E0A90160E070E04ADFC2
:101B3000CE01DF91CF910F910895EF92FF920F9315
:101B40001F93CF93DF938A01FC01568D378D531776
:101B500010F02230E9F4422F7801EC011AA1FBDDEC
:101B60001F3F81F48B898823A9F0CE0143960E9400
:101B7000BC15882389F0E114F10481F081E0F701BC
:101B800080830DC0FF24F394F10EFAA281E007C018
:101B900080E005C081E003C081E001C081E0DF9109
:101BA000CF911F910F91FF90EF9008959F92AF9268
:101BB000BF92CF92DF92EF92FF920F931F93CF933A
:101BC000DF93CDB7DEB729970FB6F894DEBF0FBE0F
:101BD000CDBF8C015B012E833F8348875987E12C61
:101BE000992493946C0183E1C80ED11C0FB6F8942C
:101BF0000F92F801F68CFF2091F0B501C8010ADEC2
:101C0000FA94F801F68E8085882329F0C801089699
:101C1000B3D78111CDDC0F900FBE81E04CC08E8117
:101C20009F81A885B985892B8A2B8B2B21F40F9056
:101C30000FBE80E040C0E11005C0CE0101960E94B9
:101C40004816E92C0F900FBE3FD50FB6F8940F92AF
:101C5000F80181A18F3F09F411A2F80182A18F3F01
:101C600009F412A20F900FBEBE016A5F7F4FCE0132
:101C700001960E945916811115C0C80161DD8823A3
:101C800069F04E815F8168857985C6011AD7C801E0
:101C9000DBDD03D68111AACF8BDCA8CFC801D4DD50
:101CA000FCD5A4CFC801D0DDF8D5C80149DD882313
:101CB00009F49CCF80E029960FB6F894DEBF0FBEE2
:101CC000CDBFDF91CF911F910F91FF90EF90DF90EB
:101CD000CF90BF90AF909F900895CF93DF93EC018A
:101CE0000FB6F8940F9289A18F3F09F419A28AA127
:101CF0008F3F09F41AA20F900FBE8E8D811103C081
:101D0000CE01439619D7CE019FDDDF91CF91089583
:101D1000FC014481558122813381240F351F80814C
:101D20009181B901681B790BCB016417750710F01D
:101D3000841B950B0895AF92BF92CF92DF92EF92E2
:101D4000FF920F931F93CF93DF936C015B017A0196
:101D5000FC01C281D381048115810C1B1D0B40172E
:101D6000510708F48A01F60184859585A801B5011B
:101D70008C0F9D1F0E94F52A0E151F0558F4A70110
:101D8000401B510BB501600F711FF60184859585CD
:101D90000E94F52ACE018E0D9F1DF601248135810A
:101DA0008217930710F0821B930BF60193838283B3
:101DB000C701DF91CF911F910F91FF90EF90DF90BE
:101DC000CF90BF90AF900895CF92DF92EF92FF92A5
:101DD0000F931F93CF93DF931F921F92CDB7DEB760
:101DE0005A83498321153105C9F06B017C01FC013F
:101DF000868580FD08C0CA012417350708F4C9018B
:101E00009A83898311C02017310758F042E050E0CF
:101E1000BE016F5F7F4FC7018EDF06C080E090E09C
:101E200008C080E090E005C049815A81B601C70131
:101E300082DF0F900F90DF91CF911F910F91FF9054
:101E4000EF90DF90CF900895AF92BF92CF92DF9244
:101E5000EF92FF920F931F93CF93DF937C015B016F
:101E6000E9014217530708F4EA01209779F1F701D5
:101E700000811181C480D580C01AD10ACC15DD053E
:101E800008F46E01F70164857585600F711FA60166
:101E9000C5010E94F52ACC16DD0658F4AE014C1996
:101EA0005D09F70164857585C5018C0D9D1D0E9436
:101EB000F52A0C0F1D1FF70184819581081719075A
:101EC00010F0081B190BF70111830083CE01DF917D
:101ED000CF911F910F91FF90EF90DF90CF90BF9027
:101EE000AF900895EF92FF921F93CF93DF93EB0192
:101EF00011E0413009F010E0209711F4C1E0D0E08A
:101F00007C012FEFE21AF20A419620D9009781F066
:101F100020E1FC0111922A95E9F79C01205F3F4FD7
:101F2000FC0135872487F582E482D783C683168730
:101F3000DF91CF911F91FF90EF900895CF93DF93A2
:101F4000FC0127850FB6F8940F9280859185892B27
:101F5000D1F482859385892BC1F48685468157818A
:101F600064817581A485B58590E1EF0119929A95F8
:101F7000E9F7B587A487758364835783468386878B
:101F8000278781E003C080E001C080E00F900FBE92
:101F9000DF91CF910895FC01248135818081918169
:101FA00042815381820F931F0197841B950B8217E7
:101FB000930710F0821B930B08952F923F924F923C
:101FC0005F926F927F928F929F92AF92BF92CF92C9
:101FD000DF92EF92FF920F931F93CF93DF93CDB7D2
:101FE000DEB729970FB6F894DEBF0FBECDBF5C01F8
:101FF0001B012A010E831F8328873987FC018685F0
:1020000080FF05C03A01F2E06F0E711C01C03A0179
:102010008E819F81A885B985892B8A2B8B2B09F40A
:1020200034C0CE0101961ED60FB6F8940F92C501AA
:10203000B2DF4C018615970518F580E090E00E940C
:10204000B81890D6F501938782870F900FBECE8087
:10205000DF80E884F98400E010E020E030E0A901AE
:1020600060E070E0CB01F9D6F50113861286BE015F
:102070006A5F7F4FCE0101961CD68823A9F202C069
:102080000F900FBE8114910419F4C50184DF4C0137
:1020900083019401A201B101C50196DE7C01892B67
:1020A000D9F0C50135DEF501268137818217930706
:1020B00098F00AD3F50180859185892B61F08085A0
:1020C000918500E010E020E040E050E0BA014FD7F9
:1020D000F50111861086E1D3C70129960FB6F89451
:1020E000DEBF0FBECDBFDF91CF911F910F91FF904B
:1020F000EF90DF90CF90BF90AF909F908F907F90A8
:102100006F905F904F903F902F900895AF92BF9245
:10211000CF92DF92EF92FF920F931F93CF93DF93B3
:10212000EC015B016A0179018E8580FF04C08A01A0
:102130000E5F1F4F01C08A01CE012DDF9C01A60159
:10214000B501CE0141DE6C01892BB1F0CE01E0DD9D
:102150002E813F818217930778F088859985892B96
:1021600059F08885998500E010E020E040E050E0DB
:10217000BA0175D719861886C601DF91CF911F91D4
:102180000F91FF90EF90DF90CF90BF90AF900895A8
:102190004F925F926F927F928F929F92AF92BF9277
:1021A000CF92DF92EF92FF920F931F93CF93DF9323
:1021B0001F921F92CDB7DEB75C012B013A01680177
:1021C0007901FC01868580FD03C0812C912C04C01F
:1021D0006894882481F8912CC114D104E104F1049D
:1021E00029F10FB6F8940F92C50192DD8C01881683
:1021F000990638F080E090E0BBD7B4D5F50191871F
:1022000080870F900FBE80169106B0F000E010E0BE
:1022100020E030E0A90160E070E0CB011ED6F501BE
:1022200011861086C50174DD8C0103C0C50170DD07
:102230008C0180169106B8F581149104C1F0F50166
:10224000E080F1809801A401BE016F5F7F4FC5015E
:10225000FBDD89819A81081919096816790630F41D
:10226000F501F182E082612C712C01C03C019801E2
:10227000A301B201C501E8DD7C01892BB1F024D2B4
:10228000F50182859385892B61F08285938500E035
:1022900010E020E040E050E0BA0169D6F501138675
:1022A0001286FBD202C0E12CF12CC7010F900F90D7
:1022B000DF91CF911F910F91FF90EF90DF90CF9022
:1022C000BF90AF909F908F907F906F905F904F9056
:1022D0000895E091F217F091F317808181110CC0FD
:1022E0008FEF9FEFDC018093BF179093C017A093EF
:1022F000C117B093C2170895E091F217F091F31748
:102300000780F085E02D0084F185E02D82819381A6
:10231000A481B5818093BF179093C017A093C11774
:10232000B093C21708958F929F92AF92BF92CF92AF
:10233000DF92EF92FF92CF936B017C01C42F8090CC
:10234000C9179090CA17A090CB17B090CC17809166
:10235000361890913718029656D88FEFC816D806BF
:10236000E806F80669F4CC2359F0609136187091AC
:1023700037186E5F7F4F8EEC97E10E94A5093FC032
:10238000C80CD91CEA1CFB1CE0913618F0913718D8
:10239000C282D382E482F582C814D904EA04FB0421
:1023A00068F460913618709137188091F017909109
:1023B000F1176E5F7F4F0E94C60921C060913618E9
:1023C000709137188091F2179091F3176E5F7F4FDD
:1023D0000E94C6098091BF179091C017A091C117A4
:1023E000B091C217C816D906EA06FB0640F4C0929F
:1023F000BF17D092C017E092C117F092C217CF91C9
:10240000FF90EF90DF90CF90BF90AF909F908F9014
:1024100008954F925F926F927F928F929F92AF92A8
:10242000BF92CF92DF92EF92FF920F93CF93DF9301
:102430004C016B015A012901CA010E94A6083C0106
:10244000892B09F4F4C080E390E00E94A608EC0117
:10245000892B99F07C8E6B8EA50165EA70E0C30133
:102460000E94FE2A21E0A21AB1088B8D9C8DA80E35
:10247000B91EC114D10429F420C0C3010E945F0910
:10248000D6C0D6018C918D8F8C918823A1F0AE019E
:10249000425E5F4FF6013196B8E0CB0ED11CCF0102
:1024A0002191DA012D93AD01DC018C91882319F083
:1024B000EC15FD05A1F71CA201C01D8E043008F02B
:1024C00003E00A8F0FA318A66E01B2E0CB0ED11C59
:1024D000C6010E94A109CE010E960E94A109DB87C8
:1024E000CA8784E090E0A0E0B0E0801B9109A109D8
:1024F000B1098E879F87A88BB98BDF8BCE8B1AA6ED
:1025000019A61BA61CA61DA61EA61FA6A201B401E5
:10251000C5010E942A0A99838883E114F10419F005
:10252000F701D183C0830FB6F8940F928091CD1735
:102530008F5F8093CD178091361890913718892B33
:10254000D1F5D0933718C09336188091CD178130CC
:1025500009F041C08AE098E10E94900985E198E184
:102560000E94900980E298E10E9490098BE298E134
:102570000E9490098FEF97E10E94900984EF97E104
:102580000E94900985EE97E10E9490098AED97E1FB
:102590000E9490098EEC97E10E9490098FEF97E1DD
:1025A0009093F3178093F21784EF97E19093F117CC
:1025B0008093F01710C08091C71781110CC0E09173
:1025C0003618F0913718928D8A8D891720F0D093A4
:1025D0003718C09336188091C3178F5F8093C31745
:1025E0008DA38A8D9091C817981710F48093C817FF
:1025F000FBE08F9FC0011124B601865F974E0E94B9
:10260000A5090F900FBE8091C717882361F0E09154
:102610003618F0913718928D8A8D981730F40E94F1
:10262000D80A81E005C081E003C081E001C08FEFDE
:10263000DF91CF910F91FF90EF90DF90CF90BF90FF
:10264000AF909F908F907F906F905F904F90089584
:10265000EF92FF920F930F2EFDEBEF2EF7E1FF2E7F
:10266000F02D00E020E030E040EC50E060E774E066
:102670008DEC90E0CEDE813019F500D6813001F589
:10268000F8948FEF9FEFDC018093BF179093C017F2
:10269000A093C117B093C21781E08093C71710921F
:1026A000C9171092CA171092CB171092CC17E0914D
:1026B0003618F091371881A50E94DD060E949C0A09
:1026C0000F91FF90EF9008958091BC178F5F8093DA
:1026D000BC1708950FB6F8940F926091C9177091C6
:1026E000CA178091CB179091CC170F900FBE089509
:1026F0009F92AF92BF92CF92DF92EF92FF920F9391
:102700001F93CF93DF938091BC178111ADC0C09010
:10271000C917D090CA17E090CB17F090CC178FEF65
:10272000C81AD80AE80AF80AC092C917D092CA177C
:10273000E092CB17F092CC17C114D104E104F1045C
:10274000B1F48091F2179091F3172091F017309126
:10275000F1173093F3172093F2179093F1178093AA
:10276000F0178091C4178F5F8093C417B2DD8091FA
:10277000BF179091C017A091C117B091C217C8168A
:10278000D906EA06FB0610F4B12C5DC0B12C0F2E61
:10279000FBE0AF2EF02D99249394E091F217F09185
:1027A000F317808181110CC08FEF9FEFDC018093C4
:1027B000BF179093C017A093C117B093C21743C01F
:1027C000E091F217F091F3170780F085E02DC085B6
:1027D000D1858A819B81AC81BD81C816D906EA0664
:1027E000FB0648F48093BF179093C017A093C117BE
:1027F000B093C21728C08E010E5F1F4FC8010E9400
:10280000030A888D998D892B21F0CE010E960E94A6
:10281000030A8A8D9091C817981710F48093C817EF
:10282000A89EC0011124B801865F974E0E94A50999
:10283000E0913618F09137189A8D828D981708F428
:10284000ACCFB92CAACFE0913618F0913718E28DB1
:102850008BE0E89FF0011124E65FF74E8081823023
:1028600048F0BB24B39406C08091C6178F5F809355
:10287000C617B12C8091C517882311F0BB24B394DF
:102880008B2DDF91CF911F910F91FF90EF90DF90F3
:10289000CF90BF90AF909F900895CF92DF92EF922C
:1028A000FF920F931F93CF93DF930FB6F8940F927D
:1028B0008091BC1781508093BC178091BC17811107
:1028C0005AC08091CD1781112CC058C0D7011796DE
:1028D000ED91FC911897C085D185CE010E960E948E
:1028E000030A8E010E5F1F4FC8010E94030A8A8DE2
:1028F0009091C817981710F48093C817D89EC001FC
:102900001124B801865F974E0E94A509E091361800
:10291000F09137189A8D828D981788F0C092C5175C
:102920000EC0C0E0D0E00F2EF5EEEF2EF7E1FF2E47
:10293000F02D0F2EFBE0DF2EF02DCC24C394F701F9
:1029400080818111C3CFCD2B09F0C3DCC091C617A4
:10295000CC2349F0D1E0CCDE8111D093C517C15012
:10296000D1F71092C6178091C517882331F00E94C5
:10297000D80A81E003C080E001C080E00F900FBE64
:10298000DF91CF911F910F91FF90EF90DF90CF904B
:102990000895CF92DF92EF92FF926B017C01672B3B
:1029A000682B692B41F090DE40E0C701B601BBDC2B
:1029B00074DF811102C00E94D80AFF90EF90DF906F
:1029C000CF9008958091BC17882321F081E08093F7
:1029D000C51708951092C517E0913618F091371871
:1029E00081A50E94E706A0913618B0913718E091B2
:1029F0003618F09137182D913C91838D948D821764
:102A0000930758F0609136187091371880913618F6
:102A100090913718635E7F4F53D58091C817282F48
:102A200030E09BE0899FF0011124E65FF74E908132
:102A300091110EC04BE08150282F30E0429FF001F1
:102A4000439FF00D1124E65FF74E9081992399F38F
:102A50009BE0929FA001939F500D1124DA01A65F85
:102A6000B74E1196ED91FC9112970480F581E02DFF
:102A70001296FC93EE931197435F574EE417F507B8
:102A800029F444815581FD01528341839BE0929F4B
:102A9000F001939FF00D1124E65FF74E0180F28163
:102AA000E02D208531853093371820933618809398
:102AB000C817E0913618F091371881A50C94DD06FF
:102AC0000895CF92DF92EF92FF926A017B016091AD
:102AD000361870913718625F7F4F0E94C60941E037
:102AE000C701B60120DCFF90EF90DF90CF900895F2
:102AF000CF92DF92EF92FF920F931F9368017901BB
:102B0000E0913618F0913718706846875787608BC8
:102B1000718B6091361870913718625F7F4F0E94F9
:102B2000A50941E0C701B601FEDB1F910F91FF909F
:102B3000EF90DF90CF900895CF92DF92EF92FF92C7
:102B4000CF936A017B01C22F6091361870913718BC
:102B5000625F7F4F0E94A509CC2321F0CC24CA9448
:102B6000DC2C76014C2FC701B601DDDBCF91FF9045
:102B7000EF90DF90CF9008950F931F93CF93DF9343
:102B8000DC011796ED91FC911897C085D1858E01D7
:102B9000025F1F4FC8010E94030A8091BC17811178
:102BA00016C00C501109C8010E94030A8A8D909129
:102BB000C817981710F48093C817BBE08B9FC0010B
:102BC0001124B801865F974E0E94A50905C0B8017F
:102BD00085EE97E10E94A509E0913618F09137182B
:102BE0009A8D828D891720F481E08093C51701C0EA
:102BF00080E0DF91CF911F910F9108950F931F9364
:102C0000CF93DF937068FC014083518362837383A9
:102C1000C085D1850E94030A8E010E5F1F4FC80137
:102C20000E94030A8A8D9091C817981710F4809318
:102C3000C817FBE08F9FC0011124B801865F974E33
:102C40000E94A509E0913618F09137189A8D828D6F
:102C5000891718F481E08093C517DF91CF911F91F8
:102C60000F9108950FB6F8940F922091C417FC01AC
:102C700020834091C9175091CA176091CB1770916A
:102C8000CC1741835283638374830F900FBE0895E2
:102C90002091C417FC0120834091C9175091CA1795
:102CA0006091CB177091CC174183528363837483F7
:102CB0000895CF92DF92EF92FF920F931F93CF93DD
:102CC000DF93FB010FB6F8940F924091C917509112
:102CD000CA176091CB177091CC17008111812281A6
:102CE00033810F3FAFEF1A072A073A0749F1EC018A
:102CF000C980DA80EB80FC80A091C417B881BA1734
:102D000029F04C155D056E057F05E0F44C195D0951
:102D10006E097F09401751076207730758F4041BB7
:102D2000150B260B370B0083118322833383B0DF0F
:102D300080E009C0108211821282138281E003C0F8
:102D400080E001C081E00F900FBEDF91CF911F9115
:102D50000F91FF90EF90DF90CF90089581E08093E6
:102D6000C51708958091361890913718089580916D
:102D7000C717882331F08091BC17882321F080E0A9
:102D8000089581E0089582E008950F931F93CF93F3
:102D9000DF93FC01892B79F180A5815080A7228DDA
:102DA00097A1291751F181112AC0EF018F010E5F00
:102DB0001F4FC8010E94030A8FA18A8F44E050E090
:102DC00060E070E0481B5109610971094E875F8717
:102DD000688B798B9091C817981710F48093C81757
:102DE0002BE0829FC0011124B801865F974E0E949C
:102DF000A50981E005C080E003C080E001C080E05B
:102E0000DF91CF911F910F910895CF92DF92EF92B2
:102E1000FF92E0913618F0913718668577858089A2
:102E20009189E0913618F0913718A0913618B09139
:102E300037185A962C91C12CD12C76016894C2F87F
:102E4000C21AD108E108F108C686D786E08AF18A5D
:102E5000FF90EF90DF90CF9008954F925F926F9226
:102E60007F928F929F92AF92BF92CF92DF92EF921A
:102E7000FF920F931F9349015A010FB6F8940F92D6
:102E8000E0913618F091371827A5223039F1E091FA
:102E90003618F091371843A454A465A476A4DC0135
:102EA000CB0180959095A095B09584219521A62180
:102EB000B72183A794A7A5A7B6A7E0913618F091EC
:102EC000371881E087A7C114D104E104F10431F07F
:102ED00041E0C701B60127DA0E94D80A0F900FBE61
:102EE0000FB6F8940F920115110569F0E0913618AC
:102EF000F091371883A594A5A5A5B6A5F801808300
:102F00009183A283B383E0913618F091371887A597
:102F10008230B1F4E0913618F091371883A594A56A
:102F2000A5A5B6A580949094A094B09488229922E7
:102F3000AA22BB2283A694A6A5A6B6A681E001C0BC
:102F400080E0E0913618F091371817A60F900FBE69
:102F50001F910F91FF90EF90DF90CF90BF90AF90B7
:102F60009F908F907F906F905F904F9008950F93F8
:102F70001F93CF93DF93FC010FB6F8940F920115C6
:102F8000110549F083A594A5A5A5B6A5E8018883F8
:102F90009983AA83BB8387A592E097A72230B1F0DB
:102FA00018F4213031F02AC02330E9F0243001F147
:102FB00025C003A514A525A536A5402B512B622BB2
:102FC000732B43A754A765A776A718C043A554A59C
:102FD00065A576A54F5F5F4F6F4F7F4F43A754A7FF
:102FE00065A776A70BC043A754A765A776A706C019
:102FF000823049F143A754A765A776A7813029F508
:10300000EF018F010E5F1F4FC8010E94030A8A8DD6
:103010009091C817981710F48093C8172BE0829FDF
:10302000C0011124B801865F974E0E94A509E09166
:103030003618F09137189A8D828D891740F40E94C6
:10304000D80A81E005C080E003C081E001C081E0D2
:103050000F900FBEDF91CF911F910F910895EF92C6
:10306000FF920F931F93CF93DF93FC01011511057E
:1030700049F083A594A5A5A5B6A5E8018883998301
:10308000AA83BB8387A592E097A72230B1F018F4FA
:10309000213031F02AC02330E9F0243001F125C07D
:1030A00003A514A525A536A5402B512B622B732B08
:1030B00043A754A765A776A718C043A554A565A53F
:1030C00076A54F5F5F4F6F4F7F4F43A754A765A70C
:1030D00076A70BC043A754A765A776A706C0823082
:1030E000D9F143A754A765A776A78130B9F5EF01B9
:1030F0008091BC17811117C08F010E5F1F4FC8014F
:103100000E94030A8A8D9091C817981710F4809333
:10311000C817EBE08E9FC0011124B801865F974E5F
:103120000E94A50907C0BF01625F7F4F85EE97E14E
:103130000E94A509E0913618F09137189A8D828D7A
:10314000891770F4E114F10419F081E0E701888334
:1031500081E08093C51705C080E003C081E001C015
:1031600081E0DF91CF911F910F91FF90EF90089533
:10317000009721F480913618909137180FB6F89483
:103180000F92FC0127A5223019F417A681E001C097
:1031900080E00F900FBE0895CF92DF92EF92FF92E2
:1031A0000F931F93FC01428353836483758393873A
:1031B00082870417150726073707C0F00C191D0969
:1031C0002E093F0986859785A089B18908171907B7
:1031D0002A073B0700F5BF016E5F7F4F80914018C3
:1031E000909141180E94C60980E018C00C151D0579
:1031F0002E053F0528F44C155D056E057F0568F426
:10320000BF016E5F7F4F80914218909143180E94DA
:10321000C60980E003C081E001C081E01F910F91E9
:10322000FF90EF90DF90CF9008950FB6F8940F9233
:1032300080913E1890913F18892BE9F48FE498E132
:103240000E94900984E498E10E9490098FE498E13B
:10325000909343188093421884E498E19093411826
:103260008093401840E067E08AE00E94B40C90939D
:103270003F1880933E180F900FBE0895EF92FF9273
:103280000F93D3DF80913E1890913F18892B89F0DE
:103290000F2EFCE3EF2EF8E1FF2EF02D03E020E0EF
:1032A00030E045E550E065E774E087E091E0B1D8B3
:1032B00001C080E00F91FF90EF9008958F929F9250
:1032C000AF92BF92CF92DF92EF92FF920F931F9334
:1032D000CF93DF93CDB7DEB727970FB6F894DEBF55
:1032E0000FBECDBFE0913E18F0913F18309781F1AD
:1032F00069832A833B834C835D839F838E836630FF
:10330000F4F435DD823069F400E0A7019601BE01D6
:103310006F5F7F4F80913E1890913F180E94E20CA2
:1033200018C000E020E030E0A901BE016F5F7F4FD0
:1033300080913E1890913F180E94E20C0AC020E054
:10334000A801BE016F5F7F4FCF010E949D0D01C09C
:1033500080E027960FB6F894DEBF0FBECDBFDF9199
:10336000CF911F910F91FF90EF90DF90CF90BF9082
:10337000AF909F908F9008952F923F924F925F92BF
:103380006F927F928F929F92AF92BF92CF92DF9275
:10339000EF92FF920F931F93CF93DF931C019AD963
:1033A0002B013C018091381890913918A0913A185E
:1033B000B0913B18481659066A067B0608F053C0C0
:1033C0003BC00780F085E02D80809180A280B38093
:1033D000C085D1858E010E5F1F4FC8010E94030A70
:1033E000EC89FD89CE0119958F8982FF25C08E85D4
:1033F0009F85A889B989880D991DAA1DBB1D8816AE
:103400009906AA06BB0670F48A839B83AC83BD83AE
:10341000DB87CA87B80180914218909143180E94B7
:10342000C6090AC0C12CD12C760100E010E0A5012C
:10343000940160E0CE0142DFE0914218F091431820
:1034400080818111BECF8091401890914118909356
:10345000431880934218F0934118E093401881E09C
:10346000F101808302C0F10110824092381850921D
:10347000391860923A1870923B18C301B201DF917B
:10348000CF911F910F91FF90EF90DF90CF90BF9061
:10349000AF909F908F907F906F905F904F903F90F4
:1034A0002F9008950895279A2F9A2FEF80E792E0A2
:1034B000215080409040E1F700C000001F9AF5CFF6
:1034C000279A2F9A2FEF87EA91E62150804090406B
:1034D000E1F700C000001F9AF5CF81B1816881B982
:1034E0000E94D70680E00E94952685E053D160E0D7
:1034F00070E081E0DAC408950F931F930FEF1FEF80
:10350000980146E150E061EB79E18091AB1990912F
:10351000AC190E94DD0F1F910F9108958F929F9219
:10352000AF92BF92CF92DF92EF92FF920F931F93D1
:10353000CF93DF938091AF199091B019892B89F4C3
:1035400081E00E94820D9093B0198093AF1900978B
:1035500041F000E020E030E0A90160E070E00E946E
:10356000E20C0E94ED069093C8198093C7190E943F
:10357000ED069093AE198093AD1941E060E070E0E4
:1035800084E690E00E94720F9093AC198093AB197F
:10359000BC0181E00E94B105E090AD19F090AE1938
:1035A0004091C7195091C819A12CB12C650168949C
:1035B000A4F801E010E020E030E060EC81E00E943F
:1035C000C804C82FD92FE090AD19F090AE194091E2
:1035D000C7195091C819A12CB12C65016894A5F8A0
:1035E00002E010E020E030E060EC81E00E94720236
:1035F000E090AD19F090AE194091C7195091C819DB
:103600002091AC192F932091AB192F93DF93CF9377
:103610004C010F2EF0E3AF2EB12CC12CD12CF02D8C
:1036200003E010E020E030E060EC82E00E946A03FA
:1036300063DF0F900F900F900F90DF91CF911F914C
:103640000F91FF90EF90DF90CF90BF90AF909F9041
:103650008F90089542DF89E894E00E94672B5EDF37
:103660000E942813FFCF04D06894B1118DC0089533
:1036700070D088F09F5790F0B92F9927B751A0F0DC
:10368000D1F0660F771F881F991F1AF0BA95C9F7F6
:1036900012C0B13081F077D0B1E0089574C0672FC7
:1036A000782F8827B85F39F0B93FCCF386957795A6
:1036B0006795B395D9F73EF490958095709561958F
:1036C0007F4F8F4F9F4F0895E89409C097FB3EF4BA
:1036D00090958095709561957F4F8F4F9F4F99235F
:1036E000A9F0F92F96E9BB279395F69587957795DD
:1036F0006795B795F111F8CFFAF4BB0F11F460FF9D
:103700001BC06F5F7F4F8F4F9F4F16C0882311F0F4
:1037100096E911C0772321F09EE8872F762F05C008
:10372000662371F096E8862F70E060E02AF09A95A3
:10373000660F771F881FDAF7880F9695879597F998
:10374000089557FD9058440F551F59F05F3F71F091
:103750004795880F97FB991F61F09F3F79F08795F8
:103760000895121613061406551FF2CF4695F1DF81
:1037700008C0161617061806991FF1CF8695710511
:10378000610508940895E894BB2766277727CB0145
:1037900097F90895E9ECF9E12AEA32E231832083CE
:1037A0002DEA32E23383228328EB32E2358324830D
:1037B0002CEB32E23783268322EC32E231872087FA
:1037C0002EEC32E23387228723ED32E235872487DD
:1037D0002FED32E2378726872FEB32E2318B208BB9
:1037E00024EE32E2338B228B21EF32E2358B248BB5
:1037F000682FCF0126C108956530F1F4FA01808168
:103800008F7390E0982F88272181822B90930B0251
:1038100080930A028281F0E48F9FC0011124FA0193
:10382000238126952695822B909309028093080286
:1038300081E080935A180895643051F080E090E45C
:10384000909309028093080290930B0280930A02DE
:1038500008950F931F930CEF1BE120E034E244EF37
:1038600050E060E087E20E94CF2690935C1880933E
:103870005B1821E0892B09F020E0822F1F910F9126
:10388000089580915A18089580915B1890915C1862
:10389000009739F064E00E942027853021F083E012
:1038A000089582E0089580E0089560910A02709181
:1038B0000B0280E090E008DF20E030E048EC52E4CA
:1038C0000E94262920E038EF4FE756E40C94932815
:1038D0000895609108027091090280E090E0F4DEA2
:1038E00020E030E045E253E40E94262920E038EF52
:1038F0004FE756E40E94932820E030E040E252E493
:103900000C942C280895CF93DF9390E0FC01EE0FE8
:10391000FF1FE80FF91FEE0FFF1FE35AF74E238139
:1039200021110AC0EF01E091D119F091D2196A81F9
:1039300088819981199512C0DC01AA0FBB1FED0186
:10394000C80FD91FCC0FDD1FC35AD74EE091DB192A
:10395000F091DC196A81888199811995DF91CF9165
:103960000895CF93DF9390E0FC01EE0FFF1FE80F67
:10397000F91FEE0FFF1FE35AF74E238121110AC0F2
:10398000EF01E091DB19F091DC196A81888199815E
:10399000199512C0DC01AA0FBB1FED01C80FD91F7A
:1039A000CC0FDD1FC35AD74EE091D119F091D21937
:1039B0006A81888199811995DF91CF9108950F2EA1
:1039C000F9ECCF2EF9E1DF2EF02D04E0CDE5D8E1C2
:1039D00010E08C81813069F0E8F0823039F5D60151
:1039E0001C96ED91FC911D976A81888199811995AA
:1039F0001DC08D818F5F8A3010F48D8317C01D82AA
:103A0000D6011C96ED91FC911D976A818881998160
:103A100019950CC08D81882331F0812FA2DF8D8113
:103A200081508D8303C00C83812F6DDF1F5F26962D
:103A3000143079F665E070E080E090E00E94C914EF
:103A4000C5CFCF92DF92EF92FF920F931F93CF9348
:103A5000DF93062F0F2EF9ECEF2EF9E1FF2EF02D5C
:103A6000D7011896ED91FC91199766E087E290E0F6
:103A70001995CDE5D8E10F2EF8E2CF2ED12CF02DFF
:103A8000D982C88286E08A831B8214E01C8380E08E
:103A90003ADFD7011896ED91FC91199767E087E21C
:103AA00090E01995DF82CE8287E0888719861A8791
:103AB00081E029DFD7011896ED91FC91199765E017
:103AC00083E390E01995D7011896ED91FC91199731
:103AD00061E084E390E0199584E390E09D878C8712
:103AE00085E08E871F86188B82E00DDFD701189640
:103AF000ED91FC91199764E081E091E01995D7016F
:103B00001896ED91FC91199761E082E091E019958A
:103B100082E091E09B8B8A8B1C8B1D8A1E8B83E03D
:103B2000F2DEE12CF12C20E030E040EC50E06BE9DB
:103B300074E08FED9CE10E940912DF91CF911F91FB
:103B40000F91FF90EF90DF90CF9008950F931F9308
:103B5000CF93DF93C82FD0E08E01000F111FD80143
:103B6000AC0FBD1FAA0FBB1FA35AB74EE091D519CA
:103B7000F091D61912966C9112978D919C9119958E
:103B8000C00FD11FCC0FDD1FC35AD74E81E08C83ED
:103B9000DF91CF911F910F9108950F931F93CF93B2
:103BA000DF93C82FD0E08E01000F111FD801AC0F9A
:103BB000BD1FAA0FBB1FA35AB74EE091D519F091B4
:103BC000D61912966C9112978D919C911995C00FF0
:103BD000D11FCC0FDD1FC35AD74E82E08C83DF91FB
:103BE000CF911F910F910895282F30E0F901EE0F2A
:103BF000FF1FE20FF31FEE0FFF1FE35AF74E93E094
:103C00009483AFCE0895282F30E0F901EE0FFF1F07
:103C1000E20FF31FEE0FFF1FE35AF74E94E0948379
:103C200072CE089590E0FC01EE0FFF1FDF01A80F98
:103C3000B91FAA0FBB1FA35AB74E24E015962C93A9
:103C40001597FD011482089590E0FC01EE0FFF1F0F
:103C5000DF01A80FB91FAA0FBB1FA35AB74E21E05F
:103C600015962C931597FD01148208950F931F93B9
:103C7000CF93DF931F921F92CDB7DEB78C011982CD
:103C80002DC0E091D918EC3250F481E08E0F809372
:103C9000D918F0E0E55FF64E8A81808302C0109269
:103CA000D9188A818A30D1F44091D91850E0FA01AC
:103CB000E75FF64E1082415051099E012F5F3F4F42
:103CC0006BE079E18091DC189091DD180E948610FC
:103CD000898181110E94D80A1092D918BE016E5FA5
:103CE0007F4FC80190D5882361F20F900F90DF912C
:103CF000CF911F910F9108950F931F93CF93DF934F
:103D00008C01EB018091DC189091DD180E949E0FD0
:103D1000B80185E798E10E94352B209779F0E5E717
:103D2000F8E101900020E9F7319780E290E091837B
:103D30008083BE0185E798E10E942A2BE5E7F8E140
:103D4000DF010D900020E9F711978DE09AE01196C0
:103D50009C938E9312961C9201900020E9F7319764
:103D6000E557F841AE2F85E798E1AC016A2F8091C5
:103D7000DE189091DF18F7D4811111C008E215E028
:103D800020E030E04DE250E065E679E18091DC181A
:103D90009091DD180E94C81085E699E102C080E08C
:103DA00090E0DF91CF911F910F9108952F923F9254
:103DB0004F925F926F927F928F929F92AF92BF923B
:103DC000CF92DF92EF92FF920F931F93CF93DF93E7
:103DD0005C01FC0101900020E9F731976F01C81ADE
:103DE000D90A5C2C0F2EFCE38F2EF7E09F2EF02DCE
:103DF000E12CF12C4C2C3701F40101811281E801F6
:103E000009900020E9F72197C01BD10B3C2EF9E067
:103E1000CF16D10458F0F4012080FEE02F1206C026
:103E2000B801C5010E94052B892B09F5442D3514D5
:103E300008F44C2F50E0B801C5010E943C2B892B9F
:103E400049F4F301EE0FFF1FE60DF71DE45CF84F98
:103E500020800DC08FEFE81AF80AE3E08E0E911C67
:103E6000F1E1EF16F10439F66894222424F8822D4A
:103E7000DF91CF911F910F91FF90EF90DF90CF9046
:103E8000BF90AF909F908F907F906F905F904F907A
:103E90003F902F90089530DF89CF08958091DC18EE
:103EA0009091DD180C949E0F08958F929F92AF927F
:103EB000CF92EF920F931F93CF93C82F8B0141E0C6
:103EC00060E070E088EC90E00E94720F9093DD1843
:103ED0008093DC181093DB180093DA180F2EF6E3AA
:103EE0008F2EFEE19F2EF02D6894AA24A6F86894E8
:103EF000CC24C6F8E12C00E023E040E051EE60E085
:103F000070E08C2F74D39093DF188093DE18E091CB
:103F1000D119F091D21964E087E091E01995CF9121
:103F20001F910F91EF90CF90AF909F908F90089539
:103F3000882349F0E091DB19F091DC1964E088E016
:103F400091E019950895E091D119F091D21964E0AA
:103F500088E091E01995089560E070E082EC94E0CB
:103F6000CBDEE5E6F9E101900020E9F73197E5566F
:103F7000F94181E0759708F080E00895CF93DF93D1
:103F8000EC0160E070E083ED94E0B6DEE5E6F9E197
:103F900001900020E9F7E657F94139F465E679E147
:103FA000CE010E94352B80E002C0188281E0DF91B3
:103FB000CF910895FC0101900020E9F79F01215164
:103FC00031092817390729F4BC0181E095E063CF56
:103FD000089589E00895FC0101900020E9F79F0110
:103FE000215131092817390729F4BC0180E195E0F6
:103FF00052CF089589E00895FC0101900020E9F76F
:104000009F01215231092817390729F4BC018FE19A
:1040100095E041CF089589E0089560E070E08EE575
:1040200095E039CF08950F931F93E82FF0E0EE0F3E
:10403000FF1FE85CF84F6081718187E695E02BDF18
:10404000811114C008E215E020E030E04DE250E0BC
:1040500065E679E18091DC189091DD180E94C81026
:10406000882321F085E699E1A1DE03C085E699E188
:104070009DDE1F910F9108950F931F93CF93DF93B0
:104080001F92CDB7DEB7DB0111969C911197953148
:1040900008F0B4C0992381F160E070E0272F30E090
:1040A000462F50E0FD01E40FF51F928192959F701D
:1040B0009A3010F0995C01C0905DF901EA50F74E1A
:1040C00090832F5F3F4FFD01E40FF51F92819F709A
:1040D000492F50E04A30510514F0995C01C0905DC1
:1040E000F901EA50F74E90837E5F6F5F11969C91C5
:1040F0001197691798F201C070E0E72FF0E0EA50DD
:10410000F74E10824C91811103C080E795E002C008
:1041100082E795E026EF38E13F932F931F924F936C
:104120009F938F9386E795E09F938F9388E399E120
:104130009F938F930E94972B60E070E088E399E152
:10414000AADE0FB6F894DEBF0FBECDBF811159C0F5
:1041500008E215E020E030E04DE250E065E679E16C
:104160008091DC189091DD180E94C810882309F412
:1041700047C085E699E11ADE8E3009F042C087E03B
:1041800089838091DA189091DB18892BA9F1BE01FF
:104190006F5F7F4F85E699E168D18093E018E981F0
:1041A000F0E0EB59F64EDF010D900020E9F7119792
:1041B000AE1BBF0BAA2391F0BB27CD0101979C0139
:1041C00012F42F5F3F4F359527952093E118AF01EB
:1041D0004F5F5F4F64E182EE98E173D101E010E040
:1041E00020E030E046E150E060EE78E18091DA18BE
:1041F0009091DB180E94DD0F8EE003C084E101C0C6
:1042000080E00F90DF91CF911F910F910895813041
:1042100019F066E875E002C06FE576E08AE895E09F
:104220003ACE08959F938F938BEB95E09F938F9356
:1042300088E399E19F938F930E94972B60E070E051
:1042400088E399E128DE0F900F900F900F900F9068
:104250000F9008952F923F924F925F926F927F92AC
:104260008F929F92AF92BF92CF92DF92EF92FF9286
:104270000F931F93CF93DF93CDB7DEB7A0970FB601
:10428000F894DEBF0FBECDBF68EE75E084EF95E019
:1042900033DD8CDD8111A3C080E2E3E2F2E0DE01D8
:1042A000119601900D928A95E1F79E012F5F3F4F85
:1042B0006901E12CF12C0F2EF0E0AF2EF6E0BF2EBD
:1042C000F02D08E319E10F2EF9E14F2EF6E05F2EF5
:1042D000F02D0F2EF0E38F2EF6E09F2EF02D0F2EF7
:1042E000FAE46F2EF6E07F2EF02D3E2C2F2CFF925D
:1042F000EF92BF92AF921F930F930E94972B60E0B3
:1043000070E0C801F9DC52DD0F900F900F900F9014
:104310000F900F90811163C032E03E15E8F4F60172
:1043200083818F9382818F9381818F9380818F93FB
:10433000FF92EF925F924F921F930F930E94972BE1
:1043400060E070E0C801D8DC31DD0FB6F894DEBF64
:104350000FBECDBF811143C02F923F929F928F928B
:104360001F930F930E94972B60E070E0C801C4DC9C
:104370001DDD0F900F900F900F900F900F908111F7
:104380002EC02F923F927F926F921F930F930E94A5
:10439000972B60E070E0C801AFDC08DD0F900F9054
:1043A0000F900F900F900F90811119C03FEFE31AFB
:1043B000F30A84E0C80ED11C98E0E916F10409F074
:1043C00094CF60E070E082E696E096DCEFDC81114D
:1043D00006C060E070E083E796E08EDCE7DCA09644
:1043E0000FB6F894DEBF0FBECDBFDF91CF911F9106
:1043F0000F91FF90EF90DF90CF90BF90AF909F9084
:104400008F907F906F905F904F903F902F90089586
:10441000EF92FF920F931F93CF93DF93EC018B01E9
:104420007A0181E0F4DE81110DC0CE01D4DD81116D
:1044300009C0C801E1DD811105C0C701BBDD8111E3
:1044400001C0EBDDDF91CF911F910F91FF90EF90B5
:10445000089590E0FC01EE0FFF1F8E0F9F1FFC01DF
:10446000E45CF84F818192810895DC01009729F185
:10447000FB012081FC0101900020E9F73197E81B46
:10448000F90B822F90E0E817F907C8F080E008C028
:10449000880F382F330F330F830F8053890F2F5F0F
:1044A000FD01E20FF11D908130ED390F3A3010F42B
:1044B0009111EECFFB012083089580E0089580E004
:1044C00008950F931F93CF93DF93DC01EA012097A8
:1044D000E1F1FA0101900020E9F73197E41BF50BB7
:1044E000329710F532C08D01040F151F30E0AE0178
:1044F000420F531FFA019081913428F09753592F9E
:104500005295507F03C0592F5295507F2C0F3D1F5D
:10451000F9019181913410F0975301C09053950F98
:10452000F80190838F5F01C080E0282F220F482F71
:1045300050E0FE0101900020E9F73197EC1BFD0BE4
:104540004E175F0710F48613CECFDF91CF911F91E6
:104550000F910895FC0180810895FC01208181E084
:1045600090E002C0880F991F6A95E2F782230895B0
:10457000FC01808186230895FC0160830895FC017D
:1045800010820895FC01408121E030E002C0220F3A
:10459000331F6A95E2F7242B20830895FC012081C4
:1045A000622B60830895FC01408121E030E002C06D
:1045B000220F331F6A95E2F7242720830895FC0118
:1045C0002081622760830895FC01908121E030E022
:1045D00002C0220F331F6A95E2F72095292320831A
:1045E0000895FC01908160956923608308952F925E
:1045F0003F924F925F926F927F928F929F92AF9273
:10460000CF92EF92FF920F931F93CF93DF93CDB78B
:10461000DEB7F82E2A013B0188E090E0C1D68C017C
:104620008F2D90E0880F991FFC01EE56F64E1183F6
:104630000083FC01E45FFD4F80819181D8018D935F
:104640009C936C2D70E084E090E090D61C0161E0BA
:1046500070E086E090E08AD67C014C2DB101E0D478
:10466000F801F582E4826A2D70E084E090E07ED665
:104670001C0161E070E086E090E078D67C014A2D74
:10468000B101CED4D8011396FC92EE9212971796F0
:104690009C928E921697FFB6F894ED91FC9111972B
:1046A00036978081826080838D909C90C301B20197
:1046B0000BD820E030E040E051E4C8D59B01AC01CC
:1046C00060E074E284E79BE42ED520E030E040E82F
:1046D0005FE3C2D40E94381BF40132976083D80193
:1046E000ED91FC911197359788E98083ED91FC91CC
:1046F000349786E08083FFBEC801DF91CF911F9180
:104700000F91FF90EF90CF90AF909F908F907F9000
:104710006F905F904F903F902F900895CF93DF93CD
:10472000EC01EA81FB81938182812581981B922390
:1047300084819817A1F0938126952923A081B181C6
:10474000A20FB11D6C939F5F258192239383E88113
:10475000F981359780818062808380E001C082E0AA
:10476000DF91CF910895EF92FF920F931F93CF9314
:10477000DF937C01DC011296ED91FC9113979381FC
:104780008281981B858198238481891B861798F1E3
:10479000662341F1842F952FDC016150462F50E0B4
:1047A0004F5F5F4F480F591FE701EA81FB819381FB
:1047B00082812581981B92238481981779F08C91AE
:1047C000938126952923608171818B01020F111D30
:1047D000E80188839F5F8581982393831196A417AE
:1047E000B50711F7D701ED91FC9135978081806273
:1047F000808380E001C082E0DF91CF911F910F9113
:10480000FF90EF900895DC011496ED91FC911597BF
:1048100093818281981789F0928185818695892379
:10482000A081B181A80FB11D8C91DB018C939F5F9A
:1048300085819823928380E0089583E008951F92F4
:104840000F920FB60F9211240BB60F922F933F9336
:104850004F935F936F937F938F939F93AF93BF9388
:10486000CF93DF93EF93FF93A0919219B091931997
:10487000109711F16091C6001496ED91FC91159777
:10488000938182812581981B92238481981761F0FE
:10489000838126952823C081D181C20FD11D6883D1
:1048A0008F5F9581892383831696ED91FC911797ED
:1048B000309711F0CD011995FF91EF91DF91CF91D4
:1048C000BF91AF919F918F917F916F915F914F9128
:1048D0003F912F910F900BBE0F900FBE0F901F9026
:1048E00018951F920F920FB60F9211240BB60F92CC
:1048F0002F938F939F93AF93BF93EF93FF93E09189
:104900009219F09193193097B9F00280F381E02D5C
:10491000938182819817B1F092818581282F269505
:104920002923A081B181A20FB11D2C919F5F892302
:1049300082832093C6000BC0E1ECF0E080818F7D84
:10494000808305C0E1ECF0E080818F7D8083FF9162
:10495000EF91BF91AF919F918F912F910F900BBECF
:104960000F900FBE0F901F9018951F920F920FB6C9
:104970000F9211240BB60F922F933F934F935F9397
:104980006F937F938F939F93AF93BF93CF93DF9357
:10499000EF93FF93A0919419B0919519109711F18D
:1049A0006091CE001496ED91FC91159793818281D0
:1049B0002581981B92238481981761F08381269525
:1049C0002823C081D181C20FD11D68838F5F95815B
:1049D000892383831696ED91FC911797309711F0F8
:1049E000CD011995FF91EF91DF91CF91BF91AF91DB
:1049F0009F918F917F916F915F914F913F912F91F7
:104A00000F900BBE0F900FBE0F901F9018951F9226
:104A10000F920FB60F9211240BB60F922F938F9314
:104A20009F93AF93BF93EF93FF93E0919419F0910D
:104A300095193097B9F00280F381E02D938182813E
:104A40009817B1F092818581282F26952923A0817E
:104A5000B181A20FB11D2C919F5F89238283209386
:104A6000CE000BC0E9ECF0E080818F7D808305C033
:104A7000E9ECF0E080818F7D8083FF91EF91BF9121
:104A8000AF919F918F912F910F900BBE0F900FBE02
:104A90000F901F9018951F920F920FB60F9211242E
:104AA0000BB60F922F933F934F935F936F937F9328
:104AB0008F939F93AF93BF93CF93DF93EF93FF9326
:104AC000A0919619B0919719109711F16091D600A5
:104AD0001496ED91FC911597938182812581981B05
:104AE00092238481981761F0838126952823C081C1
:104AF000D181C20FD11D68838F5F95818923838304
:104B00001696ED91FC911797309711F0CD011995FC
:104B1000FF91EF91DF91CF91BF91AF919F918F91D5
:104B20007F916F915F914F913F912F910F900BBEAD
:104B30000F900FBE0F901F9018951F920F920FB6F7
:104B40000F9211240BB60F922F938F939F93AF93D5
:104B5000BF93EF93FF93E0919619F09197193097D7
:104B6000B9F00280F381E02D938182819817B1F032
:104B700092818581282F26952923A081B181A20FBA
:104B8000B11D2C919F5F892382832093D6000BC097
:104B9000E1EDF0E080818F7D808305C0E1EDF0E004
:104BA00080818F7D8083FF91EF91BF91AF919F9125
:104BB0008F912F910F900BBE0F900FBE0F901F90F3
:104BC00018951F920F920FB60F9211240BB60F92E9
:104BD0002F933F934F935F936F937F938F939F9305
:104BE000AF93BF93CF93DF93EF93FF93A091981967
:104BF000B0919919109711F1609136011496ED91C9
:104C0000FC911597938182812581981B9223848141
:104C1000981761F0838126952823C081D181C20F26
:104C2000D11D68838F5F9581892383831696ED91CB
:104C3000FC911797309711F0CD011995FF91EF91E5
:104C4000DF91CF91BF91AF919F918F917F916F91A4
:104C50005F914F913F912F910F900BBE0F900FBE20
:104C60000F901F9018951F920F920FB60F9211245C
:104C70000BB60F922F938F939F93AF93BF93EF93A6
:104C8000FF93E0919819F09199193097B9F002804B
:104C9000F381E02D938182819817B1F09281858113
:104CA000282F26952923A081B181A20FB11D2C9117
:104CB0009F5F89238283209336010BC0E1E3F1E0FB
:104CC00080818F7D808305C0E1E3F1E080818F7D6D
:104CD0008083FF91EF91BF91AF919F918F912F9121
:104CE0000F900BBE0F900FBE0F901F901895CF9393
:104CF000DF931F92CDB7DEB7BE016F5F7F4F80910C
:104D00009A1990919B197FDD8111F6CF898190E0EE
:104D10000F90DF91CF910895682F80919A1990910B
:104D20009B19FCDC80E090E008958F929F92AF92F7
:104D3000CF92EF920F93812C912C6894AA24A7F81C
:104D40006894CC24C7F8E12C00E023E040E051EE69
:104D500060E070E04CDC90939B1980939A19E3EE2D
:104D6000F9E184E192E091838083938382830F91C0
:104D7000EF90CF90AF909F908F9008958091AA1957
:104D800081110CC08CE08093B8008FEF8093BB0042
:104D900084E08093BC0081E08093AA190895AF92CB
:104DA000BF92CF92DF92EF92FF920F931F93CF9318
:104DB000DF93A82EB62E69017A0184E090E0F0D24C
:104DC000EC01892B61F1A88281E0B81212C0C70101
:104DD000B60120EA36E841E050E09ED2DA01C9018E
:104DE0004097A109B109B695A795979587958983AD
:104DF00011C0C701B60120E83AE146E050E08CD28C
:104E0000DA01C9014097A109B109B695A79597950F
:104E1000879589831B830A838C2F9D2F02C080E096
:104E200090E0DF91CF911F910F91FF90EF90DF9075
:104E3000CF90BF90AF9008958091BC00817008958D
:104E40001F93CF93DF93009729F16B3028F5162F2E
:104E5000EC01F2DF811122C080919D1990919E1981
:104E6000C817D90741F08ADF89818093B800D093B1
:104E70009E19C0939D1910939F198881880F816096
:104E80008093A01988EF8093220285EA8093BC006A
:104E900085E005C086E003C087E001C082E0DF91C5
:104EA000CF911F9108951F920F920FB60F92112468
:104EB0000BB60F922F933F934F935F936F937F9314
:104EC0008F939F93AF93BF93EF93FF93E091B900BC
:104ED0008E2F90E0FC013897E135F10508F075C0A0
:104EE0008827E458FF4F8F4F39C210929C19E091E8
:104EF0009C1980919F19E81770F481E08E0F8093C0
:104F00009C19F0E0E056F64E80818093BB0085E866
:104F10008093BC0072C084E98093BC0080919D198D
:104F200090919E19DC011296ED91FC9113973097A8
:104F300009F463C020E040E050E064E019955DC0F2
:104F4000E0919C1981E08E0F80939C198091BB00A9
:104F5000F0E0E056F64E80838091B900803411F481
:104F600010929C1920919C1930E080919F1990E03B
:104F700001972817390724F485EC8093BC003DC0C5
:104F800085E88093BC0039C08091BB00E0919C19FA
:104F9000F0E0E056F64E808384E98093BC00809177
:104FA0009D1990919E19DC011296ED91FC91139739
:104FB000309719F120919F1940EA59E165E0199560
:104FC0001CC085EA8093BC0018C08091B900809312
:104FD000220284E08093BC0080919D1990919E19DB
:104FE000DC011296ED91FC911397309731F020E09F
:104FF00040E050E0609122021995FF91EF91BF913E
:10500000AF919F918F917F916F915F914F913F9160
:105010002F910F900BBE0F900FBE0F901F90189501
:10502000FC01411101C0DDD2842F90E09C01215090
:10503000310982239323892B09F0D3D2413808F018
:10504000D0D2128213824483440F4150458371832E
:10505000608380E090E008955058BB27AA270ED0C7
:10506000E4C0D5D030F0DAD020F031F49F3F11F415
:105070001EF4CAC00EF4E095E7FBC0C0E92F0E9401
:10508000A11B78F3BA17620773078407950720F00E
:1050900079F4A6F50C94C31B0EF4E0950B2EBA2FF1
:1050A000A02D0B01B90190010C01CA01A00111242E
:1050B000FF27591B99F0593F50F4503E68F11A16DA
:1050C000F040A22F232F342F4427585FF3CF46956B
:1050D00037952795A795F0405395C9F77EF41F168D
:1050E000BA0B620B730B840BBAF09150A1F0FF0F57
:1050F000BB1F661F771F881FC2F70EC0BA0F621F43
:10510000731F841F48F4879577956795B795F79532
:105110009E3F08F0B1CF9395880F08F09927EE0FC6
:105120009795879508950DD080C078D048F06FD0BE
:1051300038F021F45F3F21F061C051110C94C41B81
:1051400063C00E94A11B88F39923B9F35523A1F3EF
:10515000951B550BBB27AA2762177307840738F0E6
:105160009F5F5F4F220F331F441FAA1FA9F334D044
:105170000E2E3AF0E0E831D091505040E695001CF8
:10518000CAF72AD0FE2F28D0660F771F881FBB1FB3
:10519000261737074807AB07B0E809F0BB0B802D8F
:1051A000BF01FF2793585F4F32F09E3F510570F0CB
:1051B00025C00C94C41B5F3FE4F3983ED4F386955E
:1051C00077956795B795F7959F5FC9F7880F911DFC
:1051D0009695879597F90895E1E0660F771F881FE8
:1051E000BB1F621773078407BA0720F0621B730B9B
:1051F000840BBA0BEE1F88F7E095089597F99F6727
:1052000080E870E060E008959FEF80EC089500244E
:105210000A941616170618060906089500240A941B
:1052200012161306140605060895092E0394000CA1
:1052300011F4882352F0BB0F40F4BF2B11F460FF30
:1052400004C06F5F7F4F8F4F9F4F08950CD0EDCFFD
:10525000DEDF28F0E3DF18F0952309F0CFCFD4CFBD
:1052600011240C94C41B0E94A11B90F3959FC1F3C1
:10527000950F50E0551F629FF001729FBB27F00D04
:10528000B11D639FAA27F00DB11DAA1F649F662759
:10529000B00DA11D661F829F2227B00DA11D621FA8
:1052A000739FB00DA11D621F839FA00D611D221F62
:1052B000749F3327A00D611D231F849F600D211D46
:1052C000822F762F6A2F11249F57504092F0E9F0D9
:1052D00088234AF0EE0FFF1FBB1F661F771F881F32
:1052E00091505040A9F79E3F510578F087CF0C941C
:1052F000C41B5F3FE4F3983ED4F38695779567959A
:10530000B795F795E7959F5FC1F7FE2B880F911D25
:105310009695879597F90895A1E21A2EAA1BBB1BB3
:10532000FD010DC0AA1FBB1FEE1FFF1FA217B30771
:10533000E407F50720F0A21BB30BE40BF50B661F87
:10534000771F881F991F1A9469F76095709580954B
:1053500090959B01AC01BD01CF010895EE0FFF1F99
:10536000881F8BBF0790F691E02D19940F931F9320
:10537000CF93DF93869F8001879F100D969F100D1E
:105380001124C8010DD0EC01009721F0A80160E0C4
:1053900070E034D1CE01DF91CF911F910F9108952C
:1053A0000F931F93CF93DF938230910510F482E027
:1053B00090E0E091E119F091E21920E030E0A0E006
:1053C000B0E0309719F14081518102811381481773
:1053D0005907C8F08417950769F4109731F01296B1
:1053E0000C93129713961C9327C00093E119109306
:1053F000E21922C02115310519F04217530718F49C
:105400009A01BD01EF01DF01F801DBCF2115310564
:10541000F9F0281B390B2430310580F48A819B81F7
:105420006115710521F0FB019383828304C0909381
:10543000E2198093E119FE01329644C0FE01E20FA9
:10544000F31F8193919322503109398328833AC005
:105450002091DF193091E019232B41F420910202B1
:10546000309103023093E0192093DF19209100025C
:10547000309101022115310541F42DB73EB740911D
:10548000040250910502241B350BE091DF19F091C5
:10549000E019E217F307A0F42E1B3F0B281739077A
:1054A00078F0AC014E5F5F4F2417350748F04E0F80
:1054B0005F1F5093E0194093DF198193919302C0CD
:1054C000E0E0F0E0CF01DF91CF911F910F910895BF
:1054D000CF93DF93009709F481C0FC0132971382C8
:1054E0001282A091E119B091E219109781F4208104
:1054F0003181820F931F2091DF193091E019281715
:10550000390751F5F093E019E093DF1967C0ED0119
:1055100020E030E0CE17DF0740F44A815B819E0136
:1055200041155105F1F0EA01F5CFD383C2834081E3
:105530005181840F951FC817D90759F48881998123
:10554000840F951F0296918380838A819B81938328
:1055500082832115310529F4F093E219E093E119D2
:105560003DC0E901FB83EA8349915991C40FD51FDE
:10557000EC17FD0761F480819181840F951F0296DD
:10558000E90199838883828193819B838A83E0E008
:10559000F0E012968D919C911397009719F0FD0100
:1055A000DC01F7CF8D919C9111979D012E5F3F4FAC
:1055B000820F931F2091DF193091E01928173907C6
:1055C00069F4309729F41092E2191092E11902C09F
:1055D00013821282B093E019A093DF19DF91CF916B
:1055E000089581E090E0F8947DC3FB01DC0102C0E6
:1055F00001900D9241505040D8F70895DC0101C050
:105600006D9341505040E0F70895FB0151915523AF
:10561000B1F0BF01DC01052E4D91442369F010D09B
:10562000D9F7CD010190002049F04D91411108D0EA
:10563000C9F3FB014111EECF81E090E0019708959D
:10564000402539F0403229F440294B57465E08F096
:1056500018940895FB01DC010D900020E9F71197E3
:1056600001900D920020E1F70895FB01DC0101900B
:105670000D920020E1F70895FB01DC0141505040FC
:1056800088F08D9181341CF08B350CF4805E619133
:1056900061341CF06B350CF4605E861B611171F394
:1056A000990B0895881BFCCFCF93DF93CDB7DEB75E
:1056B000AE014A5F5F4FFA0161917191AF01809134
:1056C000E5199091E61961D0DF91CF9108950F937C
:1056D0001F93CF93DF93E091E519F091E6192381B1
:1056E00021FF1BC08C01D0E0C0E0F80181918F0147
:1056F0006091E5197091E619DB011896ED91FC9126
:105700001997882331F01995892B79F3DFEFCFEFC3
:10571000ECCF8AE01995892B19F08FEF9FEF02C02B
:105720008D2F9C2FDF91CF911F910F9108950F9393
:105730001F93CF93DF93CDB7DEB72E970FB6F894B4
:10574000DEBF0FBECDBF0E891F8986E08C831A8312
:1057500009838FEF9FE79E838D83AE01465E5F4F87
:10576000688D798DCE01019610D0EF81F885E00F1C
:10577000F11F10822E960FB6F894DEBF0FBECDBF7C
:10578000DF91CF911F910F9108952F923F924F92E9
:105790005F926F927F928F929F92AF92BF92CF92C1
:1057A000DF92EF92FF920F931F93CF93DF93CDB7CA
:1057B000DEB72B970FB6F894DEBF0FBECDBF6C01DE
:1057C0007B018A01FC0117821682838181FFBFC1A0
:1057D000CE0101963C01F6019381F70193FD85917D
:1057E00093FF81917F01882309F4ADC1853239F49B
:1057F00093FD859193FF81917F01853221F4B6015C
:1058000090E0D6D1E8CF912C212C312CFFE1F3157B
:10581000D8F08B3279F038F4803279F08332A1F409
:10582000232D20611DC08D3261F0803369F4232D5A
:10583000216016C0832D8260382EE32DE4603E2E59
:105840002AC0F32DF8601DC037FC2DC020ED280FB5
:105850002A3040F08E32B9F436FC75C1232D206415
:10586000322E19C036FE06C08AE0989E200D112403
:10587000922E11C0EAE02E9E200D1124222EF32D2F
:10588000F0623F2E08C08C3621F4832D8068382EBC
:1058900002C0883641F4F70193FD859193FF819111
:1058A0007F018111B3CF982F9F7D9554933028F4B9
:1058B0000C5F1F4F9FE399830DC0833631F0833710
:1058C00071F0833509F055C020C0F80180818983CB
:1058D0000E5F1F4F88248394912C530112C028011E
:1058E000F2E04F0E511CF801A080B18036FE03C0DB
:1058F000692D70E002C06FEF7FEFC5014ED14C0102
:105900008201F32DFF773F2E15C0280122E0420EC1
:10591000511CF801A080B18036FE03C0692D70E0F3
:1059200002C06FEF7FEFC5012DD14C01F32DF06860
:105930003F2E820133FC19C0822D90E08816990613
:10594000A0F4B60180E290E033D12A94F5CFF501BE
:1059500037FC859137FE81915F01B60190E028D137
:1059600021102A9421E0821A91088114910479F778
:10597000E1C0843611F0893639F5F80137FE07C0E9
:1059800060817181828193810C5F1F4F08C06081AB
:105990007181072E000C880B990B0E5F1F4FF32DA2
:1059A000FF763F2E97FF09C0909580957095619581
:1059B0007F4F8F4F9F4FF0683F2E2AE030E0A301CA
:1059C00033D1882E861844C0853731F4232D2F7E9D
:1059D000B22E2AE030E025C0932D997FB92E8F3664
:1059E000C1F018F4883579F0AEC0803719F08837E7
:1059F00021F0A9C0E92FE061BE2EB4FE0DC0FB2D41
:105A0000F460BF2E09C034FE0AC0292F2660B22ED2
:105A100006C028E030E005C020E130E002C020E10F
:105A200032E0F801B7FE07C0608171818281938105
:105A30000C5F1F4F06C06081718180E090E00E5FB7
:105A40001F4FA301F1D0882E8618FB2DFF773F2E24
:105A500036FE0DC0232D2E7FA22E891458F434FE5D
:105A60000BC032FC09C0832D8E7EA82E05C0B82C39
:105A7000A32C03C0B82C01C0B92CA4FE0FC0FE019A
:105A8000E80DF11D8081803321F49A2D997EA92E95
:105A900009C0A2FE06C0B394B39404C08A2D8678D0
:105AA00009F0B394A3FC10C0A0FE06C0B21480F4A9
:105AB000280C922C9B180DC0B21458F4B60180E249
:105AC00090E076D0B394F8CFB21418F42B1802C03B
:105AD000982C212CA4FE0FC0B60180E390E068D082
