:1000000050C200006FC200006DC200006BC2000051
:1000100069C2000067C2000065C2000063C2000040
:1000200061C200005FC200005DC200005BC2000050
:100030000C940F0E57C2000055C2000053C20000BE
:1000400051C200004FC200004DC200004BC2000070
:1000500049C2000047C2000045C2000043C2000080
:1000600041C200000C94B6270C9408283BC2000043
:1000700039C2000037C2000035C2000033C20000A0
:1000800031C200002FC200002DC200002BC20000B0
:100090000C944C280C949E2825C200000C94362BFE
:1000A00021C200001FC200001DC200001BC20000D0
:1000B00019C2000017C2000015C2000013C20000E0
:1000C00011C200000FC200000DC200000C94E22813
:1000D0000C94342907C200000C9478290C94CA2986
:1000E00001C20000C601C601C601000208021E02CC
:1000F000C601C60100020802582BC82BC82BC82B0A
:10010000C82BC82BC82BC82B582BC82BC82BC82BC7
:10011000C82BC82BC82BC82B5A2BC82BC82BC82BB5
:10012000C82BC82BC82BC82BC82BC82BC82BC82B37
:10013000C82BC82BC82BC82B5A2BC82BC82BC82B95
:10014000C82BC82BC82BC82BC82BC82BC82BC82B17
:10015000C82BC82BC82BC82BC42BC82BC82BC82B0B
:10016000C82BC82BC82BC82B8F2BC82BC82BC82B30
:10017000C82BC82BC82BC82BC82BC82BC82BC82BE7
:10018000C82BC82BC82BC82B832BC82BC82BC82B1C
:10019000C82BC82BC82BC82BA72B06E519E10F2E9F
:1001A000F6E8EF2EF9E1FF2EF02D80915519882306
:1001B00029F10FB6F8940F92D8011796ED91FC91A2
:1001C0001897C085D185CE0102960E94740C80914B
:1001D0004919815080934919809155198150809314
:1001E00055190F900FBE8B8D9C8D0E94D00BCE01A8
:1001F0000E94D00B809155198111DBCFF7018081CE
:10020000823010F00E94490D0E94611ECECFCF9324
:10021000DF93CDB7DEB760970FB6F894DEBF0FBEA1
:10022000CDBFCE0101969A878987812C912CA12C74
:10023000B12C69847A84E091BE19F091BF19808154
:10024000882309F414C10780F085E02D20803180D7
:10025000428053800E94A616CE0101960E94CB1DBB
:100260006B877C878D879E878981811167C08B858D
:100270009C85AD85BE8582159305A405B50508F45A
:1002800045C00E948F17E091BE19F091BF190780F9
:10029000F085E02DA085B185B88BAF87CD010296A2
:1002A0000E94740CEF85F889878982FF21C04685FA
:1002B000578560897189420D531D641D751D72013A
:1002C00061010B851C852D853E85CF010E94DA1CBE
:1002D000882399F0C82CD92CEA2CFB2C00E010E0E4
:1002E000A201910160E08F8598890E946D1D05C073
:1002F0008E7FAF85B88957968C93AF85B889549611
:10030000ED91FC915597CD011995A2C020E0B20165
:10031000A1018B859C85AD85BE85481B590B6A0B59
:100320007B0B8091BA199091BB190E94AB110E946E
:100330008F1781118DC00E94490D8AC00E948F17AE
:1003400087C0898188230CF483C04E805F80D201EE
:100350001C968D919C911D97892B21F0C2010296CC
:100360000E94740CCE0108960E94CB1D8B019C014B
:10037000E9810E2E000CFF0BEA30F10508F068C091
:100380008827EE58FF4F8F4F0C94202EF20187895B
:100390008160878BCA80DB80EC80FD804685578535
:1003A000608971894C0D5D1D6E1D7F1DC2010E940B
:1003B000DA1C882309F44CC0D2015496ED91FC91CB
:1003C0005597C2011995F201878982FF41C04A8180
:1003D0005B816C817D8186859785A089B1899A0131
:1003E000AB01280F391F4A1F5B1FC82CD92CEA2CE0
:1003F000FB2C00E010E060E0C2010E946D1D28C0EF
:10040000D20157968C9157978E7F57968C9320C028
:10041000F20187898160878B4A815B816C817D8154
:1004200046875787608B718B400F511F621F731F68
:1004300068017901C2010E94DA1C0AC0F2018789B1
:1004400081FD04C0C2010E94D00B02C08E7F878B49
:10045000282D392D4A2D5B2D662D772D8091BA19C7
:100460009091BB190E94471081116BCFE4CE0E947E
:10047000A616CE0101960E94CB1D6B877C878D87C7
:100480009E87898181115ACFE091BC19F091BD19E5
:10049000808121E0811120E0282C392C4A2C5B2C12
:1004A00036CF11241FBECFEFD1E2DEBFCDBF00E0BB
:1004B0000CBF18E0A0E0B2E0ECECF5E600E00BBF0A
:1004C00002C007900D92A635B107D9F72BE1A6E53A
:1004D000B8E001C01D92A736B207E1F70E942C1FB9
:1004E0000C94E4328DCD2F923F924F925F926F9297
:1004F0007F928F929F92AF92BF92CF92DF92EF92B4
:10050000FF920F931F93CF93DF93882E962E1A019D
:100510002801390161E070E083E090E00E94282E1C
:10052000EC01009769F1FC01119230926108209270
:10053000600840925C0850925D0860925E0870927C
:100540005F08F0925B08E0925A08A0925608B092B9
:100550005708C0925808D0925908492D50E07F01A1
:10056000082D9C0161E472E08AE293E00E944B1541
:100570008BE492E09F938F930E94C62F0F900F9071
:10058000CE01DF91CF911F910F91FF90EF90DF90FF
:10059000CF90BF90AF909F908F907F906F905F9023
:1005A0004F903F902F900895CF92DF92EF92FF925D
:1005B0000F931F93CF93DF93EC0140915C08509110
:1005C0005D0860915E0870915F08CC24CA94DC2CB1
:1005D000760101E021E0809160089091610881D668
:1005E00000915C0810915D0820915E0830915F08D1
:1005F000DC01CB0180239123A223B3230817190721
:100600002A073B07F1F488818F5F888382E592E0B7
:100610009F938F930E94C62F64EC79E080E090E076
:100620000E940B1840915608509157086091580845
:100630007091590880915A0890915B0812D70F90D9
:100640000F90DF91CF911F910F91FF90EF90DF906E
:10065000CF900895EC01CE01A7DFFDCFFC01808192
:10066000089581E080936508109264080E94F30F5A
:10067000909363088093620808950F93CF9320911D
:1006800062083091630821153105B1F0C82F4FEF92
:100690005FEFBA01C9010E94DF10C093650800E056
:1006A00020E030E0A90160E070E080916208909164
:1006B00063080E94530F02C080936508CF910F9189
:1006C00008950F93CF93DF932091620830916308D0
:1006D00021153105B1F0EC014FEF5FEFBA01C9010F
:1006E0000E94DF1080916508888300E020E030E000
:1006F000A90160E070E080916208909163080E9417
:10070000530FDF91CF910F9108950F93CF932091C5
:1007100062083091630821153105B1F0C82F4FEF01
:100720005FEFBA01C9010E94DF10C093640800E0C6
:1007300020E030E0A90160E070E0809162089091D3
:1007400063080E94530F02C080936408CF910F91F9
:1007500008950F93CF93DF9320916208309163083F
:1007600021153105B1F0EC014FEF5FEFBA01C9017E
:100770000E94DF1080916408888300E020E030E070
:10078000A90160E070E080916208909163080E9486
:10079000530FDF91CF910F91089561E070E088E0F1
:1007A00090E00E94282E009739F0FC0113821282FB
:1007B00015821482118210820895009719F0FC01AD
:1007C000718360830895009719F0FC017583648339
:1007D0000895009719F0FC01738362830895FC016A
:1007E000DB0112962C91129713963C911397149655
:1007F0008C91149715969C9141E0408344E041838D
:100800003283238394838583CF0108952F923F926F
:100810004F925F926F927F928F929F92AF92BF9210
:10082000CF92DF92EF92FF920F931F93CF93DF93BC
:1008300000D01F92CDB7DEB7282E362E5C834B83B7
:100840002801390161E070E088E090E00E94282EE4
:100850009A838983009709F442C0FC0191828082C7
:100860008A8D9B8D9383828398DFE981FA819583BA
:1008700084838B819C81909389088093880840921F
:100880008408509285086092860870928708F092DA
:100890008308E0928208A0927E08B0927F08C092FE
:1008A0008008D09281088C8D9D8D90937D088093D7
:1008B0007C08432D50E07F0196E0E90EF11C022DEB
:1008C0009F0163E672E08AE695E00E944B158AE696
:1008D00092E09F938F930E94C62F0F900F90898173
:1008E0009A810F900F900F900F90DF91CF911F91F1
:1008F0000F91FF90EF90DF90CF90BF90AF909F90BF
:100900008F907F906F905F904F903F902F900895C1
:10091000FC018481958157CF0895FC0182819381E8
:10092000009711F04AC308958FEF9FEF0895FC01DF
:100930008481958142CF0895FC0180819181009747
:1009400019F08CDE90E008958FEF9FEF0895FC0181
:10095000848195813ECF0895FC0182819381009727
:1009600011F02FC308958FEF9FEF0895AF92BF92BC
:10097000CF92DF92EF92FF920F931F93CF93DF936B
:10098000CDB7DEB766970FB6F894DEBF0FBECDBF0A
:100990005C014091840850918508609186087091AF
:1009A000870880918808909189085BD584E792E058
:1009B0009F938F930E94C62F40917E0850917F088D
:1009C0006091800870918108CC24CA94DC2C760157
:1009D00001E021E0809182089091830882D4009107
:1009E0007E0810917F082091800830918108DC01F9
:1009F000CB0180239123A223B3230F900F900817DC
:100A000019072A073B0709F054C0C50195DFBC014F
:100A1000C5018DDFC501A0DFBC01C50198DFC5019F
:100A20007CDFBC01C50174DF88E892E00E94D92F09
:100A3000F5018081918112DE1F928F938CE992E003
:100A40009F938F930E94C62FC50186DF9F938F933C
:100A500088EA92E09F938F930E94C62FC5015DDFC5
:100A60009F938F938CEB92E09F938F930E94C62F5E
:100A7000F50164817581CE010196B1DE86E1FE014A
:100A80003196A6E6B8E001900D928A95E1F70FEF56
:100A90001FEF980146E150E066E678E080917C081F
:100AA00090917D080E941B130FB6F894DEBF0FBE15
:100AB000CDBF66960FB6F894DEBF0FBECDBFDF91F7
:100AC000CF911F910F91FF90EF90DF90CF90BF904B
:100AD000AF900895EC01CE0149DFFDCFEF92FF9278
:100AE0000F939B014093EE08E12CF12C082F48E86E
:100AF00051E06DEC72E087EE96E00E944B150F918D
:100B0000FF90EF900895DF92EF92FF920F931F9363
:100B1000CF93DF937C018091EE088111D0C081E0FA
:100B20000E94302362E070E080E090E00E940B18A9
:100B300080E00E94302366E970E080E090E00E944F
:100B40000B180E94E62281E00E943E210E9444236D
:100B50000E94C1259F938F9386ED92E09F938F9380
:100B60000E94C62F0E94C2240E94C1259F938F938A
:100B700089EE92E09F938F930E94C62F8AE898E0B7
:100B80000E9456230E94C125CAE8D8E0DF93CF9384
:100B90009F938F9382E093E09F938F930E94C62F41
:100BA000CE010E9472230E94C1259F938F93DF93F1
:100BB000CF9386E193E09F938F930E94C62FAE015F
:100BC0006BE273E08CE493E00E94A0250E94C125B3
:100BD0009F938F93DF93CF938BE293E09F938F93B9
:100BE0008CE493E09F938F938FE593E09F938F9393
:100BF0000E94C62F0E94A5230E94C1259F938F9318
:100C000085E993E09F938F930E94C62F8DB79EB77F
:100C100082960FB6F8949EBF0FBE8DBF81E00E94F2
:100C20009F240E94C1259F938F9384EA93E09F9312
:100C30008F930E94C62F84EF91E00E94AA240E9405
:100C4000C1259F938F9381E08F9384EF8F9385ECE1
:100C500093E09F938F930E94C62F8DB79EB70A96FD
:100C60000FB6F8949EBF0FBE8DBFCAE0D0E005EE70
:100C700013E080E00E94AB23D82E0E94C1259F93F1
:100C80008F93DF93CF931F930F930E94C62F0F90E4
:100C90000F900F900F900F900F9088E0D81609F4E6
:100CA00080C080E00E94AA2166E371E080E090E0CD
:100CB0000E940B182197E9F67BC0EBD6FECF0FEF11
:100CC0001FEF980146E150E06FEE78E0C7010E9407
:100CD0000814EFEEF8E012818381180F61E070E0F4
:100CE00081E090E00E94282EEC011D32D9F018F42A
:100CF0001C3231F04DC0183339F11933B9F148C005
:100D000080E0BBDCCE01DDDC88811F928F9385E023
:100D100094E09F938F930E94C62F0F900F900F9097
:100D20000F904DC081E0A9DCCE01CBDC88811F9201
:100D30008F9385E094E09F938F930E94C62F0F902E
:100D40000F900F900F903BC080E0DFDCCE0101DD03
:100D500088811F928F9386E294E09F938F930E94E5
:100D6000C62F0F900F900F900F9029C081E0CDDC1F
:100D7000CE01EFDC88811F928F9386E294E09F93EF
:100D80008F930E94C62F0F900F900F900F9017C057
:100D90008CE494E09F938F930E94C62F0F900F9046
:100DA0000EC081E00E948C2181E08093EE0887CF05
:100DB00081E00E949B2180E00E9465217ECFDF912F
:100DC000CF911F910F91FF90EF90DF900895EC016C
:100DD000CE0199DE68EB7BE080E090E00E940B188A
:100DE000F7CF2F923F924F925F926F927F928F92A6
:100DF0009F92AF92BF92CF92DF92EF92FF920F93AA
:100E00001F93CF93DF93882E962E1A012801390164
:100E100061E070E086E090E00E94282EEC010097EF
:100E200091F1198218821B821A8230921009209245
:100E30000F0940920B0950920C0960920D097092B3
:100E40000E09F0920A09E0920909A0920509B092F0
:100E50000609C0920709D0920809492D50E07C018B
:100E600084E0E80EF11C082D9E016CE574E089ED2C
:100E700097E00E944B158DE694E09F938F930E941C
:100E8000C62F0F900F90CE01DF91CF911F910F9140
:100E9000FF90EF90DF90CF90BF90AF909F908F909A
:100EA0007F906F905F904F903F902F900895CF92DA
:100EB000DF92EF92FF920F931F93CF93DF93EC019A
:100EC00040910B0950910C0960910D0970910E0928
:100ED000CC24CA94DC2C760101E021E080910F093A
:100EE00090911009FED100910B0910910C092091ED
:100EF0000D0930910E09DC01CB0180239123A2233F
:100F0000B323081719072A073B0709F049C00E94B5
:100F1000AF1F62E370E080E090E00E940B180E9437
:100F2000C41F65E070E080E090E00E940B180E9412
:100F3000AC1F882341F10E94EA1F998388830E9495
:100F400010209B838A838CE894E00E94D92F8981AA
:100F50008F9388818F9382EB94E09F938F930E946D
:100F6000C62F8B818F938A818F9380EC94E09F931F
:100F70008F930E94C62F8DB79EB708960FB6F89430
:100F80009EBF0FBE8DBF409105095091060960912B
:100F90000709709108098091090990910A0961D2A5
:100FA000DF91CF911F910F91FF90EF90DF90CF9045
:100FB0000895EC01CE017BDFFDCFFC0180819181A2
:100FC0000895FC01828193810895EF92FF920F931F
:100FD0009B01E12CF12C082F48E851E06DEC72E008
:100FE0008EE399E00E944B150F91FF90EF900895CA
:100FF000DF92EF92FF920F931F93CF93DF937C01C9
:10100000809111098111D0C081E00E94302362E0FB
:1010100070E080E090E00E940B1880E00E94302396
:1010200066E970E080E090E00E940B180E94E622E2
:1010300081E00E943E210E9444230E94C1259F938B
:101040008F9386ED92E09F938F930E94C62F0E940C
:10105000C2240E94C1259F938F9389EE92E09F93B3
:101060008F930E94C62F88E299E00E9456230E9427
:10107000C125C8E2D9E0DF93CF939F938F9382E09D
:1010800093E09F938F930E94C62FCE010E947223FC
:101090000E94C1259F938F93DF93CF9386E193E0C6
:1010A0009F938F930E94C62FAE016BE273E08EE494
:1010B00093E00E94A0250E94C1259F938F93DF9308
:1010C000CF938BE293E09F938F938EE493E09F9373
:1010D0008F938FE593E09F938F930E94C62F0E947A
:1010E000A5230E94C1259F938F9385E993E09F9349
:1010F0008F930E94C62F8DB79EB782960FB6F89435
:101100009EBF0FBE8DBF81E00E949F240E94C1251B
:101110009F938F9384EA93E09F938F930E94C62FAF
:1011200084EF91E00E94AA240E94C1259F938F938F
:1011300081E08F9384EF8F9385EC93E09F938F935F
:101140000E94C62F8DB79EB70A960FB6F8949EBF21
:101150000FBE8DBFCAE0D0E005EE13E080E00E9434
:10116000AB23D82E0E94C1259F938F93DF93CF93FB
:101170001F930F930E94C62F0F900F900F900F9008
:101180000F900F9088E0D81609F462C080E00E94AA
:10119000AA2166E371E080E090E00E940B1821979D
:1011A000E9F65DC076D4FECF00E010E0980142E39E
:1011B00050E062E179E0C7010E940814029708F448
:1011C00040C083E00E94BC21C2E1D9E08A811F9225
:1011D0008F938AEC94E09F938F930E94C62F8B810C
:1011E0001F928F938CEE94E09F938F930E94C62F53
:1011F0008C811F928F938FE095E09F938F930E9435
:10120000C62F8D811F928F938EE295E09F938F93CF
:101210000E94C62FBE0180E00E94D4230E94C125F7
:101220009F938F938EE495E09F938F930E94C62F98
:101230008DB79EB744960FB6F8949EBF0FBE8DBF74
:1012400015C060ED77E080E090E00E940B180EC0C2
:1012500081E00E948C2181E080931109A5CF81E07B
:101260000E949B2180E00E9465219CCFDF91CF915D
:101270001F910F91FF90EF90DF900895EC01CE0148
:10128000B7DE68EB7BE080E090E00E940B18F7CFC0
:10129000E7E0F1E080818F6080830895E8E0F1E08D
:1012A0009081907F908390818F70982B9083089588
:1012B000E8E0F1E08081807F80830895CF93DF9321
:1012C00080E190E0B4D1EC01009739F0FC0111927B
:1012D000119211921192CF0194D2CE01DF91CF9150
:1012E00008952F923F924F925F926F927F928F92CA
:1012F0009F92AF92BF92CF92DF92EF92FF920F93A5
:101300001F93CF93DF93EC014A015B01622E702E95
:101310000E94A616288039804A805B8001110DC08A
:1013200081E0B201A101482159216A217B21452B8D
:10133000462B472B79F480E00DC081E0B201A1017A
:10134000482159216A217B21481559056A057B05E9
:1013500009F080E0882381F0662009F46BC0809456
:101360009094A094B09482209320A420B5208882E9
:101370009982AA82BB825EC0C114D104E104F10447
:1013800009F458C0662029F040E050E060E071E0C8
:1013900003C040E050E0BA01711074604829592937
:1013A0006A297B2997018601CE0104960E94BA180A
:1013B0000E948F17811101C06CD30E94011B91FD07
:1013C00035C00FB6F8940F92688179818A819B812C
:1013D00071100DC021E075016401C622D722E822F8
:1013E000F922CD28CE28CF2879F420E00DC021E0C5
:1013F00075016401C622D722E822F922C814D90453
:10140000EA04FB0409F020E0222371F0662061F079
:1014100080949094A094B09486229722A822B92216
:1014200088829982AA82BB820F900FBE1B012C0179
:10143000552402C00E948F17C201B101DF91CF91E4
:101440001F910F91FF90EF90DF90CF90BF90AF90E2
:101450009F908F907F906F905F904F903F902F90D4
:1014600008954F925F926F927F928F929F92AF9268
:10147000BF92CF92DF92EF92FF920F931F93CF9381
:10148000DF93EC016A017B018C01095F1F4F0E9411
:10149000A616EB85FC8588819981AA81BB81C82A23
:1014A000D92AEA2AFB2AC882D982EA82FB820E174D
:1014B0001F0709F445C0C12CD12C760199249394BF
:1014C000812CA480B58080819181A281B381AC01FF
:1014D000BD017727B2FD0FC0488059806A807B80AC
:1014E0004422552266227722292D4528462847285E
:1014F00089F4282D0FC0488059806A807B8044225F
:10150000552266227722292D44165506660677064F
:1015100009F0282D222371F0B0FF04C0C42AD52A77
:10152000E62AF72A488159816A817B817260CF015E
:101530000E944019EA2DFB2D0E171F0711F603C05C
:10154000C12CD12C7601C094D094E094F094888181
:101550009981AA81BB81C822D922EA22FB22C882B2
:10156000D982EA82FB820E948F17688179818A8101
:101570009B81DF91CF911F910F91FF90EF90DF90B2
:10158000CF90BF90AF909F908F907F906F905F9023
:101590004F900895CF93DF93DC01E4E9F9E001C0B7
:1015A000F901208131812A173B07D0F38281938191
:1015B000AF01480F591FA417B50749F412964D9172
:1015C0005C911397840F951F93838283DF0112969A
:1015D0008D919C911397ED01C80FD91F2C173D07D2
:1015E000D9F42091920930919309C217D30781F061
:1015F0002A813B81820F931F13969C938E9312979F
:10160000C081D1818881998111969C938E9307C066
:101610001196DC93CE9303C011963C932E93AE1794
:10162000BF0711F0B183A083DF91CF910895CF92CE
:10163000DF92EF92FF920F931F93CF93DF93EC0112
:101640000E94A6168091920990919309892B41F5E9
:10165000E4E9F9E0A8E9B9E0B183A083138212823A
:10166000E4E3F9E1F0939309E09392091382128283
:10167000118210828CE99FE013969C938E931297AF
:10168000ED93FC9390938F0980938E099093910929
:101690008093900980E090E890938D0980938C0965
:1016A000E0908C09F0908D09C7018C239D23892B34
:1016B00009F066C0209709F466C0AE014C5F5F4F29
:1016C00009F45EC000919009109191090417150763
:1016D00008F456C0C0919409D0919509E4E9F9E065
:1016E00002C0FE01E9012A813B812417350728F455
:1016F0002881398121153105A1F7809192099091B6
:101700009309C817D907E1F1C080D18084E0C80EE1
:10171000D11C88819981918380832A813B81241BFC
:10172000350B2930310548F0CE01840F951FFC019F
:10173000338322835B834A832DDF8A819B81081B4D
:10174000190B109391090093900920918E09309103
:101750008F090217130720F410938F0900938E0945
:10176000E82AF92AFB82EA82198218820E948F17DE
:10177000C114D10459F40E94621EC12CD12C06C0A0
:101780000E948F17F8CF0E948F17F5CFC601DF9107
:10179000CF911F910F91FF90EF90DF90CF90089520
:1017A000CF93DF93009751F1FC013497228133816D
:1017B00040918C0950918D09B90164237523672BE1
:1017C000E9F060817181672BC9F4EF014095509574
:1017D00024233523338322830E94A6162091900967
:1017E000309191098A819B81820F931F9093910977
:1017F00080939009CE01CEDE0E948F17DF91CF91AA
:101800000895FC010396928381834FEF5FEFBA0145
:101810004383548365837683908787839287818708
:1018200010820895FC01138612860895CF93DF93EA
:101830009C01FB01DC011196CD91DC911297D583BF
:10184000C4838E819F81978386838E819F81DC01F3
:1018500015967C936E9314977F836E8333872287CC
:10186000F90180818F5F8083DF91CF9108950F937D
:101870001F93CF93DF93EB01088119812A813B816C
:101880000F3F4FEF14072407340721F4FC01A18513
:10189000B28511C0DC01139601C0DF011496ED91F1
:1018A000FC9115974081518162817381041715075E
:1018B0002607370790F71496ED91FC911597FD8355
:1018C000EC83D783C683BF83AE831596DC93CE9318
:1018D00014979B878A87FC0120812F5F2083DF91EB
:1018E000CF911F910F910895CF93DF93FC01A285B3
:1018F000B385C481D581868197819F838E83C6817C
:10190000D781848195819D838C8311968D919C9143
:101910001297E817F90731F48681978112969C9304
:101920008E931197138612868C9181508C938C9193
:10193000DF91CF91089531E1FC013083319722E2AC
:1019400020833197A3E3A08331976083319770831D
:101950003197108231971082319760E86083319718
:1019600010823197108231971082319762E0608344
:10197000319763E06083319764E06083319765E07D
:101980006083319766E06083319767E060833197C9
:1019900068E06083319769E06083319760E160833C
:1019A00031973083319732E13083319733E130839F
:1019B000319734E13083319735E13083319736E127
:1019C0003083319737E13083319738E13083319775
:1019D00039E13083319730E23083319731E230831F
:1019E00031972083319723E22083319740833197C9
:1019F0005083319726E22083319727E22083319765
:101A000028E22083319729E22083319720E3208345
:101A1000319721E3208389970895A89590EC88E178
:101A20000FB6F894A895809360000FBE9093600065
:101A3000A091B219B091B319CD91CDBFDD91DEBFA8
:101A4000FF91EF91DF91CF91BF91AF919F918F91D6
:101A50007F916F915F914F913F912F911F910F91C6
:101A6000FF90EF90DF90CF90BF90AF909F908F90BE
:101A70007F906F905F904F903F902F901F900F90AE
:101A80000CBE0F900BBE0F900FBE0F90089581E01B
:101A900008950F920FB6F8940F920BB60F920CB6F2
:101AA0000F921F9211242F923F924F925F926F924A
:101AB0007F928F929F92AF92BF92CF92DF92EF92DE
:101AC000FF920F931F932F933F934F935F936F93C7
:101AD0007F938F939F93AF93BF93CF93DF93EF93B6
:101AE000FF93A091B219B091B3190DB60D920EB635
:101AF0000D920E942418A091B219B091B319CD9102
:101B0000CDBFDD91DEBFFF91EF91DF91CF91BF910E
:101B1000AF919F918F917F916F915F914F913F9185
:101B20002F911F910F91FF90EF90DF90CF90BF907A
:101B3000AF909F908F907F906F905F904F903F906D
:101B40002F901F900F900CBE0F900BBE0F900FBEEA
:101B50000F9008950F920FB6F8940F920BB60F9254
:101B60000CB60F921F9211242F923F924F925F92C8
:101B70006F927F928F929F92AF92BF92CF92DF929D
:101B8000EF92FF920F931F932F933F934F935F9387
:101B90006F937F938F939F93AF93BF93CF93DF9375
:101BA000EF93FF93A091B219B091B3190DB60D92B6
:101BB0000EB60D9213BE0E94BA1681110E9424180F
:101BC000A091B219B091B319CD91CDBFDD91DEBF17
:101BD000FF91EF91DF91CF91BF91AF919F918F9145
:101BE0007F916F915F914F913F912F911F910F9135
:101BF000FF90EF90DF90CF90BF90AF909F908F902D
:101C00007F906F905F904F903F902F901F900F901C
:101C10000CBE0F900BBE0F900FBE0F9008959ADF71
:101C200018950FB6F8940F92FC01968D0F900FBE89
:101C300081E0911180E008950F931F93CF93DF937C
:101C4000EC01042F1E8D48A141110CC0888199819F
:101C5000892B09F042C08C819D810E94751A1D82DA
:101C60001C8242C0011117C050E08A819B810E94F2
:101C7000672F28A18A819B81820F911D9B838A8374
:101C80002C813D818217930750F1888199819B8334
:101C90008A8380E029C050E08E819F810E94672F57
:101CA00088A190E09195819591092E813F81280F1F
:101CB000391F3F832E83488159812417350730F41B
:101CC0002C813D81820F931F9F838E83023049F4C4
:101CD000112349F0115080E007C080E005C080E08A
:101CE00003C080E001C080E01F5F1E8FDF91CF91B5
:101CF0001F910F910895FC0140A14423A9F050E0E9
:101D000026813781240F351F37832683848195816F
:101D10002817390720F08081918197838683CB0132
:101D2000668177810C94672F0895EF92FF920F934D
:101D30001F93CF938C010FB6F8940F92FC01C2A1B0
:101D40001C16ACF48389811106C011C0F801838987
:101D5000811105C00CC07801F3E1EF0EF11CC70141
:101D60000E94FE1881110E94F019C15079F78FEF7F
:101D7000F80182A30F900FBE0FB6F8940F92C1A185
:101D80001C16ACF48085811106C011C0F801808555
:101D9000811105C00CC07801F8E0EF0EF11CC701FD
:101DA0000E94FE1881110E94F019C15079F78FEF3F
:101DB000F80181A30F900FBECF911F910F91FF905B
:101DC000EF900895CF93DF93EC010FB6F8940F9244
:101DD000E881F9818F8D28A190E030E0829FA001F9
:101DE000839F500D929F500D11244E0F5F1F5D83F6
:101DF0004C831E8EFB83EA830197829FA001839F01
:101E0000500D929F500D1124CF01840F951F9F8379
:101E10008E838FEF89A38AA361110BC088858823E5
:101E200071F0CE0108960E94FE18882341F031DE41
:101E300006C0CE010896E5DCCE014396E2DC0F90A9
:101E40000FBE81E0DF91CF910895FF920F931F9312
:101E5000CF93DF93082F162FF42E6623B9F0869FB9
:101E6000C00111248596E3DBEC01009741F414C016
:101E70000F8F18A361E0CE01A5DFFCA20DC08596EF
:101E800099838883F5CFD983C883F2CF85E290E028
:101E9000CEDBEC01892BB9F7CE01DF91CF911F91F9
:101EA0000F91FF9008959F92AF92BF92CF92DF92D1
:101EB000EF92FF920F931F93CF93DF93CDB7DEB7CF
:101EC00029970FB6F894DEBF0FBECDBF7C015B0132
:101ED0002E833F834887598710E0992493946C019F
:101EE00088E0C80ED11C0FB6F8940F92F701968DBA
:101EF000878D981710F00230B1F4402FB501C7015B
:101F00009BDEF7019389992341F0C70143960E9414
:101F1000FE18882321F0BDDD02C08111BADD0F90CB
:101F20000FBE81E04EC08E819F81A885B985892B27
:101F30008A2B8B2B21F40F900FBE80E042C0111131
:101F400005C0CE0101960E948A19192D0F900FBE6F
:101F5000FDD60FB6F8940F92F70181A18F3F09F4D7
:101F600011A2F70182A18F3F09F412A20F900FBEB8
:101F7000BE016A5F7F4FCE0101960E949B198111BD
:101F80001CC00FB6F8940F92F701968D878D0F90B5
:101F90000FBE98130EC04E815F8168857985C6019A
:101FA0000E94A318C701C1DEBAD781119CCF71DD91
:101FB0009ACFC701BADEB3D796CFC701B6DEAFD787
:101FC00080E029960FB6F894DEBF0FBECDBFDF913B
:101FD000CF911F910F91FF90EF90DF90CF90BF9026
:101FE000AF909F9008950F93CF93DF93482F60E0B9
:101FF00081E02BDFEC01009761F01D821C821982C9
:1020000018821E8200E020E030E0A90160E070E06C
:102010004ADFCE01DF91CF910F910895EF92FF92A9
:102020000F931F93CF93DF938A01FC01568D378D59
:10203000531710F02230E9F4422F7801EC011AA175
:10204000FBDD1F3F81F48B898823A9F0CE014396E5
:102050000E94FE18882389F0E114F10481F081E0E8
:10206000F70180830DC0FF24F394F10EFAA281E002
:1020700007C080E005C081E003C081E001C081E0CD
:10208000DF91CF911F910F91FF90EF9008959F9254
:10209000AF92BF92CF92DF92EF92FF920F931F9376
:1020A000CF93DF93CDB7DEB729970FB6F894DEBF95
:1020B0000FBECDBF8C015B012E833F8348875987BC
:1020C000E12C992493946C0183E1C80ED11C0FB6C6
:1020D000F8940F92F801F68CFF2099F0B501C80131
:1020E0000ADEFA94F801F68E8085882331F0C80163
:1020F00008960E94FE188111CCDC0F900FBE81E083
:102100004CC08E819F81A885B985892B8A2B8B2B0A
:1021100021F40F900FBE80E040C0E11005C0CE0159
:1021200001960E948A19E92C0F900FBE0FD60FB6A8
:10213000F8940F92F80181A18F3F09F411A2F801E0
:1021400082A18F3F09F412A20F900FBEBE016A5FF9
:102150007F4FCE0101960E949B19811115C0C801C5
:1021600060DD882369F04E815F8168857985C601CD
:10217000EAD7C801DADDD3D68111A9CF8ADCA7CF8F
:10218000C801D3DDCCD6A3CFC801CFDDC8D6C801E6
:1021900048DD882309F49BCF80E029960FB6F89498
:1021A000DEBF0FBECDBFDF91CF911F910F91FF908A
:1021B000EF90DF90CF90BF90AF909F900895BF9227
:1021C000CF92DF92EF92FF920F931F93CF93DF9303
:1021D000CDB7DEB729970FB6F894DEBF0FBECDBFDF
:1021E0008C014E835F8368877987B12CD12CCC24F6
:1021F000C3947C0183E1E80EF11C0FB6F8940F92B2
:10220000D8015E968C915E978823D9F081505E96B6
:102210008C935E978D919C91892B29F40E94291BA8
:10222000F80195838483D80118968C91882329F02E
:10223000C8010896E3D781112CDC0F900FBE81E016
:102240007AC08E819F81A885B985892B8A2B8B2B9B
:1022500021F40F900FBE80E06EC0D11005C0CE01FA
:1022600001960E948A19DC2C0F900FBE6FD50FB615
:10227000F8940F92F80181A18F3F09F411A2D801BF
:1022800092968C9192978F3F11F492961C920F9098
:102290000FBEBE016A5F7F4FCE0101960E949B195F
:1022A000811124C0C801BDDC8823E1F0F8018081E0
:1022B0009181892B51F40FB6F8940F928481958106
:1022C0000E94071AB82E0F900FBE4E815F8168855D
:1022D0007985C70138D7C80128DD21D681118DCF76
:1022E000D8DB8BCFC80121DD1AD687CFC8011DDD11
:1022F00016D6C80196DC882309F47FCFBB20D1F025
:102300000FB6F8940F92F8018389882339F0028C74
:10231000F38DE02D808164E0681B01C060E0D8018E
:1023200014968D919C9115970E94B51A0F900FBE2F
:1023300080E001C080E029960FB6F894DEBF0FBEA2
:10234000CDBFDF91CF911F910F91FF90EF90DF9064
:10235000CF90BF900895CF93DF93EC010FB6F89420
:102360000F9289A18F3F09F419A28AA18F3F09F426
:102370001AA20F900FBE8E8D811103C0CE0143961D
:102380001DD7CE01D2DCDF91CF910895FC014481AD
:10239000558122813381240F351F80819181B901BC
:1023A000681B790BCB016417750710F0841B950B24
:1023B0000895AF92BF92CF92DF92EF92FF920F9368
:1023C0001F93CF93DF936C015B017A01FC01C28103
:1023D000D381048115810C1B1D0B4017510708F494
:1023E0008A01F60184859585A801B5018C0F9D1F92
:1023F0000E94672F0E151F0558F4A701401B510BB3
:10240000B501600F711FF601848595850E94672FC5
:10241000CE018E0D9F1DF601248135818217930711
:1024200010F0821B930BF60193838283C701DF9127
:10243000CF911F910F91FF90EF90DF90CF90BF90C1
:10244000AF900895CF92DF92EF92FF920F931F9378
:10245000CF93DF931F921F92CDB7DEB75A83498384
:1024600021153105C9F06B017C01FC01868580FDD9
:1024700008C0CA012417350708F4C9019A83898363
:1024800011C02017310758F042E050E0BE016F5FE5
:102490007F4FC7018EDF06C080E090E008C080E07B
:1024A00090E005C049815A81B601C70182DF0F90D3
:1024B0000F90DF91CF911F910F91FF90EF90DF90E0
:1024C000CF900895AF92BF92CF92DF92EF92FF929A
:1024D0000F931F93CF93DF937C015B01E9014217B8
:1024E000530708F4EA01209779F1F701008111817F
:1024F000C480D580C01AD10ACC15DD0508F46E0160
:10250000F70164857585600F711FA601C5010E94E2
:10251000672FCC16DD0658F4AE014C195D09F701A2
:1025200064857585C5018C0D9D1D0E94672F0C0F5C
:102530001D1FF701848195810817190710F0081BEA
:10254000190BF70111830083CE01DF91CF911F9109
:102550000F91FF90EF90DF90CF90BF90AF900895D4
:10256000EF92FF921F93CF93DF93EB0111E0413085
:1025700009F010E0209711F4C1E0D0E07C012FEFCA
:10258000E21AF20A419653D8009781F020E1FC014B
:1025900011922A95E9F79C01205F3F4FFC01358796
:1025A0002487F582E482D783C6831687DF91CF9193
:1025B0001F91FF90EF900895CF93DF93FC01278543
:1025C0000FB6F8940F9280859185892BD1F482857E
:1025D0009385892BC1F486854681578164817581F5
:1025E000A485B58590E1EF0119929A95E9F7B58731
:1025F000A48775836483578346838687278781E012
:1026000003C080E001C080E00F900FBEDF91CF914A
:102610000895FC012481358180819181428153811B
:10262000820F931F0197841B950B8217930710F05D
:10263000821B930B08952F923F924F925F926F925D
:102640007F928F929F92AF92BF92CF92DF92EF9242
:10265000FF920F931F93CF93DF93CDB7DEB72997E8
:102660000FB6F894DEBF0FBECDBF5C011B012A017F
:102670000E831F8328873987FC01868580FF05C06C
:102680003A01F2E06F0E711C01C03A018E819F8108
:10269000A885B985892B8A2B8B2B09F434C0CE01F0
:1026A000019622D60FB6F8940F92C501B2DF4C0105
:1026B0008615970518F580E090E00E94C61C94D618
:1026C000F501938782870F900FBECE80DF80E8846C
:1026D000F98400E010E020E030E0A90160E070E063
:1026E000CB01C9D7F50113861286BE016A5F7F4F01
:1026F000CE01019620D68823A9F202C00F900FBE0A
:102700008114910419F4C50184DF4C018301940103
:10271000A201B101C50196DE7C01892BE1F0C50162
:1027200035DEF5012681378182179307A0F00ED39D
:10273000F50180859185892B69F08085918500E080
:1027400010E020E040E050E0BA010E94C51BF50116
:1027500011861086E4D3C70129960FB6F894DEBF20
:102760000FBECDBFDF91CF911F910F91FF90EF90E2
:10277000DF90CF90BF90AF909F908F907F906F90A1
:102780005F904F903F902F900895AF92BF92CF925D
:10279000DF92EF92FF920F931F93CF93DF93EC01A1
:1027A0005B016A0179018E8580FF04C08A010E5F9A
:1027B0001F4F01C08A01CE012CDF9C01A601B5018B
:1027C000CE0140DE6C01892BB9F0CE01DFDD2E8118
:1027D0003F818217930780F088859985892B61F066
:1027E0008885998500E010E020E040E050E0BA01E3
:1027F0000E943D1C19861886C601DF91CF911F915A
:102800000F91FF90EF90DF90CF90BF90AF90089521
:102810004F925F926F927F928F929F92AF92BF92F0
:10282000CF92DF92EF92FF920F931F93CF93DF939C
:102830001F921F92CDB7DEB75C012B013A016801F0
:102840007901FC01868580FD03C0812C912C04C098
:102850006894882481F8912CC114D104E104F10416
:1028600031F10FB6F8940F92C50190DD8C018816F6
:10287000990640F080E090E00E94C61CB5D5F501B5
:10288000918780870F900FBE80169106B0F000E010
:1028900010E020E030E0A90160E070E0CB01EBD671
:1028A000F50111861086C50171DD8C0103C0C501DB
:1028B0006DDD8C0180169106B8F581149104C1F08C
:1028C000F501E080F1809801A401BE016F5F7F4FA8
:1028D000C501F8DD89819A810819190968167906F8
:1028E00030F4F501F182E082612C712C01C03C01D1
:1028F0009801A301B201C501E5DD7C01892BB1F08E
:1029000025D2F50182859385892B61F08285938597
:1029100000E010E020E040E050E0BA0136D7F501D9
:1029200013861286FCD202C0E12CF12CC7010F9055
:102930000F90DF91CF911F910F91FF90EF90DF905B
:10294000CF90BF90AF909F908F907F906F905F904F
:102950004F900895E0916E19F0916F198081811167
:102960000CC08FEF9FEFDC0180933B1990933C19D3
:10297000A0933D19B0933E190895E0916E19F0911E
:102980006F190780F085E02D0084F185E02D8281AC
:102990009381A481B58180933B1990933C19A093B6
:1029A0003D19B0933E1908958F929F92AF92BF92B6
:1029B000CF92DF92EF92FF92CF936B017C01C42FF5
:1029C0008090451990904619A0904719B0904819E9
:1029D0008091B2199091B31902960E94740C8FEFF6
:1029E000C816D806E806F80669F4CC2359F06091B9
:1029F000B2197091B3196E5F7F4F8AE499E10E941A
:102A0000160C3FC0C80CD91CEA1CFB1CE091B21983
:102A1000F091B319C282D382E482F582C814D9043A
:102A2000EA04FB0468F46091B2197091B3198091C3
:102A30006C1990916D196E5F7F4F0E94370C21C009
:102A40006091B2197091B31980916E1990916F19BC
:102A50006E5F7F4F0E94370C80913B1990913C191B
:102A6000A0913D19B0913E19C816D906EA06FB0699
:102A700040F4C0923B19D0923C19E0923D19F0927B
:102A80003E19CF91FF90EF90DF90CF90BF90AF9025
:102A90009F908F9008954F925F926F927F928F9246
:102AA0009F92AF92BF92CF92DF92EF92FF920F93DD
:102AB000CF93DF934C016B015A012901CA010E9497
:102AC000170B3C01892B09F4F4C080E390E00E94CD
:102AD000170BEC01892B99F07C8E6B8EA50165EAB2
:102AE00070E0C3010E94702F21E0A21AB1088B8D03
:102AF0009C8DA80EB91EC114D10429F420C0C301B5
:102B00000E94D00BD6C0D6018C918D8F8C918823DA
:102B1000A1F0AE01425E5F4FF6013196B8E0CB0EF8
:102B2000D11CCF012191DA012D93AD01DC018C91F3
:102B3000882319F0EC15FD05A1F71CA201C01D8E1C
:102B4000043008F003E00A8F0FA318A66E01B2E06C
:102B5000CB0ED11CC6010E94120CCE010E960E9413
:102B6000120CDB87CA8784E090E0A0E0B0E0801B15
:102B70009109A109B1098E879F87A88BB98BDF8B3B
:102B8000CE8B1AA619A61BA61CA61DA61EA61FA69E
:102B9000A201B401C5010E949B0C99838883E114B2
:102BA000F10419F0F701D183C0830FB6F8940F92A6
:102BB000809149198F5F809349198091B219909142
:102BC000B319892BD1F5D093B319C093B219809161
:102BD0004919813009F041C086E899E10E94010C51
:102BE00081E999E10E94010C8CE999E10E94010CB4
:102BF00087EA99E10E94010C8BE799E10E94010CA0
:102C000080E799E10E94010C81E699E10E94010CA4
:102C100086E599E10E94010C8AE499E10E94010C89
:102C20008BE799E190936F1980936E1980E799E192
:102C300090936D1980936C1910C080914319811184
:102C40000CC0E091B219F091B319928D8A8D891759
:102C500020F0D093B319C093B21980913F198F5FC0
:102C600080933F198DA38A8D90914419981710F481
:102C700080934419FBE08F9FC0011124B6018A574D
:102C8000964E0E94160C0F900FBE80914319882318
:102C900061F0E091B219F091B319928D8A8D981775
:102CA00030F40E94490D81E005C081E003C081E05D
:102CB00001C08FEFDF91CF910F91FF90EF90DF90E8
:102CC000CF90BF90AF909F908F907F906F905F90CC
:102CD0004F900895EF92FF920F930F2EF9E3EF2E8E
:102CE000F9E1FF2EF02D00E020E030E040EC50E074
:102CF00063E675E08DEC90E0CEDE813019F5CCD640
:102D0000813001F5F8948FEF9FEFDC0180933B1940
:102D100090933C19A0933D19B0933E1981E08093A4
:102D200043191092451910924619109247191092A2
:102D30004819E091B219F091B31981A50E944E098A
:102D40000E940D0D0F91FF90EF900895809138191A
:102D50008F5F8093381908950FB6F8940F926091A1
:102D600045197091461980914719909148190F9013
:102D70000FBE08959F92AF92BF92CF92DF92EF92D3
:102D8000FF920F931F93CF93DF9380913819811196
:102D9000ADC0C0904519D0904619E0904719F09009
:102DA00048198FEFC81AD80AE80AF80AC0924519DC
:102DB000D0924619E0924719F0924819C114D104F3
:102DC000E104F104B1F480916E1990916F19209192
:102DD0006C1930916D1930936F1920936E1990937F
:102DE0006D1980936C19809140198F5F8093401901
:102DF000B1DD80913B1990913C19A0913D19B091A2
:102E00003E19C816D906EA06FB0610F4B12C5DC0BF
:102E1000B12C0F2EFBE0AF2EF02D99249394E0916E
:102E20006E19F0916F19808181110CC08FEF9FEFA7
:102E3000DC0180933B1990933C19A0933D19B0930A
:102E40003E1943C0E0916E19F0916F190780F0852B
:102E5000E02DC085D1858A819B81AC81BD81C8165A
:102E6000D906EA06FB0648F480933B1990933C1977
:102E7000A0933D19B0933E1928C08E010E5F1F4FDD
:102E8000C8010E94740C888D998D892B21F0CE0188
:102E90000E960E94740C8A8D90914419981710F424
:102EA00080934419A89EC0011124B8018A57964EF8
:102EB0000E94160CE091B219F091B3199A8D828D8F
:102EC000981708F4ACCFB92CAACFE091B219F091C1
:102ED000B319E28D8BE0E89FF0011124EA57F64E1A
:102EE0008081823048F0BB24B39406C0809142199F
:102EF0008F5F80934219B12C80914119882311F082
:102F0000BB24B3948B2DDF91CF911F910F91FF9034
:102F1000EF90DF90CF90BF90AF909F900895CF92A9
:102F2000DF92EF92FF920F931F93CF93DF930FB631
:102F3000F8940F92809138198150809338198091BC
:102F4000381981115AC08091491981112CC058C07B
:102F5000D7011796ED91FC911897C085D185CE01C8
:102F60000E960E94740C8E010E5F1F4FC8010E94C6
:102F7000740C8A8D90914419981710F48093441919
:102F8000D89EC0011124B8018A57964E0E94160C93
:102F9000E091B219F091B3199A8D828D981788F04B
:102FA000C09241190EC0C0E0D0E00F2EF1E6EF2E26
:102FB000F9E1FF2EF02D0F2EFBE0DF2EF02DCC24BB
:102FC000C394F70180818111C3CFCD2B09F0C2DCFE
:102FD000C0914219CC2349F0D1E0CCDE8111D093CD
:102FE0004119C150D1F7109242198091411988239B
:102FF00031F00E94490D81E003C080E001C080E013
:103000000F900FBEDF91CF911F910F91FF90EF9026
:10301000DF90CF900895CF92DF92EF92FF926B01F5
:103020007C01672B682B692B41F090DE40E0C701E3
:10303000B601BADC74DF811102C00E94490DFF9015
:10304000EF90DF90CF90089580913819882321F078
:1030500081E080934119089510924119E091B219CD
:10306000F091B31981A50E945809A091B219B091AD
:10307000B319E091B219F091B3192D913C91838D60
:10308000948D8217930758F06091B2197091B3191B
:103090008091B2199091B319635E7F4F20D68091D1
:1030A0004419282F30E09BE0899FF0011124EA5752
:1030B000F64E908191110EC04BE08150282F30E0E8
:1030C000429FF001439FF00D1124EA57F64E908184
:1030D000992399F39BE0929FA001939F500D112497
:1030E000DA01AA57B64E1196ED91FC911297048021
:1030F000F581E02D1296FC93EE9311974757564EAB
:10310000E417F50729F444815581FD015283418379
:103110009BE0929FF001939FF00D1124EA57F64E29
:103120000180F281E02D208531853093B319209301
:10313000B21980934419E091B219F091B31981A5A5
:103140000C944E090895CF92DF92EF92FF926A019C
:103150007B016091B2197091B319625F7F4F0E9439
:10316000370C41E0C701B6011FDCFF90EF90DF9004
:10317000CF900895CF92DF92EF92FF920F931F931B
:1031800068017901E091B219F091B319706846872E
:103190005787608B718B6091B2197091B319625F20
:1031A0007F4F0E94160C41E0C701B601FDDB1F9165
:1031B0000F91FF90EF90DF90CF900895CF92DF9224
:1031C000EF92FF92CF936A017B01C22F6091B219F7
:1031D0007091B319625F7F4F0E94160CCC2321F0CF
:1031E000CC24CA94DC2C76014C2FC701B601DCDB61
:1031F000CF91FF90EF90DF90CF9008950F931F93A2
:10320000CF93DF93DC011796ED91FC911897C08561
:10321000D1858E01025F1F4FC8010E94740C8091FE
:103220003819811116C00C501109C8010E94740C84
:103230008A8D90914419981710F480934419BBE03B
:103240008B9FC0011124B8018A57964E0E94160C1C
:1032500005C0B80181E699E10E94160CE091B2190F
:10326000F091B3199A8D828D891720F481E08093B3
:10327000411901C080E0DF91CF911F910F91089516
:103280000F931F93CF93DF937068FC0140835183AA
:1032900062837383C085D1850E94740C8E010E5F9A
:1032A0001F4FC8010E94740C8A8D90914419981781
:1032B00010F480934419FBE08F9FC0011124B801E2
:1032C0008A57964E0E94160CE091B219F091B319EC
:1032D0009A8D828D891718F481E080934119DF91CE
:1032E000CF911F910F9108950FB6F8940F922091EE
:1032F0004019FC0120834091451950914619609175
:1033000047197091481941835283638374830F90E6
:103310000FBE089520914019FC012083409145196A
:103320005091461960914719709148194183528311
:10333000638374830895CF92DF92EF92FF920F938D
:103340001F93CF93DF93FB010FB6F8940F92409138
:10335000451950914619609147197091481900819B
:103360001181228133810F3FAFEF1A072A073A07F5
:1033700049F1EC01C980DA80EB80FC80A091401912
:10338000B881BA1729F04C155D056E057F05E0F48C
:103390004C195D096E097F094017510762077307D1
:1033A00058F4041B150B260B370B00831183228363
:1033B0003383B0DF80E009C0108211821282138251
:1033C00081E003C080E001C081E00F900FBEDF917B
:1033D000CF911F910F91FF90EF90DF90CF900895C4
:1033E00081E08093411908958091B2199091B319A9
:1033F000089580914319882331F0809138198823EA
:1034000021F080E0089581E0089582E008950F930F
:103410001F93CF93DF93FC01892B09F460C0828D49
:10342000A091B219B091B3195A969C91891708F0DE
:103430004AC04685578560897189772394F0A091A9
:10344000B219B091B3195A969C9144E050E060E0F3
:1034500070E0491B51096109710946875787608BE4
:10346000718B2BE0829FC00111248A57964E2485D0
:10347000358528173907F1F48F01EF012296CE0127
:103480000E94740CE091B219F091B319828DF80189
:10349000828F90914419981710F480934419FBE09F
:1034A0008F9FC0011124BE018A57964E0E94160CB0
:1034B00081E016C0A091B219B091B3195A968C91BF
:1034C000828F81E00DC0A091B219B091B31981E053
:1034D00027A15A969C91291718F080E001C080E03E
:1034E000DF91CF911F910F9108950F931F93CF9369
:1034F000DF93FC01892B79F180A5815080A7228D73
:1035000097A1291751F181112AC0EF018F010E5F98
:103510001F4FC8010E94740C8FA18A8F44E050E0B5
:1035200060E070E0481B5109610971094E875F87AF
:10353000688B798B90914419981710F480934419F3
:103540002BE0829FC0011124B8018A57964E0E9439
:10355000160C81E005C080E003C080E001C080E07F
:10356000DF91CF911F910F9108950F931F93CF93E8
:10357000DF93FC01892B09F43FC087A1861708F46B
:10358000862F928D9817C1F120A52130A9F5828F41
:103590004685578560897189772364F044E050E05F
:1035A00060E070E0481B510961097109468757873F
:1035B000608B718B2BE0929FC00111248A57964E2D
:1035C0002485358528173907B9F4EF018F010E5F7F
:1035D0001F4FC8010E94740C8A8D9091441998174E
:1035E00010F4809344192BE0829FC0011124B8018C
:1035F0008A57964E0E94160CDF91CF911F910F9122
:103600000895CF92DF92EF92FF92E091B219F0917C
:10361000B3196685778580899189E091B219F09117
:10362000B319A091B219B091B3195A962C91C12C2B
:10363000D12C76016894C2F8C21AD108E108F108C9
:10364000C686D786E08AF18AFF90EF90DF90CF9010
:1036500008958091B2199091B319892B39F0E091B6
:10366000B219F091B31980A58F5F80A78091B2192C
:103670009091B31908954F925F926F927F928F92BB
:103680009F92AF92BF92CF92DF92EF92FF920F93F1
:103690001F9349015A010FB6F8940F92E091B219A5
:1036A000F091B31927A5223039F1E091B219F091C8
:1036B000B31943A454A465A476A4DC01CB0180957E
:1036C0009095A095B09584219521A621B72183A737
:1036D00094A7A5A7B6A7E091B219F091B31981E01C
:1036E00087A7C114D104E104F10431F041E0C7011E
:1036F000B6015AD90E94490D0F900FBE0FB6F8942B
:103700000F920115110569F0E091B219F091B3190A
:1037100083A594A5A5A5B6A5F80180839183A2836E
:10372000B383E091B219F091B31987A58230B1F457
:10373000E091B219F091B31983A594A5A5A5B6A5FA
:1037400080949094A094B09488229922AA22BB22BB
:1037500083A694A6A5A6B6A681E001C080E0E0916C
:10376000B219F091B31917A60F900FBE1F910F91C8
:10377000FF90EF90DF90CF90BF90AF909F908F9091
:103780007F906F905F904F9008950F931F93CF930A
:10379000DF93FC010FB6F8940F920115110549F063
:1037A00083A594A5A5A5B6A5E80188839983AA83D6
:1037B000BB8387A592E097A72230B1F018F421309F
:1037C00031F02AC02330E9F0243001F125C003A5EF
:1037D00014A525A536A5402B512B622B732B43A78F
:1037E00054A765A776A718C043A554A565A576A5D7
:1037F0004F5F5F4F6F4F7F4F43A754A765A776A7D3
:103800000BC043A754A765A776A706C0823049F12D
:1038100043A754A765A776A7813029F5EF018F014B
:103820000E5F1F4FC8010E94740C8A8D909144193D
:10383000981710F4809344192BE0829FC001112443
:10384000B8018A57964E0E94160CE091B219F09179
:10385000B3199A8D828D891740F40E94490D81E039
:1038600005C080E003C081E001C081E00F900FBE81
:10387000DF91CF911F910F910895EF92FF920F93D7
:103880001F93CF93DF93FC010115110549F083A528
:1038900094A5A5A5B6A5E80188839983AA83BB83CF
:1038A00087A592E097A72230B1F018F4213031F0CB
:1038B0002AC02330E9F0243001F125C003A514A566
:1038C00025A536A5402B512B622B732B43A754A75C
:1038D00065A776A718C043A554A565A576A54F5F33
:1038E0005F4F6F4F7F4F43A754A765A776A70BC0C5
:1038F00043A754A765A776A706C08230D9F143A78E
:1039000054A765A776A78130B9F5EF0180913819E2
:10391000811117C08F010E5F1F4FC8010E94740CE8
:103920008A8D90914419981710F480934419EBE014
:103930008E9FC0011124B8018A57964E0E94160C22
:1039400007C0BF01625F7F4F81E699E10E94160CBC
:10395000E091B219F091B3199A8D828D891770F4A4
:10396000E114F10419F081E0E701888381E080939C
:10397000411905C080E003C081E001C081E0DF9112
:10398000CF911F910F91FF90EF900895009721F430
:103990008091B2199091B3190FB6F8940F92FC016F
:1039A00027A5223019F417A681E001C080E00F900E
:1039B0000FBE0895CF92DF92EF92FF920F931F9365
:1039C000FC01428353836483758393878287041742
:1039D000150726073707C0F00C191D092E093F09E6
:1039E00086859785A089B189081719072A073B079B
:1039F00000F5BF016E5F7F4F8091BC199091BD199A
:103A00000E94370C80E018C00C151D052E053F05DF
:103A100028F44C155D056E057F0568F4BF016E5FE7
:103A20007F4F8091BE199091BF190E94370C80E0A2
:103A300003C081E001C081E01F910F91FF90EF90E2
:103A4000DF90CF9008950FB6F8940F928091BA1935
:103A50009091BB19892BE9F48BEC99E10E94010C40
:103A600080EC99E10E94010C8BEC99E19093BF19D5
:103A70008093BE1980EC99E19093BD198093BC1995
:103A800040E067E08AE00E94250F9093BB19809385
:103A9000BA190F900FBE0895EF92FF920F93D3DFE4
:103AA0008091BA199091BB19892B91F00F2EF8EBE8
:103AB000EF2EF9E1FF2EF02D03E020E030E045E5A8
:103AC00050E068E675E087E091E00E944B1501C088
:103AD00080E00F91FF90EF9008958F929F92AF92A8
:103AE000BF92CF92DF92EF92FF920F931F93CF93EB
:103AF000DF93CDB7DEB727970FB6F894DEBF0FBEC2
:103B0000CDBFE091BA19F091BB19309781F169836B
:103B10002A833B834C835D839F838E836630F4F4DA
:103B200068DC823069F400E0A7019601BE016F5F96
:103B30007F4F8091BA199091BB190E94530F18C002
:103B400000E020E030E0A901BE016F5F7F4F80916F
:103B5000BA199091BB190E94530F0AC020E0A80126
:103B6000BE016F5F7F4FCF010E940E1001C080E049
:103B700027960FB6F894DEBF0FBECDBFDF91CF9171
:103B80001F910F91FF90EF90DF90CF90BF90AF907B
:103B90009F908F9008952F923F924F925F926F92D5
:103BA0007F928F929F92AF92BF92CF92DF92EF92CD
:103BB000FF920F931F93CF93DF931C01CDD82B015E
:103BC0003C018091B4199091B519A091B619B091AA
:103BD000B719481659066A067B0608F053C03BC061
:103BE0000780F085E02D80809180A280B380C08521
:103BF000D1858E010E5F1F4FC8010E94740CEC89A5
:103C0000FD89CE0119958F8982FF25C08E859F85FC
:103C1000A889B989880D991DAA1DBB1D881699060A
:103C2000AA06BB0670F48A839B83AC83BD83DB87C3
:103C3000CA87B8018091BE199091BF190E94370CB4
:103C40000AC0C12CD12C760100E010E0A50194013E
:103C500060E0CE0142DFE091BE19F091BF19808192
:103C60008111BECF8091BC199091BD199093BF195D
:103C70008093BE19F093BD19E093BC1981E0F10166
:103C8000808302C0F10110824092B4195092B5199C
:103C90006092B6197092B719C301B201DF91CF914A
:103CA0001F910F91FF90EF90DF90CF90BF90AF905A
:103CB0009F908F907F906F905F904F903F902F904C
:103CC00008950895279A2F9A2FEF80E792E02150C8
:103CD00080409040E1F700C000001F9AF5CF279A7E
:103CE0002F9A2FEF87EA91E6215080409040E1F72C
:103CF00000C000001F9AF5CF8F929F92AF92BF92A3
:103D0000CF92DF92EF92FF920F931F93CF93DF93A7
:103D10000E945E099093461B8093451B0E945E099A
:103D200090932C1B80932B1B41E060E070E084E6B5
:103D300090E00E94B0129093281B8093271B41E0D3
:103D400060E070E086E190E00E94B01290932A1B40
:103D50008093291B0E9431036091271B7091281BBF
:103D600081E00E94E5076091291B70912A1B41E0C8
:103D700050E081E090E00E946E05E0902B1BF090F7
:103D80002C1B4091451B5091461BA12CB12C650169
:103D90006894A4F801E010E020E030E060EC81E0FD
:103DA0000E94F106C82FD92FE0902B1BF0902C1BFE
:103DB0004091451B5091461BA12CB12C6501689484
:103DC000A5F802E010E020E030E060EC81E00E9425
:103DD0007302E0902B1BF0902C1B4091451B5091DF
:103DE000461B2091281B2F932091271B2F93DF9395
:103DF000CF934C010F2EF0E3AF2EB12CC12CD12C60
:103E0000F02D03E010E020E030E060EC82E00E9462
:103E100006040F900F900F900F90DF91CF911F919C
:103E20000F91FF90EF90DF90CF90BF90AF909F9059
:103E30008F90089581B1816881B90E94480980E01E
:103E40000E942C2A85E011D06091291B70912A1BB9
:103E500081E0C3D369C00895EDDF80E795E00E945B
:103E6000D92F4ADF0E946A16FFCFE7E4FBE122E484
:103E700036E23183208325E436E23383228320E552
:103E800036E23583248324E536E2378326832AE528
:103E900036E23187208726E636E2338722872BE613
:103EA00036E23587248727E736E23787268727E5F6
:103EB00036E2318B208B2CE736E2338B228B29E8DC
:103EC00036E2358B248B682FCF0153C108956530BE
:103ED000F1F4FA0180818F7390E0982F8827218177
:103EE000822B90930902809308028281F0E48F9FD5
:103EF000C0011124FA01238126952695822B9093E7
:103F000007028093060281E08093D61908956430F9
:103F100051F080E090E49093070280930602909322
:103F200009028093080208950F931F9307E61FE18B
:103F300020E034E244EF50E060E087E20E94662A2D
:103F40009093D8198093D71921E0892B09F020E0AC
:103F5000822F1F910F9108958091D6190895809115
:103F6000D7199091D819009759F040E060E070E0BF
:103F70000E94B72A843031F41092D61980E0089557
:103F800082E0089583E008958091D7199091D8191F
:103F9000009739F064E00E94032B853021F083E024
:103FA000089582E0089580E008956091080270917C
:103FB000090280E090E00E940D2D20E030E048EC06
:103FC00052E40E949B2D20E038EF4FE756E40C941A
:103FD000742C0895EADF20E030E040E251E40E94D2
:103FE0009B2D0E94E12CCB010895609106027091F7
:103FF000070280E090E00E940D2D20E030E045E2D5
:1040000053E40E949B2D20E038EF4FE756E40E94D6
:10401000742C20E030E040E252E40C940F2C089520
:10402000E4DF20E030E040E251E40E949B2D0E945A
:10403000DC2CCB010895CF93DF9390E0FC01EE0FD1
:10404000FF1FE80FF91FEE0FFF1FE752F64E238107
:1040500021110AC0EF01E0914F1BF091501B6A81C2
:1040600088819981199512C0DC01AA0FBB1FED014F
:10407000C80FD91FCC0FDD1FC752D64EE091591B78
:10408000F0915A1B6A81888199811995DF91CF91AE
:104090000895CF93DF9390E0FC01EE0FFF1FE80F30
:1040A000F91FEE0FFF1FE752F64E238121110AC0C0
:1040B000EF01E091591BF0915A1B6A818881998127
:1040C000199512C0DC01AA0FBB1FED01C80FD91F43
:1040D000CC0FDD1FC752D64EE0914F1BF091501B05
:1040E0006A81888199811995DF91CF9108950F2E6A
:1040F000F7E4CF2EFBE1DF2EF02D04E0C9EDD9E18E
:1041000010E08C81813069F0E8F0823039F5D60119
:104110001C96ED91FC911D976A8188819981199572
:104120001DC08D818F5F8A3010F48D8317C01D8272
:10413000D6011C96ED91FC911D976A818881998129
:1041400019950CC08D81882331F0812FA2DF8D81DC
:1041500081508D8303C00C83812F6DDF1F5F2696F6
:10416000143079F665E070E080E090E00E940B1872
:10417000C5CFCF92DF92EF92FF920F931F93CF9311
:10418000DF93062F0F2EF7E4EF2EFBE1FF2EF02D2D
:10419000D7011896ED91FC91199766E087E290E0BF
:1041A0001995C9EDD9E10F2EF8E2CF2ED12CF02DC3
:1041B000D982C88286E08A831B8214E01C8380E057
:1041C0003ADFD7011896ED91FC91199767E087E2E5
:1041D00090E01995DF82CE8287E0888719861A875A
:1041E00081E029DFD7011896ED91FC91199765E0E0
:1041F00083E390E01995D7011896ED91FC911997FA
:1042000061E084E390E0199584E390E09D878C87DA
:1042100085E08E871F86188B82E00DDFD701189608
:10422000ED91FC91199764E081E091E01995D70137
:104230001896ED91FC91199761E082E091E0199553
:1042400082E091E09B8B8A8B1C8B1D8A1E8B83E006
:10425000F2DEE12CF12C20E030E040EC50E062E8AE
:1042600075E087E790E20E944B15DF91CF911F9197
:104270000F91FF90EF90DF90CF9008950F931F93D1
:10428000CF93DF93C82FD0E08E01000F111FD8010C
:10429000AC0FBD1FAA0FBB1FA752B64EE091531B18
:1042A000F091541B12966C9112978D919C911995D7
:1042B000C00FD11FCC0FDD1FC752D64E81E08C83BB
:1042C000DF91CF911F910F9108950F931F93CF937B
:1042D000DF93C82FD0E08E01000F111FD801AC0F63
:1042E000BD1FAA0FBB1FA752B64EE091531BF09102
:1042F000541B12966C9112978D919C911995C00F39
:10430000D11FCC0FDD1FC752D64E82E08C83DF91C8
:10431000CF911F910F910895282F30E0F901EE0FF2
:10432000FF1FE20FF31FEE0FFF1FE752F64E93E061
:104330009483AFCE0895282F30E0F901EE0FFF1FD0
:10434000E20FF31FEE0FFF1FE752F64E94E0948347
:1043500072CE089590E0FC01EE0FFF1FDF01A80F61
:10436000B91FAA0FBB1FA752B64E24E015962C9377
:104370001597FD011482089590E0FC01EE0FFF1FD8
:10438000DF01A80FB91FAA0FBB1FA752B64E21E02D
:1043900015962C931597FD01148208950F931F9382
:1043A000CF93DF931F921F92CDB7DEB78C01198296
:1043B0002DC0E091551AEC3250F481E08E0F8093BD
:1043C000551AF0E0E957F54E8A81808302C01092B9
:1043D000551A8A818A30D1F44091551A50E0FA0179
:1043E000EB57F54E1082415051099E012F5F3F4F10
:1043F00067E87AE18091581A9091591A0E94C51382
:10440000898181110E94490D1092551ABE016E5F7B
:104410007F4FC8018FD5882361F20F900F90DF91F5
:10442000CF911F910F9108950F931F93CF93DF9317
:104430008C01EB018091581A9091591A0E94DC125C
:10444000B80181EF99E10E94A72F209779F0E1EF61
:10445000F9E101900020E9F7319780E290E0918343
:104460008083BE0181EF99E10E949C2FE1EFF9E189
:10447000DF010D900020E9F711978DE09AE0119689
:104480009C938E9312961C9201900020E9F731972D
:10449000E15FF941AE2F81EF99E1AC016A2F809184
:1044A0005A1A90915B1AF6D4811111C008E215E0F6
:1044B00020E030E04DE250E061EE7AE18091581A60
:1044C0009091591A0E94081481EE9AE102C080E08E
:1044D00090E0DF91CF911F910F9108952F923F921D
:1044E0004F925F926F927F928F929F92AF92BF9204
:1044F000CF92DF92EF92FF920F931F93CF93DF93B0
:104500005C01FC0101900020E9F731976F01C81AA6
:10451000D90A5C2C0F2EF3E28F2EF8E09F2EF02D9F
:10452000E12CF12C4C2C3701F40101811281E801BE
:1045300009900020E9F72197C01BD10B3C2EF9E030
:10454000CF16D10458F0F4012080FEE02F1206C0EF
:10455000B801C5010E94772F892B09F5442D351428
:1045600008F44C2F50E0B801C5010E94AE2F892BF2
:1045700049F4F301EE0FFF1FE60DF71DED5DF74F58
:1045800020800DC08FEFE81AF80AE3E08E0E911C30
:10459000F1E1EF16F10439F66894222424F8822D13
:1045A000DF91CF911F910F91FF90EF90DF90CF900F
:1045B000BF90AF909F908F907F906F905F904F9043
:1045C0003F902F90089530DF89CF08958091581A39
:1045D0009091591A0C94DC1208958F929F92AF9289
:1045E000CF92EF920F931F93CF93C82F8B0141E08F
:1045F00060E070E088EC90E00E94B0129093591A4D
:104600008093581A1093571A0093561A0F2EFEECE7
:104610008F2EF1E29F2EF02D6894AA24A6F86894BC
:10462000CC24C6F8E12C00E023E040E051EE60E04D
:1046300070E08C2F74D390935B1A80935A1AE09198
:104640004F1BF091501B64E087E091E01995CF91EA
:104650001F910F91EF90CF90AF909F908F90089502
:10466000882349F0E091591BF0915A1B64E088E0DF
:1046700091E019950895E0914F1BF091501B64E073
:1046800088E091E01995089560E070E089EA95E08E
:10469000CBDEE1EEFAE101900020E9F73197E15E2F
:1046A000FA4181E0759708F080E00895CF93DF9399
:1046B000EC0160E070E08AEB95E0B6DEE1EEFAE155
:1046C00001900020E9F7E25FFA4139F461EE7AE106
:1046D000CE010E94A72F80E002C0188281E0DF9106
:1046E000CF910895FC0101900020E9F79F0121512D
:1046F00031092817390729F4BC0188EE95E063CF0A
:10470000089589E00895FC0101900020E9F79F01D8
:10471000215131092817390729F4BC0187EF95E0A9
:1047200052CF089589E00895FC0101900020E9F737
:104730009F01215231092817390729F4BC0186E06D
:1047400096E041CF089589E0089560E070E085E447
:1047500096E039CF08950F931F93E82FF0E0EE0F06
:10476000FF1FE15EF74F608171818EE496E02BDFE1
:10477000811114C008E215E020E030E04DE250E085
:1047800061EE7AE18091581A9091591A0E940814AA
:10479000882321F081EE9AE1A1DE03C081EE9AE147
:1047A0009DDE1F910F9108950F931F93CF93DF9379
:1047B0001F92CDB7DEB7DB0111969C911197953111
:1047C00008F0B4C0992381F160E070E0272F30E059
:1047D000462F50E0FD01E40FF51F928192959F70E6
:1047E0009A3010F0995C01C0905DF901EE58F54ED9
:1047F00090832F5F3F4FFD01E40FF51F92819F7063
:10480000492F50E04A30510514F0995C01C0905D89
:10481000F901EE58F54E90837E5F6F5F11969C9183
:104820001197691798F201C070E0E72FF0E0EE5899
:10483000F54E10824C91811103C087E596E002C0CD
:1048400089E596E022E73AE13F932F931F924F9339
:104850009F938F938DE596E09F938F9384EB9AE1DE
:104860009F938F930E94093060E070E084EB9AE19F
:10487000AADE0FB6F894DEBF0FBECDBF811159C0BE
:1048800008E215E020E030E04DE250E061EE7AE130
:104890008091581A9091591A0E940814882309F49B
:1048A00047C081EE9AE11ADE8E3009F042C087E0FF
:1048B00089838091561A9091571A892BA9F1BE01CC
:1048C0006F5F7F4F81EE9AE168D180935C1AE98136
:1048D000F0E0EF51F54EDF010D900020E9F7119760
:1048E000AE1BBF0BAA2391F0BB27CD0101979C0102
:1048F00012F42F5F3F4F3595279520935D1AAF0136
:104900004F5F5F4F64E18EE59AE173D101E010E003
:1049100020E030E046E150E06CE57AE18091561A03
:104920009091571A0E941B138EE003C084E101C0CE
:1049300080E00F90DF91CF911F910F91089581300A
:1049400019F06DE676E002C066E477E081E796E074
:104950003ACE08959F938F9382EA96E09F938F9328
:1049600084EB9AE19F938F930E94093060E070E09E
:1049700084EB9AE128DE0F900F900F900F900F902C
:104980000F9008952F923F924F925F926F927F9275
:104990008F929F92AF92BF92CF92DF92EF92FF924F
:1049A0000F931F93CF93DF93CDB7DEB7A0970FB6CA
:1049B000F894DEBF0FBECDBF6FEC76E08BED96E0D6
:1049C00033DD8CDD8111A3C080E2E1E2F2E0DE01A3
:1049D000119601900D928A95E1F79E012F5F3F4F4E
:1049E0006901E12CF12C0F2EF7EEAF2EF6E0BF2E71
:1049F000F02D04EB1AE10F2EF0E04F2EF7E05F2EC2
:104A0000F02D0F2EF7E18F2EF7E09F2EF02D0F2EB9
:104A1000F1E36F2EF7E07F2EF02D3E2C2F2CFF922E
:104A2000EF92BF92AF921F930F930E94093060E004
:104A300070E0C801F9DC52DD0F900F900F900F90DD
:104A40000F900F90811163C032E03E15E8F4F6013B
:104A500083818F9382818F9381818F9380818F93C4
:104A6000FF92EF925F924F921F930F930E94093033
:104A700060E070E0C801D8DC31DD0FB6F894DEBF2D
:104A80000FBECDBF811143C02F923F929F928F9254
:104A90001F930F930E94093060E070E0C801C4DCEE
:104AA0001DDD0F900F900F900F900F900F908111C0
:104AB0002EC02F923F927F926F921F930F930E946E
:104AC000093060E070E0C801AFDC08DD0F900F90A6
:104AD0000F900F900F900F90811119C03FEFE31AC4
:104AE000F30A84E0C80ED11C98E0E916F10409F03D
:104AF00094CF60E070E089E497E096DCEFDC811110
:104B000006C060E070E08AE597E08EDCE7DCA09606
:104B10000FB6F894DEBF0FBECDBFDF91CF911F91CE
:104B20000F91FF90EF90DF90CF90BF90AF909F904C
:104B30008F907F906F905F904F903F902F9008954F
:104B4000EF92FF920F931F93CF93DF93EC018B01B2
:104B50007A0181E0F4DE81110DC0CE01D4DD811136
:104B600009C0C801E1DD811105C0C701BBDD8111AC
:104B700001C0EBDDDF91CF911F910F91FF90EF907E
:104B8000089590E0FC01EE0FFF1F8E0F9F1FFC01A8
:104B9000ED5DF74F818192810895DC01009729F145
:104BA000FB012081FC0101900020E9F73197E81B0F
:104BB000F90B822F90E0E817F907C8F080E008C0F1
:104BC000880F382F330F330F830F8053890F2F5FD8
:104BD000FD01E20FF11D908130ED390F3A3010F4F4
:104BE0009111EECFFB012083089580E0089580E0CD
:104BF00008950F931F93CF93DF93DC01EA01209771
:104C0000E1F1FA0101900020E9F73197E41BF50B7F
:104C1000329710F532C08D01040F151F30E0AE0140
:104C2000420F531FFA019081913428F09753592F66
:104C30005295507F03C0592F5295507F2C0F3D1F26
:104C4000F9019181913410F0975301C09053950F61
:104C5000F80190838F5F01C080E0282F220F482F3A
:104C600050E0FE0101900020E9F73197EC1BFD0BAD
:104C70004E175F0710F48613CECFDF91CF911F91AF
:104C80000F910895FC0180810895FC01208181E04D
:104C900090E002C0880F991F6A95E2F78223089579
:104CA000FC01808186230895FC0160830895FC0146
:104CB00010820895FC01408121E030E002C0220F03
:104CC000331F6A95E2F7242B20830895FC0120818D
:104CD000622B60830895FC01408121E030E002C036
:104CE000220F331F6A95E2F7242720830895FC01E1
:104CF0002081622760830895FC01908121E030E0EB
:104D000002C0220F331F6A95E2F7209529232083E2
:104D10000895FC01908160956923608308952F9226
:104D20003F924F925F926F927F928F929F92AF923B
:104D3000CF92EF92FF920F931F93CF93DF93CDB754
:104D4000DEB7F82E2A013B0188E090E09BD78C016A
:104D50008F2D90E0880F991FFC01E25FF44E1183C4
:104D60000083FC01E65FFD4F80819181D8018D9326
:104D70009C936C2D70E084E090E06AD71C0161E0A8
:104D800070E086E090E064D77C014C2DB1012BD51A
:104D9000F801F582E4826A2D70E084E090E058D753
:104DA0001C0161E070E086E090E052D77C014A2D62
:104DB000B10119D5D8011396FC92EE92129717966D
:104DC0009C928E921697FFB6F894ED91FC911197F4
:104DD00036978081826080838D909C90C301B20160
:104DE0001CD620E030E040E051E4A5D69B01AC01A8
:104DF00060E074E284E79BE477D520E030E040E8AF
:104E00005FE30DD5DED5F40132976083D801ED91D3
:104E1000FC911197359788E98083ED91FC91349747
:104E200086E08083FFBEC801DF91CF911F910F9173
:104E3000FF90EF90CF90AF909F908F907F906F906A
:104E40005F904F903F902F900895CF93DF93EC01A8
:104E5000EA81FB81938182812581981B9223848141
:104E60009817A1F0938126952923A081B181A20FE3
:104E7000B11D6C939F5F258192239383E881F98113
:104E8000359780818062808380E001C082E0DF917D
:104E9000CF910895EF92FF920F931F93CF93DF93DB
:104EA0007C01DC011296ED91FC9113979381828134
:104EB000981B858198238481891B861798F1662326
:104EC00041F1842F952FDC016150462F50E04F5F58
:104ED0005F4F480F591FE701EA81FB81938182816F
:104EE0002581981B92238481981779F08C91938166
:104EF00026952923608171818B01020F111DE80124
:104F000088839F5F8581982393831196A417B507A3
:104F100011F7D701ED91FC913597808180628083F4
:104F200080E001C082E0DF91CF911F910F91FF904F
:104F3000EF900895DC011496ED91FC911597938103
:104F40008281981789F09281858186958923A08135
:104F5000B181A80FB11D8C91DB018C939F5F85817E
:104F60009823928380E0089583E008951F920F9222
:104F70000FB60F9211240BB60F922F933F934F93BE
:104F80005F936F937F938F939F93AF93BF93CF93D1
:104F9000DF93EF93FF93A0910E1BB0910F1B10971F
:104FA00011F16091C6001496ED91FC9115979381D3
:104FB00082812581981B92238481981761F08381D7
:104FC00026952823C081D181C20FD11D68838F5FB0
:104FD0009581892383831696ED91FC9117973097DD
:104FE00011F0CD011995FF91EF91DF91CF91BF9114
:104FF000AF919F918F917F916F915F914F913F9171
:105000002F910F900BBE0F900FBE0F901F90189511
:105010001F920F920FB60F9211240BB60F922F937F
:105020008F939F93AF93BF93EF93FF93E0910E1BEA
:10503000F0910F1B3097B9F00280F381E02D93813E
:1050400082819817B1F092818581282F2695292396
:10505000A081B181A20FB11D2C919F5F8923828312
:105060002093C6000BC0E1ECF0E080818F7D80834F
:1050700005C0E1ECF0E080818F7D8083FF91EF91AE
:10508000BF91AF919F918F912F910F900BBE0F9079
:105090000FBE0F901F9018951F920F920FB60F9290
:1050A00011240BB60F922F933F934F935F936F93FF
:1050B0007F938F939F93AF93BF93CF93DF93EF93A0
:1050C000FF93A091101BB091111B109711F16091EB
:1050D000CE001496ED91FC911597938182812581E4
:1050E000981B92238481981761F083812695282349
:1050F000C081D181C20FD11D68838F5F95818923C3
:1051000083831696ED91FC911797309711F0CD019E
:105110001995FF91EF91DF91CF91BF91AF919F9141
:105120008F917F916F915F914F913F912F910F9050
:105130000BBE0F900FBE0F901F9018951F920F92ED
:105140000FB60F9211240BB60F922F938F939F934C
:10515000AF93BF93EF93FF93E091101BF091111B5E
:105160003097B9F00280F381E02D93818281981706
:10517000B1F092818581282F26952923A081B181C4
:10518000A20FB11D2C919F5F892382832093CE00B3
:105190000BC0E9ECF0E080818F7D808305C0E9ECF5
:1051A000F0E080818F7D8083FF91EF91BF91AF917F
:1051B0009F918F912F910F900BBE0F900FBE0F906C
:1051C0001F9018951F920F920FB60F9211240BB6D5
:1051D0000F922F933F934F935F936F937F938F9390
:1051E0009F93AF93BF93CF93DF93EF93FF93A091E0
:1051F000121BB091131B109711F16091D6001496F9
:10520000ED91FC911597938182812581981B9223C2
:105210008481981761F0838126952823C081D181EC
:10522000C20FD11D68838F5F958189238383169672
:10523000ED91FC911797309711F0CD011995FF91E1
:10524000EF91DF91CF91BF91AF919F918F917F911E
:105250006F915F914F913F912F910F900BBE0F90E7
:105260000FBE0F901F9018951F920F920FB60F92BE
:1052700011240BB60F922F938F939F93AF93BF93ED
:10528000EF93FF93E091121BF091131B3097B9F04D
:105290000280F381E02D938182819817B1F0928191
:1052A0008581282F26952923A081B181A20FB11DC8
:1052B0002C919F5F892382832093D6000BC0E1ED60
:1052C000F0E080818F7D808305C0E1EDF0E080819A
:1052D0008F7D8083FF91EF91BF91AF919F918F91CF
:1052E0002F910F900BBE0F900FBE0F901F9018952F
:1052F0001F920F920FB60F9211240BB60F922F939D
:105300003F934F935F936F937F938F939F93AF934D
:10531000BF93CF93DF93EF93FF93A091141BB091B2
:10532000151B109711F1609136011496ED91FC91C7
:105330001597938182812581981B922384819817E8
:1053400061F0838126952823C081D181C20FD11DB0
:1053500068838F5F9581892383831696ED91FC91F5
:105360001797309711F0CD011995FF91EF91DF91CB
:10537000CF91BF91AF919F918F917F916F915F91ED
:105380004F913F912F910F900BBE0F900FBE0F903A
:105390001F9018951F920F920FB60F9211240BB603
:1053A0000F922F938F939F93AF93BF93EF93FF939E
:1053B000E091141BF091151B3097B9F00280F38136
:1053C000E02D938182819817B1F092818581282FF9
:1053D00026952923A081B181A20FB11D2C919F5F39
:1053E00089238283209336010BC0E1E3F1E08081C1
:1053F0008F7D808305C0E1E3F1E080818F7D808334
:10540000FF91EF91BF91AF919F918F912F910F904D
:105410000BBE0F900FBE0F901F901895CF93DF9388
:105420001F92CDB7DEB7BE016F5F7F4F8091161B15
:105430009091171B7FDD8111F6CF898190E00F904D
:10544000DF91CF910895682F8091161B9091171BC3
:10545000FCDC80E090E008958F929F92AF92CF9213
:10546000EF920F93812C912C6894AA24A7F868944A
:10547000CC24C7F8E12C00E023E040E051EE60E0EE
:1054800070E04DDC9093171B8093161BE1E6FBE167
:1054900082E192E091838083938382830F91EF90E6
:1054A000CF90AF909F908F9008958091261B81118F
:1054B0000CC08CE08093B8008FEF8093BB0084E039
:1054C0008093BC0081E08093261B0895AF92BF9229
:1054D000CF92DF92EF92FF920F931F93CF93DF93C0
:1054E000A82EB62E69017A0184E090E0CBD3EC01BE
:1054F000892B61F1A88281E0B81212C0C701B60100
:1055000020EA36E841E050E079D3DA01C90140975A
:10551000A109B109B695A79597958795898311C07B
:10552000C701B60120E83AE146E050E067D3DA016E
:10553000C9014097A109B109B695A7959795879597
:1055400089831B830A838C2F9D2F02C080E090E00B
:10555000DF91CF911F910F91FF90EF90DF90CF904F
:10556000BF90AF9008958091BC0081700895FF9224
:105570000F931F93CF93DF930097D1F14A30D0F56B
:10558000F42E8B01EC01EFDF811136C08091191BE5
:1055900090911A1BC817D90741F087DF8981809342
:1055A000B800D0931A1BC093191B81E08F0D809314
:1055B0001B1B8881880F80931C1BFF2089F0F8013A
:1055C000ADE1BBE14FEF4F0D642F70E0CB010196D1
:1055D000B801680F791F81918D93E617F707D9F706
:1055E00088EF8093200285EA8093BC0084E005C0A8
:1055F00086E003C087E001C082E0DF91CF911F9178
:105600000F91FF9008951F93CF93DF93009729F197
:105610006B3028F5162FEC01A6DF811122C0809196
:10562000191B90911A1BC817D90741F03EDF8981D9
:105630008093B800D0931A1BC093191B10931B1BA7
:105640008881880F816080931C1B88EF80932002E3
:1056500085EA8093BC0085E005C086E003C087E052
:1056600001C082E0DF91CF911F9108951F920F92A8
:105670000FB60F9211240BB60F922F933F934F93B7
:105680005F936F937F938F939F93AF93BF93EF93AA
:10569000FF93E091B9008E2F90E0FC013897E1353F
:1056A000F10508F075C08827E458FF4F8F4FC8C236
:1056B0001092181BE091181B80911B1BE81770F4C7
:1056C00081E08E0F8093181BF0E0E45EF44E808141
:1056D0008093BB0085E88093BC0072C084E980930E
:1056E000BC008091191B90911A1BDC011296ED9160
:1056F000FC911397309709F463C020E040E050E03C
:1057000064E019955DC0E091181B81E08E0F8093D5
:10571000181B8091BB00F0E0E45EF44E8083809122
:10572000B900803411F41092181B2091181B30E03E
:1057300080911B1B90E001972817390724F485EC12
:105740008093BC003DC085E88093BC0039C0809147
:10575000BB00E091181BF0E0E45EF44E808384E926
:105760008093BC008091191B90911A1BDC0112964A
:10577000ED91FC911397309719F120911B1B4CE18F
:105780005BE165E019951CC085EA8093BC0018C0F8
:105790008091B9008093200284E08093BC008091C6
:1057A000191B90911A1BDC011296ED91FC91139735
:1057B000309731F020E040E050E0609120021995F0
:1057C000FF91EF91BF91AF919F918F917F916F91D9
:1057D0005F914F913F912F910F900BBE0F900FBE95
:1057E0000F901F901895FC01411101C06CD3842FBC
:1057F00090E09C012150310982239323892B09F0E9
:1058000062D3413808F05FD3128213824483440F7D
:10581000415045837183608380E090E00895505843
:10582000BB27AA270ED04DC13ED130F043D120F086
:1058300031F49F3F11F41EF433C10EF4E095E7FB01
:1058400029C1E92F4FD180F3BA1762077307840784
:10585000950718F071F49EF567C10EF4E0950B2ED4
:10586000BA2FA02D0B01B90190010C01CA01A001B2
:105870001124FF27591B99F0593F50F4503E68F10D
:105880001A16F040A22F232F342F4427585FF3CF4E
:10589000469537952795A795F0405395C9F77EF41F
:1058A0001F16BA0B620B730B840BBAF09150A1F068
:1058B000FF0FBB1F661F771F881FC2F70EC0BA0FEE
:1058C000621F731F841F48F4879577956795B79576
:1058D000F7959E3F08F0B3CF9395880F08F099276E
:1058E000EE0F9795879508950CD0EBC0E3D040F06C
:1058F000DAD030F021F45F3F19F0CCC0511115C15E
:10590000CFC0F0D098F39923C9F35523B1F3951B79
:10591000550BBB27AA2762177307840738F09F5FD0
:105920005F4F220F331F441FAA1FA9F333D00E2E3F
:105930003AF0E0E830D091505040E695001CCAF7AC
:1059400029D0FE2F27D0660F771F881FBB1F261771
:1059500037074807AB07B0E809F0BB0B802DBF0144
:10596000FF2793585F4F2AF09E3F510568F092C081
:10597000DCC05F3FECF3983EDCF386957795679546
:10598000B795F7959F5FC9F7880F911D96958795F5
:1059900097F90895E1E0660F771F881FBB1F621714
:1059A00073078407BA0720F0621B730B840BBA0BD2
:1059B000EE1F88F7E095089504D06894B111B5C042
:1059C000089598D088F09F5790F0B92F9927B75134
:1059D000A0F0D1F0660F771F881F991F1AF0BA95B3
:1059E000C9F712C0B13081F09FD0B1E008959CC0DA
:1059F000672F782F8827B85F39F0B93FCCF38695A9
:105A000077956795B395D9F73EF490958095709505
:105A100061957F4F8F4F9F4F0895E89409C097FB82
:105A20003EF490958095709561957F4F8F4F9F4F75
:105A30009923A9F0F92F96E9BB279395F6958795B9
:105A400077956795B795F111F8CFFAF4BB0F11F47C
:105A500060FF1BC06F5F7F4F8F4F9F4F16C0882323
:105A600011F096E911C0772321F09EE8872F762F59
:105A700005C0662371F096E8862F70E060E02AF09A
:105A80009A95660F771F881FDAF7880F9695879586
:105A900097F9089597F99F6780E870E060E00895AE
:105AA0009FEF80EC089500240A9416161706180636
:105AB0000906089500240A94121613061406050612
:105AC0000895092E0394000C11F4882352F0BB0FA3
:105AD00040F4BF2B11F460FF04C06F5F7F4F8F4F06
