:100000004FC200006EC200006CC200006AC2000055
:1000100068C2000066C2000064C2000062C2000044
:1000200060C200005EC200005CC200005AC2000054
:100030000C940A0C56C2000054C2000052C20000C8
:1000400050C200004EC200004CC200004AC2000074
:1000500048C2000046C2000044C2000042C2000084
:1000600040C200000C9404210C9456213AC20000B6
:1000700038C2000036C2000034C2000032C20000A4
:1000800030C200002EC200002CC200002AC20000B4
:100090000C949A210C94EC2124C200000C9484242A
:1000A00020C200001EC200001CC200001AC20000D4
:1000B00018C2000016C2000014C2000012C20000E4
:1000C00010C200000EC200000CC200000C943022CE
:1000D0000C94822206C200000C94C6220C941823B1
:1000E00000C20000C601C601C601000208021E02CD
:1000F000C601C60100020802A624162516251625EB
:100100001625162516251625A62416251625162588
:100110001625162516251625A82416251625162576
:1001200016251625162516251625162516251625F7
:100130001625162516251625A82416251625162556
:1001400016251625162516251625162516251625D7
:1001500016251625162516251225162516251625CB
:100160001625162516251625DD24162516251625F1
:1001700016251625162516251625162516251625A7
:100180001625162516251625D124162516251625DD
:100190001625162516251625F52404ED13E10F2E38
:1001A000F4E0EF2EF4E1FF2EF02D8091D31388239D
:1001B00029F10FB6F8940F92D8011796ED91FC91A2
:1001C0001897C085D185CE0102960E94700A809151
:1001D000C71381508093C7138091D31381508093AC
:1001E000D3130F900FBE8B8D9C8D0E94CC09CE0136
:1001F0000E94CC098091D3138111DBCFF70180815C
:10020000823010F00E94450B0E942F1BCECFCF935F
:10021000DF93CDB7DEB760970FB6F894DEBF0FBEA1
:10022000CDBFCE0101969A878987812C912CA12C74
:10023000B12C69847A84E0913C14F0913D14808162
:10024000882309F413C10780F085E02D20803180D8
:10025000428053800E947413CE0101960E94991A25
:100260006B877C878D879E878981811167C08B858D
:100270009C85AD85BE8582159305A405B50508F45A
:1002800045C00E945D14E0913C14F0913D1407803C
:10029000F085E02DA085B185B88BAF87CD010296A2
:1002A0000E94700AEF85F889878982FF21C0468500
:1002B000578560897189420D531D641D751D72013A
:1002C00061010B851C852D853E85CF010E94A819F3
:1002D000882399F0C82CD92CEA2CFB2C00E010E0E4
:1002E000A201910160E08F8598890E943B1A05C0A8
:1002F0008E7FAF85B88957968C93AF85B889549611
:10030000ED91FC915597CD011995A1C020E0B20166
:10031000A1018B859C85AD85BE85481B590B6A0B59
:100320007B0B80913814909139140E949D0F0E948C
:100330005D1481118CC00E94450B89C00E945D1420
:1003400086C0898188230CF482C04E805F80D201F0
:100350001C968D919C911D97892B21F0C2010296CC
:100360000E94700ACE0108960E94991A8B019C0186
:10037000E9810E2E000CFF0BEA30F10508F067C092
:100380008827EE58FF4F8F4F0C948127F201878901
:100390008160878BCA80DB80EC80FD804685578535
:1003A000608971894C0D5D1D6E1D7F1DC2010E940B
:1003B000A819882309F44BC0D2015496ED91FC9101
:1003C0005597C2011995F201878982FF40C04A8181
:1003D0005B816C817D8186859785A089B1899A0131
:1003E000AB01280F391F4A1F5B1FC82CD92CEA2CE0
:1003F000FB2C00E010E060E0C2010E943B1A27C025
:10040000D20157968C9157978E7F57968C931FC029
:10041000F20187898160878B4A815B816C817D8154
:1004200046875787608B718B400F511F621F731F68
:1004300068017901C2010E94A81909C0F2018789E7
:1004400081FD03C0C201A8D702C08E7F878B282DF3
:10045000392D4A2D5B2D662D772D80913814909182
:1004600039140E94400E81116CCFE5CE0E947413A6
:10047000CE0101960E94991A6B877C878D879E8793
:10048000898181115BCFE0913A14F0913B14808116
:1004900021E0811120E0282C392C4A2C5B2C37CF0D
:1004A00011241FBECFEFD1E2DEBFCDBF00E00CBFF5
:1004B00013E0A0E0B2E0ECEDF8E500E00BBF02C015
:1004C00007900D92AC3BB107D9F725E1ACEBB3E057
:1004D00001C01D92AB30B207E1F70E940C1C0C94D6
:1004E0006C2C8ECDFC010FB6F894609107157091BD
:1004F00008158091091590910A150FBE309721F0CB
:10050000608371838283938308959093BD03809366
:10051000BC0308952F923F924F925F926F927F9209
:100520008F929F92AF92BF92CF92DF92EF92FF9203
:100530000F931F93CF93DF93882E962E1A012801D5
:100540003901870164E070E081E090E00E949D271E
:10055000EC01009779F1FC01119211927F01309228
:10056000C9032092C8034092C4035092C50360920D
:10057000C6037092C7031093C3030093C203A092F3
:10058000BE03B092BF03C092C003D092C10365E81E
:1005900072E083E00E944C1F492D50E0082D9E011F
:1005A00062E572E081E593E00E941A128CE592E028
:1005B0000E945429CE01DF91CF911F910F91FF909E
:1005C000EF90DF90CF90BF90AF909F908F907F90F3
:1005D0006F905F904F903F902F900895CF92DF9251
:1005E000EF92FF920F931F93CF93DF93EC01409113
:1005F000C4035091C5036091C6037091C703CC2416
:10060000CA94DC2C760101E021E08091C80390912E
:10061000C90363D40091C4031091C5032091C6039C
:100620003091C703DC01CB0180239123A223B323A4
:10063000081719072A073B0759F50E947A1F1F92CE
:100640008F9383E692E09F938F930E94412966E007
:1006500070E080E090E00E94D9148091BC039091FA
:10066000BD03998388834091BE035091BF0360917D
:10067000C0037091C1038091C2039091C303EDD474
:1006800081E892E00E9454290F900F900F900F90F4
:10069000DF91CF911F910F91FF90EF90DF90CF905E
:1006A0000895EC01CE019ADFFDCFFC01808191819C
:1006B000089521E02093CD031092CC039093CB03B7
:1006C0008093CA0308950F93CF93DF932091CA03B9
:1006D0003091CB0321153105B9F0EC014FEF5FEFFD
:1006E000BA01C9010E94D50E8091CD03888300E034
:1006F00020E030E0A90160E070E08091CA039091B1
:10070000CB030E944E0D04C02091CD03FC01208339
:10071000DF91CF910F9108950F93CF93DF932091A5
:10072000CA033091CB0321153105B9F0EC014FEF2D
:100730005FEFBA01C9010E94D50E8091CC03888376
:1007400000E020E030E0A90160E070E08091CA03A1
:100750009091CB030E944E0D04C02091CC03FC016C
:100760002083DF91CF910F91089568E070E081E0E0
:1007700090E00E949D27009749F0FC0113821282AD
:1007800015821482118210821782168208950097B2
:1007900019F0FC01718360830895009719F0FC0142
:1007A000758364830895009719F0FC017383628355
:1007B0000895009719F0FC01778366830895FC0182
:1007C000DB0112966C91129713967C9113971496F5
:1007D0004C91149715965C9115972C9111963C911C
:1007E000119716968C91169717969C91A1E0A0836D
:1007F000A8E0A18372836383548345833683278370
:1008000090878187CF0108952F923F924F925F92F8
:100810006F927F928F929F92AF92BF92CF92DF9210
:10082000EF92FF920F931F93CF93DF9300D01F920D
:10083000CDB7DEB7282E362E5C834B8328013901D5
:100840006AE070E081E090E00E949D279A838983AE
:10085000009709F442C0FC01918280828A8D9B8DB1
:10086000938382838C8D9D8D958384837EDFE98144
:10087000FA81978386838B819C819093F103809387
:10088000F0034092EC035092ED036092EE037092FD
:10089000EF03F092EB03E092EA03A092E603B0923A
:1008A000E703C092E803D092E9038E8D9F8D909369
:1008B000E5038093E403432D50E07F0198E0E90EC7
:1008C000F11C022D9F0162E972E082EA95E00E942C
:1008D0001A1289E992E00E94542989819A810F9025
:1008E0000F900F900F90DF91CF911F910F91FF907C
:1008F000EF90DF90CF90BF90AF909F908F907F90C0
:100900006F905F904F903F902F900895FC018681EB
:10091000978143CF0895FC0182819381009711F064
:10092000E6C108958FEF9FEF0895FC0186819781BE
:100930002ECF0895FC0180819181009711F0B5CEF2
:1009400008958FEF9FEF0895FC018681978131CF45
:100950000895FC0184819581009711F097C2089554
:100960008FEF9FEF0895FC01868197811CCF08953A
:10097000FC0182819381009711F0BDC108958FEF32
:100980009FEF0895AF92BF92CF92DF92EF92FF92C6
:100990000F931F93CF93DF93CDB7DEB766970FB654
:1009A000F894DEBF0FBECDBF5C0181E090E03BD488
:1009B0008C0189DEF8018081882309F4ACC081E0D4
:1009C00090E031D48C01A8DEF8018081882311F0F9
:1009D00099D101C09CD14091EC035091ED036091FD
:1009E000EE037091EF038091F0039091F10335D302
:1009F00083EA92E00E9454294091E6035091E70374
:100A00006091E8037091E903CC24CA94DC2C760150
:100A100001E021E08091EA039091EB035ED2009126
:100A2000E6031091E7032091E8033091E903DC012C
:100A3000CB0180239123A223B323081719072A0788
:100A40003B0709F06EC0C50175DFBC01C5016DDF54
:100A5000C5017FDFBC01C50177DFC50189DFBC01AE
:100A6000C50181DFC50157DFBC01C5014FDF87EB41
:100A700092E00E945429C5015DDF9F938F938BEC18
:100A800092E09F938F930E944129C50171DF9F934C
:100A90008F9387ED92E09F938F930E944129C50128
:100AA0003ADF9F938F938BEE92E09F938F930E94F8
:100AB0004129C5014EDF9F938F938CEF92E09F9366
:100AC0008F930E944129F50166817781CE010196BD
:100AD00076DE86E1FE013196AEECB3E001900D9238
:100AE0008A95E1F768EE73E080E090E00E94D91407
:100AF0000FEF1FEF980146E150E06EEC73E080913C
:100B0000E4039091E5030E9492100FB6F894DEBFC3
:100B10000FBECDBF06C068E873E180E090E00E94A0
:100B2000D91466960FB6F894DEBF0FBECDBFDF9125
:100B3000CF911F910F91FF90EF90DF90CF90BF90DA
:100B4000AF900895EC01CE011DDFFDCF2F923F92B3
:100B50004F925F926F927F928F929F92AF92BF92CD
:100B6000CF92DF92EF92FF920F931F93CF93DF9379
:100B7000882E962E1A012801390166E070E081E086
:100B800090E00E949D27EC01009771F11982188274
:100B90001B821A823092FD032092FC034092F803DC
:100BA0005092F9036092FA037092FB03F092F703FC
:100BB000E092F603A092F203B092F303C092F40322
:100BC000D092F503492D50E07C0184E0E80EF11C41
:100BD000082D9E016AE073E083E796E00E941A12F6
:100BE0008BE193E00E945429CE01DF91CF911F91B8
:100BF0000F91FF90EF90DF90CF90BF90AF909F90BC
:100C00008F907F906F905F904F903F902F900895BE
:100C1000CF92DF92EF92FF920F931F93CF93DF93C8
:100C2000EC014091F8035091F9036091FA0370913F
:100C3000FB03CC24CA94DC2C760101E021E08091F6
:100C4000FC039091FD0349D10091F8031091F90341
:100C50002091FA033091FB03DC01CB018023912327
:100C6000A223B323081719072A073B0799F50E9407
:100C70008E1C62E370E080E090E00E94D9140E9434
:100C8000A21C65E070E080E090E00E94D9140E9410
:100C90008B1C882361F00E94C71C998388830E9463
:100CA000ED1C9B838A838AE393E00E94542968E8C1
:100CB00073E180E090E00E94D9144091F2035091DA
:100CC000F3036091F4037091F5038091F603909122
:100CD000F703C3D1DF91CF911F910F91FF90EF9058
:100CE000DF90CF900895EC01CE0192DFFDCFFC01A3
:100CF000808191810895FC018281938108950C94F3
:100D0000C11F089564E680E00C94A91F08956CE962
:100D100080E00C94A91F08952F923F924F925F920A
:100D20006F927F928F929F92AF92BF92CF92DF92FB
:100D3000EF92FF920F931F93CF93DF93882E962EFF
:100D40001A012801390164E070E081E090E00E941E
:100D50009D27EC01009751F1FC0111921192309204
:100D60000904209208044092040450920504609201
:100D7000060470920704F0920304E0920204A09229
:100D8000FE03B092FF03C0920004D0920104492DEB
:100D900050E07F01082D9C0160E673E082E497E05B
:100DA0000E941A128CE693E00E945429CE01DF9132
:100DB000CF911F910F91FF90EF90DF90CF90BF9058
:100DC000AF909F908F907F906F905F904F903F90EB
:100DD0002F900895CF92DF92EF92FF920F931F937F
:100DE000CF93DF93EC01409104045091050460918E
:100DF000060470910704CC24CA94DC2C760101E02F
:100E000021E0809108049091090467D000910404C6
:100E1000109105042091060430910704DC01CB01F8
:100E200080239123A223B323081719072A073B071E
:100E300001F580E090E056DBCB010E9422290E9460
:100E40001F2969E670E00E944C270F9699838883DA
:100E50004091FE035091FF036091000470910104E2
:100E60008091020490910304F8D08BE793E00E94F4
:100E70005429DF91CF911F910F91FF90EF90DF9058
:100E8000CF900895EC01CE01A5DFFDCFFC0180815C
:100E900091810895E8E0F1E09081907F90839081C6
:100EA0008F70982B90830895E8E0F1E08081807F37
:100EB00080830895CF93DF9380E190E0B4D1EC017B
:100EC000009739F0FC011192119211921192CF0109
:100ED00094D2CE01DF91CF9108952F923F924F92FD
:100EE0005F926F927F928F929F92AF92BF92CF92BA
:100EF000DF92EF92FF920F931F93CF93DF93EC015A
:100F00004A015B01622E702E0E9474132880398082
:100F10004A805B8001110DC081E0B201A10148212E
:100F200059216A217B21452B462B472B79F480E000
:100F30000DC081E0B201A101482159216A217B2124
:100F4000481559056A057B0509F080E0882381F082
:100F5000662009F46BC080949094A094B094822091
:100F60009320A420B52088829982AA82BB825EC089
:100F7000C114D104E104F10409F458C0662029F039
:100F800040E050E060E071E003C040E050E0BA01B2
:100F900071107460482959296A297B2997018601B3
:100FA000CE0104960E9488150E945D14811101C033
:100FB0006CD30E94CF1791FD35C00FB6F8940F92F5
:100FC000688179818A819B8171100DC021E0750152
:100FD0006401C622D722E822F922CD28CE28CF28C4
:100FE00079F420E00DC021E075016401C622D7220A
:100FF000E822F922C814D904EA04FB0409F020E02D
:10100000222371F0662061F080949094A094B094B3
:1010100086229722A822B92288829982AA82BB823C
:101020000F900FBE1B012C01552402C00E945D14BD
:10103000C201B101DF91CF911F910F91FF90EF900D
:10104000DF90CF90BF90AF909F908F907F906F90E8
:101050005F904F903F902F9008954F925F926F92C4
:101060007F928F929F92AF92BF92CF92DF92EF9238
:10107000FF920F931F93CF93DF93EC016A017B01E3
:101080008C01095F1F4F0E947413EB85FC858881DA
:101090009981AA81BB81C82AD92AEA2AFB2AC88257
:1010A000D982EA82FB820E171F0709F445C0C12CC2
:1010B000D12C760199249394812CA480B5808081D1
:1010C0009181A281B381AC01BD017727B2FD0FC030
:1010D000488059806A807B8044225522662277228C
:1010E000292D45284628472889F4282D0FC04880F7
:1010F00059806A807B804422552266227722292DDE
:10110000441655066606770609F0282D222371F04D
:10111000B0FF04C0C42AD52AE62AF72A488159819B
:101120006A817B817260CF010E940E16EA2DFB2D31
:101130000E171F0711F603C0C12CD12C7601C094E5
:10114000D094E094F09488819981AA81BB81C822CF
:10115000D922EA22FB22C882D982EA82FB820E943B
:101160005D14688179818A819B81DF91CF911F9184
:101170000F91FF90EF90DF90CF90BF90AF909F9036
:101180008F907F906F905F904F900895CF93DF93F3
:10119000DC01E2E1F4E001C0F901208131812A178C
:1011A0003B07D0F382819381AF01480F591FA417E9
:1011B000B50749F412964D915C911397840F951FD2
:1011C00093838283DF0112968D919C911397ED0199
:1011D000C80FD91F2C173D07D9F420911004309166
:1011E0001104C217D30781F02A813B81820F931F1C
:1011F00013969C938E931297C081D1818881998197
:1012000011969C938E9307C01196DC93CE9303C0E6
:1012100011963C932E93AE17BF0711F0B183A083B4
:10122000DF91CF910895CF92DF92EF92FF920F93CB
:101230001F93CF93DF93EC010E94741380911004ED
:1012400090911104892B41F5E2E1F4E0A6E1B4E0CC
:10125000B183A08313821282E2EBF3E1F0931104D5
:10126000E093100413821282118210828CE99FE0B5
:1012700013969C938E931297ED93FC9390930D0489
:1012800080930C0490930F0480930E0480E090E808
:1012900090930B0480930A04E0900A04F0900B04EE
:1012A000C7018C239D23892B09F066C0209709F480
:1012B00066C0AE014C5F5F4F09F45EC000910E0442
:1012C00010910F040417150708F456C0C0911204BA
:1012D000D0911304E2E1F4E002C0FE01E9012A81A9
:1012E0003B812417350728F42881398121153105E0
:1012F000A1F78091100490911104C817D907E1F16A
:10130000C080D18084E0C80ED11C888199819183EE
:1013100080832A813B81241B350B2930310548F01D
:10132000CE01840F951FFC01338322835B834A83A4
:101330002DDF8A819B81081B190B10930F040093EA
:101340000E0420910C0430910D040217130720F4B1
:1013500010930D0400930C04E82AF92AFB82EA8218
:10136000198218820E945D14C114D10459F40E949C
:10137000301BC12CD12C06C00E945D14F8CF0E94F6
:101380005D14F5CFC601DF91CF911F910F91FF90B2
:10139000EF90DF90CF900895CF93DF93009751F1B6
:1013A000FC0134972281338140910A0450910B044F
:1013B000B90164237523672BE9F060817181672B84
:1013C000C9F4EF01409550952423352333832283BC
:1013D0000E94741320910E0430910F048A819B8126
:1013E000820F931F90930F0480930E04CE01CEDEE4
:1013F0000E945D14DF91CF910895FC0103969283C2
:1014000081834FEF5FEFBA01438354836583768313
:10141000908787839287818710820895FC011386C5
:1014200012860895CF93DF939C01FB01DC01119696
:10143000CD91DC911297D583C4838E819F81978350
:1014400086838E819F81DC0115967C936E93149721
:101450007F836E8333872287F90180818F5F80834A
:10146000DF91CF9108950F931F93CF93DF93EB01FB
:10147000088119812A813B810F3F4FEF1407240710
:10148000340721F4FC01A185B28511C0DC0113965B
:1014900001C0DF011496ED91FC91159740815181B7
:1014A00062817381041715072607370790F7149692
:1014B000ED91FC911597FD83EC83D783C683BF83A1
:1014C000AE831596DC93CE9314979B878A87FC0195
:1014D00020812F5F2083DF91CF911F910F9108957D
:1014E000CF93DF93FC01A285B385C481D58186812A
:1014F00097819F838E83C681D781848195819D83C7
:101500008C8311968D919C911297E817F90731F40D
:101510008681978112969C938E93119713861286DB
:101520008C9181508C938C91DF91CF91089531E112
:10153000FC013083319722E220833197A3E3A0831B
:101540003197608331977083319710823197108281
:10155000319760E86083319710823197108231971C
:101560001082319762E06083319763E06083319746
:1015700064E06083319765E06083319766E0608363
:10158000319767E06083319768E06083319769E065
:101590006083319760E1608331973083319732E126
:1015A0003083319733E13083319734E130833197A1
:1015B00035E13083319736E13083319737E130833D
:1015C000319738E13083319739E13083319730E218
:1015D0003083319731E2308331972083319723E292
:1015E00020833197408331975083319726E22083BF
:1015F000319727E22083319728E22083319729E22F
:101600002083319720E32083319721E3208389973A
:101610000895A89590EC88E10FB6F894A89580936A
:1016200060000FBE90936000A0913014B09131140F
:10163000CD91CDBFDD91DEBFFF91EF91DF91CF91D5
:10164000BF91AF919F918F917F916F915F914F91DA
:101650003F912F911F910F91FF90EF90DF90CF90CE
:10166000BF90AF909F908F907F906F905F904F90C2
:101670003F902F901F900F900CBE0F900BBE0F90BD
:101680000FBE0F90089581E008950F920FB6F89461
:101690000F920BB60F920CB60F921F9211242F923D
:1016A0003F924F925F926F927F928F929F92AF92F2
:1016B000BF92CF92DF92EF92FF920F931F932F93DF
:1016C0003F934F935F936F937F938F939F93AF93CA
:1016D000BF93CF93DF93EF93FF93A0913014B0911A
:1016E00031140DB60D920EB60D920E94F214A09117
:1016F0003014B0913114CD91CDBFDD91DEBFFF919B
:10170000EF91DF91CF91BF91AF919F918F917F9199
:101710006F915F914F913F912F911F910F91FF908A
:10172000EF90DF90CF90BF90AF909F908F907F9081
:101730006F905F904F903F902F901F900F900CBE36
:101740000F900BBE0F900FBE0F9008950F920FB623
:10175000F8940F920BB60F920CB60F921F921124B1
:101760002F923F924F925F926F927F928F929F92B1
:10177000AF92BF92CF92DF92EF92FF920F931F939F
:101780002F933F934F935F936F937F938F939F9389
:10179000AF93BF93CF93DF93EF93FF93A091301458
:1017A000B09131140DB60D920EB60D9213BEB0D796
:1017B00081110E94F214A0913014B0913114CD9196
:1017C000CDBFDD91DEBFFF91EF91DF91CF91BF9152
:1017D000AF919F918F917F916F915F914F913F91C9
:1017E0002F911F910F91FF90EF90DF90CF90BF90BE
:1017F000AF909F908F907F906F905F904F903F90B1
:101800002F901F900F900CBE0F900BBE0F900FBE2D
:101810000F9008959BDF18950FB6F8940F92FC0176
:10182000968D0F900FBE81E0911180E008950F9387
:101830001F93CF93DF93EC01042F1E8D48A141111C
:101840000CC088819981892B09F042C08C819D81CF
:101850000E9443171D821C8242C0011117C050E034
:101860008A819B810E94312928A18A819B81820FD4
:10187000911D9B838A832C813D818217930750F1B0
:10188000888199819B838A8380E029C050E08E8182
:101890009F810E94312988A190E0919581959109BD
:1018A0002E813F81280F391F3F832E834881598124
:1018B0002417350730F42C813D81820F931F9F83BD
:1018C0008E83023049F4112349F0115080E007C0A3
:1018D00080E005C080E003C080E001C080E01F5FC1
:1018E0001E8FDF91CF911F910F910895FC0140A1B0
:1018F0004423A9F050E026813781240F351F378318
:101900002683848195812817390720F08081918171
:1019100097838683CB01668177810C943129089562
:10192000EF92FF920F931F93CF938C010FB6F89411
:101930000F92FC01C2A11C16ACF48389811106C070
:1019400011C0F8018389811105C00CC07801F3E151
:10195000EF0EF11CC7010E94CC1581110E94BE162A
:10196000C15079F78FEFF80182A30F900FBE0FB629
:10197000F8940F92C1A11C16ACF48085811106C0A9
:1019800011C0F8018085811105C00CC07801F8E014
:10199000EF0EF11CC7010E94CC1581110E94BE16EA
:1019A000C15079F78FEFF80181A30F900FBECF914F
:1019B0001F910F91FF90EF900895CF93DF93EC016B
:1019C0000FB6F8940F92E881F9818F8D28A190E0ED
:1019D00030E0829FA001839F500D929F500D1124F3
:1019E0004E0F5F1F5D834C831E8EFB83EA8301973E
:1019F000829FA001839F500D929F500D1124CF0113
:101A0000840F951F9F838E838FEF89A38AA3611113
:101A10000BC08885882371F0CE0108960E94CC15F2
:101A2000882341F032DE06C0CE010896E6DCCE0106
:101A30004396E3DC0F900FBE81E0DF91CF910895D4
:101A4000FF920F931F93CF93DF93082F162FF42E3F
:101A50006623B9F0869FC00111248596E4DBEC0172
:101A6000009741F414C00F8F18A361E0CE01A5DFE9
:101A7000FCA20DC0859699838883F5CFD983C8834E
:101A8000F2CF85E290E0CFDBEC01892BB9F7CE01F4
:101A9000DF91CF911F910F91FF9008959F92AF9288
:101AA000BF92CF92DF92EF92FF920F931F93CF934B
:101AB000DF93CDB7DEB729970FB6F894DEBF0FBE20
:101AC000CDBF7C015B012E833F834887598710E09F
:101AD000992493946C0188E0C80ED11C0FB6F89439
:101AE0000F92F701968D878D981710F00230B1F4A0
:101AF000402FB501C7019BDEF7019389992341F07F
:101B0000C70143960E94CC15882321F0BEDD02C098
:101B10008111BBDD0F900FBE81E04DC08E819F8192
:101B2000A885B985892B8A2B8B2B21F40F900FBEAA
:101B300080E041C0111105C0CE0101960E945816E7
:101B4000192D0F900FBED0D50FB6F8940F92F70154
:101B500081A18F3F09F411A2F70182A18F3F09F4FF
:101B600012A20F900FBEBE016A5F7F4FCE01019699
:101B70000E94691681111BC00FB6F8940F92F701ED
:101B8000968D878D0F900FBE98130DC04E815F818B
:101B900068857985C601A5D7C701C2DE8ED68111B9
:101BA0009DCF73DD9BCFC701BBDE87D697CFC70123
:101BB000B7DE83D680E029960FB6F894DEBF0FBE5D
:101BC000CDBFDF91CF911F910F91FF90EF90DF90EC
:101BD000CF90BF90AF909F9008950F93CF93DF93D6
:101BE000482F60E081E02CDFEC01009761F01D825E
:101BF0001C82198218821E8200E020E030E0A901D8
:101C000060E070E04BDFCE01DF91CF910F9108953E
:101C1000EF92FF920F931F93CF93DF938A01FC0102
:101C2000568D378D531710F02230E1F4422F780192
:101C3000EC011AA1FCDD1F3F79F48B898823A1F008
:101C4000CE014396A9D7882389F0E114F10481F0ED
:101C500081E0F70180830DC0FF24F394F10EFAA216
:101C600081E007C080E005C081E003C081E001C0E1
:101C700081E0DF91CF911F910F91FF90EF90089538
:101C80009F92AF92BF92CF92DF92EF92FF920F930B
:101C90001F93CF93DF93CDB7DEB729970FB6F89494
:101CA000DEBF0FBECDBF8C015B012E833F83488713
:101CB0005987E12C992493946C0183E1C80ED11CBF
:101CC0000FB6F8940F92F801F68CFF2091F0B50151
:101CD000C8010CDEFA94F801F68E8085882329F07D
:101CE000C801089659D78111D0DC0F900FBE81E052
:101CF0004AC08E819F81A885B985892B8A2B8B2B21
:101D000021F40F900FBE80E03EC0E11004C0CE0170
:101D10000196CED7E92C0F900FBEE6D40FB6F894FB
:101D20000F92F80181A18F3F09F411A2F80182A15D
:101D30008F3F09F412A20F900FBEBE016A5F7F4F62
:101D4000CE010196C6D7811115C0C80165DD882373
:101D500069F04E815F8168857985C601C2D6C80168
:101D6000DFDDABD58111ACCF90DCAACFC801D8DDC7
:101D7000A4D5A6CFC801D4DDA0D5C8014DDD8823E8
:101D800009F49ECF80E029960FB6F894DEBF0FBE0F
:101D9000CDBFDF91CF911F910F91FF90EF90DF901A
:101DA000CF90BF90AF909F900895BF92CF92DF9257
:101DB000EF92FF920F931F93CF93DF93CDB7DEB7D0
:101DC00029970FB6F894DEBF0FBECDBF8C014E83AE
:101DD0005F8368877987B12CD12CCC24C3947C0194
:101DE00083E1E80EF11C0FB6F8940F92D8015E96CD
:101DF0008C915E978823D9F081505E968C935E9784
:101E00008D919C91892B29F40E94F717F8019583F5
:101E10008483D80118968C91882329F0C8010896EC
:101E2000BBD6811132DC0F900FBE81E076C08E816F
:101E30009F81A885B985892B8A2B8B2B21F40F9044
:101E40000FBE80E06AC0D11004C0CE01019630D729
:101E5000DC2C0F900FBE48D40FB6F8940F92F80107
:101E600081A18F3F09F411A2D80192968C9192978B
:101E70008F3F11F492961C920F900FBEBE016A5FC5
:101E80007F4FCE01019625D7811123C0C801C4DC44
:101E90008823D9F0F80180819181892B49F40FB60C
:101EA000F8940F928481958180D7B82E0F900FBE41
:101EB0004E815F8168857985C70113D6C80130DD01
:101EC000FCD4811190CFE1DB8ECFC80129DDF5D4A0
:101ED0008ACFC80125DDF1D4C8019EDC882309F42E
:101EE00082CFBB20C9F00FB6F8940F92F801838916
:101EF000882339F0028CF38DE02D808164E0681B2B
:101F000001C060E0D80114968D919C911597FBD784
:101F10000F900FBE80E001C080E029960FB6F894C4
:101F2000DEBF0FBECDBFDF91CF911F910F91FF900C
:101F3000EF90DF90CF90BF900895CF93DF93EC01A7
:101F40000FB6F8940F9289A18F3F09F419A28AA1C4
:101F50008F3F09F41AA20F900FBE8E8D811103C01E
:101F6000CE014396F9D5CE01DBDCDF91CF91089508
:101F7000FC014481558122813381240F351F8081EA
:101F80009181B901681B790BCB016417750710F0BB
:101F9000841B950B0895AF92BF92CF92DF92EF9280
:101FA000FF920F931F93CF93DF936C015B017A0134
:101FB000FC01C281D381048115810C1B1D0B4017CC
:101FC000510708F48A01F60184859585A801B501B9
:101FD0008C0F9D1F0E9431290E151F0558F4A70173
:101FE000401B510BB501600F711FF601848595856B
:101FF0000E943129CE018E0D9F1DF601248135816D
:102000008217930710F0821B930BF6019383828350
:10201000C701DF91CF911F910F91FF90EF90DF905B
:10202000CF90BF90AF900895CF92DF92EF92FF9242
:102030000F931F93CF93DF931F921F92CDB7DEB7FD
:102040005A83498321153105C9F06B017C01FC01DC
:10205000868580FD08C0CA012417350708F4C90128
:102060009A83898311C02017310758F042E050E06D
:10207000BE016F5F7F4FC7018EDF06C080E090E03A
:1020800008C080E090E005C049815A81B601C701CF
:1020900082DF0F900F90DF91CF911F910F91FF90F2
:1020A000EF90DF90CF900895EF92FF921F93CF9320
:1020B000DF93EB0111E0413009F010E0209711F4BB
:1020C000C1E0D0E07C012FEFE21AF20A4196ABD8D2
:1020D000009781F020E1FC0111922A95E9F79C011B
:1020E000205F3F4FFC0135872487F582E482D78348
:1020F000C6831687DF91CF911F91FF90EF900895CF
:10210000FC01248135818081918142815381820F3C
:10211000931F0197841B950B8217930710F0821B66
:10212000930B08952F923F924F925F926F927F92FE
:102130008F929F92AF92BF92CF92DF92EF92FF92D7
:102140000F931F93CF93DF93CDB7DEB729970FB6C9
:10215000F894DEBF0FBECDBF5C011B012A010E83C8
:102160001F8328873987FC01868580FF05C03A01D7
:10217000F2E06F0E711C01C03A018E819F81A8852B
:10218000B985892B8A2B8B2B09F434C0CE0101969B
:1021900079D50FB6F8940F92C501B2DF4C018615C0
:1021A000970518F580E090E00E949419EBD5F501B1
:1021B000938782870F900FBECE80DF80E884F984FA
:1021C00000E010E020E030E0A90160E070E0CB0129
:1021D00020D7F50113861286BE016A5F7F4FCE01BC
:1021E000019677D58823A9F202C00F900FBE811403
:1021F000910419F4C50184DF4C0183019401A2010B
:10220000B101C50111DF7C01892BD9F0C501B0DE18
:10221000F501268137818217930798F065D2F50181
:1022200080859185892B61F08085918500E010E0A3
:1022300020E040E050E0BA0176D7F5011186108623
:102240003CD3C70129960FB6F894DEBF0FBECDBFB1
:10225000DF91CF911F910F91FF90EF90DF90CF9082
:10226000BF90AF909F908F907F906F905F904F90B6
:102270003F902F900895AF92BF92CF92DF92EF924E
:10228000FF920F931F93CF93DF93EC015B016A01E1
:1022900079018E8580FF04C08A010E5F1F4F01C047
:1022A0008A01CE012DDF9C01A601B501CE01BCDE65
:1022B0006C01892BB1F0CE015BDE2E813F8182174C
:1022C000930778F088859985892B59F088859985B9
:1022D00000E010E020E040E050E0BA019CD7198611
:1022E0001886C601DF91CF911F910F91FF90EF905B
:1022F000DF90CF90BF90AF900895E091EC13F091F4
:10230000ED13808181110CC08FEF9FEFDC01809372
:10231000B9139093BA13A093BB13B093BC13089551
:10232000E091EC13F091ED130780F085E02D00842F
:10233000F185E02D82819381A481B5818093B913C9
:102340009093BA13A093BB13B093BC1308958F92CC
:102350009F92AF92BF92CF92DF92EF92FF92CF9374
:102360006B017C01C42F8090C3139090C413A09084
:10237000C513B090C6138091301490913114029619
:10238000AFD88FEFC816D806E806F80661F4CC235C
:1023900051F060913014709131146E5F7F4F88EC72
:1023A00093E140D83DC0C80CD91CEA1CFB1CE0914D
:1023B0003014F0913114C282D382E482F582C814C1
:1023C000D904EA04FB0460F4609130147091311474
:1023D0008091EA139091EB136E5F7F4F44D820C039
:1023E00060913014709131148091EC139091ED1341
:1023F0006E5F7F4F38D88091B9139091BA13A09136
:10240000BB13B091BC13C816D906EA06FB0640F40C
:10241000C092B913D092BA13E092BB13F092BC13DE
:10242000CF91FF90EF90DF90CF90BF90AF909F90B3
:102430008F9008954F925F926F927F928F929F92AA
:10244000AF92BF92CF92DF92EF92FF920F93CF9312
:10245000DF934C016B015A012901CA010E94130943
:102460003C01892B09F4F3C080E390E00E9413093A
:10247000EC01892B99F07C8E6B8EA50165EA70E0EA
:10248000C3010E943A2921E0A21AB1088B8D9C8DCC
:10249000A80EB91EC114D10429F420C0C3010E94A2
:1024A000CC09D5C0D6018C918D8F8C918823A1F059
:1024B000AE01425E5F4FF6013196B8E0CB0ED11C03
:1024C000CF012191DA012D93AD01DC018C9188239C
:1024D00019F0EC15FD05A1F71CA201C01D8E0430FA
:1024E00008F003E00A8F0FA318A66E01B2E0CB0E2E
:1024F000D11CC6010E940E0ACE010E960E940E0A41
:10250000DB87CA8784E090E0A0E0B0E0801B9109FF
:10251000A109B1098E879F87A88BB98BDF8BCE8BE2
:102520001AA619A61BA61CA61DA61EA61FA6A201BA
:10253000B401C5010E94970A99838883E114F104CC
:1025400019F0F701D183C0830FB6F8940F928091F0
:10255000C7138F5F8093C71380913014909131140B
:10256000892BD1F5D0933114C09330148091C713C7
:10257000813009F041C084E094E10E94FD098FE0C0
:1025800094E10E94FD098AE194E10E94FD0985E23F
:1025900094E10E94FD0989EF93E10E94FD098EEE0E
:1025A00093E10E94FD098FED93E10E94FD0984ED06
:1025B00093E10E94FD0988EC93E10E94FD0989EFF7
:1025C00093E19093ED138093EC138EEE93E190934F
:1025D000EB138093EA1310C08091C11381110CC0DA
:1025E000E0913014F0913114928D8A8D891720F08A
:1025F000D0933114C09330148091BD138F5F8093BA
:10260000BD138DA38A8D9091C213981710F48093F7
:10261000C213FBE08F9FC0011124B6018C5F9B4E5B
:102620000E94120A0F900FBE8091C113882359F0A7
:10263000E0913014F0913114928D8A8D981728F41E
:1026400024D881E005C081E003C081E001C08FEFA4
:10265000DF91CF910F91FF90EF90DF90CF90BF90DF
:10266000AF909F908F907F906F905F904F90089564
:10267000EF92FF920F930F2EF7EBEF2EF3E1FF2E69
:10268000F02D00E020E030E040EC50E064E973E041
:102690008DEC90E0CFDE813019F5CCD6813001F59C
:1026A000F8948FEF9FEFDC018093B9139093BA13E6
:1026B000A093BB13B093BC1381E08093C11310921D
:1026C000C3131092C4131092C5131092C613E09155
:1026D0003014F091311481A50E944A070E94090B21
:1026E0000F91FF90EF9008958091B6138F5F8093C4
:1026F000B61308950FB6F8940F926091C3137091BA
:10270000C4138091C5139091C6130F900FBE089506
:102710009F92AF92BF92CF92DF92EF92FF920F9370
:102720001F93CF93DF938091B6138111ADC0C090FA
:10273000C313D090C413E090C513F090C6138FEF6D
:10274000C81AD80AE80AF80AC092C313D092C41370
:10275000E092C513F092C613C114D104E104F10450
:10276000B1F48091EC139091ED132091EA13309124
:10277000EB133093ED132093EC139093EB138093B2
:10278000EA138091BE138F5F8093BE13B6DD8091F4
:10279000B9139091BA13A091BB13B091BC13C81692
:1027A000D906EA06FB0610F4B12C5DC0B12C0F2E41
:1027B000FBE0AF2EF02D99249394E091EC13F0916F
:1027C000ED13808181110CC08FEF9FEFDC018093AE
:1027D000B9139093BA13A093BB13B093BC1343C027
:1027E000E091EC13F091ED130780F085E02DC085AA
:1027F000D1858A819B81AC81BD81C816D906EA0644
:10280000FB0648F48093B9139093BA13A093BB13BB
:10281000B093BC1328C08E010E5F1F4FC8010E94E9
:10282000700A888D998D892B21F0CE010E960E9419
:10283000700A8A8D9091C213981710F48093C21376
:10284000A89EC0011124B8018C5F9B4E0E94120A01
:10285000E0913014F09131149A8D828D981708F41C
:10286000ACCFB92CAACFE0913014F0913114E28DA5
:102870008BE0E89FF0011124EC5FFB4E80818230F9
:1028800048F0BB24B39406C08091C0138F5F80933F
:10289000C013B12C8091BF13882311F0BB24B394D3
:1028A0008B2DDF91CF911F910F91FF90EF90DF90D3
:1028B000CF90BF90AF909F900895CF92DF92EF920C
:1028C000FF920F931F93CF93DF930FB6F8940F925D
:1028D0008091B61381508093B6138091B613811105
:1028E0005AC08091C71381112CC058C0D7011796C8
:1028F000ED91FC911897C085D185CE010E960E946E
:10290000700A8E010E5F1F4FC8010E94700A8A8DE7
:102910009091C213981710F48093C213D89EC001EF
:102920001124B8018C5F9B4E0E94120AE091301472
:10293000F09131149A8D828D981788F0C092BF1350
:102940000EC0C0E0D0E00F2EFFEDEF2EF3E1FF2E22
:10295000F02D0F2EFBE0DF2EF02DCC24C394F701D9
:1029600080818111C3CFCD2B09F0C7DCC091C0138A
:10297000CC2349F0D1E0CCDE8111D093BF13C150FC
:10298000D1F71092C0138091BF13882331F00E94B9
:10299000450B81E003C080E001C080E00F900FBED6
:1029A000DF91CF911F910F91FF90EF90DF90CF902B
:1029B0000895CF92DF92EF92FF926B017C01672B1B
:1029C000682B692B41F090DE40E0C701B601BFDC07
:1029D00074DF811102C00E94450BFF90EF90DF90E1
:1029E000CF9008958091B613882321F081E08093E1
:1029F000BF1308951092BF13E0913014F091311479
:102A000081A50E945407A0913014B0913114E09137
:102A10003014F09131142D913C91838D948D821757
:102A2000930758F0609130147091311480913014F4
:102A300090913114635E7F4F20D68091C213282F6E
:102A400030E09BE0899FF0011124EC5FFB4E908108
:102A500091110EC04BE08150282F30E0429FF001D1
:102A6000439FF00D1124EC5FFB4E9081992399F365
:102A70009BE0929FA001939F500D1124DA01AC5F5F
:102A8000BB4E1196ED91FC9112970480F581E02DDB
:102A90001296FC93EE931197495F5B4EE417F5078E
:102AA00029F444815581FD01528341839BE0929F2B
:102AB000F001939FF00D1124EC5FFB4E0180F28139
:102AC000E02D20853185309331142093301480938C
:102AD000C213E0913014F091311481A50C944A078F
:102AE0000895CF92DF92EF92FF926A017B0160918D
:102AF000301470913114625F7F4F0E94330A41E0BD
:102B0000C701B60124DCFF90EF90DF90CF900895CD
:102B1000CF92DF92EF92FF920F931F93680179019A
:102B2000E0913014F0913114706846875787608BBC
:102B3000718B6091301470913114625F7F4F0E94ED
:102B4000120A41E0C701B60102DC1F910F91FF900C
:102B5000EF90DF90CF900895CF92DF92EF92FF92A7
:102B6000CF936A017B01C22F6091301470913114B0
:102B7000625F7F4F0E94120ACC2321F0CC24CA94BA
:102B8000DC2C76014C2FC701B601E1DBCF91FF9021
:102B9000EF90DF90CF9008950F931F93CF93DF9323
:102BA000DC011796ED91FC911897C085D1858E01B7
:102BB000025F1F4FC8010E94700A8091B6138111F5
:102BC00016C00C501109C8010E94700A8A8D90919C
:102BD000C213981710F48093C213BBE08B9FC001FF
:102BE0001124B8018C5F9B4E0E94120A05C0B801E7
:102BF0008FED93E10E94120AE0913014F0913114AC
:102C00009A8D828D891720F481E08093BF1301C0D3
:102C100080E0DF91CF911F910F9108950F931F9343
:102C2000CF93DF937068FC01408351836283738389
:102C3000C085D1850E94700A8E010E5F1F4FC801AA
:102C40000E94700A8A8D9091C213981710F4809395
:102C5000C213FBE08F9FC0011124B8018C5F9B4E13
:102C60000E94120AE0913014F09131149A8D828DF5
:102C7000891718F481E08093BF13DF91CF911F91E2
:102C80000F9108950FB6F8940F922091BE13FC0196
:102C900020834091C3135091C4136091C513709168
:102CA000C61341835283638374830F900FBE0895CC
:102CB0002091BE13FC0120834091C3135091C41393
:102CC0006091C5137091C6134183528363837483EB
:102CD0000895CF92DF92EF92FF920F931F93CF93BD
:102CE000DF93FB010FB6F8940F924091C3135091FC
:102CF000C4136091C5137091C613008111812281A4
:102D000033810F3FAFEF1A072A073A0749F1EC0169
:102D1000C980DA80EB80FC80A091BE13B881BA171D
:102D200029F04C155D056E057F05E0F44C195D0931
:102D30006E097F09401751076207730758F4041B97
:102D4000150B260B370B0083118322833383B0DFEF
:102D500080E009C0108211821282138281E003C0D8
:102D600080E001C081E00F900FBEDF91CF911F91F5
:102D70000F91FF90EF90DF90CF90089581E08093C6
:102D8000BF1308958091301490913114089580916B
:102D9000C113882331F08091B613882321F080E09D
:102DA000089581E0089582E008950F931F93CF93D3
:102DB000DF93FC01892B09F460C0828DA09130144F
:102DC000B09131145A969C91891708F04AC04685F3
:102DD000578560897189772394F0A0913014B09160
:102DE00031145A969C9144E050E060E070E0491B39
:102DF00051096109710946875787608B718B2BE0F8
:102E0000829FC00111248C5F9B4E24853585281735
:102E10003907F1F48F01EF012296CE010E94700A6A
:102E2000E0913014F0913114828DF801828F9091ED
:102E3000C213981710F48093C213FBE08F9FC00158
:102E40001124BE018C5F9B4E0E94120A81E016C0C5
:102E5000A0913014B09131145A968C91828F81E0F8
:102E60000DC0A0913014B091311481E027A15A9681
:102E70009C91291718F080E001C080E0DF91CF918C
:102E80001F910F9108950F931F93CF93DF93FC0130
:102E9000892B79F180A5815080A7228D97A12917D0
:102EA00051F181112AC0EF018F010E5F1F4FC80140
:102EB0000E94700A8FA18A8F44E050E060E070E0C9
:102EC000481B5109610971094E875F87688B798BAF
:102ED0009091C213981710F48093C2132BE0829F35
:102EE000C0011124B8018C5F9B4E0E94120A81E040
:102EF00005C080E003C080E001C080E0DF91CF9199
:102F00001F910F9108950F931F93CF93DF93FC01AF
:102F1000892B09F43FC087A1861708F4862F928D6C
:102F20009817C1F120A52130A9F5828F46855785D4
:102F300060897189772364F044E050E060E070E0DC
:102F4000481B51096109710946875787608B718B4E
:102F50002BE0929FC00111248C5F9B4E2485358508
:102F600028173907B9F4EF018F010E5F1F4FC80111
:102F70000E94700A8A8D9091C213981710F4809362
:102F8000C2132BE0829FC0011124B8018C5F9B4EBD
:102F90000E94120ADF91CF911F910F910895CF9255
:102FA000DF92EF92FF92E0913014F0913114668538
:102FB000778580899189E0913014F0913114A09146
:102FC0003014B09131145A962C91C12CD12C760129
:102FD0006894C2F8C21AD108E108F108C686D786FB
:102FE000E08AF18AFF90EF90DF90CF900895809172
:102FF000301490913114892B39F0E0913014F09114
:10300000311480A58F5F80A7809130149091311486
:1030100008954F925F926F927F928F929F92AF929C
:10302000BF92CF92DF92EF92FF920F931F934901CD
:103030005A010FB6F8940F92E0913014F0913114C8
:1030400027A5223039F1E0913014F091311443A4D6
:1030500054A465A476A4DC01CB0180959095A0953D
:10306000B09584219521A621B72183A794A7A5A770
:10307000B6A7E0913014F091311481E087A7C11414
:10308000D104E104F10431F041E0C701B6015FD998
:103090000E94450B0F900FBE0FB6F8940F920115CA
:1030A000110569F0E0913014F091311483A594A5D5
:1030B000A5A5B6A5F80180839183A283B383E0918F
:1030C0003014F091311487A58230B1F4E0913014BE
:1030D000F091311483A594A5A5A5B6A580949094EC
:1030E000A094B09488229922AA22BB2283A694A6F7
:1030F000A5A6B6A681E001C080E0E0913014F09171
:10310000311417A60F900FBE1F910F91FF90EF90F3
:10311000DF90CF90BF90AF909F908F907F906F90F7
:103120005F904F9008950F931F93CF93DF93FC010F
:103130000FB6F8940F920115110549F083A594A5D7
:10314000A5A5B6A5E80188839983AA83BB8387A533
:1031500092E097A72230B1F018F4213031F02AC064
:103160002330E9F0243001F125C003A514A525A5DD
:1031700036A5402B512B622B732B43A754A765A771
:1031800076A718C043A554A565A576A54F5F5F4FE8
:103190006F4F7F4F43A754A765A776A70BC043A7E0
:1031A00054A765A776A706C0823049F143A754A764
:1031B00065A776A7813029F5EF018F010E5F1F4FBC
:1031C000C8010E94700A8A8D9091C213981710F45A
:1031D0008093C2132BE0829FC0011124B8018C5F41
:1031E0009B4E0E94120AE0913014F09131149A8D96
:1031F000828D891740F40E94450B81E005C080E074
:1032000003C081E001C081E00F900FBEDF91CF913C
:103210001F910F910895EF92FF920F931F93CF93F9
:10322000DF93FC010115110549F083A594A5A5A51F
:10323000B6A5E80188839983AA83BB8387A592E01A
:1032400097A72230B1F018F4213031F02AC0233092
:10325000E9F0243001F125C003A514A525A536A564
:10326000402B512B622B732B43A754A765A776A73E
:1032700018C043A554A565A576A54F5F5F4F6F4F56
:103280007F4F43A754A765A776A70BC043A754A7B2
:1032900065A776A706C08230D9F143A754A765A7D2
:1032A00076A78130B9F5EF018091B613811117C06F
:1032B0008F010E5F1F4FC8010E94700A8A8D909186
:1032C000C213981710F48093C213EBE08E9FC001D5
:1032D0001124B8018C5F9B4E0E94120A07C0BF01E7
:1032E000625F7F4F8FED93E10E94120AE0913014EC
:1032F000F09131149A8D828D891770F4E114F104E4
:1033000019F081E0E701888381E08093BF1305C055
:1033100080E003C081E001C081E0DF91CF911F9187
:103320000F91FF90EF900895009721F48091301451
:10333000909131140FB6F8940F92FC0127A522301A
:1033400019F417A681E001C080E00F900FBE089528
:10335000CF92DF92EF92FF920F931F93FC01428373
:103360005383648375839387828704171507260721
:103370003707C0F00C191D092E093F09868597856E
:10338000A089B189081719072A073B0700F5BF0173
:103390006E5F7F4F80913A1490913B140E94330AE4
:1033A00080E018C00C151D052E053F0528F44C15AE
:1033B0005D056E057F0568F4BF016E5F7F4F8091EC
:1033C0003C1490913D140E94330A80E003C081E0D8
:1033D00001C081E01F910F91FF90EF90DF90CF909F
:1033E00008950FB6F8940F92809138149091391483
:1033F000892BE9F489E494E10E94FD098EE394E1CC
:103400000E94FD0989E494E190933D1480933C145B
:103410008EE394E190933B1480933A1440E067E08C
:103420008AE00E94200D90933914809338140F90F5
:103430000FBE0895EF92FF920F93D3DF809138145F
:1034400090913914892B91F00F2EF6E3EF2EF4E1D1
:10345000FF2EF02D03E020E030E045E550E069E983
:1034600073E087E091E00E941A1201C080E00F91A2
:10347000FF90EF9008958F929F92AF92BF92CF925C
:10348000DF92EF92FF920F931F93CF93DF93CDB70D
:10349000DEB727970FB6F894DEBF0FBECDBFE09121
:1034A0003814F0913914309781F169832A833B8372
:1034B0004C835D839F838E836630F4F468DC8230B6
:1034C00069F400E0A7019601BE016F5F7F4F809114
:1034D0003814909139140E944E0D18C000E020E07D
:1034E00030E0A901BE016F5F7F4F80913814909149
:1034F00039140E944E0D0AC020E0A801BE016F5F82
:103500007F4FCF010E94080E01C080E027960FB6C2
:10351000F894DEBF0FBECDBFDF91CF911F910F9109
:10352000FF90EF90DF90CF90BF90AF909F908F90E3
:1035300008952F923F924F925F926F927F928F9257
:103540009F92AF92BF92CF92DF92EF92FF920F9332
:103550001F93CF93DF931C01CDD82B013C018091A9
:10356000321490913314A0913414B091351448164C
:1035700059066A067B0608F053C03BC00780F085F9
:10358000E02D80809180A280B380C085D1858E019E
:103590000E5F1F4FC8010E94700AEC89FD89CE01A1
:1035A00019958F8982FF25C08E859F85A889B98945
:1035B000880D991DAA1DBB1D88169906AA06BB0673
:1035C00070F48A839B83AC83BD83DB87CA87B80191
:1035D00080913C1490913D140E94330A0AC0C12C82
:1035E000D12C760100E010E0A501940160E0CE014D
:1035F00042DFE0913C14F0913D1480818111BECFF7
:1036000080913A1490913B1490933D1480933C1414
:10361000F0933B14E0933A1481E0F101808302C0FF
:10362000F10110824092321450923314609234149B
:1036300070923514C301B201DF91CF911F910F91A8
:10364000FF90EF90DF90CF90BF90AF909F908F90C2
:103650007F906F905F904F903F902F9008950895C6
:10366000279A2F9A2FEF80E792E0215080409040D8
:10367000E1F700C000001F9AF5CF279A2F9A2FEF8D
:1036800087EA91E6215080409040E1F700C00000B9
:103690001F9AF5CF8F929F92AF92BF92CF92DF92F7
:1036A000EF92FF920F931F93CF93DF938091C914F2
:1036B0009091CA140E945903E090CD14F090CE145A
:1036C0004091E5145091E614A12CB12C6501689449
:1036D000A4F801E010E020E030E060EC82E00E941D
:1036E000A605C82FD92FE090CD14F090CE144091AC
:1036F000E5145091E614A12CB12C65016894A5F84D
:1037000002E010E020E030E060EC82E00E948A02FB
:103710004C01E090CD14F090CE144091E5145091FE
:10372000E614A12CB12C65016894A6F804E010E021
:1037300020E030E060EC82E00E948C06182F092F18
:103740000E947F06E090CD14F090CE144091E514D5
:103750005091E6148091C8148F938091C7148F9371
:103760000F931F93DF93CF930F2EF0E7AF2EB12C63
:10377000C12CD12CF02D07E010E020E030E060EC0F
:1037800082E00E9404040F900F900F900F900F9012
:103790000F90DF91CF911F910F91FF90EF90DF90ED
:1037A000CF90BF90AF909F908F9008950E945A073E
:1037B0009093E6148093E5140E945A079093CE14D8
:1037C0008093CD1441E060E070E084E690E00E94D8
:1037D00054109093C8148093C71481E00E94ED0D9B
:1037E0009093CA148093C91441E060E070E08CE2C9
:1037F00090E00E9454109093CC148093CB1481B12C
:10380000816881B980E076D785E00FD060E070E014
:1038100081E057D269C00895C9DF3CDF81EA93E0B7
:103820000E9454290E943813FFCFE7EEF4E124EA06
:103830003EE13183208327EA3EE13383228322EB7A
:103840003EE13583248326EB3EE1378326832CEB50
:103850003EE13187208728EC3EE1338722872DEC3B
:103860003EE13587248729ED3EE13787268729EB1E
:103870003EE1318B208B2EED3EE1338B228B2BEE04
:103880003EE1358B248B682FCF0150C10895653000
:10389000F1F4FA0180818F7390E0982F88272181BD
:1038A000822B90930D0280930C028281F0E48F9F13
:1038B000C0011124FA01238126952695822B90932D
:1038C0000B0280930A0281E08093541408956430BF
:1038D00051F080E090E490930B0280930A02909361
:1038E0000D0280930C0208950F931F9307E41CE1CF
:1038F00020E034E244EF50E060E087E235D7909377
:1039000056148093551421E0892B09F020E0822F72
:103910001F910F910895809154140895809155142A
:1039200090915614009751F040E060E070E06DD740
:10393000843031F41092541480E0089582E00895A8
:1039400083E008958091551490915614009731F0BA
:1039500064E0A7D7853021F083E0089582E00895E0
:1039600080E0089560910C0270910D0280E090E07B
:103970000E945B2620E030E048EC52E40E94E926F9
:1039800020E038EF4FE756E40C94C2250895EADFB3
:1039900020E030E040E251E40E94E9260E942F2618
:1039A000CB01089560910A0270910B0280E090E0D3
:1039B0000E945B2620E030E045E253E40E94E926C5
:1039C00020E038EF4FE756E40E94C22520E030E0C7
:1039D00040E252E40C945D250895E4DF20E030E0FD
:1039E00040E251E40E94E9260E942A26CB01089574
:1039F000CF93DF9390E0FC01EE0FFF1FE80FF91F5C
:103A0000EE0FFF1FE95AFB4E238121110AC0EF017F
:103A1000E091EF14F091F0146A81888199811995F1
:103A200012C0DC01AA0FBB1FED01C80FD91FCC0FBC
:103A3000DD1FC95ADB4EE091F914F091FA146A8146
:103A4000888199811995DF91CF910895CF93DF9364
:103A500090E0FC01EE0FFF1FE80FF91FEE0FFF1FB4
:103A6000E95AFB4E238121110AC0EF01E091F914BC
:103A7000F091FA146A8188819981199512C0DC014C
:103A8000AA0FBB1FED01C80FD91FCC0FDD1FC95AEC
:103A9000DB4EE091EF14F091F0146A8188819981F6
:103AA0001995DF91CF9108950F2EF7EECF2EF4E107
:103AB000DF2EF02D04E0C7E5D4E110E08C818130E9
:103AC00069F0E8F0823039F5D6011C96ED91FC9151
:103AD0001D976A818881998119951DC08D818F5F9D
:103AE0008A3010F48D8317C01D82D6011C96ED918B
:103AF000FC911D976A818881998119950CC08D81EF
:103B0000882331F0812FA2DF8D8181508D8303C006
:103B10000C83812F6DDF1F5F2696143079F665E0E8
:103B200070E080E090E00E94D914C5CFCF92DF9280
:103B3000EF92FF920F931F93CF93DF93062F0F2ED9
:103B4000F7EEEF2EF4E1FF2EF02DD7011896ED9150
:103B5000FC91199766E087E290E01995C7E5D4E1FA
:103B60000F2EF8E2CF2ED12CF02DD982C88286E01C
:103B70008A831B8214E01C8380E03ADFD701189609
:103B8000ED91FC91199767E087E290E01995DF824B
:103B9000CE8287E0888719861A8781E029DFD701DE
:103BA0001896ED91FC91199765E083E390E01995E3
:103BB000D7011896ED91FC91199761E084E390E0AC
:103BC000199584E390E09D878C8785E08E871F861A
:103BD000188B82E00DDFD7011896ED91FC911997B3
:103BE00064E081E091E01995D7011896ED91FC9180
:103BF000199761E082E091E0199582E091E09B8B5A
:103C00008A8B1C8B1D8A1E8B83E0F2DEE12CF12C4B
:103C100020E030E040EC50E063EB73E084E59DE1B0
:103C20000E941A12DF91CF911F910F91FF90EF9098
:103C3000DF90CF9008950F931F93CF93DF931F9240
:103C40001F92CDB7DEB78C0119822DC0E0916F14A1
:103C5000EC3250F481E08E0F80936F14F0E0EA585C
:103C6000FB4E8A81808302C010926F148A818A3051
:103C7000D1F440916F1450E0FA01EC58FB4E1082E1
:103C8000415051099E012F5F3F4F66E774E18091DB
:103C90007214909173140E943B11898181110E94CA
:103CA000450B10926F14BE016E5F7F4FC80190D21A
:103CB000882361F20F900F90DF91CF911F910F91A8
:103CC00008958F929F92AF92CF92EF920F931F938E
:103CD000CF93C82F8B0141E060E070E088EC90E06A
:103CE0000E94541090937314809372141093711463
:103CF000009370140F2EFBE18F2EFEE19F2EF02D0E
:103D00006894AA24A6F86894CC24C6F8E12C00E0B4
:103D100023E040E051EE60E070E08C2F4ED19093B4
:103D2000751480937414E091EF14F091F01464E032
:103D300087E091E01995CF911F910F91EF90CF906F
:103D4000AF909F908F900895FC0180810895FC01B1
:103D5000208181E090E002C0880F991F6A95E2F708
:103D600082230895FC01808186230895FC016083ED
:103D70000895FC0110820895FC01408121E030E0AB
:103D800002C0220F331F6A95E2F7242B2083089587
:103D9000FC012081622B60830895FC01408121E0B9
:103DA00030E002C0220F331F6A95E2F724272083F8
:103DB0000895FC012081622760830895FC019081B1
:103DC00021E030E002C0220F331F6A95E2F7209510
:103DD000292320830895FC019081609569236083E5
:103DE00008958091A614860F8093A6149091A9142B
:103DF000913079F028F09230A9F0933019F10895BC
:103E00006F3F09F048C01092A61481E08093A91476
:103E10000895663809F03FC01092A51482E080939F
:103E2000A9140895E091A51481E08E0F8093A51444
:103E3000F0E0ED55FB4E6083823069F583E08093BE
:103E4000A91408959091A51421E0290F2093A51499
:103E5000963009F581110EC0E3EAF4E1808190E02B
:103E6000982F88272181820F911D9093AB14809306
:103E7000AA1404C01092AB141092AA141092A914A0
:103E8000E091A714F091A814309729F08091AA141A
:103E90009091AB14199508958F929F92AF92CF9203
:103EA000EF920F93CF93DF93EB010F2EF1EF8F2E55
:103EB000FEE19F2EF02D6894AA24A4F86894CC24E7
:103EC000C4F8E12C00E023E040E855E260E070E057
:103ED00074D09093AD148093AC14D093A814C09375
:103EE000A714DF91CF910F91EF90CF90AF909F905B
:103EF0008F900895CF93DF93CDB7DEB729970FB694
:103F0000F894DEBF0FBECDBF89E0E5E2F2E09E018E
:103F10002F5F3F4FD90101900D928A95E1F71092E2
:103F2000AB141092AA148091AC149091AD14009728
:103F300031F0422F532F69E0FBD080E001C082E0D6
:103F400029960FB6F894DEBF0FBECDBFDF91CF919B
:103F5000089565360CF064E66C390CF46CE996EF64
:103F60006902B00111246854744F811105C0709327
:103F7000290160932801089570932B0160932A0111
:103F80000895EAE0F1E08081886180838FE39CE915
:103F9000909327018093260160E080E0DADF60E003
:103FA00081E0D7DFE0E2F1E08081826A8083E1E2B4
:103FB000F1E080818A61808308952F923F924F9231
:103FC0005F926F927F928F929F92AF92CF92EF9279
:103FD000FF920F931F93CF93DF93CDB7DEB7F82EE9
:103FE0002A013B0188E090E0C2D78C018F2D90E040
:103FF000880F991FFC01E255FB4E11830083FC01E1
:10400000E25FFD4F80819181D8018D939C936C2D4F
:1040100070E084E090E091D71C0161E070E086E000
:1040200090E08BD77C014C2DB1012BD5F801F582A6
:10403000E4826A2D70E084E090E07FD71C0161E0AB
:1040400070E086E090E079D77C014A2DB10119D566
:10405000D8011396FC92EE92129717969C928E922C
:104060001697FFB6F894ED91FC91119736978081E1
:10407000826080838D909C90C301B2011CD620E0A9
:1040800030E040E051E4A5D69B01AC0160E074E271
:1040900084E79BE477D520E030E040E85FE30DD58E
:1040A000DED5F40132976083D801ED91FC91119730
:1040B000359788E98083ED91FC91349786E0808381
:1040C000FFBEC801DF91CF911F910F91FF90EF903C
:1040D000CF90AF909F908F907F906F905F904F9018
:1040E0003F902F900895CF93DF93EC01EA81FB81FD
:1040F000938182812581981B922384819817A1F056
:10410000938126952923A081B181A20FB11D6C93C3
:104110009F5F258192239383E881F9813597808180
:104120008062808380E001C082E0DF91CF910895BA
:10413000EF92FF920F931F93CF93DF937C01DC01EB
:104140001296ED91FC91139793818281981B858142
:1041500098238481891B861798F1662341F1842F67
:10416000952FDC016150462F50E04F5F5F4F480FA5
:10417000591FE701EA81FB81938182812581981B88
:1041800092238481981779F08C9193812695292325
:10419000608171818B01020F111DE80188839F5F8F
:1041A0008581982393831196A417B50711F7D7013A
:1041B000ED91FC91359780818062808380E001C021
:1041C00082E0DF91CF911F910F91FF90EF900895C2
:1041D000DC011496ED91FC911597938182819817DB
:1041E00089F09281858186958923A081B181A80F6C
:1041F000B11D8C91DB018C939F5F85819823928305
:1042000080E0089583E008951F920F920FB60F92F9
:1042100011240BB60F922F933F934F935F936F939D
:104220007F938F939F93AF93BF93CF93DF93EF933E
:10423000FF93A091AE14B091AF14109711F160915B
:10424000C6001496ED91FC9115979381828125818A
:10425000981B92238481981761F0838126952823E7
:10426000C081D181C20FD11D68838F5F9581892361
:1042700083831696ED91FC911797309711F0CD013D
:104280001995FF91EF91DF91CF91BF91AF919F91E0
:104290008F917F916F915F914F913F912F910F90EF
:1042A0000BBE0F900FBE0F901F9018951F920F928C
:1042B0000FB60F9211240BB60F922F938F939F93EB
:1042C000AF93BF93EF93FF93E091AE14F091AF14CF
:1042D0003097B9F00280F381E02D938182819817A5
:1042E000B1F092818581282F26952923A081B18163
:1042F000A20FB11D2C919F5F892382832093C6005A
:104300000BC0E1ECF0E080818F7D808305C0E1ECA3
:10431000F0E080818F7D8083FF91EF91BF91AF911D
:104320009F918F912F910F900BBE0F900FBE0F900A
:104330001F9018951F920F920FB60F9211240BB673
:104340000F922F933F934F935F936F937F938F932E
:104350009F93AF93BF93CF93DF93EF93FF93A0917E
:10436000B014B091B114109711F16091CE00149671
:10437000ED91FC911597938182812581981B922361
:104380008481981761F0838126952823C081D1818B
:10439000C20FD11D68838F5F958189238383169611
:1043A000ED91FC911797309711F0CD011995FF9180
:1043B000EF91DF91CF91BF91AF919F918F917F91BD
:1043C0006F915F914F913F912F910F900BBE0F9086
:1043D0000FBE0F901F9018951F920F920FB60F925D
:1043E00011240BB60F922F938F939F93AF93BF938C
:1043F000EF93FF93E091B014F091B1143097B9F0BE
:104400000280F381E02D938182819817B1F092812F
:104410008581282F26952923A081B181A20FB11D66
:104420002C919F5F892382832093CE000BC0E9ECFF
:10443000F0E080818F7D808305C0E9ECF0E0808131
:104440008F7D8083FF91EF91BF91AF919F918F916D
:104450002F910F900BBE0F900FBE0F901F901895CD
:104460001F920F920FB60F9211240BB60F922F933B
:104470003F934F935F936F937F938F939F93AF93EC
:10448000BF93CF93DF93EF93FF93A091B214B091BA
:10449000B314109711F16091D6001496ED91FC9130
:1044A0001597938182812581981B92238481981787
:1044B00061F0838126952823C081D181C20FD11D4F
:1044C00068838F5F9581892383831696ED91FC9194
:1044D0001797309711F0CD011995FF91EF91DF916A
:1044E000CF91BF91AF919F918F917F916F915F918C
:1044F0004F913F912F910F900BBE0F900FBE0F90D9
:104500001F9018951F920F920FB60F9211240BB6A1
:104510000F922F938F939F93AF93BF93EF93FF933C
:10452000E091B214F091B3143097B9F00280F381A6
:10453000E02D938182819817B1F092818581282F97
:1045400026952923A081B181A20FB11D2C919F5FD7
:10455000892382832093D6000BC0E1EDF0E08081B7
:104560008F7D808305C0E1EDF0E080818F7D8083C9
:10457000FF91EF91BF91AF919F918F912F910F90EC
:104580000BBE0F900FBE0F901F9018951F920F92A9
:104590000FB60F9211240BB60F922F933F934F93A8
:1045A0005F936F937F938F939F93AF93BF93CF93BB
:1045B000DF93EF93FF93A091B414B091B5141097CB
:1045C00011F1609136011496ED91FC91159793814C
:1045D00082812581981B92238481981761F08381C1
:1045E00026952823C081D181C20FD11D68838F5F9A
:1045F0009581892383831696ED91FC9117973097C7
:1046000011F0CD011995FF91EF91DF91CF91BF91FD
:10461000AF919F918F917F916F915F914F913F915A
:104620002F910F900BBE0F900FBE0F901F901895FB
:104630001F920F920FB60F9211240BB60F922F9369
:104640008F939F93AF93BF93EF93FF93E091B41435
:10465000F091B5143097B9F00280F381E02D938189
:1046600082819817B1F092818581282F2695292380
:10467000A081B181A20FB11D2C919F5F89238283FC
:10468000209336010BC0E1E3F1E080818F7D8083D0
:1046900005C0E1E3F1E080818F7D8083FF91EF91A0
:1046A000BF91AF919F918F912F910F900BBE0F9063
:1046B0000FBE0F901F901895CF93DF931F92CDB729
:1046C000DEB7BE016F5F7F4F8091B6149091B71433
:1046D0007FDD8111F6CF898190E00F90DF91CF913E
:1046E0000895682F8091B6149091B714FCDC80E097
:1046F00090E008958F929F92AF92CF92EF920F9396
:10470000812C912C6894AA24A7F86894CC24C7F82B
:10471000E12C00E023E040E051EE60E070E04DDC91
:104720009093B7148093B614E1E0F5E186E192E04E
:1047300091838083938382830F91EF90CF90AF908A
:104740009F908F9008958091C61481110CC08CE0C9
:104750008093B8008FEF8093BB0084E08093BC000F
:1047600081E08093C6140895AF92BF92CF92DF92FA
:10477000EF92FF920F931F93CF93DF93A82EB62E45
:1047800069017A0184E090E0F2D3EC01892B61F1B8
:10479000A88281E0B81212C0C701B60120EA36E84B
:1047A00041E050E08CD3DA01C9014097A109B10979
:1047B000B695A79597958795898311C0C701B601CE
:1047C00020E83AE146E050E07AD3DA01C9014097A7
:1047D000A109B109B695A7959795879589831B83FC
:1047E0000A838C2F9D2F02C080E090E0DF91CF9153
:1047F0001F910F91FF90EF90DF90CF90BF90AF90FF
:1048000008958091BC0081700895FF920F931F93CB
:10481000CF93DF930097D1F14A30D0F5F42E8B017E
:10482000EC01EFDF811136C08091B9149091BA1478
:10483000C817D90741F087DF89818093B800D093EA
:10484000BA14C093B91481E08F0D8093BB14888192
:10485000880F8093BC14FF2089F0F801ADEBB4E120
:104860004FEF4F0D642F70E0CB010196B801680F38
:10487000791F81918D93E617F707D9F788EF809319
:10488000240285EA8093BC0084E005C086E003C072
:1048900087E001C082E0DF91CF911F910F91FF90DF
:1048A00008951F93CF93DF93009729F16B3028F57C
:1048B000162FEC01A6DF811122C08091B9149091CE
:1048C000BA14C817D90741F03EDF89818093B80038
:1048D000D093BA14C093B9141093BB148881880F75
:1048E00081608093BC1488EF8093240285EA8093D2
:1048F000BC0085E005C086E003C087E001C082E01F
:10490000DF91CF911F9108951F920F920FB60F92D2
:1049100011240BB60F922F933F934F935F936F9396
:104920007F938F939F93AF93BF93EF93FF93E09108
:10493000B9008E2F90E0FC013897E135F10508F0C1
:1049400075C08827E458FF4F8F4FDBC21092B81410
:10495000E091B8148091BB14E81770F481E08E0FD9
:104960008093B814F0E0E454FB4E80818093BB0048
:1049700085E88093BC0072C084E98093BC0080917C
:10498000B9149091BA14DC011296ED91FC91139731
:10499000309709F463C020E040E050E064E01995EE
:1049A0005DC0E091B81481E08E0F8093B8148091BF
:1049B000BB00F0E0E454FB4E80838091B90080346A
:1049C00011F41092B8142091B81430E08091BB1407
:1049D00090E001972817390724F485EC8093BC00F8
:1049E0003DC085E88093BC0039C08091BB00E09158
:1049F000B814F0E0E454FB4E808384E98093BC005B
:104A00008091B9149091BA14DC011296ED91FC9149
:104A10001397309719F12091BB144CEB54E165E0EA
:104A200019951CC085EA8093BC0018C08091B9001C
:104A30008093240284E08093BC008091B91490910B
:104A4000BA14DC011296ED91FC911397309731F076
:104A500020E040E050E0609124021995FF91EF9131
:104A6000BF91AF919F918F917F916F915F914F9186
:104A70003F912F910F900BBE0F900FBE0F901F9084
:104A80001895FC01411101C0E8D3842F90E09C01EE
:104A90002150310982239323892B09F0DED3413839
:104AA00008F0DBD3128213824483440F41504583C4
:104AB0007183608380E090E008955058BB27AA2757
:104AC0000ED04DC13ED130F043D120F031F49F3FA4
:104AD00011F41EF433C10EF4E095E7FB29C1E92F70
:104AE0004FD180F3BA17620773078407950718F050
:104AF00071F49EF567C10EF4E0950B2EBA2FA02D30
:104B00000B01B90190010C01CA01A0011124FF277A
:104B1000591B99F0593F50F4503E68F11A16F04075
:104B2000A22F232F342F4427585FF3CF4695379574
:104B30002795A795F0405395C9F77EF41F16BA0B39
:104B4000620B730B840BBAF09150A1F0FF0FBB1FE7
:104B5000661F771F881FC2F70EC0BA0F621F731F30
:104B6000841F48F4879577956795B795F7959E3F8D
:104B700008F0B3CF9395880F08F09927EE0F97951B
:104B8000879508950CD0EBC0E3D040F0DAD030F038
:104B900021F45F3F19F0CCC0511115C1CFC0F0D046
:104BA00098F39923C9F35523B1F3951B550BBB27F4
:104BB000AA2762177307840738F09F5F5F4F220FA1
:104BC000331F441FAA1FA9F333D00E2E3AF0E0E89A
:104BD00030D091505040E695001CCAF729D0FE2FE6
:104BE00027D0660F771F881FBB1F26173707480778
:104BF000AB07B0E809F0BB0B802DBF01FF2793582E
:104C00005F4F2AF09E3F510568F092C0DCC05F3FC5
:104C1000ECF3983EDCF3869577956795B795F79515
:104C20009F5FC9F7880F911D9695879597F908950D
:104C3000E1E0660F771F881FBB1F621773078407A9
:104C4000BA0720F0621B730B840BBA0BEE1F88F7B8
:104C5000E095089504D06894B111B5C0089598D036
:104C600088F09F5790F0B92F9927B751A0F0D1F055
:104C7000660F771F881F991F1AF0BA95C9F712C0DF
:104C8000B13081F09FD0B1E008959CC0672F782F9C
:104C90008827B85F39F0B93FCCF38695779567954B
:104CA000B395D9F73EF490958095709561957F4FB7
:104CB0008F4F9F4F0895E89409C097FB3EF490955D
:104CC0008095709561957F4F8F4F9F4F9923A9F0E5
:104CD000F92F96E9BB279395F69587957795679574
:104CE000B795F111F8CFFAF4BB0F11F460FF1BC0B8
:104CF0006F5F7F4F8F4F9F4F16C0882311F096E94B
:104D000011C0772321F09EE8872F762F05C06623F8
:104D100071F096E8862F70E060E02AF09A95660FB1
:104D2000771F881FDAF7880F9695879597F908956A
:104D300097F99F6780E870E060E008959FEF80EC4E
:104D4000089500240A9416161706180609060895F1
:104D500000240A9412161306140605060895092E57
:104D60000394000C11F4882352F0BB0F40F4BF2BC6
:104D700011F460FF04C06F5F7F4F8F4F9F4F089506
:104D800057FD9058440F551F59F05F3F71F04795FC
:104D9000880F97FB991F61F09F3F79F087950895E1
:104DA000121613061406551FF2CF4695F1DF08C000
:104DB000161617061806991FF1CF8695710561051D
:104DC00008940895E894BB2766277727CB0197F9C5
:104DD00008950BD0C4CFB5DF28F0BADF18F09523C3
:104DE00009F0A6CFABCF1124EECFCADFA0F3959F79
:104DF000D1F3950F50E0551F629FF001729FBB27C2
:104E0000F00DB11D639FAA27F00DB11DAA1F649F6D
:104E10006627B00DA11D661F829F2227B00DA11D20
:104E2000621F739FB00DA11D621F839FA00D611DA6
:104E3000221F749F3327A00D611D231F849F600DC7
:104E4000211D822F762F6A2F11249F5750408AF000
:104E5000E1F088234AF0EE0FFF1FBB1F661F771F8C
:104E6000881F91505040A9F79E3F510570F060CFC8
:104E7000AACF5F3FECF3983EDCF386957795679574
:104E8000B795F795E7959F5FC1F7FE2B880F911DAA
:104E90009695879597F9089597FB072E16F4009439
:104EA00006D077FD08D035D007FC05D03EF49095AC
:104EB00081959F4F0895709561957F4F0895A1E268
:104EC0001A2EAA1BBB1BFD010DC0AA1FBB1FEE1F84
:104ED000FF1FA217B307E407F50720F0A21BB30BCF
:104EE000E40BF50B661F771F881F991F1A9469F74B
:104EF00060957095809590959B01AC01BD01CF01A7
:104F00000895EE0FFF1F881F8BBF0790F691E02DCD
:104F10001994AA1BBB1B51E107C0AA1FBB1FA617F0
:104F2000B70710F0A61BB70B881F991F5A95A9F752
:104F300080959095BC01CD0108950F931F93CF9359
:104F4000DF93869F8001879F100D969F100D11247F
:104F5000C8010DD0EC01009721F0A80160E070E0DD
:104F600089D1CE01DF91CF911F910F9108950F93B9
:104F70001F93CF93DF938230910510F482E090E08D
:104F8000E091FF14F091001520E030E0A0E0B0E0E7
:104F9000309719F1408151810281138148175907D7
:104FA000C8F08417950769F4109731F012960C93A6
:104FB000129713961C9327C00093FF1410930015AB
:104FC00022C02115310519F04217530718F49A0130
:104FD000BD01EF01DF01F801DBCF21153105F9F04B
:104FE000281B390B2430310580F48A819B8161159F
:104FF000710521F0FB019383828304C09093001517
:105000008093FF14FE01329644C0FE01E20FF31FAD
:105010008193919322503109398328833AC020919A
:10502000FD143091FE14232B41F4209102023091A3
:1050300003023093FE142093FD142091000230915E
:1050400001022115310541F42DB73EB7409104020C
:1050500050910502241B350BE091FD14F091FE14D4
:10506000E217F307A0F42E1B3F0B2817390778F03F
:10507000AC014E5F5F4F2417350748F04E0F5F1F9E
:105080005093FE144093FD148193919302C0E0E08D
:10509000F0E0CF01DF91CF911F910F910895CF9351
:1050A000DF93009709F481C0FC01329713821282CA
:1050B000A091FF14B0910015109781F420813181E7
:1050C000820F931F2091FD143091FE142817390789
:1050D00051F5F093FE14E093FD1467C0ED0120E05C
:1050E00030E0CE17DF0740F44A815B819E01411515
:1050F0005105F1F0EA01F5CFD383C283408151819C
:10510000840F951FC817D90759F488819981840F96
:10511000951F0296918380838A819B8193838283EA
:105120002115310529F4F0930015E093FF143DC0DB
:10513000E901FB83EA8349915991C40FD51FEC170C
:10514000FD0761F480819181840F951F0296E9012A
:1051500099838883828193819B838A83E0E0F0E056
:1051600012968D919C911397009719F0FD01DC0127
:10517000F7CF8D919C9111979D012E5F3F4F820F2C
:10518000931F2091FD143091FE142817390769F4FC
:10519000309729F4109200151092FF1402C0138268
:1051A0001282B093FE14A093FD14DF91CF91089565
:1051B0008F929F92AF92BF92CF92DF92EF92FF9227
:1051C000CF93DF93EC01688179818A819B8161159E
:1051D00071058105910521F464E279ED8BE597E095
:1051E0002DE133EF41E050E03CD349015A019B01EE
:1051F000AC01A7EAB1E451D36B017C01ACEEB4EF92
:10520000A501940156D3DC01CB018C0D9D1DAE1D73
:10521000BF1DB7FF03C00197A109B04888839983D8
:10522000AA83BB839F77DF91CF91FF90EF90DF90B0
:10523000CF90BF90AF909F908F900895B9CF86E0A8
:1052400092E0B6CFA0E0B0E0809306029093070210
:10525000A0930802B0930902089581E090E0F894C9
:105260003BC3FB01DC0102C001900D924150504054
:10527000D8F70895DC0101C06D9341505040E0F72C
:105280000895CF93DF93CDB7DEB7AE014A5F5F4F8E
:10529000FA0161917191AF0180910315909104150C
:1052A00033D0DF91CF9108950F931F93CF93DF9366
:1052B000E0910315F0910415238121FF1BC08C019F
:1052C000D0E0C0E0F80181918F01609103157091E9
:1052D0000415DB011896ED91FC911997882331F0A4
:1052E0001995892B79F3DFEFCFEFECCF8AE0199591
:1052F000892B19F08FEF9FEF02C08D2F9C2FDF912C
:10530000CF911F910F9108952F923F924F925F92EC
:105310006F927F928F929F92AF92BF92CF92DF92C5
:10532000EF92FF920F931F93CF93DF93CDB7DEB72A
:105330002B970FB6F894DEBF0FBECDBF6C017B017B
:105340008A01FC0117821682838181FFBFC1CE01D1
:1053500001963C01F6019381F70193FD859193FF3E
:1053600081917F01882309F4ADC1853239F493FD21
:10537000859193FF81917F01853221F4B60190E000
:10538000D6D1E8CF912C212C312CFFE1F315D8F0A8
:105390008B3279F038F4803279F08332A1F4232D06
:1053A00020611DC08D3261F0803369F4232D2160AE
:1053B00016C0832D8260382EE32DE4603E2E2AC075
:1053C000F32DF8601DC037FC2DC020ED280F2A30CA
:1053D00040F08E32B9F436FC75C1232D2064322E94
:1053E00019C036FE06C08AE0989E200D1124922E28
:1053F00011C0EAE02E9E200D1124222EF32DF06222
:105400003F2E08C08C3621F4832D8068382E02C0D0
:10541000883641F4F70193FD859193FF81917F01D7
:105420008111B3CF982F9F7D9554933028F40C5F52
:105430001F4F9FE399830DC0833631F0833771F09E
:10544000833509F055C020C0F801808189830E5F43
:105450001F4F88248394912C530112C02801F2E03D
:105460004F0E511CF801A080B18036FE03C0692D9B
:1054700070E002C06FEF7FEFC5014ED14C01820199
:10548000F32DFF773F2E15C0280122E0420E511C5C
:10549000F801A080B18036FE03C0692D70E002C023
:1054A0006FEF7FEFC5012DD14C01F32DF0683F2E3A
:1054B000820133FC19C0822D90E088169906A0F471
:1054C000B60180E290E033D12A94F5CFF50137FCA4
:1054D000859137FE81915F01B60190E028D12110BE
:1054E0002A9421E0821A91088114910479F7E1C08D
:1054F000843611F0893639F5F80137FE07C060812E
:105500007181828193810C5F1F4F08C0608171811E
:10551000072E000C880B990B0E5F1F4FF32DFF76A3
:105520003F2E97FF09C090958095709561957F4FAC
:105530008F4F9F4FF0683F2E2AE030E0A30133D118
:10554000882E861844C0853731F4232D2F7EB22E45
:105550002AE030E025C0932D997FB92E8F36C1F017
:1055600018F4883579F0AEC0803719F0883721F00B
:10557000A9C0E92FE061BE2EB4FE0DC0FB2DF46082
:10558000BF2E09C034FE0AC0292F2660B22E06C0E5
:1055900028E030E005C020E130E002C020E132E048
:1055A000F801B7FE07C060817181828193810C5F31
:1055B0001F4F06C06081718180E090E00E5F1F4F39
:1055C000A301F1D0882E8618FB2DFF773F2E36FEE3
:1055D0000DC0232D2E7FA22E891458F434FE0BC04B
:1055E00032FC09C0832D8E7EA82E05C0B82CA32CBA
:1055F00003C0B82C01C0B92CA4FE0FC0FE01E80DF9
:10560000F11D8081803321F49A2D997EA92E09C045
:10561000A2FE06C0B394B39404C08A2D867809F024
:10562000B394A3FC10C0A0FE06C0B21480F4280CF2
:10563000922C9B180DC0B21458F4B60180E290E091
:1056400076D0B394F8CFB21418F42B1802C0982C6B
:10565000212CA4FE0FC0B60180E390E068D0A2FE2A
:1056600016C0A1FC03C088E790E002C088E590E086
:10567000B6010CC08A2D867851F0A1FE02C08BE2E3
:1056800001C080E2A7FC8DE2B60190E050D0891401
:1056900030F4B60180E390E04AD09A94F8CF8A942F
:1056A000F301E80DF11D8081B60190E040D081103A
:1056B000F6CF222009F44ECEB60180E290E037D03A
:1056C0002A94F7CFF6018681978102C08FEF9FEF72
:1056D0002B960FB6F894DEBF0FBECDBFDF91CF91F2
:1056E0001F910F91FF90EF90DF90CF90BF90AF9000
:1056F0009F908F907F906F905F904F903F902F90F2
:105700000895FC010590615070400110D8F7809514
:1057100090958E0F9F1F0895FC016150704001907D
:105720000110D8F7809590958E0F9F1F08950F93C5
:105730001F93CF93DF93FB01238121FD03C08FEFE4
:105740009FEF2CC022FF16C04681578124813581EE
:105750004217530744F4A081B1819D012F5F3F4F51
:10576000318320838C93268137812F5F3F4F37838E
:10577000268314C08B01EC01FB010084F185E02D30
:105780001995892BE1F6D80116968D919C91179762
:10579000019617969C938E931697CE01DF91CF9129
:1057A0001F910F910895FA01AA27283051F1203155
:1057B00081F1E8946F936E7F6E5F7F4F8F4F9F4FA5
:1057C000AF4FB1E03ED0B4E03CD0670F781F891FE7
:1057D0009A1FA11D680F791F8A1F911DA11D6A0FB5
:1057E000711D811D911DA11D20D009F468943F9168
:1057F0002AE0269F11243019305D3193DEF6CF0167
:105800000895462F4770405D4193B3E00FD0C9F72C
:10581000F6CF462F4F70405D4A3318F0495D31FD99
:105820004052419302D0A9F7EACFB4E0A6959795EC
:10583000879577956795BA95C9F7009761057105C2
:1058400008959B01AC010A2E06945795479537950C
:105850002795BA95C9F7620F731F841F951FA01D66
:105860000895052E97FB16F400940FD057FD05D030
:1058700026DB07FC02D046F408C0509540953095D1
:1058800021953F4F4F4F5F4F0895909580957095AC
:1058900061957F4F8F4F9F4F08950FD0A59F900D1B
:1058A000B49F900DA49F800D911D11240895B7FF02
:1058B000F4CFF3DF821B930B0895A29FB001B39F37
:1058C000C001A39F700D811D1124911DB29F700D09
:0C58D000811D1124911D0895F894FFCF54
:1058DC0000000B1520000100000000400040C60035
:1058EC00CE00D6003601000000030000000071233A
:1058FC005C230000F8FF0186000000000079FF0126
:10590C0079A000000000E6FF01790000000000868D
:10591C00FF0187000000000078FF018800000000F4
:10592C000000434F3252656164657200636F322030
:10593C00757000636363636363636363636363636F
:10594C006363636363636363636363636363256458
:10595C0000636F3220646F6E65206269742073651A
:10596C0074004465766963650064657669636520D7
:10597C007570006465766963652068617320736572
:10598C007420626974730064657669636520676F5F
:10599C007420646F6E652062697400434F32206915
:1059AC00733A2025750A0054656D706572617475C3
:1059BC0072652069733A2025640A0048756D696424
:1059CC006974792069733A2025750A00536F756ED6
:1059DC00642069733A2025750A0048756D416E6420
:1059EC0054656D705265616465720068756D6964AB
:1059FC0069747920616E642074656D706572617470
:105A0C007572652072656164790068756D69646989
:105A1C00747920616E642074656D70657261747543
:105A2C00726520646F6E6520626974207365740002
:105A3C00736F756E6452656164657200736F756E19
:105A4C006452656164657220757000536F756E6485
:105A5C0052656164657220646F6E652062697420A2
:105A6C007365740049444C4500546D722053766341
:105A7C000050726F6772616D20537461727465644B
:0C5A8C0021210048414C5F4C45440000C3
:00000001FF
