:1000000050C200006FC200006DC200006BC2000051
:1000100069C2000067C2000065C2000063C2000040
:1000200061C200005FC200005DC200005BC2000050
:100030000C94170E57C2000055C2000053C20000B6
:1000400051C200004FC200004DC200004BC2000070
:1000500049C2000047C2000045C2000043C2000080
:1000600041C200000C94D4280C9426293BC2000005
:1000700039C2000037C2000035C2000033C20000A0
:1000800031C200002FC200002DC200002BC20000B0
:100090000C946A290C94BC2925C200000C94542CA1
:1000A00021C200001FC200001DC200001BC20000D0
:1000B00019C2000017C2000015C2000013C20000E0
:1000C00011C200000FC200000DC200000C94002AF3
:1000D0000C94522A07C200000C94962A0C94E82A29
:1000E00001C20000C601C601C601000208021E02CC
:1000F000C601C60100020802762CE62CE62CE62C8E
:10010000E62CE62CE62CE62C762CE62CE62CE62CCF
:10011000E62CE62CE62CE62C782CE62CE62CE62CBD
:10012000E62CE62CE62CE62CE62CE62CE62CE62C3F
:10013000E62CE62CE62CE62C782CE62CE62CE62C9D
:10014000E62CE62CE62CE62CE62CE62CE62CE62C1F
:10015000E62CE62CE62CE62CE22CE62CE62CE62C13
:10016000E62CE62CE62CE62CAD2CE62CE62CE62C38
:10017000E62CE62CE62CE62CE62CE62CE62CE62CEF
:10018000E62CE62CE62CE62CA12CE62CE62CE62C24
:10019000E62CE62CE62CE62CC52C07E518E10F2E04
:1001A000F7E8EF2EF8E1FF2EF02D80915618882306
:1001B00029F10FB6F8940F92D8011796ED91FC91A2
:1001C0001897C085D185CE0102960E947C0C809143
:1001D0004A18815080934A18809156188150809314
:1001E00056180F900FBE8B8D9C8D0E94D80BCE01A0
:1001F0000E94D80B809156188111DBCFF7018081C6
:10020000823010F00E94510D0E94691ECECFCF9314
:10021000DF93CDB7DEB760970FB6F894DEBF0FBEA1
:10022000CDBFCE0101969A878987812C912CA12C74
:10023000B12C69847A84E091BF18F091C018808154
:10024000882309F414C10780F085E02D20803180D7
:10025000428053800E94AE16CE0101960E94D31DAB
:100260006B877C878D879E878981811167C08B858D
:100270009C85AD85BE8582159305A405B50508F45A
:1002800045C00E949717E091BF18F091C0180780F1
:10029000F085E02DA085B185B88BAF87CD010296A2
:1002A0000E947C0CEF85F889878982FF21C04685F2
:1002B000578560897189420D531D641D751D72013A
:1002C00061010B851C852D853E85CF010E94E21CB6
:1002D000882399F0C82CD92CEA2CFB2C00E010E0E4
:1002E000A201910160E08F8598890E94751D05C06B
:1002F0008E7FAF85B88957968C93AF85B889549611
:10030000ED91FC915597CD011995A2C020E0B20165
:10031000A1018B859C85AD85BE85481B590B6A0B59
:100320007B0B8091BB189091BC180E94B3110E9466
:10033000971781118DC00E94510D8AC00E94971796
:1003400087C0898188230CF483C04E805F80D201EE
:100350001C968D919C911D97892B21F0C2010296CC
:100360000E947C0CCE0108960E94D31D8B019C013B
:10037000E9810E2E000CFF0BEA30F10508F068C091
:100380008827EE58FF4F8F4F0C94512FF201878929
:100390008160878BCA80DB80EC80FD804685578535
:1003A000608971894C0D5D1D6E1D7F1DC2010E940B
:1003B000E21C882309F44CC0D2015496ED91FC91C3
:1003C0005597C2011995F201878982FF41C04A8180
:1003D0005B816C817D8186859785A089B1899A0131
:1003E000AB01280F391F4A1F5B1FC82CD92CEA2CE0
:1003F000FB2C00E010E060E0C2010E94751D28C0E7
:10040000D20157968C9157978E7F57968C9320C028
:10041000F20187898160878B4A815B816C817D8154
:1004200046875787608B718B400F511F621F731F68
:1004300068017901C2010E94E21C0AC0F2018789A9
:1004400081FD04C0C2010E94D80B02C08E7F878B41
:10045000282D392D4A2D5B2D662D772D8091BB18C7
:100460009091BC180E944F1081116BCFE4CE0E9476
:10047000AE16CE0101960E94D31D6B877C878D87B7
:100480009E87898181115ACFE091BD18F091BE18E5
:10049000808121E0811120E0282C392C4A2C5B2C12
:1004A00036CF11241FBECFEFD1E2DEBFCDBF00E0BB
:1004B0000CBF17E0A0E0B2E0E6E7F9E600E00BBF12
:1004C00002C007900D92A03BB107D9F72AE1A0EB3B
:1004D000B7E001C01D92A537B207E1F70E944D1F9A
:1004E0000C94B9348DCDFC010FB6F8946091711A5B
:1004F0007091721A8091731A9091741A0FBE30978E
:1005000021F0608371838283938308952F923F92B9
:100510004F925F926F927F928F929F92AF92BF9213
:10052000CF92DF92EF92FF920F931F93CF93DF93BF
:10053000D82FC62F1A0128013901870164E070E025
:1005400081E090E00E946D2F4C01892B69F1F4014C
:10055000119211927F013092BB072092BA0740920C
:10056000B6075092B7076092B8077092B907109318
:10057000B5070093B407A092B007B092B107C0923C
:10058000B207D092B30760E070E083E00E940B27CF
:100590004C2F50E048535F4F0D2F940162E772E0FB
:1005A0008BE393E00E945315C401DF91CF911F911B
:1005B0000F91FF90EF90DF90CF90BF90AF909F9002
:1005C0008F907F906F905F904F903F902F90089505
:1005D000CF92DF92EF92FF920F931F93CF93DF930F
:1005E000EC014091B6075091B7076091B807709140
:1005F000B907CC24CA94DC2C760101E021E080917B
:10060000BA079091BB0775D60091B6071091B7074E
:100610002091B8073091B907DC01CB0180239123E9
:10062000A223B323081719072A073B07D9F40E940E
:100630003927182F6CE271E080E090E00E941318D7
:10064000111103C0CE010E9468274091B00750915C
:10065000B1076091B2077091B3078091B407909190
:10066000B50707D7DF91CF911F910F91FF90EF90C2
:10067000DF90CF900895EC01CE01AADFFDCFFC0101
:1006800080819181089581E08093BF071092BE0719
:100690000E94FB0F9093BD078093BC0708950F93B2
:1006A000CF932091BC073091BD0721153105B1F0E2
:1006B000C82F4FEF5FEFBA01C9010E94E710C09346
:1006C000BF0700E020E030E0A90160E070E0809129
:1006D000BC079091BD070E945B0F02C08093BF07CB
:1006E000CF910F9108950F93CF93DF932091BC0783
:1006F0003091BD0721153105B9F0EC014FEF5FEFE7
:10070000BA01C9010E94E7108091BF07888300E009
:1007100020E030E0A90160E070E08091BC0790919A
:10072000BD070E945B0F04C02091BF07FC0120831E
:10073000DF91CF910F9108950F93CF932091BC0734
:100740003091BD0721153105B1F0C82F4FEF5FEF94
:10075000BA01C9010E94E710C093BE0700E020E083
:1007600030E0A90160E070E08091BC079091BD0786
:100770000E945B0F02C08093BE07CF910F91089536
:100780000F93CF93DF932091BC073091BD072115C4
:100790003105B9F0EC014FEF5FEFBA01C9010E94DA
:1007A000E7108091BE07888300E020E030E0A901D7
:1007B00060E070E08091BC079091BD070E945B0FE4
:1007C00004C02091BE07FC012083DF91CF910F91DF
:1007D000089568E070E081E090E00E946D2F00973E
:1007E00049F0FC0113821282158214821182108258
:1007F000178216820895009749F09B01285C310901
:100800002934364218F4FC017183608308950097FF
:1008100039F0693E23E0720718F4FC0175836483A4
:100820000895009749F09B0120573E4F273B3340E6
:1008300018F4FC01738362830895009731F06739DF
:10084000710518F4FC01778366830895FC01DB01D0
:1008500012966C91129713967C91139714964C9163
:10086000149715965C9115972C9111963C911197C0
:1008700016968C91169717969C91A1E0A083A8E0FC
:10088000A183728363835483458336832783908750
:100890008187CF01089521E0FC01208322E021839C
:1008A0001282138208952F923F924F925F926F921D
:1008B0007F928F929F92AF92BF92CF92DF92EF92F0
:1008C000FF920F931F93CF93DF9300D01F92CDB76A
:1008D000DEB7282E362E5C834B83280139016AE06F
:1008E00070E081E090E00E946D2F9A8389830097E9
:1008F00009F440C0FC01918280828A8D9B8D938394
:1009000082838C8D9D8D9583848363DFE981FA8159
:10091000978386838B819C819093E3078093E20782
:100920004092DE075092DF076092E0077092E10785
:10093000F092DD07E092DC07A092D807B092D907C9
:10094000C092DA07D092DB078E8D9F8D9093D707E8
:100950008093D607432D50E048535F4F7F0198E0C6
:10096000E90EF11C022D9F016CE772E08FED95E01E
:100970000E94531589819A810F900F900F900F90CC
:10098000DF91CF911F910F91FF90EF90DF90CF906B
:10099000BF90AF909F908F907F906F905F904F909F
:1009A0003F902F900895AF92BF92CF92DF92EF9237
:1009B000FF920F931F93CF93DF93CDB7DEB7669768
:1009C0000FB6F894DEBF0FBECDBF5C0181E090E0B2
:1009D00036D68C0188DEF8018081882309F4BCC0FA
:1009E00081E090E02CD68C01CBDEF8018081882359
:1009F00011F06DD201C070D24091DE075091DF0737
:100A00006091E0077091E1078091E2079091E30720
:100A100030D54091D8075091D9076091DA0770918D
:100A2000DB07CC24CA94DC2C760101E021E0809124
:100A3000DC079091DD075DD40091D8071091D907AC
:100A40002091DA073091DB07DC01CB018023912371
:100A5000A223B323081719072A073B0709F09EC0F2
:100A6000F501808191810BDEBC01F50186819781C2
:100A7000C2DEF50184819581E8D2BC01F501868151
:100A80009781DBDEF501828193811AD2BC01F501E9
:100A900086819781C6DEF501828193810DD2BC01EA
:100AA000F50186819781B3DEF50180819181E7DDD3
:100AB0009F938F9383E892E09F938F930E9460317E
:100AC000F50182819381FCD19F938F938FE892E00F
:100AD0009F938F930E946031F50182819381ECD1C5
:100AE0009F938F9383EA92E09F938F930E9460314C
:100AF000F50184819581A9D29F938F9384EB92E035
:100B00009F938F930E946031F50166817781CE01BA
:100B100001969CDE86E1FE013196A0ECB7E00190E3
:100B20000D928A95E1F70FEF1FEF980146E150E033
:100B300060EC77E08091D6079091D7070E9423134D
:100B400060E375E780E090E00E9413180FB6F89418
:100B5000DEBF0FBECDBF22C0F50166817781CE0119
:100B6000019699DE86E1FE013196A0ECB7E0019096
:100B70000D928A95E1F70FEF1FEF980146E150E0E3
:100B800060EC77E08091D6079091D7070E942313FD
:100B900060E375E780E090E00E94131866960FB658
:100BA000F894DEBF0FBECDBFDF91CF911F910F91A3
:100BB000FF90EF90DF90CF90BF90AF900895EC0141
:100BC000CE01F1DEFDCFEF92FF920F939A0170E01C
:100BD000AB0148535F4FE12CF12C082F62EC72E01F
:100BE0008BE896E00E9453150F91FF90EF900895C7
:100BF0000F931F93CF93DF930FEF1FEF980146E101
:100C000050E064EE77E00E941014C4EED7E08981D2
:100C10001F928F938B811F928F938A811F928F9344
:100C20008BEC92E09F938F930E9460318DB79EB7BB
:100C300008960FB6F8949EBF0FBE8DBF8981823093
:100C400009F064C0FE01CA818381C80F81E090E091
:100C5000F6D48C01C537E9F018F4C43739F052C026
:100C6000C63851F1C73809F43AC04CC080E017DDEE
:100C7000C80139DDF80180811F928F938CEF92E0DB
:100C80009F938F930E9460310F900F900F900F9061
:100C90003DC081E004DDC80126DDF80180811F929E
:100CA0008F938CEF92E09F938F930E9460310F900F
:100CB0000F900F900F902AC080E03EDDC80160DDEC
:100CC000F80180811F928F938EE193E09F938F9321
:100CD0000E9460310F900F900F900F9017C081E02D
:100CE0002BDDC8014DDDF80180811F928F938EE1CD
:100CF00093E09F938F930E9460310F900F900F901D
:100D00000F9004C085E493E00E947331DF91CF918E
:100D10001F910F910895EC01CE016ADFFDCF2F9254
:100D20003F924F925F926F927F928F929F92AF927B
:100D3000BF92CF92DF92EF92FF920F931F93CF93C8
:100D4000DF93882E962E1A012801390166E070E0A3
:100D500081E090E00E946D2FEC01892B71F11982E6
:100D600018821B821A823092050820920408409251
:100D70000008509201086092020870920308F092F5
:100D8000FF07E092FE07A092FA07B092FB07C0921D
:100D9000FC07D092FD070E94B51F492D50E0485333
:100DA0005F4F7E0184E0E80EF11C082D9E0165E591
:100DB00073E088E597E00E945315CE01DF91CF9153
:100DC0001F910F91FF90EF90DF90CF90BF90AF9069
:100DD0009F908F907F906F905F904F903F902F905B
:100DE0000895CF92DF92EF92FF920F931F93CF93CC
:100DF000DF93EC01409100085091010860910208D6
:100E000070910308CC24CA94DC2C760101E021E027
:100E100080910408909105086CD20091000810910F
:100E200001082091020830910308DC01CB018023E6
:100E30009123A223B323081719072A073B0779F543
:100E40000E94D01F62E370E080E090E00E941318DF
:100E50000E94E51F65E070E080E090E00E941318BA
:100E60000E94CD1F882341F00E940B209983888324
:100E70000E9431209B838A8368EE73E080E090E0DB
:100E80000E9413184091FA075091FB076091FC07EC
:100E90007091FD078091FE079091FF07EAD2DF91E4
:100EA000CF911F910F91FF90EF90DF90CF90089519
:100EB000EC01CE0196DFFDCFFC0180819181089588
:100EC000FC018281938108950C949127089564E632
:100ED00080E00C94792708956CE980E00C947927E0
:100EE00008952F923F924F925F926F927F928F92CE
:100EF0009F92AF92BF92CF92DF92EF92FF920F93A9
:100F00001F93CF93DF93882E962E1A012801390163
:100F100064E070E081E090E00E946D2FEC010097AA
:100F200041F1FC01119211923092110820921008A7
:100F300040920C0850920D0860920E0870920F08B3
:100F4000F0920B08E0920A08A0920608B0920708F7
:100F5000C0920808D0920908492D50E048535F4FCD
:100F60007F01082D9C0166E673E081E298E00E9413
:100F70005315CE01DF91CF911F910F91FF90EF900C
:100F8000DF90CF90BF90AF909F908F907F906F90A9
:100F90005F904F903F902F900895CF92DF92EF9205
:100FA000FF920F931F93CF93DF93EC0140910C08B6
:100FB00050910D0860910E0870910F08CC24CA94CE
:100FC000DC2C760101E021E080911008909111085D
:100FD00090D100910C0810910D0820910E083091CD
:100FE0000F08DC01CB0180239123A223B323081730
:100FF00019072A073B07E1F480E090E074DACB019F
:101000000E94F2300E94EF3069E670E00E941C2FCF
:101010000F96998388834091060850910708609144
:1010200008087091090880910A0890910B0821D254
:10103000DF91CF911F910F91FF90EF90DF90CF90B4
:101040000895EC01CE01A9DFFDCFFC0180819181E3
:101050000895EF92FF920F939A0170E0AB0148530D
:101060005F4FE12CF12C082F62E773E082E599E0F5
:101070000E9453150F91FF90EF900895DF92EF9229
:10108000FF920F931F93CF93DF937C0180911208FF
:101090008111CFC081E00E94512362E070E080E0C6
:1010A00090E00E94131880E00E94512366E970E0EE
:1010B00080E090E00E9413180E94072381E00E94C4
:1010C0005F210E9465230E94E2259F938F938BE707
:1010D00093E09F938F930E9460310E94E3240E94CB
:1010E000E2259F938F938EE893E09F938F930E94C6
:1010F000603189E298E00E9477230E94E225C9E2EC
:10110000D8E0DF93CF939F938F9387EA93E09F93E9
:101110008F930E946031CE010E9493230E94E225AA
:101120009F938F93DF93CF938BEB93E09F938F935A
:101130000E946031AE0160ED73E081EF93E00E94A8
:10114000C1250E94E2259F938F93DF93CF9380ED7B
:1011500093E09F938F9381EF93E09F938F9382E02F
:1011600094E09F938F930E9460310E94C6230E9457
:10117000E2259F938F9388E394E09F938F930E943F
:1011800060318DB79EB782960FB6F8949EBF0FBEA2
:101190008DBF81E00E94C0240E94E2259F938F931F
:1011A00087E494E09F938F930E94603184EF91E0F5
:1011B0000E94CB240E94E2259F938F9381E08F931E
:1011C00084EF8F9388E694E09F938F930E94603121
:1011D0008DB79EB70A960FB6F8949EBF0FBE8DBF0F
:1011E000CAE0D0E008E814E080E00E94CC23D82ECA
:1011F0000E94E2259F938F93DF93CF931F930F93CA
:101200000E9460310F900F900F900F900F900F90F1
:1012100088E0D81689F180E00E94CB2166E371E076
:1012200080E090E00E9413182197F1F62CC039D489
:10123000FECF00E010E0980142E350E063E178E087
:10124000C7010E941014029728F183E00E94DD215B
:1012500063E178E080E00E94F5230E94E2259F93FD
:101260008F9388EA94E09F938F930E9460310F9050
:101270000F900F900F900EC081E00E94AD2181E091
:1012800080931208D6CF81E00E94BC2180E00E94AA
:101290008621CDCFDF91CF911F910F91FF90EF90DD
:1012A000DF900895EC01CE01E9DEFDCFE8E0F1E04A
:1012B0009081907F908390818F70982B9083089578
:1012C000E8E0F1E08081807F80830895CF93DF9311
:1012D00080E190E0B4D1EC01009739F0FC0111926B
:1012E000119211921192CF0194D2CE01DF91CF9140
:1012F00008952F923F924F925F926F927F928F92BA
:101300009F92AF92BF92CF92DF92EF92FF920F9394
:101310001F93CF93DF93EC014A015B01622E702E85
:101320000E94AE16288039804A805B8001110DC072
:1013300081E0B201A101482159216A217B21452B7D
:10134000462B472B79F480E00DC081E0B201A1016A
:10135000482159216A217B21481559056A057B05D9
:1013600009F080E0882381F0662009F46BC0809446
:101370009094A094B09482209320A420B5208882D9
:101380009982AA82BB825EC0C114D104E104F10437
:1013900009F458C0662029F040E050E060E071E0B8
:1013A00003C040E050E0BA01711074604829592927
:1013B0006A297B2997018601CE0104960E94C218F2
:1013C0000E949717811101C06CD30E94091B91FDE7
:1013D00035C00FB6F8940F92688179818A819B811C
:1013E00071100DC021E075016401C622D722E822E8
:1013F000F922CD28CE28CF2879F420E00DC021E0B5
:1014000075016401C622D722E822F922C814D90442
:10141000EA04FB0409F020E0222371F0662061F069
:1014200080949094A094B09486229722A822B92206
:1014300088829982AA82BB820F900FBE1B012C0169
:10144000552402C00E949717C201B101DF91CF91CC
:101450001F910F91FF90EF90DF90CF90BF90AF90D2
:101460009F908F907F906F905F904F903F902F90C4
:1014700008954F925F926F927F928F929F92AF9258
:10148000BF92CF92DF92EF92FF920F931F93CF9371
:10149000DF93EC016A017B018C01095F1F4F0E9401
:1014A000AE16EB85FC8588819981AA81BB81C82A0B
:1014B000D92AEA2AFB2AC882D982EA82FB820E173D
:1014C0001F0709F445C0C12CD12C760199249394AF
:1014D000812CA480B58080819181A281B381AC01EF
:1014E000BD017727B2FD0FC0488059806A807B809C
:1014F0004422552266227722292D4528462847284E
:1015000089F4282D0FC0488059806A807B8044224E
:10151000552266227722292D44165506660677063F
:1015200009F0282D222371F0B0FF04C0C42AD52A67
:10153000E62AF72A488159816A817B817260CF014E
:101540000E944819EA2DFB2D0E171F0711F603C044
:10155000C12CD12C7601C094D094E094F094888171
:101560009981AA81BB81C822D922EA22FB22C882A2
:10157000D982EA82FB820E949717688179818A81E9
:101580009B81DF91CF911F910F91FF90EF90DF90A2
:10159000CF90BF90AF909F908F907F906F905F9013
:1015A0004F900895CF93DF93DC01E5E9F8E001C0A7
:1015B000F901208131812A173B07D0F38281938181
:1015C000AF01480F591FA417B50749F412964D9162
:1015D0005C911397840F951F93838283DF0112968A
:1015E0008D919C911397ED01C80FD91F2C173D07C2
:1015F000D9F42091930830919408C217D30781F051
:101600002A813B81820F931F13969C938E9312978E
:10161000C081D1818881998111969C938E9307C056
:101620001196DC93CE9303C011963C932E93AE1784
:10163000BF0711F0B183A083DF91CF910895CF92BE
:10164000DF92EF92FF920F931F93CF93DF93EC0102
:101650000E94AE168091930890919408892B41F5D1
:10166000E5E9F8E0A9E9B8E0B183A083138212822A
:10167000E5E3F8E1F0939408E09393081382128273
:10168000118210828CE99FE013969C938E9312979F
:10169000ED93FC939093900880938F089093920819
:1016A0008093910880E090E890938E0880938D0855
:1016B000E0908D08F0908E08C7018C239D23892B24
:1016C00009F066C0209709F466C0AE014C5F5F4F19
:1016D00009F45EC000919108109192080417150753
:1016E00008F456C0C0919508D0919608E5E9F8E055
:1016F00002C0FE01E9012A813B812417350728F445
:101700002881398121153105A1F7809193089091A5
:101710009408C817D907E1F1C080D18084E0C80ED1
:10172000D11C88819981918380832A813B81241BEC
:10173000350B2930310548F0CE01840F951FFC018F
:10174000338322835B834A832DDF8A819B81081B3D
:10175000190B109392080093910820918F083091F3
:1017600090080217130720F41093900800938F0835
:10177000E82AF92AFB82EA82198218820E949717C6
:10178000C114D10459F40E946A1EC12CD12C06C088
:101790000E949717F8CF0E949717F5CFC601DF91E7
:1017A000CF911F910F91FF90EF90DF90CF90089510
:1017B000CF93DF93009751F1FC013497228133815D
:1017C00040918D0850918E08B90164237523672BD1
:1017D000E9F060817181672BC9F4EF014095509564
:1017E00024233523338322830E94AE16209191084F
:1017F000309192088A819B81820F931F9093920867
:1018000080939108CE01CEDE0E949717DF91CF9191
:101810000895FC010396928381834FEF5FEFBA0135
:1018200043835483658376839087878392878187F8
:1018300010820895FC01138612860895CF93DF93DA
:101840009C01FB01DC011196CD91DC911297D583AF
:10185000C4838E819F81978386838E819F81DC01E3
:1018600015967C936E9314977F836E8333872287BC
:10187000F90180818F5F8083DF91CF9108950F936D
:101880001F93CF93DF93EB01088119812A813B815C
:101890000F3F4FEF14072407340721F4FC01A18503
:1018A000B28511C0DC01139601C0DF011496ED91E1
:1018B000FC9115974081518162817381041715074E
:1018C0002607370790F71496ED91FC911597FD8345
:1018D000EC83D783C683BF83AE831596DC93CE9308
:1018E00014979B878A87FC0120812F5F2083DF91DB
:1018F000CF911F910F910895CF93DF93FC01A285A3
:10190000B385C481D581868197819F838E83C6816B
:10191000D781848195819D838C8311968D919C9133
:101920001297E817F90731F48681978112969C93F4
:101930008E931197138612868C9181508C938C9183
:10194000DF91CF91089531E1FC013083319722E29C
:1019500020833197A3E3A08331976083319770830D
:101960003197108231971082319760E86083319708
:1019700010823197108231971082319762E0608334
:10198000319763E06083319764E06083319765E06D
:101990006083319766E06083319767E060833197B9
:1019A00068E06083319769E06083319760E160832C
:1019B00031973083319732E13083319733E130838F
:1019C000319734E13083319735E13083319736E117
:1019D0003083319737E13083319738E13083319765
:1019E00039E13083319730E23083319731E230830F
:1019F00031972083319723E22083319740833197B9
:101A00005083319726E22083319727E22083319754
:101A100028E22083319729E22083319720E3208335
:101A2000319721E3208389970895A89590EC88E168
:101A30000FB6F894A895809360000FBE9093600055
:101A4000A091B318B091B418CD91CDBFDD91DEBF98
:101A5000FF91EF91DF91CF91BF91AF919F918F91C6
:101A60007F916F915F914F913F912F911F910F91B6
:101A7000FF90EF90DF90CF90BF90AF909F908F90AE
:101A80007F906F905F904F903F902F901F900F909E
:101A90000CBE0F900BBE0F900FBE0F90089581E00B
:101AA00008950F920FB6F8940F920BB60F920CB6E2
:101AB0000F921F9211242F923F924F925F926F923A
:101AC0007F928F929F92AF92BF92CF92DF92EF92CE
:101AD000FF920F931F932F933F934F935F936F93B7
:101AE0007F938F939F93AF93BF93CF93DF93EF93A6
:101AF000FF93A091B318B091B4180DB60D920EB625
:101B00000D920E942C18A091B318B091B418CD91E9
:101B1000CDBFDD91DEBFFF91EF91DF91CF91BF91FE
:101B2000AF919F918F917F916F915F914F913F9175
:101B30002F911F910F91FF90EF90DF90CF90BF906A
:101B4000AF909F908F907F906F905F904F903F905D
:101B50002F901F900F900CBE0F900BBE0F900FBEDA
:101B60000F9008950F920FB6F8940F920BB60F9244
:101B70000CB60F921F9211242F923F924F925F92B8
:101B80006F927F928F929F92AF92BF92CF92DF928D
:101B9000EF92FF920F931F932F933F934F935F9377
:101BA0006F937F938F939F93AF93BF93CF93DF9365
:101BB000EF93FF93A091B318B091B4180DB60D92A6
:101BC0000EB60D9213BE0E94C21681110E942C18EF
:101BD000A091B318B091B418CD91CDBFDD91DEBF07
:101BE000FF91EF91DF91CF91BF91AF919F918F9135
:101BF0007F916F915F914F913F912F911F910F9125
:101C0000FF90EF90DF90CF90BF90AF909F908F901C
:101C10007F906F905F904F903F902F901F900F900C
:101C20000CBE0F900BBE0F900FBE0F9008959ADF61
:101C300018950FB6F8940F92FC01968D0F900FBE79
:101C400081E0911180E008950F931F93CF93DF936C
:101C5000EC01042F1E8D48A141110CC0888199818F
:101C6000892B09F042C08C819D810E947D1A1D82C2
:101C70001C8242C0011117C050E08A819B810E94E2
:101C8000013128A18A819B81820F911D9B838A83C8
:101C90002C813D818217930750F1888199819B8324
:101CA0008A8380E029C050E08E819F810E940131AB
:101CB00088A190E09195819591092E813F81280F0F
:101CC000391F3F832E83488159812417350730F40B
:101CD0002C813D81820F931F9F838E83023049F4B4
:101CE000112349F0115080E007C080E005C080E07A
:101CF00003C080E001C080E01F5F1E8FDF91CF91A5
:101D00001F910F910895FC0140A14423A9F050E0D8
:101D100026813781240F351F37832683848195815F
:101D20002817390720F08081918197838683CB0122
:101D3000668177810C9401310895EF92FF920F93A1
:101D40001F93CF938C010FB6F8940F92FC01C2A1A0
:101D50001C16ACF48389811106C011C0F801838977
:101D6000811105C00CC07801F3E1EF0EF11CC70131
:101D70000E94061981110E94F819C15079F78FEF5E
:101D8000F80182A30F900FBE0FB6F8940F92C1A175
:101D90001C16ACF48085811106C011C0F801808545
:101DA000811105C00CC07801F8E0EF0EF11CC701ED
:101DB0000E94061981110E94F819C15079F78FEF1E
:101DC000F80181A30F900FBECF911F910F91FF904B
:101DD000EF900895CF93DF93EC010FB6F8940F9234
:101DE000E881F9818F8D28A190E030E0829FA001E9
:101DF000839F500D929F500D11244E0F5F1F5D83E6
:101E00004C831E8EFB83EA830197829FA001839FF0
:101E1000500D929F500D1124CF01840F951F9F8369
:101E20008E838FEF89A38AA361110BC088858823D5
:101E300071F0CE0108960E940619882341F031DE28
:101E400006C0CE010896E5DCCE014396E2DC0F9099
:101E50000FBE81E0DF91CF910895FF920F931F9302
:101E6000CF93DF93082F162FF42E6623B9F0869FA9
:101E7000C00111248596E3DBEC01009741F414C006
:101E80000F8F18A361E0CE01A5DFFCA20DC08596DF
:101E900099838883F5CFD983C883F2CF85E290E018
:101EA000CEDBEC01892BB9F7CE01DF91CF911F91E9
:101EB0000F91FF9008959F92AF92BF92CF92DF92C1
:101EC000EF92FF920F931F93CF93DF93CDB7DEB7BF
:101ED00029970FB6F894DEBF0FBECDBF7C015B0122
:101EE0002E833F834887598710E0992493946C018F
:101EF00088E0C80ED11C0FB6F8940F92F701968DAA
:101F0000878D981710F00230B1F4402FB501C7014A
:101F10009BDEF7019389992341F0C70143960E9404
:101F20000619882321F0BDDD02C08111BADD0F90B2
:101F30000FBE81E04EC08E819F81A885B985892B17
:101F40008A2B8B2B21F40F900FBE80E042C0111121
:101F500005C0CE0101960E949219192D0F900FBE57
:101F6000FDD60FB6F8940F92F70181A18F3F09F4C7
:101F700011A2F70182A18F3F09F412A20F900FBEA8
:101F8000BE016A5F7F4FCE0101960E94A3198111A5
:101F90001CC00FB6F8940F92F701968D878D0F90A5
:101FA0000FBE98130EC04E815F8168857985C6018A
:101FB0000E94AB18C701C1DEBAD781119CCF71DD79
:101FC0009ACFC701BADEB3D796CFC701B6DEAFD777
:101FD00080E029960FB6F894DEBF0FBECDBFDF912B
:101FE000CF911F910F91FF90EF90DF90CF90BF9016
:101FF000AF909F9008950F93CF93DF93482F60E0A9
:1020000081E02BDFEC01009761F01D821C821982B8
:1020100018821E8200E020E030E0A90160E070E05C
:102020004ADFCE01DF91CF910F910895EF92FF9299
:102030000F931F93CF93DF938A01FC01568D378D49
:10204000531710F02230E9F4422F7801EC011AA165
:10205000FBDD1F3F81F48B898823A9F0CE014396D5
:102060000E940619882389F0E114F10481F081E0CF
:10207000F70180830DC0FF24F394F10EFAA281E0F2
:1020800007C080E005C081E003C081E001C081E0BD
:10209000DF91CF911F910F91FF90EF9008959F9244
:1020A000AF92BF92CF92DF92EF92FF920F931F9366
:1020B000CF93DF93CDB7DEB729970FB6F894DEBF85
:1020C0000FBECDBF8C015B012E833F8348875987AC
:1020D000E12C992493946C0183E1C80ED11C0FB6B6
:1020E000F8940F92F801F68CFF2099F0B501C80121
:1020F0000ADEFA94F801F68E8085882331F0C80153
:1021000008960E9406198111CCDC0F900FBE81E069
:102110004CC08E819F81A885B985892B8A2B8B2BFA
:1021200021F40F900FBE80E040C0E11005C0CE0149
:1021300001960E949219E92C0F900FBE0FD60FB690
:10214000F8940F92F80181A18F3F09F411A2F801D0
:1021500082A18F3F09F412A20F900FBEBE016A5FE9
:102160007F4FCE0101960E94A319811115C0C801AD
:1021700060DD882369F04E815F8168857985C601BD
:10218000EAD7C801DADDD3D68111A9CF8ADCA7CF7F
:10219000C801D3DDCCD6A3CFC801CFDDC8D6C801D6
:1021A00048DD882309F49BCF80E029960FB6F89488
:1021B000DEBF0FBECDBFDF91CF911F910F91FF907A
:1021C000EF90DF90CF90BF90AF909F900895BF9217
:1021D000CF92DF92EF92FF920F931F93CF93DF93F3
:1021E000CDB7DEB729970FB6F894DEBF0FBECDBFCF
:1021F0008C014E835F8368877987B12CD12CCC24E6
:10220000C3947C0183E1E80EF11C0FB6F8940F92A1
:10221000D8015E968C915E978823D9F081505E96A6
:102220008C935E978D919C91892B29F40E94311B90
:10223000F80195838483D80118968C91882329F01E
:10224000C8010896E3D781112CDC0F900FBE81E006
:102250007AC08E819F81A885B985892B8A2B8B2B8B
:1022600021F40F900FBE80E06EC0D11005C0CE01EA
:1022700001960E949219DC2C0F900FBE6FD50FB6FD
:10228000F8940F92F80181A18F3F09F411A2D801AF
:1022900092968C9192978F3F11F492961C920F9088
:1022A0000FBEBE016A5F7F4FCE0101960E94A31947
:1022B000811124C0C801BDDC8823E1F0F8018081D0
:1022C0009181892B51F40FB6F8940F9284819581F6
:1022D0000E940F1AB82E0F900FBE4E815F81688545
:1022E0007985C70138D7C80128DD21D681118DCF66
:1022F000D8DB8BCFC80121DD1AD687CFC8011DDD01
:1023000016D6C80196DC882309F47FCFBB20D1F014
:102310000FB6F8940F92F8018389882339F0028C64
:10232000F38DE02D808164E0681B01C060E0D8017E
:1023300014968D919C9115970E94BD1A0F900FBE17
:1023400080E001C080E029960FB6F894DEBF0FBE92
:10235000CDBFDF91CF911F910F91FF90EF90DF9054
:10236000CF90BF900895CF93DF93EC010FB6F89410
:102370000F9289A18F3F09F419A28AA18F3F09F416
:102380001AA20F900FBE8E8D811103C0CE0143960D
:102390001DD7CE01D2DCDF91CF910895FC0144819D
:1023A000558122813381240F351F80819181B901AC
:1023B000681B790BCB016417750710F0841B950B14
:1023C0000895AF92BF92CF92DF92EF92FF920F9358
:1023D0001F93CF93DF936C015B017A01FC01C281F3
:1023E000D381048115810C1B1D0B4017510708F484
:1023F0008A01F60184859585A801B5018C0F9D1F82
:102400000E9401310E151F0558F4A701401B510B06
:10241000B501600F711FF601848595850E94013119
:10242000CE018E0D9F1DF601248135818217930701
:1024300010F0821B930BF60193838283C701DF9117
:10244000CF911F910F91FF90EF90DF90CF90BF90B1
:10245000AF900895CF92DF92EF92FF920F931F9368
:10246000CF93DF931F921F92CDB7DEB75A83498374
:1024700021153105C9F06B017C01FC01868580FDC9
:1024800008C0CA012417350708F4C9019A83898353
:1024900011C02017310758F042E050E0BE016F5FD5
:1024A0007F4FC7018EDF06C080E090E008C080E06B
:1024B00090E005C049815A81B601C70182DF0F90C3
:1024C0000F90DF91CF911F910F91FF90EF90DF90D0
:1024D000CF900895AF92BF92CF92DF92EF92FF928A
:1024E0000F931F93CF93DF937C015B01E9014217A8
:1024F000530708F4EA01209779F1F701008111816F
:10250000C480D580C01AD10ACC15DD0508F46E014F
:10251000F70164857585600F711FA601C5010E94D2
:102520000131CC16DD0658F4AE014C195D09F701F6
:1025300064857585C5018C0D9D1D0E9401310C0FB0
:102540001D1FF701848195810817190710F0081BDA
:10255000190BF70111830083CE01DF91CF911F91F9
:102560000F91FF90EF90DF90CF90BF90AF900895C4
:10257000EF92FF921F93CF93DF93EB0111E0413075
:1025800009F010E0209711F4C1E0D0E07C012FEFBA
:10259000E21AF20A419653D8009781F020E1FC013B
:1025A00011922A95E9F79C01205F3F4FFC01358786
:1025B0002487F582E482D783C6831687DF91CF9183
:1025C0001F91FF90EF900895CF93DF93FC01278533
:1025D0000FB6F8940F9280859185892BD1F482856E
:1025E0009385892BC1F486854681578164817581E5
:1025F000A485B58590E1EF0119929A95E9F7B58721
:10260000A48775836483578346838687278781E001
:1026100003C080E001C080E00F900FBEDF91CF913A
:102620000895FC012481358180819181428153810B
:10263000820F931F0197841B950B8217930710F04D
:10264000821B930B08952F923F924F925F926F924D
:102650007F928F929F92AF92BF92CF92DF92EF9232
:10266000FF920F931F93CF93DF93CDB7DEB72997D8
:102670000FB6F894DEBF0FBECDBF5C011B012A016F
:102680000E831F8328873987FC01868580FF05C05C
:102690003A01F2E06F0E711C01C03A018E819F81F8
:1026A000A885B985892B8A2B8B2B09F434C0CE01E0
:1026B000019622D60FB6F8940F92C501B2DF4C01F5
:1026C0008615970518F580E090E00E94CE1C94D600
:1026D000F501938782870F900FBECE80DF80E8845C
:1026E000F98400E010E020E030E0A90160E070E053
:1026F000CB01C9D7F50113861286BE016A5F7F4FF1
:10270000CE01019620D68823A9F202C00F900FBEF9
:102710008114910419F4C50184DF4C0183019401F3
:10272000A201B101C50196DE7C01892BE1F0C50152
:1027300035DEF5012681378182179307A0F00ED38D
:10274000F50180859185892B69F08085918500E070
:1027500010E020E040E050E0BA010E94CD1BF501FE
:1027600011861086E4D3C70129960FB6F894DEBF10
:102770000FBECDBFDF91CF911F910F91FF90EF90D2
:10278000DF90CF90BF90AF909F908F907F906F9091
:102790005F904F903F902F900895AF92BF92CF924D
:1027A000DF92EF92FF920F931F93CF93DF93EC0191
:1027B0005B016A0179018E8580FF04C08A010E5F8A
:1027C0001F4F01C08A01CE012CDF9C01A601B5017B
:1027D000CE0140DE6C01892BB9F0CE01DFDD2E8108
:1027E0003F818217930780F088859985892B61F056
:1027F0008885998500E010E020E040E050E0BA01D3
:102800000E94451C19861886C601DF91CF911F9141
:102810000F91FF90EF90DF90CF90BF90AF90089511
:102820004F925F926F927F928F929F92AF92BF92E0
:10283000CF92DF92EF92FF920F931F93CF93DF938C
:102840001F921F92CDB7DEB75C012B013A016801E0
:102850007901FC01868580FD03C0812C912C04C088
:102860006894882481F8912CC114D104E104F10406
:1028700031F10FB6F8940F92C50190DD8C018816E6
:10288000990640F080E090E00E94CE1CB5D5F5019D
:10289000918780870F900FBE80169106B0F000E000
:1028A00010E020E030E0A90160E070E0CB01EBD661
:1028B000F50111861086C50171DD8C0103C0C501CB
:1028C0006DDD8C0180169106B8F581149104C1F07C
:1028D000F501E080F1809801A401BE016F5F7F4F98
:1028E000C501F8DD89819A810819190968167906E8
:1028F00030F4F501F182E082612C712C01C03C01C1
:102900009801A301B201C501E5DD7C01892BB1F07D
:1029100025D2F50182859385892B61F08285938587
:1029200000E010E020E040E050E0BA0136D7F501C9
:1029300013861286FCD202C0E12CF12CC7010F9045
:102940000F90DF91CF911F910F91FF90EF90DF904B
:10295000CF90BF90AF909F908F907F906F905F903F
:102960004F900895E0916F18F09170188081811157
:102970000CC08FEF9FEFDC0180933C1890933D18C3
:10298000A0933E18B0933F180895E0916F18F0910E
:1029900070180780F085E02D0084F185E02D82819C
:1029A0009381A481B58180933C1890933D18A093A6
:1029B0003E18B0933F1808958F929F92AF92BF92A6
:1029C000CF92DF92EF92FF92CF936B017C01C42FE5
:1029D0008090461890904718A0904818B0904918D9
:1029E0008091B3189091B41802960E947C0C8FEFDE
:1029F000C816D806E806F80669F4CC2359F06091A9
:102A0000B3187091B4186E5F7F4F8BE498E10E9409
:102A10001E0C3FC0C80CD91CEA1CFB1CE091B3186B
:102A2000F091B418C282D382E482F582C814D9042A
:102A3000EA04FB0468F46091B3187091B4188091B3
:102A40006D1890916E186E5F7F4F0E943F0C21C0F1
:102A50006091B3187091B41880916F1890917018AC
:102A60006E5F7F4F0E943F0C80913C1890913D1803
:102A7000A0913E18B0913F18C816D906EA06FB0689
:102A800040F4C0923C18D0923D18E0923E18F0926B
:102A90003F18CF91FF90EF90DF90CF90BF90AF9015
:102AA0009F908F9008954F925F926F927F928F9236
:102AB0009F92AF92BF92CF92DF92EF92FF920F93CD
:102AC000CF93DF934C016B015A012901CA010E9487
:102AD0001F0B3C01892B09F4F4C080E390E00E94B5
:102AE0001F0BEC01892B99F07C8E6B8EA50165EA9A
:102AF00070E0C3010E940A3121E0A21AB1088B8D57
:102B00009C8DA80EB91EC114D10429F420C0C301A4
:102B10000E94D80BD6C0D6018C918D8F8C918823C2
:102B2000A1F0AE01425E5F4FF6013196B8E0CB0EE8
:102B3000D11CCF012191DA012D93AD01DC018C91E3
:102B4000882319F0EC15FD05A1F71CA201C01D8E0C
:102B5000043008F003E00A8F0FA318A66E01B2E05C
:102B6000CB0ED11CC6010E941A0CCE010E960E94FB
:102B70001A0CDB87CA8784E090E0A0E0B0E0801BFD
:102B80009109A109B1098E879F87A88BB98BDF8B2B
:102B9000CE8B1AA619A61BA61CA61DA61EA61FA68E
:102BA000A201B401C5010E94A30C99838883E1149A
:102BB000F10419F0F701D183C0830FB6F8940F9296
:102BC00080914A188F5F80934A188091B318909132
:102BD000B418892BD1F5D093B418C093B318809151
:102BE0004A18813009F041C087E898E10E94090C39
:102BF00082E998E10E94090C8DE998E10E94090C94
:102C000088EA98E10E94090C8CE798E10E94090C7F
:102C100081E798E10E94090C82E698E10E94090C84
:102C200087E598E10E94090C8BE498E10E94090C69
:102C30008CE798E19093701880936F1881E798E182
:102C400090936E1880936D1810C080914418811174
:102C50000CC0E091B318F091B418928D8A8D891749
:102C600020F0D093B418C093B318809140188F5FB0
:102C7000809340188DA38A8D90914518981710F471
:102C800080934518FBE08F9FC0011124B60189573E
:102C9000974E0E941E0C0F900FBE809144188823FF
:102CA00061F0E091B318F091B418928D8A8D981765
:102CB00030F40E94510D81E005C081E003C081E045
:102CC00001C08FEFDF91CF910F91FF90EF90DF90D8
:102CD000CF90BF90AF909F908F907F906F905F90BC
:102CE0004F900895EF92FF920F930F2EFAE3EF2E7D
:102CF000F8E1FF2EF02D00E020E030E040EC50E065
:102D00006DEB74E08DEC90E0CEDE813019F5CCD621
:102D1000813001F5F8948FEF9FEFDC0180933C1830
:102D200090933D18A0933E18B0933F1881E0809394
:102D30004418109246181092471810924818109292
:102D40004918E091B318F091B41881A50E94560972
:102D50000E94150D0F91FF90EF9008958091391802
:102D60008F5F8093391808950FB6F8940F92609191
:102D700046187091471880914818909149180F9003
:102D80000FBE08959F92AF92BF92CF92DF92EF92C3
:102D9000FF920F931F93CF93DF9380913918811186
:102DA000ADC0C0904618D0904718E0904818F090F9
:102DB00049188FEFC81AD80AE80AF80AC0924618CC
:102DC000D0924718E0924818F0924918C114D104E3
:102DD000E104F104B1F480916F1890917018209182
:102DE0006D1830916E183093701820936F1890936F
:102DF0006E1880936D18809141188F5F80934118F1
:102E0000B1DD80913C1890913D18A0913E18B09191
:102E10003F18C816D906EA06FB0610F4B12C5DC0AF
:102E2000B12C0F2EFBE0AF2EF02D99249394E0915E
:102E30006F18F0917018808181110CC08FEF9FEF97
:102E4000DC0180933C1890933D18A0933E18B093FA
:102E50003F1843C0E0916F18F09170180780F0851B
:102E6000E02DC085D1858A819B81AC81BD81C8164A
:102E7000D906EA06FB0648F480933C1890933D1867
:102E8000A0933E18B0933F1828C08E010E5F1F4FCD
:102E9000C8010E947C0C888D998D892B21F0CE0170
:102EA0000E960E947C0C8A8D90914518981710F40C
:102EB00080934518A89EC0011124B8018957974EE8
:102EC0000E941E0CE091B318F091B4189A8D828D77
:102ED000981708F4ACCFB92CAACFE091B318F091B1
:102EE000B418E28D8BE0E89FF0011124E957F74E0A
:102EF0008081823048F0BB24B39406C0809143188F
:102F00008F5F80934318B12C80914218882311F071
:102F1000BB24B3948B2DDF91CF911F910F91FF9024
:102F2000EF90DF90CF90BF90AF909F900895CF9299
:102F3000DF92EF92FF920F931F93CF93DF930FB621
:102F4000F8940F92809139188150809339188091AC
:102F5000391881115AC080914A1881112CC058C06B
:102F6000D7011796ED91FC911897C085D185CE01B8
:102F70000E960E947C0C8E010E5F1F4FC8010E94AE
:102F80007C0C8A8D90914518981710F48093451801
:102F9000D89EC0011124B8018957974E0E941E0C7B
:102FA000E091B318F091B4189A8D828D981788F03B
:102FB000C09242180EC0C0E0D0E00F2EF2E6EF2E15
:102FC000F8E1FF2EF02D0F2EFBE0DF2EF02DCC24AC
:102FD000C394F70180818111C3CFCD2B09F0C2DCEE
:102FE000C0914318CC2349F0D1E0CCDE8111D093BD
:102FF0004218C150D1F7109243188091421888238B
:1030000031F00E94510D81E003C080E001C080E0FA
:103010000F900FBEDF91CF911F910F91FF90EF9016
:10302000DF90CF900895CF92DF92EF92FF926B01E5
:103030007C01672B682B692B41F090DE40E0C701D3
:10304000B601BADC74DF811102C00E94510DFF90FD
:10305000EF90DF90CF90089580913918882321F068
:1030600081E080934218089510924218E091B318BD
:10307000F091B41881A50E946009A091B318B09195
:10308000B418E091B318F091B4182D913C91838D50
:10309000948D8217930758F06091B3187091B4180B
:1030A0008091B3189091B418635E7F4F20D68091C1
:1030B0004518282F30E09BE0899FF0011124E95743
:1030C000F74E908191110EC04BE08150282F30E0D7
:1030D000429FF001439FF00D1124E957F74E908174
:1030E000992399F39BE0929FA001939F500D112487
:1030F000DA01A957B74E1196ED91FC911297048011
:10310000F581E02D1296FC93EE9311974657574E9A
:10311000E417F50729F444815581FD015283418369
:103120009BE0929FF001939FF00D1124E957F74E19
:103130000180F281E02D208531853093B4182093F1
:10314000B31880934518E091B318F091B41881A595
:103150000C9456090895CF92DF92EF92FF926A0184
:103160007B016091B3187091B418625F7F4F0E9429
:103170003F0C41E0C701B6011FDCFF90EF90DF90EC
:10318000CF900895CF92DF92EF92FF920F931F930B
:1031900068017901E091B318F091B418706846871E
:1031A0005787608B718B6091B3187091B418625F10
:1031B0007F4F0E941E0C41E0C701B601FDDB1F914D
:1031C0000F91FF90EF90DF90CF900895CF92DF9214
:1031D000EF92FF92CF936A017B01C22F6091B318E7
:1031E0007091B418625F7F4F0E941E0CCC2321F0B7
:1031F000CC24CA94DC2C76014C2FC701B601DCDB51
:10320000CF91FF90EF90DF90CF9008950F931F9391
:10321000CF93DF93DC011796ED91FC911897C08551
:10322000D1858E01025F1F4FC8010E947C0C8091E6
:103230003918811116C00C501109C8010E947C0C6C
:103240008A8D90914518981710F480934518BBE02B
:103250008B9FC0011124B8018957974E0E941E0C04
:1032600005C0B80182E698E10E941E0CE091B318F7
:10327000F091B4189A8D828D891720F481E08093A3
:10328000421801C080E0DF91CF911F910F91089506
:103290000F931F93CF93DF937068FC01408351839A
:1032A00062837383C085D1850E947C0C8E010E5F82
:1032B0001F4FC8010E947C0C8A8D90914518981769
:1032C00010F480934518FBE08F9FC0011124B801D2
:1032D0008957974E0E941E0CE091B318F091B418D4
:1032E0009A8D828D891718F481E080934218DF91BE
:1032F000CF911F910F9108950FB6F8940F922091DE
:103300004118FC0120834091461850914718609164
:1033100048187091491841835283638374830F90D6
:103320000FBE089520914118FC012083409146185A
:103330005091471860914818709149184183528301
:10334000638374830895CF92DF92EF92FF920F937D
:103350001F93CF93DF93FB010FB6F8940F92409128
:10336000461850914718609148187091491800818B
:103370001181228133810F3FAFEF1A072A073A07E5
:1033800049F1EC01C980DA80EB80FC80A091411802
:10339000B881BA1729F04C155D056E057F05E0F47C
:1033A0004C195D096E097F094017510762077307C1
:1033B00058F4041B150B260B370B00831183228353
:1033C0003383B0DF80E009C0108211821282138241
:1033D00081E003C080E001C081E00F900FBEDF916B
:1033E000CF911F910F91FF90EF90DF90CF900895B4
:1033F00081E08093421808958091B3189091B41899
:10340000089580914418882331F0809139188823D9
:1034100021F080E0089581E0089582E008950F93FF
:103420001F93CF93DF93FC01892B09F460C0828D39
:10343000A091B318B091B4185A969C91891708F0CE
:103440004AC04685578560897189772394F0A09199
:10345000B318B091B4185A969C9144E050E060E0E3
:1034600070E0491B51096109710946875787608BD4
:10347000718B2BE0829FC00111248957974E2485C0
:10348000358528173907F1F48F01EF012296CE0117
:103490000E947C0CE091B318F091B418828DF80171
:1034A000828F90914518981710F480934518FBE08F
:1034B0008F9FC0011124BE018957974E0E941E0C98
:1034C00081E016C0A091B318B091B4185A968C91AF
:1034D000828F81E00DC0A091B318B091B41881E043
:1034E00027A15A969C91291718F080E001C080E02E
:1034F000DF91CF911F910F9108950F931F93CF9359
:10350000DF93FC01892B79F180A5815080A7228D62
:1035100097A1291751F181112AC0EF018F010E5F88
:103520001F4FC8010E947C0C8FA18A8F44E050E09D
:1035300060E070E0481B5109610971094E875F879F
:10354000688B798B90914518981710F480934518E3
:103550002BE0829FC0011124B8018957974E0E9429
:103560001E0C81E005C080E003C080E001C080E067
:10357000DF91CF911F910F9108950F931F93CF93D8
:10358000DF93FC01892B09F43FC087A1861708F45B
:10359000862F928D9817C1F120A52130A9F5828F31
:1035A0004685578560897189772364F044E050E04F
:1035B00060E070E0481B510961097109468757872F
:1035C000608B718B2BE0929FC00111248957974E1D
:1035D0002485358528173907B9F4EF018F010E5F6F
:1035E0001F4FC8010E947C0C8A8D90914518981736
:1035F00010F4809345182BE0829FC0011124B8017C
:103600008957974E0E941E0CDF91CF911F910F9109
:103610000895CF92DF92EF92FF92E091B318F0916C
:10362000B4186685778580899189E091B318F09107
:10363000B418A091B318B091B4185A962C91C12C1B
:10364000D12C76016894C2F8C21AD108E108F108B9
:10365000C686D786E08AF18AFF90EF90DF90CF9000
:1036600008958091B3189091B418892B39F0E091A6
:10367000B318F091B41880A58F5F80A78091B3181C
:103680009091B41808954F925F926F927F928F92AB
:103690009F92AF92BF92CF92DF92EF92FF920F93E1
:1036A0001F9349015A010FB6F8940F92E091B31895
:1036B000F091B41827A5223039F1E091B318F091B8
:1036C000B41843A454A465A476A4DC01CB0180956E
:1036D0009095A095B09584219521A621B72183A727
:1036E00094A7A5A7B6A7E091B318F091B41881E00C
:1036F00087A7C114D104E104F10431F041E0C7010E
:10370000B6015AD90E94510D0F900FBE0FB6F89412
:103710000F920115110569F0E091B318F091B418FA
:1037200083A594A5A5A5B6A5F80180839183A2835E
:10373000B383E091B318F091B41887A58230B1F447
:10374000E091B318F091B41883A594A5A5A5B6A5EA
:1037500080949094A094B09488229922AA22BB22AB
:1037600083A694A6A5A6B6A681E001C080E0E0915C
:10377000B318F091B41817A60F900FBE1F910F91B8
:10378000FF90EF90DF90CF90BF90AF909F908F9081
:103790007F906F905F904F9008950F931F93CF93FA
:1037A000DF93FC010FB6F8940F920115110549F053
:1037B00083A594A5A5A5B6A5E80188839983AA83C6
:1037C000BB8387A592E097A72230B1F018F421308F
:1037D00031F02AC02330E9F0243001F125C003A5DF
:1037E00014A525A536A5402B512B622B732B43A77F
:1037F00054A765A776A718C043A554A565A576A5C7
:103800004F5F5F4F6F4F7F4F43A754A765A776A7C2
:103810000BC043A754A765A776A706C0823049F11D
:1038200043A754A765A776A7813029F5EF018F013B
:103830000E5F1F4FC8010E947C0C8A8D9091451825
:10384000981710F4809345182BE0829FC001112433
:10385000B8018957974E0E941E0CE091B318F09161
:10386000B4189A8D828D891740F40E94510D81E021
:1038700005C080E003C081E001C081E00F900FBE71
:10388000DF91CF911F910F910895EF92FF920F93C7
:103890001F93CF93DF93FC010115110549F083A518
:1038A00094A5A5A5B6A5E80188839983AA83BB83BF
:1038B00087A592E097A72230B1F018F4213031F0BB
:1038C0002AC02330E9F0243001F125C003A514A556
:1038D00025A536A5402B512B622B732B43A754A74C
:1038E00065A776A718C043A554A565A576A54F5F23
:1038F0005F4F6F4F7F4F43A754A765A776A70BC0B5
:1039000043A754A765A776A706C08230D9F143A77D
:1039100054A765A776A78130B9F5EF0180913918D2
:10392000811117C08F010E5F1F4FC8010E947C0CD0
:103930008A8D90914518981710F480934518EBE004
:103940008E9FC0011124B8018957974E0E941E0C0A
:1039500007C0BF01625F7F4F82E698E10E941E0CA4
:10396000E091B318F091B4189A8D828D891770F494
:10397000E114F10419F081E0E701888381E080938C
:10398000421805C080E003C081E001C081E0DF9102
:10399000CF911F910F91FF90EF900895009721F420
:1039A0008091B3189091B4180FB6F8940F92FC015F
:1039B00027A5223019F417A681E001C080E00F90FE
:1039C0000FBE0895CF92DF92EF92FF920F931F9355
:1039D000FC01428353836483758393878287041732
:1039E000150726073707C0F00C191D092E093F09D6
:1039F00086859785A089B189081719072A073B078B
:103A000000F5BF016E5F7F4F8091BD189091BE1889
:103A10000E943F0C80E018C00C151D052E053F05C7
:103A200028F44C155D056E057F0568F4BF016E5FD7
:103A30007F4F8091BF189091C0180E943F0C80E08A
:103A400003C081E001C081E01F910F91FF90EF90D2
:103A5000DF90CF9008950FB6F8940F928091BB1825
:103A60009091BC18892BE9F48CEC98E10E94090C28
:103A700081EC98E10E94090C8CEC98E19093C018BD
:103A80008093BF1881EC98E19093BE188093BD1885
:103A900040E067E08AE00E942D0F9093BC1880936D
:103AA000BB180F900FBE0895EF92FF920F93D3DFD4
:103AB0008091BB189091BC18892B91F00F2EF9EBD7
:103AC000EF2EF8E1FF2EF02D03E020E030E045E599
:103AD00050E062EC74E087E091E00E94531501C071
:103AE00080E00F91FF90EF9008958F929F92AF9298
:103AF000BF92CF92DF92EF92FF920F931F93CF93DB
:103B0000DF93CDB7DEB727970FB6F894DEBF0FBEB1
:103B1000CDBFE091BB18F091BC18309781F169835B
:103B20002A833B834C835D839F838E836630F4F4CA
:103B300068DC823069F400E0A7019601BE016F5F86
:103B40007F4F8091BB189091BC180E945B0F18C0EA
:103B500000E020E030E0A901BE016F5F7F4F80915F
:103B6000BB189091BC180E945B0F0AC020E0A8010E
:103B7000BE016F5F7F4FCF010E94161001C080E031
:103B800027960FB6F894DEBF0FBECDBFDF91CF9161
:103B90001F910F91FF90EF90DF90CF90BF90AF906B
:103BA0009F908F9008952F923F924F925F926F92C5
:103BB0007F928F929F92AF92BF92CF92DF92EF92BD
:103BC000FF920F931F93CF93DF931C01CDD82B014E
:103BD0003C018091B5189091B618A091B718B0919A
:103BE000B818481659066A067B0608F053C03BC051
:103BF0000780F085E02D80809180A280B380C08511
:103C0000D1858E010E5F1F4FC8010E947C0CEC898C
:103C1000FD89CE0119958F8982FF25C08E859F85EC
:103C2000A889B989880D991DAA1DBB1D88169906FA
:103C3000AA06BB0670F48A839B83AC83BD83DB87B3
:103C4000CA87B8018091BF189091C0180E943F0C9C
:103C50000AC0C12CD12C760100E010E0A50194012E
:103C600060E0CE0142DFE091BF18F091C018808182
:103C70008111BECF8091BD189091BE189093C0184D
:103C80008093BF18F093BE18E093BD1881E0F10156
:103C9000808302C0F10110824092B5185092B6188C
:103CA0006092B7187092B818C301B201DF91CF913A
:103CB0001F910F91FF90EF90DF90CF90BF90AF904A
:103CC0009F908F907F906F905F904F903F902F903C
:103CD00008950895279A2F9A2FEF80E792E02150B8
:103CE00080409040E1F700C000001F9AF5CF279A6E
:103CF0002F9A2FEF87EA91E6215080409040E1F71C
:103D000000C000001F9AF5CF8F929F92AF92BF9292
:103D1000CF92DF92EF92FF920F931F93CF93DF9397
:103D20000E944303E090351AF090361A40914F1AE2
:103D30005091501AA12CB12C65016894A4F801E0AF
:103D400010E020E030E060EC82E00E948F06C82F97
:103D5000D92FE090351AF090361A40914F1A5091B1
:103D6000501AA12CB12C65016894A5F808E010E068
:103D700020E030E060EC82E00E9486024C01E0909E
:103D8000351AF090361A40914F1A5091501AA12CC2
:103D9000B12C65016894A6F804E010E020E030E062
:103DA00060EC82E00E947107182F092F0E946407BF
:103DB000E090351AF090361A40914F1A5091501AEF
:103DC00080914E1A8F9380914D1A8F930F931F936A
:103DD000DF93CF930F2EF0E7AF2EB12CC12CD12C57
:103DE000F02D0DE010E020E030E060EC84E00E9477
:103DF000530440914D1A50914E1A60EC81E00E949C
:103E000029084091331A5091341A60EC81E00E94E5
:103E1000E3050F900F900F900F900F900F90DF9190
:103E2000CF911F910F91FF90EF90DF90CF90BF90B7
:103E3000AF909F908F9008950E9466099093501ABA
:103E400080934F1A0E9466099093361A8093351A10
:103E500041E060E070E084E690E00E94B812909348
:103E60004E1A80934D1A41E060E070E08CE290E0E1
:103E70000E94B8129093341A8093331A81B18168EA
:103E800081B980E00E944A2B85E010D06091331AFE
:103E90007091341A81E0C2C30895CEDF35DF8AEC19
:103EA00094E00E9473310E947216FFCFE1E5FAE1BF
:103EB00023E636E23183208326E636E2338322830B
:103EC00021E736E23583248325E736E237832683EC
:103ED0002BE736E23187208727E836E233872287CF
:103EE0002CE836E23587248728E936E237872687AB
:103EF00028E736E2318B208B2DE936E2338B228B9B
:103F00002AEA36E2358B248B682FCF0153C10895FE
:103F10006530F1F4FA0180818F7390E0982F882743
:103F20002181822B90930D0280930C028281F0E418
:103F30008F9FC0011124FA01238126952695822B9B
:103F400090930B0280930A0281E08093D718089522
:103F5000643051F080E090E490930B0280930A0269
:103F600090930D0280930C0208950F931F9308E81D
:103F70001FE120E034E244EF50E060E087E20E947D
:103F8000842B9093D9188093D81821E0892B09F0BD
:103F900020E0822F1F910F9108958091D7180895E6
:103FA0008091D8189091D918009759F040E060E0BE
:103FB00070E00E94D52B843031F41092D71880E045
:103FC000089582E0089583E008958091D818909133
:103FD000D918009739F064E00E94212C853021F037
:103FE00083E0089582E0089580E0089560910C02D6
:103FF00070910D0280E090E00E942B2E20E030E0D6
:1040000048EC52E40E94B92E20E038EF4FE756E426
:104010000C94922D0895EADF20E030E040E251E474
:104020000E94B92E0E94FF2DCB01089560910A02D3
:1040300070910B0280E090E00E942B2E20E030E097
:1040400045E253E40E94B92E20E038EF4FE756E4F2
:104050000E94922D20E030E040E252E40C942D2D9D
:104060000895E4DF20E030E040E251E40E94B92E00
:104070000E94FA2DCB010895CF93DF9390E0FC01CD
:10408000EE0FFF1FE80FF91FEE0FFF1FE652F74E6E
:10409000238121110AC0EF01E091591AF0915A1AB7
:1040A0006A8188819981199512C0DC01AA0FBB1F12
:1040B000ED01C80FD91FCC0FDD1FC652D74EE091BE
:1040C000631AF091641A6A81888199811995DF9148
:1040D000CF910895CF93DF9390E0FC01EE0FFF1F87
:1040E000E80FF91FEE0FFF1FE652F74E2381211153
:1040F0000AC0EF01E091631AF091641A6A81888125
:104100009981199512C0DC01AA0FBB1FED01C80FE0
:10411000D91FCC0FDD1FC652D74EE091591AF0912E
:104120005A1A6A81888199811995DF91CF910895F2
:104130000F2EF1E5CF2EFAE1DF2EF02D04E0CAEDCF
:10414000D8E110E08C81813069F0E8F0823039F5F7
:10415000D6011C96ED91FC911D976A818881998109
:1041600019951DC08D818F5F8A3010F48D8317C023
:104170001D82D6011C96ED91FC911D976A81888164
:10418000998119950CC08D81882331F0812FA2DF90
:104190008D8181508D8303C00C83812F6DDF1F5F64
:1041A0002696143079F665E070E080E090E00E9499
:1041B0001318C5CFCF92DF92EF92FF920F931F9308
:1041C000CF93DF93062F0F2EF1E5EF2EFAE1FF2EAE
:1041D000F02DD7011896ED91FC91199766E087E2D2
:1041E00090E01995CAEDD8E10F2EF8E2CF2ED12C30
:1041F000F02DD982C88286E08A831B8214E01C835A
:1042000080E03ADFD7011896ED91FC91199767E0AD
:1042100087E290E01995DF82CE8287E08887198651
:104220001A8781E029DFD7011896ED91FC91199743
:1042300065E083E390E01995D7011896ED91FC9124
:10424000199761E084E390E0199584E390E09D87FD
:104250008C8785E08E871F86188B82E00DDFD70163
:104260001896ED91FC91199764E081E091E0199521
:10427000D7011896ED91FC91199761E082E091E0E9
:10428000199582E091E09B8B8A8B1C8B1D8A1E8B7B
:1042900083E0F2DEE12CF12C20E030E040EC50E055
:1042A0006CED74E088E990E20E945315DF91CF91A4
:1042B0001F910F91FF90EF90DF90CF9008950F9393
:1042C0001F93CF93DF93C82FD0E08E01000F111FF3
:1042D000D801AC0FBD1FAA0FBB1FA652B74EE0916D
:1042E0005D1AF0915E1A12966C9112978D919C91C5
:1042F0001995C00FD11FCC0FDD1FC652D74E81E0DC
:104300008C83DF91CF911F910F9108950F931F938D
:10431000CF93DF93C82FD0E08E01000F111FD8017B
:10432000AC0FBD1FAA0FBB1FA652B74EE0915D1A7E
:10433000F0915E1A12966C9112978D919C9119953D
:10434000C00FD11FCC0FDD1FC652D74E82E08C8329
:10435000DF91CF911F910F910895282F30E0F9013F
:10436000EE0FFF1FE20FF31FEE0FFF1FE652F74E97
:1043700093E09483AFCE0895282F30E0F901EE0F3B
:10438000FF1FE20FF31FEE0FFF1FE652F74E94E000
:10439000948372CE089590E0FC01EE0FFF1FDF01C1
:1043A000A80FB91FAA0FBB1FA652B74E24E015963F
:1043B0002C931597FD011482089590E0FC01EE0FF7
:1043C000FF1FDF01A80FB91FAA0FBB1FA652B74ED0
:1043D00021E015962C931597FD01148208950F93F3
:1043E0001F93CF93DF931F921F92CDB7DEB78C013F
:1043F00019822DC0E0915619EC3250F481E08E0FF5
:1044000080935619F0E0E857F64E8A81808302C007
:10441000109256198A818A30D1F44091561950E091
:10442000FA01EA57F64E1082415051099E012F5F62
:104430003F4F68E879E18091591990915A190E948B
:10444000CD13898181110E94510D10925619BE0120
:104450006E5F7F4FC8018CD6882361F20F900F905A
:10446000DF91CF911F910F9108950F931F93CF93D9
:10447000DF938C01EB018091591990915A190E9498
:10448000E412B80182EF98E10E944131209779F05F
:10449000E2EFF8E101900020E9F7319780E290E047
:1044A00091838083BE0182EF98E10E943631E2EF72
:1044B000F8E1DF010D900020E9F711978DE09AE017
:1044C00011969C938E9312961C9201900020E9F70E
:1044D0003197E25FF841AE2F82EF98E1AC016A2F8D
:1044E00080915B1990915C19F3D5811111C008E29C
:1044F00015E020E030E04DE250E062EE79E180919D
:10450000591990915A190E94101482EE99E102C033
:1045100080E090E0DF91CF911F910F9108952F924D
:104520003F924F925F926F927F928F929F92AF9243
:10453000BF92CF92DF92EF92FF920F931F93CF9390
:10454000DF935C01FC0101900020E9F731976F01D6
:10455000C81AD90A5C2C0F2EFDE78F2EF7E09F2E8C
:10456000F02DE12CF12C4C2C3701F401018112814A
:10457000E80109900020E9F72197C01BD10B3C2EE0
:10458000F9E0CF16D10458F0F4012080FEE02F129C
:1045900006C0B801C5010E941131892B09F5442DCF
:1045A000351408F44C2F50E0B801C5010E94483181
:1045B000892B49F4F301EE0FFF1FE60DF71DE358B9
:1045C000F84F20800DC08FEFE81AF80AE3E08E0E56
:1045D000911CF1E1EF16F10439F66894222424F8D5
:1045E000822DDF91CF911F910F91FF90EF90DF907F
:1045F000CF90BF90AF909F908F907F906F905F9083
:104600004F903F902F90089530DF89CF089580918B
:10461000591990915A190C94E41208958F929F920F
:10462000AF92CF92EF920F931F93CF93C82F8B012E
:1046300041E060E070E088EC90E00E94B812909356
:104640005A198093591910935819009357190F2E1E
:10465000FFEE8F2EF1E29F2EF02D6894AA24A6F88B
:104660006894CC24C6F8E12C00E023E040E051EE51
:1046700060E070E08C2F71D490935C1980935B198B
:10468000E091591AF0915A1A64E087E091E0199587
:10469000CF911F910F91EF90CF90AF909F908F90FF
:1046A0000895882349F0E091631AF091641A64E058
:1046B00088E091E019950895E091591AF0915A1AFD
:1046C00064E088E091E01995089560E070E083E08F
:1046D00095E0CBDEE2EEF9E101900020E9F73197B9
:1046E000E25EF94181E0759708F080E00895CF938C
:1046F000DF93EC0160E070E084E195E0B6DEE2EE8D
:10470000F9E101900020E9F7E35FF94139F462EE45
:1047100079E1CE010E94413180E002C0188281E03F
:10472000DF91CF910895FC0101900020E9F79F01EE
:10473000215131092817390729F4BC0182E495E099
:1047400063CF089589E00895FC0101900020E9F706
:104750009F01215131092817390729F4BC0181E54E
:1047600095E052CF089589E00895FC010190002062
:10477000E9F79F01215231092817390729F4BC01B3
:1047800080E695E041CF089589E0089560E070E00B
:104790008FE995E039CF08950F931F93E82FF0E04C
:1047A000EE0FFF1FE758F84F6081718188EA95E0AE
:1047B0002BDF811114C008E215E020E030E04DE26B
:1047C00050E062EE79E18091591990915A190E9456
:1047D0001014882321F082EE99E1A1DE03C082EE5D
:1047E00099E19DDE1F910F9108950F931F93CF9331
:1047F000DF931F92CDB7DEB7DB0111969C91119725
:10480000953108F0B4C0992381F160E070E0272F62
:1048100030E0462F50E0FD01E40FF51F92819295A4
:104820009F709A3010F0995C01C0905DF901ED58CD
:10483000F64E90832F5F3F4FFD01E40FF51F9281ED
:104840009F70492F50E04A30510514F0995C01C027
:10485000905DF901ED58F64E90837E5F6F5F119683
:104860009C911197691798F201C070E0E72FF0E072
:10487000ED58F64E10824C91811103C081EB95E00A
:1048800002C083EB95E023E739E13F932F931F921A
:104890004F939F938F9387EB95E09F938F9385EB37
:1048A00099E19F938F930E94A33160E070E085EBC4
:1048B00099E1AADE0FB6F894DEBF0FBECDBF81111D
:1048C00059C008E215E020E030E04DE250E062EE31
:1048D00079E18091591990915A190E9410148823F6
:1048E00009F447C082EE99E11ADE8E3009F042C029
:1048F00087E089838091571990915819892BA9F1E4
:10490000BE016F5F7F4F82EE99E168D180935D19A0
:10491000E981F0E0EE51F64EDF010D900020E9F75D
:104920001197AE1BBF0BAA2391F0BB27CD010197B6
:104930009C0112F42F5F3F4F3595279520935E1908
:10494000AF014F5F5F4F64E18FE599E173D101E003
:1049500010E020E030E046E150E06DE579E1809143
:104960005719909158190E9423138EE003C084E1D7
:1049700001C080E00F90DF91CF911F910F910895BA
:10498000813019F067EC75E002C060EA76E08BECEC
:1049900095E03ACE08959F938F938CEF95E09F9387
:1049A0008F9385EB99E19F938F930E94A33160E0F1
:1049B00070E085EB99E128DE0F900F900F900F903B
:1049C0000F900F9008952F923F924F925F926F92A7
:1049D0007F928F929F92AF92BF92CF92DF92EF928F
:1049E000FF920F931F93CF93DF93CDB7DEB7A097BE
:1049F0000FB6F894DEBF0FBECDBF69E276E085E367
:104A000096E033DD8CDD8111A3C080E2E5E2F2E0C7
:104A1000DE01119601900D928A95E1F79E012F5FBC
:104A20003F4F6901E12CF12C0F2EF1E4AF2EF6E09F
:104A3000BF2EF02D05EB19E10F2EFAE54F2EF6E013
:104A40005F2EF02D0F2EF1E78F2EF6E09F2EF02D2A
:104A50000F2EFBE86F2EF6E07F2EF02D3E2C2F2C34
:104A6000FF92EF92BF92AF921F930F930E94A331D8
:104A700060E070E0C801F9DC52DD0F900F900F90FC
:104A80000F900F900F90811163C032E03E15E8F453
:104A9000F60183818F9382818F9381818F938081AF
:104AA0008F93FF92EF925F924F921F930F930E940A
:104AB000A33160E070E0C801D8DC31DD0FB6F894B6
:104AC000DEBF0FBECDBF811143C02F923F929F9298
:104AD0008F921F930F930E94A33160E070E0C80192
:104AE000C4DC1DDD0F900F900F900F900F900F9072
:104AF00081112EC02F923F927F926F921F930F933E
:104B00000E94A33160E070E0C801AFDC08DD0F90C7
:104B10000F900F900F900F900F90811119C03FEFE1
:104B2000E31AF30A84E0C80ED11C98E0E916F104F8
:104B300009F094CF60E070E083EA96E096DCEFDC69
:104B4000811106C060E070E084EB96E08EDCE7DC6B
:104B5000A0960FB6F894DEBF0FBECDBFDF91CF9108
:104B60001F910F91FF90EF90DF90CF90BF90AF908B
:104B70009F908F907F906F905F904F903F902F907D
:104B80000895EF92FF920F931F93CF93DF93EC0161
:104B90008B017A0181E0F4DE81110DC0CE01D4DDFC
:104BA000811109C0C801E1DD811105C0C701BBDD6C
:104BB000811101C0EBDDDF91CF911F910F91FF902B
:104BC000EF90089590E0FC01EE0FFF1F8E0F9F1FE6
:104BD000FC01E358F84F818192810895DC01009730
:104BE00029F1FB012081FC0101900020E9F73197B8
:104BF000E81BF90B822F90E0E817F907C8F080E076
:104C000008C0880F382F330F330F830F8053890F5D
:104C10002F5FFD01E20FF11D908130ED390F3A3029
:104C200010F49111EECFFB012083089580E00895E8
:104C300080E008950F931F93CF93DF93DC01EA0187
:104C40002097E1F1FA0101900020E9F73197E41B88
:104C5000F50B329710F532C08D01040F151F30E0AF
:104C6000AE01420F531FFA019081913428F09753FF
:104C7000592F5295507F03C0592F5295507F2C0FBA
:104C80003D1FF9019181913410F0975301C0905369
:104C9000950FF80190838F5F01C080E0282F220FCD
:104CA000482F50E0FE0101900020E9F73197EC1BFE
:104CB000FD0B4E175F0710F48613CECFDF91CF9117
:104CC0001F910F910895FC0180810895FC012081BE
:104CD00081E090E002C0880F991F6A95E2F7822375
:104CE0000895FC01808186230895FC016083089566
:104CF000FC0110820895FC01408121E030E002C0F7
:104D0000220F331F6A95E2F7242B20830895FC01BC
:104D10002081622B60830895FC01408121E030E016
:104D200002C0220F331F6A95E2F7242720830895DB
:104D3000FC012081622760830895FC01908121E0BD
:104D400030E002C0220F331F6A95E2F72095292335
:104D500020830895FC019081609569236083089504
:104D60008091121A860F8093121A9091151A913021
:104D700079F028F09230A9F0933019F108956F3F3F
:104D800009F048C01092121A81E08093151A089514
:104D9000663809F03FC01092111A82E08093151A0C
:104DA0000895E091111A81E08E0F8093111AF0E0BE
:104DB000E15FF54E6083823069F583E08093151AD8
:104DC00008959091111A21E0290F2093111A96301D
:104DD00009F581110EC0EFE0FAE1808190E0982F93
:104DE00088272181820F911D9093171A8093161A9C
:104DF00004C01092171A1092161A1092151AE09108
:104E0000131AF091141A309729F08091161A909184
:104E1000171A199508958F929F92AF92CF92EF92A1
:104E20000F93CF93DF93EB010F2EF0EB8F2EF6E273
:104E30009F2EF02D6894AA24A4F86894CC24C4F87A
:104E4000E12C00E023E040E855E260E070E085D02E
:104E50009093191A8093181AD093141AC093131AA6
:104E6000DF91CF910F91EF90CF90AF909F908F9067
:104E70000895CF93DF93CDB7DEB729970FB6F89497
:104E8000DEBF0FBECDBF89E0E5E4F2E09E012F5FFB
:104E90003F4FD90101900D928A95E1F71092171AB0
:104EA0001092161A8091181A9091191A009731F0E1
:104EB000422F532F69E00CD180E001C082E0299697
:104EC0000FB6F894DEBF0FBECDBFDF91CF9108952E
:104ED0002091161A3091171A2115310529F4FC0179
:104EE0001182108281E00895FC013183208380E0EB
:104EF000089565360CF064E66C390CF46CE996EFB5
:104F00006902B00111246854744F811105C0709377
:104F1000290160932801089570932B0160932A0161
:104F20000895EAE0F1E08081886180838FE39CE965
:104F3000909327018093260160E080E0DADF60E053
:104F400081E0D7DFE0E2F1E08081826A8083E1E204
:104F5000F1E080818A61808308952F923F924F9281
:104F60005F926F927F928F929F92AF92CF92EF92C9
:104F7000FF920F931F93CF93DF93CDB7DEB7F82E39
:104F80002A013B0188E090E0C2D78C018F2D90E090
:104F9000880F991FFC01E65EF54E11830083FC012A
:104FA000E25FFD4F80819181D8018D939C936C2DA0
:104FB00070E084E090E091D71C0161E070E086E051
:104FC00090E08BD77C014C2DB1012BD5F801F582F7
:104FD000E4826A2D70E084E090E07FD71C0161E0FC
:104FE00070E086E090E079D77C014A2DB10119D5B7
:104FF000D8011396FC92EE92129717969C928E927D
:105000001697FFB6F894ED91FC9111973697808131
:10501000826080838D909C90C301B2011CD620E0F9
:1050200030E040E051E4A5D69B01AC0160E074E2C1
:1050300084E79BE477D520E030E040E85FE30DD5DE
:10504000DED5F40132976083D801ED91FC91119780
:10505000359788E98083ED91FC91349786E08083D1
:10506000FFBEC801DF91CF911F910F91FF90EF908C
:10507000CF90AF909F908F907F906F905F904F9068
:105080003F902F900895CF93DF93EC01EA81FB814D
:10509000938182812581981B922384819817A1F0A6
:1050A000938126952923A081B181A20FB11D6C9314
:1050B0009F5F258192239383E881F98135978081D1
:1050C0008062808380E001C082E0DF91CF9108950B
:1050D000EF92FF920F931F93CF93DF937C01DC013C
:1050E0001296ED91FC91139793818281981B858193
:1050F00098238481891B861798F1662341F1842FB8
:10510000952FDC016150462F50E04F5F5F4F480FF5
:10511000591FE701EA81FB81938182812581981BD8
:1051200092238481981779F08C9193812695292375
:10513000608171818B01020F111DE80188839F5FDF
:105140008581982393831196A417B50711F7D7018A
:10515000ED91FC91359780818062808380E001C071
:1051600082E0DF91CF911F910F91FF90EF90089512
:10517000DC011496ED91FC9115979381828198172B
:1051800089F09281858186958923A081B181A80FBC
:10519000B11D8C91DB018C939F5F85819823928355
:1051A00080E0089583E008951F920F920FB60F924A
:1051B00011240BB60F922F933F934F935F936F93EE
:1051C0007F938F939F93AF93BF93CF93DF93EF938F
:1051D000FF93A0911A1AB0911B1A109711F16091C8
:1051E000C6001496ED91FC911597938182812581DB
:1051F000981B92238481981761F083812695282338
:10520000C081D181C20FD11D68838F5F95818923B1
:1052100083831696ED91FC911797309711F0CD018D
:105220001995FF91EF91DF91CF91BF91AF919F9130
:105230008F917F916F915F914F913F912F910F903F
:105240000BBE0F900FBE0F901F9018951F920F92DC
:105250000FB60F9211240BB60F922F938F939F933B
:10526000AF93BF93EF93FF93E0911A1AF0911B1A3B
:105270003097B9F00280F381E02D938182819817F5
:10528000B1F092818581282F26952923A081B181B3
:10529000A20FB11D2C919F5F892382832093C600AA
:1052A0000BC0E1ECF0E080818F7D808305C0E1ECF4
:1052B000F0E080818F7D8083FF91EF91BF91AF916E
:1052C0009F918F912F910F900BBE0F900FBE0F905B
:1052D0001F9018951F920F920FB60F9211240BB6C4
:1052E0000F922F933F934F935F936F937F938F937F
:1052F0009F93AF93BF93CF93DF93EF93FF93A091CF
:105300001C1AB0911D1A109711F16091CE001496DD
:10531000ED91FC911597938182812581981B9223B1
:105320008481981761F0838126952823C081D181DB
:10533000C20FD11D68838F5F958189238383169661
:10534000ED91FC911797309711F0CD011995FF91D0
:10535000EF91DF91CF91BF91AF919F918F917F910D
:105360006F915F914F913F912F910F900BBE0F90D6
:105370000FBE0F901F9018951F920F920FB60F92AD
:1053800011240BB60F922F938F939F93AF93BF93DC
:10539000EF93FF93E0911C1AF0911D1A3097B9F02A
:1053A0000280F381E02D938182819817B1F0928180
:1053B0008581282F26952923A081B181A20FB11DB7
:1053C0002C919F5F892382832093CE000BC0E9EC50
:1053D000F0E080818F7D808305C0E9ECF0E0808182
:1053E0008F7D8083FF91EF91BF91AF919F918F91BE
:1053F0002F910F900BBE0F900FBE0F901F9018951E
:105400001F920F920FB60F9211240BB60F922F938B
:105410003F934F935F936F937F938F939F93AF933C
:10542000BF93CF93DF93EF93FF93A0911E1AB09198
:105430001F1A109711F16091D6001496ED91FC910E
:105440001597938182812581981B922384819817D7
:1054500061F0838126952823C081D181C20FD11D9F
:1054600068838F5F9581892383831696ED91FC91E4
:105470001797309711F0CD011995FF91EF91DF91BA
:10548000CF91BF91AF919F918F917F916F915F91DC
:105490004F913F912F910F900BBE0F900FBE0F9029
:1054A0001F9018951F920F920FB60F9211240BB6F2
:1054B0000F922F938F939F93AF93BF93EF93FF938D
:1054C000E0911E1AF0911F1A3097B9F00280F38113
:1054D000E02D938182819817B1F092818581282FE8
:1054E00026952923A081B181A20FB11D2C919F5F28
:1054F000892382832093D6000BC0E1EDF0E0808108
:105500008F7D808305C0E1EDF0E080818F7D808319
:10551000FF91EF91BF91AF919F918F912F910F903C
:105520000BBE0F900FBE0F901F9018951F920F92F9
:105530000FB60F9211240BB60F922F933F934F93F8
:105540005F936F937F938F939F93AF93BF93CF930B
:10555000DF93EF93FF93A091201AB091211A109737
:1055600011F1609136011496ED91FC91159793819C
:1055700082812581981B92238481981761F0838111
:1055800026952823C081D181C20FD11D68838F5FEA
:105590009581892383831696ED91FC911797309717
:1055A00011F0CD011995FF91EF91DF91CF91BF914E
:1055B000AF919F918F917F916F915F914F913F91AB
:1055C0002F910F900BBE0F900FBE0F901F9018954C
:1055D0001F920F920FB60F9211240BB60F922F93BA
:1055E0008F939F93AF93BF93EF93FF93E091201A14
:1055F000F091211A3097B9F00280F381E02D938168
:1056000082819817B1F092818581282F26952923D0
:10561000A081B181A20FB11D2C919F5F892382834C
:10562000209336010BC0E1E3F1E080818F7D808320
:1056300005C0E1E3F1E080818F7D8083FF91EF91F0
:10564000BF91AF919F918F912F910F900BBE0F90B3
:105650000FBE0F901F901895CF93DF931F92CDB779
:10566000DEB7BE016F5F7F4F8091221A9091231A9F
:105670007FDD8111F6CF898190E00F90DF91CF918E
:105680000895682F8091221A9091231AFCDC80E003
:1056900090E008958F929F92AF92CF92EF920F93E6
:1056A000812C912C6894AA24A7F86894CC24C7F87C
:1056B000E12C00E023E040E051EE60E070E04DDCE2
:1056C0009093231A8093221AEBE6FAE186E192E0A6
:1056D00091838083938382830F91EF90CF90AF90DB
:1056E0009F908F9008958091321A81110CC08CE0A8
:1056F0008093B8008FEF8093BB0084E08093BC0060
:1057000081E08093321A0895AF92BF92CF92DF92D8
:10571000EF92FF920F931F93CF93DF93A82EB62E95
:1057200069017A0184E090E0F2D3EC01892B61F108
:10573000A88281E0B81212C0C701B60120EA36E89B
:1057400041E050E08CD3DA01C9014097A109B109C9
:10575000B695A79597958795898311C0C701B6011E
:1057600020E83AE146E050E07AD3DA01C9014097F7
:10577000A109B109B695A7959795879589831B834C
:105780000A838C2F9D2F02C080E090E0DF91CF91A3
:105790001F910F91FF90EF90DF90CF90BF90AF904F
:1057A00008958091BC0081700895FF920F931F931C
:1057B000CF93DF930097D1F14A30D0F5F42E8B01CF
:1057C000EC01EFDF811136C08091251A9091261AE5
:1057D000C817D90741F087DF89818093B800D0933B
:1057E000261AC093251A81E08F0D8093271A88818D
:1057F000880F8093281AFF2089F0F801A9E2BAE106
:105800004FEF4F0D642F70E0CB010196B801680F88
:10581000791F81918D93E617F707D9F788EF809369
:10582000240285EA8093BC0084E005C086E003C0C2
:1058300087E001C082E0DF91CF911F910F91FF902F
:1058400008951F93CF93DF93009729F16B3028F5CC
:10585000162FEC01A6DF811122C08091251A9091AC
:10586000261AC817D90741F03EDF89818093B80016
:10587000D093261AC093251A1093271A8881880F6F
:1058800081608093281A88EF8093240285EA8093B0
:10589000BC0085E005C086E003C087E001C082E06F
:1058A000DF91CF911F9108951F920F920FB60F9223
:1058B00011240BB60F922F933F934F935F936F93E7
:1058C0007F938F939F93AF93BF93EF93FF93E09159
:1058D000B9008E2F90E0FC013897E135F10508F012
:1058E00075C08827E458FF4F8F4FDBC21092241AEF
:1058F000E091241A8091271AE81770F481E08E0F46
:105900008093241AF0E0E85DF54E80818093BB001F
:1059100085E88093BC0072C084E98093BC008091CC
:10592000251A9091261ADC011296ED91FC9113979D
:10593000309709F463C020E040E050E064E019953E
:105940005DC0E091241A81E08E0F8093241A80912B
:10595000BB00F0E0E85DF54E80838091B9008034B3
:1059600011F41092241A2091241A30E08091271A01
:1059700090E001972817390724F485EC8093BC0048
:105980003DC085E88093BC0039C08091BB00E091A8
:10599000241AF0E0E85DF54E808384E98093BC0032
:1059A0008091251A9091261ADC011296ED91FC91B6
:1059B0001397309719F12091271A48E25AE165E0D0
:1059C00019951CC085EA8093BC0018C08091B9006D
:1059D0008093240284E08093BC008091251A9091EA
:1059E000261ADC011296ED91FC911397309731F055
:1059F00020E040E050E0609124021995FF91EF9182
:105A0000BF91AF919F918F917F916F915F914F91D6
:105A10003F912F910F900BBE0F900FBE0F901F90D4
:105A20001895FC01411101C0E8D3842F90E09C013E
:105A30002150310982239323892B09F0DED3413889
:105A400008F0DBD3128213824483440F4150458314
:105A50007183608380E090E008955058BB27AA27A7
:105A60000ED04DC13ED130F043D120F031F49F3FF4
:105A700011F41EF433C10EF4E095E7FB29C1E92FC0
:105A80004FD180F3BA17620773078407950718F0A0
:105A900071F49EF567C10EF4E0950B2EBA2FA02D80
:105AA0000B01B90190010C01CA01A0011124FF27CB
:105AB000591B99F0593F50F4503E68F11A16F040C6
:105AC000A22F232F342F4427585FF3CF46953795C5
:105AD0002795A795F0405395C9F77EF41F16BA0B8A
