S00F000053455034494F542E737265630D
S113000050C200006FC200006DC200006BC200004D
S113001069C2000067C2000065C2000063C200003C
S113002061C200005FC200005DC200005BC200004C
S11300300C94360E57C2000055C2000053C2000093
S113004051C200004FC200004DC200004BC200006C
S113005049C2000047C2000045C2000043C200007C
S113006041C200000C94FD280C944F293BC20000AF
S113007039C2000037C2000035C2000033C200009C
S113008031C200002FC200002DC200002BC20000AC
S11300900C9493290C94E52925C200000C947D2C22
S11300A021C200001FC200001DC200001BC20000CC
S11300B019C2000017C2000015C2000013C20000DC
S11300C011C200000FC200000DC200000C94292AC6
S11300D00C947B2A07C200000C94BF2A0C94112BA9
S11300E001C20000C601C601C601000208021E02C8
S11300F0C601C601000208029F2C0F2D0F2D0F2DE3
S11301000F2D0F2D0F2D0F2D9F2C0F2D0F2D0F2D7C
S11301100F2D0F2D0F2D0F2DA12C0F2D0F2D0F2D6A
S11301200F2D0F2D0F2D0F2D0F2D0F2D0F2D0F2DEB
S11301300F2D0F2D0F2D0F2DA12C0F2D0F2D0F2D4A
S11301400F2D0F2D0F2D0F2D0F2D0F2D0F2D0F2DCB
S11301500F2D0F2D0F2D0F2D0B2D0F2D0F2D0F2DBF
S11301600F2D0F2D0F2D0F2DD62C0F2D0F2D0F2DE5
S11301700F2D0F2D0F2D0F2D0F2D0F2D0F2D0F2D9B
S11301800F2D0F2D0F2D0F2DCA2C0F2D0F2D0F2DD1
S11301900F2D0F2D0F2D0F2DEE2C0DE019E10F2E2D
S11301A0FDE3EF2EF9E1FF2EF02D80910C19882349
S11301B029F10FB6F8940F92D8011796ED91FC919E
S11301C01897C085D185CE0102960E949B0C809120
S11301D0001981508093001980910C1981508093EB
S11301E00C190F900FBE8B8D9C8D0E94F70BCE01C6
S11301F00E94F70B80910C198111DBCFF7018081EC
S1130200823010F00E94700D0E94881ECECFCF93D2
S1130210DF93CDB7DEB760970FB6F894DEBF0FBE9D
S1130220CDBFCE0101969A878987812C912CA12C70
S1130230B12C69847A84E0917519F09176198081E2
S1130240882309F414C10780F085E02D20803180D3
S1130250428053800E94CD16CE0101960E94F21D69
S11302606B877C878D879E878981811167C08B8589
S11302709C85AD85BE8582159305A405B50508F456
S113028045C00E94B617E0917519F0917619078060
S1130290F085E02DA085B185B88BAF87CD0102969E
S11302A00E949B0CEF85F889878982FF21C04685CF
S11302B0578560897189420D531D641D751D720136
S11302C061010B851C852D853E85CF010E94011D92
S11302D0882399F0C82CD92CEA2CFB2C00E010E0E0
S11302E0A201910160E08F8598890E94941D05C048
S11302F08E7FAF85B88957968C93AF85B88954960D
S1130300ED91FC915597CD011995A2C020E0B20161
S1130310A1018B859C85AD85BE85481B590B6A0B55
S11303207B0B80917119909172190E94D2110E94D5
S1130330B61781118DC00E94700D8AC00E94B61735
S113034087C0898188230CF483C04E805F80D201EA
S11303501C968D919C911D97892B21F0C2010296C8
S11303600E949B0CCE0108960E94F21D8B019C01F9
S1130370E9810E2E000CFF0BEA30F10508F068C08D
S11303808827EE58FF4F8F4F0C947A2FF2018789FC
S11303908160878BCA80DB80EC80FD804685578531
S11303A0608971894C0D5D1D6E1D7F1DC2010E9407
S11303B0011D882309F44CC0D2015496ED91FC919F
S11303C05597C2011995F201878982FF41C04A817C
S11303D05B816C817D8186859785A089B1899A012D
S11303E0AB01280F391F4A1F5B1FC82CD92CEA2CDC
S11303F0FB2C00E010E060E0C2010E94941D28C0C4
S1130400D20157968C9157978E7F57968C9320C024
S1130410F20187898160878B4A815B816C817D8150
S113042046875787608B718B400F511F621F731F64
S113043068017901C2010E94011D0AC0F201878985
S113044081FD04C0C2010E94F70B02C08E7F878B1E
S1130450282D392D4A2D5B2D662D772D809171190C
S1130460909172190E946E1081116BCFE4CE0E949C
S1130470CD16CE0101960E94F21D6B877C878D8775
S11304809E87898181115ACFE0917319F091741973
S1130490808121E0811120E0282C392C4A2C5B2C0E
S11304A036CF11241FBECFEFD1E2DEBFCDBF00E0B7
S11304B00CBF18E0A0E0B2E0E8ECF9E600E00BBF06
S11304C002C007900D92A636B107D9F72BE1A6E634
S11304D0B8E001C01D92AD32B207E1F70E94761F69
S11304E00C94E2348DCDFC010FB6F8946091291B75
S11304F070912A1B80912B1B90912C1B0FBE30975F
S113050021F06083718382839383089508952F92E9
S11305103F924F925F926F927F928F929F92AF928F
S1130520BF92CF92DF92EF92FF920F931F93CF93DC
S1130530DF93882E962E1A0128013901870164E081
S113054070E081E090E00E94962FEC01009779F131
S1130550FC01119211927F0130927108209270086F
S113056040926C0850926D0860926E0870926F0809
S113057010936B0800936A08A0926608B09267080B
S1130580C0926808D092690866E872E083E00E942D
S11305903427492D50E0082D9E0162E772E082E481
S11305A093E00E9472158CE792E00E949C31CE0188
S11305B0DF91CF911F910F91FF90EF90DF90CF903B
S11305C0BF90AF909F908F907F906F905F904F906F
S11305D03F902F900895CF92DF92EF92FF920F9366
S11305E01F93CF93DF93EC0140916C0850916D08F9
S11305F060916E0870916F08CC24CA94DC2C76014B
S113060001E021E0809170089091710891D60091E9
S11306106C0810916D0820916E0830916F08DC0110
S1130620CB0180239123A223B323081719072A0798
S11306303B07F9F40E946227182F64EF71E080E011
S113064090E00E943218111103C0CE010E9491273C
S11306504091660850916708609168087091690834
S113066080916A0890916B0823D783E892E00E94F6
S11306709C31DF91CF911F910F91FF90EF90DF900C
S1130680CF900895EC01CE01A6DFFDCFFC0180815F
S11306909181089521E02093750810927408909335
S11306A073088093720808950F93CF932091720872
S11306B03091730821153105B1F0C82F4FEF5FEF6A
S11306C0BA01C9010E940611C093750800E020E038
S11306D030E0A90160E070E08091720890917308A5
S11306E00E947A0F02C080937508CF910F910895EC
S11306F00F93CF93DF9320917208309173082115E3
S11307003105B9F0EC014FEF5FEFBA01C9010E9466
S1130710061180917508888300E020E030E0A9018B
S113072060E070E080917208909173080E947A0FE3
S113073004C020917508FC012083DF91CF910F91B3
S113074008950F93CF932091720830917308211567
S11307503105B1F0C82F4FEF5FEFBA01C9010E9414
S11307600611C093740800E020E030E0A90160E0C5
S113077070E080917208909173080E947A0F02C011
S113078080937408CF910F9108950F93CF93DF93C3
S1130790209172083091730821153105B9F0EC01EC
S11307A04FEF5FEFBA01C9010E94061180917408EE
S11307B0888300E020E030E0A90160E070E08091EF
S11307C07208909173080E947A0F04C020917408F3
S11307D0FC012083DF91CF910F91089568E070E0D0
S11307E081E090E00E94962F009749F0FC0113826B
S11307F01282158214821182108217821682089541
S1130800009749F09B01285C31092934364218F4D9
S1130810FC01718360830895009739F0693E23E0F9
S1130820720718F4FC01758364830895009749F0F6
S11308309B0120573E4F273B334018F4FC01738340
S113084062830895009731F06739710518F4FC014B
S1130850778366830895FC01DB0112966C911297ED
S113086013967C91139714964C91149715965C915A
S113087015972C9111963C91119716968C91169779
S113088017969C91A1E0A083A8E0A183728363835F
S1130890548345833683278390878187CF010895C6
S11308A021E0FC01208322E0218312821382089537
S11308B02F923F924F925F926F927F928F929F926C
S11308C0AF92BF92CF92DF92EF92FF920F931F935A
S11308D0CF93DF9300D01F92CDB7DEB7282E362EEC
S11308E05C834B83280139016AE070E081E090E089
S11308F00E94962F9A838983009709F442C0FC01D1
S1130900918280828A8D9B8D938382838C8D9D8D31
S11309109583848363DFE981FA81978386838B815E
S11309209C819093990880939808409294085092DF
S113093095086092960870929708F0929308E09256
S11309409208A0928E08B0928F08C0929008D0921C
S113095091088E8D9F8D90938D0880938C08432DE4
S113096050E07F0198E0E90EF11C022D9F0164E93B
S113097072E08EEE95E00E9472158BE992E00E947F
S11309809C3189819A810F900F900F900F90DF9185
S1130990CF911F910F91FF90EF90DF90CF90BF9078
S11309A0AF909F908F907F906F905F904F903F900B
S11309B02F900895AF92BF92CF92DF92EF92FF9261
S11309C00F931F93CF93DF93CDB7DEB766970FB620
S11309D0F894DEBF0FBECDBF5C0181E090E04ED63F
S11309E08C0186DEF8018081882309F4C4C081E08B
S11309F090E044D68C01C9DEF8018081882311F08F
S1130A007BD201C07ED240919408509195086091A8
S1130A10960870919708809198089091990848D504
S1130A2085EA92E00E949C3140918E0850918F0893
S1130A306091900870919108CC24CA94DC2C7601C2
S1130A4001E021E0809192089091930871D4009183
S1130A508E0810918F082091900830919108DC0144
S1130A60CB0180239123A223B323081719072A0754
S1130A703B0709F0A2C0F5018081918107DEBC012A
S1130A80F50186819781BCDEF50184819581F8D2D8
S1130A90BC01F50186819781D5DEF50182819381C0
S1130AA024D2BC01F50186819781C0DEF5018281E3
S1130AB0938117D2BC01F50186819781ADDE89EB64
S1130AC092E00E949C31F50180819181DFDD9F934A
S1130AD08F938DEC92E09F938F930E948931F5015F
S1130AE08281938102D29F938F9389ED92E09F93A9
S1130AF08F930E948931F50182819381F2D19F9372
S1130B008F938DEE92E09F938F930E948931F5012C
S1130B1084819581B5D29F938F938EEF92E09F93BA
S1130B208F930E948931F50166817781CE01019608
S1130B3092DE86E1FE013196A6E7B8E001900D92BF
S1130B408A95E1F70FEF1FEF980146E150E066E761
S1130B5078E080918C0890918D080E94421360ED9A
S1130B6077E080E090E00E9432180FB6F894DEBF80
S1130B700FBECDBF22C068E873E180E090E00E9420
S1130B803218F50166817781CE01019689DE86E10E
S1130B90FE013196A6E7B8E001900D928A95E1F73F
S1130BA00FEF1FEF980146E150E066E778E080918F
S1130BB08C0890918D080E94421366960FB6F894A3
S1130BC0DEBF0FBECDBFDF91CF911F910F91FF907C
S1130BD0EF90DF90CF90BF90AF900895EC01CE01DD
S1130BE0E9DEFDCFEF92FF920F939B01E12CF12CF4
S1130BF0082F48E851E06CE073E08CE996E00E942D
S1130C0072150F91FF90EF9008950F931F93CF9358
S1130C10DF930FEF1FEF980146E150E06AE978E0B7
S1130C200E942F14CAE9D8E089811F928F938B8187
S1130C301F928F938A811F928F9385E193E09F93F4
S1130C408F930E9489318DB79EB708960FB6F8949A
S1130C509EBF0FBE8DBF8981823009F068C0FE013E
S1130C60CA818381C80F81E090E008D58C01C53723
S1130C70E9F018F4C43739F052C0C63851F1C73816
S1130C8009F43AC04CC080E00FDDC80131DDF80141
S1130C9080811F928F9386E493E09F938F930E94A9
S1130CA089310F900F900F900F9041C081E0FCDCD0
S1130CB0C8011EDDF80180811F928F9386E493E0C2
S1130CC09F938F930E9489310F900F900F900F90F4
S1130CD02EC080E036DDC80158DDF80180811F9206
S1130CE08F9387E693E09F938F930E9489310F90AF
S1130CF00F900F900F901BC081E023DDC80145DDEC
S1130D00F80180811F928F9387E693E09F938F93DE
S1130D100E9489310F900F900F900F9008C08DE8BA
S1130D2093E09F938F930E9489310F900F90DF91EE
S1130D30CF911F910F910895EC01CE0166DFFDCF95
S1130D402F923F924F925F926F927F928F929F92D7
S1130D50AF92BF92CF92DF92EF92FF920F931F93C5
S1130D60CF93DF93882E962E1A012801390166E06D
S1130D7070E081E090E00E94962FEC01009771F101
S1130D80198218821B821A823092BB082092BA08F8
S1130D904092B6085092B7086092B8087092B908A9
S1130DA0F092B508E092B408A092B008B092B108ED
S1130DB0C092B208D092B308492D50E07C0184E07F
S1130DC0E80EF11C082D9E016DE973E08DE697E0B5
S1130DD00E9472158EEA93E00E949C31CE01DF914D
S1130DE0CF911F910F91FF90EF90DF90CF90BF9024
S1130DF0AF909F908F907F906F905F904F903F90B7
S1130E002F900895CF92DF92EF92FF920F931F934A
S1130E10CF93DF93EC014091B6085091B7086091ED
S1130E20B8087091B908CC24CA94DC2C760101E08E
S1130E3021E08091BA089091BB087AD20091B6085B
S1130E401091B7082091B8083091B908DC01CB01A2
S1130E5080239123A223B323081719072A073B07EA
S1130E6099F50E94F91F62E370E080E090E00E942F
S1130E7032180E940E2065E070E080E090E00E944D
S1130E8032180E94F61F882361F00E94342099834F
S1130E9088830E945A209B838A838DEC93E00E946E
S1130EA09C3168EE73E080E090E00E94321840913B
S1130EB0B0085091B1086091B2087091B308809164
S1130EC0B4089091B508F4D2DF91CF911F910F919E
S1130ED0FF90EF90DF90CF900895EC01CE0192DF68
S1130EE0FDCFFC01808191810895FC018281938171
S1130EF008950C94BA27089564E680E00C94A22720
S1130F0008956CE980E00C94A22708952F923F92F3
S1130F104F925F926F927F928F929F92AF92BF9205
S1130F20CF92DF92EF92FF920F931F93CF93DF93B1
S1130F30882E962E1A012801390164E070E081E0C0
S1130F4090E00E94962FEC01009751F1FC01119260
S1130F5011923092C7082092C6084092C20850925B
S1130F60C3086092C4087092C508F092C108E09268
S1130F70C008A092BC08B092BD08C092BE08D0922E
S1130F80BF08492D50E07F01082D9C0163EF73E0F9
S1130F908CE398E00E9472158FEF93E00E949C31DD
S1130FA0CE01DF91CF911F910F91FF90EF90DF90D1
S1130FB0CF90BF90AF909F908F907F906F905F90F5
S1130FC04F903F902F900895CF92DF92EF92FF922F
S1130FD00F931F93CF93DF93EC014091C20850917C
S1130FE0C3086091C4087091C508CC24CA94DC2C51
S1130FF0760101E021E08091C6089091C70898D15C
S11310000091C2081091C3082091C4083091C5080A
S1131010DC01CB0180239123A223B32308171907F2
S11310202A073B0701F580E090E05DDACB010E94DE
S11310301B310E94183169E670E00E94452F0F961B
S1131040998388834091BC085091BD086091BE0883
S11310507091BF088091C0089091C10829D28EE098
S113106094E00E949C31DF91CF911F910F91FF90EA
S1131070EF90DF90CF900895EC01CE01A5DFFDCF76
S1131080FC01808191810895EF92FF920F939B015F
S1131090E12CF12C082F48E851E067E274E08BE67C
S11310A099E00E9472150F91FF90EF900895DF92DE
S11310B0EF92FF920F931F93CF93DF937C01809164
S11310C0C8088111CFC081E00E947A2362E070E0F9
S11310D080E090E00E94321880E00E947A2366E962
S11310E070E080E090E00E9432180E94302381E09A
S11310F00E9488210E948E230E940B269F938F9327
S113110080E394E09F938F930E9489310E940C2581
S11311100E940B269F938F9383E494E09F938F9375
S11311200E9489318FED98E00E94A0230E940B2633
S1131130CFEDD8E0DF93CF939F938F938CE594E02A
S11311409F938F930E948931CE010E94BC230E94F9
S11311500B269F938F93DF93CF9380E794E09F9325
S11311608F930E948931AE0165E874E086EA94E0C9
S11311700E94EA250E940B269F938F93DF93CF93BF
S113118085E894E09F938F9386EA94E09F938F93EE
S113119087EB94E09F938F930E9489310E94EF2301
S11311A00E940B269F938F938DEE94E09F938F93D1
S11311B00E9489318DB79EB782960FB6F8949EBF70
S11311C00FBE8DBF81E00E94E9240E940B269F93ED
S11311D08F938CEF94E09F938F930E94893184EFD7
S11311E091E00E94F4240E940B269F938F9381E048
S11311F08F9384EF8F938DE195E09F938F930E945B
S113120089318DB79EB70A960FB6F8949EBF0FBE6C
S11312108DBFCAE0D0E00DE315E080E00E94F52325
S1131220D82E0E940B269F938F93DF93CF931F9307
S11312300F930E9489310F900F900F900F900F9091
S11312400F9088E0D81689F180E00E94F42166E3CB
S113125071E080E090E00E9432182197F1F62CC0F2
S11312603FD4FECF00E010E0980142E350E069EC87
S113127078E0C7010E942F14029728F183E00E94AE
S1131280062269EC78E080E00E941E240E940B266E
S11312909F938F938DE595E09F938F930E9489315F
S11312A00F900F900F900F900EC081E00E94D621F6
S11312B081E08093C808D6CF81E00E94E52180E0D8
S11312C00E94AF21CDCFDF91CF911F910F91FF905D
S11312D0EF90DF900895EC01CE01E9DE68EB7BE04E
S11312E080E090E00E943218F7CFE8E0F1E09081CE
S11312F0907F908390818F70982B90830895E8E07D
S1131300F1E08081807F80830895CF93DF9380E133
S113131090E0B4D1EC01009739F0FC0111921192E4
S113132011921192CF0194D2CE01DF91CF91089501
S11313302F923F924F925F926F927F928F929F92E1
S1131340AF92BF92CF92DF92EF92FF920F931F93CF
S1131350CF93DF93EC014A015B01622E702E0E9451
S1131360CD16288039804A805B8001110DC081E050
S1131370B201A101482159216A217B21452B462B29
S1131380472B79F480E00DC081E0B201A10148212E
S113139059216A217B21481559056A057B0509F005
S11313A080E0882381F0662009F46BC080949094D7
S11313B0A094B09482209320A420B520888299829E
S11313C0AA82BB825EC0C114D104E104F10409F411
S11313D058C0662029F040E050E060E071E003C0AE
S11313E040E050E0BA0171107460482959296A2913
S11313F07B2997018601CE0104960E94E1180E9480
S1131400B617811101C06CD30E94281B91FD35C011
S11314100FB6F8940F92688179818A819B8171104B
S11314200DC021E075016401C622D722E822F92209
S1131430CD28CE28CF2879F420E00DC021E0750115
S11314406401C622D722E822F922C814D904EA0486
S1131450FB0409F020E0222371F0662061F08094FF
S11314609094A094B09486229722A822B9228882CC
S11314709982AA82BB820F900FBE1B012C015524B6
S113148002C00E94B617C201B101DF91CF911F9132
S11314900F91FF90EF90DF90CF90BF90AF909F900F
S11314A08F907F906F905F904F903F902F90089512
S11314B04F925F926F927F928F929F92AF92BF9260
S11314C0CF92DF92EF92FF920F931F93CF93DF930C
S11314D0EC016A017B018C01095F1F4F0E94CD164C
S11314E0EB85FC8588819981AA81BB81C82AD92A88
S11314F0EA2AFB2AC882D982EA82FB820E171F07D6
S113150009F445C0C12CD12C760199249394812CE3
S1131510A480B58080819181A281B381AC01BD0199
S11315207727B2FD0FC0488059806A807B804422AF
S1131530552266227722292D45284628472889F4F2
S1131540282D0FC0488059806A807B804422552210
S113155066227722292D441655066606770609F079
S1131560282D222371F0B0FF04C0C42AD52AE62A0C
S1131570F72A488159816A817B817260CF010E9478
S11315806719EA2DFB2D0E171F0711F603C0C12C96
S1131590D12C7601C094D094E094F0948881998100
S11315A0AA81BB81C822D922EA22FB22C882D9821D
S11315B0EA82FB820E94B617688179818A819B81C5
S11315C0DF91CF911F910F91FF90EF90DF90CF901B
S11315D0BF90AF909F908F907F906F905F904F904F
S11315E00895CF93DF93DC01EBE4F9E001C0F90146
S11315F0208131812A173B07D0F382819381AF0187
S1131600480F591FA417B50749F412964D915C91E0
S11316101397840F951F93838283DF0112968D9114
S11316209C911397ED01C80FD91F2C173D07D9F4CE
S11316302091490930914A09C217D30781F02A81C0
S11316403B81820F931F13969C938E931297C081B4
S1131650D1818881998111969C938E9307C01196AC
S1131660DC93CE9303C011963C932E93AE17BF0721
S113167011F0B183A083DF91CF910895CF92DF92CF
S1131680EF92FF920F931F93CF93DF93EC010E948D
S1131690CD168091490990914A09892B41F5EBE4D3
S11316A0F9E0AFE4B9E0B183A08313821282EBEED8
S11316B0F8E1F0934A09E0934909138212821182F6
S11316C010828CE99FE013969C938E931297ED936E
S11316D0FC9390934609809345099093480980931D
S11316E0470980E090E89093440980934309E0908F
S11316F04309F0904409C7018C239D23892B09F0E9
S113170066C0209709F466C0AE014C5F5F4F09F4D0
S11317105EC000914709109148090417150708F4A1
S113172056C0C0914B09D0914C09EBE4F9E002C0DA
S1131730FE01E9012A813B812417350728F4288119
S1131740398121153105A1F78091490990914A0900
S1131750C817D907E1F1C080D18084E0C80ED11C3C
S113176088819981918380832A813B81241B350B55
S11317702930310548F0CE01840F951FFC013383D5
S113178022835B834A832DDF8A819B81081B190B8B
S1131790109348090093470920914509309146095F
S11317A00217130720F41093460900934509E82A09
S11317B0F92AFB82EA82198218820E94B617C114A0
S11317C0D10459F40E94891EC12CD12C06C00E9458
S11317D0B617F8CF0E94B617F5CFC601DF91CF91A7
S11317E01F910F91FF90EF90DF90CF900895CF93CA
S11317F0DF93009751F1FC013497228133814091AA
S1131800430950914409B90164237523672BE9F016
S113181060817181672BC9F4EF01409550952423B1
S11318203523338322830E94CD16209147093091BA
S113183048098A819B81820F931F90934809809362
S11318404709CE01CEDE0E94B617DF91CF910895ED
S1131850FC010396928381834FEF5FEFBA014383C8
S113186054836583768390878783928781871082E8
S11318700895FC01138612860895CF93DF939C018B
S1131880FB01DC011196CD91DC911297D583C483C1
S11318908E819F81978386838E819F81DC0115963B
S11318A07C936E9314977F836E8333872287F90129
S11318B080818F5F8083DF91CF9108950F931F9371
S11318C0CF93DF93EB01088119812A813B810F3F7C
S11318D04FEF14072407340721F4FC01A185B285D6
S11318E011C0DC01139601C0DF011496ED91FC9147
S11318F0159740815181628173810417150726076A
S1131900370790F71496ED91FC911597FD83EC83BE
S1131910D783C683BF83AE831596DC93CE93149787
S11319209B878A87FC0120812F5F2083DF91CF91E1
S11319301F910F910895CF93DF93FC01A285B38586
S1131940C481D581868197819F838E83C681D78107
S1131950848195819D838C8311968D919C9112979E
S1131960E817F90731F48681978112969C938E9338
S11319701197138612868C9181508C938C91DF91F0
S1131980CF91089531E1FC013083319722E2208325
S11319903197A3E3A08331976083319770833197A4
S11319A0108231971082319760E8608331971082FA
S11319B03197108231971082319762E060833197BA
S11319C063E06083319764E06083319765E060830E
S11319D0319766E06083319767E06083319768E010
S11319E06083319769E06083319760E16083319768
S11319F03083319732E13083319733E1308331974B
S1131A0034E13083319735E13083319736E13083E7
S1131A10319737E13083319738E13083319739E1B9
S1131A203083319730E23083319731E2308331971C
S1131A302083319723E22083319740833197508369
S1131A40319726E22083319727E22083319728E2D9
S1131A502083319729E22083319720E32083319733
S1131A6021E3208389970895A89590EC88E10FB627
S1131A70F894A895809360000FBE90936000A091A5
S1131A806919B0916A19CD91CDBFDD91DEBFFF9187
S1131A90EF91DF91CF91BF91AF919F918F917F9102
S1131AA06F915F914F913F912F911F910F91FF90F3
S1131AB0EF90DF90CF90BF90AF909F908F907F90EA
S1131AC06F905F904F903F902F901F900F900CBE9F
S1131AD00F900BBE0F900FBE0F90089581E00895F4
S1131AE00F920FB6F8940F920BB60F920CB60F929A
S1131AF01F9211242F923F924F925F926F927F9286
S1131B008F929F92AF92BF92CF92DF92EF92FF9209
S1131B100F931F932F933F934F935F936F937F93F1
S1131B208F939F93AF93BF93CF93DF93EF93FF93E1
S1131B30A0916919B0916A190DB60D920EB60D9265
S1131B400E944B18A0916919B0916A19CD91CDBF2B
S1131B50DD91DEBFFF91EF91DF91CF91BF91AF9106
S1131B609F918F917F916F915F914F913F912F91B1
S1131B701F910F91FF90EF90DF90CF90BF90AF90A7
S1131B809F908F907F906F905F904F903F902F9099
S1131B901F900F900CBE0F900BBE0F900FBE0F90B6
S1131BA008950F920FB6F8940F920BB60F920CB6DD
S1131BB00F921F9211242F923F924F925F926F9235
S1131BC07F928F929F92AF92BF92CF92DF92EF92C9
S1131BD0FF920F931F932F933F934F935F936F93B2
S1131BE07F938F939F93AF93BF93CF93DF93EF93A1
S1131BF0FF93A0916919B0916A190DB60D920EB6B2
S1131C000D9213BE0E94E11681110E944B18A091FF
S1131C106919B0916A19CD91CDBFDD91DEBFFF91F5
S1131C20EF91DF91CF91BF91AF919F918F917F9170
S1131C306F915F914F913F912F911F910F91FF9061
S1131C40EF90DF90CF90BF90AF909F908F907F9058
S1131C506F905F904F903F902F901F900F900CBE0D
S1131C600F900BBE0F900FBE0F9008959ADF18953A
S1131C700FB6F8940F92FC01968D0F900FBE81E081
S1131C80911180E008950F931F93CF93DF93EC019C
S1131C90042F1E8D48A141110CC088819981892B84
S1131CA009F042C08C819D810E949C1A1D821C8275
S1131CB042C0011117C050E08A819B810E942A31E1
S1131CC028A18A819B81820F911D9B838A832C8109
S1131CD03D818217930750F1888199819B838A8380
S1131CE080E029C050E08E819F810E942A3188A122
S1131CF090E09195819591092E813F81280F391F9C
S1131D003F832E83488159812417350730F42C8171
S1131D103D81820F931F9F838E83023049F41123E8
S1131D2049F0115080E007C080E005C080E003C0A6
S1131D3080E001C080E01F5F1E8FDF91CF911F9173
S1131D400F910895FC0140A14423A9F050E026819D
S1131D503781240F351F3783268384819581281783
S1131D60390720F08081918197838683CB01668136
S1131D7077810C942A310895EF92FF920F931F9369
S1131D80CF938C010FB6F8940F92FC01C2A11C16DC
S1131D90ACF48389811106C011C0F80183898111D3
S1131DA005C00CC07801F3E1EF0EF11CC7010E94DD
S1131DB0251981110E94171AC15079F78FEFF80184
S1131DC082A30F900FBE0FB6F8940F92C1A11C16F8
S1131DD0ACF48085811106C011C0F80180858111A1
S1131DE005C00CC07801F8E0EF0EF11CC7010E9499
S1131DF0251981110E94171AC15079F78FEFF80144
S1131E0081A30F900FBECF911F910F91FF90EF9080
S1131E100895CF93DF93EC010FB6F8940F92E88105
S1131E20F9818F8D28A190E030E0829FA001839FEB
S1131E30500D929F500D11244E0F5F1F5D834C83F4
S1131E401E8EFB83EA830197829FA001839F500D1E
S1131E50929F500D1124CF01840F951F9F838E8371
S1131E608FEF89A38AA361110BC08885882371F041
S1131E70CE0108960E942519882341F031DE06C060
S1131E80CE010896E5DCCE014396E2DC0F900FBE4E
S1131E9081E0DF91CF910895FF920F931F93CF9329
S1131EA0DF93082F162FF42E6623B9F0869FC00106
S1131EB011248596E3DBEC01009741F414C00F8FE5
S1131EC018A361E0CE01A5DFFCA20DC0859699831D
S1131ED08883F5CFD983C883F2CF85E290E0CEDB47
S1131EE0EC01892BB9F7CE01DF91CF911F910F91AE
S1131EF0FF9008959F92AF92BF92CF92DF92EF929C
S1131F00FF920F931F93CF93DF93CDB7DEB729973B
S1131F100FB6F894DEBF0FBECDBF7C015B012E83EC
S1131F203F834887598710E0992493946C0188E093
S1131F30C80ED11C0FB6F8940F92F701968D878DB9
S1131F40981710F00230B1F4402FB501C7019BDEA1
S1131F50F7019389992341F0C70143960E942519FB
S1131F60882321F0BDDD02C08111BADD0F900FBEC0
S1131F7081E04EC08E819F81A885B985892B8A2BEB
S1131F808B2B21F40F900FBE80E042C0111105C0CD
S1131F90CE0101960E94B119192D0F900FBEFDD6E6
S1131FA00FB6F8940F92F70181A18F3F09F411A2A3
S1131FB0F70182A18F3F09F412A20F900FBEBE0158
S1131FC06A5F7F4FCE0101960E94C21981111CC025
S1131FD00FB6F8940F92F701968D878D0F900FBE70
S1131FE098130EC04E815F8168857985C6010E9471
S1131FF0CA18C701C1DEBAD781119CCF71DD9ACF4F
S1132000C701BADEB3D796CFC701B6DEAFD780E03B
S113201029960FB6F894DEBF0FBECDBFDF91CF91E6
S11320201F910F91FF90EF90DF90CF90BF90AF90F2
S11320309F9008950F93CF93DF93482F60E081E042
S11320402BDFEC01009761F01D821C82198218823B
S11320501E8200E020E030E0A90160E070E04ADF89
S1132060CE01DF91CF910F910895EF92FF920F93DC
S11320701F93CF93DF938A01FC01568D378D53173D
S113208010F02230E9F4422F7801EC011AA1FBDDB3
S11320901F3F81F48B898823A9F0CE0143960E94C7
S11320A02519882389F0E114F10481F081E0F70116
S11320B080830DC0FF24F394F10EFAA281E007C0DF
S11320C080E005C081E003C081E001C081E0DF91D0
S11320D0CF911F910F91FF90EF9008959F92AF922F
S11320E0BF92CF92DF92EF92FF920F931F93CF9301
S11320F0DF93CDB7DEB729970FB6F894DEBF0FBED6
S1132100CDBF8C015B012E833F8348875987E12C27
S1132110992493946C0183E1C80ED11C0FB6F894F2
S11321200F92F801F68CFF2099F0B501C8010ADE80
S1132130FA94F801F68E8085882331F0C801089658
S11321400E9425198111CCDC0F900FBE81E04CC098
S11321508E819F81A885B985892B8A2B8B2B21F4AD
S11321600F900FBE80E040C0E11005C0CE01019683
S11321700E94B119E92C0F900FBE0FD60FB6F89438
S11321800F92F80181A18F3F09F411A2F80182A1F5
S11321908F3F09F412A20F900FBEBE016A5F7F4FFA
S11321A0CE0101960E94C219811115C0C80160DDDB
S11321B0882369F04E815F8168857985C601EAD7F5
S11321C0C801DADDD3D68111A9CF8ADCA7CFC80133
S11321D0D3DDCCD6A3CFC801CFDDC8D6C80148DD36
S11321E0882309F49BCF80E029960FB6F894DEBFCC
S11321F00FBECDBFDF91CF911F910F91FF90EF9054
S1132200DF90CF90BF90AF909F900895BF92CF92F0
S1132210DF92EF92FF920F931F93CF93DF93CDB78B
S1132220DEB729970FB6F894DEBF0FBECDBF8C0181
S11322304E835F8368877987B12CD12CCC24C394D7
S11322407C0183E1E80EF11C0FB6F8940F92D801DB
S11322505E968C915E978823D9F081505E968C931C
S11322605E978D919C91892B29F40E94501BF80153
S113227095838483D80118968C91882329F0C8010A
S11322800896E3D781112CDC0F900FBE81E07AC051
S11322908E819F81A885B985892B8A2B8B2B21F46C
S11322A00F900FBE80E06EC0D11005C0CE01019624
S11322B00E94B119DC2C0F900FBE6FD50FB6F894A5
S11322C00F92F80181A18F3F09F411A2D8019296CF
S11322D08C9192978F3F11F492961C920F900FBE9F
S11322E0BE016A5F7F4FCE0101960E94C21981111F
S11322F024C0C801BDDC8823E1F0F801808191810C
S1132300892B51F40FB6F8940F92848195810E9421
S11323102E1AB82E0F900FBE4E815F816885798585
S1132320C70138D7C80128DD21D681118DCFD8DB6C
S11323308BCFC80121DD1AD687CFC8011DDD16D683
S1132340C80196DC882309F47FCFBB20D1F00FB6F7
S1132350F8940F92F8018389882339F0028CF38D65
S1132360E02D808164E0681B01C060E0D801149610
S11323708D919C9115970E94DC1A0F900FBE80E0FE
S113238001C080E029960FB6F894DEBF0FBECDBF22
S1132390DF91CF911F910F91FF90EF90DF90CF903D
S11323A0BF900895CF93DF93EC010FB6F8940F928A
S11323B089A18F3F09F419A28AA18F3F09F41AA2B7
S11323C00F900FBE8E8D811103C0CE0143961DD791
S11323D0CE01D2DCDF91CF910895FC014481558177
S11323E022813381240F351F80819181B901681BBB
S11323F0790BCB016417750710F0841B950B0895B6
S1132400AF92BF92CF92DF92EF92FF920F931F93FE
S1132410CF93DF936C015B017A01FC01C281D3810C
S1132420048115810C1B1D0B4017510708F48A0108
S1132430F60184859585A801B5018C0F9D1F0E9426
S11324402A310E151F0558F4A701401B510BB50185
S1132450600F711FF601848595850E942A31CE0193
S11324608E0D9F1DF601248135818217930710F08C
S1132470821B930BF60193838283C701DF91CF9173
S11324801F910F91FF90EF90DF90CF90BF90AF908E
S11324900895CF92DF92EF92FF920F931F93CF9301
S11324A0DF931F921F92CDB7DEB75A83498321155C
S11324B03105C9F06B017C01FC01868580FD08C0F3
S11324C0CA012417350708F4C9019A83898311C006
S11324D02017310758F042E050E0BE016F5F7F4F94
S11324E0C7018EDF06C080E090E008C080E090E085
S11324F005C049815A81B601C70182DF0F900F9050
S1132500DF91CF911F910F91FF90EF90DF90CF90CB
S11325100895AF92BF92CF92DF92EF92FF920F9302
S11325201F93CF93DF937C015B01E90142175307AB
S113253008F4EA01209779F1F70100811181C48040
S1132540D580C01AD10ACC15DD0508F46E01F70157
S113255064857585600F711FA601C5010E942A312B
S1132560CC16DD0658F4AE014C195D09F7016485FB
S11325707585C5018C0D9D1D0E942A310C0F1D1FF0
S1132580F701848195810817190710F0081B190BAE
S1132590F70111830083CE01DF91CF911F910F9139
S11325A0FF90EF90DF90CF90BF90AF900895EF929F
S11325B0FF921F93CF93DF93EB0111E0413009F0B9
S11325C010E0209711F4C1E0D0E07C012FEFE21A73
S11325D0F20A419653D8009781F020E1FC01119250
S11325E02A95E9F79C01205F3F4FFC01358724873A
S11325F0F582E482D783C6831687DF91CF911F913A
S1132600FF90EF900895CF93DF93FC0127850FB6D9
S1132610F8940F9280859185892BD1F482859385D6
S1132620892BC1F486854681578164817581A4858F
S1132630B58590E1EF0119929A95E9F7B587A487DA
S113264075836483578346838687278781E003C025
S113265080E001C080E00F900FBEDF91CF9108951C
S1132660FC01248135818081918142815381820FD3
S1132670931F0197841B950B8217930710F0821BFD
S1132680930B08952F923F924F925F926F927F9295
S11326908F929F92AF92BF92CF92DF92EF92FF926E
S11326A00F931F93CF93DF93CDB7DEB729970FB660
S11326B0F894DEBF0FBECDBF5C011B012A010E835F
S11326C01F8328873987FC01868580FF05C03A016E
S11326D0F2E06F0E711C01C03A018E819F81A885C2
S11326E0B985892B8A2B8B2B09F434C0CE01019632
S11326F022D60FB6F8940F92C501B2DF4C018615AD
S1132700970518F580E090E00E94ED1C94D6F50141
S1132710938782870F900FBECE80DF80E884F98490
S113272000E010E020E030E0A90160E070E0CB01BF
S1132730C9D7F50113861286BE016A5F7F4FCE01A9
S1132740019620D68823A9F202C00F900FBE8114EF
S1132750910419F4C50184DF4C0183019401A201A1
S1132760B101C50196DE7C01892BE1F0C50135DE9E
S1132770F5012681378182179307A0F00ED3F50166
S113278080859185892B69F08085918500E010E032
S113279020E040E050E0BA010E94EC1BF5011186F4
S11327A01086E4D3C70129960FB6F894DEBF0FBE96
S11327B0CDBFDF91CF911F910F91FF90EF90DF90EC
S11327C0CF90BF90AF909F908F907F906F905F90CD
S11327D04F903F902F900895AF92BF92CF92DF9287
S11327E0EF92FF920F931F93CF93DF93EC015B0162
S11327F06A0179018E8580FF04C08A010E5F1F4F34
S113280001C08A01CE012CDF9C01A601B501CE01D5
S113281040DE6C01892BB9F0CE01DFDD2E813F81D2
S11328208217930780F088859985892B61F08885C4
S1132830998500E010E020E040E050E0BA010E94F9
S1132840641C19861886C601DF91CF911F910F91E0
S1132850FF90EF90DF90CF90BF90AF9008954F928C
S11328605F926F927F928F929F92AF92BF92CF921C
S1132870DF92EF92FF920F931F93CF93DF931F92F8
S11328801F92CDB7DEB75C012B013A0168017901D3
S1132890FC01868580FD03C0812C912C04C06894C2
S11328A0882481F8912CC114D104E104F10431F19C
S11328B00FB6F8940F92C50190DD8C018816990625
S11328C040F080E090E00E94ED1CB5D5F5019187C1
S11328D080870F900FBE80169106B0F000E010E0E4
S11328E020E030E0A90160E070E0CB01EBD6F50117
S11328F011861086C50171DD8C0103C0C5016DDD33
S11329008C0180169106B8F581149104C1F0F5018B
S1132910E080F1809801A401BE016F5F7F4FC50183
S1132920F8DD89819A81081919096816790630F445
S1132930F501F182E082612C712C01C03C01980107
S1132940A301B201C501E5DD7C01892BB1F025D2DB
S1132950F50182859385892B61F08285938500E05A
S113296010E020E040E050E0BA0136D7F5011386CC
S11329701286FCD202C0E12CF12CC7010F900F90FB
S1132980DF91CF911F910F91FF90EF90DF90CF9047
S1132990BF90AF909F908F907F906F905F904F907B
S11329A00895E0912519F0912619808181110CC0B8
S11329B08FEF9FEFDC018093F2189093F318A093AC
S11329C0F418B093F5180895E0912519F09126199B
S11329D00780F085E02D0084F185E02D82819381CC
S11329E0A481B5818093F2189093F318A093F418FE
S11329F0B093F51808958F929F92AF92BF92CF92A1
S1132A00DF92EF92FF92CF936B017C01C42F8090F1
S1132A10FC189090FD18A090FE18B090FF188091BB
S1132A20691990916A1902960E949B0C8FEFC8163F
S1132A30D806E806F80669F4CC2359F060916919C0
S1132A4070916A196E5F7F4F81E099E10E943D0C9D
S1132A503FC0C80CD91CEA1CFB1CE0916919F09119
S1132A606A19C282D382E482F582C814D904EA04C2
S1132A70FB0468F46091691970916A1980912319B3
S1132A80909124196E5F7F4F0E945E0C21C060916B
S1132A90691970916A1980912519909126196E5FB0
S1132AA07F4F0E945E0C8091F2189091F318A091D0
S1132AB0F418B091F518C816D906EA06FB0640F4D6
S1132AC0C092F218D092F318E092F418F092F5182C
S1132AD0CF91FF90EF90DF90CF90BF90AF909F90F9
S1132AE08F9008954F925F926F927F928F929F92F0
S1132AF0AF92BF92CF92DF92EF92FF920F93CF9358
S1132B00DF934C016B015A012901CA010E943E0B5B
S1132B103C01892B09F4F4C080E390E00E943E0B51
S1132B20EC01892B99F07C8E6B8EA50165EA70E02F
S1132B30C3010E94333121E0A21AB1088B8D9C8D10
S1132B40A80EB91EC114D10429F420C0C3010E94E7
S1132B50F70BD6C0D6018C918D8F8C918823A1F070
S1132B60AE01425E5F4FF6013196B8E0CB0ED11C48
S1132B70CF012191DA012D93AD01DC018C918823E1
S1132B8019F0EC15FD05A1F71CA201C01D8E04303F
S1132B9008F003E00A8F0FA318A66E01B2E0CB0E73
S1132BA0D11CC6010E94390CCE010E960E94390C2C
S1132BB0DB87CA8784E090E0A0E0B0E0801B910945
S1132BC0A109B1098E879F87A88BB98BDF8BCE8B28
S1132BD01AA619A61BA61CA61DA61EA61FA6A20100
S1132BE0B401C5010E94C20C99838883E114F104E5
S1132BF019F0F701D183C0830FB6F8940F92809136
S1132C0000198F5F809300198091691990916A1956
S1132C10892BD1F5D0936A19C09369198091001951
S1132C20813009F041C08DE399E10E94280C88E4C9
S1132C3099E10E94280C83E599E10E94280C8EE515
S1132C4099E10E94280C82E399E10E94280C87E212
S1132C5099E10E94280C88E199E10E94280C8DE0FA
S1132C6099E10E94280C81E099E10E94280C82E3FA
S1132C7099E1909326198093251987E299E190931D
S1132C8024198093231910C08091FA1881110CC063
S1132C90E0916919F0916A19928D8A8D891720F053
S1132CA0D0936A19C09369198091F6188F5F809345
S1132CB0F6188DA38A8D9091FB18981710F48093C1
S1132CC0FB18FBE08F9FC0011124B601835C964E74
S1132CD00E943D0C0F900FBE8091FA18882361F07A
S1132CE0E0916919F0916A19928D8A8D981730F4E0
S1132CF00E94700D81E005C081E003C081E001C045
S1132D008FEFDF91CF910F91FF90EF90DF90CF90F5
S1132D10BF90AF909F908F907F906F905F904F90F7
S1132D200895EF92FF920F930F2EF0EFEF2EF8E13C
S1132D30FF2EF02D00E020E030E040EC50E062E7B0
S1132D4075E08DEC90E0CEDE813019F5CCD6813083
S1132D5001F5F8948FEF9FEFDC018093F2189093C4
S1132D60F318A093F418B093F51881E08093FA183F
S1132D701092FC181092FD181092FE181092FF1871
S1132D80E0916919F0916A1981A50E9475090E9460
S1132D90340D0F91FF90EF9008958091EF188F5F9D
S1132DA08093EF1808950FB6F8940F926091FC1871
S1132DB07091FD188091FE189091FF180F900FBE2E
S1132DC008959F92AF92BF92CF92DF92EF92FF92BB
S1132DD00F931F93CF93DF938091EF188111ADC0B0
S1132DE0C090FC18D090FD18E090FE18F090FF18E9
S1132DF08FEFC81AD80AE80AF80AC092FC18D092D1
S1132E00FD18E092FE18F092FF18C114D104E104F9
S1132E10F104B1F480912519909126192091231978
S1132E20309124193093261920932519909324194D
S1132E30809323198091F7188F5F8093F718B1DD81
S1132E408091F2189091F318A091F418B091F518AC
S1132E50C816D906EA06FB0610F4B12C5DC0B12CE5
S1132E600F2EFBE0AF2EF02D99249394E0912519B9
S1132E70F0912619808181110CC08FEF9FEFDC0146
S1132E808093F2189093F318A093F418B093F51864
S1132E9043C0E0912519F09126190780F085E02DB3
S1132EA0C085D1858A819B81AC81BD81C816D90634
S1132EB0EA06FB0648F48093F2189093F318A09363
S1132EC0F418B093F51828C08E010E5F1F4FC80187
S1132ED00E949B0C888D998D892B21F0CE010E9632
S1132EE00E949B0C8A8D9091FB18981710F4809384
S1132EF0FB18A89EC0011124B801835C964E0E9461
S1132F003D0CE0916919F0916A199A8D828D981798
S1132F1008F4ACCFB92CAACFE0916919F0916A19E1
S1132F20E28D8BE0E89FF0011124E35CF64E808192
S1132F30823048F0BB24B39406C08091F9188F5FA7
S1132F408093F918B12C8091F818882311F0BB24D0
S1132F50B3948B2DDF91CF911F910F91FF90EF9040
S1132F60DF90CF90BF90AF909F900895CF92DF9263
S1132F70EF92FF920F931F93CF93DF930FB6F894C2
S1132F800F928091EF1881508093EF188091EF1881
S1132F9081115AC08091001981112CC058C0D701E9
S1132FA01796ED91FC911897C085D185CE010E96A8
S1132FB00E949B0C8E010E5F1F4FC8010E949B0C48
S1132FC08A8D9091FB18981710F48093FB18D89E63
S1132FD0C0011124B801835C964E0E943D0CE0911F
S1132FE06919F0916A199A8D828D981788F0C092A8
S1132FF0F8180EC0C0E0D0E00F2EF8E1EF2EF9E192
S1133000FF2EF02D0F2EFBE0DF2EF02DCC24C394E9
S1133010F70180818111C3CFCD2B09F0C2DCC091AF
S1133020F918CC2349F0D1E0CCDE8111D093F81803
S1133030C150D1F71092F9188091F818882331F013
S11330400E94700D81E003C080E001C080E00F9019
S11330500FBEDF91CF911F910F91FF90EF90DF9002
S1133060CF900895CF92DF92EF92FF926B017C0193
S1133070672B682B692B41F090DE40E0C701B60155
S1133080BADC74DF811102C00E94700DFF90EF90D2
S1133090DF90CF9008958091EF18882321F081E08C
S11330A08093F81808951092F818E0916919F09136
S11330B06A1981A50E947F09A0916919B0916A19C2
S11330C0E0916919F0916A192D913C91838D948D49
S11330D08217930758F06091691970916A19809169
S11330E0691990916A19635E7F4F20D68091FB180D
S11330F0282F30E09BE0899FF0011124E35CF64E19
S1133100908191110EC04BE08150282F30E0429FF6
S1133110F001439FF00D1124E35CF64E9081992356
S113312099F39BE0929FA001939F500D1124DA0123
S1133130A35CB64E1196ED91FC9112970480F58133
S1133140E02D1296FC93EE931197405C564EE417D3
S1133150F50729F444815581FD01528341839BE0A5
S1133160929FF001939FF00D1124E35CF64E0180D1
S1133170F281E02D2085318530936A1920936919F5
S11331808093FB18E0916919F0916A1981A50C9458
S113319075090895CF92DF92EF92FF926A017B0145
S11331A06091691970916A19625F7F4F0E945E0C89
S11331B041E0C701B6011FDCFF90EF90DF90CF9094
S11331C00895CF92DF92EF92FF920F931F936801BD
S11331D07901E0916919F0916A19706846875787F7
S11331E0608B718B6091691970916A19625F7F4F6E
S11331F00E943D0C41E0C701B601FDDB1F910F9118
S1133200FF90EF90DF90CF900895CF92DF92EF92EE
S1133210FF92CF936A017B01C22F6091691970916B
S11332206A19625F7F4F0E943D0CCC2321F0CC24AD
S1133230CA94DC2C76014C2FC701B601DCDBCF919C
S1133240FF90EF90DF90CF9008950F931F93CF934B
S1133250DF93DC011796ED91FC911897C085D18519
S11332608E01025F1F4FC8010E949B0C8091EF18D2
S1133270811116C00C501109C8010E949B0C8A8D43
S11332809091FB18981710F48093FB18BBE08B9F68
S1133290C0011124B801835C964E0E943D0C05C008
S11332A0B80188E199E10E943D0CE0916919F0911F
S11332B06A199A8D828D891720F481E08093F81819
S11332C001C080E0DF91CF911F910F9108950F937A
S11332D01F93CF93DF937068FC0140835183628313
S11332E07383C085D1850E949B0C8E010E5F1F4F96
S11332F0C8010E949B0C8A8D9091FB18981710F4BA
S11333008093FB18FBE08F9FC0011124B801835CFC
S1133310964E0E943D0CE0916919F0916A199A8DBC
S1133320828D891718F481E08093F818DF91CF918A
S11333301F910F9108950FB6F8940F922091F718EA
S1133340FC0120834091FC185091FD186091FE18F7
S11333507091FF1841835283638374830F900FBE6F
S113336008952091F718FC0120834091FC18509196
S1133370FD186091FE187091FF1841835283638396
S113338074830895CF92DF92EF92FF920F931F936D
S1133390CF93DF93FB010FB6F8940F924091FC1882
S11333A05091FD186091FE187091FF1800811181F1
S11333B0228133810F3FAFEF1A072A073A0749F1F9
S11333C0EC01C980DA80EB80FC80A091F718B88109
S11333D0BA1729F04C155D056E057F05E0F44C190C
S11333E05D096E097F09401751076207730758F496
S11333F0041B150B260B370B0083118322833383A5
S1133400B0DF80E009C0108211821282138281E051
S113341003C080E001C081E00F900FBEDF91CF9127
S11334201F910F91FF90EF90DF90CF90089581E06E
S11334308093F81808958091691990916A190895F4
S11334408091FA18882331F08091EF18882321F0B5
S113345080E0089581E0089582E008950F931F931A
S1133460CF93DF93FC01892B09F460C0828DA09176
S11334706919B0916A195A969C91891708F04AC043
S11334804685578560897189772394F0A0916919DD
S1133490B0916A195A969C9144E050E060E070E063
S11334A0491B51096109710946875787608B718BE4
S11334B02BE0829FC0011124835C964E24853585C0
S11334C028173907F1F48F01EF012296CE010E94EB
S11334D09B0CE0916919F0916A19828DF801828F31
S11334E09091FB18981710F48093FB18FBE08F9FC2
S11334F0C0011124BE01835C964E0E943D0C81E004
S113350016C0A0916919B0916A195A968C91828F4C
S113351081E00DC0A0916919B0916A1981E027A1D9
S11335205A969C91291718F080E001C080E0DF9141
S1133530CF911F910F9108950F931F93CF93DF9312
S1133540FC01892B79F180A5815080A7228D97A158
S1133550291751F181112AC0EF018F010E5F1F4F0E
S1133560C8010E949B0C8FA18A8F44E050E060E068
S113357070E0481B5109610971094E875F87688BA8
S1133580798B9091FB18981710F48093FB182BE01B
S1133590829FC0011124B801835C964E0E943D0CA9
S11335A081E005C080E003C080E001C080E0DF91DD
S11335B0CF911F910F9108950F931F93CF93DF9392
S11335C0FC01892B09F43FC087A1861708F4862FD4
S11335D0928D9817C1F120A52130A9F5828F4685D7
S11335E0578560897189772364F044E050E060E096
S11335F070E0481B51096109710946875787608B40
S1133600718B2BE0929FC0011124835C964E24851C
S1133610358528173907B9F4EF018F010E5F1F4F65
S1133620C8010E949B0C8A8D9091FB18981710F486
S11336308093FB182BE0829FC0011124B801835CA6
S1133640964E0E943D0CDF91CF911F910F910895EA
S1133650CF92DF92EF92FF92E0916919F0916A198B
S11336606685778580899189E0916919F0916A1955
S1133670A0916919B0916A195A962C91C12CD12C38
S113368076016894C2F8C21AD108E108F108C68626
S1133690D786E08AF18AFF90EF90DF90CF9008956B
S11336A08091691990916A19892B39F0E09169190F
S11336B0F0916A1980A58F5F80A780916919909114
S11336C06A1908954F925F926F927F928F929F92A0
S11336D0AF92BF92CF92DF92EF92FF920F931F931C
S11336E049015A010FB6F8940F92E0916919F091CB
S11336F06A1927A5223039F1E0916919F0916A1904
S113370043A454A465A476A4DC01CB0180959095D0
S1133710A095B09584219521A621B72183A794A7CC
S1133720A5A7B6A7E0916919F0916A1981E087A766
S1133730C114D104E104F10431F041E0C701B60140
S11337405AD90E94700D0F900FBE0FB6F8940F92C5
S11337500115110569F0E0916919F0916A1983A5C1
S113376094A5A5A5B6A5F80180839183A283B3830C
S1133770E0916919F0916A1987A58230B1F4E0915A
S11337806919F0916A1983A594A5A5A5B6A5809495
S11337909094A094B09488229922AA22BB2283A652
S11337A094A6A5A6B6A681E001C080E0E0916919BF
S11337B0F0916A1917A60F900FBE1F910F91FF90F9
S11337C0EF90DF90CF90BF90AF909F908F907F90BD
S11337D06F905F904F9008950F931F93CF93DF9353
S11337E0FC010FB6F8940F920115110549F083A559
S11337F094A5A5A5B6A5E80188839983AA83BB836C
S113380087A592E097A72230B1F018F4213031F067
S11338102AC02330E9F0243001F125C003A514A502
S113382025A536A5402B512B622B732B43A754A7F8
S113383065A776A718C043A554A565A576A54F5FCF
S11338405F4F6F4F7F4F43A754A765A776A70BC061
S113385043A754A765A776A706C0823049F143A7BA
S113386054A765A776A7813029F5EF018F010E5F74
S11338701F4FC8010E949B0C8A8D9091FB189817CA
S113388010F48093FB182BE0829FC0011124B8012F
S1133890835C964E0E943D0CE0916919F0916A197F
S11338A09A8D828D891740F40E94700D81E005C0C5
S11338B080E003C081E001C081E00F900FBEDF9182
S11338C0CF911F910F910895EF92FF920F931F9341
S11338D0CF93DF93FC010115110549F083A594A54D
S11338E0A5A5B6A5E80188839983AA83BB8387A588
S11338F092E097A72230B1F018F4213031F02AC0B9
S11339002330E9F0243001F125C003A514A525A531
S113391036A5402B512B622B732B43A754A765A7C5
S113392076A718C043A554A565A576A54F5F5F4F3C
S11339306F4F7F4F43A754A765A776A70BC043A734
S113394054A765A776A706C08230D9F143A754A728
S113395065A776A78130B9F5EF018091EF18811141
S113396017C08F010E5F1F4FC8010E949B0C8A8DE8
S11339709091FB18981710F48093FB18EBE08E9F3E
S1133980C0011124B801835C964E0E943D0C07C00F
S1133990BF01625F7F4F88E199E10E943D0CE09195
S11339A06919F0916A199A8D828D891770F4E1145E
S11339B0F10419F081E0E701888381E08093F8182D
S11339C005C080E003C081E001C081E0DF91CF91B8
S11339D01F910F91FF90EF900895009721F480912B
S11339E0691990916A190FB6F8940F92FC0127A5F2
S11339F0223019F417A681E001C080E00F900FBEB9
S1133A000895CF92DF92EF92FF920F931F93FC01E0
S1133A1042835383648375839387828704171507CE
S1133A2026073707C0F00C191D092E093F098685A2
S1133A309785A089B189081719072A073B0700F55C
S1133A40BF016E5F7F4F80917319909174190E942A
S1133A505E0C80E018C00C151D052E053F0528F4EA
S1133A604C155D056E057F0568F4BF016E5F7F4FE1
S1133A7080917519909176190E945E0C80E003C0C4
S1133A8081E001C081E01F910F91FF90EF90DF90E2
S1133A90CF9008950FB6F8940F9280917119909178
S1133AA07219892BE9F482E899E10E94280C87E7CE
S1133AB099E10E94280C82E899E190937619809309
S1133AC0751987E799E1909374198093731940E00D
S1133AD067E08AE00E944C0F9093721980937119E9
S1133AE00F900FBE0895EF92FF920F93D3DF809152
S1133AF0711990917219892B91F00F2EFFE6EF2E18
S1133B00F9E1FF2EF02D03E020E030E045E550E040
S1133B1067E775E087E091E00E94721501C080E0DC
S1133B200F91FF90EF9008958F929F92AF92BF9262
S1133B30CF92DF92EF92FF920F931F93CF93DF9375
S1133B40CDB7DEB727970FB6F894DEBF0FBECDBF53
S1133B50E0917119F0917219309781F169832A8388
S1133B603B834C835D839F838E836630F4F468DCEF
S1133B70823069F400E0A7019601BE016F5F7F4FB8
S1133B8080917119909172190E947A0F18C000E007
S1133B9020E030E0A901BE016F5F7F4F8091711971
S1133BA0909172190E947A0F0AC020E0A801BE0108
S1133BB06F5F7F4FCF010E94351001C080E02796D0
S1133BC00FB6F894DEBF0FBECDBFDF91CF911F912A
S1133BD00F91FF90EF90DF90CF90BF90AF909F90A8
S1133BE08F9008952F923F924F925F926F927F929F
S1133BF08F929F92AF92BF92CF92DF92EF92FF92F9
S1133C000F931F93CF93DF931C01CDD82B013C015D
S1133C1080916B1990916C19A0916D19B0916E19E6
S1133C20481659066A067B0608F053C03BC0078055
S1133C30F085E02D80809180A280B380C085D185FD
S1133C408E010E5F1F4FC8010E949B0CEC89FD89F9
S1133C50CE0119958F8982FF25C08E859F85A889FD
S1133C60B989880D991DAA1DBB1D88169906AA0637
S1133C70BB0670F48A839B83AC83BD83DB87CA87CE
S1133C80B80180917519909176190E945E0C0AC052
S1133C90C12CD12C760100E010E0A501940160E074
S1133CA0CE0142DFE0917519F0917619808181117E
S1133CB0BECF809173199091741990937619809363
S1133CC07519F0937419E093731981E0F1018083FD
S1133CD002C0F101108240926B1950926C196092EB
S1133CE06D1970926E19C301B201DF91CF911F91CA
S1133CF00F91FF90EF90DF90CF90BF90AF909F9087
S1133D008F907F906F905F904F903F902F90089589
S1133D100895279A2F9A2FEF80E792E02150804050
S1133D209040E1F700C000001F9AF5CF279A2F9A20
S1133D302FEF87EA91E6215080409040E1F700C0E0
S1133D4000001F9AF5CF8F929F92AF92BF92CF92AD
S1133D50DF92EF92FF920F931F93CF93DF938091A3
S1133D60EB1A9091EC1A0E944A03E090EF1AF0903B
S1133D70F01A4091071B5091081BA12CB12C65012E
S1133D806894A4F801E010E020E030E060EC82E008
S1133D900E94A006C82FD92FE090EF1AF090F01AD5
S1133DA04091071B5091081BA12CB12C650168940C
S1133DB0A5F808E010E020E030E068E882E00E9426
S1133DC087024C01E090EF1AF090F01A4091071B23
S1133DD05091081BA12CB12C65016894A6F804E04D
S1133DE010E020E030E060EC82E00E948607182FAB
S1133DF0092F0E947907E090EF1AF090F01A409191
S1133E00071B5091081B8091EA1A8F938091E91A3D
S1133E108F930F931F93DF93CF930F2EF0E5AF2E65
S1133E20B12CC12CD12CF02D05E010E020E030E0C5
S1133E3068E884E00E9458046091E91A7091EA1AD3
S1133E4081E00E9444086091ED1A7091EE1A81E0BD
S1133E500E94F2050F900F900F900F900F900F900B
S1133E60DF91CF911F910F91FF90EF90DF90CF9052
S1133E70BF90AF909F908F9008950E948509909372
S1133E80081B8093071B0E9485099093F01A809366
S1133E90EF1A41E060E070E084E690E00E94D712FF
S1133EA09093EA1A8093E91A81E00E941A10909381
S1133EB0EC1A8093EB1A41E060E070E08CE290E051
S1133EC00E94D7129093EE1A8093ED1A81B1816803
S1133ED081B980E00E94732B85E011D06091ED1AC6
S1133EE07091EE1A81E0C3D369C00895C6DF2BDF59
S1133EF08FE795E00E949C310E949116FFCFE9E084
S1133F00FBE12CE836E2318320832FE836E2338369
S1133F1022832AE936E2358324832EE936E2378385
S1133F20268324EA36E23187208720EB36E2338782
S1133F30228725EB36E23587248721EC36E2378762
S1133F40268721EA36E2318B208B26EC36E2338B4E
S1133F50228B23ED36E2358B248B682FCF0153C19E
S1133F6008956530F1F4FA0180818F7390E0982F01
S1133F7088272181822B90930D0280930C028281E9
S1133F80F0E48F9FC0011124FA0123812695269520
S1133F90822B90930B0280930A0281E080938D1907
S1133FA00895643051F080E090E490930B02809384
S1133FB00A0290930D0280930C0208950F931F93AD
S1133FC001EB1FE120E034E244EF50E060E087E2DF
S1133FD00E94AD2B90938F1980938E1921E0892B29
S1133FE009F020E0822F1F910F91089580918D197F
S1133FF0089580918E1990918F19009759F040E09F
S113400060E070E00E94FE2B843031F410928D1930
S113401080E0089582E0089583E0089580918E19E8
S113402090918F19009739F064E00E944A2C8530F2
S113403021F083E0089582E0089580E0089560917E
S11340400C0270910D0280E090E00E94542E20E05A
S113405030E048EC52E40E94E22E20E038EF4FE7D3
S113406056E40C94BB2D0895EADF20E030E040E2F2
S113407051E40E94E22E0E94282ECB010895609103
S11340800A0270910B0280E090E00E94542E20E01E
S113409030E045E253E40E94E22E20E038EF4FE79F
S11340A056E40E94BB2D20E030E040E252E40C9440
S11340B0562D0895E4DF20E030E040E251E40E9410
S11340C0E22E0E94232ECB010895CF93DF9390E03C
S11340D0FC01EE0FFF1FE80FF91FEE0FFF1FE05763
S11340E0F64E238121110AC0EF01E091111BF091DA
S11340F0121B6A8188819981199512C0DC01AA0F6B
S1134100BB1FED01C80FD91FCC0FDD1FC057D64E02
S1134110E0911B1BF0911C1B6A8188819981199580
S1134120DF91CF910895CF93DF9390E0FC01EE0FE0
S1134130FF1FE80FF91FEE0FFF1FE057F64E238114
S113414021110AC0EF01E0911B1BF0911C1B6A8135
S113415088819981199512C0DC01AA0FBB1FED015A
S1134160C80FD91FCC0FDD1FC057D64EE091111BCD
S1134170F091121B6A81888199811995DF91CF9101
S113418008950F2EF9E0CF2EFBE1DF2EF02D04E091
S1134190C0E9D9E110E08C81813069F0E8F0823027
S11341A039F5D6011C96ED91FC911D976A818881A1
S11341B0998119951DC08D818F5F8A3010F48D838C
S11341C017C01D82D6011C96ED91FC911D976A8142
S11341D08881998119950CC08D81882331F0812FB4
S11341E0A2DF8D8181508D8303C00C83812F6DDF0D
S11341F01F5F2696143079F665E070E080E090E069
S11342000E943218C5CFCF92DF92EF92FF920F93A4
S11342101F93CF93DF93062F0F2EF9E0EF2EFBE1D0
S1134220FF2EF02DD7011896ED91FC91199766E0B9
S113423087E290E01995C0E9D9E10F2EF8E2CF2E7C
S1134240D12CF02DD982C88286E08A831B8214E0A7
S11342501C8380E03ADFD7011896ED91FC91199701
S113426067E087E290E01995DF82CE8287E0888755
S113427019861A8781E029DFD7011896ED91FC9100
S1134280199765E083E390E01995D7011896ED91AD
S1134290FC91199761E084E390E0199584E390E040
S11342A09D878C8785E08E871F86188B82E00DDFC3
S11342B0D7011896ED91FC91199764E081E091E0A3
S11342C01995D7011896ED91FC91199761E082E058
S11342D091E0199582E091E09B8B8A8B1C8B1D8A5F
S11342E01E8B83E0F2DEE12CF12C20E030E040EC88
S11342F050E061E975E081EC90E20E947215DF9173
S1134300CF911F910F91FF90EF90DF90CF90089580
S11343100F931F93CF93DF93C82FD0E08E01000F2C
S1134320111FD801AC0FBD1FAA0FBB1FA057B64E5B
S1134330E091151BF091161B12966C9112978D91BA
S11343409C911995C00FD11FCC0FDD1FC057D64EBD
S113435081E08C83DF91CF911F910F9108950F938A
S11343601F93CF93DF93C82FD0E08E01000F111F4E
S1134370D801AC0FBD1FAA0FBB1FA057B64EE091CA
S1134380151BF091161B12966C9112978D919C91AE
S11343901995C00FD11FCC0FDD1FC057D64E82E038
S11343A08C83DF91CF911F910F910895282F30E0D6
S11343B0F901EE0FFF1FE20FF31FEE0FFF1FE0578F
S11343C0F64E93E09483AFCE0895282F30E0F901A0
S11343D0EE0FFF1FE20FF31FEE0FFF1FE057F64E25
S11343E094E0948372CE089590E0FC01EE0FFF1FD9
S11343F0DF01A80FB91FAA0FBB1FA057B64E24E0B8
S113440015962C931597FD011482089590E0FC01F4
S1134410EE0FFF1FDF01A80FB91FAA0FBB1FA05784
S1134420B64E21E015962C931597FD01148208953C
S11344300F931F93CF93DF931F921F92CDB7DEB7D5
S11344408C0119822DC0E0910C1AEC3250F481E0F9
S11344508E0F80930C1AF0E0E25CF54E8A81808323
S113446002C010920C1A8A818A30D1F440910C1A3D
S113447050E0FA01E45CF54E1082415051099E016E
S11344802F5F3F4F6EE37AE180910F1A9091101ADB
S11344900E94EC13898181110E94700D10920C1AF4
S11344A0BE016E5F7F4FC8018CD6882361F20F90E6
S11344B00F90DF91CF911F910F9108950F931F9348
S11344C0CF93DF938C01EB0180910F1A9091101A16
S11344D00E940313B80188EA99E10E946A31209787
S11344E079F0E8EAF9E101900020E9F7319780E2F8
S11344F090E091838083BE0188EA99E10E945F3154
S1134500E8EAF9E1DF010D900020E9F711978DE069
S11345109AE011969C938E9312961C92019000201F
S1134520E9F73197E85AF941AE2F88EA99E1AC01ED
S11345306A2F8091111A9091121AF3D5811111C02A
S113454008E215E020E030E04DE250E068E97AE16D
S113455080910F1A9091101A0E942F1488E99AE101
S113456002C080E090E0DF91CF911F910F910895F8
S11345702F923F924F925F926F927F928F929F926F
S1134580AF92BF92CF92DF92EF92FF920F931F935D
S1134590CF93DF935C01FC0101900020E9F7319790
S11345A06F01C81AD90A5C2C0F2EF2E38F2EF8E0A3
S11345B09F2EF02DE12CF12C4C2C3701F4010181BC
S11345C01281E80109900020E9F72197C01BD10B63
S11345D03C2EF9E0CF16D10458F0F4012080FEE01F
S11345E02F1206C0B801C5010E943A31892B09F582
S11345F0442D351408F44C2F50E0B801C5010E9435
S11346007131892B49F4F301EE0FFF1FE60DF71DFD
S1134610EE5CF74F20800DC08FEFE81AF80AE3E054
S11346208E0E911CF1E1EF16F10439F66894222400
S113463024F8822DDF91CF911F910F91FF90EF907D
S1134640DF90CF90BF90AF909F908F907F906F90AE
S11346505F904F903F902F90089530DF89CF089559
S113466080910F1A9091101A0C94031308958F924D
S11346709F92AF92CF92EF920F931F93CF93C82F35
S11346808B0141E060E070E088EC90E00E94D7127A
S11346909093101A80930F1A10930E1A00930D1A08
S11346A00F2EF8E18F2EF2E29F2EF02D6894AA24AB
S11346B0A6F86894CC24C6F8E12C00E023E040E09E
S11346C051EE60E070E08C2F71D49093121A8093B5
S11346D0111AE091111BF091121B64E087E091E044
S11346E01995CF911F910F91EF90CF90AF909F901C
S11346F08F900895882349F0E0911B1BF0911C1BB7
S113470064E088E091E019950895E091111BF0911F
S1134710121B64E088E091E01995089560E070E070
S113472088EB95E0CBDEE8E9FAE101900020E9F7B7
S11347303197E859FA4181E0759708F080E00895CF
S1134740CF93DF93EC0160E070E089EC95E0B6DE96
S1134750E8E9FAE101900020E9F7E95AFA4139F46D
S113476068E97AE1CE010E946A3180E002C01882D1
S113477081E0DF91CF910895FC0101900020E9F7D9
S11347809F01215131092817390729F4BC0187EF0A
S113479095E063CF089589E00895FC01019000201D
S11347A0E9F79F01215131092817390729F4BC0180
S11347B086E096E052CF089589E00895FC010190C7
S11347C00020E9F79F01215231092817390729F4FC
S11347D0BC0185E196E041CF089589E0089560E049
S11347E070E084E596E039CF08950F931F93E82F86
S11347F0F0E0EE0FFF1FE25DF74F608171818DE500
S113480096E02BDF811114C008E215E020E030E0CF
S11348104DE250E068E97AE180910F1A9091101A04
S11348200E942F14882321F088E99AE1A1DE03C0B5
S113483088E99AE19DDE1F910F9108950F931F93CC
S1134840CF93DF931F92CDB7DEB7DB0111969C9116
S11348501197953108F0B4C0992381F160E070E0BC
S1134860272F30E0462F50E0FD01E40FF51F928121
S113487092959F709A3010F0995C01C0905DF90197
S1134880E75DF54E90832F5F3F4FFD01E40FF51F69
S113489092819F70492F50E04A30510514F0995C81
S11348A001C0905DF901E75DF54E90837E5F6F5F17
S11348B011969C911197691798F201C070E0E72F47
S11348C0F0E0E75DF54E10824C91811103C086E65D
S11348D096E002C088E696E029E23AE13F932F93FE
S11348E01F924F939F938F938CE696E09F938F93A1
S11348F08BE69AE19F938F930E94CC3160E070E045
S11349008BE69AE1AADE0FB6F894DEBF0FBECDBFE8
S1134910811159C008E215E020E030E04DE250E09A
S113492068E97AE180910F1A9091101A0E942F146D
S1134930882309F447C088E99AE11ADE8E3009F029
S113494042C087E0898380910D1A90910E1A892BB9
S1134950A9F1BE016F5F7F4F88E99AE168D1809326
S1134960131AE981F0E0E856F54EDF010D900020BE
S1134970E9F71197AE1BBF0BAA2391F0BB27CD011A
S113498001979C0112F42F5F3F4F35952795209393
S1134990141AAF014F5F5F4F64E185E19AE173D16F
S11349A001E010E020E030E046E150E063E17AE12C
S11349B080910D1A90910E1A0E9442138EE003C04A
S11349C084E101C080E00F90DF91CF911F910F919E
S11349D00895813019F06CE776E002C065E577E070
S11349E080E896E03ACE08959F938F9381EB96E00A
S11349F09F938F938BE69AE19F938F930E94CC3180
S1134A0060E070E08BE69AE128DE0F900F900F9043
S1134A100F900F900F9008952F923F924F925F92B4
S1134A206F927F928F929F92AF92BF92CF92DF92BA
S1134A30EF92FF920F931F93CF93DF93CDB7DEB71F
S1134A40A0970FB6F894DEBF0FBECDBF6EED76E033
S1134A508AEE96E033DD8CDD8111A3C080E2E5E2CD
S1134A60F2E0DE01119601900D928A95E1F79E0124
S1134A702F5F3F4F6901E12CF12C0F2EF6EFAF2E83
S1134A80F6E0BF2EF02D0BE61AE10F2EFFE04F2EBD
S1134A90F7E05F2EF02D0F2EF6E28F2EF7E09F2E1B
S1134AA0F02D0F2EF0E46F2EF7E07F2EF02D3E2C2C
S1134AB02F2CFF92EF92BF92AF921F930F930E94FD
S1134AC0CC3160E070E0C801F9DC52DD0F900F904A
S1134AD00F900F900F900F90811163C032E03E153C
S1134AE0E8F4F60183818F9382818F9381818F9380
S1134AF080818F93FF92EF925F924F921F930F9357
S1134B000E94CC3160E070E0C801D8DC31DD0FB622
S1134B10F894DEBF0FBECDBF811143C02F923F92E8
S1134B209F928F921F930F930E94CC3160E070E0AC
S1134B30C801C4DC1DDD0F900F900F900F900F90F3
S1134B400F9081112EC02F923F927F926F921F93EC
S1134B500F930E94CC3160E070E0C801AFDC08DD47
S1134B600F900F900F900F900F900F90811119C01C
S1134B703FEFE31AF30A84E0C80ED11C98E0E9166B
S1134B80F10409F094CF60E070E088E597E096DCEA
S1134B90EFDC811106C060E070E089E697E08EDC0E
S1134BA0E7DCA0960FB6F894DEBF0FBECDBFDF9151
S1134BB0CF911F910F91FF90EF90DF90CF90BF9016
S1134BC0AF909F908F907F906F905F904F903F90A9
S1134BD02F900895EF92FF920F931F93CF93DF933B
S1134BE0EC018B017A0181E0F4DE81110DC0CE016C
S1134BF0D4DD811109C0C801E1DD811105C0C701FF
S1134C00BBDD811101C0EBDDDF91CF911F910F91CD
S1134C10FF90EF90089590E0FC01EE0FFF1F8E0FC0
S1134C209F1FFC01EE5CF74F818192810895DC01A6
S1134C30009729F1FB012081FC0101900020E9F794
S1134C403197E81BF90B822F90E0E817F907C8F0B9
S1134C5080E008C0880F382F330F330F830F805341
S1134C60890F2F5FFD01E20FF11D908130ED390FA7
S1134C703A3010F49111EECFFB012083089580E0C7
S1134C80089580E008950F931F93CF93DF93DC0181
S1134C90EA012097E1F1FA0101900020E9F7319748
S1134CA0E41BF50B329710F532C08D01040F151F6C
S1134CB030E0AE01420F531FFA019081913428F085
S1134CC09753592F5295507F03C0592F5295507FB7
S1134CD02C0F3D1FF9019181913410F0975301C0BD
S1134CE09053950FF80190838F5F01C080E0282FC7
S1134CF0220F482F50E0FE0101900020E9F7319780
S1134D00EC1BFD0B4E175F0710F48613CECFDF911B
S1134D10CF911F910F910895FC0180810895FC01AA
S1134D20208181E090E002C0880F991F6A95E2F724
S1134D3082230895FC01808186230895FC01608309
S1134D400895FC0110820895FC01408121E030E0C7
S1134D5002C0220F331F6A95E2F7242B20830895A3
S1134D60FC012081622B60830895FC01408121E0D5
S1134D7030E002C0220F331F6A95E2F72427208314
S1134D800895FC012081622760830895FC019081CD
S1134D9021E030E002C0220F331F6A95E2F720952C
S1134DA0292320830895FC01908160956923608301
S1134DB008958091C81A860F8093C81A9091CB1ACF
S1134DC0913079F028F09230A9F0933019F10895D8
S1134DD06F3F09F048C01092C81A81E08093CB1A43
S1134DE00895663809F03FC01092C71A82E0809394
S1134DF0CB1A0895E091C71A81E08E0F8093C71AE9
S1134E00F0E0EB53F54E6083823069F583E08093E4
S1134E10CB1A08959091C71A21E0290F2093C71A3D
S1134E20963009F581110EC0E5ECFAE1808190E03D
S1134E30982F88272181820F911D9093CD1A8093FA
S1134E40CC1A04C01092CD1A1092CC1A1092CB1A1C
S1134E50E091C91AF091CA1A309729F08091CC1ABE
S1134E609091CD1A199508958F929F92AF92CF92F7
S1134E70EF920F93CF93DF93EB010F2EF9ED8F2E6B
S1134E80F6E29F2EF02D6894AA24A4F86894CC240A
S1134E90C4F8E12C00E023E040E855E260E070E073
S1134EA085D09093CF1A8093CE1AD093CA1AC09308
S1134EB0C91ADF91CF910F91EF90CF90AF909F904F
S1134EC08F900895CF93DF93CDB7DEB729970FB6B0
S1134ED0F894DEBF0FBECDBF89E0E5E4F2E09E01A9
S1134EE02F5F3F4FD90101900D928A95E1F71092FF
S1134EF0CD1A1092CC1A8091CE1A9091CF1A0097A5
S1134F0031F0422F532F69E00CD180E001C082E0E0
S1134F1029960FB6F894DEBF0FBECDBFDF91CF91B7
S1134F2008952091CC1A3091CD1A2115310529F418
S1134F30FC011182108281E00895FC0131832083F9
S1134F4080E0089565360CF064E66C390CF46CE985
S1134F5096EF6902B00111246854744F811105C0A1
S1134F607093290160932801089570932B01609335
S1134F702A010895EAE0F1E08081886180838FE36B
S1134F809CE9909327018093260160E080E0DADFBA
S1134F9060E081E0D7DFE0E2F1E08081826A808333
S1134FA0E1E2F1E080818A61808308952F923F924B
S1134FB04F925F926F927F928F929F92AF92CF9215
S1134FC0EF92FF920F931F93CF93DF93CDB7DEB78A
S1134FD0F82E2A013B0188E090E0C2D78C018F2D86
S1134FE090E0880F991FFC01E053F54E1183008374
S1134FF0FC01E25FFD4F80819181D8018D939C93E8
S11350006C2D70E084E090E091D71C0161E070E0C9
S113501086E090E08BD77C014C2DB1012BD5F801B3
S1135020F582E4826A2D70E084E090E07FD71C0171
S113503061E070E086E090E079D77C014A2DB1010F
S113504019D5D8011396FC92EE92129717969C925A
S11350508E921697FFB6F894ED91FC9111973697BE
S11350608081826080838D909C90C301B2011CD6A4
S113507020E030E040E051E4A5D69B01AC0160E0C3
S113508074E284E79BE477D520E030E040E85FE316
S11350900DD5DED5F40132976083D801ED91FC91F2
S11350A01197359788E98083ED91FC91349786E0D8
S11350B08083FFBEC801DF91CF911F910F91FF90B4
S11350C0EF90CF90AF909F908F907F906F905F9074
S11350D04F903F902F900895CF93DF93EC01EA8196
S11350E0FB81938182812581981B92238481981767
S11350F0A1F0938126952923A081B181A20FB11D2E
S11351006C939F5F258192239383E881F98135977E
S113511080818062808380E001C082E0DF91CF9152
S11351200895EF92FF920F931F93CF93DF937C0127
S1135130DC011296ED91FC91139793818281981B67
S1135140858198238481891B861798F1662341F110
S1135150842F952FDC016150462F50E04F5F5F4F45
S1135160480F591FE701EA81FB81938182812581E0
S1135170981B92238481981779F08C9193812695BA
S11351802923608171818B01020F111DE80188833D
S11351909F5F8581982393831196A417B50711F710
S11351A0D701ED91FC91359780818062808380E006
S11351B001C082E0DF91CF911F910F91FF90EF909A
S11351C00895DC011496ED91FC91159793818281E9
S11351D0981789F09281858186958923A081B18170
S11351E0A80FB11D8C91DB018C939F5F858198235F
S11351F0928380E0089583E008951F920F920FB682
S11352000F9211240BB60F922F933F934F935F93FA
S11352106F937F938F939F93AF93BF93CF93DF93BA
S1135220EF93FF93A091D01AB091D11A109711F176
S11352306091C6001496ED91FC911597938182813B
S11352402581981B92238481981761F08381269588
S11352502823C081D181C20FD11D68838F5F9581BE
S1135260892383831696ED91FC911797309711F05B
S1135270CD011995FF91EF91DF91CF91BF91AF913E
S11352809F918F917F916F915F914F913F912F915A
S11352900F900BBE0F900FBE0F901F9018951F928A
S11352A00F920FB60F9211240BB60F922F938F9378
S11352B09F93AF93BF93EF93FF93E091D01AF09134
S11352C0D11A3097B9F00280F381E02D9381828165
S11352D09817B1F092818581282F26952923A081E2
S11352E0B181A20FB11D2C919F5F892382832093EA
S11352F0C6000BC0E1ECF0E080818F7D808305C0A7
S1135300E1ECF0E080818F7D8083FF91EF91BF918C
S1135310AF919F918F912F910F900BBE0F900FBE65
S11353200F901F9018951F920F920FB60F92112491
S11353300BB60F922F933F934F935F936F937F938B
S11353408F939F93AF93BF93CF93DF93EF93FF9389
S1135350A091D21AB091D31A109711F16091CE0096
S11353601496ED91FC911597938182812581981B68
S113537092238481981761F0838126952823C08124
S1135380D181C20FD11D68838F5F95818923838367
S11353901696ED91FC911797309711F0CD01199560
S11353A0FF91EF91DF91CF91BF91AF919F918F9139
S11353B07F916F915F914F913F912F910F900BBE11
S11353C00F900FBE0F901F9018951F920F920FB65B
S11353D00F9211240BB60F922F938F939F93AF9339
S11353E0BF93EF93FF93E091D21AF091D31A3097C1
S11353F0B9F00280F381E02D938182819817B1F096
S113540092818581282F26952923A081B181A20F1D
S1135410B11D2C919F5F892382832093CE000BC002
S1135420E9ECF0E080818F7D808305C0E9ECF0E059
S113543080818F7D8083FF91EF91BF91AF919F9188
S11354408F912F910F900BBE0F900FBE0F901F9056
S113545018951F920F920FB60F9211240BB60F924C
S11354602F933F934F935F936F937F938F939F9368
S1135470AF93BF93CF93DF93EF93FF93A091D41A8D
S1135480B091D51A109711F16091D6001496ED9150
S1135490FC911597938182812581981B92238481A5
S11354A0981761F0838126952823C081D181C20F8A
S11354B0D11D68838F5F9581892383831696ED912F
S11354C0FC911797309711F0CD011995FF91EF9149
S11354D0DF91CF91BF91AF919F918F917F916F9108
S11354E05F914F913F912F910F900BBE0F900FBE84
S11354F00F901F9018951F920F920FB60F921124C0
S11355000BB60F922F938F939F93AF93BF93EF9309
S1135510FF93E091D41AF091D51A3097B9F0028034
S1135520F381E02D938182819817B1F09281858176
S1135530282F26952923A081B181A20FB11D2C917A
S11355409F5F892382832093D6000BC0E1EDF0E0B6
S113555080818F7D808305C0E1EDF0E080818F7DC7
S11355608083FF91EF91BF91AF919F918F912F9184
S11355700F900BBE0F900FBE0F901F9018951F92A7
S11355800F920FB60F9211240BB60F922F933F93E5
S11355904F935F936F937F938F939F93AF93BF9337
S11355A0CF93DF93EF93FF93A091D61AB091D71ABC
S11355B0109711F1609136011496ED91FC911597B5
S11355C0938182812581981B92238481981761F0AD
S11355D0838126952823C081D181C20FD11D688380
S11355E08F5F9581892383831696ED91FC9117979C
S11355F0309711F0CD011995FF91EF91DF91CF9183
S1135600BF91AF919F918F917F916F915F914F91D6
S11356103F912F910F900BBE0F900FBE0F901F90D4
S113562018951F920F920FB60F9211240BB60F927A
S11356302F938F939F93AF93BF93EF93FF93E09137
S1135640D61AF091D71A3097B9F00280F381E02D81
S1135650938182819817B1F092818581282F2695B4
S11356602923A081B181A20FB11D2C919F5F8923B1
S11356708283209336010BC0E1E3F1E080818F7DCA
S1135680808305C0E1E3F1E080818F7D8083FF9119
S1135690EF91BF91AF919F918F912F910F900BBE7E
S11356A00F900FBE0F901F901895CF93DF931F920A
S11356B0CDB7DEB7BE016F5F7F4F8091D81A90914E
S11356C0D91A7FDD8111F6CF898190E00F90DF91A7
S11356D0CF910895682F8091D81A9091D91AFCDC43
S11356E080E090E008958F929F92AF92CF92EF92D4
S11356F00F93812C912C6894AA24A7F86894CC2445
S1135700C7F8E12C00E023E040E051EE60E070E0F7
S11357104DDC9093D91A8093D81AE3E2FBE186E139
S113572092E091838083938382830F91EF90CF9053
S1135730AF909F908F9008958091E81A81110CC0CA
S11357408CE08093B8008FEF8093BB0084E080935B
S1135750BC0081E08093E81A0895AF92BF92CF9283
S1135760DF92EF92FF920F931F93CF93DF93A82EB4
S1135770B62E69017A0184E090E0F2D3EC01892B22
S113578061F1A88281E0B81212C0C701B60120EA13
S113579036E841E050E08CD3DA01C9014097A10911
S11357A0B109B695A79597958795898311C0C701C7
S11357B0B60120E83AE146E050E07AD3DA01C901C3
S11357C04097A109B109B695A795979587958983BF
S11357D01B830A838C2F9D2F02C080E090E0DF9111
S11357E0CF911F910F91FF90EF90DF90CF90BF90DA
S11357F0AF9008958091BC0081700895FF920F933B
S11358001F93CF93DF930097D1F14A30D0F5F42E54
S11358108B01EC01EFDF811136C08091DB1A90918E
S1135820DC1AC817D90741F087DF89818093B80053
S1135830D093DC1AC093DB1A81E08F0D8093DD1ABC
S11358408881880F8093DE1AFF2089F0F801AFED7C
S1135850BAE14FEF4F0D642F70E0CB010196B80110
S1135860680F791F81918D93E617F707D9F788EFB1
S11358708093240285EA8093BC0084E005C086E01E
S113588003C087E001C082E0DF91CF911F910F91A7
S1135890FF9008951F93CF93DF93009729F16B3006
S11358A028F5162FEC01A6DF811122C08091DB1AA6
S11358B09091DC1AC817D90741F03EDF89818093A3
S11358C0B800D093DC1AC093DB1A1093DD1A8881D8
S11358D0880F81608093DE1A88EF8093240285EA22
S11358E08093BC0085E005C086E003C087E001C06A
S11358F082E0DF91CF911F9108951F920F920FB60E
S11359000F9211240BB60F922F933F934F935F93F3
S11359106F937F938F939F93AF93BF93EF93FF9373
S1135920E091B9008E2F90E0FC013897E135F10544
S113593008F075C08827E458FF4F8F4FDBC21092E0
S1135940DA1AE091DA1A8091DD1AE81770F481E02E
S11359508E0F8093DA1AF0E0E252F54E8081809344
S1135960BB0085E88093BC0072C084E98093BC00CE
S11359708091DB1A9091DC1ADC011296ED91FC9176
S11359801397309709F463C020E040E050E064E0EE
S113599019955DC0E091DA1A81E08E0F8093DA1ACE
S11359A08091BB00F0E0E252F54E80838091B90013
S11359B0803411F41092DA1A2091DA1A30E08091CE
S11359C0DD1A90E001972817390724F485EC8093B9
S11359D0BC003DC085E88093BC0039C08091BB0009
S11359E0E091DA1AF0E0E252F54E808384E9809384
S11359F0BC008091DB1A9091DC1ADC011296ED91C7
S1135A00FC911397309719F12091DD1A4EED5AE16C
S1135A1065E019951CC085EA8093BC0018C080918C
S1135A20B9008093240284E08093BC008091DB1A47
S1135A309091DC1ADC011296ED91FC91139730974A
S1135A4031F020E040E050E0609124021995FF918C
S1135A50EF91BF91AF919F918F917F916F915F91E2
S1135A604F913F912F910F900BBE0F900FBE0F904F
S1135A701F901895FC01411101C0E8D3842F90E0D8
S1135A809C012150310982239323892B09F0DED311
S1135A90413808F0DBD3128213824483440F41500F
S1135AA045837183608380E090E008955058BB275C
S1135AB0AA270ED04DC13ED130F043D120F031F4AD
S1135AC09F3F11F41EF433C10EF4E095E7FB29C1A6
S1135AD0E92F4FD180F3BA1762077307840795073C
S1135AE018F071F49EF567C10EF4E0950B2EBA2FF1
S1135AF0A02D0B01B90190010C01CA01A0011124D0
S1135B00FF27591B99F0593F50F4503E68F11A167B
S1135B10F040A22F232F342F4427585FF3CF46950C
S1135B2037952795A795F0405395C9F77EF41F162E
S1135B30BA0B620B730B840BBAF09150A1F0FF0FF8
S1135B40BB1F661F771F881FC2F70EC0BA0F621FE4
S1135B50731F841F48F4879577956795B795F795D4
S1135B609E3F08F0B3CF9395880F08F09927EE0F66
S1135B709795879508950CD0EBC0E3D040F0DAD028
S1135B8030F021F45F3F19F0CCC0511115C1CFC0E2
S1135B90F0D098F39923C9F35523B1F3951B550B12
S1135BA0BB27AA2762177307840738F09F5F5F4FEC
S1135BB0220F331F441FAA1FA9F333D00E2E3AF02D
S1135BC0E0E830D091505040E695001CCAF729D047
S1135BD0FE2F27D0660F771F881FBB1F2617370796
S1135BE04807AB07B0E809F0BB0B802DBF01FF27C6
S1135BF093585F4F2AF09E3F510568F092C0DCC075
S1135C005F3FECF3983EDCF3869577956795B795FF
S1135C10F7959F5FC9F7880F911D9695879597F91A
S1135C200895E1E0660F771F881FBB1F6217730793
S1135C308407BA0720F0621B730B840BBA0BEE1FA8
S1135C4088F7E095089504D06894B111B5C008951B
S1135C5098D088F09F5790F0B92F9927B751A0F0AA
S1135C60D1F0660F771F881F991F1AF0BA95C9F7EC
S1135C7012C0B13081F09FD0B1E008959CC0672F6D
S1135C80782F8827B85F39F0B93FCCF3869577959C
S1135C906795B395D9F73EF4909580957095619585
S1135CA07F4F8F4F9F4F0895E89409C097FB3EF4B0
S1135CB090958095709561957F4F8F4F9F4F992355
S1135CC0A9F0F92F96E9BB279395F69587957795D3
S1135CD06795B795F111F8CFFAF4BB0F11F460FF93
S1135CE01BC06F5F7F4F8F4F9F4F16C0882311F0EB
