S00F000053455034494F542E737265630D
S11300004FC200006EC200006CC200006AC2000051
S113001068C2000066C2000064C2000062C2000040
S113002060C200005EC200005CC200005AC2000050
S11300300C94FF0B56C2000054C2000052C20000D0
S113004050C200004EC200004CC200004AC2000070
S113005048C2000046C2000044C2000042C2000080
S113006040C200000C94EB230C943D243AC20000DF
S113007038C2000036C2000034C2000032C20000A0
S113008030C200002EC200002CC200002AC20000B0
S11300900C9481240C94D32424C200000C941F27B4
S11300A020C200001EC200001CC200001AC20000D0
S11300B018C2000016C2000014C2000012C20000E0
S11300C010C200000EC200000CC200000C941725E0
S11300D00C94692506C200000C94AD250C94FF25F0
S11300E000C20000C601C601C601000208021E02C9
S11300F0C601C601000208024127B127B127B12772
S1130100B127B127B127B1274127B127B127B1279B
S1130110B127B127B127B1274327B127B127B12789
S1130120B127B127B127B127B127B127B127B1270B
S1130130B127B127B127B1274327B127B127B12769
S1130140B127B127B127B127B127B127B127B127EB
S1130150B127B127B127B127AD27B127B127B127DF
S1130160B127B127B127B1277827B127B127B12704
S1130170B127B127B127B127B127B127B127B127BB
S1130180B127B127B127B1276C27B127B127B127F0
S1130190B127B127B127B127902708EF18E10F2E17
S11301A0F8E2EF2EF9E1FF2EF02D8091F718882365
S11301B029F10FB6F8940F92D8011796ED91FC919E
S11301C01897C085D185CE0102960E94640A809159
S11301D0EB1881508093EB188091F718815080932D
S11301E0F7180F900FBE8B8D9C8D0E94C009CE0115
S11301F00E94C0098091F7188111DBCFF70180813B
S1130200823010F00E94390B0E94B31ACECFCF93E4
S1130210DF93CDB7DEB760970FB6F894DEBF0FBE9D
S1130220CDBFCE0101969A878987812C912CA12C70
S1130230B12C69847A84E0916019F091611980810C
S1130240882309F413C10780F085E02D20803180D4
S1130250428053800E94C513CE0101960E941D1A4C
S11302606B877C878D879E878981811167C08B8589
S11302709C85AD85BE8582159305A405B50508F456
S113028045C00E94AE14E0916019F0916119078095
S1130290F085E02DA085B185B88BAF87CD0102969E
S11302A00E94640AEF85F889878982FF21C0468508
S11302B0578560897189420D531D641D751D720136
S11302C061010B851C852D853E85CF010E942D196A
S11302D0882399F0C82CD92CEA2CFB2C00E010E0E0
S11302E0A201910160E08F8598890E94BF1905C021
S11302F08E7FAF85B88957968C93AF85B88954960D
S1130300ED91FC915597CD011995A1C020E0B20162
S1130310A1018B859C85AD85BE85481B590B6A0B55
S11303207B0B80915C1990915D190E94CE0E0E9406
S1130330AE1481118CC00E94390B89C00E94AE1486
S113034086C0898188230CF482C04E805F80D201EC
S11303501C968D919C911D97892B21F0C2010296C8
S11303600E94640ACE0108960E941D1A8B019C010A
S1130370E9810E2E000CFF0BEA30F10508F067C08E
S11303808827EE58FF4F8F4F0C94092AF201878972
S11303908160878BCA80DB80EC80FD804685578531
S11303A0608971894C0D5D1D6E1D7F1DC2010E9407
S11303B02D19882309F44BC0D2015496ED91FC9178
S11303C05597C2011995F201878982FF40C04A817D
S11303D05B816C817D8186859785A089B1899A012D
S11303E0AB01280F391F4A1F5B1FC82CD92CEA2CDC
S11303F0FB2C00E010E060E0C2010E94BF1927C09E
S1130400D20157968C9157978E7F57968C931FC025
S1130410F20187898160878B4A815B816C817D8150
S113042046875787608B718B400F511F621F731F64
S113043068017901C2010E942D1909C0F20187895E
S113044081FD03C0C2019CD702C08E7F878B282DFB
S1130450392D4A2D5B2D662D772D80915C19909155
S11304605D190E94370E81116CCFE5CE0E94C51331
S1130470CE0101960E941D1A6B877C878D879E870B
S1130480898181115BCFE0915E19F0915F198081C0
S113049021E0811120E0282C392C4A2C5B2C37CF09
S11304A011241FBECFEFD1E2DEBFCDBF00E00CBFF1
S11304B018E0A0E0B2E0EEE9FDE500E00BBF02C009
S11304C007900D92A837B107D9F72BE1A8E7B8E058
S11304D001C01D92A730B207E1F70E94781B0C946B
S11304E0CD2E8ECD2F923F924F925F926F927F923C
S11304F08F929F92AF92BF92CF92DF92EF92FF9230
S11305000F931F93CF93DF93882E962E1A01280101
S1130510390161E070E083E090E00E94112AEC016F
S1130520009769F1FC0111923092830820928208AD
S113053040927E0850927F086092800870928108F1
S1130540F0927D08E0927C08A0927808B092790835
S1130550C0927A08D0927B08492D50E07F01082D83
S11305609C0163E472E089E293E00E946A128DE4E4
S113057092E09F938F930E94AF2B0F900F90CE0128
S1130580DF91CF911F910F91FF90EF90DF90CF906B
S1130590BF90AF909F908F907F906F905F904F909F
S11305A03F902F900895CF92DF92EF92FF920F9396
S11305B01F93CF93DF93EC0140917E0850917F0805
S11305C06091800870918108CC24CA94DC2C760157
S11305D001E021E0809182089091830872D4009117
S11305E07E0810917F082091800830918108DC01F9
S11305F0CB0180239123A223B323081719072A07C9
S11306003B07F1F488818F5F888384E592E09F93B0
S11306108F930E94AF2B64EC79E080E090E00E941D
S11306202A15409178085091790860917A08709160
S11306307B0880917C0890917D0803D50F900F90E2
S1130640DF91CF911F910F91FF90EF90DF90CF90AA
S11306500895EC01CE01A7DFFDCFFC018081089550
S1130660CF93DF93EC0161E070E08AE090E00E94B8
S1130670112A009749F0FC01D183C08315821482AA
S11306801782168213821282DF91CF910895009708
S113069019F0FC01738362830895009719F0FC013B
S11306A0778366830895009719F0FC01758364834A
S11306B00895FC01DB0114962C91149715963C9136
S11306C0159716968C91169717969C9141E0408346
S11306D044E041833283238394838583CF01089547
S11306E02F923F924F925F926F927F928F929F923E
S11306F0AF92BF92CF92DF92EF92FF920F931F932C
S1130700CF93DF9300D01F92CDB7DEB7282E362EBD
S11307105C834B832801390161E070E088E090E05C
S11307200E94112A9A838983009709F446C0FC0128
S1130730918280828A8D9B8D93838283809106022D
S1130740909107028DDFE981FA81958384838B81FF
S11307509C819093A7088093A6084092A208509287
S1130760A3086092A4087092A508F092A108E092F0
S1130770A008A0929C08B0929D08C0929E08D092B6
S11307809F088C8D9D8D90939B0880939A08432D90
S113079050E07F0196E0E90EF11C022D9F0165E611
S11307A072E082E095E00E946A128CE692E09F93E8
S11307B08F930E94AF2B0F900F9089819A810F9095
S11307C00F900F900F90DF91CF911F910F91FF9099
S11307D0EF90DF90CF90BF90AF909F908F907F90DD
S11307E06F905F904F903F902F900895FC0184810B
S11307F0958153CF0895FC0182819381009711F074
S1130800D4C108958FEF9FEF0895FC0184819581F1
S11308103ECF0895FC0180819181009719F01DDF7E
S113082090E008958FEF9FEF0895FC0184819581F6
S11308303ACF0895FC0182819381009711F0B9C1E8
S113084008958FEF9FEF0895AF92BF92CF92DF92FA
S1130850EF92FF920F931F93CF93DF93CDB7DEB741
S113086066970FB6F894DEBF0FBECDBF5C01409112
S1130870A2085091A3086091A4087091A5088091E2
S1130880A6089091A708DDD386E792E09F938F9303
S11308900E94AF2B40919C0850919D0860919E0846
S11308A070919F08CC24CA94DC2C760101E021E0ED
S11308B08091A0089091A10804D300919C08109104
S11308C09D0820919E0830919F08DC01CB01802374
S11308D09123A223B3230F900F90081719072A0717
S11308E03B0709F07EC0C50195DFBC01C5018DDF62
S11308F0C501A0DFBC01C50198DFC5017CDFBC01D7
S1130900C50174DF8AE892E00E94C22BF501808160
S11309109181A3DE1F928F938EE992E09F938F9330
S11309200E94AF2BC50186DF9F938F938AEA92E0E2
S11309309F938F930E94AF2BC5015DDF9F938F938D
S11309408EEB92E09F938F930E94AF2BF50164810D
S11309507581CE010196ADDE86E1FE013196A4E8F3
S1130960B8E001900D928A95E1F704E818E0F801E7
S113097082811F928F938FEC92E09F938F930E94BA
S1130980AF2BF80183811F928F9381EF92E09F93A5
S11309908F930E94AF2BF80184811F928F9384E17F
S11309A093E09F938F930E94AF2BF80185811F9250
S11309B08F9383E393E09F938F930E94AF2B0FEF6A
S11309C01FEF980146E150E064E878E080919A08CE
S11309D090919B080E943E100FB6F894DEBF0FBEA4
S11309E0CDBF66960FB6F894DEBF0FBECDBFDF91C4
S11309F0CF911F910F91FF90EF90DF90CF90BF9018
S1130A00AF900895EC01CE011FDFFDCF2F923F92EE
S1130A104F925F926F927F928F929F92AF92BF920A
S1130A20CF92DF92EF92FF920F931F93CF93DF93B6
S1130A30882E962E1A012801390161E070E086E0C3
S1130A4090E00E94112AEC01892BA1F119821882ED
S1130A501B821A823092B3082092B2084092AE08E8
S1130A605092AF086092B0087092B108F092AD084D
S1130A70E092AC08A092A808B092A908C092AA0873
S1130A80D092AB080E94DF1B492D50E07E0184E028
S1130A90E80EF11C082D9E0163E573E081ED95E0FD
S1130AA00E946A1284E693E09F938F930E94AF2B77
S1130AB00F900F90CE01DF91CF911F910F91FF9076
S1130AC0EF90DF90CF90BF90AF909F908F907F90EA
S1130AD06F905F904F903F902F900895CF92DF9248
S1130AE0EF92FF920F931F93CF93DF93EC0140910A
S1130AF0AE085091AF086091B0087091B108CC2451
S1130B00CA94DC2C760101E021E08091B208909136
S1130B10B308D7D10091AE081091AF082091B00866
S1130B203091B108DC01CB0180239123A223B323AC
S1130B30081719072A073B0759F50E94FA1B6AE0B0
S1130B4070E080E090E00E942A150E94F71B882341
S1130B5061F00E94201C998388830E94461C9B8319
S1130B608A8383E893E00E94C22B64EC79E080E0FE
S1130B7090E00E942A154091A8085091A90860911C
S1130B80AA087091AB088091AC089091AD0859D235
S1130B90DF91CF911F910F91FF90EF90DF90CF9055
S1130BA00895EC01CE019ADFFDCFFC018081918193
S1130BB00895FC01828193810895EF92FF920F932F
S1130BC09B01E12CF12C082F48E851E069EA73E01D
S1130BD08EE297E00E946A120F91FF90EF900895C1
S1130BE0DF92EF92FF920F931F93CF93DF937C01D9
S1130BF081E00E94651F62E070E080E090E00E9466
S1130C002A1580E00E94651F66E970E080E090E0AC
S1130C100E942A150E941B1F81E00E94731D0E94DE
S1130C20791F0E94F6219F938F9382EB93E09F9309
S1130C308F930E94AF2B0E94F7200E94F6219F936E
S1130C408F9385EC93E09F938F930E94AF2B8AEC54
S1130C5098E00E948B1F0E94F621CAECD8E0DF9333
S1130C60CF939F938F938EED93E09F938F930E94E6
S1130C70AF2BCE010E94A71F0E94F6219F938F9352
S1130C80DF93CF9382EF93E09F938F930E94AF2BD8
S1130C90AE0167E074E088E294E00E94D5210E94EE
S1130CA0F6219F938F93DF93CF9387E094E09F93F4
S1130CB08F9388E294E09F938F9389E394E09F93CA
S1130CC08F930E94AF2B0E94DA1F0E94F6219F93FC
S1130CD08F938FE694E09F938F930E94AF2B8DB7F1
S1130CE09EB782960FB6F8949EBF0FBE8DBF81E06B
S1130CF00E94D4200E94F6219F938F938EE794E064
S1130D009F938F930E94AF2B84EF91E00E94DF208A
S1130D100E94F6219F938F9381E08F9384EF8F93AA
S1130D208FE994E09F938F930E94AF2B8DB79EB76A
S1130D300A960FB6F8949EBF0FBE8DBFCAE0D0E0EE
S1130D400FEB14E080E00E94E01FD82E0E94F621F1
S1130D509F938F93DF93CF931F930F930E94AF2B97
S1130D600F900F900F900F900F900F9088E0D8166F
S1130D7009F45CC080E00E94DF1D66E371E080E05E
S1130D8090E00E942A152197E9F649C072D4FECF5B
S1130D9083E00E94F11DC4EBD8E08A811F928F93F7
S1130DA08FED94E09F938F930E94AF2B8B811F92C2
S1130DB08F9381E095E09F938F930E94AF2B8C815A
S1130DC01F928F9384E295E09F938F930E94AF2BA1
S1130DD08D811F928F9383E495E09F938F930E945C
S1130DE0AF2BBE0180E00E9409200E94F6219F9350
S1130DF08F9383E695E09F938F930E94AF2B8DB7DB
S1130E009EB744960FB6F8949EBF0FBE8DBF1EC00A
S1130E1060ED77E080E090E00E942A1517C081E041
S1130E200E94D01D80E00E949A1DB0CF81E00E94F4
S1130E30C11D00E010E0980142E350E064EB78E06B
S1130E40C7010E942911039718F3A2CFDF91CF9114
S1130E501F910F91FF90EF90DF900895EC01CE0168
S1130E60BFDE68EB7BE080E090E00E942A15F7CFBC
S1130E70E7E0F1E080818F6080830895E8E0F1E0AD
S1130E809081907F908390818F70982B90830895A8
S1130E90E8E0F1E08081807F80830895CF93DF9341
S1130EA080E190E0B4D1EC01009739F0FC0111929B
S1130EB0119211921192CF0194D2CE01DF91CF9170
S1130EC008952F923F924F925F926F927F928F92EA
S1130ED09F92AF92BF92CF92DF92EF92FF920F93C5
S1130EE01F93CF93DF93EC014A015B01622E702EB6
S1130EF00E94C513288039804A805B8001110DC08F
S1130F0081E0B201A101482159216A217B21452BAD
S1130F10462B472B79F480E00DC081E0B201A1019A
S1130F20482159216A217B21481559056A057B0509
S1130F3009F080E0882381F0662009F46BC0809476
S1130F409094A094B09482209320A420B520888209
S1130F509982AA82BB825EC0C114D104E104F10467
S1130F6009F458C0662029F040E050E060E071E0E8
S1130F7003C040E050E0BA01711074604829592957
S1130F806A297B2997018601CE0104960E94D9150E
S1130F900E94AE14811101C06CD30E94661791FDAA
S1130FA035C00FB6F8940F92688179818A819B814C
S1130FB071100DC021E075016401C622D722E82218
S1130FC0F922CD28CE28CF2879F420E00DC021E0E5
S1130FD075016401C622D722E822F922C814D90473
S1130FE0EA04FB0409F020E0222371F0662061F09A
S1130FF080949094A094B09486229722A822B92237
S113100088829982AA82BB820F900FBE1B012C0199
S1131010552402C00E94AE14C201B101DF91CF91E8
S11310201F910F91FF90EF90DF90CF90BF90AF9002
S11310309F908F907F906F905F904F903F902F90F4
S113104008954F925F926F927F928F929F92AF9288
S1131050BF92CF92DF92EF92FF920F931F93CF93A1
S1131060DF93EC016A017B018C01095F1F4F0E9431
S1131070C513EB85FC8588819981AA81BB81C82A27
S1131080D92AEA2AFB2AC882D982EA82FB820E176D
S11310901F0709F445C0C12CD12C760199249394DF
S11310A0812CA480B58080819181A281B381AC011F
S11310B0BD017727B2FD0FC0488059806A807B80CC
S11310C04422552266227722292D4528462847287E
S11310D089F4282D0FC0488059806A807B8044227F
S11310E0552266227722292D441655066606770670
S11310F009F0282D222371F0B0FF04C0C42AD52A98
S1131100E62AF72A488159816A817B817260CF017E
S11311100E945F16EA2DFB2D0E171F0711F603C060
S1131120C12CD12C7601C094D094E094F0948881A1
S11311309981AA81BB81C822D922EA22FB22C882D2
S1131140D982EA82FB820E94AE14688179818A8105
S11311509B81DF91CF911F910F91FF90EF90DF90D2
S1131160CF90BF90AF909F908F907F906F905F9043
S11311704F900895CF93DF93DC01E6E3F9E001C0DB
S1131180F901208131812A173B07D0F382819381B1
S1131190AF01480F591FA417B50749F412964D9192
S11311A05C911397840F951F93838283DF011296BA
S11311B08D919C911397ED01C80FD91F2C173D07F2
S11311C0D9F42091340930913509C217D30781F03D
S11311D02A813B81820F931F13969C938E931297BF
S11311E0C081D1818881998111969C938E9307C087
S11311F01196DC93CE9303C011963C932E93AE17B5
S1131200BF0711F0B183A083DF91CF910895CF92EE
S1131210DF92EF92FF920F931F93CF93DF93EC0132
S11312200E94C5138091340990913509892B41F5A9
S1131230E6E3F9E0AAE3B9E0B183A0831382128262
S1131240E6EDF8E1F0933509E09334091382128254
S1131250118210828CE99FE013969C938E931297CF
S1131260ED93FC9390933109809330099093330963
S11312708093320980E090E890932F0980932E099F
S1131280E0902E09F0902F09C7018C239D23892B10
S113129009F066C0209709F466C0AE014C5F5F4F49
S11312A009F45EC00091320910913309041715073F
S11312B008F456C0C0913609D0913709E6E3F9E045
S11312C002C0FE01E9012A813B812417350728F475
S11312D02881398121153105A1F780913409909134
S11312E03509C817D907E1F1C080D18084E0C80E60
S11312F0D11C88819981918380832A813B81241B1D
S1131300350B2930310548F0CE01840F951FFC01BF
S1131310338322835B834A832DDF8A819B81081B6D
S1131320190B10933309009332092091300930913D
S113133031090217130720F410933109009330097F
S1131340E82AF92AFB82EA82198218820E94AE14E2
S1131350C114D10459F40E94B41AC12CD12C06C072
S11313600E94AE14F8CF0E94AE14F5CFC601DF91EF
S1131370CF911F910F91FF90EF90DF90CF90089540
S1131380CF93DF93009751F1FC013497228133818D
S113139040912E0950912F09B90164237523672BBD
S11313A0E9F060817181672BC9F4EF014095509594
S11313B024233523338322830E94C51320913209C9
S11313C0309133098A819B81820F931F9093330953
S11313D080933209CE01CEDE0E94AE14DF91CF910C
S11313E00895FC010396928381834FEF5FEFBA0166
S11313F04383548365837683908787839287818729
S113140010820895FC01138612860895CF93DF930A
S11314109C01FB01DC011196CD91DC911297D583DF
S1131420C4838E819F81978386838E819F81DC0113
S113143015967C936E9314977F836E8333872287EC
S1131440F90180818F5F8083DF91CF9108950F939D
S11314501F93CF93DF93EB01088119812A813B818C
S11314600F3F4FEF14072407340721F4FC01A18533
S1131470B28511C0DC01139601C0DF011496ED9111
S1131480FC9115974081518162817381041715077E
S11314902607370790F71496ED91FC911597FD8375
S11314A0EC83D783C683BF83AE831596DC93CE9338
S11314B014979B878A87FC0120812F5F2083DF910B
S11314C0CF911F910F910895CF93DF93FC01A285D3
S11314D0B385C481D581868197819F838E83C6819C
S11314E0D781848195819D838C8311968D919C9164
S11314F01297E817F90731F48681978112969C9325
S11315008E931197138612868C9181508C938C91B3
S1131510DF91CF91089531E1FC013083319722E2CC
S113152020833197A3E3A08331976083319770833D
S11315303197108231971082319760E86083319738
S113154010823197108231971082319762E0608364
S1131550319763E06083319764E06083319765E09D
S11315606083319766E06083319767E060833197E9
S113157068E06083319769E06083319760E160835C
S113158031973083319732E13083319733E13083BF
S1131590319734E13083319735E13083319736E147
S11315A03083319737E13083319738E13083319795
S11315B039E13083319730E23083319731E230833F
S11315C031972083319723E22083319740833197E9
S11315D05083319726E22083319727E22083319785
S11315E028E22083319729E22083319720E3208366
S11315F0319721E3208389970895A89590EC88E199
S11316000FB6F894A895809360000FBE9093600085
S1131610A0915419B0915519CD91CDBFDD91DEBF84
S1131620FF91EF91DF91CF91BF91AF919F918F91F6
S11316307F916F915F914F913F912F911F910F91E6
S1131640FF90EF90DF90CF90BF90AF909F908F90DE
S11316507F906F905F904F903F902F901F900F90CE
S11316600CBE0F900BBE0F900FBE0F90089581E03B
S113167008950F920FB6F8940F920BB60F920CB612
S11316800F921F9211242F923F924F925F926F926A
S11316907F928F929F92AF92BF92CF92DF92EF92FE
S11316A0FF920F931F932F933F934F935F936F93E7
S11316B07F938F939F93AF93BF93CF93DF93EF93D6
S11316C0FF93A0915419B09155190DB60D920EB611
S11316D00D920E944315A0915419B0915519CD91C2
S11316E0CDBFDD91DEBFFF91EF91DF91CF91BF912F
S11316F0AF919F918F917F916F915F914F913F91A6
S11317002F911F910F91FF90EF90DF90CF90BF909A
S1131710AF909F908F907F906F905F904F903F908D
S11317202F901F900F900CBE0F900BBE0F900FBE0A
S11317300F9008950F920FB6F8940F920BB60F9274
S11317400CB60F921F9211242F923F924F925F92E8
S11317506F927F928F929F92AF92BF92CF92DF92BD
S1131760EF92FF920F931F932F933F934F935F93A7
S11317706F937F938F939F93AF93BF93CF93DF9395
S1131780EF93FF93A0915419B09155190DB60D9292
S11317900EB60D9213BE0E94D91381110E944315F7
S11317A0A0915419B0915519CD91CDBFDD91DEBFF3
S11317B0FF91EF91DF91CF91BF91AF919F918F9165
S11317C07F916F915F914F913F912F911F910F9155
S11317D0FF90EF90DF90CF90BF90AF909F908F904D
S11317E07F906F905F904F903F902F901F900F903D
S11317F00CBE0F900BBE0F900FBE0F9008959ADF92
S113180018950FB6F8940F92FC01968D0F900FBEA9
S113181081E0911180E008950F931F93CF93DF939C
S1131820EC01042F1E8D48A141110CC088819981BF
S1131830892B09F042C08C819D810E9426171D824C
S11318401C8242C0011117C050E08A819B810E9412
S1131850502B28A18A819B81820F911D9B838A83AF
S11318602C813D818217930750F1888199819B8354
S11318708A8380E029C050E08E819F810E94502B92
S113188088A190E09195819591092E813F81280F3F
S1131890391F3F832E83488159812417350730F43B
S11318A02C813D81820F931F9F838E83023049F4E4
S11318B0112349F0115080E007C080E005C080E0AA
S11318C003C080E001C080E01F5F1E8FDF91CF91D5
S11318D01F910F910895FC0140A14423A9F050E009
S11318E026813781240F351F378326838481958190
S11318F02817390720F08081918197838683CB0153
S1131900668177810C94502B0895EF92FF920F9388
S11319101F93CF938C010FB6F8940F92FC01C2A1D0
S11319201C16ACF48389811106C011C0F8018389A7
S1131930811105C00CC07801F3E1EF0EF11CC70161
S11319400E941D1681110E940F17C15079F78FEF65
S1131950F80182A30F900FBE0FB6F8940F92C1A1A5
S11319601C16ACF48085811106C011C0F801808575
S1131970811105C00CC07801F8E0EF0EF11CC7011D
S11319800E941D1681110E940F17C15079F78FEF25
S1131990F80181A30F900FBECF911F910F91FF907B
S11319A0EF900895CF93DF93EC010FB6F8940F9264
S11319B0E881F9818F8D28A190E030E0829FA00119
S11319C0839F500D929F500D11244E0F5F1F5D8316
S11319D04C831E8EFB83EA830197829FA001839F21
S11319E0500D929F500D1124CF01840F951F9F839A
S11319F08E838FEF89A38AA361110BC08885882306
S1131A0071F0CE0108960E941D16882341F031DE44
S1131A1006C0CE010896E5DCCE014396E2DC0F90C9
S1131A200FBE81E0DF91CF910895FF920F931F9332
S1131A30CF93DF93082F162FF42E6623B9F0869FD9
S1131A40C00111248596E3DBEC01009741F414C036
S1131A500F8F18A361E0CE01A5DFFCA20DC085960F
S1131A6099838883F5CFD983C883F2CF85E290E048
S1131A70CEDBEC01892BB9F7CE01DF91CF911F9119
S1131A800F91FF9008959F92AF92BF92CF92DF92F1
S1131A90EF92FF920F931F93CF93DF93CDB7DEB7EF
S1131AA029970FB6F894DEBF0FBECDBF7C015B0152
S1131AB02E833F834887598710E0992493946C01BF
S1131AC088E0C80ED11C0FB6F8940F92F701968DDA
S1131AD0878D981710F00230B1F4402FB501C7017B
S1131AE09BDEF7019389992341F0C70143960E9435
S1131AF01D16882321F0BDDD02C08111BADD0F90CF
S1131B000FBE81E04EC08E819F81A885B985892B47
S1131B108A2B8B2B21F40F900FBE80E042C0111151
S1131B2005C0CE0101960E94A916192D0F900FBE73
S1131B302CD60FB6F8940F92F70181A18F3F09F4C8
S1131B4011A2F70182A18F3F09F412A20F900FBED8
S1131B50BE016A5F7F4FCE0101960E94BA168111C1
S1131B601CC00FB6F8940F92F701968D878D0F90D5
S1131B700FBE98130EC04E815F8168857985C601BA
S1131B800E94C215C701C1DEE9D681119CCF71DD67
S1131B909ACFC701BADEE2D696CFC701B6DEDED64B
S1131BA080E029960FB6F894DEBF0FBECDBFDF915B
S1131BB0CF911F910F91FF90EF90DF90CF90BF9046
S1131BC0AF909F9008950F93CF93DF93482F60E0D9
S1131BD081E02BDFEC01009761F01D821C821982E9
S1131BE018821E8200E020E030E0A90160E070E08D
S1131BF04ADFCE01DF91CF910F910895EF92FF92CA
S1131C000F931F93CF93DF938A01FC01568D378D79
S1131C10531710F02230E9F4422F7801EC011AA195
S1131C20FBDD1F3F81F48B898823A9F0CE01439605
S1131C300E941D16882389F0E114F10481F081E0EB
S1131C40F70180830DC0FF24F394F10EFAA281E022
S1131C5007C080E005C081E003C081E001C081E0ED
S1131C60DF91CF911F910F91FF90EF9008959F9274
S1131C70AF92BF92CF92DF92EF92FF920F931F9396
S1131C80CF93DF93CDB7DEB729970FB6F894DEBFB5
S1131C900FBECDBF8C015B012E833F8348875987DC
S1131CA0E12C992493946C0183E1C80ED11C0FB6E6
S1131CB0F8940F92F801F68CFF2091F0B501C80159
S1131CC00ADEFA94F801F68E8085882329F0C8018B
S1131CD00896B3D78111CDDC0F900FBE81E04CC0C4
S1131CE08E819F81A885B985892B8A2B8B2B21F422
S1131CF00F900FBE80E040C0E11005C0CE010196F8
S1131D000E94A916E92C0F900FBE3FD50FB6F89488
S1131D100F92F80181A18F3F09F411A2F80182A169
S1131D208F3F09F412A20F900FBEBE016A5F7F4F6E
S1131D30CE0101960E94BA16811115C0C80161DD59
S1131D40882369F04E815F8168857985C6011AD739
S1131D50C801DBDD03D68111AACF8BDCA8CFC80173
S1131D60D4DDFCD5A4CFC801D0DDF8D5C80149DD48
S1131D70882309F49CCF80E029960FB6F894DEBF3F
S1131D800FBECDBFDF91CF911F910F91FF90EF90C8
S1131D90DF90CF90BF90AF909F900895CF93DF9343
S1131DA0EC010FB6F8940F9289A18F3F09F419A2A0
S1131DB08AA18F3F09F41AA20F900FBE8E8D811154
S1131DC003C0CE01439619D7CE019FDDDF91CF9199
S1131DD00895FC014481558122813381240F351FEC
S1131DE080819181B901681B790BCB016417750758
S1131DF010F0841B950B0895AF92BF92CF92DF929F
S1131E00EF92FF920F931F93CF93DF936C015B01CB
S1131E107A01FC01C281D381048115810C1B1D0B45
S1131E204017510708F48A01F60184859585A801B5
S1131E30B5018C0F9D1F0E94502B0E151F0558F4E1
S1131E40A701401B510BB501600F711FF60184857A
S1131E5095850E94502BCE018E0D9F1DF601248185
S1131E6035818217930710F0821B930BF60193833D
S1131E708283C701DF91CF911F910F91FF90EF9063
S1131E80DF90CF90BF90AF900895CF92DF92EF9202
S1131E90FF920F931F93CF93DF931F921F92CDB79F
S1131EA0DEB75A83498321153105C9F06B017C01E2
S1131EB0FC01868580FD08C0CA012417350708F493
S1131EC0C9019A83898311C02017310758F042E071
S1131ED050E0BE016F5F7F4FC7018EDF06C080E018
S1131EE090E008C080E090E005C049815A81B601C5
S1131EF0C70182DF0F900F90DF91CF911F910F9157
S1131F00FF90EF90DF90CF900895AF92BF92CF9261
S1131F10DF92EF92FF920F931F93CF93DF937C0195
S1131F205B01E9014217530708F4EA01209779F1AC
S1131F30F70100811181C480D580C01AD10ACC1563
S1131F40DD0508F46E01F70164857585600F711F66
S1131F50A601C5010E94502BCC16DD0658F4AE0133
S1131F604C195D09F70164857585C5018C0D9D1DAE
S1131F700E94502B0C0F1D1FF701848195810817B7
S1131F80190710F0081B190BF70111830083CE0108
S1131F90DF91CF911F910F91FF90EF90DF90CF9041
S1131FA0BF90AF900895EF92FF921F93CF93DF936A
S1131FB0EB0111E0413009F010E0209711F4C1E089
S1131FC0D0E07C012FEFE21AF20A419620D9009763
S1131FD081F020E1FC0111922A95E9F79C01205F30
S1131FE03F4FFC0135872487F582E482D783C6837B
S1131FF01687DF91CF911F91FF90EF900895CF93B3
S1132000DF93FC0127850FB6F8940F9280859185A4
S1132010892BD1F482859385892BC1F486854681E9
S1132020578164817581A485B58590E1EF0119928A
S11320309A95E9F7B587A4877583648357834683A4
S11320408687278781E003C080E001C080E00F908D
S11320500FBEDF91CF910895FC01248135818081E9
S1132060918142815381820F931F0197841B950BA9
S11320708217930710F0821B930B08952F923F92BF
S11320804F925F926F927F928F929F92AF92BF9284
S1132090CF92DF92EF92FF920F931F93CF93DF9330
S11320A0CDB7DEB729970FB6F894DEBF0FBECDBF0C
S11320B05C011B012A010E831F8328873987FC01D9
S11320C0868580FF05C03A01F2E06F0E711C01C0E5
S11320D03A018E819F81A885B985892B8A2B8B2B08
S11320E009F434C0CE0101961ED60FB6F8940F92AF
S11320F0C501B2DF4C018615970518F580E090E024
S11321000E94191990D6F501938782870F900FBE0C
S1132110CE80DF80E884F98400E010E020E030E045
S1132120A90160E070E0CB01F9D6F50113861286AF
S1132130BE016A5F7F4FCE0101961CD68823A9F2A7
S113214002C00F900FBE8114910419F4C50184DFFD
S11321504C0183019401A201B101C50196DE7C0109
S1132160892BD9F0C50135DEF50126813781821727
S1132170930798F00AD3F50180859185892B61F046
S11321808085918500E010E020E040E050E0BA0155
S11321904FD7F50111861086E1D3C70129960FB6F2
S11321A0F894DEBF0FBECDBFDF91CF911F910F9189
S11321B0FF90EF90DF90CF90BF90AF909F908F9063
S11321C07F906F905F904F903F902F900895AF92C3
S11321D0BF92CF92DF92EF92FF920F931F93CF9310
S11321E0DF93EC015B016A0179018E8580FF04C0F5
S11321F08A010E5F1F4F01C08A01CE012DDF9C01B1
S1132200A601B501CE0141DE6C01892BB1F0CE01EE
S1132210E0DD2E813F818217930778F088859985C8
S1132220892B59F08885998500E010E020E040E092
S113223050E0BA0175D719861886C601DF91CF918F
S11322401F910F91FF90EF90DF90CF90BF90AF90D0
S113225008954F925F926F927F928F929F92AF9266
S1132260BF92CF92DF92EF92FF920F931F93CF937F
S1132270DF931F921F92CDB7DEB75C012B013A01A9
S113228068017901FC01868580FD03C0812C912CB5
S113229004C06894882481F8912CC114D104E10409
S11322A0F10429F10FB6F8940F92C50192DD8C0167
S11322B08816990638F080E090E0BBD7B4D5F501D4
S11322C0918780870F900FBE80169106B0F000E0D2
S11322D010E020E030E0A90160E070E0CB011ED600
S11322E0F50111861086C50174DD8C0103C0C5019A
S11322F070DD8C0180169106B8F581149104C1F04B
S1132300F501E080F1809801A401BE016F5F7F4F69
S1132310C501FBDD89819A810819190968167906B6
S113232030F4F501F182E082612C712C01C03C0192
S11323309801A301B201C501E8DD7C01892BB1F04C
S113234024D2F50182859385892B61F0828593855A
S113235000E010E020E040E050E0BA0169D6F50169
S113236013861286FBD202C0E12CF12CC7010F9018
S11323700F90DF91CF911F910F91FF90EF90DF901D
S1132380CF90BF90AF909F908F907F906F905F9011
S11323904F900895E0911019F091111980818111E5
S11323A00CC08FEF9FEFDC018093DD189093DE1853
S11323B0A093DF18B093E0180895E0911019F091FC
S11323C011190780F085E02D0084F185E02D8281CC
S11323D09381A481B5818093DD189093DE18A09336
S11323E0DF18B093E01808958F929F92AF92BF9236
S11323F0CF92DF92EF92FF92CF936B017C01C42FB7
S11324008090E7189090E818A090E918B090EA1826
S11324108091541990915519029656D88FEFC81689
S1132420D806E806F80669F4CC2359F060915419EB
S1132430709155196E5F7F4F8CEE98E10E94060AE9
S11324403FC0C80CD91CEA1CFB1CE0915419F09144
S11324505519C282D382E482F582C814D904EA04ED
S1132460FB0468F4609154197091551980910E1908
S113247090910F196E5F7F4F0E94270A21C06091CF
S113248054197091551980911019909111196E5F1A
S11324907F4F0E94270A8091DD189091DE18A09149
S11324A0DF18B091E018C816D906EA06FB0640F416
S11324B0C092DD18D092DE18E092DF18F092E01896
S11324C0CF91FF90EF90DF90CF90BF90AF909F900F
S11324D08F9008954F925F926F927F928F929F9206
S11324E0AF92BF92CF92DF92EF92FF920F93CF936E
S11324F0DF934C016B015A012901CA010E940709AB
S11325003C01892B09F4F4C080E390E00E940709A0
S1132510EC01892B99F07C8E6B8EA50165EA70E045
S1132520C3010E94592B21E0A21AB1088B8D9C8D06
S1132530A80EB91EC114D10429F420C0C3010E94FD
S1132540C009D6C0D6018C918D8F8C918823A1F0BF
S1132550AE01425E5F4FF6013196B8E0CB0ED11C5E
S1132560CF012191DA012D93AD01DC018C918823F7
S113257019F0EC15FD05A1F71CA201C01D8E043055
S113258008F003E00A8F0FA318A66E01B2E0CB0E89
S1132590D11CC6010E94020ACE010E960E94020AB4
S11325A0DB87CA8784E090E0A0E0B0E0801B91095B
S11325B0A109B1098E879F87A88BB98BDF8BCE8B3E
S11325C01AA619A61BA61CA61DA61EA61FA6A20116
S11325D0B401C5010E948B0A99838883E114F10434
S11325E019F0F701D183C0830FB6F8940F9280914C
S11325F0EB188F5F8093EB188091541990915519C3
S1132600892BD1F5D0935519C09354198091EB18A7
S1132610813009F041C088E299E10E94F10983E325
S113262099E10E94F1098EE399E10E94F10989E49C
S113263099E10E94F1098DE199E10E94F10982E199
S113264099E10E94F10983E099E10E94F10988EF80
S113265098E10E94F1098CEE98E10E94F1098DE164
S113266099E1909311198093101982E199E1909363
S11326700F1980930E1910C08091E51881110CC0B8
S1132680E0915419F0915519928D8A8D891720F093
S1132690D0935519C09354198091E1188F5F80939A
S11326A0E1188DA38A8D9091E618981710F4809301
S11326B0E618FBE08F9FC0011124B601885D964E99
S11326C00E94060A0F900FBE8091E518882361F0DE
S11326D0E0915419F0915519928D8A8D981730F420
S11326E00E94390B81E005C081E003C081E001C094
S11326F08FEFDF91CF910F91FF90EF90DF90CF900C
S1132700BF90AF909F908F907F906F905F904F900D
S11327100895EF92FF920F930F2EFBEDEF2EF8E149
S1132720FF2EF02D00E020E030E040EC50E068E7C0
S113273075E08DEC90E0CEDE813019F500D6813065
S113274001F5F8948FEF9FEFDC018093DD189093EF
S1132750DE18A093DF18B093E01881E08093E518A9
S11327601092E7181092E8181092E9181092EA18DB
S1132770E0915419F091551981A50E943E070E94D9
S1132780FD0A0F91FF90EF9008958091DA188F5F02
S11327908093DA1808950FB6F8940F926091E718B1
S11327A07091E8188091E9189091EA180F900FBE83
S11327B008959F92AF92BF92CF92DF92EF92FF92D1
S11327C00F931F93CF93DF938091DA188111ADC0DB
S11327D0C090E718D090E818E090E918F090EA1853
S11327E08FEFC81AD80AE80AF80AC092E718D092FC
S11327F0E818E092E918F092EA18C114D104E1044F
S1132800F104B1F4809110199091111920910E19CD
S113281030910F19309311192093101990930F19B7
S113282080930E198091E2188F5F8093E218B2DDD5
S11328308091DD189091DE18A091DF18B091E01816
S1132840C816D906EA06FB0610F4B12C5DC0B12CFB
S11328500F2EFBE0AF2EF02D99249394E0911019E4
S1132860F0911119808181110CC08FEF9FEFDC0171
S11328708093DD189093DE18A093DF18B093E018CE
S113288043C0E0911019F09111190780F085E02DF3
S1132890C085D1858A819B81AC81BD81C816D9064A
S11328A0EA06FB0648F48093DD189093DE18A093A3
S11328B0DF18B093E01828C08E010E5F1F4FC801C7
S11328C00E94640A888D998D892B21F0CE010E9681
S11328D00E94640A8A8D9091E618981710F48093E8
S11328E0E618A89EC0011124B801885D964E0E9486
S11328F0060AE0915419F09155199A8D828D981712
S113290008F4ACCFB92CAACFE0915419F091551921
S1132910E28D8BE0E89FF0011124E85DF64E8081A2
S1132920823048F0BB24B39406C08091E4188F5FD2
S11329308093E418B12C8091E318882311F0BB2410
S1132940B3948B2DDF91CF911F910F91FF90EF9056
S1132950DF90CF90BF90AF909F900895CF92DF9279
S1132960EF92FF920F931F93CF93DF930FB6F894D8
S11329700F928091DA1881508093DA188091DA18D6
S113298081115AC08091EB1881112CC058C0D70115
S11329901796ED91FC911897C085D185CE010E96BE
S11329A00E94640A8E010E5F1F4FC8010E94640AD0
S11329B08A8D9091E618981710F48093E618D89EA3
S11329C0C0011124B801885D964E0E94060AE09168
S11329D05419F09155199A8D828D981788F0C092E8
S11329E0E3180EC0C0E0D0E00F2EF3E0EF2EF9E1C3
S11329F0FF2EF02D0F2EFBE0DF2EF02DCC24C39400
S1132A00F70180818111C3CFCD2B09F0C3DCC091C4
S1132A10E418CC2349F0D1E0CCDE8111D093E31843
S1132A20C150D1F71092E4188091E318882331F053
S1132A300E94390B81E003C080E001C080E00F9068
S1132A400FBEDF91CF911F910F91FF90EF90DF9018
S1132A50CF900895CF92DF92EF92FF926B017C01A9
S1132A60672B682B692B41F090DE40E0C701B6016B
S1132A70BBDC74DF811102C00E94390BFF90EF9020
S1132A80DF90CF9008958091DA18882321F081E0B7
S1132A908093E31808951092E318E0915419F0918B
S1132AA0551981A50E944807A0915419B091551950
S1132AB0E0915419F09155192D913C91838D948D89
S1132AC08217930758F060915419709155198091A9
S1132AD0541990915519635E7F4F53D58091E61830
S1132AE0282F30E09BE0899FF0011124E85DF64E29
S1132AF0908191110EC04BE08150282F30E0429F0D
S1132B00F001439FF00D1124E85DF64E9081992366
S1132B1099F39BE0929FA001939F500D1124DA0139
S1132B20A85DB64E1196ED91FC9112970480F58143
S1132B30E02D1296FC93EE931197455D564EE417E3
S1132B40F50729F444815581FD01528341839BE0BB
S1132B50929FF001939FF00D1124E85DF64E0180E1
S1132B60F281E02D20853185309355192093541935
S1132B708093E618E0915419F091551981A50C94AD
S1132B803E070895CF92DF92EF92FF926A017B0194
S1132B906091541970915519625F7F4F0E94270A02
S1132BA041E0C701B60120DCFF90EF90DF90CF90A9
S1132BB00895CF92DF92EF92FF920F931F936801D3
S1132BC07901E0915419F091551970684687578737
S1132BD0608B718B6091541970915519625F7F4FAE
S1132BE00E94060A41E0C701B601FEDB1F910F9166
S1132BF0FF90EF90DF90CF900895CF92DF92EF9205
S1132C00FF92CF936A017B01C22F60915419709196
S1132C105519625F7F4F0E94060ACC2321F0CC2411
S1132C20CA94DC2C76014C2FC701B601DDDBCF91B1
S1132C30FF90EF90DF90CF9008950F931F93CF9361
S1132C40DF93DC011796ED91FC911897C085D1852F
S1132C508E01025F1F4FC8010E94640A8091DA1836
S1132C60811116C00C501109C8010E94640A8A8D92
S1132C709091E618981710F48093E618BBE08B9FA8
S1132C80C0011124B801885D964E0E94060A05C051
S1132C90B80183E099E10E94060AE0915419F09189
S1132CA055199A8D828D891720F481E08093E31859
S1132CB001C080E0DF91CF911F910F9108950F9390
S1132CC01F93CF93DF937068FC0140835183628329
S1132CD07383C085D1850E94640A8E010E5F1F4FE5
S1132CE0C8010E94640A8A8D9091E618981710F41E
S1132CF08093E618FBE08F9FC0011124B801885D22
S1132D00964E0E94060AE0915419F09155199A8D35
S1132D10828D891718F481E08093E318DF91CF91B5
S1132D201F910F9108950FB6F8940F922091E21815
S1132D30FC0120834091E7185091E8186091E9184C
S1132D407091EA1841835283638374830F900FBE9A
S1132D5008952091E218FC0120834091E7185091D6
S1132D60E8186091E9187091EA18418352836383EB
S1132D7074830895CF92DF92EF92FF920F931F9383
S1132D80CF93DF93FB010FB6F8940F924091E718AD
S1132D905091E8186091E9187091EA180081118146
S1132DA0228133810F3FAFEF1A072A073A0749F10F
S1132DB0EC01C980DA80EB80FC80A091E218B88134
S1132DC0BA1729F04C155D056E057F05E0F44C1922
S1132DD05D096E097F09401751076207730758F4AC
S1132DE0041B150B260B370B0083118322833383BB
S1132DF0B0DF80E009C0108211821282138281E068
S1132E0003C080E001C081E00F900FBEDF91CF913D
S1132E101F910F91FF90EF90DF90CF90089581E084
S1132E208093E31808958091541990915519089549
S1132E308091E518882331F08091DA18882321F0F5
S1132E4080E0089581E0089582E008950F931F9330
S1132E50CF93DF93FC01892B79F180A5815080A762
S1132E60228D97A1291751F181112AC0EF018F01F9
S1132E700E5F1F4FC8010E94640A8FA18A8F44E02D
S1132E8050E060E070E0481B5109610971094E8708
S1132E905F87688B798B9091E618981710F480936C
S1132EA0E6182BE0829FC0011124B801885D964E7C
S1132EB00E94060A81E005C080E003C080E001C0F2
S1132EC080E0DF91CF911F910F910895CF92DF920F
S1132ED0EF92FF92E0915419F09155196685778528
S1132EE080899189E0915419F0915519A091541950
S1132EF0B09155195A962C91C12CD12C7601689415
S1132F00C2F8C21AD108E108F108C686D786E08A59
S1132F10F18AFF90EF90DF90CF9008954F925F92E7
S1132F206F927F928F929F92AF92BF92CF92DF92D5
S1132F30EF92FF920F931F9349015A010FB6F89431
S1132F400F92E0915419F091551927A5223039F1C7
S1132F50E0915419F091551943A454A465A476A49E
S1132F60DC01CB0180959095A095B09584219521A5
S1132F70A621B72183A794A7A5A7B6A7E0915419C2
S1132F80F091551981E087A7C114D104E104F1043B
S1132F9031F041E0C701B60127DA0E94390B0F90E6
S1132FA00FBE0FB6F8940F920115110569F0E09168
S1132FB05419F091551983A594A5A5A5B6A5F801B2
S1132FC080839183A283B383E0915419F0915519BE
S1132FD087A58230B1F4E0915419F091551983A575
S1132FE094A5A5A5B6A580949094A094B0948822A5
S1132FF09922AA22BB2283A694A6A5A6B6A681E0FE
S113300001C080E0E0915419F091551917A60F9072
S11330100FBE1F910F91FF90EF90DF90CF90BF9064
S1133020AF909F908F907F906F905F904F90089596
S11330300F931F93CF93DF93FC010FB6F8940F9275
S11330400115110549F083A594A5A5A5B6A5E80128
S113305088839983AA83BB8387A592E097A72230AC
S1133060B1F018F4213031F02AC02330E9F02430D3
S113307001F125C003A514A525A536A5402B512B88
S1133080622B732B43A754A765A776A718C043A543
S113309054A565A576A54F5F5F4F6F4F7F4F43A73C
S11330A054A765A776A70BC043A754A765A776A71F
S11330B006C0823049F143A754A765A776A781309B
S11330C029F5EF018F010E5F1F4FC8010E94640AAA
S11330D08A8D9091E618981710F48093E6182BE0E7
S11330E0829FC0011124B801885D964E0E94060A91
S11330F0E0915419F09155199A8D828D891740F4F5
S11331000E94390B81E005C080E003C081E001C06A
S113311081E00F900FBEDF91CF911F910F91089521
S1133120EF92FF920F931F93CF93DF93FC0101154E
S1133130110549F083A594A5A5A5B6A5E801888342
S11331409983AA83BB8387A592E097A72230B1F025
S113315018F4213031F02AC02330E9F0243001F191
S113316025C003A514A525A536A5402B512B622BFC
S1133170732B43A754A765A776A718C043A554A5E6
S113318065A576A54F5F5F4F6F4F7F4F43A754A749
S113319065A776A70BC043A754A765A776A706C063
S11331A08230D9F143A754A765A776A78130B9F532
S11331B0EF018091DA18811117C08F010E5F1F4F44
S11331C0C8010E94640A8A8D9091E618981710F439
S11331D08093E618EBE08E9FC0011124B801885D4E
S11331E0964E0E94060A07C0BF01625F7F4F83E0CC
S11331F099E10E94060AE0915419F09155199A8DAB
S1133200828D891770F4E114F10419F081E0E7016B
S1133210888381E08093E31805C080E003C081E0E7
S113322001C081E0DF91CF911F910F91FF90EF904A
S11332300895009721F480915419909155190FB66F
S1133240F8940F92FC0127A5223019F417A681E007
S113325001C080E00F900FBE0895CF92DF92EF92ED
S1133260FF920F931F93FC014283538364837583FE
S1133270938782870417150726073707C0F00C19B0
S11332801D092E093F0986859785A089B1890817EC
S113329019072A073B0700F5BF016E5F7F4F809136
S11332A05E1990915F190E94270A80E018C00C15DE
S11332B01D052E053F0528F44C155D056E057F059B
S11332C068F4BF016E5F7F4F80916019909161191E
S11332D00E94270A80E003C081E001C081E01F91C1
S11332E00F91FF90EF90DF90CF9008950FB6F89470
S11332F00F9280915C1990915D19892BE9F48DE608
S113330099E10E94F10982E699E10E94F1098DE6B2
S113331099E1909361198093601982E699E1909301
S11333205F1980935E1940E067E08AE00E94150D02
S113333090935D1980935C190F900FBE0895EF92DE
S1133340FF920F93D3DF80915C1990915D19892BC3
S113335089F00F2EFAE5EF2EF9E1FF2EF02D03E0B0
S113336020E030E045E550E06DE775E087E091E06E
S1133370B1D801C080E00F91FF90EF9008958F9233
S11333809F92AF92BF92CF92DF92EF92FF920F93F0
S11333901F93CF93DF93CDB7DEB727970FB6F8947B
S11333A0DEBF0FBECDBFE0915C19F0915D1930977F
S11333B081F169832A833B834C835D839F838E835E
S11333C06630F4F435DD823069F400E0A70196013B
S11333D0BE016F5F7F4F80915C1990915D190E94CF
S11333E0430D18C000E020E030E0A901BE016F5F8A
S11333F07F4F80915C1990915D190E94430D0AC022
S113340020E0A801BE016F5F7F4FCF010E94FE0D37
S113341001C080E027960FB6F894DEBF0FBECDBF83
S1133420DF91CF911F910F91FF90EF90DF90CF909C
S1133430BF90AF909F908F9008952F923F924F929C
S11334405F926F927F928F929F92AF92BF92CF9230
S1133450DF92EF92FF920F931F93CF93DF931C01A0
S11334609AD92B013C018091561990915719A0913A
S11334705819B0915919481659066A067B0608F07E
S113348053C03BC00780F085E02D80809180A280EE
S1133490B380C085D1858E010E5F1F4FC8010E9485
S11334A0640AEC89FD89CE0119958F8982FF25C0B4
S11334B08E859F85A889B989880D991DAA1DBB1D74
S11334C088169906AA06BB0670F48A839B83AC838C
S11334D0BD83DB87CA87B801809160199091611917
S11334E00E94270A0AC0C12CD12C760100E010E00A
S11334F0A501940160E0CE0142DFE0916019F091F2
S1133500611980818111BECF80915E1990915F19FC
S11335109093611980936019F0935F19E0935E1999
S113352081E0F101808302C0F101108240925619BA
S1133530509257196092581970925919C301B201E7
S1133540DF91CF911F910F91FF90EF90DF90CF907B
S1133550BF90AF909F908F907F906F905F904F90AF
S11335603F902F9008950895279A2F9A2FEF80E780
S113357092E0215080409040E1F700C000001F9A83
S1133580F5CF279A2F9A2FEF87EA91E621508040B2
S11335909040E1F700C000001F9AF5CF8F929F92F0
S11335A0AF92BF92CF92DF92EF92FF920F931F934D
S11335B0CF93DF938091CD1A9091CE1A892B89F401
S11335C081E00E94E30D9093CE1A8093CD1A009768
S11335D041F000E020E030E0A90160E070E00E94EA
S11335E0430D0E944E079093E61A8093E51A0E94B9
S11335F04E079093CC1A8093CB1A41E060E070E0C0
S113360084E690E00E94D30F9093CA1A8093C91A5B
S1133610BC0181E00E94DD05E090CB1AF090CC1A49
S11336204091E51A5091E61AA12CB12C65016894D9
S1133630A4F801E010E020E030E060EC81E00E94BA
S11336400605C82FD92FE090CB1AF090CC1A4091E0
S1133650E51A5091E61AA12CB12C65016894A5F8DD
S113366002E010E020E030E060EC81E00E947202B1
S1133670E090CB1AF090CC1A4091E51A5091E61ADA
S11336802091CA1A2F932091C91A2F93DF93CF93B5
S11336904C010F2EF0E3AF2EB12CC12CD12CF02D08
S11336A003E010E020E030E060EC82E00E94700370
S11336B00F900F900F900F90DF91CF911F910F916A
S11336C0FF90EF90DF90CF90BF90AF909F908F903E
S11336D0089581B1816881B90E94380780E00E9411
S11336E0612685E00DD060E070E081E0ABC3089511
S11336F0F0DF81E995E00E94C22B50DF0AD8FFCFAA
S1133700E7EEFAE127E732E2318320832AE732E267
S11337103383228325E832E23583248329E832E2A5
S1133720378326832FE832E2318720872BE932E280
S11337303387228720EA32E2358724872CEA32E273
S1133740378726872CE832E2318B208B21EB32E25B
S1133750338B228B2EEB32E2358B248B682FCF01F7
S11337603DC108956530F1F4FA0180818F7390E0D2
S1133770982F88272181822B90930B0280930A0231
S11337808281F0E48F9FC0011124FA0123812695E0
S11337902695822B909309028093080281E08093FE
S11337A078190895643051F080E090E49093090210
S11337B08093080290930B0280930A0208950F935A
S11337C01F9302EB1BE120E034E244EF50E060E0A1
S11337D087E20E949B2690937A198093791921E0BD
S11337E0892B09F020E0822F1F910F910895809179
S11337F0781908958091791990917A19009739F080
S113380064E00E94EC26853021F083E0089582E094
S1133810089580E0089560910A0270910B0280E09F
S113382090E00E94F62820E030E048EC52E40E9448
S1133830842920E038EF4FE756E40C945D2808957E
S1133840EADF20E030E040E251E40E9484290E9453
S1133850CA28CB010895609108027091090280E0A2
S113386090E00E94F62820E030E045E253E40E9414
S1133870842920E038EF4FE756E40E945D2820E0D9
S113388030E040E252E40C94F8270895E4DF20E0AD
S113389030E040E251E40E9484290E94C528CB0113
S11338A00895CF93DF9390E0FC01EE0FFF1FE80F24
S11338B0F91FEE0FFF1FE558F64E238121110AC0B0
S11338C0EF01E091EF1AF091F01A6A8188819981F1
S11338D0199512C0DC01AA0FBB1FED01C80FD91F37
S11338E0CC0FDD1FC558D64EE091F91AF091FA1AA3
S11338F06A81888199811995DF91CF910895CF9339
S1133900DF9390E0FC01EE0FFF1FE80FF91FEE0FAD
S1133910FF1FE558F64E238121110AC0EF01E09103
S1133920F91AF091FA1A6A8188819981199512C05D
S1133930DC01AA0FBB1FED01C80FD91FCC0FDD1F7F
S1133940C558D64EE091EF1AF091F01A6A81888139
S113395099811995DF91CF9108950F2EF7EECF2E0F
S1133960FAE1DF2EF02D04E0CBE7D9E110E08C8101
S1133970813069F0E8F0823039F5D6011C96ED917A
S1133980FC911D976A818881998119951DC08D814B
S11339908F5F8A3010F48D8317C01D82D6011C9668
S11339A0ED91FC911D976A818881998119950CC0CC
S11339B08D81882331F0812FA2DF8D8181508D8309
S11339C003C00C83812F6DDF1F5F2696143079F6B8
S11339D065E070E080E090E03DD8C6CFCF92DF9202
S11339E0EF92FF920F931F93CF93DF93062F0F2E27
S11339F0F7EEEF2EFAE1FF2EF02DD7011896ED9198
S1133A00FC91199766E087E290E01995CBE7D9E13C
S1133A100F2EF8E2CF2ED12CF02DD982C88286E069
S1133A208A831B8214E01C8380E03BDFD701189655
S1133A30ED91FC91199767E087E290E01995DF8298
S1133A40CE8287E0888719861A8781E02ADFD7012A
S1133A501896ED91FC91199765E083E390E0199530
S1133A60D7011896ED91FC91199761E084E390E0F9
S1133A70199584E390E09D878C8785E08E871F8667
S1133A80188B82E00EDFD7011896ED91FC911997FF
S1133A9064E081E091E01995D7011896ED91FC91CD
S1133AA0199761E082E091E0199582E091E09B8BA7
S1133AB08A8B1C8B1D8A1E8B83E0F3DEE12CF12C98
S1133AC020E030E040EC50E063EA75E08DEA9CE1F0
S1133AD00E946A12DF91CF911F910F91FF90EF9096
S1133AE0DF90CF9008950F931F93CF93DF93C82F48
S1133AF0D0E08E01000F111FD801AC0FBD1FAA0F1B
S1133B00BB1FA558B64EE091F31AF091F41A129621
S1133B106C9112978D919C911995C00FD11FCC0F68
S1133B20DD1FC558D64E81E08C83DF91CF911F9164
S1133B300F9108950F931F93CF93DF93C82FD0E075
S1133B408E01000F111FD801AC0FBD1FAA0FBB1FA0
S1133B50A558B64EE091F31AF091F41A12966C91AE
S1133B6012978D919C911995C00FD11FCC0FDD1F19
S1133B70C558D64E82E08C83DF91CF911F910F916F
S1133B800895282F30E0F901EE0FFF1FE20FF31F15
S1133B90EE0FFF1FE558F64E93E09483B0CE0895E0
S1133BA0282F30E0F901EE0FFF1FE20FF31FEE0F95
S1133BB0FF1FE558F64E94E0948373CE089590E089
S1133BC0FC01EE0FFF1FDF01A80FB91FAA0FBB1FD7
S1133BD0A558B64E24E015962C931597FD01148232
S1133BE0089590E0FC01EE0FFF1FDF01A80FB91F3D
S1133BF0AA0FBB1FA558B64E21E015962C93159716
S1133C00FD01148208950F931F93CF93DF931F92A6
S1133C101F92CDB7DEB78C0119822DC0E091F71940
S1133C20EC3250F481E08E0F8093F719F0E0E75DF9
S1133C30F54E8A81808302C01092F7198A818A30F6
S1133C40D1F44091F71950E0FA01E95DF54E108284
S1133C50415051099E012F5F3F4F69E27AE1809103
S1133C60FA199091FB190E94E710898181110E9431
S1133C70390B1092F719BE016E5F7F4FC8018FD5C3
S1133C80882361F20F900F90DF91CF911F910F91D4
S1133C9008950F931F93CF93DF938C01EB018091D1
S1133CA0FA199091FB190E94FF0FB80183E999E179
S1133CB00E94902B209779F0E3E9F9E1019000202C
S1133CC0E9F7319780E290E091838083BE0183E934
S1133CD099E10E94852BE3E9F9E1DF010D900020D1
S1133CE0E9F711978DE09AE011969C938E931296C2
S1133CF01C9201900020E9F73197E359F941AE2F66
S1133D0083E999E1AC016A2F8091FC199091FD1926
S1133D10F6D4811111C008E215E020E030E04DE254
S1133D2050E063E87AE18091FA199091FB190E94BE
S1133D30291183E89AE102C080E090E0DF91CF91FD
S1133D401F910F9108952F923F924F925F926F921D
S1133D507F928F929F92AF92BF92CF92DF92EF9217
S1133D60FF920F931F93CF93DF935C01FC010190AB
S1133D700020E9F731976F01C81AD90A5C2C0F2E7D
S1133D80F4E48F2EF8E09F2EF02DE12CF12C4C2C36
S1133D903701F40101811281E80109900020E9F75B
S1133DA02197C01BD10B3C2EF9E0CF16D10458F05B
S1133DB0F4012080FEE02F1206C0B801C5010E9464
S1133DC0602B892B09F5442D351408F44C2F50E051
S1133DD0B801C5010E94972B892B49F4F301EE0F1A
S1133DE0FF1FE60DF71DEC5BF74F20800DC08FEF32
S1133DF0E81AF80AE3E08E0E911CF1E1EF16F104E3
S1133E0039F66894222424F8822DDF91CF911F91F2
S1133E100F91FF90EF90DF90CF90BF90AF909F9065
S1133E208F907F906F905F904F903F902F90089568
S1133E3030DF89CF08958091FA199091FB190C9481
S1133E40FF0F08958F929F92AF92CF92EF920F93AC
S1133E501F93CF93C82F8B0141E060E070E088ECA2
S1133E6090E00E94D30F9093FB198093FA1910935A
S1133E70F9190093F8190F2EF3E08F2EFEE19F2E0F
S1133E80F02D6894AA24A6F86894CC24C6F8E12CF2
S1133E9000E023E040E051EE60E070E08C2F74D34A
S1133EA09093FD198093FC19E091EF1AF091F01AA8
S1133EB064E087E091E01995CF911F910F91EF9005
S1133EC0CF90AF909F908F900895882349F0E09110
S1133ED0F91AF091FA1A64E088E091E019950895CE
S1133EE0E091EF1AF091F01A64E088E091E01995FE
S1133EF0089560E070E08AEC95E0CBDEE3E8FAE157
S1133F0001900020E9F73197E358FA4181E0759771
S1133F1008F080E00895CF93DF93EC0160E070E057
S1133F208BED95E0B6DEE3E8FAE101900020E9F7D5
S1133F30E459FA4139F463E87AE1CE010E94902B06
S1133F4080E002C0188281E0DF91CF910895FC01E6
S1133F5001900020E9F79F01215131092817390701
S1133F6029F4BC0189E096E063CF089589E00895BF
S1133F70FC0101900020E9F79F0121513109281724
S1133F80390729F4BC0188E196E052CF089589E00D
S1133F900895FC0101900020E9F79F0121523109A5
S1133FA02817390729F4BC0187E296E041CF089528
S1133FB089E0089560E070E086E696E039CF0895E0
S1133FC00F931F93E82FF0E0EE0FFF1FE05CF74F15
S1133FD0608171818FE696E02BDF811114C008E2C5
S1133FE015E020E030E04DE250E063E87AE18091B2
S1133FF0FA199091FB190E942911882321F083E872
S11340009AE1A1DE03C083E89AE19DDE1F910F913E
S113401008950F931F93CF93DF931F92CDB7DEB70D
S1134020DB0111969C911197953108F0B4C0992346
S113403081F160E070E0272F30E0462F50E0FD0171
S1134040E40FF51F928192959F709A3010F0995C5D
S113405001C0905DF901EC5EF54E90832F5F3F4FF8
S1134060FD01E40FF51F92819F70492F50E04A3003
S1134070510514F0995C01C0905DF901EC5EF54EB8
S113408090837E5F6F5F11969C911197691798F2E8
S113409001C070E0E72FF0E0EC5EF54E10824C9129
S11340A0811103C088E796E002C08AE796E024E124
S11340B03AE13F932F931F924F939F938F938EE7F1
S11340C096E09F938F9386E59AE19F938F930E9446
S11340D0F22B60E070E086E59AE1AADE0FB6F89470
S11340E0DEBF0FBECDBF811159C008E215E020E04C
S11340F030E04DE250E063E87AE18091FA19909162
S1134100FB190E942911882309F447C083E89AE126
S11341101ADE8E3009F042C087E089838091F81955
S11341209091F919892BA9F1BE016F5F7F4F83E844
S11341309AE168D18093FE19E981F0E0ED57F54EDC
S1134140DF010D900020E9F71197AE1BBF0BAA23E6
S113415091F0BB27CD0101979C0112F42F5F3F4FD3
S1134160359527952093FF19AF014F5F5F4F64E1A9
S113417080E09AE173D101E010E020E030E046E114
S113418050E06EEF79E18091F8199091F9190E944D
S11341903E108EE003C084E101C080E00F90DF9107
S11341A0CF911F910F910895813019F06EE876E058
S11341B002C067E677E082E996E03ACE08959F93DD
S11341C08F9383EC96E09F938F9386E59AE19F9378
S11341D08F930E94F22B60E070E086E59AE128DE7E
S11341E00F900F900F900F900F900F9008952F92B3
S11341F03F924F925F926F927F928F929F92AF9273
S1134200BF92CF92DF92EF92FF920F931F93CF93BF
S1134210DF93CDB7DEB7A0970FB6F894DEBF0FBE1D
S1134220CDBF60EF76E08CEF96E033DD8CDD81115D
S1134230A3C080E2E3E2F2E0DE01119601900D9268
S11342408A95E1F79E012F5F3F4F6901E12CF12C24
S11342500F2EF8E0AF2EF7E0BF2EF02D06E51AE1A1
S11342600F2EF1E24F2EF7E05F2EF02D0F2EF8E324
S11342708F2EF7E09F2EF02D0F2EF2E56F2EF7E034
S11342807F2EF02D3E2C2F2CFF92EF92BF92AF92F7
S11342901F930F930E94F22B60E070E0C801F9DCD9
S11342A052DD0F900F900F900F900F900F9081118F
S11342B063C032E03E15E8F4F60183818F93828176
S11342C08F9381818F9380818F93FF92EF925F927E
S11342D04F921F930F930E94F22B60E070E0C8018D
S11342E0D8DC31DD0FB6F894DEBF0FBECDBF81112F
S11342F043C02F923F929F928F921F930F930E94DD
S1134300F22B60E070E0C801C4DC1DDD0F900F905B
S11343100F900F900F900F9081112EC02F923F920B
S11343207F926F921F930F930E94F22B60E070E0D4
S1134330C801AFDC08DD0F900F900F900F900F9025
S11343400F90811119C03FEFE31AF30A84E0C80EFD
S1134350D11C98E0E916F10409F094CF60E070E014
S11343608AE697E096DCEFDC811106C060E070E03D
S11343708BE797E08EDCE7DCA0960FB6F894DEBFFF
S11343800FBECDBFDF91CF911F910F91FF90EF90A2
S1134390DF90CF90BF90AF909F908F907F906F9061
S11343A05F904F903F902F900895EF92FF920F935C
S11343B01F93CF93DF93EC018B017A0181E0F4DE4C
S11343C081110DC0CE01D4DD811109C0C801E1DD28
S11343D0811105C0C701BBDD811101C0EBDDDF9197
S11343E0CF911F910F91FF90EF90089590E0FC0101
S11343F0EE0FFF1F8E0F9F1FFC01EC5BF74F8181B7
S113440092810895DC01009729F1FB012081FC01D0
S113441001900020E9F73197E81BF90B822F90E017
S1134420E817F907C8F080E008C0880F382F330F69
S1134430330F830F8053890F2F5FFD01E20FF11DAE
S1134440908130ED390F3A3010F49111EECFFB0129
S11344502083089580E0089580E008950F931F93CA
S1134460CF93DF93DC01EA012097E1F1FA01019097
S11344700020E9F73197E41BF50B329710F532C0B1
S11344808D01040F151F30E0AE01420F531FFA01D6
S11344909081913428F09753592F5295507F03C03F
S11344A0592F5295507F2C0F3D1FF9019181913462
S11344B010F0975301C09053950FF80190838F5FCC
S11344C001C080E0282F220F482F50E0FE01019008
S11344D00020E9F73197EC1BFD0B4E175F0710F432
S11344E08613CECFDF91CF911F910F910895FC01D8
S11344F080810895FC01208181E090E002C0880F52
S1134500991F6A95E2F782230895FC01808186232E
S11345100895FC0160830895FC0110820895FC0154
S1134520408121E030E002C0220F331F6A95E2F798
S1134530242B20830895FC012081622B608308953D
S1134540FC01408121E030E002C0220F331F6A9554
S1134550E2F7242720830895FC01208162276083E9
S11345600895FC01908121E030E002C0220F331F46
S11345706A95E2F72095292320830895FC01908110
S113458060956923608308952F923F924F925F92C2
S11345906F927F928F929F92AF92CF92EF92FF92FF
S11345A00F931F93CF93DF93CDB7DEB7F82E2A0175
S11345B03B0188E090E04FD78C018F2D90E0880F6D
S11345C0991FFC01E055F54E11830083FC01E45F63
S11345D0FD4F80819181D8018D939C936C2D70E067
S11345E084E090E01ED71C0161E070E086E090E07A
S11345F018D77C014C2DB101DFD4F801F582E48297
S11346006A2D70E084E090E00CD71C0161E070E05A
S113461086E090E006D77C014A2DB101CDD4D801C3
S11346201396FC92EE92129717969C928E9216977E
S1134630FFB6F894ED91FC911197369780818260D2
S113464080838D909C90C301B201D0D520E030E0EE
S113465040E051E459D69B01AC0160E074E284E788
S11346609BE42BD520E030E040E85FE3C1D492D551
S1134670F40132976083D801ED91FC91119735973D
S113468088E98083ED91FC91349786E08083FFBEB6
S1134690C801DF91CF911F910F91FF90EF90CF90C0
S11346A0AF909F908F907F906F905F904F903F90CE
S11346B02F900895CF93DF93EC01EA81FB819381DE
S11346C082812581981B922384819817A1F093817C
S11346D026952923A081B181A20FB11D6C939F5F00
S11346E0258192239383E881F981359780818062C3
S11346F0808380E001C082E0DF91CF910895EF9242
S1134700FF920F931F93CF93DF937C01DC011296EA
S1134710ED91FC91139793818281981B8581982355
S11347208481891B861798F1662341F1842F952F84
S1134730DC016150462F50E04F5F5F4F480F591F17
S1134740E701EA81FB81938182812581981B922371
S11347508481981779F08C9193812695292360811F
S113476071818B01020F111DE80188839F5F858190
S1134770982393831196A417B50711F7D701ED91E8
S1134780FC91359780818062808380E001C082E063
S1134790DF91CF911F910F91FF90EF900895DC016D
S11347A01496ED91FC91159793818281981789F065
S11347B09281858186958923A081B181A80FB11D3D
S11347C08C91DB018C939F5F85819823928380E099
S11347D0089583E008951F920F920FB60F9211244B
S11347E00BB60F922F933F934F935F936F937F93E7
S11347F08F939F93AF93BF93CF93DF93EF93FF93E5
S1134800A091B01AB091B11A109711F16091C6003D
S11348101496ED91FC911597938182812581981BC3
S113482092238481981761F0838126952823C0817F
S1134830D181C20FD11D68838F5F958189238383C2
S11348401696ED91FC911797309711F0CD011995BB
S1134850FF91EF91DF91CF91BF91AF919F918F9194
S11348607F916F915F914F913F912F910F900BBE6C
S11348700F900FBE0F901F9018951F920F920FB6B6
S11348800F9211240BB60F922F938F939F93AF9394
S1134890BF93EF93FF93E091B01AF091B11A309760
S11348A0B9F00280F381E02D938182819817B1F0F1
S11348B092818581282F26952923A081B181A20F79
S11348C0B11D2C919F5F892382832093C6000BC066
S11348D0E1ECF0E080818F7D808305C0E1ECF0E0C5
S11348E080818F7D8083FF91EF91BF91AF919F91E4
S11348F08F912F910F900BBE0F900FBE0F901F90B2
S113490018951F920F920FB60F9211240BB60F92A7
S11349102F933F934F935F936F937F938F939F93C3
S1134920AF93BF93CF93DF93EF93FF93A091B21A0A
S1134930B091B31A109711F16091CE001496ED91D5
S1134940FC911597938182812581981B9223848100
S1134950981761F0838126952823C081D181C20FE5
S1134960D11D68838F5F9581892383831696ED918A
S1134970FC911797309711F0CD011995FF91EF91A4
S1134980DF91CF91BF91AF919F918F917F916F9163
S11349905F914F913F912F910F900BBE0F900FBEDF
S11349A00F901F9018951F920F920FB60F9211241B
S11349B00BB60F922F938F939F93AF93BF93EF9365
S11349C0FF93E091B21AF091B31A3097B9F00280D4
S11349D0F381E02D938182819817B1F092818581D2
S11349E0282F26952923A081B181A20FB11D2C91D6
S11349F09F5F892382832093CE000BC0E9ECF0E013
S1134A0080818F7D808305C0E9ECF0E080818F7D1B
S1134A108083FF91EF91BF91AF919F918F912F91DF
S1134A200F900BBE0F900FBE0F901F9018951F9202
S1134A300F920FB60F9211240BB60F922F933F9340
S1134A404F935F936F937F938F939F93AF93BF9392
S1134A50CF93DF93EF93FF93A091B41AB091B51A5B
S1134A60109711F16091D6001496ED91FC91159771
S1134A70938182812581981B92238481981761F008
S1134A80838126952823C081D181C20FD11D6883DB
S1134A908F5F9581892383831696ED91FC911797F7
S1134AA0309711F0CD011995FF91EF91DF91CF91DE
S1134AB0BF91AF919F918F917F916F915F914F9132
S1134AC03F912F910F900BBE0F900FBE0F901F9030
S1134AD018951F920F920FB60F9211240BB60F92D6
S1134AE02F938F939F93AF93BF93EF93FF93E09193
S1134AF0B41AF091B51A3097B9F00280F381E02D21
S1134B00938182819817B1F092818581282F26950F
S1134B102923A081B181A20FB11D2C919F5F89230C
S1134B2082832093D6000BC0E1EDF0E080818F7D7D
S1134B30808305C0E1EDF0E080818F7D8083FF916B
S1134B40EF91BF91AF919F918F912F910F900BBED9
S1134B500F900FBE0F901F9018951F920F920FB6D3
S1134B600F9211240BB60F922F933F934F935F93A1
S1134B706F937F938F939F93AF93BF93CF93DF9361
S1134B80EF93FF93A091B61AB091B71A109711F151
S1134B90609136011496ED91FC9115979381828171
S1134BA02581981B92238481981761F0838126952F
S1134BB02823C081D181C20FD11D68838F5F958165
S1134BC0892383831696ED91FC911797309711F002
S1134BD0CD011995FF91EF91DF91CF91BF91AF91E5
S1134BE09F918F917F916F915F914F913F912F9101
S1134BF00F900BBE0F900FBE0F901F9018951F9231
S1134C000F920FB60F9211240BB60F922F938F931E
S1134C109F93AF93BF93EF93FF93E091B61AF091F4
S1134C20B71A3097B9F00280F381E02D9381828125
S1134C309817B1F092818581282F26952923A08188
S1134C40B181A20FB11D2C919F5F89238283209390
S1134C5036010BC0E1E3F1E080818F7D808305C0E4
S1134C60E1E3F1E080818F7D8083FF91EF91BF913B
S1134C70AF919F918F912F910F900BBE0F900FBE0C
S1134C800F901F901895CF93DF931F92CDB7DEB787
S1134C90BE016F5F7F4F8091B81A9091B91A7FDD82
S1134CA08111F6CF898190E00F90DF91CF91089523
S1134CB0682F8091B81A9091B91AFCDC80E090E0DA
S1134CC008958F929F92AF92CF92EF920F93812C7F
S1134CD0912C6894AA24A7F86894CC24C7F8E12CF2
S1134CE000E023E040E051EE60E070E04DDC9093A2
S1134CF0B91A8093B81AE1E0FBE184E192E0918370
S1134D008083938382830F91EF90CF90AF909F9095
S1134D108F9008958091C81A81110CC08CE0809303
S1134D20B8008FEF8093BB0084E08093BC0081E0E7
S1134D308093C81A0895AF92BF92CF92DF92EF92F8
S1134D40FF920F931F93CF93DF93A82EB62E690182
S1134D507A0184E090E07FD3EC01892B61F1A88291
S1134D6081E0B81212C0C701B60120EA36E841E07A
S1134D7050E02DD3DA01C9014097A109B109B695D4
S1134D80A79597958795898311C0C701B60120E837
S1134D903AE146E050E01BD3DA01C9014097A1098A
S1134DA0B109B695A7959795879589831B830A833F
S1134DB08C2F9D2F02C080E090E0DF91CF911F9156
S1134DC00F91FF90EF90DF90CF90BF90AF90089538
S1134DD08091BC00817008951F93CF93DF93009757
S1134DE029F16B3028F5162FEC01F2DF811122C076
S1134DF08091BB1A9091BC1AC817D90741F08ADF79
S1134E0089818093B800D093BC1AC093BB1A1093C5
S1134E10BD1A8881880F81608093BE1A88EF8093C1
S1134E20220285EA8093BC0085E005C086E003C0C9
S1134E3087E001C082E0DF91CF911F9108951F9216
S1134E400F920FB60F9211240BB60F922F933F932C
S1134E504F935F936F937F938F939F93AF93BF937E
S1134E60EF93FF93E091B9008E2F90E0FC01389707
S1134E70E135F10508F075C08827E458FF4F8F4FDE
S1134E80C8C21092BA1AE091BA1A8091BD1AE817F2
S1134E9070F481E08E0F8093BA1AF0E0E254F54E7C
S1134EA080818093BB0085E88093BC0072C084E954
S1134EB08093BC008091BB1A9091BC1ADC011296BD
S1134EC0ED91FC911397309709F463C020E040E022
S1134ED050E064E019955DC0E091BA1A81E08E0F4C
S1134EE08093BA1A8091BB00F0E0E254F54E8083BF
S1134EF08091B900803411F41092BA1A2091BA1A30
S1134F0030E08091BD1A90E001972817390724F406
S1134F1085EC8093BC003DC085E88093BC0039C01B
S1134F208091BB00E091BA1AF0E0E254F54E808320
S1134F3084E98093BC008091BB1A9091BC1ADC0177
S1134F401296ED91FC911397309719F12091BD1AA7
S1134F504EEB5AE165E019951CC085EA8093BC00CC
S1134F6018C08091B9008093220284E08093BC0031
S1134F708091BB1A9091BC1ADC011296ED91FC91C0
S1134F801397309731F020E040E050E06091220226
S1134F901995FF91EF91BF91AF919F918F917F915F
S1134FA06F915F914F913F912F910F900BBE0F9096
S1134FB00FBE0F901F901895FC01411101C06CD3D6
S1134FC0842F90E09C012150310982239323892B63
S1134FD009F062D3413808F05FD31282138244830C
S1134FE0440F415045837183608380E090E00895CD
S1134FF05058BB27AA270ED04DC13ED130F043D123
S113500020F031F49F3F11F41EF433C10EF4E09507
S1135010E7FB29C1E92F4FD180F3BA176207730761
S11350208407950718F071F49EF567C10EF4E095B6
S11350300B2EBA2FA02D0B01B90190010C01CA014E
S1135040A0011124FF27591B99F0593F50F4503EF9
S113505068F11A16F040A22F232F342F4427585FEB
S1135060F3CF469537952795A795F0405395C9F703
S11350707EF41F16BA0B620B730B840BBAF09150BB
S1135080A1F0FF0FBB1F661F771F881FC2F70EC05A
S1135090BA0F621F731F841F48F48795779567952D
S11350A0B795F7959E3F08F0B3CF9395880F08F016
S11350B09927EE0F9795879508950CD0EBC0E3D010
S11350C040F0DAD030F021F45F3F19F0CCC0511138
S11350D015C1CFC0F0D098F39923C9F35523B1F388
S11350E0951B550BBB27AA2762177307840738F053
S11350F09F5F5F4F220F331F441FAA1FA9F333D0B2
S11351000E2E3AF0E0E830D091505040E695001C65
S1135110CAF729D0FE2F27D0660F771F881FBB1F21
S1135120261737074807AB07B0E809F0BB0B802DFB
S1135130BF01FF2793585F4F2AF09E3F510568F047
S113514092C0DCC05F3FECF3983EDCF38695779524
S11351506795B795F7959F5FC9F7880F911D969549
S1135160879597F90895E1E0660F771F881FBB1FA5
S1135170621773078407BA0720F0621B730B840B52
S1135180BA0BEE1F88F7E095089504D06894B11126
S1135190B5C0089598D088F09F5790F0B92F9927FB
S11351A0B751A0F0D1F0660F771F881F991F1AF02E
S11351B0BA95C9F712C0B13081F09FD0B1E008951B
S11351C09CC0672F782F8827B85F39F0B93FCCF39C
S11351D0869577956795B395D9F73EF49095809524
S11351E0709561957F4F8F4F9F4F0895E89409C044
S11351F097FB3EF490958095709561957F4F8F4F06
S11352009F4F9923A9F0F92F96E9BB279395F6951B
S1135210879577956795B795F111F8CFFAF4BB0F99
S113522011F460FF1BC06F5F7F4F8F4F9F4F16C0FD
S1135230882311F096E911C0772321F09EE8872F87
S1135240762F05C0662371F096E8862F70E060E043
S11352502AF09A95660F771F881FDAF7880F9695BC
S1135260879597F9089597F99F6780E870E060E063
S113527008959FEF80EC089500240A9416161706EB
S113528018060906089500240A9412161306140633
S113529005060895092E0394000C11F4882352F096
S11352A0BB0F40F4BF2B11F460FF04C06F5F7F4F4E
S11352B08F4F9F4F089557FD9058440F551F59F035
S11352C05F3F71F04795880F97FB991F61F09F3FEF
S11352D079F087950895121613061406551FF2CF18
S11352E04695F1DF08C0161617061806991FF1CF68
S11352F086957105610508940895E894BB2766278F
S11353007727CB0197F908950BD0C4CFB5DF28F0E8
S1135310BADF18F0952309F0A6CFABCF1124EECF56
S1135320CADFA0F3959FD1F3950F50E0551F629FFC
S1135330F001729FBB27F00DB11D639FAA27F00DEA
S1135340B11DAA1F649F6627B00DA11D661F829F11
S11353502227B00DA11D621F739FB00DA11D621FF6
S1135360839FA00D611D221F749F3327A00D611D13
S1135370231F849F600D211D822F762F6A2F1124F5
S11353809F5750408AF0E1F088234AF0EE0FFF1F48
S1135390BB1F661F771F881F91505040A9F79E3F7F
S11353A0510570F060CFAACF5F3FECF3983EDCF379
S11353B0869577956795B795F795E7959F5FC1F7BC
S11353C0FE2B880F911D9695879597F90895A1E274
S11353D01A2EAA1BBB1BFD010DC0AA1FBB1FEE1F6B
S11353E0FF1FA217B307E407F50720F0A21BB30BB6
S11353F0E40BF50B661F771F881F991F1A9469F732
S113540060957095809590959B01AC01BD01CF018D
S11354100895EE0FFF1F881F8BBF0790F691E02DB4
S113542019940F931F93CF93DF93869F8001879FD7
S1135430100D969F100D1124C8010DD0EC0100979A
S113544021F0A80160E070E034D1CE01DF91CF916A
S11354501F910F9108950F931F93CF93DF93823081
S1135460910510F482E090E0E091FF1AF091001BA6
S113547020E030E0A0E0B0E0309719F140815181A4
S11354800281138148175907C8F08417950769F4F6
S1135490109731F012960C93129713961C9327C011
S11354A00093FF1A1093001B22C02115310519F037
S11354B04217530718F49A01BD01EF01DF01F80107
S11354C0DBCF21153105F9F0281B390B24303105C8
S11354D080F48A819B816115710521F0FB0193831E
S11354E0828304C09093001B8093FF1AFE013296BE
S11354F044C0FE01E20FF31F8193919322503109BE
S1135500398328833AC02091FD1A3091FE1A232B47
S113551041F420910202309103023093FE1A209349
S1135520FD1A20910002309101022115310541F448
S11355302DB73EB74091040250910502241B350B50
S1135540E091FD1AF091FE1AE217F307A0F42E1B66
S11355503F0B2817390778F0AC014E5F5F4F2417D3
S1135560350748F04E0F5F1F5093FE1A4093FD1A03
S11355708193919302C0E0E0F0E0CF01DF91CF91FD
S11355801F910F910895CF93DF93009709F481C081
S1135590FC01329713821282A091FF1AB091001B72
S11355A0109781F420813181820F931F2091FD1A7D
S11355B03091FE1A2817390751F5F093FE1AE0933B
S11355C0FD1A67C0ED0120E030E0CE17DF0740F49C
S11355D04A815B819E0141155105F1F0EA01F5CF45
S11355E0D383C28340815181840F951FC817D90783
S11355F059F488819981840F951F02969183808341
S11356008A819B81938382832115310529F4F09348
S1135610001BE093FF1A3DC0E901FB83EA83499133
S11356205991C40FD51FEC17FD0761F48081918156
S1135630840F951F0296E90199838883828193815F
S11356409B838A83E0E0F0E012968D919C911397FE
S1135650009719F0FD01DC01F7CF8D919C91119712
S11356609D012E5F3F4F820F931F2091FD1A3091B1
S1135670FE1A2817390769F4309729F41092001B91
S11356801092FF1A02C013821282B093FE1AA093E2
S1135690FD1ADF91CF91089581E090E0F8947DC3E5
S11356A0FB01DC0102C001900D9241505040D8F73B
S11356B00895DC0101C06D9341505040E0F7089516
S11356C0FB0151915523B1F0BF01DC01052E4D9131
S11356D0442369F010D0D9F7CD010190002049F09E
S11356E04D91411108D0C9F3FB014111EECF81E086
S11356F090E001970895402539F0403229F440297B
S11357004B57465E08F018940895FB01DC010D9098
S11357100020E9F7119701900D920020E1F7089518
S1135720FB01DC0101900D920020E1F70895FB01DB
S1135730DC014150504088F08D9181341CF08B3550
S11357400CF4805E619161341CF06B350CF4605E86
S1135750861B611171F3990B0895881BFCCFCF93BD
S1135760DF93CDB7DEB7AE014A5F5F4FFA016191B7
S11357707191AF018091031B9091041B61D0DF9163
S1135780CF9108950F931F93CF93DF93E091031B61
S1135790F091041B238121FF1BC08C01D0E0C0E0E9
S11357A0F80181918F016091031B7091041BDB014F
S11357B01896ED91FC911997882331F01995892B4E
S11357C079F3DFEFCFEFECCF8AE01995892B19F04D
S11357D08FEF9FEF02C08D2F9C2FDF91CF911F91F0
S11357E00F9108950F931F93CF93DF93CDB7DEB737
S11357F02E970FB6F894DEBF0FBECDBF0E891F895A
S113580086E08C831A8309838FEF9FE79E838D83C1
S1135810AE01465E5F4F688D798DCE01019610D042
S1135820EF81F885E00FF11F10822E960FB6F894E1
S1135830DEBF0FBECDBFDF91CF911F910F910895B1
S11358402F923F924F925F926F927F928F929F928C
S1135850AF92BF92CF92DF92EF92FF920F931F937A
S1135860CF93DF93CDB7DEB72B970FB6F894DEBF97
S11358700FBECDBF6C017B018A01FC011782168229
S1135880838181FFBFC1CE0101963C01F601938162
S1135890F70193FD859193FF81917F01882309F49A
S11358A0ADC1853239F493FD859193FF81917F01D8
S11358B0853221F4B60190E0D6D1E8CF912C212C89
S11358C0312CFFE1F315D8F08B3279F038F48032C3
S11358D079F08332A1F4232D20611DC08D3261F053
S11358E0803369F4232D216016C0832D8260382E05
S11358F0E32DE4603E2E2AC0F32DF8601DC037FC72
S11359002DC020ED280F2A3040F08E32B9F436FC39
S113591075C1232D2064322E19C036FE06C08AE0DC
S1135920989E200D1124922E11C0EAE02E9E200D87
S11359301124222EF32DF0623F2E08C08C3621F460
S1135940832D8068382E02C0883641F4F70193FD18
S1135950859193FF81917F018111B3CF982F9F7D12
S11359609554933028F40C5F1F4F9FE399830DC027
S1135970833631F0833771F0833509F055C020C088
S1135980F801808189830E5F1F4F88248394912CB2
S1135990530112C02801F2E04F0E511CF801A080FF
S11359A0B18036FE03C0692D70E002C06FEF7FEF57
S11359B0C5014ED14C018201F32DFF773F2E15C056
S11359C0280122E0420E511CF801A080B18036FE6D
S11359D003C0692D70E002C06FEF7FEFC5012DD1C8
S11359E04C01F32DF0683F2E820133FC19C0822D47
S11359F090E088169906A0F4B60180E290E033D1D5
S1135A002A94F5CFF50137FC859137FE81915F012A
S1135A10B60190E028D121102A9421E0821A91083D
S1135A208114910479F7E1C0843611F0893639F58F
S1135A30F80137FE07C060817181828193810C5F18
S1135A401F4F08C060817181072E000C880B990BD1
S1135A500E5F1F4FF32DFF763F2E97FF09C09095E1
S1135A608095709561957F4F8F4F9F4FF0683F2EC3
S1135A702AE030E0A30133D1882E861844C085374C
S1135A8031F4232D2F7EB22E2AE030E025C0932D51
S1135A90997FB92E8F36C1F018F4883579F0AEC0ED
S1135AA0803719F0883721F0A9C0E92FE061BE2EB4
S1135AB0B4FE0DC0FB2DF460BF2E09C034FE0AC035
S1135AC0292F2660B22E06C028E030E005C020E170
S1135AD030E002C020E132E0F801B7FE07C0608187
S1135AE07181828193810C5F1F4F06C06081718137
S1135AF080E090E00E5F1F4FA301F1D0882E86183E
S1135B00FB2DFF773F2E36FE0DC0232D2E7FA22EB8
S1135B10891458F434FE0BC032FC09C0832D8E7EE8
S1135B20A82E05C0B82CA32C03C0B82C01C0B92CD6
S1135B30A4FE0FC0FE01E80DF11D8081803321F425
S1135B409A2D997EA92E09C0A2FE06C0B394B394DF
S1135B5004C08A2D867809F0B394A3FC10C0A0FE7B
S1135B6006C0B21480F4280C922C9B180DC0B214F9
S1135B7058F4B60180E290E076D0B394F8CFB21432
S1135B8018F42B1802C0982C212CA4FE0FC0B601C7
S1135B9080E390E068D0A2FE16C0A1FC03C088E7B1
S1135BA090E002C088E590E0B6010CC08A2D8678AA
S1135BB051F0A1FE02C08BE201C080E2A7FC8DE29D
S1135BC0B60190E050D0891430F4B60180E390E03F
S1135BD04AD09A94F8CF8A94F301E80DF11D80819C
S1135BE0B60190E040D08110F6CF222009F44ECEC9
S1135BF0B60180E290E037D02A94F7CFF60186818F
S1135C00978102C08FEF9FEF2B960FB6F894DEBFFB
S1135C100FBECDBFDF91CF911F910F91FF90EF90F9
S1135C20DF90CF90BF90AF909F908F907F906F90B8
S1135C305F904F903F902F900895FC010590615024
S1135C4070400110D8F7809590958E0F9F1F08958E
S1135C50FC016150704001900110D8F78095909537
S1135C608E0F9F1F08950F931F93CF93DF93FB0114
S1135C70238121FD03C08FEF9FEF2CC022FF16C0AC
S1135C8046815781248135814217530744F4A0810A
S1135C90B1819D012F5F3F4F318320838C932681F7
S1135CA037812F5F3F4F3783268314C08B01EC016C
S1135CB0FB010084F185E02D1995892BE1F6D801CB
S1135CC016968D919C911797019617969C938E9397
S1135CD01697CE01DF91CF911F910F910895FA018C
S1135CE0AA27283051F1203181F1E8946F936E7F17
