S00F000053455034494F542E737265630D
S11300004FC200006EC200006CC200006AC2000051
S113001068C2000066C2000064C2000062C2000040
S113002060C200005EC200005CC200005AC2000050
S11300300C941D0C56C2000054C2000052C20000B1
S113004050C200004EC200004CC200004AC2000070
S113005048C2000046C2000044C2000042C2000080
S113006040C200000C9483260C94D5263AC20000AA
S113007038C2000036C2000034C2000032C20000A0
S113008030C200002EC200002CC200002AC20000B0
S11300900C9419270C946B2724C200000C94032A97
S11300A020C200001EC200001CC200001AC20000D0
S11300B018C2000016C2000014C2000012C20000E0
S11300C010C200000EC200000CC200000C94AF2746
S11300D00C94012806C200000C9445280C9497281F
S11300E000C20000C601C601C601000208021E02C9
S11300F0C601C60100020802252A952A952A952AD6
S1130100952A952A952A952A252A952A952A952A63
S1130110952A952A952A952A272A952A952A952A51
S1130120952A952A952A952A952A952A952A952AD3
S1130130952A952A952A952A272A952A952A952A31
S1130140952A952A952A952A952A952A952A952AB3
S1130150952A952A952A952A912A952A952A952AA7
S1130160952A952A952A952A5C2A952A952A952ACC
S1130170952A952A952A952A952A952A952A952A83
S1130180952A952A952A952A502A952A952A952AB8
S1130190952A952A952A952A742A07EE18E10F2E96
S11301A0F7E1EF2EF9E1FF2EF02D8091E618882378
S11301B029F10FB6F8940F92D8011796ED91FC919E
S11301C01897C085D185CE0102960E94820A80913B
S11301D0DA1881508093DA188091E6188150809360
S11301E0E6180F900FBE8B8D9C8D0E94DE09CE0108
S11301F00E94DE098091E6188111DBCFF70180812E
S1130200823010F00E94570B0E946F1CCECFCF9308
S1130210DF93CDB7DEB760970FB6F894DEBF0FBE9D
S1130220CDBFCE0101969A878987812C912CA12C70
S1130230B12C69847A84E0914F19F091501980812E
S1130240882309F413C10780F085E02D20803180D4
S1130250428053800E94B414CE0101960E94D91B9F
S11302606B877C878D879E878981811167C08B8589
S11302709C85AD85BE8582159305A405B50508F456
S113028045C00E949D15E0914F19F09150190780C7
S1130290F085E02DA085B185B88BAF87CD0102969E
S11302A00E94820AEF85F889878982FF21C04685EA
S11302B0578560897189420D531D641D751D720136
S11302C061010B851C852D853E85CF010E94E81AAE
S11302D0882399F0C82CD92CEA2CFB2C00E010E0E0
S11302E0A201910160E08F8598890E947B1B05C063
S11302F08E7FAF85B88957968C93AF85B88954960D
S1130300ED91FC915597CD011995A1C020E0B20162
S1130310A1018B859C85AD85BE85481B590B6A0B55
S11303207B0B80914B1990914C190E94B90F0E943C
S11303309D1581118CC00E94570B89C00E949D1588
S113034086C0898188230CF482C04E805F80D201EC
S11303501C968D919C911D97892B21F0C2010296C8
S11303600E94820ACE0108960E94D91B8B019C012F
S1130370E9810E2E000CFF0BEA30F10508F067C08E
S11303808827EE58FF4F8F4F0C94ED2CF20187898C
S11303908160878BCA80DB80EC80FD804685578531
S11303A0608971894C0D5D1D6E1D7F1DC2010E9407
S11303B0E81A882309F44BC0D2015496ED91FC91BC
S11303C05597C2011995F201878982FF40C04A817D
S11303D05B816C817D8186859785A089B1899A012D
S11303E0AB01280F391F4A1F5B1FC82CD92CEA2CDC
S11303F0FB2C00E010E060E0C2010E947B1B27C0E0
S1130400D20157968C9157978E7F57968C931FC025
S1130410F20187898160878B4A815B816C817D8150
S113042046875787608B718B400F511F621F731F64
S113043068017901C2010E94E81A09C0F2018789A2
S113044081FD03C0C201BAD702C08E7F878B282DDD
S1130450392D4A2D5B2D662D772D80914B19909166
S11304604C190E94550E81116CCFE5CE0E94B41434
S1130470CE0101960E94D91B6B877C878D879E874E
S1130480898181115BCFE0914D19F0914E198081E2
S113049021E0811120E0282C392C4A2C5B2C37CF09
S11304A011241FBECFEFD1E2DEBFCDBF00E00CBFF1
S11304B018E0A0E0B2E0E6E6F3E600E00BBF02C01D
S11304C007900D92A236B107D9F72BE1A2E6B8E066
S11304D001C01D92A330B207E1F70E94301D0C94B5
S11304E0B1318ECD2F923F924F925F926F927F9255
S11304F08F929F92AF92BF92CF92DF92EF92FF9230
S11305000F931F93CF93DF93882E962E1A01280101
S1130510390161E070E084E090E00E94F52CEC0188
S1130520009751F1FC011192119230926D082092C2
S11305306C08409268085092690860926A08709248
S11305406B08F0926708E0926608A0926208B09285
S11305506308C0926408D0926508492D50E07F0179
S1130560082D9C0162E872E081E393E00E94591334
S11305708CE892E00E94A62ECE01DF91CF911F91CC
S11305800F91FF90EF90DF90CF90BF90AF909F902E
S11305908F907F906F905F904F903F902F90089531
S11305A0CF92DF92EF92FF920F931F93CF93DF933B
S11305B0EC01409168085091690860916A08709153
S11305C06B08CC24CA94DC2C760101E021E08091F4
S11305D06C0890916D0893D4009168081091690893
S11305E020916A0830916B08DC01CB0180239123B0
S11305F0A223B323081719072A073B0749F50E94CA
S11306001C2582E090E021D68C010E944B25F82E17
S1130610882359F083E992E00E94A62E81E0F81223
S113062004C084EB92E00E94A62E198308838FEC09
S113063092E00E94A62E4091620850916308609156
S1130640640870916508809166089091670817D5D1
S1130650DF91CF911F910F91FF90EF90DF90CF909A
S11306600895EC0160E070E083E00E94EE24CE0186
S113067097DFFDCFFC0180819181089581E0809313
S11306807108109270080E94010E90936F08809375
S11306906E0808950F93CF93DF9320916E083091E5
S11306A06F0821153105B9F0EC014FEF5FEFBA0186
S11306B0C9010E94ED0E80917108888300E020E05A
S11306C030E0A90160E070E080916E0890916F08BD
S11306D00E94610D04C020917108FC012083DF9108
S11306E0CF910F91089561E070E088E090E00E945E
S11306F0F52C009739F0FC011382128215821482C2
S1130700118210820895009719F0FC0171836083AF
S11307100895009719F0FC01758364830895009788
S113072019F0FC01738362830895FC01DB011296C6
S11307302C91129713963C91139714968C911497BD
S113074015969C9141E0408344E0418332832383A6
S113075094838583CF0108952F923F924F925F92A5
S11307606F927F928F929F92AF92BF92CF92DF92BD
S1130770EF92FF920F931F93CF93DF9300D01F92BA
S1130780CDB7DEB7282E362E5C834B832801390182
S113079061E070E088E090E00E94F52C9A83898300
S11307A0009709F43EC0FC01918280828A8D9B8D62
S11307B09383828398DFE981FA81958384838B8193
S11307C09C8190939508809394084092900850924D
S11307D091086092920870929308F0928F08E092C8
S11307E08E08A0928A08B0928B08C0928C08D0928E
S11307F08D088C8D9D8D9093890880938808432D56
S113080050E07F0196E0E90EF11C022D9F0160EE9D
S113081072E08CE195E00E94591387EE92E00E9409
S1130820A62E89819A810F900F900F900F90DF91DF
S1130830CF911F910F91FF90EF90DF90CF90BF90D9
S1130840AF909F908F907F906F905F904F903F906C
S11308502F900895FC01848195815BCF0895FC015C
S113086082819381009711F0B6C108958FEF9FEFB5
S11308700895FC018481958146CF0895FC0180810F
S11308809181009711F0F6CE08958FEF9FEF0895B0
S1130890FC018481958143CF0895FC018281938179
S11308A0009711F09CC108958FEF9FEF0895AF92C8
S11308B0BF92CF92DF92EF92FF920F931F93CF9349
S11308C0DF93CDB7DEB766970FB6F894DEBF0FBEE1
S11308D0CDBF5C0181E090E0B8D48C01DBDEF8018F
S11308E08081882309F491C0409190085091910827
S11308F06091920870919308809194089091950862
S1130900BED381EF92E00E94A62E40918A085091B6
S11309108B0860918C0870918D08CC24CA94DC2CCF
S1130920760101E021E080918E0890918F08E7D252
S113093000918A0810918B0820918C0830918D08C1
S1130940DC01CB0180239123A223B32308171907C9
S11309502A073B0709F05FC0C50190DFBC01C50150
S113096088DFC5019ADFBC01C50192DFC50177DFCD
S1130970BC01C5016FDF85E093E00E94A62EC5018E
S11309807DDF9F938F9389E193E09F938F930E94E0
S1130990932EC50182DF9F938F9385E293E09F930B
S11309A08F930E94932EC5015ADF9F938F9389E3FF
S11309B093E09F938F930E94932EF5016481758138
S11309C0CE010196B2DE86E1FE013196A2E7B8E0DF
S11309D001900D928A95E1F768EE73E080E090E073
S11309E00E9419160FEF1FEF980146E150E062E7ED
S11309F078E080918808909189080E9429110FB6A7
S1130A00F894DEBF0FBECDBF06C068E873E180E096
S1130A1090E00E94191666960FB6F894DEBF0FBEDA
S1130A20CDBFDF91CF911F910F91FF90EF90DF9099
S1130A30CF90BF90AF900895EC01CE0138DFFDCF89
S1130A402F923F924F925F926F927F928F929F92DA
S1130A50AF92BF92CF92DF92EF92FF920F931F93C8
S1130A60CF93DF93882E962E1A012801390161E075
S1130A7070E086E090E00E94F52CEC01009771F1A3
S1130A80198218821B821A823092A1082092A0082F
S1130A9040929C0850929D0860929E0870929F0814
S1130AA0F0929B08E0929A08A0929608B092970858
S1130AB0C0929808D0929908492D50E07C0184E0B6
S1130AC0E80EF11C082D9E016AE473E087EE95E0C0
S1130AD00E9459138BE593E00E94A62ECE01DF916C
S1130AE0CF911F910F91FF90EF90DF90CF90BF9027
S1130AF0AF909F908F907F906F905F904F903F90BA
S1130B002F900895CF92DF92EF92FF920F931F934D
S1130B10CF93DF93EC0140919C0850919D08609124
S1130B209E0870919F08CC24CA94DC2C760101E0C5
S1130B3021E08091A0089091A108E1D100919C0846
S1130B4010919D0820919E0830919F08DC01CB01F3
S1130B5080239123A223B323081719072A073B07ED
S1130B6069F50E94B31D62E370E080E090E00E94AA
S1130B7019160E94C81D65E070E080E090E00E94B4
S1130B8019160E94B01D882361F00E94EE1D9983FE
S1130B9088830E94141E9B838A838AE793E00E94C1
S1130BA0A62E4091960850919708609198087091EC
S1130BB0990880919A0890919B0861D2DF91CF9116
S1130BC01F910F91FF90EF90DF90CF900895EC016B
S1130BD0CE0198DFFDCFFC01808191810895FC0155
S1130BE0828193810895EF92FF920F939B01E12CF0
S1130BF0F12C082F48E851E060EA73E08CE497E0B8
S1130C000E9459130F91FF90EF900895DF92EF9295
S1130C10FF920F931F93CF93DF937C018091A208DF
S1130C208111D0C081E00E94342162E070E080E054
S1130C3090E00E94191680E00E94342166E970E079
S1130C4080E090E00E9419160E94EA2081E00E9450
S1130C50421F0E9448210E94C5239F938F9389EAD3
S1130C6093E09F938F930E94932E0E94C6220E942A
S1130C70C5239F938F938CEB93E09F938F930E9454
S1130C80932E89EB98E00E945A210E94C523C9EB58
S1130C90D8E0DF93CF939F938F9385ED93E09F9359
S1130CA08F930E94932ECE010E9476210E94C52329
S1130CB09F938F93DF93CF9389EE93E09F938F93CA
S1130CC00E94932EAE016EEF73E08FE194E00E94D8
S1130CD0A4230E94C5239F938F93DF93CF938EEF1A
S1130CE093E09F938F938FE194E09F938F9380E39E
S1130CF094E09F938F930E94932E0E94A9210E94B7
S1130D00C5239F938F9386E694E09F938F930E94CD
S1130D10932E8DB79EB782960FB6F8949EBF0FBEE2
S1130D208DBF81E00E94A3220E94C5239F938F93CD
S1130D3085E794E09F938F930E94932E84EF91E034
S1130D400E94AE220E94C5239F938F9381E08F93CC
S1130D5084EF8F9386E994E09F938F930E94932E60
S1130D608DB79EB70A960FB6F8949EBF0FBE8DBF7F
S1130D70CAE0D0E006EB14E080E00E94AF21D82E58
S1130D800E94C5239F938F93DF93CF931F930F9359
S1130D900E94932E0F900F900F900F900F900F9032
S1130DA088E0D81609F462C080E00E94AE1F66E3B2
S1130DB071E080E090E00E9419162197E9F65DC089
S1130DC076D4FECF00E010E0980142E350E063EAFD
S1130DD078E0C7010E941612029708F440C083E02D
S1130DE00E94C01FC3EAD8E08A811F928F9386EDC8
S1130DF094E09F938F930E94932E8B811F928F93E5
S1130E0088EF94E09F938F930E94932E8C811F927E
S1130E108F938BE195E09F938F930E94932E8D8106
S1130E201F928F938AE395E09F938F930E94932E52
S1130E30BE0180E00E94D8210E94C5239F938F9316
S1130E408AE595E09F938F930E94932E8DB79EB76A
S1130E5044960FB6F8949EBF0FBE8DBF15C060EDCB
S1130E6077E080E090E00E9419160EC081E00E94B5
S1130E70901F81E08093A208A5CF81E00E949F1F6C
S1130E8080E00E94691F9CCFDF91CF911F910F9149
S1130E90FF90EF90DF900895EC01CE01B7DE68EB90
S1130EA07BE080E090E00E941916F7CFE7E0F1E0E4
S1130EB080818F6080830895E8E0F1E09081907FE5
S1130EC0908390818F70982B90830895E8E0F1E0EF
S1130ED08081807F80830895CF93DF9380E190E0C9
S1130EE0B4D1EC01009739F0FC01119211921192E6
S1130EF01192CF0194D2CE01DF91CF9108952F9218
S1130F003F924F925F926F927F928F929F92AF9295
S1130F10BF92CF92DF92EF92FF920F931F93CF93E2
S1130F20DF93EC014A015B01622E702E0E94B4141F
S1130F30288039804A805B8001110DC081E0B201B4
S1130F40A101482159216A217B21452B462B472B9E
S1130F5079F480E00DC081E0B201A101482159215A
S1130F606A217B21481559056A057B0509F080E053
S1130F70882381F0662009F46BC080949094A09437
S1130F80B09482209320A420B52088829982AA82DA
S1130F90BB825EC0C114D104E104F10409F458C059
S1130FA0662029F040E050E060E071E003C040E0DA
S1130FB050E0BA0171107460482959296A297B29C3
S1130FC097018601CE0104960E94C8160E949D15C1
S1130FD0811101C06CD30E940F1991FD35C00FB669
S1130FE0F8940F92688179818A819B8171100DC078
S1130FF021E075016401C622D722E822F922CD2816
S1131000CE28CF2879F420E00DC021E075016401D9
S1131010C622D722E822F922C814D904EA04FB0420
S113102009F020E0222371F0662061F0809490940E
S1131030A094B09486229722A822B9228882998209
S1131040AA82BB820F900FBE1B012C01552402C043
S11310500E949D15C201B101DF91CF911F910F91A3
S1131060FF90EF90DF90CF90BF90AF909F908F90C4
S11310707F906F905F904F903F902F9008954F9284
S11310805F926F927F928F929F92AF92BF92CF9214
S1131090DF92EF92FF920F931F93CF93DF93EC01B4
S11310A06A017B018C01095F1F4F0E94B414EB8518
S11310B0FC8588819981AA81BB81C82AD92AEA2A18
S11310C0FB2AC882D982EA82FB820E171F0709F421
S11310D045C0C12CD12C760199249394812CA480F1
S11310E0B58080819181A281B381AC01BD01772754
S11310F0B2FD0FC0488059806A807B80442255220B
S113110066227722292D45284628472889F4282D48
S11311100FC0488059806A807B8044225522662211
S11311207722292D441655066606770609F0282DE0
S1131130222371F0B0FF04C0C42AD52AE62AF72A74
S1131140488159816A817B817260CF010E944E1768
S1131150EA2DFB2D0E171F0711F603C0C12CD12C4D
S11311607601C094D094E094F09488819981AA8106
S1131170BB81C822D922EA22FB22C882D982EA8210
S1131180FB820E949D15688179818A819B81DF9110
S1131190CF911F910F91FF90EF90DF90CF90BF9070
S11311A0AF909F908F907F906F905F904F90089535
S11311B0CF93DF93DC01E5E2F9E001C0F90120817E
S11311C031812A173B07D0F382819381AF01480F05
S11311D0591FA417B50749F412964D915C911397C2
S11311E0840F951F93838283DF0112968D919C91C6
S11311F01397ED01C80FD91F2C173D07D9F420917F
S1131200230930912409C217D30781F02A813B8135
S1131210820F931F13969C938E931297C081D18152
S11312208881998111969C938E9307C01196DC93C3
S1131230CE9303C011963C932E93AE17BF0711F0C3
S1131240B183A083DF91CF910895CF92DF92EF9283
S1131250FF920F931F93CF93DF93EC010E94B4147A
S11312608091230990912409892B41F5E5E2F9E065
S1131270A9E2B9E0B183A08313821282E5ECF8E11C
S1131280F0932409E09323091382128211821082BD
S11312908CE99FE013969C938E931297ED93FC93A5
S11312A09093200980931F09909322098093210928
S11312B080E090E890931E0980931D09E0901D0939
S11312C0F0901E09C7018C239D23892B09F066C069
S11312D0209709F466C0AE014C5F5F4F09F45EC00D
S11312E000912109109122090417150708F456C02A
S11312F0C0912509D0912609E5E2F9E002C0FE017A
S1131300E9012A813B812417350728F42881398192
S113131021153105A1F78091230990912409C8175B
S1131320D907E1F1C080D18084E0C80ED11C888146
S11313309981918380832A813B81241B350B293039
S1131340310548F0CE01840F951FFC0133832283BD
S11313505B834A832DDF8A819B81081B190B1093C1
S113136022090093210920911F09309120090217B5
S1131370130720F41093200900931F09E82AF92A7F
S1131380FB82EA82198218820E949D15C114D1043D
S113139059F40E94701CC12CD12C06C00E949D15CA
S11313A0F8CF0E949D15F5CFC601DF91CF911F9113
S11313B00F91FF90EF90DF90CF900895CF93DF933C
S11313C0009751F1FC0134972281338140911D092A
S11313D050911E09B90164237523672BE9F06081DC
S11313E07181672BC9F4EF0140955095242335236F
S11313F0338322830E94B41420912109309122095D
S11314008A819B81820F931F9093220980932109E3
S1131410CE01CEDE0E949D15DF91CF910895FC018F
S11314200396928381834FEF5FEFBA014383548322
S11314306583768390878783928781871082089556
S1131440FC01138612860895CF93DF939C01FB0160
S1131450DC011196CD91DC911297D583C4838E81E2
S11314609F81978386838E819F81DC0115967C936F
S11314706E9314977F836E8333872287F90180816B
S11314808F5F8083DF91CF9108950F931F93CF9344
S1131490DF93EB01088119812A813B810F3F4FEFD4
S11314A014072407340721F4FC01A185B28511C077
S11314B0DC01139601C0DF011496ED91FC911597A0
S11314C0408151816281738104171507260737070C
S11314D090F71496ED91FC911597FD83EC83D783D7
S11314E0C683BF83AE831596DC93CE9314979B87F4
S11314F08A87FC0120812F5F2083DF91CF911F9188
S11315000F910895CF93DF93FC01A285B385C48125
S1131510D581868197819F838E83C681D78184817B
S113152095819D838C8311968D919C911297E817D8
S1131530F90731F48681978112969C938E931197C3
S1131540138612868C9181508C938C91DF91CF916C
S1131550089531E1FC013083319722E220833197F1
S1131560A3E3A0833197608331977083319710820E
S113157031971082319760E86083319710823197F8
S1131580108231971082319762E06083319763E073
S11315906083319764E06083319765E060833197BD
S11315A066E06083319767E06083319768E0608329
S11315B0319769E06083319760E1608331973083CC
S11315C0319732E13083319733E13083319734E11D
S11315D03083319735E13083319736E13083319769
S11315E037E13083319738E13083319739E1308303
S11315F0319730E23083319731E230833197208361
S1131600319723E220833197408331975083319778
S113161026E22083319727E22083319728E2208332
S1131620319729E22083319720E32083319721E306
S1131630208389970895A89590EC88E10FB6F894D3
S1131640A895809360000FBE90936000A091431909
S1131650B0914419CD91CDBFDD91DEBFFF91EF91E3
S1131660DF91CF91BF91AF919F918F917F916F91B6
S11316705F914F913F912F911F910F91FF90EF90A8
S1131680DF90CF90BF90AF909F908F907F906F909E
S11316905F904F903F902F901F900F900CBE0F9033
S11316A00BBE0F900FBE0F90089581E008950F9226
S11316B00FB6F8940F920BB60F920CB60F921F92BE
S11316C011242F923F924F925F926F927F928F924A
S11316D09F92AF92BF92CF92DF92EF92FF920F93BD
S11316E01F932F933F934F935F936F937F938F93A6
S11316F09F93AF93BF93CF93DF93EF93FF93A09107
S11317004319B09144190DB60D920EB60D920E9474
S11317103216A0914319B0914419CD91CDBFDD91FA
S1131720DEBFFF91EF91DF91CF91BF91AF919F9178
S11317308F917F916F915F914F913F912F911F9165
S11317400F91FF90EF90DF90CF90BF90AF909F905C
S11317508F907F906F905F904F903F902F901F904D
S11317600F900CBE0F900BBE0F900FBE0F900895FC
S11317700F920FB6F8940F920BB60F920CB60F920D
S11317801F9211242F923F924F925F926F927F92F9
S11317908F929F92AF92BF92CF92DF92EF92FF927D
S11317A00F931F932F933F934F935F936F937F9365
S11317B08F939F93AF93BF93CF93DF93EF93FF9355
S11317C0A0914319B09144190DB60D920EB60D9225
S11317D013BE0E94C81481110E943216A0914319AD
S11317E0B0914419CD91CDBFDD91DEBFFF91EF9152
S11317F0DF91CF91BF91AF919F918F917F916F9125
S11318005F914F913F912F911F910F91FF90EF9016
S1131810DF90CF90BF90AF909F908F907F906F900C
S11318205F904F903F902F901F900F900CBE0F90A1
S11318300BBE0F900FBE0F9008959ADF18950FB648
S1131840F8940F92FC01968D0F900FBE81E09111D8
S113185080E008950F931F93CF93DF93EC01042F3F
S11318601E8D48A141110CC088819981892B09F0F2
S113187042C08C819D810E9483181D821C8242C0BB
S1131880011117C050E08A819B810E94342E28A147
S11318908A819B81820F911D9B838A832C813D8148
S11318A08217930750F1888199819B838A8380E012
S11318B029C050E08E819F810E94342E88A190E03F
S11318C09195819591092E813F81280F391F3F837E
S11318D02E83488159812417350730F42C813D81AA
S11318E0820F931F9F838E83023049F4112349F0A2
S11318F0115080E007C080E005C080E003C080E0B4
S113190001C080E01F5F1E8FDF91CF911F910F9167
S11319100895FC0140A14423A9F050E026813781B9
S1131920240F351F3783268384819581281739072F
S113193020F08081918197838683CB0166817781B2
S11319400C94342E0895EF92FF920F931F93CF932C
S11319508C010FB6F8940F92FC01C2A11C16ACF4D2
S11319608389811106C011C0F8018389811105C0E2
S11319700CC07801F3E1EF0EF11CC7010E940C17B3
S113198081110E94FE17C15079F78FEFF80182A3ED
S11319900F900FBE0FB6F8940F92C1A11C16ACF4B1
S11319A08085811106C011C0F8018085811105C0B0
S11319B00CC07801F8E0EF0EF11CC7010E940C176F
S11319C081110E94FE17C15079F78FEFF80181A3AE
S11319D00F900FBECF911F910F91FF90EF9008953C
S11319E0CF93DF93EC010FB6F8940F92E881F9815D
S11319F08F8D28A190E030E0829FA001839F500D3D
S1131A00929F500D11244E0F5F1F5D834C831E8ED9
S1131A10FB83EA830197829FA001839F500D929FCD
S1131A20500D1124CF01840F951F9F838E838FEF58
S1131A3089A38AA361110BC08885882371F0CE0124
S1131A4008960E940C17882341F031DE06C0CE01AF
S1131A500896E5DCCE014396E2DC0F900FBE81E0F0
S1131A60DF91CF910895FF920F931F93CF93DF934C
S1131A70082F162FF42E6623B9F0869FC001112477
S1131A808596E3DBEC01009741F414C00F8F18A393
S1131A9061E0CE01A5DFFCA20DC085969983888301
S1131AA0F5CFD983C883F2CF85E290E0CEDBEC0199
S1131AB0892BB9F7CE01DF91CF911F910F91FF9040
S1131AC008959F92AF92BF92CF92DF92EF92FF92CE
S1131AD00F931F93CF93DF93CDB7DEB729970FB63C
S1131AE0F894DEBF0FBECDBF7C015B012E833F8324
S1131AF04887598710E0992493946C0188E0C80EB4
S1131B00D11C0FB6F8940F92F701968D878D981714
S1131B1010F00230B1F4402FB501C7019BDEF7018C
S1131B209389992341F0C70143960E940C17882397
S1131B3021F0BDDD02C08111BADD0F900FBE81E03E
S1131B404EC08E819F81A885B985892B8A2B8B2BCA
S1131B5021F40F900FBE80E042C0111105C0CE01E8
S1131B6001960E949817192D0F900FBEFDD60FB63F
S1131B70F8940F92F70181A18F3F09F411A2F701A4
S1131B8082A18F3F09F412A20F900FBEBE016A5FBB
S1131B907F4FCE0101960E94A91781111CC00FB678
S1131BA0F8940F92F701968D878D0F900FBE9813BE
S1131BB00EC04E815F8168857985C6010E94B11689
S1131BC0C701C1DEBAD781119CCF71DD9ACFC7019D
S1131BD0BADEB3D796CFC701B6DEAFD780E0299679
S1131BE00FB6F894DEBF0FBECDBFDF91CF911F912A
S1131BF00F91FF90EF90DF90CF90BF90AF909F90A8
S1131C0008950F93CF93DF93482F60E081E02BDF9B
S1131C10EC01009761F01D821C82198218821E82D9
S1131C2000E020E030E0A90160E070E04ADFCE018E
S1131C30DF91CF910F910895EF92FF920F931F932D
S1131C40CF93DF938A01FC01568D378D531710F023
S1131C502230E9F4422F7801EC011AA1FBDD1F3F89
S1131C6081F48B898823A9F0CE0143960E940C1736
S1131C70882389F0E114F10481F081E0F701808385
S1131C800DC0FF24F394F10EFAA281E007C080E0B6
S1131C9005C081E003C081E001C081E0DF91CF9104
S1131CA01F910F91FF90EF9008959F92AF92BF9272
S1131CB0CF92DF92EF92FF920F931F93CF93DF9314
S1131CC0CDB7DEB729970FB6F894DEBF0FBECDBFF0
S1131CD08C015B012E833F8348875987E12C99242B
S1131CE093946C0183E1C80ED11C0FB6F8940F9243
S1131CF0F801F68CFF2099F0B501C8010ADEFA94C8
S1131D00F801F68E8085882331F0C80108960E9478
S1131D100C178111CCDC0F900FBE81E04CC08E817A
S1131D209F81A885B985892B8A2B8B2B21F40F9051
S1131D300FBE80E040C0E11005C0CE0101960E94B4
S1131D409817E92C0F900FBE0FD60FB6F8940F9288
S1131D50F80181A18F3F09F411A2F80182A18F3FFC
S1131D6009F412A20F900FBEBE016A5F7F4FCE012D
S1131D7001960E94A917811115C0C80160DD88234E
S1131D8069F04E815F8168857985C601EAD7C8010B
S1131D90DADDD3D68111A9CF8ADCA7CFC801D3DD80
S1131DA0CCD6A3CFC801CFDDC8D6C80148DD88236F
S1131DB009F49BCF80E029960FB6F894DEBF0FBEDE
S1131DC0CDBFDF91CF911F910F91FF90EF90DF90E6
S1131DD0CF90BF90AF909F900895BF92CF92DF9223
S1131DE0EF92FF920F931F93CF93DF93CDB7DEB79C
S1131DF029970FB6F894DEBF0FBECDBF8C014E837A
S1131E005F8368877987B12CD12CCC24C3947C015F
S1131E1083E1E80EF11C0FB6F8940F92D8015E9698
S1131E208C915E978823D9F081505E968C935E974F
S1131E308D919C91892B29F40E943719F80195837F
S1131E408483D80118968C91882329F0C8010896B8
S1131E50E3D781112CDC0F900FBE81E07AC08E8114
S1131E609F81A885B985892B8A2B8B2B21F40F9010
S1131E700FBE80E06EC0D11005C0CE0101960E9455
S1131E809817DC2C0F900FBE6FD50FB6F8940F92F5
S1131E90F80181A18F3F09F411A2D80192968C9187
S1131EA092978F3F11F492961C920F900FBEBE0131
S1131EB06A5F7F4FCE0101960E94A917811124C049
S1131EC0C801BDDC8823E1F0F80180819181892B70
S1131ED051F40FB6F8940F92848195810E941518DD
S1131EE0B82E0F900FBE4E815F8168857985C7013A
S1131EF038D7C80128DD21D681118DCFD8DB8BCF0F
S1131F00C80121DD1AD687CFC8011DDD16D6C80148
S1131F1096DC882309F47FCFBB20D1F00FB6F89468
S1131F200F92F8018389882339F0028CF38DE02D18
S1131F30808164E0681B01C060E0D80114968D9133
S1131F409C9115970E94C3180F900FBE80E001C0AA
S1131F5080E029960FB6F894DEBF0FBECDBFDF91A7
S1131F60CF911F910F91FF90EF90DF90CF90BF9092
S1131F700895CF93DF93EC010FB6F8940F9289A1E3
S1131F808F3F09F419A28AA18F3F09F41AA20F9076
S1131F900FBE8E8D811103C0CE0143961DD7CE0195
S1131FA0D2DCDF91CF910895FC01448155812281D7
S1131FB03381240F351F80819181B901681B790B0E
S1131FC0CB016417750710F0841B950B0895AF922D
S1131FD0BF92CF92DF92EF92FF920F931F93CF9312
S1131FE0DF936C015B017A01FC01C281D38104811E
S1131FF015810C1B1D0B4017510708F48A01F601CB
S113200084859585A801B5018C0F9D1F0E94342EEF
S11320100E151F0558F4A701401B510BB501600FA5
S1132020711FF601848595850E94342ECE018E0D94
S11320309F1DF601248135818217930710F0821BBE
S1132040930BF60193838283C701DF91CF911F9194
S11320500F91FF90EF90DF90CF90BF90AF900895D5
S1132060CF92DF92EF92FF920F931F93CF93DF9360
S11320701F921F92CDB7DEB75A83498321153105CC
S1132080C9F06B017C01FC01868580FD08C0CA0192
S11320902417350708F4C9019A83898311C02017CE
S11320A0310758F042E050E0BE016F5F7F4FC70137
S11320B08EDF06C080E090E008C080E090E005C0BC
S11320C049815A81B601C70182DF0F900F90DF91D9
S11320D0CF911F910F91FF90EF90DF90CF900895D3
S11320E0AF92BF92CF92DF92EF92FF920F931F9322
S11320F0CF93DF937C015B01E9014217530708F496
S1132100EA01209779F1F70100811181C480D5801B
S1132110C01AD10ACC15DD0508F46E01F7016485F7
S11321207585600F711FA601C5010E94342ECC165F
S1132130DD0658F4AE014C195D09F7016485758517
S1132140C5018C0D9D1D0E94342E0C0F1D1FF7011F
S1132150848195810817190710F0081B190BF701E2
S113216011830083CE01DF91CF911F910F91FF90D6
S1132170EF90DF90CF90BF90AF900895EF92FF92D1
S11321801F93CF93DF93EB0111E0413009F010E08E
S1132190209711F4C1E0D0E07C012FEFE21AF20A9B
S11321A0419653D8009781F020E1FC0111922A95C1
S11321B0E9F79C01205F3F4FFC0135872487F582B6
S11321C0E482D783C6831687DF91CF911F91FF9056
S11321D0EF900895CF93DF93FC0127850FB6F89411
S11321E00F9280859185892BD1F482859385892BE3
S11321F0C1F486854681578164817581A485B5853E
S113220090E1EF0119929A95E9F7B587A487758350
S11322106483578346838687278781E003C080E0F1
S113222001C080E00F900FBEDF91CF910895FC01B3
S1132230248135818081918142815381820F931F52
S11322400197841B950B8217930710F0821B930B45
S113225008952F923F924F925F926F927F928F9246
S11322609F92AF92BF92CF92DF92EF92FF920F9321
S11322701F93CF93DF93CDB7DEB729970FB6F894AA
S1132280DEBF0FBECDBF5C011B012A010E831F837D
S113229028873987FC01868580FF05C03A01F2E072
S11322A06F0E711C01C03A018E819F81A885B9858A
S11322B0892B8A2B8B2B09F434C0CE01019622D6AC
S11322C00FB6F8940F92C501B2DF4C01861597053D
S11322D018F580E090E00E94D41A94D6F501938713
S11322E082870F900FBECE80DF80E884F98400E0FF
S11322F010E020E030E0A90160E070E0CB01C9D734
S1132300F50113861286BE016A5F7F4FCE010196E6
S113231020D68823A9F202C00F900FBE8114910425
S113232019F4C50184DF4C0183019401A201B101B8
S1132330C50196DE7C01892BE1F0C50135DEF5018E
S11323402681378182179307A0F00ED3F50180858B
S11323509185892B69F08085918500E010E020E06B
S113236040E050E0BA010E94D319F50111861086AD
S1132370E4D3C70129960FB6F894DEBF0FBECDBFD4
S1132380DF91CF911F910F91FF90EF90DF90CF904D
S1132390BF90AF909F908F907F906F905F904F9081
S11323A03F902F900895AF92BF92CF92DF92EF9219
S11323B0FF920F931F93CF93DF93EC015B016A01AC
S11323C079018E8580FF04C08A010E5F1F4F01C012
S11323D08A01CE012CDF9C01A601B501CE0140DEAD
S11323E06C01892BB9F0CE01DFDD2E813F8182178C
S11323F0930780F088859985892B61F08885998574
S113240000E010E020E040E050E0BA010E944B1AE6
S113241019861886C601DF91CF911F910F91FF9005
S1132420EF90DF90CF90BF90AF9008954F925F925E
S11324306F927F928F929F92AF92BF92CF92DF92D0
S1132440EF92FF920F931F93CF93DF931F921F92EC
S1132450CDB7DEB75C012B013A0168017901FC01BB
S1132460868580FD03C0812C912C04C06894882447
S113247081F8912CC114D104E104F10431F10FB6B7
S1132480F8940F92C50190DD8C018816990640F0EE
S113249080E090E00E94D41AB5D5F5019187808739
S11324A00F900FBE80169106B0F000E010E020E01F
S11324B030E0A90160E070E0CB01EBD6F5011186B4
S11324C01086C50171DD8C0103C0C5016DDD8C0171
S11324D080169106B8F581149104C1F0F501E080ED
S11324E0F1809801A401BE016F5F7F4FC501F8DD43
S11324F089819A81081919096816790630F4F50159
S1132500F182E082612C712C01C03C019801A3018D
S1132510B201C501E5DD7C01892BB1F025D2F501BD
S113252082859385892B61F08285938500E010E094
S113253020E040E050E0BA0136D7F5011386128658
S1132540FCD202C0E12CF12CC7010F900F90DF9157
S1132550CF911F910F91FF90EF90DF90CF90BF909C
S1132560AF909F908F907F906F905F904F90089561
S1132570E091FF18F0910019808181110CC08FEF58
S11325809FEFDC018093CC189093CD18A093CE18C4
S1132590B093CF180895E091FF18F09100190780C7
S11325A0F085E02D0084F185E02D82819381A48162
S11325B0B5818093CC189093CD18A093CE18B09386
S11325C0CF1808958F929F92AF92BF92CF92DF92CD
S11325D0EF92FF92CF936B017C01C42F8090D618A9
S11325E09090D718A090D818B090D918809143191A
S11325F09091441902960E94820A8FEFC816D80659
S1132600E806F80669F4CC2359F0609143197091F7
S113261044196E5F7F4F8BED98E10E94240A3FC0FE
S1132620C80CD91CEA1CFB1CE0914319F091441915
S1132630C282D382E482F582C814D904EA04FB047A
S113264068F460914319709144198091FD18909138
S1132650FE186E5F7F4F0E94450A21C060914319A6
S1132660709144198091FF18909100196E5F7F4F0B
S11326700E94450A8091CC189091CD18A091CE1853
S1132680B091CF18C816D906EA06FB0640F4C092EA
S1132690CC18D092CD18E092CE18F092CF18CF91EA
S11326A0FF90EF90DF90CF90BF90AF909F908F906E
S11326B008954F925F926F927F928F929F92AF9202
S11326C0BF92CF92DF92EF92FF920F93CF93DF935B
S11326D04C016B015A012901CA010E9425093C01E0
S11326E0892B09F4F4C080E390E00E942509EC01F1
S11326F0892B99F07C8E6B8EA50165EA70E0C3018D
S11327000E943D2E21E0A21AB1088B8D9C8DA80E4B
S1132710B91EC114D10429F420C0C3010E94DE09EA
S1132720D6C0D6018C918D8F8C918823A1F0AE01F7
S1132730425E5F4FF6013196B8E0CB0ED11CCF015B
S11327402191DA012D93AD01DC018C91882319F0DC
S1132750EC15FD05A1F71CA201C01D8E043008F084
S113276003E00A8F0FA318A66E01B2E0CB0ED11CB2
S1132770C6010E94200ACE010E960E94200ADB8721
S1132780CA8784E090E0A0E0B0E0801B9109A10931
S1132790B1098E879F87A88BB98BDF8BCE8B1AA646
S11327A019A61BA61CA61DA61EA61FA6A201B4013F
S11327B0C5010E94A90A99838883E114F10419F0E0
S11327C0F701D183C0830FB6F8940F928091DA1881
S11327D08F5F8093DA188091431990914419892B63
S11327E0D1F5D0934419C09343198091DA188130FC
S11327F009F041C087E199E10E940F0A82E299E160
S11328000E940F0A8DE299E10E940F0A88E399E180
S11328100E940F0A8CE099E10E940F0A81E099E17D
S11328200E940F0A82EF98E10E940F0A87EE98E156
S11328300E940F0A8BED98E10E940F0A8CE099E147
S1132840909300198093FF1881E099E19093FE180A
S11328508093FD1810C08091D41881110CC0E091B0
S11328604319F0914419928D8A8D891720F0D093E1
S11328704419C09343198091D0188F5F8093D01866
S11328808DA38A8D9091D518981710F48093D5183C
S1132890FBE08F9FC0011124B601895E964E0E9411
S11328A0240A0F900FBE8091D418882361F0E09120
S11328B04319F0914419928D8A8D981730F40E942F
S11328C0570B81E005C081E003C081E001C08FEFB8
S11328D0DF91CF910F91FF90EF90DF90CF90BF9059
S11328E0AF909F908F907F906F905F904F900895DE
S11328F0EF92FF920F930F2EFAECEF2EF8E1FF2EDA
S1132900F02D00E020E030E040EC50E06FE675E0B0
S11329108DEC90E0CEDE813019F5CCD6813001F516
S1132920F8948FEF9FEFDC018093CC189093CD182F
S1132930A093CE18B093CF1881E08093D41810924E
S1132940D6181092D7181092D8181092D918E0916E
S11329504319F091441981A50E945C070E941B0B46
S11329600F91FF90EF9008958091C9188F5F809325
S1132970C91808950FB6F8940F926091D618709103
S1132980D7188091D8189091D9180F900FBE089538
S11329909F92AF92BF92CF92DF92EF92FF920F93EA
S11329A01F93CF93DF938091C9188111ADC0C0905C
S11329B0D618D090D718E090D818F090D9188FEF87
S11329C0C81AD80AE80AF80AC092D618D092D718BA
S11329D0E092D818F092D918C114D104E104F1049A
S11329E0B1F48091FF18909100192091FD18309155
S11329F0FE18309300192093FF189093FE188093CB
S1132A00FD188091D1188F5F8093D118B1DD80912A
S1132A10CC189091CD18A091CE18B091CF18C816AB
S1132A20D906EA06FB0610F4B12C5DC0B12C0F2EBA
S1132A30FBE0AF2EF02D99249394E091FF18F091D0
S1132A400019808181110CC08FEF9FEFDC0180930E
S1132A50CC189093CD18A093CE18B093CF1843C040
S1132A60E091FF18F09100190780F085E02DC085F2
S1132A70D1858A819B81AC81BD81C816D906EA06BD
S1132A80FB0648F48093CC189093CD18A093CE18ED
S1132A90B093CF1828C08E010E5F1F4FC8010E944B
S1132AA0820A888D998D892B21F0CE010E960E9481
S1132AB0820A8A8D9091D518981710F48093D518AE
S1132AC0A89EC0011124B801895E964E0E94240A72
S1132AD0E0914319F09144199A8D828D981708F466
S1132AE0ACCFB92CAACFE0914319F0914419E28DEF
S1132AF08BE0E89FF0011124E95EF64E808182307C
S1132B0048F0BB24B39406C08091D3188F5F8093A0
S1132B10D318B12C8091D218882311F0BB24B3941C
S1132B208B2DDF91CF911F910F91FF90EF90DF904C
S1132B30CF90BF90AF909F900895CF92DF92EF9285
S1132B40FF920F931F93CF93DF930FB6F8940F92D6
S1132B508091C91881508093C9188091C918811136
S1132B605AC08091DA1881112CC058C0D701179629
S1132B70ED91FC911897C085D185CE010E960E94E7
S1132B80820A8E010E5F1F4FC8010E94820A8A8D3D
S1132B909091D518981710F48093D518D89EC00139
S1132BA01124B801895E964E0E94240AE0914319CB
S1132BB0F09144199A8D828D981788F0C092D2189A
S1132BC00EC0C0E0D0E00F2EF2EFEF2EF8E1FF2EA2
S1132BD0F02D0F2EFBE0DF2EF02DCC24C394F70153
S1132BE080818111C3CFCD2B09F0C2DCC091D318F1
S1132BF0CC2349F0D1E0CCDE8111D093D218C1505E
S1132C00D1F71092D3188091D218882331F00E9402
S1132C10570B81E003C080E001C080E00F900FBE3D
S1132C20DF91CF911F910F91FF90EF90DF90CF90A4
S1132C300895CF92DF92EF92FF926B017C01672B94
S1132C40682B692B41F090DE40E0C701B601BADC85
S1132C5074DF811102C00E94570BFF90EF90DF9048
S1132C60CF9008958091C918882321F081E0809342
S1132C70D21808951092D218E0914319F091441992
S1132C8081A50E946607A0914319B0914419E0916F
S1132C904319F09144192D913C91838D948D8217A1
S1132CA0930758F060914319709144198091431926
S1132CB090914419635E7F4F20D68091D518282FB8
S1132CC030E09BE0899FF0011124E95EF64E90818B
S1132CD091110EC04BE08150282F30E0429FF0014B
S1132CE0439FF00D1124E95EF64E9081992399F3E8
S1132CF09BE0929FA001939F500D1124DA01A95EDD
S1132D00B64E1196ED91FC9112970480F581E02D59
S1132D101296FC93EE931197465E564EE417F50710
S1132D2029F444815581FD01528341839BE0929FA4
S1132D30F001939FF00D1124E95EF64E0180F281BB
S1132D40E02D2085318530934419209343198093D5
S1132D50D518E0914319F091441981A50C945C07AE
S1132D600895CF92DF92EF92FF926A017B01609106
S1132D70431970914419625F7F4F0E94450A41E0F4
S1132D80C701B6011FDCFF90EF90DF90CF9008954C
S1132D90CF92DF92EF92FF920F931F936801790114
S1132DA0E0914319F0914419706846875787608B06
S1132DB0718B6091431970914419625F7F4F0E9437
S1132DC0240A41E0C701B601FDDB1F910F91FF907A
S1132DD0EF90DF90CF900895CF92DF92EF92FF9221
S1132DE0CF936A017B01C22F6091431970914419FA
S1132DF0625F7F4F0E94240ACC2321F0CC24CA9422
S1132E00DC2C76014C2FC701B601DCDBCF91FF909F
S1132E10EF90DF90CF9008950F931F93CF93DF939C
S1132E20DC011796ED91FC911897C085D1858E0130
S1132E30025F1F4FC8010E94820A8091C918811144
S1132E4016C00C501109C8010E94820A8A8D909103
S1132E50D518981710F48093D518BBE08B9FC00148
S1132E601124B801895E964E0E94240A05C0B80157
S1132E7082EF98E10E94240AE0914319F0914419E9
S1132E809A8D828D891720F481E08093D21801C035
S1132E9080E0DF91CF911F910F9108950F931F93BD
S1132EA0CF93DF937068FC01408351836283738303
S1132EB0C085D1850E94820A8E010E5F1F4FC80112
S1132EC00E94820A8A8D9091D518981710F48093E5
S1132ED0D518FBE08F9FC0011124B801895E964E7E
S1132EE00E94240AE0914319F09144199A8D828D2D
S1132EF0891718F481E08093D218DF91CF911F9144
S1132F000F9108950FB6F8940F922091D118FC01F7
S1132F1020834091D6185091D7186091D818709199
S1132F20D91841835283638374830F900FBE08952D
S1132F302091D118FC0120834091D6185091D718C4
S1132F406091D8187091D918418352836383748334
S1132F500895CF92DF92EF92FF920F931F93CF9336
S1132F60DF93FB010FB6F8940F924091D61850915D
S1132F70D7186091D8187091D918008111812281D5
S1132F8033810F3FAFEF1A072A073A0749F1EC01E3
S1132F90C980DA80EB80FC80A091D118B881BA177F
S1132FA029F04C155D056E057F05E0F44C195D09AB
S1132FB06E097F09401751076207730758F4041B11
S1132FC0150B260B370B0083118322833383B0DF69
S1132FD080E009C0108211821282138281E003C052
S1132FE080E001C081E00F900FBEDF91CF911F916F
S1132FF00F91FF90EF90DF90CF90089581E0809340
S1133000D21808958091431990914419089580919C
S1133010D418882331F08091C918882321F080E0E6
S1133020089581E0089582E008950F931F93CF934C
S1133030DF93FC01892B09F460C0828DA0914319B0
S1133040B09144195A969C91891708F04AC0468554
S1133050578560897189772394F0A0914319B091C1
S113306044195A969C9144E050E060E070E0491B9A
S113307051096109710946875787608B718B2BE071
S1133080829FC0011124895E964E248535852817B8
S11330903907F1F48F01EF012296CE010E94820AD2
S11330A0E0914319F0914419828DF801828F909137
S11330B0D518981710F48093D518FBE08F9FC001A2
S11330C01124BE01895E964E0E94240A81E016C036
S11330D0A0914319B09144195A968C91828F81E042
S11330E00DC0A0914319B091441981E027A15A96CB
S11330F09C91291718F080E001C080E0DF91CF9106
S11331001F910F9108950F931F93CF93DF93FC01A9
S1133110892B79F180A5815080A7228D97A1291749
S113312051F181112AC0EF018F010E5F1F4FC801B9
S11331300E94820A8FA18A8F44E050E060E070E030
S1133140481B5109610971094E875F87688B798B28
S11331509091D518981710F48093D5182BE0829F7E
S1133160C0011124B801895E964E0E94240A81E0B0
S113317005C080E003C080E001C080E0DF91CF9112
S11331801F910F9108950F931F93CF93DF93FC0129
S1133190892B09F43FC087A1861708F4862F928DE6
S11331A09817C1F120A52130A9F5828F468557854E
S11331B060897189772364F044E050E060E070E056
S11331C0481B51096109710946875787608B718BC8
S11331D02BE0929FC0011124895E964E248535858B
S11331E028173907B9F4EF018F010E5F1F4FC8018B
S11331F00E94820A8A8D9091D518981710F48093B2
S1133200D5182BE0829FC0011124B801895E964E27
S11332100E94240ADF91CF911F910F910895CF92BC
S1133220DF92EF92FF92E0914319F0914419668581
S1133230778580899189E0914319F0914419A0918F
S11332404319B09144195A962C91C12CD12C760172
S11332506894C2F8C21AD108E108F108C686D78674
S1133260E08AF18AFF90EF90DF90CF9008958091EB
S1133270431990914419892B39F0E0914319F09145
S1133280441980A58F5F80A78091431990914419B8
S113329008954F925F926F927F928F929F92AF9216
S11332A0BF92CF92DF92EF92FF920F931F93490147
S11332B05A010FB6F8940F92E0914319F091441912
S11332C027A5223039F1E0914319F091441943A420
S11332D054A465A476A4DC01CB0180959095A095B7
S11332E0B09584219521A621B72183A794A7A5A7EA
S11332F0B6A7E0914319F091441981E087A7C1145E
S1133300D104E104F10431F041E0C701B6015AD916
S11333100E94570B0F900FBE0FB6F8940F92011531
S1133320110569F0E0914319F091441983A594A51E
S1133330A5A5B6A5F80180839183A283B383E09108
S11333404319F091441987A58230B1F4E0914319EF
S1133350F091441983A594A5A5A5B6A5809490944D
S1133360A094B09488229922AA22BB2283A694A670
S1133370A5A6B6A681E001C080E0E0914319F091D2
S1133380441917A60F900FBE1F910F91FF90EF9055
S1133390DF90CF90BF90AF909F908F907F906F9071
S11333A05F904F9008950F931F93CF93DF93FC0189
S11333B00FB6F8940F920115110549F083A594A551
S11333C0A5A5B6A5E80188839983AA83BB8387A5AD
S11333D092E097A72230B1F018F4213031F02AC0DE
S11333E02330E9F0243001F125C003A514A525A557
S11333F036A5402B512B622B732B43A754A765A7EB
S113340076A718C043A554A565A576A54F5F5F4F61
S11334106F4F7F4F43A754A765A776A70BC043A759
S113342054A765A776A706C0823049F143A754A7DD
S113343065A776A7813029F5EF018F010E5F1F4F35
S1133440C8010E94820A8A8D9091D518981710F4A9
S11334508093D5182BE0829FC0011124B801895EA6
S1133460964E0E94240AE0914319F09144199A8DD2
S1133470828D891740F40E94570B81E005C080E0DB
S113348003C081E001C081E00F900FBEDF91CF91B6
S11334901F910F910895EF92FF920F931F93CF9373
S11334A0DF93FC010115110549F083A594A5A5A599
S11334B0B6A5E80188839983AA83BB8387A592E094
S11334C097A72230B1F018F4213031F02AC023300C
S11334D0E9F0243001F125C003A514A525A536A5DE
S11334E0402B512B622B732B43A754A765A776A7B8
S11334F018C043A554A565A576A54F5F5F4F6F4FD0
S11335007F4F43A754A765A776A70BC043A754A72B
S113351065A776A706C08230D9F143A754A765A74B
S113352076A78130B9F5EF018091C918811117C0D0
S11335308F010E5F1F4FC8010E94820A8A8D9091ED
S1133540D518981710F48093D518EBE08E9FC0011E
S11335501124B801895E964E0E94240A07C0BF0157
S1133560625F7F4F82EF98E10E94240AE091431941
S1133570F09144199A8D828D891770F4E114F10445
S113358019F081E0E701888381E08093D21805C0B7
S113359080E003C081E001C081E0DF91CF911F9101
S11335A00F91FF90EF900895009721F480914319B3
S11335B0909144190FB6F8940F92FC0127A522307C
S11335C019F417A681E001C080E00F900FBE0895A2
S11335D0CF92DF92EF92FF920F931F93FC014283ED
S11335E0538364837583938782870417150726079B
S11335F03707C0F00C191D092E093F0986859785E8
S1133600A089B189081719072A073B0700F5BF01EC
S11336106E5F7F4F80914D1990914E190E94450A1B
S113362080E018C00C151D052E053F0528F44C1527
S11336305D056E057F0568F4BF016E5F7F4F809165
S11336404F19909150190E94450A80E003C081E00F
S113365001C081E01F910F91FF90EF90DF90CF9018
S113366008950FB6F8940F9280914B1990914C19CC
S1133670892BE9F48CE599E10E940F0A81E599E12F
S11336800E940F0A8CE599E19093501980934F1989
S113369081E599E190934E1980934D1940E067E0DC
S11336A08AE00E94330D90934C1980934B190F902C
S11336B00FBE0895EF92FF920F93D3DF80914B19C1
S11336C090914C19892B91F00F2EF9E4EF2EF9E12A
S11336D0FF2EF02D03E020E030E045E550E064E704
S11336E075E087E091E00E94591301C080E00F91DA
S11336F0FF90EF9008958F929F92AF92BF92CF92D6
S1133700DF92EF92FF920F931F93CF93DF93CDB786
S1133710DEB727970FB6F894DEBF0FBECDBFE0919A
S11337204B19F0914C19309781F169832A833B83BB
S11337304C835D839F838E836630F4F468DC82302F
S113374069F400E0A7019601BE016F5F7F4F80918D
S11337504B1990914C190E94610D18C000E020E0B3
S113376030E0A901BE016F5F7F4F80914B199091AA
S11337704C190E94610D0AC020E0A801BE016F5FD0
S11337807F4FCF010E941C0E01C080E027960FB628
S1133790F894DEBF0FBECDBFDF91CF911F910F9183
S11337A0FF90EF90DF90CF90BF90AF909F908F905D
S11337B008952F923F924F925F926F927F928F92D1
S11337C09F92AF92BF92CF92DF92EF92FF920F93AC
S11337D01F93CF93DF931C01CDD82B013C01809123
S11337E0451990914619A0914719B0914819481666
S11337F059066A067B0608F053C03BC00780F08573
S1133800E02D80809180A280B380C085D1858E0117
S11338100E5F1F4FC8010E94820AEC89FD89CE0108
S113382019958F8982FF25C08E859F85A889B989BE
S1133830880D991DAA1DBB1D88169906AA06BB06EC
S113384070F48A839B83AC83BD83DB87CA87B8010A
S113385080914F19909150190E94450A0AC0C12CB9
S1133860D12C760100E010E0A501940160E0CE01C6
S113387042DFE0914F19F091501980818111BECF40
S113388080914D1990914E199093501980934F192E
S1133890F0934E19E0934D1981E0F101808302C049
S11338A0F1011082409245195092461960924719CD
S11338B070924819C301B201DF91CF911F910F910A
S11338C0FF90EF90DF90CF90BF90AF909F908F903C
S11338D07F906F905F904F903F902F900895089540
S11338E0279A2F9A2FEF80E792E021508040904052
S11338F0E1F700C000001F9AF5CF279A2F9A2FEF07
S113390087EA91E6215080409040E1F700C0000032
S11339101F9AF5CF8F929F92AF92BF92CF92DF9270
S1133920EF92FF920F931F93CF93DF930E946C0744
S11339309093E21A8093E11A0E946C079093C81A3C
S11339408093C71A41E060E070E084E690E00E9452
S1133950BE109093C41A8093C31A41E060E070E0F3
S11339608CE290E00E94BE109093C61A8093C51A10
S11339700E943E03E090C71AF090C81A4091E11AE1
S11339805091E21AA12CB12C65016894A4F801E0CD
S113399010E020E030E060EC81E00E942005C82FB8
S11339A0D92FE090C71AF090C81A4091E11A5091AB
S11339B0E21AA12CB12C65016894A5F802E010E08C
S11339C020E030E060EC81E00E947202E090C71ACF
S11339D0F090C81A4091E11A5091E21A2091C41A49
S11339E02F932091C31A2F93DF93CF934C010F2E63
S11339F0F0E3AF2EB12CC12CD12CF02D03E010E05C
S1133A0020E030E060EC83E00E94AC036091C31AD4
S1133A107091C41A83E00E94F3050F900F900F90E9
S1133A200F90DF91CF911F910F91FF90EF90DF9056
S1133A30CF90BF90AF909F908F90089581B181688F
S1133A4081B90E94560780E00E94F92885E011D0D0
S1133A506091C51A7091C61A81E0C3D369C00895F4
S1133A60EDDF8CE795E00E94A62E54DF0E947814C7
S1133A70FFCFE3EEFAE126E434E23183208329E444
S1133A8034E23383228324E534E23583248328E536
S1133A9034E2378326832EE534E2318720872AE611
S1133AA034E2338722872FE634E2358724872BE7F5
S1133AB034E2378726872BE534E2318B208B20E8EC
S1133AC034E2338B228B2DE834E2358B248B682F40
S1133AD0CF0153C108956530F1F4FA0180818F73E9
S1133AE090E0982F88272181822B9093090280935C
S1133AF008028281F0E48F9FC0011124FA0123811E
S1133B0026952695822B909307028093060281E0E6
S1133B10809367190895643051F080E090E49093A5
S1133B200702809306029093090280930802089585
S1133B300F931F930BE61DE120E034E244EF50E0C5
S1133B4060E087E20E943329909369198093681991
S1133B5021E0892B09F020E0822F1F910F91089515
S1133B608091671908958091681990916919009757
S1133B7059F040E060E070E00E948429843031F420
S1133B801092671980E0089582E0089583E0089513
S1133B908091681990916919009739F064E00E9446
S1133BA0D029853021F083E0089582E0089580E0F3
S1133BB00895609108027091090280E090E00E94EB
S1133BC0DA2B20E030E048EC52E40E94682C20E03C
S1133BD038EF4FE756E40C94412B0895EADF20E0D8
S1133BE030E040E251E40E94682C0E94AE2BCB01ED
S1133BF00895609106027091070280E090E00E94AF
S1133C00DA2B20E030E045E253E40E94682C20E007
S1133C1038EF4FE756E40E94412B20E030E040E2C9
S1133C2052E40C94DC2A0895E4DF20E030E040E222
S1133C3051E40E94682C0E94A92BCB010895CF93D4
S1133C40DF9390E0FC01EE0FFF1FE80FF91FEE0F6A
S1133C50FF1FE659F64E238121110AC0EF01E091BE
S1133C60EB1AF091EC1A6A8188819981199512C036
S1133C70DC01AA0FBB1FED01C80FD91FCC0FDD1F3C
S1133C80C659D64EE091F51AF091F61A6A818881E8
S1133C9099811995DF91CF910895CF93DF9390E0A7
S1133CA0FC01EE0FFF1FE80FF91FEE0FFF1FE6598F
S1133CB0F64E238121110AC0EF01E091F51AF0912B
S1133CC0F61A6A8188819981199512C0DC01AA0FBC
S1133CD0BB1FED01C80FD91FCC0FDD1FC659D64E2F
S1133CE0E091EB1AF091EC1A6A8188819981199517
S1133CF0DF91CF9108950F2EF3EECF2EFAE1DF2E50
S1133D00F02D04E0CAE6D9E110E08C81813069F03D
S1133D10E8F0823039F5D6011C96ED91FC911D979F
S1133D206A818881998119951DC08D818F5F8A3040
S1133D3010F48D8317C01D82D6011C96ED91FC9161
S1133D401D976A818881998119950CC08D8188237A
S1133D5031F0812FA2DF8D8181508D8303C00C83CC
S1133D60812F6DDF1F5F2696143079F665E070E0D1
S1133D7080E090E00E941916C5CFCF92DF92EF92B7
S1133D80FF920F931F93CF93DF93062F0F2EF3EE23
S1133D90EF2EFAE1FF2EF02DD7011896ED91FC914C
S1133DA0199766E087E290E01995CAE6D9E10F2EEB
S1133DB0F8E2CF2ED12CF02DD982C88286E08A83F6
S1133DC01B8214E01C8380E03ADFD7011896ED9142
S1133DD0FC91199767E087E290E01995DF82CE8223
S1133DE087E0888719861A8781E029DFD70118962A
S1133DF0ED91FC91199765E083E390E01995D70163
S1133E001896ED91FC91199761E084E390E019957F
S1133E1084E390E09D878C8785E08E871F86188BCE
S1133E2082E00DDFD7011896ED91FC91199764E0BB
S1133E3081E091E01995D7011896ED91FC911997BD
S1133E4061E082E091E0199582E091E09B8B8A8B9E
S1133E501C8B1D8A1E8B83E0F2DEE12CF12C20E00A
S1133E6030E040EC50E06EE875E08BE79EE10E94A4
S1133E705913DF91CF911F910F91FF90EF90DF9035
S1133E80CF9008950F931F93CF93DF93C82FD0E063
S1133E908E01000F111FD801AC0FBD1FAA0FBB1F4D
S1133EA0A659B64EE091EF1AF091F01A12966C9161
S1133EB012978D919C911995C00FD11FCC0FDD1FC6
S1133EC0C659D64E81E08C83DF91CF911F910F911B
S1133ED008950F931F93CF93DF93C82FD0E08E01E3
S1133EE0000F111FD801AC0FBD1FAA0FBB1FA6598D
S1133EF0B64EE091EF1AF091F01A12966C91129767
S1133F008D919C911995C00FD11FCC0FDD1FC659FF
S1133F10D64E82E08C83DF91CF911F910F9108954B
S1133F20282F30E0F901EE0FFF1FE20FF31FEE0F11
S1133F30FF1FE659F64E93E09483AFCE0895282FE1
S1133F4030E0F901EE0FFF1FE20FF31FEE0FFF1F2A
S1133F50E659F64E94E0948372CE089590E0FC0105
S1133F60EE0FFF1FDF01A80FB91FAA0FBB1FA65931
S1133F70B64E24E015962C931597FD0114820895EE
S1133F8090E0FC01EE0FFF1FDF01A80FB91FAA0F7D
S1133F90BB1FA659B64E21E015962C931597FD012B
S1133FA0148208950F931F93CF93DF931F921F9250
S1133FB0CDB7DEB78C0119822DC0E091E619EC3241
S1133FC050F481E08E0F8093E619F0E0E85EF54E40
S1133FD08A81808302C01092E6198A818A30D1F4E2
S1133FE04091E61950E0FA01EA5EF54E1082415024
S1133FF051099E012F5F3F4F68E17AE18091E919F1
S11340009091EA190E94D311898181110E94570B62
S11340101092E619BE016E5F7F4FC80158D68823FF
S113402061F20F900F90DF91CF911F910F9108953E
S11340300F931F93CF93DF938C01EB018091E919C8
S11340409091EA190E94EA10B80182E899E10E946D
S1134050742E209779F0E2E8F9E101900020E9F765
S1134060319780E290E091838083BE0182E899E1F8
S11340700E94692EE2E8F9E1DF010D900020E9F7E2
S113408011978DE09AE011969C938E9312961C9250
S113409001900020E9F73197E258F941AE2F82E808
S11340A099E1AC016A2F8091EB199091EC19BFD57D
S11340B0811111C008E215E020E030E04DE250E04B
S11340C062E77AE18091E9199091EA190E94161247
S11340D082E79AE102C080E090E0DF91CF911F91E6
S11340E00F9108952F923F924F925F926F927F9219
S11340F08F929F92AF92BF92CF92DF92EF92FF92F4
S11341000F931F93CF93DF935C01FC010190002078
S1134110E9F731976F01C81AD90A5C2C0F2EFFE218
S11341208F2EF8E09F2EF02DE12CF12C4C2C370132
S1134130F40101811281E80109900020E9F7219737
S1134140C01BD10B3C2EF9E0CF16D10458F0F4017A
S11341502080FEE02F1206C0B801C5010E94442E43
S1134160892B09F5442D351408F44C2F50E0B8017F
S1134170C5010E947B2E892B49F4F301EE0FFF1F2A
S1134180E60DF71DE15DF74F20800DC08FEFE81AB3
S1134190F80AE3E08E0E911CF1E1EF16F10439F612
S11341A06894222424F8822DDF91CF911F910F91DE
S11341B0FF90EF90DF90CF90BF90AF909F908F9043
S11341C07F906F905F904F903F902F90089530DFD5
S11341D089CF08958091E9199091EA190C94EA1015
S11341E008958F929F92AF92CF92EF920F931F9365
S11341F0CF93C82F8B0141E060E070E088EC90E041
S11342000E94BE109093EA198093E9191093E8195B
S11342100093E7190F2EF2ED8F2EFFE19F2EF02D64
S11342206894AA24A6F86894CC24C6F8E12C00E08B
S113423023E040E051EE60E070E08C2F3DD4909399
S1134240EC198093EB19E091EB1AF091EC1A64E00D
S113425087E091E01995CF911F910F91EF90CF9046
S1134260AF909F908F900895882349F0E091F51ABC
S1134270F091F61A64E088E091E019950895E091D0
S1134280EB1AF091EC1A64E088E091E01995089536
S113429060E070E085EB95E0CBDEE2E7FAE10190C7
S11342A00020E9F73197E257FA4181E0759708F069
S11342B080E00895CF93DF93EC0160E070E086EC3A
S11342C095E0B6DEE2E7FAE101900020E9F7E35871
S11342D0FA4139F462E77AE1CE010E94742E80E05B
S11342E002C0188281E0DF91CF910895FC01019012
S11342F00020E9F79F01215131092817390729F4D2
S1134300BC0184EF95E063CF089589E00895FC0132
S113431001900020E9F79F0121513109281739073D
S113432029F4BC0183E096E052CF089589E0089512
S1134330FC0101900020E9F79F012152310928175F
S1134340390729F4BC0182E196E041CF089589E060
S1134350089560E070E081E596E039CF08950F9309
S11343601F93E82FF0E0EE0FFF1FE55DF74F60812C
S113437071818AE596E02BDF811114C008E215E013
S113438020E030E04DE250E062E77AE18091E91903
S11343909091EA190E941612882321F082E79AE18B
S11343A0A1DE03C082E79AE19DDE1F910F9108957B
S11343B00F931F93CF93DF931F92CDB7DEB7DB012B
S11343C011969C911197953108F0B4C0992381F10D
S11343D060E070E0272F30E0462F50E0FD01E40F4D
S11343E0F51F928192959F709A3010F0995C01C0EC
S11343F0905DF901ED5FF54E90832F5F3F4FFD0116
S1134400E40FF51F92819F70492F50E04A30510507
S113441014F0995C01C0905DF901ED5FF54E908355
S11344207E5F6F5F11969C911197691798F201C096
S113443070E0E72FF0E0ED5FF54E10824C918111B2
S113444003C083E696E002C085E696E023E03AE105
S11344503F932F931F924F939F938F9389E696E0F8
S11344609F938F9385E49AE19F938F930E94D62E16
S113447060E070E085E49AE1AADE0FB6F894DEBF4E
S11344800FBECDBF811159C008E215E020E030E035
S11344904DE250E062E77AE18091E9199091EA19DE
S11344A00E941612882309F447C082E79AE11ADEB3
S11344B08E3009F042C087E089838091E71990919A
S11344C0E819892BA9F1BE016F5F7F4F82E79AE15A
S11344D068D18093ED19E981F0E0EE58F54EDF01E3
S11344E00D900020E9F71197AE1BBF0BAA2391F0A2
S11344F0BB27CD0101979C0112F42F5F3F4F3595E7
S113450027952093EE19AF014F5F5F4F64E18FEE63
S113451099E173D101E010E020E030E046E150E0A1
S11345206DEE79E18091E7199091E8190E942911C3
S11345308EE003C084E101C080E00F90DF91CF9151
S11345401F910F910895813019F069E776E002C058
S113455062E577E08DE796E03ACE08959F938F93D6
S11345608EEA96E09F938F9385E49AE19F938F93CD
S11345700E94D62E60E070E085E49AE128DE0F9078
S11345800F900F900F900F900F9008952F923F92DD
S11345904F925F926F927F928F929F92AF92BF924F
S11345A0CF92DF92EF92FF920F931F93CF93DF93FB
S11345B0CDB7DEB7A0970FB6F894DEBF0FBECDBF60
S11345C06BED76E087EE96E033DD8CDD8111A3C0E0
S11345D080E2E1E2F2E0DE01119601900D928A950B
S11345E0E1F79E012F5F3F4F6901E12CF12C0F2E63
S11345F0F3EFAF2EF6E0BF2EF02D05E41AE10F2EF7
S1134600FCE04F2EF7E05F2EF02D0F2EF3E28F2EFD
S1134610F7E09F2EF02D0F2EFDE36F2EF7E07F2E97
S1134620F02D3E2C2F2CFF92EF92BF92AF921F934E
S11346300F930E94D62E60E070E0C801F9DC52DDD1
S11346400F900F900F900F900F900F90811163C0F7
S113465032E03E15E8F4F60183818F9382818F93D3
S113466081818F9380818F93FF92EF925F924F921B
S11346701F930F930E94D62E60E070E0C801D8DC2F
S113468031DD0FB6F894DEBF0FBECDBF811143C03C
S11346902F923F929F928F921F930F930E94D62E38
S11346A060E070E0C801C4DC1DDD0F900F900F9036
S11346B00F900F900F9081112EC02F923F927F92F6
S11346C06F921F930F930E94D62E60E070E0C80192
S11346D0AFDC08DD0F900F900F900F900F900F90AC
S11346E0811119C03FEFE31AF30A84E0C80ED11C0C
S11346F098E0E916F10409F094CF60E070E085E5F4
S113470097E096DCEFDC811106C060E070E086E69D
S113471097E08EDCE7DCA0960FB6F894DEBF0FBE00
S1134720CDBFDF91CF911F910F91FF90EF90DF905C
S1134730CF90BF90AF909F908F907F906F905F903D
S11347404F903F902F900895EF92FF920F931F93F5
S1134750CF93DF93EC018B017A0181E0F4DE8111C8
S11347600DC0CE01D4DD811109C0C801E1DD811184
S113477005C0C701BBDD811101C0EBDDDF91CF9125
S11347801F910F91FF90EF90089590E0FC01EE0FC0
S1134790FF1F8E0F9F1FFC01E15DF74F8181928106
S11347A00895DC01009729F1FB012081FC010190AF
S11347B00020E9F73197E81BF90B822F90E0E81706
S11347C0F907C8F080E008C0880F382F330F330F83
S11347D0830F8053890F2F5FFD01E20FF11D90813C
S11347E030ED390F3A3010F49111EECFFB012083F4
S11347F0089580E0089580E008950F931F93CF9368
S1134800DF93DC01EA012097E1F1FA010190002035
S1134810E9F73197E41BF50B329710F532C08D019F
S1134820040F151F30E0AE01420F531FFA019081AF
S1134830913428F09753592F5295507F03C0592F24
S11348405295507F2C0F3D1FF9019181913410F046
S1134850975301C09053950FF80190838F5F01C067
S113486080E0282F220F482F50E0FE010190002005
S1134870E9F73197EC1BFD0B4E175F0710F4861315
S1134880CECFDF91CF911F910F910895FC018081CC
S11348900895FC01208181E090E002C0880F991FF7
S11348A06A95E2F782230895FC01808186230895A6
S11348B0FC0160830895FC0110820895FC0140818D
S11348C021E030E002C0220F331F6A95E2F7242B67
S11348D020830895FC012081622B60830895FC01EC
S11348E0408121E030E002C0220F331F6A95E2F7D5
S11348F0242720830895FC01208162276083089582
S1134900FC01908121E030E002C0220F331F6A9540
S1134910E2F72095292320830895FC019081609576
S11349206923608308958091A21A860F8093A21A46
S11349309091A51A913079F028F09230A9F0933033
S113494019F108956F3F09F048C01092A21A81E04E
S11349508093A51A0895663809F03FC01092A11AF1
S113496082E08093A51A0895E091A11A81E08E0F48
S11349708093A11AF0E0E156F54E6083823069F528
S113498083E08093A51A08959091A11A21E0290F3C
S11349902093A11A963009F581110EC0EFE9FAE1CE
S11349A0808190E0982F88272181820F911D909318
S11349B0A71A8093A61A04C01092A71A1092A61AD6
S11349C01092A51AE091A31AF091A41A309729F035
S11349D08091A61A9091A71A199508958F929F9283
S11349E0AF92CF92EF920F93CF93DF93EB010F2E01
S11349F0F3E98F2EF4E29F2EF02D6894AA24A4F8F4
S1134A006894CC24C4F8E12C00E023E040E855E2AB
S1134A1060E070E051D09093A91A8093A81AD093C3
S1134A20A41AC093A31ADF91CF910F91EF90CF9066
S1134A30AF909F908F900895CF93DF93CDB7DEB75B
S1134A4029970FB6F894DEBF0FBECDBF89E0E1E42D
S1134A50F2E09E012F5F3F4FD90101900D928A959C
S1134A60E1F71092A71A1092A61A8091A81A9091B1
S1134A70A91A009731F0422F532F69E0D8D080E073
S1134A8001C082E029960FB6F894DEBF0FBECDBFF9
S1134A90DF91CF9108952091A61A3091A71A21157C
S1134AA0310529F4FC011182108281E00895FC0192
S1134AB03183208380E008952F923F924F925F923A
S1134AC06F927F928F929F92AF92CF92EF92FF92CA
S1134AD00F931F93CF93DF93CDB7DEB7F82E2A0140
S1134AE03B0188E090E09BD78C018F2D90E0880FEC
S1134AF0991FFC01E655F54E11830083FC01E65F26
S1134B00FD4F80819181D8018D939C936C2D70E031
S1134B1084E090E06AD71C0161E070E086E090E0F8
S1134B2064D77C014C2DB1012BD5F801F582E482C8
S1134B306A2D70E084E090E058D71C0161E070E0D9
S1134B4086E090E052D77C014A2DB10119D5D801F5
S1134B501396FC92EE92129717969C928E92169749
S1134B60FFB6F894ED91FC9111973697808182609D
S1134B7080838D909C90C301B2011CD620E030E06C
S1134B8040E051E4A5D69B01AC0160E074E284E707
S1134B909BE477D520E030E040E85FE30DD5DED537
S1134BA0F40132976083D801ED91FC911197359708
S1134BB088E98083ED91FC91349786E08083FFBE81
S1134BC0C801DF91CF911F910F91FF90EF90CF908B
S1134BD0AF909F908F907F906F905F904F903F9099
S1134BE02F900895CF93DF93EC01EA81FB819381A9
S1134BF082812581981B922384819817A1F0938147
S1134C0026952923A081B181A20FB11D6C939F5FCA
S1134C10258192239383E881F9813597808180628D
S1134C20808380E001C082E0DF91CF910895EF920C
S1134C30FF920F931F93CF93DF937C01DC011296B5
S1134C40ED91FC91139793818281981B8581982320
S1134C508481891B861798F1662341F1842F952F4F
S1134C60DC016150462F50E04F5F5F4F480F591FE2
S1134C70E701EA81FB81938182812581981B92233C
S1134C808481981779F08C919381269529236081EA
S1134C9071818B01020F111DE80188839F5F85815B
S1134CA0982393831196A417B50711F7D701ED91B3
S1134CB0FC91359780818062808380E001C082E02E
S1134CC0DF91CF911F910F91FF90EF900895DC0138
S1134CD01496ED91FC91159793818281981789F030
S1134CE09281858186958923A081B181A80FB11D08
S1134CF08C91DB018C939F5F85819823928380E064
S1134D00089583E008951F920F920FB60F92112415
S1134D100BB60F922F933F934F935F936F937F93B1
S1134D208F939F93AF93BF93CF93DF93EF93FF93AF
S1134D30A091AA1AB091AB1A109711F16091C60014
S1134D401496ED91FC911597938182812581981B8E
S1134D5092238481981761F0838126952823C0814A
S1134D60D181C20FD11D68838F5F9581892383838D
S1134D701696ED91FC911797309711F0CD01199586
S1134D80FF91EF91DF91CF91BF91AF919F918F915F
S1134D907F916F915F914F913F912F910F900BBE37
S1134DA00F900FBE0F901F9018951F920F920FB681
S1134DB00F9211240BB60F922F938F939F93AF935F
S1134DC0BF93EF93FF93E091AA1AF091AB1A309737
S1134DD0B9F00280F381E02D938182819817B1F0BC
S1134DE092818581282F26952923A081B181A20F44
S1134DF0B11D2C919F5F892382832093C6000BC031
S1134E00E1ECF0E080818F7D808305C0E1ECF0E08F
S1134E1080818F7D8083FF91EF91BF91AF919F91AE
S1134E208F912F910F900BBE0F900FBE0F901F907C
S1134E3018951F920F920FB60F9211240BB60F9272
S1134E402F933F934F935F936F937F938F939F938E
S1134E50AF93BF93CF93DF93EF93FF93A091AC1ADB
S1134E60B091AD1A109711F16091CE001496ED91A6
S1134E70FC911597938182812581981B92238481CB
S1134E80981761F0838126952823C081D181C20FB0
S1134E90D11D68838F5F9581892383831696ED9155
S1134EA0FC911797309711F0CD011995FF91EF916F
S1134EB0DF91CF91BF91AF919F918F917F916F912E
S1134EC05F914F913F912F910F900BBE0F900FBEAA
S1134ED00F901F9018951F920F920FB60F921124E6
S1134EE00BB60F922F938F939F93AF93BF93EF9330
S1134EF0FF93E091AC1AF091AD1A3097B9F00280AB
S1134F00F381E02D938182819817B1F0928185819C
S1134F10282F26952923A081B181A20FB11D2C91A0
S1134F209F5F892382832093CE000BC0E9ECF0E0DD
S1134F3080818F7D808305C0E9ECF0E080818F7DE6
S1134F408083FF91EF91BF91AF919F918F912F91AA
S1134F500F900BBE0F900FBE0F901F9018951F92CD
S1134F600F920FB60F9211240BB60F922F933F930B
S1134F704F935F936F937F938F939F93AF93BF935D
S1134F80CF93DF93EF93FF93A091AE1AB091AF1A32
S1134F90109711F16091D6001496ED91FC9115973C
S1134FA0938182812581981B92238481981761F0D3
S1134FB0838126952823C081D181C20FD11D6883A6
S1134FC08F5F9581892383831696ED91FC911797C2
S1134FD0309711F0CD011995FF91EF91DF91CF91A9
S1134FE0BF91AF919F918F917F916F915F914F91FD
S1134FF03F912F910F900BBE0F900FBE0F901F90FB
S113500018951F920F920FB60F9211240BB60F92A0
S11350102F938F939F93AF93BF93EF93FF93E0915D
S1135020AE1AF091AF1A3097B9F00280F381E02DF7
S1135030938182819817B1F092818581282F2695DA
S11350402923A081B181A20FB11D2C919F5F8923D7
S113505082832093D6000BC0E1EDF0E080818F7D48
S1135060808305C0E1EDF0E080818F7D8083FF9136
S1135070EF91BF91AF919F918F912F910F900BBEA4
S11350800F900FBE0F901F9018951F920F920FB69E
S11350900F9211240BB60F922F933F934F935F936C
S11350A06F937F938F939F93AF93BF93CF93DF932C
S11350B0EF93FF93A091B01AB091B11A109711F128
S11350C0609136011496ED91FC911597938182813C
S11350D02581981B92238481981761F083812695FA
S11350E02823C081D181C20FD11D68838F5F958130
S11350F0892383831696ED91FC911797309711F0CD
S1135100CD011995FF91EF91DF91CF91BF91AF91AF
S11351109F918F917F916F915F914F913F912F91CB
S11351200F900BBE0F900FBE0F901F9018951F92FB
S11351300F920FB60F9211240BB60F922F938F93E9
S11351409F93AF93BF93EF93FF93E091B01AF091C5
S1135150B11A3097B9F00280F381E02D93818281F6
S11351609817B1F092818581282F26952923A08153
S1135170B181A20FB11D2C919F5F8923828320935B
S113518036010BC0E1E3F1E080818F7D808305C0AF
S1135190E1E3F1E080818F7D8083FF91EF91BF9106
S11351A0AF919F918F912F910F900BBE0F900FBED7
S11351B00F901F901895CF93DF931F92CDB7DEB752
S11351C0BE016F5F7F4F8091B21A9091B31A7FDD59
S11351D08111F6CF898190E00F90DF91CF910895EE
S11351E0682F8091B21A9091B31AFCDC80E090E0B1
S11351F008958F929F92AF92CF92EF920F93812C4A
S1135200912C6894AA24A7F86894CC24C7F8E12CBC
S113521000E023E040E051EE60E070E04DDC90936C
S1135220B31A8093B21AEDEFFAE182E192E091832E
S11352308083938382830F91EF90CF90AF909F9060
S11352408F9008958091C21A81110CC08CE08093D4
S1135250B8008FEF8093BB0084E08093BC0081E0B2
S11352608093C21A0895AF92BF92CF92DF92EF92C9
S1135270FF920F931F93CF93DF93A82EB62E69014D
S11352807A0184E090E0CBD3EC01892B61F1A88210
S113529081E0B81212C0C701B60120EA36E841E045
S11352A050E079D3DA01C9014097A109B109B69553
S11352B0A79597958795898311C0C701B60120E802
S11352C03AE146E050E067D3DA01C9014097A10909
S11352D0B109B695A7959795879589831B830A830A
S11352E08C2F9D2F02C080E090E0DF91CF911F9121
S11352F00F91FF90EF90DF90CF90BF90AF90089503
S11353008091BC0081700895FF920F931F93CF93F7
S1135310DF930097D1F14A30D0F5F42E8B01EC01E4
S1135320EFDF811136C08091B51A9091B61AC81773
S1135330D90741F087DF89818093B800D093B61AEA
S1135340C093B51A81E08F0D8093B71A8881880FB6
S11353508093B81AFF2089F0F801A9EBBAE14FEF66
S11353604F0D642F70E0CB010196B801680F791FCF
S113537081918D93E617F707D9F788EF8093200280
S113538085EA8093BC0084E005C086E003C087E022
S113539001C082E0DF91CF911F910F91FF9008959A
S11353A01F93CF93DF93009729F16B3028F5162FC5
S11353B0EC01A6DF811122C08091B51A9091B61A32
S11353C0C817D90741F03EDF89818093B800D09394
S11353D0B61AC093B51A1093B71A8881880F8160E2
S11353E08093B81A88EF8093200285EA8093BC00EA
S11353F085E005C086E003C087E001C082E0DF915C
S1135400CF911F9108951F920F920FB60F921124FE
S11354100BB60F922F933F934F935F936F937F93AA
S11354208F939F93AF93BF93EF93FF93E091B90052
S11354308E2F90E0FC013897E135F10508F075C036
S11354408827E458FF4F8F4FC8C21092B41AE091D6
S1135450B41A8091B71AE81770F481E08E0F809324
S1135460B41AF0E0E854F54E80818093BB0085E8DF
S11354708093BC0072C084E98093BC008091B51A0B
S11354809091B61ADC011296ED91FC911397309726
S113549009F463C020E040E050E064E019955DC089
S11354A0E091B41A81E08E0F8093B41A8091BB000E
S11354B0F0E0E854F54E80838091B900803411F413
S11354C01092B41A2091B41A30E08091B71A90E087
S11354D001972817390724F485EC8093BC003DC05C
S11354E085E88093BC0039C08091BB00E091B41A78
S11354F0F0E0E854F54E808384E98093BC00809109
S1135500B51A9091B61ADC011296ED91FC9113979D
S1135510309719F12091B71A48EB5AE165E01995D3
S11355201CC085EA8093BC0018C08091B9008093A8
S1135530200284E08093BC008091B51A9091B61A41
S1135540DC011296ED91FC911397309731F020E035
S113555040E050E0609120021995FF91EF91BF91D6
S1135560AF919F918F917F916F915F914F913F91F7
S11355702F910F900BBE0F900FBE0F901F90189598
S1135580FC01411101C06CD3842F90E09C01215097
S1135590310982239323892B09F062D3413808F01F
S11355A05FD3128213824483440F41504583718335
S11355B0608380E090E008955058BB27AA270ED05E
S11355C04DC13ED130F043D120F031F49F3F11F46E
S11355D01EF433C10EF4E095E7FB29C1E92F4FD146
S11355E080F3BA17620773078407950718F071F4FC
S11355F09EF567C10EF4E0950B2EBA2FA02D0B017A
S1135600B90190010C01CA01A0011124FF27591B03
S113561099F0593F50F4503E68F11A16F040A22F09
S1135620232F342F4427585FF3CF4695379527957A
S1135630A795F0405395C9F77EF41F16BA0B620B79
S1135640730B840BBAF09150A1F0FF0FBB1F661FC0
S1135650771F881FC2F70EC0BA0F621F731F841F03
S113566048F4879577956795B795F7959E3F08F029
S1135670B3CF9395880F08F09927EE0F97958795E8
S113568008950CD0EBC0E3D040F0DAD030F021F430
S11356905F3F19F0CCC0511115C1CFC0F0D098F3C1
S11356A09923C9F35523B1F3951B550BBB27AA279F
S11356B062177307840738F09F5F5F4F220F331F11
S11356C0441FAA1FA9F333D00E2E3AF0E0E830D0DD
S11356D091505040E695001CCAF729D0FE2F27D0E0
S11356E0660F771F881FBB1F261737074807AB07AE
S11356F0B0E809F0BB0B802DBF01FF2793585F4F23
S11357002AF09E3F510568F092C0DCC05F3FECF385
S1135710983EDCF3869577956795B795F7959F5FE7
S1135720C9F7880F911D9695879597F90895E1E03B
S1135730660F771F881FBB1F621773078407BA079A
S113574020F0621B730B840BBA0BEE1F88F7E095F5
S1135750089504D06894B111B5C0089598D088F024
S11357609F5790F0B92F9927B751A0F0D1F0660F49
S1135770771F881F991F1AF0BA95C9F712C0B13064
S113578081F09FD0B1E008959CC0672F782F8827BF
S1135790B85F39F0B93FCCF3869577956795B395A3
S11357A0D9F73EF490958095709561957F4F8F4F12
S11357B09F4F0895E89409C097FB3EF49095809517
S11357C0709561957F4F8F4F9F4F9923A9F0F92FC3
S11357D096E9BB279395F695879577956795B79541
S11357E0F111F8CFFAF4BB0F11F460FF1BC06F5F27
S11357F07F4F8F4F9F4F16C0882311F096E911C039
S1135800772321F09EE8872F762F05C0662371F059
S113581096E8862F70E060E02AF09A95660F771F6D
S1135820881FDAF7880F9695879597F9089597F961
S11358309F6780E870E060E008959FEF80EC089532
S113584000240A941616170618060906089500245B
S11358500A9412161306140605060895092E0394D5
S1135860000C11F4882352F0BB0F40F4BF2B11F449
S113587060FF04C06F5F7F4F8F4F9F4F089557FDA8
S11358809058440F551F59F05F3F71F04795880FAA
S113589097FB991F61F09F3F79F087950895121641
S11358A013061406551FF2CF4695F1DF08C01616ED
S11358B017061806991FF1CF86957105610508949E
S11358C00895E894BB2766277727CB0197F90895B5
S11358D00BD0C4CFB5DF28F0BADF18F0952309F058
S11358E0A6CFABCF1124EECFCADFA0F3959FD1F39F
S11358F0950F50E0551F629FF001729FBB27F00D7A
S1135900B11D639FAA27F00DB11DAA1F649F6627CE
S1135910B00DA11D661F829F2227B00DA11D621F1D
S1135920739FB00DA11D621F839FA00D611D221FD7
S1135930749F3327A00D611D231F849F600D211DBB
S1135940822F762F6A2F11249F5750408AF0E1F05E
S113595088234AF0EE0FFF1FBB1F661F771F881FA7
S113596091505040A9F79E3F510570F060CFAACFE7
S11359705F3FECF3983EDCF3869577956795B79592
S1135980F795E7959F5FC1F7FE2B880F911D9695BC
S1135990879597F90895A1E21A2EAA1BBB1BFD0156
S11359A00DC0AA1FBB1FEE1FFF1FA217B307E407FA
S11359B0F50720F0A21BB30BE40BF50B661F771F52
S11359C0881F991F1A9469F7609570958095909532
S11359D09B01AC01BD01CF010895EE0FFF1F881F8D
S11359E08BBF0790F691E02D19940F931F93CF93DB
S11359F0DF93869F8001879F100D969F100D1124C1
S1135A00C8010DD0EC01009721F0A80160E070E01E
S1135A1034D1CE01DF91CF911F910F9108950F934F
S1135A201F93CF93DF938230910510F482E090E0CE
S1135A30E091FB1AF091FC1A20E030E0A0E0B0E025
S1135A40309719F140815181028113814817590718
S1135A50C8F08417950769F4109731F012960C93E7
S1135A60129713961C9327C00093FB1A1093FC1AE9
S1135A7022C02115310519F04217530718F49A0171
S1135A80BD01EF01DF01F801DBCF21153105F9F08C
S1135A90281B390B2430310580F48A819B816115E0
S1135AA0710521F0FB019383828304C09093FC1A57
S1135AB08093FB1AFE01329644C0FE01E20FF31FED
S1135AC08193919322503109398328833AC02091DC
S1135AD0F91A3091FA1A232B41F4209102023091E1
S1135AE003023093FA1A2093F91A2091000230919C
S1135AF001022115310541F42DB73EB7409104024E
S1135B0050910502241B350BE091F91AF091FA1A11
S1135B10E217F307A0F42E1B3F0B2817390778F080
S1135B20AC014E5F5F4F2417350748F04E0F5F1FDF
S1135B305093FA1A4093F91A8193919302C0E0E0CA
S1135B40F0E0CF01DF91CF911F910F910895CF9392
S1135B50DF93009709F481C0FC013297138212820B
S1135B60A091FB1AB091FC1A109781F42081318125
S1135B70820F931F2091F91A3091FA1A28173907C6
S1135B8051F5F093FA1AE093F91A67C0ED0120E099
S1135B9030E0CE17DF0740F44A815B819E01411556
S1135BA05105F1F0EA01F5CFD383C28340815181DD
S1135BB0840F951FC817D90759F488819981840FD8
S1135BC0951F0296918380838A819B81938382832C
S1135BD02115310529F4F093FC1AE093FB1A3DC01A
S1135BE0E901FB83EA8349915991C40FD51FEC174E
S1135BF0FD0761F480819181840F951F0296E9016C
S1135C0099838883828193819B838A83E0E0F0E097
S1135C1012968D919C911397009719F0FD01DC0168
S1135C20F7CF8D919C9111979D012E5F3F4F820F6D
S1135C30931F2091F91A3091FA1A2817390769F439
S1135C40309729F41092FC1A1092FB1A02C01382A6
S1135C501282B093FA1AA093F91ADF91CF910895A2
S1135C6081E090E0F8947DC3FB01DC0102C0019067
S1135C700D9241505040D8F70895DC0101C06D9356
S1135C8041505040E0F70895FB0151915523B1F084
S1135C90BF01DC01052E4D91442369F010D0D9F7E2
S1135CA0CD010190002049F04D91411108D0C9F374
S1135CB0FB014111EECF81E090E00197089540256A
S1135CC039F0403229F440294B57465E08F01894C5
S1135CD00895FB01DC010D900020E9F71197019074
S1135CE00D920020E1F70895FB01DC0101900D9273
