:1000000050C200006FC200006DC200006BC2000051
:1000100069C2000067C2000065C2000063C2000040
:1000200061C200005FC200005DC200005BC2000050
:100030000C94190E57C2000055C2000053C20000B4
:1000400051C200004FC200004DC200004BC2000070
:1000500049C2000047C2000045C2000043C2000080
:1000600041C200000C94E4280C9436293BC20000E5
:1000700039C2000037C2000035C2000033C20000A0
:1000800031C200002FC200002DC200002BC20000B0
:100090000C947A290C94CC2925C200000C94642C71
:1000A00021C200001FC200001DC200001BC20000D0
:1000B00019C2000017C2000015C2000013C20000E0
:1000C00011C200000FC200000DC200000C94102AE3
:1000D0000C94622A07C200000C94A62A0C94F82AF9
:1000E00001C20000C601C601C601000208021E02CC
:1000F000C601C60100020802862CF62CF62CF62C4E
:10010000F62CF62CF62CF62C862CF62CF62CF62C4F
:10011000F62CF62CF62CF62C882CF62CF62CF62C3D
:10012000F62CF62CF62CF62CF62CF62CF62CF62CBF
:10013000F62CF62CF62CF62C882CF62CF62CF62C1D
:10014000F62CF62CF62CF62CF62CF62CF62CF62C9F
:10015000F62CF62CF62CF62CF22CF62CF62CF62C93
:10016000F62CF62CF62CF62CBD2CF62CF62CF62CB8
:10017000F62CF62CF62CF62CF62CF62CF62CF62C6F
:10018000F62CF62CF62CF62CB12CF62CF62CF62CA4
:10019000F62CF62CF62CF62CD52C07E618E10F2EB3
:1001A000F7E9EF2EF8E1FF2EF02D809166188823F5
:1001B00029F10FB6F8940F92D8011796ED91FC91A2
:1001C0001897C085D185CE0102960E947E0C809141
:1001D0005A18815080935A188091661881508093E4
:1001E00066180F900FBE8B8D9C8D0E94DA0BCE018E
:1001F0000E94DA0B809166188111DBCFF7018081B4
:10020000823010F00E94530D0E946F1ECECFCF930C
:10021000DF93CDB7DEB760970FB6F894DEBF0FBEA1
:10022000CDBFCE0101969A878987812C912CA12C74
:10023000B12C69847A84E091E518F091E618808108
:10024000882309F414C10780F085E02D20803180D7
:10025000428053800E94B216CE0101960E94D91DA1
:100260006B877C878D879E878981811167C08B858D
:100270009C85AD85BE8582159305A405B50508F45A
:1002800045C00E949B17E091E518F091E6180780A1
:10029000F085E02DA085B185B88BAF87CD010296A2
:1002A0000E947E0CEF85F889878982FF21C04685F0
:1002B000578560897189420D531D641D751D72013A
:1002C00061010B851C852D853E85CF010E94E81CB0
:1002D000882399F0C82CD92CEA2CFB2C00E010E0E4
:1002E000A201910160E08F8598890E947B1D05C065
:1002F0008E7FAF85B88957968C93AF85B889549611
:10030000ED91FC915597CD011995A2C020E0B20165
:10031000A1018B859C85AD85BE85481B590B6A0B59
:100320007B0B8091E1189091E2180E94B5110E9418
:100330009B1781118DC00E94530D8AC00E949B178C
:1003400087C0898188230CF483C04E805F80D201EE
:100350001C968D919C911D97892B21F0C2010296CC
:100360000E947E0CCE0108960E94D91D8B019C0133
:10037000E9810E2E000CFF0BEA30F10508F068C091
:100380008827EE58FF4F8F4F0C94612FF201878919
:100390008160878BCA80DB80EC80FD804685578535
:1003A000608971894C0D5D1D6E1D7F1DC2010E940B
:1003B000E81C882309F44CC0D2015496ED91FC91BD
:1003C0005597C2011995F201878982FF41C04A8180
:1003D0005B816C817D8186859785A089B1899A0131
:1003E000AB01280F391F4A1F5B1FC82CD92CEA2CE0
:1003F000FB2C00E010E060E0C2010E947B1D28C0E1
:10040000D20157968C9157978E7F57968C9320C028
:10041000F20187898160878B4A815B816C817D8154
:1004200046875787608B718B400F511F621F731F68
:1004300068017901C2010E94E81C0AC0F2018789A3
:1004400081FD04C0C2010E94DA0B02C08E7F878B3F
:10045000282D392D4A2D5B2D662D772D8091E118A1
:100460009091E2180E94511081116BCFE4CE0E944E
:10047000B216CE0101960E94D91D6B877C878D87AD
:100480009E87898181115ACFE091E318F091E41899
:10049000808121E0811120E0282C392C4A2C5B2C12
:1004A00036CF11241FBECFEFD1E2DEBFCDBF00E0BB
:1004B0000CBF17E0A0E0B2E0E6E9F9E600E00BBF10
:1004C00002C007900D92A03CB107D9F72AE1A0EC39
:1004D000B7E001C01D92AD39B207E1F70E945D1F80
:1004E0000C94C9348DCDFC010FB6F8946091991A23
:1004F00070919A1A80919B1A90919C1A0FBE309716
:1005000021F0608371838283938308952F923F92B9
:100510004F925F926F927F928F929F92AF92BF9213
:10052000CF92DF92EF92FF920F931F93CF93DF93BF
:10053000D82FC62F1A0128013901870164E070E025
:1005400081E090E00E947D2F4C01892B69F1F4013C
:10055000119211927F013092CB072092CA074092EC
:10056000C6075092C7076092C8077092C9071093D8
:10057000C5070093C407A092C007B092C107C092FC
:10058000C207D092C30760E070E083E00E941B279F
:100590004C2F50E048535F4F0D2F940162E772E0FB
:1005A0008BE393E00E945515C401DF91CF911F9119
:1005B0000F91FF90EF90DF90CF90BF90AF909F9002
:1005C0008F907F906F905F904F903F902F90089505
:1005D000CF92DF92EF92FF920F931F93CF93DF930F
:1005E000EC014091C6075091C7076091C807709110
:1005F000C907CC24CA94DC2C760101E021E080916B
:10060000CA079091CB0777D60091C6071091C7070C
:100610002091C8073091C907DC01CB0180239123C9
:10062000A223B323081719072A073B07D9F40E940E
:100630004927182F6CE271E080E090E00E941718C3
:10064000111103C0CE010E9478274091C00750913C
:10065000C1076091C2077091C3078091C407909150
:10066000C50709D7DF91CF911F910F91FF90EF90B0
:10067000DF90CF900895EC01CE01AADFFDCFFC0101
:1006800080819181089521E02093CF071092CE07B9
:100690009093CD078093CC0708950F93CF9320912B
:1006A000CC073091CD0721153105B1F0C82F4FEFA0
:1006B0005FEFBA01C9010E94E910C093CF0700E0C3
:1006C00020E030E0A90160E070E08091CC079091DB
:1006D000CD070E945D0F02C08093CF07CF910F918D
:1006E00008950F93CF93DF932091CC073091CD07DE
:1006F00021153105B9F0EC014FEF5FEFBA01C901E7
:100700000E94E9108091CF07888300E020E030E06C
:10071000A90160E070E08091CC079091CD070E9424
:100720005D0F04C02091CF07FC012083DF91CF91A2
:100730000F9108950F93CF932091CC073091CD075F
:1007400021153105B1F0C82F4FEF5FEFBA01C90194
:100750000E94E910C093CE0700E020E030E0A9013C
:1007600060E070E08091CC079091CD070E945D0F12
:1007700002C08093CE07CF910F9108950F93CF932E
:10078000DF932091CC073091CD0721153105B9F0C9
:10079000EC014FEF5FEFBA01C9010E94E9108091AF
:1007A000CE07888300E020E030E0A90160E070E03F
:1007B0008091CC079091CD070E945D0F04C02091DD
:1007C000CE07FC012083DF91CF910F91089568E05F
:1007D00070E081E090E00E947D2F009749F0FC01DD
:1007E000138212821582148211821082178216825D
:1007F0000895009749F09B01285C3109293436425D
:1008000018F4FC01718360830895009739F0693E04
:1008100023E0720718F4FC01758364830895009740
:1008200049F09B0120573E4F273B334018F4FC0111
:10083000738362830895009731F06739710518F466
:10084000FC01778366830895FC01DB0112966C91AD
:10085000129713967C91139714964C9114971596B2
:100860005C9115972C9111963C91119716968C914D
:10087000169717969C91A1E0A083A8E0A1837283AC
:100880006383548345833683278390878187CF0191
:10089000089521E0FC01208322E02183128213824B
:1008A00008952F923F924F925F926F927F928F9214
:1008B0009F92AF92BF92CF92DF92EF92FF920F93EF
:1008C0001F93CF93DF9300D01F92CDB7DEB7282EB2
:1008D000362E5C834B83280139016AE070E081E0A9
:1008E00090E00E947D2F9A838983009709F440C08D
:1008F000FC01918280828A8D9B8D938382838C8D73
:100900009D8D9583848363DFE981FA819783868354
:100910008B819C819093F3078093F2074092EE07BE
:100920005092EF076092F0077092F107F092ED0796
:10093000E092EC07A092E807B092E907C092EA07BC
:10094000D092EB078E8D9F8D9093E7078093E607FB
:10095000432D50E048535F4F7F0198E0E90EF11CB2
:10096000022D9F016CE772E08DED95E00E94551518
:1009700089819A810F900F900F900F90DF91CF9106
:100980001F910F91FF90EF90DF90CF90BF90AF90AD
:100990009F908F907F906F905F904F903F902F909F
:1009A0000895AF92BF92CF92DF92EF92FF920F9392
:1009B0001F93CF93DF93CDB7DEB766970FB6F8944A
:1009C000DEBF0FBECDBF5C0181E090E03AD68C0166
:1009D00088DEF8018081882309F4BCC081E090E0C2
:1009E00030D68C01CBDEF8018081882311F069D2EA
:1009F00001C06CD24091EE075091EF076091F00773
:100A00007091F1078091F2079091F30734D54091EE
:100A1000E8075091E9076091EA077091EB07CC2451
:100A2000CA94DC2C760101E021E08091EC079091E2
:100A3000ED0761D40091E8071091E9072091EA07DA
:100A40003091EB07DC01CB0180239123A223B32358
:100A5000081719072A073B0709F09EC0F501808196
:100A600091810DDEBC01F50186819781C2DEF50121
:100A700084819581E8D2BC01F50186819781DBDE16
:100A8000F5018281938116D2BC01F501868197819F
:100A9000C6DEF5018281938109D2BC01F501868110
:100AA0009781B3DEF50180819181E9DD9F938F937A
:100AB00083E892E09F938F930E947031F5018281C9
:100AC0009381F8D19F938F938FE892E09F938F93B8
:100AD0000E947031F50182819381E8D19F938F93B9
:100AE00083EA92E09F938F930E947031F501848195
:100AF0009581A9D29F938F9384EB92E09F938F93DC
:100B00000E947031F50166817781CE0101969CDEED
:100B100086E1FE013196A0EDB7E001900D928A9535
:100B2000E1F70FEF1FEF980146E150E060ED77E04D
:100B30008091E6079091E7070E94251360ED77E02A
:100B400080E090E00E9417180FB6F894DEBF0FBE49
:100B5000CDBF22C068E873E180E090E00E941718E2
:100B6000F50166817781CE01019693DE86E1FE0173
:100B70003196A0EDB7E001900D928A95E1F70FEF65
:100B80001FEF980146E150E060ED77E08091E607C5
:100B90009091E7070E94251366960FB6F894DEBF82
:100BA0000FBECDBFDF91CF911F910F91FF90EF90BE
:100BB000DF90CF90BF90AF900895EC01CE01F1DEB1
:100BC000FDCFEF92FF920F939B01E12CF12C082FA8
:100BD00048E851E062EC72E087E896E00E94551523
:100BE0000F91FF90EF9008950F931F93CF93DF9392
:100BF0000FEF1FEF980146E150E064EF77E00E94AD
:100C00001214C4EFD7E089811F928F938B811F92BA
:100C10008F938A811F928F938BEC92E09F938F9397
:100C20000E9470318DB79EB708960FB6F8949EBF9C
:100C30000FBE8DBF8981823009F064C0FE01CA8178
:100C40008381C80F81E090E0FCD48C01C537E9F0C6
:100C500018F4C43739F052C0C63851F1C73809F416
:100C60003AC04CC080E019DDC8013BDDF80180814D
:100C70001F928F938CEF92E09F938F930E9470311D
:100C80000F900F900F900F903DC081E006DDC801DE
:100C900028DDF80180811F928F938CEF92E09F9363
:100CA0008F930E9470310F900F900F900F902AC079
:100CB00080E040DDC80162DDF80180811F928F93E2
:100CC0008EE193E09F938F930E9470310F900F906D
:100CD0000F900F9017C081E02DDDC8014FDDF801A6
:100CE00080811F928F938EE193E09F938F930E9458
:100CF00070310F900F900F900F9004C085E493E037
:100D00000E948331DF91CF911F910F910895EC01E3
:100D1000CE016ADFFDCF2F923F924F925F926F928A
:100D20007F928F929F92AF92BF92CF92DF92EF927B
:100D3000FF920F931F93CF93DF93882E962E1A0165
:100D40002801390166E070E081E090E00E947D2F8B
:100D5000EC01009761F1198218821B821A8230928D
:100D600015082092140840921008509211086092C1
:100D7000120870921308F0920F08E0920E08A092E9
:100D80000A08B0920B08C0920C08D0920D08492DA9
:100D900050E048535F4F7C0184E0E80EF11C082DC1
:100DA0009E0165E573E082E597E00E945515CE014E
:100DB000DF91CF911F910F91FF90EF90DF90CF9037
:100DC000BF90AF909F908F907F906F905F904F906B
:100DD0003F902F900895CF92DF92EF92FF920F9362
:100DE0001F93CF93DF93EC014091100850911108AD
:100DF0006091120870911308CC24CA94DC2C7601FF
:100E000001E021E0809114089091150874D20091BE
:100E10001008109111082091120830911308DC017C
:100E2000CB0180239123A223B323081719072A0794
:100E30003B0779F50E94E01F62E370E080E090E0FC
:100E40000E9417180E94F51F65E070E080E090E0B6
:100E50000E9417180E94DD1F882341F00E941B206A
:100E6000998388830E9441209B838A8368EE73E084
:100E700080E090E00E94171840910A0850910B08FA
:100E800060910C0870910D0880910E0890910F08E8
:100E9000F2D2DF91CF911F910F91FF90EF90DF90F1
:100EA000CF900895EC01CE0196DFFDCFFC0180814B
:100EB00091810895FC018281938108950C94A1276A
:100EC000089564E680E00C94892708956CE980E039
:100ED0000C94892708952F923F924F925F926F92C0
:100EE0007F928F929F92AF92BF92CF92DF92EF92BA
:100EF000FF920F931F93CF93DF93882E962E1A01A4
:100F00002801390164E070E081E090E00E947D2FCB
:100F1000EC01009761F1FC011192119230922108CD
:100F20002092200840921C0850921D0860921E08D2
:100F300070921F08F0921B08E0921A08A0921608FF
:100F4000B0921708C0921808D0921908492D50E0A5
:100F500048535F4F7F01082D9C0166E673E08FE1E7
:100F600098E00E94551582E793E00E948331CE01FC
:100F7000DF91CF911F910F91FF90EF90DF90CF9075
:100F8000BF90AF909F908F907F906F905F904F90A9
:100F90003F902F900895CF92DF92EF92FF920F93A0
:100FA0001F93CF93DF93EC0140911C0850911D08D3
:100FB00060911E0870911F08CC24CA94DC2C760125
:100FC00001E021E0809120089091210894D10091C6
:100FD0001C0810911D0820911E0830911F08DC018B
:100FE000CB0180239123A223B323081719072A07D3
:100FF0003B07E1F480E090E076DACB010E94023119
:101000000E94FF3069E670E00E942C2F0F969983B2
:1010100088834091160850911708609118087091C4
:10102000190880911A0890911B0825D2DF91CF9161
:101030001F910F91FF90EF90DF90CF900895EC01FA
:10104000CE01A9DFFDCFFC01808191810895EF924F
:10105000FF920F939B01E12CF12C082F48E851E0FF
:1010600061E873E08EE499E00E9455150F91FF90BE
:10107000EF900895DF92EF92FF920F931F93CF931B
:10108000DF937C01809122088111CFC081E00E9412
:10109000612362E070E080E090E00E94171880E039
:1010A0000E94612366E970E080E090E00E941718DA
:1010B0000E94172381E00E946F210E9475230E94E5
:1010C000F2259F938F938AE893E09F938F930E94DA
:1010D00070310E94F3240E94F2259F938F938DE933
:1010E00093E09F938F930E94703189E398E00E9470
:1010F00087230E94F225C9E3D8E0DF93CF939F9323
:101100008F9386EB93E09F938F930E947031CE0173
:101110000E94A3230E94F2259F938F93DF93CF9386
:101120008AEC93E09F938F930E947031AE016FED34
:1011300073E080E094E00E94D1250E94F2259F9305
:101140008F93DF93CF938FED93E09F938F9380E006
:1011500094E09F938F9381E194E09F938F930E94FB
:1011600070310E94D6230E94F2259F938F9387E4CB
:1011700094E09F938F930E9470318DB79EB78296B3
:101180000FB6F8949EBF0FBE8DBF81E00E94D024A1
:101190000E94F2259F938F9386E594E09F938F930F
:1011A0000E94703184EF91E00E94DB240E94F225BE
:1011B0009F938F9381E08F9384EF8F9387E794E0E1
:1011C0009F938F930E9470318DB79EB70A960FB68A
:1011D000F8949EBF0FBE8DBFCAE0D0E007E914E0CF
:1011E00080E00E94DC23D82E0E94F2259F938F93EB
:1011F000DF93CF931F930F930E9470310F900F9046
:101200000F900F900F900F9088E0D81689F180E032
:101210000E94DB2166E371E080E090E00E941718F5
:101220002197F1F62CC03FD4FECF00E010E09801EA
:1012300042E350E063E278E0C7010E941214029793
:1012400028F183E00E94ED2163E278E080E00E94D3
:1012500005240E94F2259F938F9387EB94E09F9340
:101260008F930E9470310F900F900F900F900EC0CF
:1012700081E00E94BD2181E080932208D6CF81E0E9
:101280000E94CC2180E00E949621CDCFDF91CF91AA
:101290001F910F91FF90EF90DF900895EC01CE0128
:1012A000E9DE68EB7BE080E090E00E941718F7CF62
:1012B000E8E0F1E09081907F908390818F70982B8F
:1012C00090830895E8E0F1E08081807F8083089535
:1012D000CF93DF9380E190E0B4D1EC01009739F037
:1012E000FC011192119211921192CF0194D2CE0170
:1012F000DF91CF9108952F923F924F925F926F921C
:101300007F928F929F92AF92BF92CF92DF92EF9295
:10131000FF920F931F93CF93DF93EC014A015B0180
:10132000622E702E0E94B216288039804A805B801F
:1013300001110DC081E0B201A101482159216A21AA
:101340007B21452B462B472B79F480E00DC081E0B3
:10135000B201A101482159216A217B214815590573
:101360006A057B0509F080E0882381F0662009F496
:101370006BC080949094A094B09482209320A42079
:10138000B52088829982AA82BB825EC0C114D10432
:10139000E104F10409F458C0662029F040E050E06F
:1013A00060E071E003C040E050E0BA017110746089
:1013B000482959296A297B2997018601CE0104967B
:1013C0000E94C6180E949B17811101C06CD30E9415
:1013D0000D1B91FD35C00FB6F8940F92688179818D
:1013E0008A819B8171100DC021E075016401C622C4
:1013F000D722E822F922CD28CE28CF2879F420E080
:101400000DC021E075016401C622D722E822F9222D
:10141000C814D904EA04FB0409F020E0222371F087
:10142000662061F080949094A094B09486229722D4
:10143000A822B92288829982AA82BB820F900FBE0D
:101440001B012C01552402C00E949B17C201B1014F
:10145000DF91CF911F910F91FF90EF90DF90CF9090
:10146000BF90AF909F908F907F906F905F904F90C4
:101470003F902F9008954F925F926F927F928F923C
:101480009F92AF92BF92CF92DF92EF92FF920F9313
:101490001F93CF93DF93EC016A017B018C01095FFD
:1014A0001F4F0E94B216EB85FC8588819981AA8125
:1014B000BB81C82AD92AEA2AFB2AC882D982EA82B1
:1014C000FB820E171F0709F445C0C12CD12C7601F1
:1014D00099249394812CA480B58080819181A281EC
:1014E000B381AC01BD017727B2FD0FC048805980A0
:1014F0006A807B804422552266227722292D452846
:101500004628472889F4282D0FC0488059806A80D2
:101510007B804422552266227722292D44165506C7
:101520006606770609F0282D222371F0B0FF04C06B
:10153000C42AD52AE62AF72A488159816A817B8103
:101540007260CF010E944C19EA2DFB2D0E171F0768
:1015500011F603C0C12CD12C7601C094D094E09434
:10156000F09488819981AA81BB81C822D922EA227C
:10157000FB22C882D982EA82FB820E949B17688183
:1015800079818A819B81DF91CF911F910F91FF908B
:10159000EF90DF90CF90BF90AF909F908F907F9013
:1015A0006F905F904F900895CF93DF93DC01E5EA51
:1015B000F8E001C0F901208131812A173B07D0F3FF
:1015C00082819381AF01480F591FA417B50749F4D1
:1015D00012964D915C911397840F951F938382838C
:1015E000DF0112968D919C911397ED01C80FD91FC1
:1015F0002C173D07D9F42091A3083091A408C217F5
:10160000D30781F02A813B81820F931F13969C930D
:101610008E931297C081D1818881998111969C9374
:101620008E9307C01196DC93CE9303C011963C9322
:101630002E93AE17BF0711F0B183A083DF91CF9136
:101640000895CF92DF92EF92FF920F931F93CF9363
:10165000DF93EC010E94B2168091A3089091A40838
:10166000892B41F5E5EAF8E0A9EAB8E0B183A08367
:1016700013821282E5E4F8E1F093A408E093A30852
:1016800013821282118210828CE99FE013969C9340
:101690008E931297ED93FC939093A00880939F08EC
:1016A0009093A2088093A10880E090E890939E0810
:1016B00080939D08E0909D08F0909E08C7018C23C0
:1016C0009D23892B09F066C0209709F466C0AE01FE
:1016D0004C5F5F4F09F45EC00091A1081091A20811
:1016E0000417150708F456C0C091A508D091A608A4
:1016F000E5EAF8E002C0FE01E9012A813B812417F6
:10170000350728F42881398121153105A1F7809109
:10171000A3089091A408C817D907E1F1C080D1802F
:1017200084E0C80ED11C88819981918380832A81AD
:101730003B81241B350B2930310548F0CE01840F45
:10174000951FFC01338322835B834A832DDF8A81CB
:101750009B81081B190B1093A2080093A1082091EC
:101760009F083091A0080217130720F41093A008D7
:1017700000939F08E82AF92AFB82EA8219821882DC
:101780000E949B17C114D10459F40E94701EC12CF1
:10179000D12C06C00E949B17F8CF0E949B17F5CF53
:1017A000C601DF91CF911F910F91FF90EF90DF90D5
:1017B000CF900895CF93DF93009751F1FC013497B8
:1017C0002281338140919D0850919E08B901642384
:1017D0007523672BE9F060817181672BC9F4EF01F4
:1017E0004095509524233523338322830E94B216DB
:1017F0002091A1083091A2088A819B81820F931FBA
:101800009093A2088093A108CE01CEDE0E949B1780
:10181000DF91CF910895FC010396928381834FEF6E
:101820005FEFBA0143835483658376839087878310
:101830009287818710820895FC011386128608958D
:10184000CF93DF939C01FB01DC011196CD91DC91DC
:101850001297D583C4838E819F81978386838E81DF
:101860009F81DC0115967C936E9314977F836E8322
:1018700033872287F90180818F5F8083DF91CF9149
:1018800008950F931F93CF93DF93EB010881198184
:101890002A813B810F3F4FEF14072407340721F4BF
:1018A000FC01A185B28511C0DC01139601C0DF01E6
:1018B0001496ED91FC91159740815181628173815D
:1018C000041715072607370790F71496ED91FC913A
:1018D0001597FD83EC83D783C683BF83AE831596AC
:1018E000DC93CE9314979B878A87FC0120812F5F1E
:1018F0002083DF91CF911F910F910895CF93DF93B4
:10190000FC01A285B385C481D581868197819F839F
:101910008E83C681D781848195819D838C83119626
:101920008D919C911297E817F90731F48681978180
:1019300012969C938E931197138612868C918150E8
:101940008C938C91DF91CF91089531E1FC0130832C
:10195000319722E220833197A3E3A08331976083FC
:10196000319770833197108231971082319760E8F8
:1019700060833197108231971082319710823197AE
:1019800062E06083319763E06083319764E0608355
:10199000319765E06083319766E06083319767E057
:1019A0006083319768E06083319769E060833197A5
:1019B00060E1608331973083319732E13083319732
:1019C00033E13083319734E13083319735E130832F
:1019D000319736E13083319737E13083319738E101
:1019E0003083319739E13083319730E2308331975A
:1019F00031E2308331972083319723E2208331977E
:101A0000408331975083319726E22083319727E234
:101A10002083319728E22083319729E22083319770
:101A200020E32083319721E3208389970895A895A7
:101A300090EC88E10FB6F894A895809360000FBEF3
:101A400090936000A091D918B091DA18CD91CDBFD4
:101A5000DD91DEBFFF91EF91DF91CF91BF91AF910B
:101A60009F918F917F916F915F914F913F912F91B6
:101A70001F910F91FF90EF90DF90CF90BF90AF90AC
:101A80009F908F907F906F905F904F903F902F909E
:101A90001F900F900CBE0F900BBE0F900FBE0F90BB
:101AA000089581E008950F920FB6F8940F920BB647
:101AB0000F920CB60F921F9211242F923F924F92C9
:101AC0005F926F927F928F929F92AF92BF92CF92CE
:101AD000DF92EF92FF920F931F932F933F934F93B9
:101AE0005F936F937F938F939F93AF93BF93CF93A6
:101AF000DF93EF93FF93A091D918B091DA180DB648
:101B00000D920EB60D920E943018A091D918B09186
:101B1000DA18CD91CDBFDD91DEBFFF91EF91DF915E
:101B2000CF91BF91AF919F918F917F916F915F9175
:101B30004F913F912F911F910F91FF90EF90DF9068
:101B4000CF90BF90AF909F908F907F906F905F905D
:101B50004F903F902F901F900F900CBE0F900BBE98
:101B60000F900FBE0F9008950F920FB6F8940F923A
:101B70000BB60F920CB60F921F9211242F923F9228
:101B80004F925F926F927F928F929F92AF92BF928D
:101B9000CF92DF92EF92FF920F931F932F933F9379
:101BA0004F935F936F937F938F939F93AF93BF9365
:101BB000CF93DF93EF93FF93A091D918B091DA18E8
:101BC0000DB60D920EB60D9213BE0E94C61681116F
:101BD0000E943018A091D918B091DA18CD91CDBFDC
:101BE000DD91DEBFFF91EF91DF91CF91BF91AF917A
:101BF0009F918F917F916F915F914F913F912F9125
:101C00001F910F91FF90EF90DF90CF90BF90AF901A
:101C10009F908F907F906F905F904F903F902F900C
:101C20001F900F900CBE0F900BBE0F900FBE0F9029
:101C300008959ADF18950FB6F8940F92FC01968DCF
:101C40000F900FBE81E0911180E008950F931F93D4
:101C5000CF93DF93EC01042F1E8D48A141110CC0DE
:101C600088819981892B09F042C08C819D810E94D5
:101C7000811A1D821C8242C0011117C050E08A8166
:101C80009B810E94113128A18A819B81820F911D25
:101C90009B838A832C813D818217930750F1888131
:101CA00099819B838A8380E029C050E08E819F8147
:101CB0000E94113188A190E09195819591092E8122
:101CC0003F81280F391F3F832E8348815981241774
:101CD000350730F42C813D81820F931F9F838E83C3
:101CE000023049F4112349F0115080E007C080E030
:101CF00005C080E003C080E001C080E01F5F1E8F50
:101D0000DF91CF911F910F910895FC0140A14423D1
:101D1000A9F050E026813781240F351F37832683B1
:101D2000848195812817390720F0808191819783DC
:101D30008683CB01668177810C9411310895EF92EF
:101D4000FF920F931F93CF938C010FB6F8940F92CD
:101D5000FC01C2A11C16ACF48389811106C011C01C
:101D6000F8018389811105C00CC07801F3E1EF0E01
:101D7000F11CC7010E940A1981110E94FC19C1506F
:101D800079F78FEFF80182A30F900FBE0FB6F8948A
:101D90000F92C1A11C16ACF48085811106C011C040
:101DA000F8018085811105C00CC07801F8E0EF0EC4
:101DB000F11CC7010E940A1981110E94FC19C1502F
:101DC00079F78FEFF80181A30F900FBECF911F918C
:101DD0000F91FF90EF900895CF93DF93EC010FB632
:101DE000F8940F92E881F9818F8D28A190E030E07E
:101DF000829FA001839F500D929F500D11244E0F82
:101E00005F1F5D834C831E8EFB83EA830197829F55
:101E1000A001839F500D929F500D1124CF01840F7C
:101E2000951F9F838E838FEF89A38AA361110BC0B7
:101E30008885882371F0CE0108960E940A198823AC
:101E400041F031DE06C0CE010896E5DCCE014396B6
:101E5000E2DC0F900FBE81E0DF91CF910895FF92F9
:101E60000F931F93CF93DF93082F162FF42E662323
:101E7000B9F0869FC00111248596E3DBEC01009741
:101E800041F414C00F8F18A361E0CE01A5DFFCA2BE
:101E90000DC0859699838883F5CFD983C883F2CF07
:101EA00085E290E0CEDBEC01892BB9F7CE01DF9122
:101EB000CF911F910F91FF9008959F92AF92BF9283
:101EC000CF92DF92EF92FF920F931F93CF93DF9306
:101ED000CDB7DEB729970FB6F894DEBF0FBECDBFE2
:101EE0007C015B012E833F834887598710E099244A
:101EF00093946C0188E0C80ED11C0FB6F8940F9231
:101F0000F701968D878D981710F00230B1F4402FAD
:101F1000B501C7019BDEF7019389992341F0C70101
:101F200043960E940A19882321F0BDDD02C0811169
:101F3000BADD0F900FBE81E04EC08E819F81A885D3
:101F4000B985892B8A2B8B2B21F40F900FBE80E053
:101F500042C0111105C0CE0101960E949619192D9B
:101F60000F900FBEFFD60FB6F8940F92F70181A124
:101F70008F3F09F411A2F70182A18F3F09F412A249
:101F80000F900FBEBE016A5F7F4FCE0101960E9487
:101F9000A71981111CC00FB6F8940F92F701968D06
:101FA000878D0F900FBE98130EC04E815F8168859C
:101FB0007985C6010E94AF18C701C1DEBCD7811167
:101FC0009CCF71DD9ACFC701BADEB5D796CFC701D6
:101FD000B6DEB1D780E029960FB6F894DEBF0FBE0B
:101FE000CDBFDF91CF911F910F91FF90EF90DF90C8
:101FF000CF90BF90AF909F9008950F93CF93DF93B2
:10200000482F60E081E02BDFEC01009761F01D823A
:102010001C82198218821E8200E020E030E0A901B3
:1020200060E070E04ADFCE01DF91CF910F9108951B
:10203000EF92FF920F931F93CF93DF938A01FC01DE
:10204000568D378D531710F02230E9F4422F780166
:10205000EC011AA1FBDD1F3F81F48B898823A9F0D5
:10206000CE0143960E940A19882389F0E114F104F5
:1020700081F081E0F70180830DC0FF24F394F10E1D
:10208000FAA281E007C080E005C081E003C081E0E2
:1020900001C081E0DF91CF911F910F91FF90EF90F0
:1020A00008959F92AF92BF92CF92DF92EF92FF92EC
:1020B0000F931F93CF93DF93CDB7DEB729970FB65A
:1020C000F894DEBF0FBECDBF8C015B012E833F8332
:1020D00048875987E12C992493946C0183E1C80EB9
:1020E000D11C0FB6F8940F92F801F68CFF2099F0EE
:1020F000B501C8010ADEFA94F801F68E80858823BE
:1021000031F0C80108960E940A198111CCDC0F90A9
:102110000FBE81E04CC08E819F81A885B985892B37
:102120008A2B8B2B21F40F900FBE80E040C0E11072
:1021300005C0CE0101960E949619E92C0F900FBEA2
:1021400011D60FB6F8940F92F80181A18F3F09F4D0
:1021500011A2F80182A18F3F09F412A20F900FBEC5
:10216000BE016A5F7F4FCE0101960E94A7198111BF
:1021700015C0C80160DD882369F04E815F816885E4
:102180007985C601ECD7C801DADDD5D68111A9CF92
:102190008ADCA7CFC801D3DDCED6A3CFC801CFDD5F
:1021A000CAD6C80148DD882309F49BCF80E0299670
:1021B0000FB6F894DEBF0FBECDBFDF91CF911F9158
:1021C0000F91FF90EF90DF90CF90BF90AF909F90D6
:1021D0000895BF92CF92DF92EF92FF920F931F93D9
:1021E000CF93DF93CDB7DEB729970FB6F894DEBF54
:1021F0000FBECDBF8C014E835F8368877987B12C7A
:10220000D12CCC24C3947C0183E1E80EF11C0FB6E1
:10221000F8940F92D8015E968C915E978823D9F03E
:1022200081505E968C935E978D919C91892B29F4B9
:102230000E94371BF80195838483D80118968C91EE
:10224000882329F0C8010896E5D781112CDC0F906E
:102250000FBE81E07AC08E819F81A885B985892BC8
:102260008A2B8B2B21F40F900FBE80E06EC0D11013
:1022700005C0CE0101960E949619DC2C0F900FBE6E
:1022800071D50FB6F8940F92F80181A18F3F09F430
:1022900011A2D80192968C9192978F3F11F4929649
:1022A0001C920F900FBEBE016A5F7F4FCE01019658
:1022B0000E94A719811124C0C801BDDC8823E1F068
:1022C000F80180819181892B51F40FB6F8940F9217
:1022D000848195810E94131AB82E0F900FBE4E81F3
:1022E0005F8168857985C7013AD7C80128DD23D683
:1022F00081118DCFD8DB8BCFC80121DD1CD687CFD4
:10230000C8011DDD18D6C80196DC882309F47FCFEB
:10231000BB20D1F00FB6F8940F92F801838988237F
:1023200039F0028CF38DE02D808166E0681B01C0DE
:1023300060E0D80114968D919C9115970E94C11A66
:102340000F900FBE80E001C080E029960FB6F89490
:10235000DEBF0FBECDBFDF91CF911F910F91FF90D8
:10236000EF90DF90CF90BF900895CF93DF93EC0173
:102370000FB6F8940F9289A18F3F09F419A28AA190
:102380008F3F09F41AA20F900FBE8E8D811103C0EA
:10239000CE0143961FD7CE01D2DCDF91CF910895B5
:1023A000FC014481558122813381240F351F8081B6
:1023B0009181B901681B790BCB016417750710F087
:1023C000841B950B0895AF92BF92CF92DF92EF924C
:1023D000FF920F931F93CF93DF936C015B017A0100
:1023E000FC01C281D381048115810C1B1D0B401798
:1023F000510708F48A01F60184859585A801B50185
:102400008C0F9D1F0E9411310E151F0558F4A70156
:10241000401B510BB501600F711FF6018485958536
:102420000E941131CE018E0D9F1DF6012481358150
:102430008217930710F0821B930BF601938382831C
:10244000C701DF91CF911F910F91FF90EF90DF9027
:10245000CF90BF90AF900895CF92DF92EF92FF920E
:102460000F931F93CF93DF931F921F92CDB7DEB7C9
:102470005A83498321153105C9F06B017C01FC01A8
:10248000868580FD08C0CA012417350708F4C901F4
:102490009A83898311C02017310758F042E050E039
:1024A000BE016F5F7F4FC7018EDF06C080E090E006
:1024B00008C080E090E005C049815A81B601C7019B
:1024C00082DF0F900F90DF91CF911F910F91FF90BE
:1024D000EF90DF90CF900895AF92BF92CF92DF92AE
:1024E000EF92FF920F931F93CF93DF937C015B01D9
:1024F000E9014217530708F4EA01209779F1F7013F
:1025000000811181C480D580C01AD10ACC15DD05A7
:1025100008F46E01F70164857585600F711FA601CF
:10252000C5010E941131CC16DD0658F4AE014C19DC
:102530005D09F70164857585C5018C0D9D1D0E949F
:1025400011310C0F1D1FF7018481958108171907A0
:1025500010F0081B190BF70111830083CE01DF91E6
:10256000CF911F910F91FF90EF90DF90CF90BF9090
:10257000AF900895EF92FF921F93CF93DF93EB01FB
:1025800011E0413009F010E0209711F4C1E0D0E0F3
:102590007C012FEFE21AF20A419653D8009781F09E
:1025A00020E1FC0111922A95E9F79C01205F3F4F41
:1025B000FC0135872487F582E482D783C68316879A
:1025C000DF91CF911F91FF90EF900895CF93DF930C
:1025D000FC0127850FB6F8940F9280859185892B91
:1025E000D1F482859385892BC1F4868546815781F4
:1025F00064817581A485B58590E1EF0119929A9562
:10260000E9F7B587A48775836483578346838687F4
:10261000278781E003C080E001C080E00F900FBEFB
:10262000DF91CF910895FC012481358180819181D2
:1026300042815381820F931F0197841B950B821750
:10264000930710F0821B930B08952F923F924F92A5
:102650005F926F927F928F929F92AF92BF92CF9232
:10266000DF92EF92FF920F931F93CF93DF93CDB73B
:10267000DEB729970FB6F894DEBF0FBECDBF5C0161
:102680001B012A010E831F8328873987FC01868559
:1026900080FF05C03A01F2E06F0E711C01C03A01E3
:1026A0008E819F81A885B985892B8A2B8B2B09F474
:1026B00034C0CE01019624D60FB6F8940F92C5010E
:1026C000B2DF4C018615970518F580E090E00E9476
:1026D000D41C96D6F501938782870F900FBECE80CB
:1026E000DF80E884F98400E010E020E030E0A90118
:1026F00060E070E0CB01CDD7F50113861286BE01F4
:102700006A5F7F4FCE01019622D68823A9F202C0CC
:102710000F900FBE8114910419F4C50184DF4C01A0
:1027200083019401A201B101C50196DE7C01892BD0
:10273000E1F0C50135DEF501268137818217930767
:10274000A0F010D3F50180859185892B69F08085F3
:10275000918500E010E020E040E050E0BA010E94E6
:10276000D31BF50111861086E6D3C70129960FB653
:10277000F894DEBF0FBECDBFDF91CF911F910F91B7
:10278000FF90EF90DF90CF90BF90AF909F908F9091
:102790007F906F905F904F903F902F900895AF92F1
:1027A000BF92CF92DF92EF92FF920F931F93CF933E
:1027B000DF93EC015B016A0179018E8580FF04C023
:1027C0008A010E5F1F4F01C08A01CE012CDF9C01E0
:1027D000A601B501CE0140DE6C01892BB9F0CE0116
:1027E000DFDD2E813F818217930780F088859985F0
:1027F000892B61F08885998500E010E020E040E0B9
:1028000050E0BA010E944B1C19861886C601DF9160
:10281000CF911F910F91FF90EF90DF90CF90BF90DD
:10282000AF9008954F925F926F927F928F929F9296
:10283000AF92BF92CF92DF92EF92FF920F931F93CE
:10284000CF93DF931F921F92CDB7DEB75C012B01B0
:102850003A0168017901FC01868580FD03C0812C65
:10286000912C04C06894882481F8912CC114D1045F
:10287000E104F10431F10FB6F8940F92C50190DD37
:102880008C018816990640F080E090E00E94D41CEC
:10289000B7D5F501918780870F900FBE80169106FE
:1028A000B0F000E010E020E030E0A90160E070E06E
:1028B000CB01EFD6F50111861086C50171DD8C01C3
:1028C00003C0C5016DDD8C0180169106B8F5811439
:1028D0009104C1F0F501E080F1809801A401BE01EE
:1028E0006F5F7F4FC501F8DD89819A810819190949
:1028F0006816790630F4F501F182E082612C712CC2
:1029000001C03C019801A301B201C501E5DD7C01D4
:10291000892BB1F027D2F50182859385892B61F04F
:102920008285938500E010E020E040E050E0BA01AD
:102930003AD7F50113861286FED202C0E12CF12CA3
:10294000C7010F900F90DF91CF911F910F91FF90D2
:10295000EF90DF90CF90BF90AF909F908F907F903F
:102960006F905F904F900895E0917F18F0918018DC
:10297000808181110CC08FEF9FEFDC0180934C1898
:1029800090934D18A0934E18B0934F180895E0916E
:102990007F18F09180180780F085E02D0084F18584
:1029A000E02D82819381A481B58180934C1890930E
:1029B0004D18A0934E18B0934F1808958F929F9280
:1029C000AF92BF92CF92DF92EF92FF92CF936B01C3
:1029D0007C01C42F8090561890905718A0905818DA
:1029E000B09059188091D9189091DA1802960E94E7
:1029F0007E0C8FEFC816D806E806F80669F4CC23DB
:102A000059F06091D9187091DA186E5F7F4F8BE59D
:102A100098E10E94200C3FC0C80CD91CEA1CFB1C8A
:102A2000E091D918F091DA18C282D382E482F5825B
:102A3000C814D904EA04FB0468F46091D9187091B1
:102A4000DA1880917D1890917E186E5F7F4F0E94FA
:102A5000410C21C06091D9187091DA1880917F18CB
:102A6000909180186E5F7F4F0E94410C80914C18AE
:102A700090914D18A0914E18B0914F18C816D906D4
:102A8000EA06FB0640F4C0924C18D0924D18E09232
:102A90004E18F0924F18CF91FF90EF90DF90CF90AB
:102AA000BF90AF909F908F9008954F925F926F92DA
:102AB0007F928F929F92AF92BF92CF92DF92EF92CE
:102AC000FF920F931F93CF93DF934C016B015A0139
:102AD0002901CA010E94210B3C01892B09F4F4C091
:102AE00080E390E00E94210BEC01892B99F07C8E11
:102AF0006B8EA50165EA70E0C3010E941A3121E0E6
:102B0000A21AB1088B8D9C8DA80EB91EC114D104D8
:102B100029F420C0C3010E94DA0BD6C0D6018C91E3
:102B20008D8F8C918823A1F0AE01425E5F4FF6013C
:102B30003196B8E0CB0ED11CCF012191DA012D9353
:102B4000AD01DC018C91882319F0CE16DF06A1F7C8
:102B50001CA201C01D8E063008F005E00A8F0FA3ED
:102B600018A66E01B2E0CB0ED11CC6010E941C0C4F
:102B7000CE010E960E941C0CDB87CA8786E090E08F
:102B8000A0E0B0E0801B9109A109B1098E879F8761
:102B9000A88BB98BDF8BCE8B1AA619A61BA61CA6F9
:102BA0001DA61EA61FA6A201B401C5010E94A50C68
:102BB00099838883E114F10419F0F701D183C0836C
:102BC0000FB6F8940F9280915A188F5F80935A181D
:102BD0008091D9189091DA18892BD1F5D093DA1811
:102BE000C093D91880915A18813009F041C007E983
:102BF00018E10F2EF9EDEF2EF8E1FF2EF02DC801B0
:102C00000E940B0C055F1F4F0E151F05C1F78CE8C6
:102C100098E10E940B0C81E898E10E940B0C82E77E
:102C200098E10E940B0C87E698E10E940B0C8BE563
:102C300098E10E940B0C8CE898E1909380188093A7
:102C40007F1881E898E190937E1880937D1810C0DA
:102C50008091541881110CC0E091D918F091DA18C4
:102C6000928D8A8D891720F0D093DA18C093D918E5
:102C7000809150188F5F809350188DA38A8D90910A
:102C80005518981710F480935518FBE08F9FC001DA
:102C90001124B6018956974E0E94200C0F900FBE4A
:102CA00080915418882361F0E091D918F091DA18D6
:102CB000928D8A8D981730F40E94530D81E005C0E3
:102CC00081E003C081E001C08FEFDF91CF911F91C0
:102CD0000F91FF90EF90DF90CF90BF90AF909F90BB
:102CE0008F907F906F905F904F900895EF92FF923A
:102CF0000F930F2EFAE4EF2EF8E1FF2EF02D00E0F7
:102D000020E030E040EC50E06CEC74E08DEC90E0C2
:102D1000CCDE813019F5CED6813001F5F8948FEFF5
:102D20009FEFDC0180934C1890934D18A0934E18A0
:102D3000B0934F1881E08093541810925618109257
:102D400057181092581810925918E091D918F0910C
:102D5000DA1881A50E9458090E94170D0F91FF9063
:102D6000EF900895809149188F5F809349180895D6
:102D70000FB6F8940F926091561870915718809181
:102D80005818909159180F900FBE08959F92AF92C6
:102D9000BF92CF92DF92EF92FF920F931F93CF9348
:102DA000DF93809149188111ADC0C0905618D09022
:102DB0005718E0905818F09059188FEFC81AD80A91
:102DC000E80AF80AC0925618D0925718E09258189C
:102DD000F0925918C114D104E104F104B1F48091C6
:102DE0007F189091801820917D1830917E18309333
:102DF000801820937F1890937E1880937D1880917F
:102E000051188F5F80935118AFDD80914C189091CD
:102E10004D18A0914E18B0914F18C816D906EA0661
:102E2000FB0610F4B12C5DC0B12C0F2EFBE0AF2ED1
:102E3000F02D99249394E0917F18F091801880816F
:102E400081110CC08FEF9FEFDC0180934C189093A1
:102E50004D18A0934E18B0934F1843C0E0917F18BF
:102E6000F09180180780F085E02DC085D1858A819A
:102E70009B81AC81BD81C816D906EA06FB0648F4E1
:102E800080934C1890934D18A0934E18B0934F1800
:102E900028C08E010E5F1F4FC8010E947E0C888DD6
:102EA000998D892B21F0CE010E960E947E0C8A8D81
:102EB00090915518981710F480935518A89EC0014A
:102EC0001124B8018956974E0E94200CE091D91820
:102ED000F091DA189A8D828D981708F4ACCFB92C3E
:102EE000AACFE091D918F091DA18E28D8BE0E89F33
:102EF000F0011124E956F74E8081823048F0BB245E
:102F0000B39406C0809153188F5F80935318B12CEF
:102F100080915218882311F0BB24B3948B2DDF913C
:102F2000CF911F910F91FF90EF90DF90CF90BF90C6
:102F3000AF909F900895CF92DF92EF92FF920F9300
:102F40001F93CF93DF930FB6F8940F928091491897
:102F50008150809349188091491881115AC08091FD
:102F60005A1881112CC058C0D7011796ED91FC91C9
:102F70001897C085D185CE010E960E947E0C8E01D9
:102F80000E5F1F4FC8010E947E0C8A8D90915518CC
:102F9000981710F480935518D89EC0011124B801D9
:102FA0008956974E0E94200CE091D918F091DA18BA
:102FB0009A8D828D981788F0C09252180EC0C0E08A
:102FC000D0E00F2EF2E7EF2EF8E1FF2EF02D0F2EBE
:102FD000FBE0DF2EF02DCC24C394F701808181111A
:102FE000C3CFCD2B09F0C0DCC0915318CC2349F0DE
:102FF000D1E0CCDE8111D0935218C150D1F710929C
:10300000531880915218882331F00E94530D81E0AB
:1030100003C080E001C080E00F900FBEDF91CF9130
:103020001F910F91FF90EF90DF90CF900895CF9276
:10303000DF92EF92FF926B017C01672B682B692B6B
:1030400041F090DE40E0C701B601B8DC74DF8111C9
:1030500002C00E94530DFF90EF90DF90CF90089533
:1030600080914918882321F081E0809352180895B7
:1030700010925218E091D918F091DA1881A50E94A7
:103080006209A091D918B091DA18E091D918F0919D
:10309000DA182D913C91838D948D8217930758F007
:1030A0006091D9187091DA188091D9189091DA1836
:1030B000635E7F4F22D680915518282F30E09BE029
:1030C000899FF0011124E956F74E908191110EC0AD
:1030D0004BE08150282F30E0429FF001439FF00DDC
:1030E0001124E956F74E9081992399F39BE0929F22
:1030F000A001939F500D1124DA01A956B74E1196E5
:10310000ED91FC9112970480F581E02D1296FC93CD
:10311000EE9311974656574EE417F50729F444816C
:103120005581FD01528341839BE0929FF001939F63
:10313000F00D1124E956F74E0180F281E02D208533
:1031400031853093DA182093D91880935518E0917F
:10315000D918F091DA1881A50C9458090895CF92E6
:10316000DF92EF92FF926A017B016091D918709112
:10317000DA18625F7F4F0E94410C41E0C701B6013F
:103180001DDCFF90EF90DF90CF900895CF92DF92FB
:10319000EF92FF920F931F9368017901E091D91884
:1031A000F091DA18706846875787608B718B609151
:1031B000D9187091DA18625F7F4F0E94200C41E0AD
:1031C000C701B601FBDB1F910F91FF90EF90DF90DD
:1031D000CF900895CF92DF92EF92FF92CF936A0142
:1031E0007B01C22F6091D9187091DA18625F7F4F0E
:1031F0000E94200CCC2321F0CC24CA94DC2C760134
:103200004C2FC701B601DADBCF91FF90EF90DF9032
:10321000CF9008950F931F93CF93DF93DC01179600
:10322000ED91FC911897C085D1858E01025F1F4FEB
:10323000C8010E947E0C80914918811116C00C5063
:103240001109C8010E947E0C8A8D9091551898171B
:1032500010F480935518BBE08B9FC0011124B80176
:103260008956974E0E94200C05C0B80182E798E16C
:103270000E94200CE091D918F091DA189A8D828D75
:10328000891720F481E08093521801C080E0DF911B
:10329000CF911F910F9108950F931F93CF93DF93B9
:1032A0007068FC014083518362837383C085D1853C
:1032B0000E947E0C8E010E5F1F4FC8010E947E0C83
:1032C0008A8D90915518981710F480935518FBE04B
:1032D0008F9FC0011124B8018956974E0E94200C7F
:1032E000E091D918F091DA189A8D828D891718F427
:1032F00081E080935218DF91CF911F910F91089533
:103300000FB6F8940F9220915118FC012083409140
:103310005618509157186091581870915918418358
:103320005283638374830F900FBE089520915118C8
:10333000FC012083409156185091571860915818FD
:103340007091591841835283638374830895CF9297
:10335000DF92EF92FF920F931F93CF93DF93FB01C6
:103360000FB6F8940F9240915618509157186091EB
:1033700058187091591800811181228133810F3FB3
:10338000AFEF1A072A073A0749F1EC01C980DA8042
:10339000EB80FC80A0915118B881BA1729F04C1528
:1033A0005D056E057F05E0F44C195D096E097F0926
:1033B000401751076207730758F4041B150B260BBF
:1033C000370B0083118322833383B0DF80E009C091
:1033D000108211821282138281E003C080E001C05A
:1033E00081E00F900FBEDF91CF911F910F91FF9061
:1033F000EF90DF90CF90089581E080935218089568
:103400008091D9189091DA180895809154188823E2
:1034100031F080914918882321F080E0089581E0FF
:10342000089582E008950F931F93CF93DF93FC01DB
:10343000892B09F460C0828DA091D918B091DA1857
:103440005A969C91891708F04AC04685578560892D
:103450007189772394F0A091D918B091DA185A960F
:103460009C9146E050E060E070E0491B5109610921
:10347000710946875787608B718B2BE0829FC00153
:1034800011248956974E2485358528173907F1F47C
:103490008F01EF012296CE010E947E0CE091D91897
:1034A000F091DA18828DF801828F90915518981753
:1034B00010F480935518FBE08F9FC0011124BE01CA
:1034C0008956974E0E94200C81E016C0A091D91811
:1034D000B091DA185A968C91828F81E00DC0A0913C
:1034E000D918B091DA1881E027A15A969C91291732
:1034F00018F080E001C080E0DF91CF911F910F9123
:1035000008950F931F93CF93DF93FC01892B79F1DB
:1035100080A5815080A7228D97A1291751F1811193
:103520002AC0EF018F010E5F1F4FC8010E947E0C61
:103530008FA18A8F46E050E060E070E0481B51099F
:10354000610971094E875F87688B798B9091551857
:10355000981710F4809355182BE0829FC001112416
:10356000B8018956974E0E94200C81E005C080E08A
:1035700003C080E001C080E0DF91CF911F910F91E7
:1035800008950F931F93CF93DF93FC01892B09F4C8
:103590003FC087A1861708F4862F928D9817C1F136
:1035A00020A52130A9F5828F4685578560897189CC
:1035B000772364F046E050E060E070E0481B51097A
:1035C0006109710946875787608B718B2BE0929F49
:1035D000C00111248956974E24853585281739074F
:1035E000B9F4EF018F010E5F1F4FC8010E947E0CDE
:1035F0008A8D90915518981710F4809355182BE0E8
:10360000829FC0011124B8018956974E0E94200C58
:10361000DF91CF911F910F910895CF92DF92EF929A
:10362000FF92E091D918F091DA1866857785808944
:103630009189E091D918F091DA18A091D918B09138
:10364000DA185A962C910F2EF6E0CF2ED12CE12CC1
:10365000F12CF02DC21AD108E108F108C686D786F0
:10366000E08AF18AFF90EF90DF90CF9008958091EB
:10367000D9189091DA18892B39F0E091D918F09186
:10368000DA1880A58F5F80A78091D9189091DA18F9
:1036900008954F925F926F927F928F929F92AF9216
:1036A000BF92CF92DF92EF92FF920F931F93490147
:1036B0005A010FB6F8940F92E091D918F091DA18E8
:1036C00027A5223039F1E091D918F091DA1843A4F6
:1036D00054A465A476A4DC01CB0180959095A095B7
:1036E000B09584219521A621B72183A794A7A5A7EA
:1036F000B6A7E091D918F091DA1881E087A7C11434
:10370000D104E104F10431F041E0C701B60156D91A
:103710000E94530D0F900FBE0FB6F8940F92011533
:10372000110569F0E091D918F091DA1883A594A5F4
:10373000A5A5B6A5F80180839183A283B383E09108
:10374000D918F091DA1887A58230B1F4E091D91830
:10375000F091DA1883A594A5A5A5B6A580949094B8
:10376000A094B09488229922AA22BB2283A694A670
:10377000A5A6B6A681E001C080E0E091D918F0913D
:10378000DA1817A60F900FBE1F910F91FF90EF90C0
:10379000DF90CF90BF90AF909F908F907F906F9071
:1037A0005F904F9008950F931F93CF93DF93FC0189
:1037B0000FB6F8940F920115110549F083A594A551
:1037C000A5A5B6A5E80188839983AA83BB8387A5AD
:1037D00092E097A72230B1F018F4213031F02AC0DE
:1037E0002330E9F0243001F125C003A514A525A557
:1037F00036A5402B512B622B732B43A754A765A7EB
:1038000076A718C043A554A565A576A54F5F5F4F61
:103810006F4F7F4F43A754A765A776A70BC043A759
:1038200054A765A776A706C0823049F143A754A7DD
:1038300065A776A7813029F5EF018F010E5F1F4F35
:10384000C8010E947E0C8A8D90915518981710F42B
:10385000809355182BE0829FC0011124B80189562E
:10386000974E0E94200CE091D918F091DA189A8DA9
:10387000828D891740F40E94530D81E005C080E0DD
:1038800003C081E001C081E00F900FBEDF91CF91B6
:103890001F910F910895EF92FF920F931F93CF9373
:1038A000DF93FC010115110549F083A594A5A5A599
:1038B000B6A5E80188839983AA83BB8387A592E094
:1038C00097A72230B1F018F4213031F02AC023300C
:1038D000E9F0243001F125C003A514A525A536A5DE
:1038E000402B512B622B732B43A754A765A776A7B8
:1038F00018C043A554A565A576A54F5F5F4F6F4FD0
:103900007F4F43A754A765A776A70BC043A754A72B
:1039100065A776A706C08230D9F143A754A765A74B
:1039200076A78130B9F5EF0180914918811117C050
:103930008F010E5F1F4FC8010E947E0C8A8D9091EF
:103940005518981710F480935518EBE08E9FC0011E
:103950001124B8018956974E0E94200C07C0BF0160
:10396000625F7F4F82E798E10E94200CE091D918B6
:10397000F091DA189A8D828D891770F4E114F104B0
:1039800019F081E0E701888381E08093521805C037
:1039900080E003C081E001C081E0DF91CF911F9101
:1039A0000F91FF90EF900895009721F48091D9181E
:1039B0009091DA180FB6F8940F92FC0127A52230E7
:1039C00019F417A681E001C080E00F900FBE0895A2
:1039D000CF92DF92EF92FF920F931F93FC014283ED
:1039E000538364837583938782870417150726079B
:1039F0003707C0F00C191D092E093F0986859785E8
:103A0000A089B189081719072A073B0700F5BF01EC
:103A10006E5F7F4F8091E3189091E4180E94410CF3
:103A200080E018C00C151D052E053F0528F44C1527
:103A30005D056E057F0568F4BF016E5F7F4F809165
:103A4000E5189091E6180E94410C80E003C081E0E7
:103A500001C081E01F910F91FF90EF90DF90CF9018
:103A600008950FB6F8940F928091E1189091E218A2
:103A7000892BE9F482EF98E10E940B0C87EE98E124
:103A80000E940B0C82EF98E19093E6188093E51862
:103A900087EE98E19093E4188093E31840E067E0A4
:103AA0008AE00E942F0F9093E2188093E1180F9004
:103AB0000FBE0895EF92FF920F93D3DF8091E1182C
:103AC0009091E218892B91F00F2EFFEDEF2EF8E187
:103AD000FF2EF02D03E020E030E045E550E061ED01
:103AE00074E087E091E00E94551501C080E00F91DD
:103AF000FF90EF9008958F929F92AF92BF92CF92D6
:103B0000DF92EF92FF920F931F93CF93DF93CDB786
:103B1000DEB727970FB6F894DEBF0FBECDBFE0919A
:103B2000E118F091E218309781F169832A833B8391
:103B30004C835D839F838E836630F4F466DC823031
:103B400069F400E0A7019601BE016F5F7F4F80918D
:103B5000E1189091E2180E945D0F18C000E020E08B
:103B600030E0A901BE016F5F7F4F8091E118909115
:103B7000E2180E945D0F0AC020E0A801BE016F5F3D
:103B80007F4FCF010E94181001C080E027960FB62A
:103B9000F894DEBF0FBECDBFDF91CF911F910F9183
:103BA000FF90EF90DF90CF90BF90AF909F908F905D
:103BB00008952F923F924F925F926F927F928F92D1
:103BC0009F92AF92BF92CF92DF92EF92FF920F93AC
:103BD0001F93CF93DF931C01CBD82B013C01809125
:103BE000DB189091DC18A091DD18B091DE18481612
:103BF00059066A067B0608F053C03BC00780F08573
:103C0000E02D80809180A280B380C085D1858E0117
:103C10000E5F1F4FC8010E947E0CEC89FD89CE010A
:103C200019958F8982FF25C08E859F85A889B989BE
:103C3000880D991DAA1DBB1D88169906AA06BB06EC
:103C400070F48A839B83AC83BD83DB87CA87B8010A
:103C50008091E5189091E6180E94410C0AC0C12C91
:103C6000D12C760100E010E0A501940160E0CE01C6
:103C700042DFE091E518F091E61880818111BECF16
:103C80008091E3189091E4189093E6188093E518DA
:103C9000F093E418E093E31881E0F101808302C01F
:103CA000F10110824092DB185092DC186092DD180E
:103CB0007092DE18C301B201DF91CF911F910F9175
:103CC000FF90EF90DF90CF90BF90AF909F908F903C
:103CD0007F906F905F904F903F902F900895089540
:103CE000279A2F9A2FEF80E792E021508040904052
:103CF000E1F700C000001F9AF5CF279A2F9A2FEF07
:103D000087EA91E6215080409040E1F700C0000032
:103D10001F9AF5CF8F929F92AF92BF92CF92DF9270
:103D2000EF92FF920F931F93CF93DF9380915B1AD3
:103D300090915C1A0E944303E0905F1AF090601A21
:103D40004091771A5091781AA12CB12C6501689492
:103D5000A4F801E010E020E030E060EC82E00E9496
:103D60008B06C82FD92FE0905F1AF090601A40910F
:103D7000771A5091781AA12CB12C65016894A5F896
:103D800008E010E020E030E060EC82E00E94860273
:103D90004C01E0905F1AF090601A4091771A5091B0
:103DA000781AA12CB12C65016894A6F804E010E003
:103DB00020E030E060EC82E00E946B07182F092FB2
:103DC0000E945E07E0905F1AF090601A4091771AA7
:103DD0005091781A80915A1A8F938091591A8F9323
:103DE0000F931F93DF93CF930F2EF0E7AF2EB12CDD
:103DF000C12CD12CF02D0DE010E020E030E060EC83
:103E000084E00E9451046091591A70915A1A81E01D
:103E10000E94270860915D1A70915E1A81E00E94ED
:103E2000E1050F900F900F900F900F900F90DF9182
:103E3000CF911F910F91FF90EF90DF90CF90BF90A7
:103E4000AF909F908F9008950E9468099093781A80
:103E50008093771A0E9468099093601A80935F1A82
:103E600041E060E070E084E690E00E94BA12909336
:103E70005A1A8093591A81E00E94FD0F90935C1AA0
:103E800080935B1A41E060E070E08CE290E00E9479
:103E9000BA1290935E1A80935D1A81B1816881B9DC
:103EA00080E00E945A2B85E011D060915D1A7091DC
:103EB0005E1A81E0C3D369C00895C6DF2BDF89EDA8
:103EC00094E00E9483310E947616FFCFE9E7FAE181
:103ED00023E736E23183208326E736E233832283E9
:103EE00021E836E23583248325E836E237832683CA
:103EF0002BE836E23187208727E936E233872287AD
:103F00002CE936E23587248728EA36E23787268788
:103F100028E836E2318B208B2DEA36E2338B228B78
:103F20002AEB36E2358B248B682FCF0153C10895DD
:103F30006530F1F4FA0180818F7390E0982F882723
:103F40002181822B90930D0280930C028281F0E4F8
:103F50008F9FC0011124FA01238126952695822B7B
:103F600090930B0280930A0281E08093FD180895DC
:103F7000643051F080E090E490930B0280930A0249
:103F800090930D0280930C0208950F931F9308E9FC
:103F90001FE120E034E244EF50E060E087E20E945D
:103FA000942B9093FF188093FE1821E0892B09F041
:103FB00020E0822F1F910F9108958091FD180895A0
:103FC0008091FE189091FF18009759F040E060E052
:103FD00070E00E94E52B843031F41092FD1880E0EF
:103FE000089582E0089583E008958091FE189091ED
:103FF000FF18009739F064E00E94312C853021F0E1
:1040000083E0089582E0089580E0089560910C02B5
:1040100070910D0280E090E00E943B2E20E030E0A5
:1040200048EC52E40E94C92E20E038EF4FE756E4F6
:104030000C94A22D0895EADF20E030E040E251E444
:104040000E94C92E0E940F2ECB01089560910A0292
:1040500070910B0280E090E00E943B2E20E030E067
:1040600045E253E40E94C92E20E038EF4FE756E4C2
:104070000E94A22D20E030E040E252E40C943D2D5D
:104080000895E4DF20E030E040E251E40E94C92ED0
:104090000E940A2ECB010895CF93DF9390E0FC019C
:1040A000EE0FFF1FE80FF91FEE0FFF1FE050F74E56
:1040B000238121110AC0EF01E091811AF091821A47
:1040C0006A8188819981199512C0DC01AA0FBB1FF2
:1040D000ED01C80FD91FCC0FDD1FC050D74EE091A6
:1040E0008B1AF0918C1A6A81888199811995DF91D8
:1040F000CF910895CF93DF9390E0FC01EE0FFF1F67
:10410000E80FF91FEE0FFF1FE050F74E238121113A
:104110000AC0EF01E0918B1AF0918C1A6A818881B4
:104120009981199512C0DC01AA0FBB1FED01C80FC0
:10413000D91FCC0FDD1FC050D74EE091811AF091EE
:10414000821A6A81888199811995DF91CF910895AA
:104150000F2EF9E7CF2EFAE1DF2EF02D04E0C0E0BC
:10416000D9E110E08C81813069F0E8F0823039F5D6
:10417000D6011C96ED91FC911D976A8188819981E9
:1041800019951DC08D818F5F8A3010F48D8317C003
:104190001D82D6011C96ED91FC911D976A81888144
:1041A000998119950CC08D81882331F0812FA2DF70
:1041B0008D8181508D8303C00C83812F6DDF1F5F44
:1041C0002696143079F665E070E080E090E00E9479
:1041D0001718C5CFCF92DF92EF92FF920F931F93E4
:1041E000CF93DF93062F0F2EF9E7EF2EFAE1FF2E84
:1041F000F02DD7011896ED91FC91199766E087E2B2
:1042000090E01995C0E0D9E10F2EF8E2CF2ED12C25
:10421000F02DD982C88286E08A831B8214E01C8339
:1042200080E03ADFD7011896ED91FC91199767E08D
:1042300087E290E01995DF82CE8287E08887198631
:104240001A8781E029DFD7011896ED91FC91199723
:1042500065E083E390E01995D7011896ED91FC9104
:10426000199761E084E390E0199584E390E09D87DD
:104270008C8785E08E871F86188B82E00DDFD70143
:104280001896ED91FC91199764E081E091E0199501
:10429000D7011896ED91FC91199761E082E091E0C9
:1042A000199582E091E09B8B8A8B1C8B1D8A1E8B5B
:1042B00083E0F2DEE12CF12C20E030E040EC50E035
:1042C0006BEE74E088EA90E20E945515DF91CF9181
:1042D0001F910F91FF90EF90DF90CF9008950F9373
:1042E0001F93CF93DF93C82FD0E08E01000F111FD3
:1042F000D801AC0FBD1FAA0FBB1FA050B74EE09155
:10430000851AF091861A12966C9112978D919C9154
:104310001995C00FD11FCC0FDD1FC050D74E81E0C3
:104320008C83DF91CF911F910F9108950F931F936D
:10433000CF93DF93C82FD0E08E01000F111FD8015B
:10434000AC0FBD1FAA0FBB1FA050B74EE091851A3E
:10435000F091861A12966C9112978D919C911995F5
:10436000C00FD11FCC0FDD1FC050D74E82E08C8311
:10437000DF91CF911F910F910895282F30E0F9011F
:10438000EE0FFF1FE20FF31FEE0FFF1FE050F74E7F
:1043900093E09483AFCE0895282F30E0F901EE0F1B
:1043A000FF1FE20FF31FEE0FFF1FE050F74E94E0E8
:1043B000948372CE089590E0FC01EE0FFF1FDF01A1
:1043C000A80FB91FAA0FBB1FA050B74E24E0159627
:1043D0002C931597FD011482089590E0FC01EE0FD7
:1043E000FF1FDF01A80FB91FAA0FBB1FA050B74EB8
:1043F00021E015962C931597FD01148208950F93D3
:104400001F93CF93DF931F921F92CDB7DEB78C011E
:1044100019822DC0E0917C19EC3250F481E08E0FAE
:1044200080937C19F0E0E255F64E8A81808302C0C9
:1044300010927C198A818A30D1F440917C1950E025
:10444000FA01E455F64E1082415051099E012F5F4A
:104450003F4F6EEA79E180917F19909180190E9417
:10446000CF13898181110E94530D10927C19BE01D6
:104470006E5F7F4FC8018CD6882361F20F900F903A
:10448000DF91CF911F910F9108950F931F93CF93B9
:10449000DF938C01EB0180917F19909180190E942C
:1044A000E612B80188E199E10E945131209779F034
:1044B000E8E1F9E101900020E9F7319780E290E02E
:1044C00091838083BE0188E199E10E944631E8E151
:1044D000F9E1DF010D900020E9F711978DE09AE0F6
:1044E00011969C938E9312961C9201900020E9F7EE
:1044F0003197E851F941AE2F88E199E1AC016A2F7B
:104500008091811990918219F3D5811111C008E22F
:1045100015E020E030E04DE250E068E07AE1809183
:104520007F19909180190E94121488E09AE102C0CC
:1045300080E090E0DF91CF911F910F9108952F922D
:104540003F924F925F926F927F928F929F92AF9223
:10455000BF92CF92DF92EF92FF920F931F93CF9370
:10456000DF935C01FC0101900020E9F731976F01B6
:10457000C81AD90A5C2C0F2EFCE88F2EF7E09F2E6C
:10458000F02DE12CF12C4C2C3701F401018112812A
:10459000E80109900020E9F72197C01BD10B3C2EC0
:1045A000F9E0CF16D10458F0F4012080FEE02F127C
:1045B00006C0B801C5010E942131892B09F5442D9F
:1045C000351408F44C2F50E0B801C5010E94583151
:1045D000892B49F4F301EE0FFF1FE60DF71DE45799
:1045E000F84F20800DC08FEFE81AF80AE3E08E0E36
:1045F000911CF1E1EF16F10439F66894222424F8B5
:10460000822DDF91CF911F910F91FF90EF90DF905E
:10461000CF90BF90AF909F908F907F906F905F9062
:104620004F903F902F90089530DF89CF089580916B
:104630007F19909180190C94E61208958F929F92A1
:10464000AF92CF92EF920F931F93CF93C82F8B010E
:1046500041E060E070E088EC90E00E94BA12909334
:10466000801980937F1910937E1900937D190F2E66
:10467000FFEF8F2EF1E29F2EF02D6894AA24A6F86A
:104680006894CC24C6F8E12C00E023E040E051EE31
:1046900060E070E08C2F71D490938219809381191F
:1046A000E091811AF091821A64E087E091E0199517
:1046B000CF911F910F91EF90CF90AF909F908F90DF
:1046C0000895882349F0E0918B1AF0918C1A64E0E8
:1046D00088E091E019950895E091811AF091821A8D
:1046E00064E088E091E01995089560E070E082E16F
:1046F00095E0CBDEE8E0FAE101900020E9F73197A0
:10470000E850FA4181E0759708F080E00895CF9372
:10471000DF93EC0160E070E083E295E0B6DEE8E074
:10472000FAE101900020E9F7E951FA4139F468E033
:104730007AE1CE010E94513180E002C0188281E00E
:10474000DF91CF910895FC0101900020E9F79F01CE
:10475000215131092817390729F4BC0181E595E079
:1047600063CF089589E00895FC0101900020E9F7E6
:104770009F01215131092817390729F4BC0180E62E
:1047800095E052CF089589E00895FC010190002042
:10479000E9F79F01215231092817390729F4BC0193
:1047A0008FE695E041CF089589E0089560E070E0DC
:1047B0008EEA95E039CF08950F931F93E82FF0E02C
:1047C000EE0FFF1FE857F84F6081718187EB95E08E
:1047D0002BDF811114C008E215E020E030E04DE24B
:1047E00050E068E07AE180917F19909180190E94F1
:1047F0001214882321F088E09AE1A1DE03C088E04A
:104800009AE19DDE1F910F9108950F931F93CF930F
:10481000DF931F92CDB7DEB7DB0111969C91119704
:10482000953108F0B4C0992381F160E070E0272F42
:1048300030E0462F50E0FD01E40FF51F9281929584
:104840009F709A3010F0995C01C0905DF901E756B5
:10485000F64E90832F5F3F4FFD01E40FF51F9281CD
:104860009F70492F50E04A30510514F0995C01C007
:10487000905DF901E756F64E90837E5F6F5F11966B
:104880009C911197691798F201C070E0E72FF0E052
:10489000E756F64E10824C91811103C080EC95E0F2
:1048A00002C082EC95E029E939E13F932F931F92F2
:1048B0004F939F938F9386EC95E09F938F938BED0F
:1048C00099E19F938F930E94B33160E070E08BED8C
:1048D00099E1AADE0FB6F894DEBF0FBECDBF8111FD
:1048E00059C008E215E020E030E04DE250E068E019
:1048F0007AE180917F19909180190E941214882387
:1049000009F447C088E09AE11ADE8E3009F042C00F
:1049100087E0898380917D1990917E19892BA9F177
:10492000BE016F5F7F4F88E09AE168D18093831961
:10493000E981F0E0E85FF54EDF010D900020E9F736
:104940001197AE1BBF0BAA2391F0BB27CD01019796
:104950009C0112F42F5F3F4F3595279520938419C2
:10496000AF014F5F5F4F64E185E899E173D101E0EA
:1049700010E020E030E046E150E063E879E180912A
:104980007D1990917E190E9425138EE003C084E169
:1049900001C080E00F90DF91CF911F910F9108959A
:1049A000813019F066ED75E002C06FEA76E08AEDBD
:1049B00095E03ACE08959F938F938BE096E09F9376
:1049C0008F938BED99E19F938F930E94B33160E0B9
:1049D00070E08BED99E128DE0F900F900F900F9013
:1049E0000F900F9008952F923F924F925F926F9287
:1049F0007F928F929F92AF92BF92CF92DF92EF926F
:104A0000FF920F931F93CF93DF93CDB7DEB7A0979D
:104A10000FB6F894DEBF0FBECDBF68E376E084E446
:104A200096E033DD8CDD8111A3C080E2E5E2F2E0A7
:104A3000DE01119601900D928A95E1F79E012F5F9C
:104A40003F4F6901E12CF12C0F2EF0E5AF2EF6E07F
:104A5000BF2EF02D0BED19E10F2EF9E64F2EF6E0EB
:104A60005F2EF02D0F2EF0E88F2EF6E09F2EF02D0A
:104A70000F2EFAE96F2EF6E07F2EF02D3E2C2F2C14
:104A8000FF92EF92BF92AF921F930F930E94B331A8
:104A900060E070E0C801F9DC52DD0F900F900F90DC
:104AA0000F900F900F90811163C032E03E15E8F433
:104AB000F60183818F9382818F9381818F9380818F
:104AC0008F93FF92EF925F924F921F930F930E94EA
:104AD000B33160E070E0C801D8DC31DD0FB6F89486
:104AE000DEBF0FBECDBF811143C02F923F929F9278
:104AF0008F921F930F930E94B33160E070E0C80162
:104B0000C4DC1DDD0F900F900F900F900F900F9051
:104B100081112EC02F923F927F926F921F930F931D
:104B20000E94B33160E070E0C801AFDC08DD0F9097
:104B30000F900F900F900F900F90811119C03FEFC1
:104B4000E31AF30A84E0C80ED11C98E0E916F104D8
:104B500009F094CF60E070E082EB96E096DCEFDC49
:104B6000811106C060E070E083EC96E08EDCE7DC4B
:104B7000A0960FB6F894DEBF0FBECDBFDF91CF91E8
:104B80001F910F91FF90EF90DF90CF90BF90AF906B
:104B90009F908F907F906F905F904F903F902F905D
:104BA0000895EF92FF920F931F93CF93DF93EC0141
:104BB0008B017A0181E0F4DE81110DC0CE01D4DDDC
:104BC000811109C0C801E1DD811105C0C701BBDD4C
:104BD000811101C0EBDDDF91CF911F910F91FF900B
:104BE000EF90089590E0FC01EE0FFF1F8E0F9F1FC6
:104BF000FC01E457F84F818192810895DC01009710
:104C000029F1FB012081FC0101900020E9F7319797
:104C1000E81BF90B822F90E0E817F907C8F080E055
:104C200008C0880F382F330F330F830F8053890F3D
:104C30002F5FFD01E20FF11D908130ED390F3A3009
:104C400010F49111EECFFB012083089580E00895C8
:104C500080E008950F931F93CF93DF93DC01EA0167
:104C60002097E1F1FA0101900020E9F73197E41B68
:104C7000F50B329710F532C08D01040F151F30E08F
:104C8000AE01420F531FFA019081913428F09753DF
:104C9000592F5295507F03C0592F5295507F2C0F9A
:104CA0003D1FF9019181913410F0975301C0905349
:104CB000950FF80190838F5F01C080E0282F220FAD
:104CC000482F50E0FE0101900020E9F73197EC1BDE
:104CD000FD0B4E175F0710F48613CECFDF91CF91F7
:104CE0001F910F910895FC0180810895FC0120819E
:104CF00081E090E002C0880F991F6A95E2F7822355
:104D00000895FC01808186230895FC016083089545
:104D1000FC0110820895FC01408121E030E002C0D6
:104D2000220F331F6A95E2F7242B20830895FC019C
:104D30002081622B60830895FC01408121E030E0F6
:104D400002C0220F331F6A95E2F7242720830895BB
:104D5000FC012081622760830895FC01908121E09D
:104D600030E002C0220F331F6A95E2F72095292315
:104D700020830895FC0190816095692360830895E4
:104D80008091381A860F8093381A90913B1A91308F
:104D900079F028F09230A9F0933019F108956F3F1F
:104DA00009F048C01092381A81E080933B1A0895A8
:104DB000663809F03FC01092371A82E080933B1AA0
:104DC0000895E091371A81E08E0F8093371AF0E052
:104DD000EB5CF54E6083823069F583E080933B1A8B
:104DE00008959091371A21E0290F2093371A9630B1
:104DF00009F581110EC0E5E3FAE1808190E0982F7A
:104E000088272181820F911D90933D1A80933C1A2F
:104E100004C010923D1A10923C1A10923B1AE09175
:104E2000391AF0913A1A309729F080913C1A9091F2
:104E30003D1A199508958F929F92AF92CF92EF925B
:104E40000F93CF93DF93EB010F2EF0EC8F2EF6E252
:104E50009F2EF02D6894AA24A4F86894CC24C4F85A
:104E6000E12C00E023E040E855E260E070E085D00E
:104E700090933F1A80933E1AD0933A1AC093391AEE
:104E8000DF91CF910F91EF90CF90AF909F908F9047
:104E90000895CF93DF93CDB7DEB729970FB6F89477
:104EA000DEBF0FBECDBF89E0E5E4F2E09E012F5FDB
:104EB0003F4FD90101900D928A95E1F710923D1A6A
:104EC00010923C1A80913E1A90913F1A009731F04F
:104ED000422F532F69E00CD180E001C082E0299677
:104EE0000FB6F894DEBF0FBECDBFDF91CF9108950E
:104EF00020913C1A30913D1A2115310529F4FC010D
:104F00001182108281E00895FC013183208380E0CA
:104F1000089565360CF064E66C390CF46CE996EF94
:104F20006902B00111246854744F811105C0709357
:104F3000290160932801089570932B0160932A0141
:104F40000895EAE0F1E08081886180838FE39CE945
:104F5000909327018093260160E080E0DADF60E033
:104F600081E0D7DFE0E2F1E08081826A8083E1E2E4
:104F7000F1E080818A61808308952F923F924F9261
:104F80005F926F927F928F929F92AF92CF92EF92A9
:104F9000FF920F931F93CF93DF93CDB7DEB7F82E19
:104FA0002A013B0188E090E0C2D78C018F2D90E070
:104FB000880F991FFC01E05CF54E11830083FC0112
:104FC000E25FFD4F80819181D8018D939C936C2D80
:104FD00070E084E090E091D71C0161E070E086E031
:104FE00090E08BD77C014C2DB1012BD5F801F582D7
:104FF000E4826A2D70E084E090E07FD71C0161E0DC
:1050000070E086E090E079D77C014A2DB10119D596
:10501000D8011396FC92EE92129717969C928E925C
:105020001697FFB6F894ED91FC9111973697808111
:10503000826080838D909C90C301B2011CD620E0D9
:1050400030E040E051E4A5D69B01AC0160E074E2A1
:1050500084E79BE477D520E030E040E85FE30DD5BE
:10506000DED5F40132976083D801ED91FC91119760
:10507000359788E98083ED91FC91349786E08083B1
:10508000FFBEC801DF91CF911F910F91FF90EF906C
:10509000CF90AF909F908F907F906F905F904F9048
:1050A0003F902F900895CF93DF93EC01EA81FB812D
:1050B000938182812581981B922384819817A1F086
:1050C000938126952923A081B181A20FB11D6C93F4
:1050D0009F5F258192239383E881F98135978081B1
:1050E0008062808380E001C082E0DF91CF910895EB
:1050F000EF92FF920F931F93CF93DF937C01DC011C
:105100001296ED91FC91139793818281981B858172
:1051100098238481891B861798F1662341F1842F97
:10512000952FDC016150462F50E04F5F5F4F480FD5
:10513000591FE701EA81FB81938182812581981BB8
:1051400092238481981779F08C9193812695292355
:10515000608171818B01020F111DE80188839F5FBF
:105160008581982393831196A417B50711F7D7016A
:10517000ED91FC91359780818062808380E001C051
:1051800082E0DF91CF911F910F91FF90EF900895F2
:10519000DC011496ED91FC9115979381828198170B
:1051A00089F09281858186958923A081B181A80F9C
:1051B000B11D8C91DB018C939F5F85819823928335
:1051C00080E0089583E008951F920F920FB60F922A
:1051D00011240BB60F922F933F934F935F936F93CE
:1051E0007F938F939F93AF93BF93CF93DF93EF936F
:1051F000FF93A091401AB091411A109711F160915C
:10520000C6001496ED91FC911597938182812581BA
:10521000981B92238481981761F083812695282317
:10522000C081D181C20FD11D68838F5F9581892391
:1052300083831696ED91FC911797309711F0CD016D
:105240001995FF91EF91DF91CF91BF91AF919F9110
:105250008F917F916F915F914F913F912F910F901F
:105260000BBE0F900FBE0F901F9018951F920F92BC
:105270000FB60F9211240BB60F922F938F939F931B
:10528000AF93BF93EF93FF93E091401AF091411ACF
:105290003097B9F00280F381E02D938182819817D5
:1052A000B1F092818581282F26952923A081B18193
:1052B000A20FB11D2C919F5F892382832093C6008A
:1052C0000BC0E1ECF0E080818F7D808305C0E1ECD4
:1052D000F0E080818F7D8083FF91EF91BF91AF914E
:1052E0009F918F912F910F900BBE0F900FBE0F903B
:1052F0001F9018951F920F920FB60F9211240BB6A4
:105300000F922F933F934F935F936F937F938F935E
:105310009F93AF93BF93CF93DF93EF93FF93A091AE
:10532000421AB091431A109711F16091CE00149671
:10533000ED91FC911597938182812581981B922391
:105340008481981761F0838126952823C081D181BB
:10535000C20FD11D68838F5F958189238383169641
:10536000ED91FC911797309711F0CD011995FF91B0
:10537000EF91DF91CF91BF91AF919F918F917F91ED
:105380006F915F914F913F912F910F900BBE0F90B6
:105390000FBE0F901F9018951F920F920FB60F928D
:1053A00011240BB60F922F938F939F93AF93BF93BC
:1053B000EF93FF93E091421AF091431A3097B9F0BE
:1053C0000280F381E02D938182819817B1F0928160
:1053D0008581282F26952923A081B181A20FB11D97
:1053E0002C919F5F892382832093CE000BC0E9EC30
:1053F000F0E080818F7D808305C0E9ECF0E0808162
:105400008F7D8083FF91EF91BF91AF919F918F919D
:105410002F910F900BBE0F900FBE0F901F901895FD
:105420001F920F920FB60F9211240BB60F922F936B
:105430003F934F935F936F937F938F939F93AF931C
:10544000BF93CF93DF93EF93FF93A091441AB09152
:10545000451A109711F16091D6001496ED91FC91C8
:105460001597938182812581981B922384819817B7
:1054700061F0838126952823C081D181C20FD11D7F
:1054800068838F5F9581892383831696ED91FC91C4
:105490001797309711F0CD011995FF91EF91DF919A
:1054A000CF91BF91AF919F918F917F916F915F91BC
:1054B0004F913F912F910F900BBE0F900FBE0F9009
:1054C0001F9018951F920F920FB60F9211240BB6D2
:1054D0000F922F938F939F93AF93BF93EF93FF936D
:1054E000E091441AF091451A3097B9F00280F381A7
:1054F000E02D938182819817B1F092818581282FC8
:1055000026952923A081B181A20FB11D2C919F5F07
:10551000892382832093D6000BC0E1EDF0E08081E7
:105520008F7D808305C0E1EDF0E080818F7D8083F9
:10553000FF91EF91BF91AF919F918F912F910F901C
:105540000BBE0F900FBE0F901F9018951F920F92D9
:105550000FB60F9211240BB60F922F933F934F93D8
:105560005F936F937F938F939F93AF93BF93CF93EB
:10557000DF93EF93FF93A091461AB091471A1097CB
:1055800011F1609136011496ED91FC91159793817C
:1055900082812581981B92238481981761F08381F1
:1055A00026952823C081D181C20FD11D68838F5FCA
:1055B0009581892383831696ED91FC9117973097F7
:1055C00011F0CD011995FF91EF91DF91CF91BF912E
:1055D000AF919F918F917F916F915F914F913F918B
:1055E0002F910F900BBE0F900FBE0F901F9018952C
:1055F0001F920F920FB60F9211240BB60F922F939A
:105600008F939F93AF93BF93EF93FF93E091461ACD
:10561000F091471A3097B9F00280F381E02D938121
:1056200082819817B1F092818581282F26952923B0
:10563000A081B181A20FB11D2C919F5F892382832C
:10564000209336010BC0E1E3F1E080818F7D808300
:1056500005C0E1E3F1E080818F7D8083FF91EF91D0
:10566000BF91AF919F918F912F910F900BBE0F9093
:105670000FBE0F901F901895CF93DF931F92CDB759
:10568000DEB7BE016F5F7F4F8091481A9091491A33
:105690007FDD8111F6CF898190E00F90DF91CF916E
:1056A0000895682F8091481A9091491AFCDC80E097
:1056B00090E008958F929F92AF92CF92EF920F93C6
:1056C000812C912C6894AA24A7F86894CC24C7F85C
:1056D000E12C00E023E040E051EE60E070E04DDCC2
:1056E0009093491A8093481AE3E9FAE186E192E03F
:1056F00091838083938382830F91EF90CF90AF90BB
:105700009F908F9008958091581A81110CC08CE061
:105710008093B8008FEF8093BB0084E08093BC003F
:1057200081E08093581A0895AF92BF92CF92DF9292
:10573000EF92FF920F931F93CF93DF93A82EB62E75
:1057400069017A0184E090E0F2D3EC01892B61F1E8
:10575000A88281E0B81212C0C701B60120EA36E87B
:1057600041E050E08CD3DA01C9014097A109B109A9
:10577000B695A79597958795898311C0C701B601FE
:1057800020E83AE146E050E07AD3DA01C9014097D7
:10579000A109B109B695A7959795879589831B832C
:1057A0000A838C2F9D2F02C080E090E0DF91CF9183
:1057B0001F910F91FF90EF90DF90CF90BF90AF902F
:1057C00008958091BC0081700895FF920F931F93FC
:1057D000CF93DF930097D1F14A30D0F5F42E8B01AF
:1057E000EC01EFDF811136C080914B1A90914C1A79
:1057F000C817D90741F087DF89818093B800D0931B
:105800004C1AC0934B1A81E08F0D80934D1A8881FA
:10581000880F80934E1AFF2089F0F801AFE4BAE1B7
:105820004FEF4F0D642F70E0CB010196B801680F68
:10583000791F81918D93E617F707D9F788EF809349
:10584000240285EA8093BC0084E005C086E003C0A2
:1058500087E001C082E0DF91CF911F910F91FF900F
:1058600008951F93CF93DF93009729F16B3028F5AC
:10587000162FEC01A6DF811122C080914B1A909166
:105880004C1AC817D90741F03EDF89818093B800D0
:10589000D0934C1AC0934B1A10934D1A8881880FDD
:1058A000816080934E1A88EF8093240285EA80936A
:1058B000BC0085E005C086E003C087E001C082E04F
:1058C000DF91CF911F9108951F920F920FB60F9203
:1058D00011240BB60F922F933F934F935F936F93C7
:1058E0007F938F939F93AF93BF93EF93FF93E09139
:1058F000B9008E2F90E0FC013897E135F10508F0F2
:1059000075C08827E458FF4F8F4FDBC210924A1AA8
:10591000E0914A1A80914D1AE81770F481E08E0FD9
:1059200080934A1AF0E0E25BF54E80818093BB00E1
:1059300085E88093BC0072C084E98093BC008091AC
:105940004B1A90914C1ADC011296ED91FC91139731
:10595000309709F463C020E040E050E064E019951E
:105960005DC0E0914A1A81E08E0F80934A1A8091BF
:10597000BB00F0E0E25BF54E80838091B90080349B
:1059800011F410924A1A20914A1A30E080914D1A6F
:1059900090E001972817390724F485EC8093BC0028
:1059A0003DC085E88093BC0039C08091BB00E09188
:1059B0004A1AF0E0E25BF54E808384E98093BC00F4
:1059C00080914B1A90914C1ADC011296ED91FC914A
:1059D0001397309719F120914D1A4EE45AE165E082
:1059E00019951CC085EA8093BC0018C08091B9004D
:1059F0008093240284E08093BC0080914B1A9091A4
:105A00004C1ADC011296ED91FC911397309731F00E
:105A100020E040E050E0609124021995FF91EF9161
:105A2000BF91AF919F918F917F916F915F914F91B6
:105A30003F912F910F900BBE0F900FBE0F901F90B4
:105A40001895FC01411101C0E8D3842F90E09C011E
:105A50002150310982239323892B09F0DED3413869
:105A600008F0DBD3128213824483440F41504583F4
:105A70007183608380E090E008955058BB27AA2787
:105A80000ED04DC13ED130F043D120F031F49F3FD4
:105A900011F41EF433C10EF4E095E7FB29C1E92FA0
:105AA0004FD180F3BA17620773078407950718F080
:105AB00071F49EF567C10EF4E0950B2EBA2FA02D60
:105AC0000B01B90190010C01CA01A0011124FF27AB
:105AD000591B99F0593F50F4503E68F11A16F040A6
