S00F000053455034494F542E737265630D
S113000050C200006FC200006DC200006BC200004D
S113001069C2000067C2000065C2000063C200003C
S113002061C200005FC200005DC200005BC200004C
S11300300C94460E57C2000055C2000053C2000083
S113004051C200004FC200004DC200004BC200006C
S113005049C2000047C2000045C2000043C200007C
S113006041C200000C9415290C9467293BC200007E
S113007039C2000037C2000035C2000033C200009C
S113008031C200002FC200002DC200002BC20000AC
S11300900C94AB290C94FD2925C200000C94952CDA
S11300A021C200001FC200001DC200001BC20000CC
S11300B019C2000017C2000015C2000013C20000DC
S11300C011C200000FC200000DC200000C94412AAE
S11300D00C94932A07C200000C94D72A0C94292B61
S11300E001C20000C601C601C601000208021E02C8
S11300F0C601C60100020802B72C272D272D272D83
S1130100272D272D272D272DB72C272D272D272DBC
S1130110272D272D272D272DB92C272D272D272DAA
S1130120272D272D272D272D272D272D272D272D2B
S1130130272D272D272D272DB92C272D272D272D8A
S1130140272D272D272D272D272D272D272D272D0B
S1130150272D272D272D272D232D272D272D272DFF
S1130160272D272D272D272DEE2C272D272D272D25
S1130170272D272D272D272D272D272D272D272DDB
S1130180272D272D272D272DE22C272D272D272D11
S1130190272D272D272D272D062D09E618E10F2EB3
S11301A0F9E9EF2EF8E1FF2EF02D809168188823ED
S11301B029F10FB6F8940F92D8011796ED91FC919E
S11301C01897C085D185CE0102960E94AB0C809110
S11301D05C18815080935C188091681881508093DA
S11301E068180F900FBE8B8D9C8D0E94070CCE015A
S11301F00E94070C809168188111DBCFF701808180
S1130200823010F00E94800D0E94981ECECFCF93B2
S1130210DF93CDB7DEB760970FB6F894DEBF0FBE9D
S1130220CDBFCE0101969A878987812C912CA12C70
S1130230B12C69847A84E091D118F091D21880812C
S1130240882309F414C10780F085E02D20803180D3
S1130250428053800E94DD16CE0101960E94021E48
S11302606B877C878D879E878981811167C08B8589
S11302709C85AD85BE8582159305A405B50508F456
S113028045C00E94C617E091D118F091D21807809A
S1130290F085E02DA085B185B88BAF87CD0102969E
S11302A00E94AB0CEF85F889878982FF21C04685BF
S11302B0578560897189420D531D641D751D720136
S11302C061010B851C852D853E85CF010E94111D82
S11302D0882399F0C82CD92CEA2CFB2C00E010E0E0
S11302E0A201910160E08F8598890E94A41D05C038
S11302F08E7FAF85B88957968C93AF85B88954960D
S1130300ED91FC915597CD011995A2C020E0B20161
S1130310A1018B859C85AD85BE85481B590B6A0B55
S11303207B0B8091CD189091CE180E94E2110E940F
S1130330C61781118DC00E94800D8AC00E94C61705
S113034087C0898188230CF483C04E805F80D201EA
S11303501C968D919C911D97892B21F0C2010296C8
S11303600E94AB0CCE0108960E94021E8B019C01D8
S1130370E9810E2E000CFF0BEA30F10508F068C08D
S11303808827EE58FF4F8F4F0C94922FF2018789E4
S11303908160878BCA80DB80EC80FD804685578531
S11303A0608971894C0D5D1D6E1D7F1DC2010E9407
S11303B0111D882309F44CC0D2015496ED91FC918F
S11303C05597C2011995F201878982FF41C04A817C
S11303D05B816C817D8186859785A089B1899A012D
S11303E0AB01280F391F4A1F5B1FC82CD92CEA2CDC
S11303F0FB2C00E010E060E0C2010E94A41D28C0B4
S1130400D20157968C9157978E7F57968C9320C024
S1130410F20187898160878B4A815B816C817D8150
S113042046875787608B718B400F511F621F731F64
S113043068017901C2010E94111D0AC0F201878975
S113044081FD04C0C2010E94070C02C08E7F878B0D
S1130450282D392D4A2D5B2D662D772D8091CD18B1
S11304609091CE180E947E1081116BCFE4CE0E9431
S1130470DD16CE0101960E94021E6B877C878D8754
S11304809E87898181115ACFE091CF18F091D018BD
S1130490808121E0811120E0282C392C4A2C5B2C0E
S11304A036CF11241FBECFEFD1E2DEBFCDBF00E0B7
S11304B00CBF17E0A0E0B2E0E8EFF9E600E00BBF04
S11304C002C007900D92A03CB107D9F72AE1A0EC35
S11304D0B7E001C01D92A938B207E1F70E948E1F50
S11304E00C94FA348DCDFC010FB6F8946091851A02
S11304F07091861A8091871A9091881A0FBE30974E
S113050021F0608371838283938308952F923F92B5
S11305104F925F926F927F928F929F92AF92BF920F
S1130520CF92DF92EF92FF920F931F93CF93DF93BB
S1130530D82FC62F1A0128013901870164E070E021
S113054081E090E00E94AE2F4C01892B69F1F40107
S1130550119211927F013092CB072092CA074092E8
S1130560C6075092C7076092C8077092C9071093D4
S1130570C5070093C407A092C007B092C107C092F8
S1130580C207D092C30760E070E083E00E944C276A
S11305904C2F50E048535F4F0D2F940162E772E0F7
S11305A08BE393E00E948215C401DF91CF911F91E8
S11305B00F91FF90EF90DF90CF90BF90AF909F90FE
S11305C08F907F906F905F904F903F902F90089501
S11305D0CF92DF92EF92FF920F931F93CF93DF930B
S11305E0EC014091C6075091C7076091C80770910C
S11305F0C907CC24CA94DC2C760101E021E0809167
S1130600CA079091CB07A4D60091C6071091C707DB
S11306102091C8073091C907DC01CB0180239123C5
S1130620A223B323081719072A073B07D9F40E940A
S11306307A27182F6CE271E080E090E00E94421863
S1130640111103C0CE010E94A9274091C007509107
S1130650C1076091C2077091C3078091C40790914C
S1130660C50736D7DF91CF911F910F91FF90EF907F
S1130670DF90CF900895EC01CE01AADFFDCFFC01FD
S113068080819181089581E08093CF071092CE07F5
S11306900E942A109093CD078093CC0708950F935E
S11306A0CF932091CC073091CD0721153105B1F0BE
S11306B0C82F4FEF5FEFBA01C9010E941611C09312
S11306C0CF0700E020E030E0A90160E070E0809115
S11306D0CC079091CD070E948A0F02C08093CF0768
S11306E0CF910F9108950F93CF93DF932091CC076F
S11306F03091CD0721153105B9F0EC014FEF5FEFD3
S1130700BA01C9010E9416118091CF07888300E0C5
S113071020E030E0A90160E070E08091CC07909186
S1130720CD070E948A0F04C02091CF07FC012083CB
S1130730DF91CF910F9108950F93CF932091CC0720
S11307403091CD0721153105B1F0C82F4FEF5FEF80
S1130750BA01C9010E941611C093CE0700E020E03F
S113076030E0A90160E070E08091CC079091CD0762
S11307700E948A0F02C08093CE07CF910F910895F3
S11307800F93CF93DF932091CC073091CD072115A0
S11307903105B9F0EC014FEF5FEFBA01C9010E94D6
S11307A016118091CE07888300E020E030E0A90193
S11307B060E070E08091CC079091CD070E948A0F91
S11307C004C02091CE07FC012083DF91CF910F91CB
S11307D0089568E070E081E090E00E94AE2F0097F9
S11307E049F0FC0113821282158214821182108254
S11307F0178216820895009749F09B01285C3109FD
S11308002934364218F4FC017183608308950097FB
S113081039F0693E23E0720718F4FC0175836483A0
S11308200895009749F09B0120573E4F273B3340E2
S113083018F4FC01738362830895009731F06739DB
S1130840710518F4FC01778366830895FC01DB01CC
S113085012966C91129713967C91139714964C915F
S1130860149715965C9115972C9111963C911197BC
S113087016968C91169717969C91A1E0A083A8E0F8
S1130880A18372836383548345833683278390874C
S11308908187CF01089521E0FC01208322E0218398
S11308A01282138208952F923F924F925F926F9219
S11308B07F928F929F92AF92BF92CF92DF92EF92EC
S11308C0FF920F931F93CF93DF9300D01F92CDB766
S11308D0DEB7282E362E5C834B83280139016AE06B
S11308E070E081E090E00E94AE2F9A8389830097A4
S11308F009F446C0FC01918280828A8D9B8D93838A
S113090082838C8D9D8D9583848363DFE981FA8155
S1130910978386838B819C819093F5078093F4075A
S11309204092F0075092F1076092F2077092F30739
S1130930F092EF07E092EE07A092EA07B092EB077D
S1130940C092EC07D092ED078E8D9F8D9093E907AE
S11309508093E80788A199A19093E7078093E6071D
S1130960432D50E048535F4F7F0198E0E90EF11C9E
S1130970022D9F016CE772E08AEF95E00E948215D8
S113098089819A810F900F900F900F90DF91CF91F2
S11309901F910F91FF90EF90DF90CF90BF90AF9099
S11309A09F908F907F906F905F904F903F902F908B
S11309B00895AF92BF92CF92DF92EF92FF920F937E
S11309C01F93CF93DF93CDB7DEB766970FB6F89436
S11309D0DEBF0FBECDBF5C014FEF5FEFBA01809168
S11309E0E6079091E7070E94161181E090E056D641
S11309F08C0179DEF8018081882309F4BCC081E090
S1130A0090E04CD68C01BCDEF8018081882311F083
S1130A1075D201C078D24091F0075091F1076091EE
S1130A20F2077091F3078091F4079091F50750D580
S1130A304091EA075091EB076091EC077091ED0744
S1130A40CC24CA94DC2C760101E021E08091EE07ED
S1130A509091EF077DD40091EA071091EB07209164
S1130A60EC073091ED07DC01CB0180239123A22315
S1130A70B323081719072A073B0709F09EC0F5019D
S1130A8080819181FCDDBC01F50186819781B3DE13
S1130A90F50184819581F4D2BC01F50186819781A9
S1130AA0CCDEF5018281938122D2BC01F5018681DD
S1130AB09781B7DEF5018281938115D2BC01F501DE
S1130AC086819781A4DEF50180819181D8DD9F9391
S1130AD08F9383E892E09F938F930E94A131F50155
S1130AE08281938104D29F938F938FE892E09F93A6
S1130AF08F930E94A131F50182819381F4D19F9358
S1130B008F9383EA92E09F938F930E94A131F50122
S1130B1084819581B5D29F938F9384EB92E09F93C8
S1130B208F930E94A131F50166817781CE010196F0
S1130B308DDE86E1FE013196A0EDB7E001900D92C5
S1130B408A95E1F70FEF1FEF980146E150E060ED61
S1130B5077E08091E8079091E9070E94521360EDD5
S1130B6077E080E090E00E9442180FB6F894DEBF70
S1130B700FBECDBF22C068E873E180E090E00E9420
S1130B804218F50166817781CE01019684DE86E103
S1130B90FE013196A0EDB7E001900D928A95E1F740
S1130BA00FEF1FEF980146E150E060ED77E0809190
S1130BB0E8079091E9070E94521300E020E030E03A
S1130BC0A90160E070E08091E6079091E7070E9438
S1130BD08A0F66960FB6F894DEBF0FBECDBFDF91C5
S1130BE0CF911F910F91FF90EF90DF90CF90BF9026
S1130BF0AF900895EC01CE01DCDEFDCFEF92FF92C1
S1130C000F939B01E12CF12C082F48E851E062EC92
S1130C1072E084EA96E00E9482150F91FF90EF90B3
S1130C2008950F931F93CF93DF930FEF1FEF980156
S1130C3046E150E066EF77E00E943F14C6EFD7E04C
S1130C4089811F928F938B811F928F938A811F9228
S1130C508F938BEC92E09F938F930E94A1318DB779
S1130C609EB708960FB6F8949EBF0FBE8DBF8981BC
S1130C70823009F064C0FE01CA818381C80F81E01B
S1130C8090E00CD58C01C537E9F018F4C43739F07D
S1130C9052C0C63851F1C73809F43AC04CC080E09C
S1130CA0FEDCC80120DDF80180811F928F938CEF58
S1130CB092E09F938F930E94A1310F900F900F9019
S1130CC00F903DC081E0EBDCC8010DDDF8018081AF
S1130CD01F928F938CEF92E09F938F930E94A13188
S1130CE00F900F900F900F902AC080E025DDC8016F
S1130CF047DDF80180811F928F938EE193E09F93EB
S1130D008F930E94A1310F900F900F900F9017C0F6
S1130D1081E012DDC80134DDF80180811F928F93D8
S1130D208EE193E09F938F930E94A1310F900F90D7
S1130D300F900F9004C085E493E00E94B431DF91DA
S1130D40CF911F910F910895EC01CE016ADFFDCF81
S1130D502F923F924F925F926F927F928F929F92C7
S1130D60AF92BF92CF92DF92EF92FF920F931F93B5
S1130D70CF93DF93882E962E1A012801390166E05D
S1130D8070E081E090E00E94AE2FEC01009761F1E9
S1130D90198218821B821A82309217082092160830
S1130DA04092120850921308609214087092150829
S1130DB0F0921108E0921008A0920C08B0920D086D
S1130DC0C0920E08D0920F08492D50E048535F4F4F
S1130DD07C0184E0E80EF11C082D9E0165E573E0BA
S1130DE08FE697E00E948215CE01DF91CF911F918B
S1130DF00F91FF90EF90DF90CF90BF90AF909F90B6
S1130E008F907F906F905F904F903F902F900895B8
S1130E10CF92DF92EF92FF920F931F93CF93DF93C2
S1130E20EC014091120850911308609114087091DC
S1130E301508CC24CA94DC2C760101E021E08091D1
S1130E4016089091170884D2009112081091130883
S1130E502091140830911508DC01CB0180239123E3
S1130E60A223B323081719072A073B0779F50E9421
S1130E70112062E370E080E090E00E9442180E943A
S1130E80262065E070E080E090E00E9442180E9415
S1130E900E20882341F00E944C20998388830E946D
S1130EA072209B838A8368EE73E080E090E00E9466
S1130EB0421840910C0850910D0860910E087091F1
S1130EC00F08809110089091110802D3DF91CF91FF
S1130ED01F910F91FF90EF90DF90CF900895EC0158
S1130EE0CE0196DFFDCFFC01808191810895FC0144
S1130EF08281938108950C94D227089564E680E05A
S1130F000C94BA2708956CE980E00C94BA270895EC
S1130F102F923F924F925F926F927F928F929F9205
S1130F20AF92BF92CF92DF92EF92FF920F931F93F3
S1130F30CF93DF93882E962E1A012801390164E09D
S1130F4070E081E090E00E94AE2FEC01009761F127
S1130F50FC011192119230922308209222084092AF
S1130F601E0850921F086092200870922108F09287
S1130F701D08E0921C08A0921808B0921908C092AB
S1130F801A08D0921B08492D50E048535F4F7F0147
S1130F90082D9C0166E673E08CE398E00E948215BC
S1130FA082E793E00E94B431CE01DF91CF911F918B
S1130FB00F91FF90EF90DF90CF90BF90AF909F90F4
S1130FC08F907F906F905F904F903F902F900895F7
S1130FD0CF92DF92EF92FF920F931F93CF93DF9301
S1130FE0EC0140911E0850911F08609120087091F7
S1130FF02108CC24CA94DC2C760101E021E0809104
S1131000220890912308A4D100911E0810911F0872
S11310102091200830912108DC01CB018023912309
S1131020A223B323081719072A073B07E1F480E03A
S113103090E059DACB010E9433310E94303169E6E5
S113104070E00E945D2F0F96998388834091180861
S11310505091190860911A0870911B0880911C081E
S113106090911D0835D2DF91CF911F910F91FF9080
S1131070EF90DF90CF900895EC01CE01A9DFFDCF72
S1131080FC01808191810895EF92FF920F939B015F
S1131090E12CF12C082F48E851E061E873E08BE77C
S11310A099E00E9482150F91FF90EF900895DF92CE
S11310B0EF92FF920F931F93CF93DF937C014FEF37
S11310C05FEFBA0180E090E00E941611809124083D
S11310D08111CFC081E00E94922362E070E080E041
S11310E090E00E94421880E00E94922366E970E03A
S11310F080E090E00E9442180E94482381E00E9410
S1131100A0210E94A6230E9423269F938F938AE8FE
S113111093E09F938F930E94A1310E9424250E9403
S113112023269F938F938DE993E09F938F930E943F
S1131130A1318BE398E00E94B8230E942326CBE3DD
S1131140D8E0DF93CF939F938F9386EB93E09F93A5
S11311508F930E94A131CE010E94D4230E942326A2
S11311609F938F93DF93CF938AEC93E09F938F9316
S11311700E94A131AE016FED73E080E094E00E9423
S113118002260E9423269F938F93DF93CF938FEDA4
S113119093E09F938F9380E094E09F938F9381E1FA
S11311A094E09F938F930E94A1310E9407240E9490
S11311B023269F938F9387E494E09F938F930E94B9
S11311C0A1318DB79EB782960FB6F8949EBF0FBE1D
S11311D08DBF81E00E9401250E9423269F938F9357
S11311E086E594E09F938F930E94A13184EF91E070
S11311F00E940C250E9423269F938F9381E08F9356
S113120084EF8F9387E794E09F938F930E94A1319B
S11312108DB79EB70A960FB6F8949EBF0FBE8DBFCA
S1131220CAE0D0E007E914E080E00E940D24D82E43
S11312300E9423269F938F93DF93CF931F930F9343
S11312400E94A1310F900F900F900F900F900F906C
S113125088E0D816D1F180E00E940C2266E371E0A8
S113126080E090E00E9442182197F1F635C048D4FE
S1131270FECF00E010E0980142E350E065E278E040
S1131280C7010E943F140297B0F083E00E941E221F
S113129065E278E080E00E9436240E9423269F9332
S11312A08F9387EB94E09F938F930E94A1310F90CB
S11312B00F900F900F9000E020E030E0A90160E073
S11312C070E080E090E026D60EC081E00E94EE211E
S11312D081E080932408CDCF81E00E94FD2180E04D
S11312E00E94C721C4CFDF91CF911F910F91FF902E
S11312F0EF90DF900895EC01CE01D9DE68EB7BE03E
S113130080E090E00E944218F7CFE8E0F1E090819D
S1131310907F908390818F70982B90830895E8E05C
S1131320F1E08081807F80830895CF93DF9380E113
S113133090E0B4D1EC01009739F0FC0111921192C4
S113134011921192CF0194D2CE01DF91CF910895E1
S11313502F923F924F925F926F927F928F929F92C1
S1131360AF92BF92CF92DF92EF92FF920F931F93AF
S1131370CF93DF93EC014A015B01622E702E0E9431
S1131380DD16288039804A805B8001110DC081E020
S1131390B201A101482159216A217B21452B462B09
S11313A0472B79F480E00DC081E0B201A10148210E
S11313B059216A217B21481559056A057B0509F0E5
S11313C080E0882381F0662009F46BC080949094B7
S11313D0A094B09482209320A420B520888299827E
S11313E0AA82BB825EC0C114D104E104F10409F4F1
S11313F058C0662029F040E050E060E071E003C08E
S113140040E050E0BA0171107460482959296A29F2
S11314107B2997018601CE0104960E94F1180E944F
S1131420C617811101C06CD30E94381B91FD35C0D1
S11314300FB6F8940F92688179818A819B8171102B
S11314400DC021E075016401C622D722E822F922E9
S1131450CD28CE28CF2879F420E00DC021E07501F5
S11314606401C622D722E822F922C814D904EA0466
S1131470FB0409F020E0222371F0662061F08094DF
S11314809094A094B09486229722A822B9228882AC
S11314909982AA82BB820F900FBE1B012C01552496
S11314A002C00E94C617C201B101DF91CF911F9102
S11314B00F91FF90EF90DF90CF90BF90AF909F90EF
S11314C08F907F906F905F904F903F902F900895F2
S11314D04F925F926F927F928F929F92AF92BF9240
S11314E0CF92DF92EF92FF920F931F93CF93DF93EC
S11314F0EC016A017B018C01095F1F4F0E94DD161C
S1131500EB85FC8588819981AA81BB81C82AD92A67
S1131510EA2AFB2AC882D982EA82FB820E171F07B5
S113152009F445C0C12CD12C760199249394812CC3
S1131530A480B58080819181A281B381AC01BD0179
S11315407727B2FD0FC0488059806A807B8044228F
S1131550552266227722292D45284628472889F4D2
S1131560282D0FC0488059806A807B8044225522F0
S113157066227722292D441655066606770609F059
S1131580282D222371F0B0FF04C0C42AD52AE62AEC
S1131590F72A488159816A817B817260CF010E9458
S11315A07719EA2DFB2D0E171F0711F603C0C12C66
S11315B0D12C7601C094D094E094F09488819981E0
S11315C0AA81BB81C822D922EA22FB22C882D982FD
S11315D0EA82FB820E94C617688179818A819B8195
S11315E0DF91CF911F910F91FF90EF90DF90CF90FB
S11315F0BF90AF909F908F907F906F905F904F902F
S11316000895CF93DF93DC01E7EAF8E001C0F90124
S1131610208131812A173B07D0F382819381AF0166
S1131620480F591FA417B50749F412964D915C91C0
S11316301397840F951F93838283DF0112968D91F4
S11316409C911397ED01C80FD91F2C173D07D9F4AE
S11316502091A5083091A608C217D30781F02A81EA
S11316603B81820F931F13969C938E931297C08194
S1131670D1818881998111969C938E9307C011968C
S1131680DC93CE9303C011963C932E93AE17BF0701
S113169011F0B183A083DF91CF910895CF92DF92AF
S11316A0EF92FF920F931F93CF93DF93EC010E946D
S11316B0DD168091A5089091A608892B41F5E7EAEB
S11316C0F8E0ABEAB8E0B183A08313821282E7E4C6
S11316D0F8E1F093A608E093A50813821282118220
S11316E010828CE99FE013969C938E931297ED934E
S11316F0FC939093A2088093A1089093A4088093EC
S1131700A30880E090E89093A00880939F08E0905D
S11317109F08F090A008C7018C239D23892B09F012
S113172066C0209709F466C0AE014C5F5F4F09F4B0
S11317305EC00091A3081091A4080417150708F4CB
S113174056C0C091A708D091A808E7EAF8E002C003
S1131750FE01E9012A813B812417350728F42881F9
S1131760398121153105A1F78091A5089091A6082A
S1131770C817D907E1F1C080D18084E0C80ED11C1C
S113178088819981918380832A813B81241B350B35
S11317902930310548F0CE01840F951FFC013383B5
S11317A022835B834A832DDF8A819B81081B190B6B
S11317B01093A4080093A3082091A1083091A208D3
S11317C00217130720F41093A2080093A108E82A33
S11317D0F92AFB82EA82198218820E94C617C11470
S11317E0D10459F40E94991EC12CD12C06C00E9428
S11317F0C617F8CF0E94C617F5CFC601DF91CF9167
S11318001F910F91FF90EF90DF90CF900895CF93A9
S1131810DF93009751F1FC01349722813381409189
S11318209F085091A008B90164237523672BE9F040
S113183060817181672BC9F4EF0140955095242391
S11318403523338322830E94DD162091A30830912F
S1131850A4088A819B81820F931F9093A40880938C
S1131860A308CE01CEDE0E94C617DF91CF91089562
S1131870FC010396928381834FEF5FEFBA014383A8
S113188054836583768390878783928781871082C8
S11318900895FC01138612860895CF93DF939C016B
S11318A0FB01DC011196CD91DC911297D583C483A1
S11318B08E819F81978386838E819F81DC0115961B
S11318C07C936E9314977F836E8333872287F90109
S11318D080818F5F8083DF91CF9108950F931F9351
S11318E0CF93DF93EB01088119812A813B810F3F5C
S11318F04FEF14072407340721F4FC01A185B285B6
S113190011C0DC01139601C0DF011496ED91FC9126
S11319101597408151816281738104171507260749
S1131920370790F71496ED91FC911597FD83EC839E
S1131930D783C683BF83AE831596DC93CE93149767
S11319409B878A87FC0120812F5F2083DF91CF91C1
S11319501F910F910895CF93DF93FC01A285B38566
S1131960C481D581868197819F838E83C681D781E7
S1131970848195819D838C8311968D919C9112977E
S1131980E817F90731F48681978112969C938E9318
S11319901197138612868C9181508C938C91DF91D0
S11319A0CF91089531E1FC013083319722E2208305
S11319B03197A3E3A0833197608331977083319784
S11319C0108231971082319760E8608331971082DA
S11319D03197108231971082319762E0608331979A
S11319E063E06083319764E06083319765E06083EE
S11319F0319766E06083319767E06083319768E0F0
S1131A006083319769E06083319760E16083319747
S1131A103083319732E13083319733E1308331972A
S1131A2034E13083319735E13083319736E13083C7
S1131A30319737E13083319738E13083319739E199
S1131A403083319730E23083319731E230833197FC
S1131A502083319723E22083319740833197508349
S1131A60319726E22083319727E22083319728E2B9
S1131A702083319729E22083319720E32083319713
S1131A8021E3208389970895A89590EC88E10FB607
S1131A90F894A895809360000FBE90936000A09185
S1131AA0C518B091C618CD91CDBFDD91DEBFFF91B1
S1131AB0EF91DF91CF91BF91AF919F918F917F91E2
S1131AC06F915F914F913F912F911F910F91FF90D3
S1131AD0EF90DF90CF90BF90AF909F908F907F90CA
S1131AE06F905F904F903F902F901F900F900CBE7F
S1131AF00F900BBE0F900FBE0F90089581E00895D4
S1131B000F920FB6F8940F920BB60F920CB60F9279
S1131B101F9211242F923F924F925F926F927F9265
S1131B208F929F92AF92BF92CF92DF92EF92FF92E9
S1131B300F931F932F933F934F935F936F937F93D1
S1131B408F939F93AF93BF93CF93DF93EF93FF93C1
S1131B50A091C518B091C6180DB60D920EB60D928F
S1131B600E945B18A091C518B091C618CD91CDBF45
S1131B70DD91DEBFFF91EF91DF91CF91BF91AF91E6
S1131B809F918F917F916F915F914F913F912F9191
S1131B901F910F91FF90EF90DF90CF90BF90AF9087
S1131BA09F908F907F906F905F904F903F902F9079
S1131BB01F900F900CBE0F900BBE0F900FBE0F9096
S1131BC008950F920FB6F8940F920BB60F920CB6BD
S1131BD00F921F9211242F923F924F925F926F9215
S1131BE07F928F929F92AF92BF92CF92DF92EF92A9
S1131BF0FF920F931F932F933F934F935F936F9392
S1131C007F938F939F93AF93BF93CF93DF93EF9380
S1131C10FF93A091C518B091C6180DB60D920EB6DB
S1131C200D9213BE0E94F11681110E945B18A091BF
S1131C30C518B091C618CD91CDBFDD91DEBFFF911F
S1131C40EF91DF91CF91BF91AF919F918F917F9150
S1131C506F915F914F913F912F911F910F91FF9041
S1131C60EF90DF90CF90BF90AF909F908F907F9038
S1131C706F905F904F903F902F901F900F900CBEED
S1131C800F900BBE0F900FBE0F9008959ADF18951A
S1131C900FB6F8940F92FC01968D0F900FBE81E061
S1131CA0911180E008950F931F93CF93DF93EC017C
S1131CB0042F1E8D48A141110CC088819981892B64
S1131CC009F042C08C819D810E94AC1A1D821C8245
S1131CD042C0011117C050E08A819B810E944231A9
S1131CE028A18A819B81820F911D9B838A832C81E9
S1131CF03D818217930750F1888199819B838A8360
S1131D0080E029C050E08E819F810E94423188A1E9
S1131D1090E09195819591092E813F81280F391F7B
S1131D203F832E83488159812417350730F42C8151
S1131D303D81820F931F9F838E83023049F41123C8
S1131D4049F0115080E007C080E005C080E003C086
S1131D5080E001C080E01F5F1E8FDF91CF911F9153
S1131D600F910895FC0140A14423A9F050E026817D
S1131D703781240F351F3783268384819581281763
S1131D80390720F08081918197838683CB01668116
S1131D9077810C9442310895EF92FF920F931F9331
S1131DA0CF938C010FB6F8940F92FC01C2A11C16BC
S1131DB0ACF48389811106C011C0F80183898111B3
S1131DC005C00CC07801F3E1EF0EF11CC7010E94BD
S1131DD0351981110E94271AC15079F78FEFF80144
S1131DE082A30F900FBE0FB6F8940F92C1A11C16D8
S1131DF0ACF48085811106C011C0F8018085811181
S1131E0005C00CC07801F8E0EF0EF11CC7010E9478
S1131E10351981110E94271AC15079F78FEFF80103
S1131E2081A30F900FBECF911F910F91FF90EF9060
S1131E300895CF93DF93EC010FB6F8940F92E881E5
S1131E40F9818F8D28A190E030E0829FA001839FCB
S1131E50500D929F500D11244E0F5F1F5D834C83D4
S1131E601E8EFB83EA830197829FA001839F500DFE
S1131E70929F500D1124CF01840F951F9F838E8351
S1131E808FEF89A38AA361110BC08885882371F021
S1131E90CE0108960E943519882341F031DE06C030
S1131EA0CE010896E5DCCE014396E2DC0F900FBE2E
S1131EB081E0DF91CF910895FF920F931F93CF9309
S1131EC0DF93082F162FF42E6623B9F0869FC001E6
S1131ED011248596E3DBEC01009741F414C00F8FC5
S1131EE018A361E0CE01A5DFFCA20DC085969983FD
S1131EF08883F5CFD983C883F2CF85E290E0CEDB27
S1131F00EC01892BB9F7CE01DF91CF911F910F918D
S1131F10FF9008959F92AF92BF92CF92DF92EF927B
S1131F20FF920F931F93CF93DF93CDB7DEB729971B
S1131F300FB6F894DEBF0FBECDBF7C015B012E83CC
S1131F403F834887598710E0992493946C0188E073
S1131F50C80ED11C0FB6F8940F92F701968D878D99
S1131F60981710F00230B1F4402FB501C7019BDE81
S1131F70F7019389992341F0C70143960E943519CB
S1131F80882321F0BDDD02C08111BADD0F900FBEA0
S1131F9081E04EC08E819F81A885B985892B8A2BCB
S1131FA08B2B21F40F900FBE80E042C0111105C0AD
S1131FB0CE0101960E94C119192D0F900FBEFDD6B6
S1131FC00FB6F8940F92F70181A18F3F09F411A283
S1131FD0F70182A18F3F09F412A20F900FBEBE0138
S1131FE06A5F7F4FCE0101960E94D21981111CC0F5
S1131FF00FB6F8940F92F701968D878D0F900FBE50
S113200098130EC04E815F8168857985C6010E9450
S1132010DA18C701C1DEBAD781119CCF71DD9ACF1E
S1132020C701BADEB3D796CFC701B6DEAFD780E01B
S113203029960FB6F894DEBF0FBECDBFDF91CF91C6
S11320401F910F91FF90EF90DF90CF90BF90AF90D2
S11320509F9008950F93CF93DF93482F60E081E022
S11320602BDFEC01009761F01D821C82198218821B
S11320701E8200E020E030E0A90160E070E04ADF69
S1132080CE01DF91CF910F910895EF92FF920F93BC
S11320901F93CF93DF938A01FC01568D378D53171D
S11320A010F02230E9F4422F7801EC011AA1FBDD93
S11320B01F3F81F48B898823A9F0CE0143960E94A7
S11320C03519882389F0E114F10481F081E0F701E6
S11320D080830DC0FF24F394F10EFAA281E007C0BF
S11320E080E005C081E003C081E001C081E0DF91B0
S11320F0CF911F910F91FF90EF9008959F92AF920F
S1132100BF92CF92DF92EF92FF920F931F93CF93E0
S1132110DF93CDB7DEB729970FB6F894DEBF0FBEB5
S1132120CDBF8C015B012E833F8348875987E12C07
S1132130992493946C0183E1C80ED11C0FB6F894D2
S11321400F92F801F68CFF2099F0B501C8010ADE60
S1132150FA94F801F68E8085882331F0C801089638
S11321600E9435198111CCDC0F900FBE81E04CC068
S11321708E819F81A885B985892B8A2B8B2B21F48D
S11321800F900FBE80E040C0E11005C0CE01019663
S11321900E94C119E92C0F900FBE0FD60FB6F89408
S11321A00F92F80181A18F3F09F411A2F80182A1D5
S11321B08F3F09F412A20F900FBEBE016A5F7F4FDA
S11321C0CE0101960E94D219811115C0C80160DDAB
S11321D0882369F04E815F8168857985C601EAD7D5
S11321E0C801DADDD3D68111A9CF8ADCA7CFC80113
S11321F0D3DDCCD6A3CFC801CFDDC8D6C80148DD16
S1132200882309F49BCF80E029960FB6F894DEBFAB
S11322100FBECDBFDF91CF911F910F91FF90EF9033
S1132220DF90CF90BF90AF909F900895BF92CF92D0
S1132230DF92EF92FF920F931F93CF93DF93CDB76B
S1132240DEB729970FB6F894DEBF0FBECDBF8C0161
S11322504E835F8368877987B12CD12CCC24C394B7
S11322607C0183E1E80EF11C0FB6F8940F92D801BB
S11322705E968C915E978823D9F081505E968C93FC
S11322805E978D919C91892B29F40E94601BF80123
S113229095838483D80118968C91882329F0C801EA
S11322A00896E3D781112CDC0F900FBE81E07AC031
S11322B08E819F81A885B985892B8A2B8B2B21F44C
S11322C00F900FBE80E06EC0D11005C0CE01019604
S11322D00E94C119DC2C0F900FBE6FD50FB6F89475
S11322E00F92F80181A18F3F09F411A2D8019296AF
S11322F08C9192978F3F11F492961C920F900FBE7F
S1132300BE016A5F7F4FCE0101960E94D2198111EE
S113231024C0C801BDDC8823E1F0F80180819181EB
S1132320892B51F40FB6F8940F92848195810E9401
S11323303E1AB82E0F900FBE4E815F816885798555
S1132340C70138D7C80128DD21D681118DCFD8DB4C
S11323508BCFC80121DD1AD687CFC8011DDD16D663
S1132360C80196DC882309F47FCFBB20D1F00FB6D7
S1132370F8940F92F8018389882339F0028CF38D45
S1132380E02D808164E0681B01C060E0D8011496F0
S11323908D919C9115970E94EC1A0F900FBE80E0CE
S11323A001C080E029960FB6F894DEBF0FBECDBF02
S11323B0DF91CF911F910F91FF90EF90DF90CF901D
S11323C0BF900895CF93DF93EC010FB6F8940F926A
S11323D089A18F3F09F419A28AA18F3F09F41AA297
S11323E00F900FBE8E8D811103C0CE0143961DD771
S11323F0CE01D2DCDF91CF910895FC014481558157
S113240022813381240F351F80819181B901681B9A
S1132410790BCB016417750710F0841B950B089595
S1132420AF92BF92CF92DF92EF92FF920F931F93DE
S1132430CF93DF936C015B017A01FC01C281D381EC
S1132440048115810C1B1D0B4017510708F48A01E8
S1132450F60184859585A801B5018C0F9D1F0E9406
S113246042310E151F0558F4A701401B510BB5014D
S1132470600F711FF601848595850E944231CE015B
S11324808E0D9F1DF601248135818217930710F06C
S1132490821B930BF60193838283C701DF91CF9153
S11324A01F910F91FF90EF90DF90CF90BF90AF906E
S11324B00895CF92DF92EF92FF920F931F93CF93E1
S11324C0DF931F921F92CDB7DEB75A83498321153C
S11324D03105C9F06B017C01FC01868580FD08C0D3
S11324E0CA012417350708F4C9019A83898311C0E6
S11324F02017310758F042E050E0BE016F5F7F4F74
S1132500C7018EDF06C080E090E008C080E090E064
S113251005C049815A81B601C70182DF0F900F902F
S1132520DF91CF911F910F91FF90EF90DF90CF90AB
S11325300895AF92BF92CF92DF92EF92FF920F93E2
S11325401F93CF93DF937C015B01E901421753078B
S113255008F4EA01209779F1F70100811181C48020
S1132560D580C01AD10ACC15DD0508F46E01F70137
S113257064857585600F711FA601C5010E944231F3
S1132580CC16DD0658F4AE014C195D09F7016485DB
S11325907585C5018C0D9D1D0E9442310C0F1D1FB8
S11325A0F701848195810817190710F0081B190B8E
S11325B0F70111830083CE01DF91CF911F910F9119
S11325C0FF90EF90DF90CF90BF90AF900895EF927F
S11325D0FF921F93CF93DF93EB0111E0413009F099
S11325E010E0209711F4C1E0D0E07C012FEFE21A53
S11325F0F20A419653D8009781F020E1FC01119230
S11326002A95E9F79C01205F3F4FFC013587248719
S1132610F582E482D783C6831687DF91CF911F9119
S1132620FF90EF900895CF93DF93FC0127850FB6B9
S1132630F8940F9280859185892BD1F482859385B6
S1132640892BC1F486854681578164817581A4856F
S1132650B58590E1EF0119929A95E9F7B587A487BA
S113266075836483578346838687278781E003C005
S113267080E001C080E00F900FBEDF91CF910895FC
S1132680FC01248135818081918142815381820FB3
S1132690931F0197841B950B8217930710F0821BDD
S11326A0930B08952F923F924F925F926F927F9275
S11326B08F929F92AF92BF92CF92DF92EF92FF924E
S11326C00F931F93CF93DF93CDB7DEB729970FB640
S11326D0F894DEBF0FBECDBF5C011B012A010E833F
S11326E01F8328873987FC01868580FF05C03A014E
S11326F0F2E06F0E711C01C03A018E819F81A885A2
S1132700B985892B8A2B8B2B09F434C0CE01019611
S113271022D60FB6F8940F92C501B2DF4C0186158C
S1132720970518F580E090E00E94FD1C94D6F50111
S1132730938782870F900FBECE80DF80E884F98470
S113274000E010E020E030E0A90160E070E0CB019F
S1132750C9D7F50113861286BE016A5F7F4FCE0189
S1132760019620D68823A9F202C00F900FBE8114CF
S1132770910419F4C50184DF4C0183019401A20181
S1132780B101C50196DE7C01892BE1F0C50135DE7E
S1132790F5012681378182179307A0F00ED3F50146
S11327A080859185892B69F08085918500E010E012
S11327B020E040E050E0BA010E94FC1BF5011186C4
S11327C01086E4D3C70129960FB6F894DEBF0FBE76
S11327D0CDBFDF91CF911F910F91FF90EF90DF90CC
S11327E0CF90BF90AF909F908F907F906F905F90AD
S11327F04F903F902F900895AF92BF92CF92DF9267
S1132800EF92FF920F931F93CF93DF93EC015B0141
S11328106A0179018E8580FF04C08A010E5F1F4F13
S113282001C08A01CE012CDF9C01A601B501CE01B5
S113283040DE6C01892BB9F0CE01DFDD2E813F81B2
S11328408217930780F088859985892B61F08885A4
S1132850998500E010E020E040E050E0BA010E94D9
S1132860741C19861886C601DF91CF911F910F91B0
S1132870FF90EF90DF90CF90BF90AF9008954F926C
S11328805F926F927F928F929F92AF92BF92CF92FC
S1132890DF92EF92FF920F931F93CF93DF931F92D8
S11328A01F92CDB7DEB75C012B013A0168017901B3
S11328B0FC01868580FD03C0812C912C04C06894A2
S11328C0882481F8912CC114D104E104F10431F17C
S11328D00FB6F8940F92C50190DD8C018816990605
S11328E040F080E090E00E94FD1CB5D5F501918791
S11328F080870F900FBE80169106B0F000E010E0C4
S113290020E030E0A90160E070E0CB01EBD6F501F6
S113291011861086C50171DD8C0103C0C5016DDD12
S11329208C0180169106B8F581149104C1F0F5016B
S1132930E080F1809801A401BE016F5F7F4FC50163
S1132940F8DD89819A81081919096816790630F425
S1132950F501F182E082612C712C01C03C019801E7
S1132960A301B201C501E5DD7C01892BB1F025D2BB
S1132970F50182859385892B61F08285938500E03A
S113298010E020E040E050E0BA0136D7F5011386AC
S11329901286FCD202C0E12CF12CC7010F900F90DB
S11329A0DF91CF911F910F91FF90EF90DF90CF9027
S11329B0BF90AF909F908F907F906F905F904F905B
S11329C00895E0918118F0918218808181110CC0E2
S11329D08FEF9FEFDC0180934E1890934F18A093D4
S11329E05018B09351180895E0918118F09182180D
S11329F00780F085E02D0084F185E02D82819381AC
S1132A00A481B58180934E1890934F18A0935018C9
S1132A10B093511808958F929F92AF92BF92CF9224
S1132A20DF92EF92FF92CF936B017C01C42F8090D1
S1132A30581890905918A0905A18B0905B1880912B
S1132A40C5189091C61802960E94AB0C8FEFC81659
S1132A50D806E806F80669F4CC2359F06091C51845
S1132A607091C6186E5F7F4F8DE598E10E944D0C02
S1132A703FC0C80CD91CEA1CFB1CE091C518F0919E
S1132A80C618C282D382E482F582C814D904EA0447
S1132A90FB0468F46091C5187091C61880917F1882
S1132AA0909180186E5F7F4F0E946E0C21C06091E0
S1132AB0C5187091C61880918118909182186E5F24
S1132AC07F4F0E946E0C80914E1890914F18A091E8
S1132AD05018B0915118C816D906EA06FB0640F4FE
S1132AE0C0924E18D0924F18E0925018F09251189C
S1132AF0CF91FF90EF90DF90CF90BF90AF909F90D9
S1132B008F9008954F925F926F927F928F929F92CF
S1132B10AF92BF92CF92DF92EF92FF920F93CF9337
S1132B20DF934C016B015A012901CA010E944E0B2B
S1132B303C01892B09F4F4C080E390E00E944E0B21
S1132B40EC01892B99F07C8E6B8EA50165EA70E00F
S1132B50C3010E944B3121E0A21AB1088B8D9C8DD8
S1132B60A80EB91EC114D10429F420C0C3010E94C7
S1132B70070CD6C0D6018C918D8F8C918823A1F03F
S1132B80AE01425E5F4FF6013196B8E0CB0ED11C28
S1132B90CF012191DA012D93AD01DC018C918823C1
S1132BA019F0EC15FD05A1F71CA201C01D8E04301F
S1132BB008F003E00A8F0FA318A66E01B2E0CB0E53
S1132BC0D11CC6010E94490CCE010E960E94490CEC
S1132BD0DB87CA8784E090E0A0E0B0E0801B910925
S1132BE0A109B1098E879F87A88BB98BDF8BCE8B08
S1132BF01AA619A61BA61CA61DA61EA61FA6A201E0
S1132C00B401C5010E94D20C99838883E114F104B4
S1132C1019F0F701D183C0830FB6F8940F92809115
S1132C205C188F5F80935C188091C5189091C618CA
S1132C30892BD1F5D093C618C093C51880915C1820
S1132C40813009F041C089E998E10E94380C84EA96
S1132C5098E10E94380C8FEA98E10E94380C8AEBC4
S1132C6098E10E94380C8EE898E10E94380C83E8C1
S1132C7098E10E94380C84E798E10E94380C89E6B8
S1132C8098E10E94380C8DE598E10E94380C8EE89A
S1132C9098E1909382188093811883E898E1909347
S1132CA0801880937F1810C08091561881110CC031
S1132CB0E091C518F091C618928D8A8D891720F07D
S1132CC0D093C618C093C518809152188F5F809313
S1132CD052188DA38A8D90915718981710F48093E9
S1132CE05718FBE08F9FC0011124B6018756974EF9
S1132CF00E944D0C0F900FBE80915618882361F0EE
S1132D00E091C518F091C618928D8A8D981730F409
S1132D100E94800D81E005C081E003C081E001C014
S1132D208FEFDF91CF910F91FF90EF90DF90CF90D5
S1132D30BF90AF909F908F907F906F905F904F90D7
S1132D400895EF92FF920F930F2EFCE4EF2EF8E11B
S1132D50FF2EF02D00E020E030E040EC50E06CEC81
S1132D6074E08DEC90E0CEDE813019F5CCD6813064
S1132D7001F5F8948FEF9FEFDC0180934E18909348
S1132D804F18A0935018B093511881E080935618AF
S1132D90109258181092591810925A1810925B18E1
S1132DA0E091C518F091C61881A50E9485090E947A
S1132DB0440D0F91FF90EF90089580914B188F5F11
S1132DC080934B1808950FB6F8940F926091581899
S1132DD07091591880915A1890915B180F900FBEFA
S1132DE008959F92AF92BF92CF92DF92EF92FF929B
S1132DF00F931F93CF93DF9380914B188111ADC034
S1132E00C0905818D0905918E0905A18F0905B1858
S1132E108FEFC81AD80AE80AF80AC0925818D09254
S1132E205918E0925A18F0925B18C114D104E104C5
S1132E30F104B1F4809181189091821820917F1847
S1132E4030918018309382182093811890938018C1
S1132E5080937F18809153188F5F80935318B1DD4E
S1132E6080914E1890914F18A0915018B09151181C
S1132E70C816D906EA06FB0610F4B12C5DC0B12CC5
S1132E800F2EFBE0AF2EF02D99249394E09181183E
S1132E90F0918218808181110CC08FEF9FEFDC01CB
S1132EA080934E1890934F18A0935018B0935118D4
S1132EB043C0E0918118F09182180780F085E02DDD
S1132EC0C085D1858A819B81AC81BD81C816D90614
S1132ED0EA06FB0648F480934E1890934F18A0938B
S1132EE05018B093511828C08E010E5F1F4FC801AF
S1132EF00E94AB0C888D998D892B21F0CE010E9602
S1132F000E94AB0C8A8D90915718981710F48093F7
S1132F105718A89EC0011124B8018756974E0E94E5
S1132F204D0CE091C518F091C6189A8D828D9817B2
S1132F3008F4ACCFB92CAACFE091C518F091C6180B
S1132F40E28D8BE0E89FF0011124E756F74E808173
S1132F50823048F0BB24B39406C0809155188F5F2B
S1132F6080935518B12C80915418882311F0BB24F8
S1132F70B3948B2DDF91CF911F910F91FF90EF9020
S1132F80DF90CF90BF90AF909F900895CF92DF9243
S1132F90EF92FF920F931F93CF93DF930FB6F894A2
S1132FA00F9280914B18815080934B1880914B184D
S1132FB081115AC080915C1881112CC058C0D7016E
S1132FC01796ED91FC911897C085D185CE010E9688
S1132FD00E94AB0C8E010E5F1F4FC8010E94AB0C08
S1132FE08A8D90915718981710F480935718D89E8B
S1132FF0C0011124B8018756974E0E944D0CE091F0
S1133000C518F091C6189A8D828D981788F0C092D1
S113301054180EC0C0E0D0E00F2EF4E7EF2EF8E114
S1133020FF2EF02D0F2EFBE0DF2EF02DCC24C394C9
S1133030F70180818111C3CFCD2B09F0C2DCC0918F
S11330405518CC2349F0D1E0CCDE8111D09354182B
S1133050C150D1F71092551880915418882331F03B
S11330600E94800D81E003C080E001C080E00F90E9
S11330700FBEDF91CF911F910F91FF90EF90DF90E2
S1133080CF900895CF92DF92EF92FF926B017C0173
S1133090672B682B692B41F090DE40E0C701B60135
S11330A0BADC74DF811102C00E94800DFF90EF90A2
S11330B0DF90CF90089580914B18882321F081E010
S11330C080935418089510925418E091C518F09103
S11330D0C61881A50E948F09A091C518B091C61881
S11330E0E091C518F091C6182D913C91838D948D73
S11330F08217930758F06091C5187091C618809193
S1133100C5189091C618635E7F4F20D680915718DA
S1133110282F30E09BE0899FF0011124E756F74EF9
S1133120908191110EC04BE08150282F30E0429FD6
S1133130F001439FF00D1124E756F74E9081992337
S113314099F39BE0929FA001939F500D1124DA0103
S1133150A756B74E1196ED91FC9112970480F58114
S1133160E02D1296FC93EE9311974456574EE417B4
S1133170F50729F444815581FD01528341839BE085
S1133180929FF001939FF00D1124E756F74E0180B2
S1133190F281E02D208531853093C6182093C5181F
S11331A080935718E091C518F091C61881A50C9426
S11331B085090895CF92DF92EF92FF926A017B0115
S11331C06091C5187091C618625F7F4F0E946E0CA3
S11331D041E0C701B6011FDCFF90EF90DF90CF9074
S11331E00895CF92DF92EF92FF920F931F9368019D
S11331F07901E091C518F091C61870684687578721
S1133200608B718B6091C5187091C618625F7F4F97
S11332100E944D0C41E0C701B601FDDB1F910F91E7
S1133220FF90EF90DF90CF900895CF92DF92EF92CE
S1133230FF92CF936A017B01C22F6091C5187091F0
S1133240C618625F7F4F0E944D0CCC2321F0CC2422
S1133250CA94DC2C76014C2FC701B601DCDBCF917C
S1133260FF90EF90DF90CF9008950F931F93CF932B
S1133270DF93DC011796ED91FC911897C085D185F9
S11332808E01025F1F4FC8010E94AB0C80914B1846
S1133290811116C00C501109C8010E94AB0C8A8D13
S11332A090915718981710F480935718BBE08B9F90
S11332B0C0011124B8018756974E0E944D0C05C0D9
S11332C0B80184E798E10E944D0CE091C518F09193
S11332D0C6189A8D828D891720F481E08093541842
S11332E001C080E0DF91CF911F910F9108950F935A
S11332F01F93CF93DF937068FC01408351836283F3
S11333007383C085D1850E94AB0C8E010E5F1F4F65
S1133310C8010E94AB0C8A8D90915718981710F42D
S113332080935718FBE08F9FC0011124B801875682
S1133330974E0E944D0CE091C518F091C6189A8DD5
S1133340828D891718F481E080935418DF91CF910E
S11333501F910F9108950FB6F8940F92209153186E
S1133360FC012083409158185091591860915A18C3
S113337070915B1841835283638374830F900FBEF3
S1133380089520915318FC012083409158185091BE
S1133390591860915A1870915B1841835283638362
S11333A074830895CF92DF92EF92FF920F931F934D
S11333B0CF93DF93FB010FB6F8940F924091581806
S11333C05091591860915A1870915B1800811181BD
S11333D0228133810F3FAFEF1A072A073A0749F1D9
S11333E0EC01C980DA80EB80FC80A0915318B8818D
S11333F0BA1729F04C155D056E057F05E0F44C19EC
S11334005D096E097F09401751076207730758F475
S1133410041B150B260B370B008311832283338384
S1133420B0DF80E009C0108211821282138281E031
S113343003C080E001C081E00F900FBEDF91CF9107
S11334401F910F91FF90EF90DF90CF90089581E04E
S11334508093541808958091C5189091C6180895C2
S113346080915618882331F080914B18882321F0DD
S113347080E0089581E0089582E008950F931F93FA
S1133480CF93DF93FC01892B09F460C0828DA09156
S1133490C518B091C6185A969C91891708F04AC06D
S11334A04685578560897189772394F0A091C51862
S11334B0B091C6185A969C9144E050E060E070E0E8
S11334C0491B51096109710946875787608B718BC4
S11334D02BE0829FC00111248756974E24853585A1
S11334E028173907F1F48F01EF012296CE010E94CB
S11334F0AB0CE091C518F091C618828DF801828F4B
S113350090915718981710F480935718FBE08F9FE9
S1133510C0011124BE018756974E0E944D0C81E0D4
S113352016C0A091C518B091C6185A968C91828F76
S113353081E00DC0A091C518B091C61881E027A103
S11335405A969C91291718F080E001C080E0DF9121
S1133550CF911F910F9108950F931F93CF93DF93F2
S1133560FC01892B79F180A5815080A7228D97A138
S1133570291751F181112AC0EF018F010E5F1F4FEE
S1133580C8010E94AB0C8FA18A8F44E050E060E038
S113359070E0481B5109610971094E875F87688B88
S11335A0798B90915718981710F4809357182BE043
S11335B0829FC0011124B8018756974E0E944D0C7A
S11335C081E005C080E003C080E001C080E0DF91BD
S11335D0CF911F910F9108950F931F93CF93DF9372
S11335E0FC01892B09F43FC087A1861708F4862FB4
S11335F0928D9817C1F120A52130A9F5828F4685B7
S1133600578560897189772364F044E050E060E075
S113361070E0481B51096109710946875787608B1F
S1133620718B2BE0929FC00111248756974E2485FD
S1133630358528173907B9F4EF018F010E5F1F4F45
S1133640C8010E94AB0C8A8D90915718981710F4FA
S1133650809357182BE0829FC0011124B80187562C
S1133660974E0E944D0CDF91CF911F910F910895B9
S1133670CF92DF92EF92FF92E091C518F091C618B5
S11336806685778580899189E091C518F091C6187F
S1133690A091C518B091C6185A962C91C12CD12C62
S11336A076016894C2F8C21AD108E108F108C68606
S11336B0D786E08AF18AFF90EF90DF90CF9008954B
S11336C08091C5189091C618892B39F0E091C518DE
S11336D0F091C61880A58F5F80A78091C51890913E
S11336E0C61808954F925F926F927F928F929F9225
S11336F0AF92BF92CF92DF92EF92FF920F931F93FC
S113370049015A010FB6F8940F92E091C518F0914F
S1133710C61827A5223039F1E091C518F091C618D2
S113372043A454A465A476A4DC01CB0180959095B0
S1133730A095B09584219521A621B72183A794A7AC
S1133740A5A7B6A7E091C518F091C61881E087A790
S1133750C114D104E104F10431F041E0C701B60120
S11337605AD90E94800D0F900FBE0FB6F8940F9295
S11337700115110569F0E091C518F091C61883A5EB
S113378094A5A5A5B6A5F80180839183A283B383EC
S1133790E091C518F091C61887A58230B1F4E09184
S11337A0C518F091C61883A594A5A5A5B6A58094BF
S11337B09094A094B09488229922AA22BB2283A632
S11337C094A6A5A6B6A681E001C080E0E091C51844
S11337D0F091C61817A60F900FBE1F910F91FF907E
S11337E0EF90DF90CF90BF90AF909F908F907F909D
S11337F06F905F904F9008950F931F93CF93DF9333
S1133800FC010FB6F8940F920115110549F083A538
S113381094A5A5A5B6A5E80188839983AA83BB834B
S113382087A592E097A72230B1F018F4213031F047
S11338302AC02330E9F0243001F125C003A514A5E2
S113384025A536A5402B512B622B732B43A754A7D8
S113385065A776A718C043A554A565A576A54F5FAF
S11338605F4F6F4F7F4F43A754A765A776A70BC041
S113387043A754A765A776A706C0823049F143A79A
S113388054A765A776A7813029F5EF018F010E5F54
S11338901F4FC8010E94AB0C8A8D9091571898173E
S11338A010F4809357182BE0829FC0011124B801B3
S11338B08756974E0E944D0CE091C518F091C6189A
S11338C09A8D828D891740F40E94800D81E005C095
S11338D080E003C081E001C081E00F900FBEDF9162
S11338E0CF911F910F910895EF92FF920F931F9321
S11338F0CF93DF93FC010115110549F083A594A52D
S1133900A5A5B6A5E80188839983AA83BB8387A567
S113391092E097A72230B1F018F4213031F02AC098
S11339202330E9F0243001F125C003A514A525A511
S113393036A5402B512B622B732B43A754A765A7A5
S113394076A718C043A554A565A576A54F5F5F4F1C
S11339506F4F7F4F43A754A765A776A70BC043A714
S113396054A765A776A706C08230D9F143A754A708
S113397065A776A78130B9F5EF0180914B188111C5
S113398017C08F010E5F1F4FC8010E94AB0C8A8DB8
S113399090915718981710F480935718EBE08E9F66
S11339A0C0011124B8018756974E0E944D0C07C0E0
S11339B0BF01625F7F4F84E798E10E944D0CE09164
S11339C0C518F091C6189A8D828D891770F4E11488
S11339D0F10419F081E0E701888381E080935418B1
S11339E005C080E003C081E001C081E0DF91CF9198
S11339F01F910F91FF90EF900895009721F480910B
S1133A00C5189091C6180FB6F8940F92FC0127A51B
S1133A10223019F417A681E001C080E00F900FBE98
S1133A200895CF92DF92EF92FF920F931F93FC01C0
S1133A3042835383648375839387828704171507AE
S1133A4026073707C0F00C191D092E093F09868582
S1133A509785A089B189081719072A073B0700F53C
S1133A60BF016E5F7F4F8091CF189091D0180E9454
S1133A706E0C80E018C00C151D052E053F0528F4BA
S1133A804C155D056E057F0568F4BF016E5F7F4FC1
S1133A908091D1189091D2180E946E0C80E003C0DE
S1133AA081E001C081E01F910F91FF90EF90DF90C2
S1133AB0CF9008950FB6F8940F928091CD189091FD
S1133AC0CE18892BE9F48EED98E10E94380C83ED31
S1133AD098E10E94380C8EED98E19093D21880936F
S1133AE0D11883ED98E19093D0188093CF1840E0DB
S1133AF067E08AE00E945C0F9093CE188093CD1803
S1133B000F900FBE0895EF92FF920F93D3DF809131
S1133B10CD189091CE18892B91F00F2EFBECEF2E3F
S1133B20F8E1FF2EF02D03E020E030E045E550E021
S1133B3061ED74E087E091E00E94821501C080E0AD
S1133B400F91FF90EF9008958F929F92AF92BF9242
S1133B50CF92DF92EF92FF920F931F93CF93DF9355
S1133B60CDB7DEB727970FB6F894DEBF0FBECDBF33
S1133B70E091CD18F091CE18309781F169832A83B2
S1133B803B834C835D839F838E836630F4F468DCCF
S1133B90823069F400E0A7019601BE016F5F7F4F98
S1133BA08091CD189091CE180E948A0F18C000E021
S1133BB020E030E0A901BE016F5F7F4F8091CD18F6
S1133BC09091CE180E948A0F0AC020E0A801BE017D
S1133BD06F5F7F4FCF010E94451001C080E02796A0
S1133BE00FB6F894DEBF0FBECDBFDF91CF911F910A
S1133BF00F91FF90EF90DF90CF90BF90AF909F9088
S1133C008F9008952F923F924F925F926F927F927E
S1133C108F929F92AF92BF92CF92DF92EF92FF92D8
S1133C200F931F93CF93DF931C01CDD82B013C013D
S1133C308091C7189091C818A091C918B091CA185A
S1133C40481659066A067B0608F053C03BC0078035
S1133C50F085E02D80809180A280B380C085D185DD
S1133C608E010E5F1F4FC8010E94AB0CEC89FD89C9
S1133C70CE0119958F8982FF25C08E859F85A889DD
S1133C80B989880D991DAA1DBB1D88169906AA0617
S1133C90BB0670F48A839B83AC83BD83DB87CA87AE
S1133CA0B8018091D1189091D2180E946E0C0AC06C
S1133CB0C12CD12C760100E010E0A501940160E054
S1133CC0CE0142DFE091D118F091D21880818111A8
S1133CD0BECF8091CF189091D0189093D218809332
S1133CE0D118F093D018E093CF1881E0F1018083CC
S1133CF002C0F10110824092C7185092C818609215
S1133D00C9187092CA18C301B201DF91CF911F91F3
S1133D100F91FF90EF90DF90CF90BF90AF909F9066
S1133D208F907F906F905F904F903F902F90089569
S1133D300895279A2F9A2FEF80E792E02150804030
S1133D409040E1F700C000001F9AF5CF279A2F9A00
S1133D502FEF87EA91E6215080409040E1F700C0C0
S1133D6000001F9AF5CF8F929F92AF92BF92CF928D
S1133D70DF92EF92FF920F931F93CF93DF930E94F2
S1133D804303E090491AF0904A1A4091631A509103
S1133D90641AA12CB12C65016894A4F801E010E028
S1133DA020E030E060EC82E00E94A806C82FD92F02
S1133DB0E090491AF0904A1A4091631A5091641A9B
S1133DC0A12CB12C65016894A5F808E010E020E06E
S1133DD030E060EC82E00E9486024C01E090491AD7
S1133DE0F0904A1A4091631A5091641AA12CB12C94
S1133DF065016894A6F804E010E020E030E060EC8F
S1133E0082E00E948807182F092F0E947B07E09008
S1133E10491AF0904A1A4091631A5091641A809199
S1133E204C1A8F9380914B1A8F938091461A8F93DB
S1133E308091451A8F930F931F93DF93CF930F2E87
S1133E40F0E7AF2EB12CC12CD12CF02D0DE010E0F9
S1133E5020E030E060EC84E00E94530440914B1A6F
S1133E6050914C1A6091451A7091461A81E00E9453
S1133E7044086091471A7091481A81E00E94FE0537
S1133E808DB79EB708960FB6F8949EBF0FBE8DBF30
S1133E90DF91CF911F910F91FF90EF90DF90CF9022
S1133EA0BF90AF909F908F9008950E949509909332
S1133EB0641A8093631A0E94950990934A1A809316
S1133EC0491A41E060E070E084E690E00E94E71265
S1133ED09093461A8093451A81E00E942A10909389
S1133EE04C1A80934B1A41E060E070E08CE290E061
S1133EF00E94E7129093481A8093471A81B181680F
S1133F0081B980E00E948B2B85E011D06091471A23
S1133F107091481A81E0C3D369C00895C6DF23DFD6
S1133F2089ED94E00E94B4310E94A116FFCFE5E62A
S1133F30FAE124EA36E23183208327EA36E2338346
S1133F40228322EB36E23583248326EB36E2378361
S1133F5026832CEB36E23187208728EC36E2338740
S1133F6022872DEC36E23587248729ED36E2378720
S1133F70268729EB36E2318B208B2EED36E2338B0C
S1133F80228B2BEE36E2358B248B682FCF0153C165
S1133F9008956530F1F4FA0180818F7390E0982FD1
S1133FA088272181822B90930D0280930C028281B9
S1133FB0F0E48F9FC0011124FA01238126952695F0
S1133FC0822B90930B0280930A0281E08093E9187C
S1133FD00895643051F080E090E490930B02809354
S1133FE00A0290930D0280930C0208950F931F937D
S1133FF009EC1FE120E034E244EF50E060E087E2A6
S11340000E94C52B9093EB188093EA1821E0892B2A
S113401009F020E0822F1F910F9108958091E918F3
S113402008958091EA189091EB18009759F040E0B8
S113403060E070E00E94162C843031F41092E9188C
S113404080E0089582E0089583E008958091EA185D
S11340509091EB18009739F064E00E94622C85304F
S113406021F083E0089582E0089580E0089560914E
S11340700C0270910D0280E090E00E946C2E20E012
S113408030E048EC52E40E94FA2E20E038EF4FE78B
S113409056E40C94D32D0895EADF20E030E040E2AA
S11340A051E40E94FA2E0E94402ECB0108956091A3
S11340B00A0270910B0280E090E00E946C2E20E0D6
S11340C030E045E253E40E94FA2E20E038EF4FE757
S11340D056E40E94D32D20E030E040E252E40C94F8
S11340E06E2D0895E4DF20E030E040E251E40E94C8
S11340F0FA2E0E943B2ECB010895CF93DF9390E0DC
S1134100FC01EE0FFF1FE80FF91FEE0FFF1FE45134
S1134110F74E238121110AC0EF01E0916D1AF0914D
S11341206E1A6A8188819981199512C0DC01AA0FDF
S1134130BB1FED01C80FD91FCC0FDD1FC451D74ED3
S1134140E091771AF091781A6A818881998119959A
S1134150DF91CF910895CF93DF9390E0FC01EE0FB0
S1134160FF1FE80FF91FEE0FFF1FE451F74E2381E5
S113417021110AC0EF01E091771AF091781A6A814F
S113418088819981199512C0DC01AA0FBB1FED012A
S1134190C80FD91FCC0FDD1FC451D74EE0916D1A43
S11341A0F0916E1A6A81888199811995DF91CF9176
S11341B008950F2EF5E6CF2EFAE1DF2EF02D04E060
S11341C0CCEED8E110E08C81813069F0E8F08230E7
S11341D039F5D6011C96ED91FC911D976A81888171
S11341E0998119951DC08D818F5F8A3010F48D835C
S11341F017C01D82D6011C96ED91FC911D976A8112
S11342008881998119950CC08D81882331F0812F83
S1134210A2DF8D8181508D8303C00C83812F6DDFDC
S11342201F5F2696143079F665E070E080E090E038
S11342300E944218C5CFCF92DF92EF92FF920F9364
S11342401F93CF93DF93062F0F2EF5E6EF2EFAE19F
S1134250FF2EF02DD7011896ED91FC91199766E089
S113426087E290E01995CCEED8E10F2EF8E2CF2E3C
S1134270D12CF02DD982C88286E08A831B8214E077
S11342801C8380E03ADFD7011896ED91FC911997D1
S113429067E087E290E01995DF82CE8287E0888725
S11342A019861A8781E029DFD7011896ED91FC91D0
S11342B0199765E083E390E01995D7011896ED917D
S11342C0FC91199761E084E390E0199584E390E010
S11342D09D878C8785E08E871F86188B82E00DDF93
S11342E0D7011896ED91FC91199764E081E091E073
S11342F01995D7011896ED91FC91199761E082E028
S113430091E0199582E091E09B8B8A8B1C8B1D8A2E
S11343101E8B83E0F2DEE12CF12C20E030E040EC57
S113432050E06BEE74E089ED90E20E948215DF911B
S1134330CF911F910F91FF90EF90DF90CF90089550
S11343400F931F93CF93DF93C82FD0E08E01000FFC
S1134350111FD801AC0FBD1FAA0FBB1FA451B74E2C
S1134360E091711AF091721A12966C9112978D91D4
S11343709C911995C00FD11FCC0FDD1FC451D74E8E
S113438081E08C83DF91CF911F910F9108950F935A
S11343901F93CF93DF93C82FD0E08E01000F111F1E
S11343A0D801AC0FBD1FAA0FBB1FA451B74EE0919B
S11343B0711AF091721A12966C9112978D919C91C8
S11343C01995C00FD11FCC0FDD1FC451D74E82E009
S11343D08C83DF91CF911F910F910895282F30E0A6
S11343E0F901EE0FFF1FE20FF31FEE0FFF1FE45161
S11343F0F74E93E09483AFCE0895282F30E0F9016F
S1134400EE0FFF1FE20FF31FEE0FFF1FE451F74EF5
S113441094E0948372CE089590E0FC01EE0FFF1FA8
S1134420DF01A80FB91FAA0FBB1FA451B74E24E088
S113443015962C931597FD011482089590E0FC01C4
S1134440EE0FFF1FDF01A80FB91FAA0FBB1FA45156
S1134450B74E21E015962C931597FD01148208950B
S11344600F931F93CF93DF931F921F92CDB7DEB7A5
S11344708C0119822DC0E0916819EC3250F481E06E
S11344808E0F80936819F0E0E656F64E8A81808399
S113449002C0109268198A818A30D1F44091681957
S11344A050E0FA01E856F64E1082415051099E013F
S11344B02F5F3F4F6AE979E180916B1990916C19F4
S11344C00E94FC13898181110E94800D1092681949
S11344D0BE016E5F7F4FC8018CD6882361F20F90B6
S11344E00F90DF91CF911F910F9108950F931F9318
S11344F0CF93DF938C01EB0180916B1990916C1930
S11345000E941313B80184E099E10E94823120973C
S113451079F0E4E0F9E101900020E9F7319780E2D5
S113452090E091838083BE0184E099E10E94773119
S1134530E4E0F9E1DF010D900020E9F711978DE047
S11345409AE011969C938E9312961C9201900020EF
S1134550E9F73197E450F941AE2F84E099E1AC01D9
S11345606A2F80916D1990916E19F3D5811111C044
S113457008E215E020E030E04DE250E064EF79E13C
S113458080916B1990916C190E943F1484EF99E10A
S113459002C080E090E0DF91CF911F910F910895C8
S11345A02F923F924F925F926F927F928F929F923F
S11345B0AF92BF92CF92DF92EF92FF920F931F932D
S11345C0CF93DF935C01FC0101900020E9F7319760
S11345D06F01C81AD90A5C2C0F2EFCE88F2EF7E065
S11345E09F2EF02DE12CF12C4C2C3701F40101818C
S11345F01281E80109900020E9F72197C01BD10B33
S11346003C2EF9E0CF16D10458F0F4012080FEE0EE
S11346102F1206C0B801C5010E945231892B09F539
S1134620442D351408F44C2F50E0B801C5010E9404
S11346308931892B49F4F301EE0FFF1FE60DF71DB5
S1134640E457F84F20800DC08FEFE81AF80AE3E032
S11346508E0E911CF1E1EF16F10439F668942224D0
S113466024F8822DDF91CF911F910F91FF90EF904D
S1134670DF90CF90BF90AF909F908F907F906F907E
S11346805F904F903F902F90089530DF89CF089529
S113469080916B1990916C190C94131308958F9257
S11346A09F92AF92CF92EF920F931F93CF93C82F05
S11346B08B0141E060E070E088EC90E00E94E7123A
S11346C090936C1980936B1910936A19009369196C
S11346D00F2EF0E38F2EF2E29F2EF02D6894AA2481
S11346E0A6F86894CC24C6F8E12C00E023E040E06E
S11346F051EE60E070E08C2F71D490936E1980932A
S11347006D19E0916D1AF0916E1A64E087E091E002
S11347101995CF911F910F91EF90CF90AF909F90EB
S11347208F900895882349F0E091771AF091781AD0
S113473064E088E091E019950895E0916D1AF09194
S11347406E1A64E088E091E01995089560E070E0E5
S113475082E195E0CBDEE4EFF9E101900020E9F796
S11347603197E45FF94181E0759708F080E008959E
S1134770CF93DF93EC0160E070E083E295E0B6DE76
S1134780E4EFF9E101900020E9F7E550FA4139F44A
S113479064EF79E1CE010E94823180E002C0188288
S11347A081E0DF91CF910895FC0101900020E9F7A9
S11347B09F01215131092817390729F4BC0181E5EA
S11347C095E063CF089589E00895FC0101900020ED
S11347D0E9F79F01215131092817390729F4BC0150
S11347E080E695E052CF089589E00895FC01019098
S11347F00020E9F79F01215231092817390729F4CC
S1134800BC018FE695E041CF089589E0089560E00A
S113481070E08EEA95E039CF08950F931F93E82F47
S1134820F0E0EE0FFF1FE857F84F6081718187EBCE
S113483095E02BDF811114C008E215E020E030E0A0
S11348404DE250E064EF79E180916B1990916C191D
S11348500E943F14882321F084EF99E1A1DE03C074
S113486084EF99E19DDE1F910F9108950F931F939B
S1134870CF93DF931F92CDB7DEB7DB0111969C91E6
S11348801197953108F0B4C0992381F160E070E08C
S1134890272F30E0462F50E0FD01E40FF51F9281F1
S11348A092959F709A3010F0995C01C0905DF90167
S11348B0EB57F64E90832F5F3F4FFD01E40FF51F3A
S11348C092819F70492F50E04A30510514F0995C51
S11348D001C0905DF901EB57F64E90837E5F6F5FE8
S11348E011969C911197691798F201C070E0E72F17
S11348F0F0E0EB57F64E10824C91811103C080EC2E
S113490095E002C082EC95E025E839E13F932F93CE
S11349101F924F939F938F9386EC95E09F938F9371
S113492087EC99E19F938F930E94E43160E070E0FB
S113493087EC99E1AADE0FB6F894DEBF0FBECDBFB7
S1134940811159C008E215E020E030E04DE250E06A
S113495064EF79E180916B1990916C190E943F1476
S1134960882309F447C084EF99E11ADE8E3009F0F8
S113497042C087E089838091691990916A19892BD3
S1134980A9F1BE016F5F7F4F84EF99E168D18093F5
S11349906F19E981F0E0EC50F64EDF010D90002034
S11349A0E9F71197AE1BBF0BAA2391F0BB27CD01EA
S11349B001979C0112F42F5F3F4F35952795209363
S11349C07019AF014F5F5F4F64E181E799E173D1E3
S11349D001E010E020E030E046E150E06FE679E1EC
S11349E08091691990916A190E9452138EE003C054
S11349F084E101C080E00F90DF91CF911F910F916E
S1134A000895813019F066ED75E002C06FEA76E032
S1134A108AED95E03ACE08959F938F938BE096E0CC
S1134A209F938F9387EC99E19F938F930E94E43136
S1134A3060E070E087EC99E128DE0F900F900F9012
S1134A400F900F900F9008952F923F924F925F9284
S1134A506F927F928F929F92AF92BF92CF92DF928A
S1134A60EF92FF920F931F93CF93DF93CDB7DEB7EF
S1134A70A0970FB6F894DEBF0FBECDBF68E376E013
S1134A8084E496E033DD8CDD8111A3C080E2E5E2AD
S1134A90F2E0DE01119601900D928A95E1F79E01F4
S1134AA02F5F3F4F6901E12CF12C0F2EF0E5AF2E63
S1134AB0F6E0BF2EF02D07EC19E10F2EF9E64F2E8C
S1134AC0F6E05F2EF02D0F2EF0E88F2EF6E09F2EED
S1134AD0F02D0F2EFAE96F2EF6E07F2EF02D3E2CEE
S1134AE02F2CFF92EF92BF92AF921F930F930E94CD
S1134AF0E43160E070E0C801F9DC52DD0F900F9002
S1134B000F900F900F900F90811163C032E03E150B
S1134B10E8F4F60183818F9382818F9381818F934F
S1134B2080818F93FF92EF925F924F921F930F9326
S1134B300E94E43160E070E0C801D8DC31DD0FB6DA
S1134B40F894DEBF0FBECDBF811143C02F923F92B8
S1134B509F928F921F930F930E94E43160E070E064
S1134B60C801C4DC1DDD0F900F900F900F900F90C3
S1134B700F9081112EC02F923F927F926F921F93BC
S1134B800F930E94E43160E070E0C801AFDC08DDFF
S1134B900F900F900F900F900F900F90811119C0EC
S1134BA03FEFE31AF30A84E0C80ED11C98E0E9163B
S1134BB0F10409F094CF60E070E082EB96E096DCBB
S1134BC0EFDC811106C060E070E083EC96E08EDCDF
S1134BD0E7DCA0960FB6F894DEBF0FBECDBFDF9121
S1134BE0CF911F910F91FF90EF90DF90CF90BF90E6
S1134BF0AF909F908F907F906F905F904F903F9079
S1134C002F900895EF92FF920F931F93CF93DF930A
S1134C10EC018B017A0181E0F4DE81110DC0CE013B
S1134C20D4DD811109C0C801E1DD811105C0C701CE
S1134C30BBDD811101C0EBDDDF91CF911F910F919D
S1134C40FF90EF90089590E0FC01EE0FFF1F8E0F90
S1134C509F1FFC01E457F84F818192810895DC0184
S1134C60009729F1FB012081FC0101900020E9F764
S1134C703197E81BF90B822F90E0E817F907C8F089
S1134C8080E008C0880F382F330F330F830F805311
S1134C90890F2F5FFD01E20FF11D908130ED390F77
S1134CA03A3010F49111EECFFB012083089580E097
S1134CB0089580E008950F931F93CF93DF93DC0151
S1134CC0EA012097E1F1FA0101900020E9F7319718
S1134CD0E41BF50B329710F532C08D01040F151F3C
S1134CE030E0AE01420F531FFA019081913428F055
S1134CF09753592F5295507F03C0592F5295507F87
S1134D002C0F3D1FF9019181913410F0975301C08C
S1134D109053950FF80190838F5F01C080E0282F96
S1134D20220F482F50E0FE0101900020E9F731974F
S1134D30EC1BFD0B4E175F0710F48613CECFDF91EB
S1134D40CF911F910F910895FC0180810895FC017A
S1134D50208181E090E002C0880F991F6A95E2F7F4
S1134D6082230895FC01808186230895FC016083D9
S1134D700895FC0110820895FC01408121E030E097
S1134D8002C0220F331F6A95E2F7242B2083089573
S1134D90FC012081622B60830895FC01408121E0A5
S1134DA030E002C0220F331F6A95E2F724272083E4
S1134DB00895FC012081622760830895FC0190819D
S1134DC021E030E002C0220F331F6A95E2F72095FC
S1134DD0292320830895FC019081609569236083D1
S1134DE008958091241A860F8093241A9091271A8B
S1134DF0913079F028F09230A9F0933019F10895A8
S1134E006F3F09F048C01092241A81E08093271A5A
S1134E100895663809F03FC01092231A82E0809307
S1134E20271A0895E091231A81E08E0F8093231AA4
S1134E30F0E0EF5DF54E6083823069F583E08093A6
S1134E40271A08959091231A21E0290F2093231AF9
S1134E50963009F581110EC0E1E2FAE1808190E01B
S1134E60982F88272181820F911D9093291A80936E
S1134E70281A04C01092291A1092281A1092271A7C
S1134E80E091251AF091261A309729F08091281A7A
S1134E909091291A199508958F929F92AF92CF926B
S1134EA0EF920F93CF93DF93EB010F2EF1EF8F2E41
S1134EB0F6E29F2EF02D6894AA24A4F86894CC24DA
S1134EC0C4F8E12C00E023E040E855E260E070E043
S1134ED085D090932B1A80932A1AD093261AC093C4
S1134EE0251ADF91CF910F91EF90CF90AF909F90C3
S1134EF08F900895CF93DF93CDB7DEB729970FB680
S1134F00F894DEBF0FBECDBF89E0E5E4F2E09E0178
S1134F102F5F3F4FD90101900D928A95E1F71092CE
S1134F20291A1092281A80912A1A90912B1A009704
S1134F3031F0422F532F69E00CD180E001C082E0B0
S1134F4029960FB6F894DEBF0FBECDBFDF91CF9187
S1134F5008952091281A3091291A2115310529F430
S1134F60FC011182108281E00895FC0131832083C9
S1134F7080E0089565360CF064E66C390CF46CE955
S1134F8096EF6902B00111246854744F811105C071
S1134F907093290160932801089570932B01609305
S1134FA02A010895EAE0F1E08081886180838FE33B
S1134FB09CE9909327018093260160E080E0DADF8A
S1134FC060E081E0D7DFE0E2F1E08081826A808303
S1134FD0E1E2F1E080818A61808308952F923F921B
S1134FE04F925F926F927F928F929F92AF92CF92E5
S1134FF0EF92FF920F931F93CF93DF93CDB7DEB75A
S1135000F82E2A013B0188E090E0C2D78C018F2D55
S113501090E0880F991FFC01E45DF54E1183008335
S1135020FC01E25FFD4F80819181D8018D939C93B7
S11350306C2D70E084E090E091D71C0161E070E099
S113504086E090E08BD77C014C2DB1012BD5F80183
S1135050F582E4826A2D70E084E090E07FD71C0141
S113506061E070E086E090E079D77C014A2DB101DF
S113507019D5D8011396FC92EE92129717969C922A
S11350808E921697FFB6F894ED91FC91119736978E
S11350908081826080838D909C90C301B2011CD674
S11350A020E030E040E051E4A5D69B01AC0160E093
S11350B074E284E79BE477D520E030E040E85FE3E6
S11350C00DD5DED5F40132976083D801ED91FC91C2
S11350D01197359788E98083ED91FC91349786E0A8
S11350E08083FFBEC801DF91CF911F910F91FF9084
S11350F0EF90CF90AF909F908F907F906F905F9044
S11351004F903F902F900895CF93DF93EC01EA8165
S1135110FB81938182812581981B92238481981736
S1135120A1F0938126952923A081B181A20FB11DFD
S11351306C939F5F258192239383E881F98135974E
S113514080818062808380E001C082E0DF91CF9122
S11351500895EF92FF920F931F93CF93DF937C01F7
S1135160DC011296ED91FC91139793818281981B37
S1135170858198238481891B861798F1662341F1E0
S1135180842F952FDC016150462F50E04F5F5F4F15
S1135190480F591FE701EA81FB81938182812581B0
S11351A0981B92238481981779F08C91938126958A
S11351B02923608171818B01020F111DE80188830D
S11351C09F5F8581982393831196A417B50711F7E0
S11351D0D701ED91FC91359780818062808380E0D6
S11351E001C082E0DF91CF911F910F91FF90EF906A
S11351F00895DC011496ED91FC91159793818281B9
S1135200981789F09281858186958923A081B1813F
S1135210A80FB11D8C91DB018C939F5F858198232E
S1135220928380E0089583E008951F920F920FB651
S11352300F9211240BB60F922F933F934F935F93CA
S11352406F937F938F939F93AF93BF93CF93DF938A
S1135250EF93FF93A0912C1AB0912D1A109711F18E
S11352606091C6001496ED91FC911597938182810B
S11352702581981B92238481981761F08381269558
S11352802823C081D181C20FD11D68838F5F95818E
S1135290892383831696ED91FC911797309711F02B
S11352A0CD011995FF91EF91DF91CF91BF91AF910E
S11352B09F918F917F916F915F914F913F912F912A
S11352C00F900BBE0F900FBE0F901F9018951F925A
S11352D00F920FB60F9211240BB60F922F938F9348
S11352E09F93AF93BF93EF93FF93E0912C1AF091A8
S11352F02D1A3097B9F00280F381E02D93818281D9
S11353009817B1F092818581282F26952923A081B1
S1135310B181A20FB11D2C919F5F892382832093B9
S1135320C6000BC0E1ECF0E080818F7D808305C076
S1135330E1ECF0E080818F7D8083FF91EF91BF915C
S1135340AF919F918F912F910F900BBE0F900FBE35
S11353500F901F9018951F920F920FB60F92112461
S11353600BB60F922F933F934F935F936F937F935B
S11353708F939F93AF93BF93CF93DF93EF93FF9359
S1135380A0912E1AB0912F1A109711F16091CE00AE
S11353901496ED91FC911597938182812581981B38
S11353A092238481981761F0838126952823C081F4
S11353B0D181C20FD11D68838F5F95818923838337
S11353C01696ED91FC911797309711F0CD01199530
S11353D0FF91EF91DF91CF91BF91AF919F918F9109
S11353E07F916F915F914F913F912F910F900BBEE1
S11353F00F900FBE0F901F9018951F920F920FB62B
S11354000F9211240BB60F922F938F939F93AF9308
S1135410BF93EF93FF93E0912E1AF0912F1A3097D8
S1135420B9F00280F381E02D938182819817B1F065
S113543092818581282F26952923A081B181A20FED
S1135440B11D2C919F5F892382832093CE000BC0D2
S1135450E9ECF0E080818F7D808305C0E9ECF0E029
S113546080818F7D8083FF91EF91BF91AF919F9158
S11354708F912F910F900BBE0F900FBE0F901F9026
S113548018951F920F920FB60F9211240BB60F921C
S11354902F933F934F935F936F937F938F939F9338
S11354A0AF93BF93CF93DF93EF93FF93A091301A01
S11354B0B091311A109711F16091D6001496ED91C4
S11354C0FC911597938182812581981B9223848175
S11354D0981761F0838126952823C081D181C20F5A
S11354E0D11D68838F5F9581892383831696ED91FF
S11354F0FC911797309711F0CD011995FF91EF9119
S1135500DF91CF91BF91AF919F918F917F916F91D7
S11355105F914F913F912F910F900BBE0F900FBE53
S11355200F901F9018951F920F920FB60F9211248F
S11355300BB60F922F938F939F93AF93BF93EF93D9
S1135540FF93E091301AF091311A3097B9F002804C
S1135550F381E02D938182819817B1F09281858146
S1135560282F26952923A081B181A20FB11D2C914A
S11355709F5F892382832093D6000BC0E1EDF0E086
S113558080818F7D808305C0E1EDF0E080818F7D97
S11355908083FF91EF91BF91AF919F918F912F9154
S11355A00F900BBE0F900FBE0F901F9018951F9277
S11355B00F920FB60F9211240BB60F922F933F93B5
S11355C04F935F936F937F938F939F93AF93BF9307
S11355D0CF93DF93EF93FF93A091321AB091331AD4
S11355E0109711F1609136011496ED91FC91159785
S11355F0938182812581981B92238481981761F07D
S1135600838126952823C081D181C20FD11D68834F
S11356108F5F9581892383831696ED91FC9117976B
S1135620309711F0CD011995FF91EF91DF91CF9152
S1135630BF91AF919F918F917F916F915F914F91A6
S11356403F912F910F900BBE0F900FBE0F901F90A4
S113565018951F920F920FB60F9211240BB60F924A
S11356602F938F939F93AF93BF93EF93FF93E09107
S1135670321AF091331A3097B9F00280F381E02D99
S1135680938182819817B1F092818581282F269584
S11356902923A081B181A20FB11D2C919F5F892381
S11356A08283209336010BC0E1E3F1E080818F7D9A
S11356B0808305C0E1E3F1E080818F7D8083FF91E9
S11356C0EF91BF91AF919F918F912F910F900BBE4E
S11356D00F900FBE0F901F901895CF93DF931F92DA
S11356E0CDB7DEB7BE016F5F7F4F8091341A9091C2
S11356F0351A7FDD8111F6CF898190E00F90DF911B
S1135700CF910895682F8091341A9091351AFCDC5A
S113571080E090E008958F929F92AF92CF92EF92A3
S11357200F93812C912C6894AA24A7F86894CC2414
S1135730C7F8E12C00E023E040E051EE60E070E0C7
S11357404DDC9093351A8093341AEFE7FAE186E141
S113575092E091838083938382830F91EF90CF9023
S1135760AF909F908F9008958091441A81110CC03E
S11357708CE08093B8008FEF8093BB0084E080932B
S1135780BC0081E08093441A0895AF92BF92CF92F7
S1135790DF92EF92FF920F931F93CF93DF93A82E84
S11357A0B62E69017A0184E090E0F2D3EC01892BF2
S11357B061F1A88281E0B81212C0C701B60120EAE3
S11357C036E841E050E08CD3DA01C9014097A109E1
S11357D0B109B695A79597958795898311C0C70197
S11357E0B60120E83AE146E050E07AD3DA01C90193
S11357F04097A109B109B695A7959795879589838F
S11358001B830A838C2F9D2F02C080E090E0DF91E0
S1135810CF911F910F91FF90EF90DF90CF90BF90A9
S1135820AF9008958091BC0081700895FF920F930A
S11358301F93CF93DF930097D1F14A30D0F5F42E24
S11358408B01EC01EFDF811136C08091371A909102
S1135850381AC817D90741F087DF89818093B800C7
S1135860D093381AC093371A81E08F0D8093391A78
S11358708881880F80933A1AFF2089F0F801ABE3FE
S1135880BAE14FEF4F0D642F70E0CB010196B801E0
S1135890680F791F81918D93E617F707D9F788EF81
S11358A08093240285EA8093BC0084E005C086E0EE
S11358B003C087E001C082E0DF91CF911F910F9177
S11358C0FF9008951F93CF93DF93009729F16B30D6
S11358D028F5162FEC01A6DF811122C08091371A1A
S11358E09091381AC817D90741F03EDF8981809317
S11358F0B800D093381AC093371A1093391A888194
S1135900880F816080933A1A88EF8093240285EA95
S11359108093BC0085E005C086E003C087E001C039
S113592082E0DF91CF911F9108951F920F920FB6DD
S11359300F9211240BB60F922F933F934F935F93C3
S11359406F937F938F939F93AF93BF93EF93FF9343
S1135950E091B9008E2F90E0FC013897E135F10514
S113596008F075C08827E458FF4F8F4FDBC21092B0
S1135970361AE091361A8091391AE81770F481E0EA
S11359808E0F8093361AF0E0E65CF54E80818093AA
S1135990BB0085E88093BC0072C084E98093BC009E
S11359A08091371A9091381ADC011296ED91FC918E
S11359B01397309709F463C020E040E050E064E0BE
S11359C019955DC0E091361A81E08E0F8093361AE6
S11359D08091BB00F0E0E65CF54E80838091B900D5
S11359E0803411F41092361A2091361A30E08091E6
S11359F0391A90E001972817390724F485EC80932D
S1135A00BC003DC085E88093BC0039C08091BB00D8
S1135A10E091361AF0E0E65CF54E808384E98093E9
S1135A20BC008091371A9091381ADC011296ED91DE
S1135A30FC911397309719F12091391A4AE35AE1EE
S1135A4065E019951CC085EA8093BC0018C080915C
S1135A50B9008093240284E08093BC008091371ABB
S1135A609091381ADC011296ED91FC9113973097BE
S1135A7031F020E040E050E0609124021995FF915C
S1135A80EF91BF91AF919F918F917F916F915F91B2
S1135A904F913F912F910F900BBE0F900FBE0F901F
S1135AA01F901895FC01411101C0E8D3842F90E0A8
S1135AB09C012150310982239323892B09F0DED3E1
S1135AC0413808F0DBD3128213824483440F4150DF
S1135AD045837183608380E090E008955058BB272C
S1135AE0AA270ED04DC13ED130F043D120F031F47D
S1135AF09F3F11F41EF433C10EF4E095E7FB29C176
S1135B00E92F4FD180F3BA1762077307840795070B
S1135B1018F071F49EF567C10EF4E0950B2EBA2FC0
S1135B20A02D0B01B90190010C01CA01A00111249F
S1135B30FF27591B99F0593F50F4503E68F11A164B
S1135B40F040A22F232F342F4427585FF3CF4695DC
S1135B5037952795A795F0405395C9F77EF41F16FE
S1135B60BA0B620B730B840BBAF09150A1F0FF0FC8
S1135B70BB1F661F771F881FC2F70EC0BA0F621FB4
S1135B80731F841F48F4879577956795B795F795A4
S1135B909E3F08F0B3CF9395880F08F09927EE0F36
S1135BA09795879508950CD0EBC0E3D040F0DAD0F8
S1135BB030F021F45F3F19F0CCC0511115C1CFC0B2
S1135BC0F0D098F39923C9F35523B1F3951B550BE2
S1135BD0BB27AA2762177307840738F09F5F5F4FBC
S1135BE0220F331F441FAA1FA9F333D00E2E3AF0FD
S1135BF0E0E830D091505040E695001CCAF729D017
S1135C00FE2F27D0660F771F881FBB1F2617370765
S1135C104807AB07B0E809F0BB0B802DBF01FF2795
S1135C2093585F4F2AF09E3F510568F092C0DCC044
S1135C305F3FECF3983EDCF3869577956795B795CF
S1135C40F7959F5FC9F7880F911D9695879597F9EA
S1135C500895E1E0660F771F881FBB1F6217730763
S1135C608407BA0720F0621B730B840BBA0BEE1F78
S1135C7088F7E095089504D06894B111B5C00895EB
S1135C8098D088F09F5790F0B92F9927B751A0F07A
S1135C90D1F0660F771F881F991F1AF0BA95C9F7BC
S1135CA012C0B13081F09FD0B1E008959CC0672F3D
S1135CB0782F8827B85F39F0B93FCCF3869577956C
S1135CC06795B395D9F73EF4909580957095619555
S1135CD07F4F8F4F9F4F0895E89409C097FB3EF480
S1135CE090958095709561957F4F8F4F9F4F992325
