S00F000053455034494F542E737265630D
S11300004FC200006EC200006CC200006AC2000051
S113001068C2000066C2000064C2000062C2000040
S113002060C200005EC200005CC200005AC2000050
S11300300C941C0C56C2000054C2000052C20000B2
S113004050C200004EC200004CC200004AC2000070
S113005048C2000046C2000044C2000042C2000080
S113006040C200000C941E240C9470243AC2000078
S113007038C2000036C2000034C2000032C20000A0
S113008030C200002EC200002CC200002AC20000B0
S11300900C94B4240C94062524C200000C949E27CE
S11300A020C200001EC200001CC200001AC20000D0
S11300B018C2000016C2000014C2000012C20000E0
S11300C010C200000EC200000CC200000C944A25AD
S11300D00C949C2506C200000C94E0250C94322656
S11300E000C20000C601C601C601000208021E02C9
S11300F0C601C60100020802C02730283028302873
S11301003028302830283028C0273028302830289C
S11301103028302830283028C2273028302830288A
S1130120302830283028302830283028302830280B
S11301303028302830283028C2273028302830286A
S113014030283028302830283028302830283028EB
S113015030283028302830282C28302830283028DF
S11301603028302830283028F72730283028302805
S113017030283028302830283028302830283028BB
S11301803028302830283028EB27302830283028F1
S113019030283028302830280F2804E019E10F2EA9
S11301A0F4E3EF2EF9E1FF2EF02D8091031988235B
S11301B029F10FB6F8940F92D8011796ED91FC919E
S11301C01897C085D185CE0102960E94810A80913C
S11301D0F71881508093F718809103198150809308
S11301E003190F900FBE8B8D9C8D0E94DD09CE01EB
S11301F00E94DD09809103198111DBCFF701808111
S1130200823010F00E94560B0E94D01ACECFCF93AA
S1130210DF93CDB7DEB760970FB6F894DEBF0FBE9D
S1130220CDBFCE0101969A878987812C912CA12C70
S1130230B12C69847A84E0916C19F0916D198081F4
S1130240882309F413C10780F085E02D20803180D4
S1130250428053800E94E213CE0101960E943A1A12
S11302606B877C878D879E878981811167C08B8589
S11302709C85AD85BE8582159305A405B50508F456
S113028045C00E94CB14E0916C19F0916D19078060
S1130290F085E02DA085B185B88BAF87CD0102969E
S11302A00E94810AEF85F889878982FF21C04685EB
S11302B0578560897189420D531D641D751D720136
S11302C061010B851C852D853E85CF010E944A194D
S11302D0882399F0C82CD92CEA2CFB2C00E010E0E0
S11302E0A201910160E08F8598890E94DC1905C004
S11302F08E7FAF85B88957968C93AF85B88954960D
S1130300ED91FC915597CD011995A1C020E0B20162
S1130310A1018B859C85AD85BE85481B590B6A0B55
S11303207B0B80916819909169190E94EB0E0E94D1
S1130330CB1481118CC00E94560B89C00E94CB142F
S113034086C0898188230CF482C04E805F80D201EC
S11303501C968D919C911D97892B21F0C2010296C8
S11303600E94810ACE0108960E943A1A8B019C01D0
S1130370E9810E2E000CFF0BEA30F10508F067C08E
S11303808827EE58FF4F8F4F0C94882AF2018789F3
S11303908160878BCA80DB80EC80FD804685578531
S11303A0608971894C0D5D1D6E1D7F1DC2010E9407
S11303B04A19882309F44BC0D2015496ED91FC915B
S11303C05597C2011995F201878982FF40C04A817D
S11303D05B816C817D8186859785A089B1899A012D
S11303E0AB01280F391F4A1F5B1FC82CD92CEA2CDC
S11303F0FB2C00E010E060E0C2010E94DC1927C081
S1130400D20157968C9157978E7F57968C931FC025
S1130410F20187898160878B4A815B816C817D8150
S113042046875787608B718B400F511F621F731F64
S113043068017901C2010E944A1909C0F201878941
S113044081FD03C0C201B9D702C08E7F878B282DDE
S1130450392D4A2D5B2D662D772D80916819909149
S113046069190E94540E81116CCFE5CE0E94E213EB
S1130470CE0101960E943A1A6B877C878D879E87EE
S1130480898181115BCFE0916A19F0916B198081A8
S113049021E0811120E0282C392C4A2C5B2C37CF09
S11304A011241FBECFEFD1E2DEBFCDBF00E00CBFF1
S11304B018E0A0E0B2E0ECE9FEE500E00BBF02C00A
S11304C007900D92A438B107D9F72BE1A4E8B8E05E
S11304D001C01D92A331B207E1F70E94961B0C9450
S11304E04C2F8ECD2F923F924F925F926F927F92BC
S11304F08F929F92AF92BF92CF92DF92EF92FF9230
S11305000F931F93CF93DF93882E962E1A01280101
S1130510390161E070E083E090E00E94902AEC01F0
S1130520009769F1FC01119230928F0820928E0895
S113053040928A0850928B0860928C0870928D08C1
S1130540F0928908E0928808A0928408B092850805
S1130550C0928608D0928708492D50E07F01082D6B
S11305609C0163E472E089E293E00E9487128DE4C7
S113057092E09F938F930E942E2C0F900F90CE01A8
S1130580DF91CF911F910F91FF90EF90DF90CF906B
S1130590BF90AF909F908F907F906F905F904F909F
S11305A03F902F900895CF92DF92EF92FF920F9396
S11305B01F93CF93DF93EC0140918A0850918B08ED
S11305C060918C0870918D08CC24CA94DC2C76013F
S11305D001E021E080918E0890918F088FD40091E2
S11305E08A0810918B0820918C0830918D08DC01C9
S11305F0CB0180239123A223B323081719072A07C9
S11306003B07F1F488818F5F888384E592E09F93B0
S11306108F930E942E2C64EC79E080E090E00E949D
S1130620471540918408509185086091860870911F
S11306308708809188089091890820D50F900F90A1
S1130640DF91CF911F910F91FF90EF90DF90CF90AA
S11306500895EC01CE01A7DFFDCFFC018081089550
S1130660CF93DF93EC0161E070E08AE090E00E94B8
S1130670902A009749F0FC01D183C083158214822B
S11306801782168213821282DF91CF910895009708
S113069019F0FC01738362830895009719F0FC013B
S11306A0778366830895009719F0FC01758364834A
S11306B00895FC01DB0114962C91149715963C9136
S11306C0159716968C91169717969C9141E0408346
S11306D044E041833283238394838583CF01089547
S11306E02F923F924F925F926F927F928F929F923E
S11306F0AF92BF92CF92DF92EF92FF920F931F932C
S1130700CF93DF9300D01F92CDB7DEB7282E362EBD
S11307105C834B832801390161E070E088E090E05C
S11307200E94902A9A838983009709F446C0FC01A9
S1130730918280828A8D9B8D93838283809106022D
S1130740909107028DDFE981FA81958384838B81FF
S11307509C819093B3088093B2084092AE08509263
S1130760AF086092B0087092B108F092AD08E092C0
S1130770AC08A092A808B092A908C092AA08D09286
S1130780AB088C8D9D8D9093A7088093A608432D6C
S113079050E07F0196E0E90EF11C022D9F0165E611
S11307A072E082E095E00E9487128CE692E09F93CB
S11307B08F930E942E2C0F900F9089819A810F9015
S11307C00F900F900F90DF91CF911F910F91FF9099
S11307D0EF90DF90CF90BF90AF909F908F907F90DD
S11307E06F905F904F903F902F900895FC0184810B
S11307F0958153CF0895FC0182819381009711F074
S1130800F1C108958FEF9FEF0895FC0184819581D4
S11308103ECF0895FC0180819181009719F01DDF7E
S113082090E008958FEF9FEF0895FC0184819581F6
S11308303ACF0895FC0182819381009711F0D6C1CB
S113084008958FEF9FEF0895AF92BF92CF92DF92FA
S1130850EF92FF920F931F93CF93DF93CDB7DEB741
S113086066970FB6F894DEBF0FBECDBF5C01409112
S1130870AE085091AF086091B0087091B1088091B2
S1130880B2089091B308FAD386E792E09F938F93CE
S11308900E942E2C4091A8085091A9086091AA08A2
S11308A07091AB08CC24CA94DC2C760101E021E0E1
S11308B08091AC089091AD0821D30091A8081091C3
S11308C0A9082091AA083091AB08DC01CB01802350
S11308D09123A223B3230F900F90081719072A0717
S11308E03B0709F07EC0C50195DFBC01C5018DDF62
S11308F0C501A0DFBC01C50198DFC5017CDFBC01D7
S1130900C50174DF8AE892E00E94412CF5018081E0
S11309109181A3DE1F928F938EE992E09F938F9330
S11309200E942E2CC50186DF9F938F938AEA92E062
S11309309F938F930E942E2CC5015DDF9F938F930D
S11309408EEB92E09F938F930E942E2CF50164818D
S11309507581CE010196ADDE86E1FE013196A0E9F6
S1130960B8E001900D928A95E1F700E918E0F801EA
S113097082811F928F938FEC92E09F938F930E94BA
S11309802E2CF80183811F928F9381EF92E09F9325
S11309908F930E942E2CF80184811F928F9384E1FF
S11309A093E09F938F930E942E2CF80185811F92D0
S11309B08F9383E393E09F938F930E942E2C0FEFEA
S11309C01FEF980146E150E060E978E08091A608C5
S11309D09091A7080E945B100FB6F894DEBF0FBE7B
S11309E0CDBF66960FB6F894DEBF0FBECDBFDF91C4
S11309F0CF911F910F91FF90EF90DF90CF90BF9018
S1130A00AF900895EC01CE011FDFFDCF2F923F92EE
S1130A104F925F926F927F928F929F92AF92BF920A
S1130A20CF92DF92EF92FF920F931F93CF93DF93B6
S1130A30882E962E1A012801390161E070E086E0C3
S1130A4090E00E94902AEC01009791F1198218829B
S1130A501B821A823092BF082092BE084092BA08C4
S1130A605092BB086092BC087092BD08F092B9081D
S1130A70E092B808A092B408B092B508C092B60843
S1130A80D092B708492D50E07C0184E0E80EF11CB7
S1130A90082D9E0163E573E08EEE95E00E948712B7
S1130AA084E693E09F938F930E942E2C0F900F90D7
S1130AB0CE01DF91CF911F910F91FF90EF90DF90C6
S1130AC0CF90BF90AF909F908F907F906F905F90EA
S1130AD04F903F902F900895CF92DF92EF92FF9224
S1130AE00F931F93CF93DF93EC014091BA08509179
S1130AF0BB086091BC087091BD08CC24CA94DC2C5E
S1130B00760101E021E08091BE089091BF08F6D102
S1130B100091BA081091BB082091BC083091BD081F
S1130B20DC01CB0180239123A223B32308171907E7
S1130B302A073B0709F049C00E94181C62E370E0D1
S1130B4080E090E00E9447150E942D1C65E070E053
S1130B5080E090E00E9447150E94151C882341F113
S1130B600E94531C998388830E94791C9B838A83E7
S1130B7083E893E00E94412C89818F9388818F932D
S1130B8089EA93E09F938F930E942E2C8B818F93FD
S1130B908A818F9387EB93E09F938F930E942E2CEF
S1130BA08DB79EB708960FB6F8949EBF0FBE8DBF43
S1130BB04091B4085091B5086091B6087091B70897
S1130BC08091B8089091B90859D2DF91CF911F91C3
S1130BD00F91FF90EF90DF90CF900895EC01CE013C
S1130BE07BDFFDCFFC01808191810895FC0182812E
S1130BF093810895EF92FF920F939B01E12CF12CC6
S1130C00082F48E851E061EC73E08BE497E00E9420
S1130C1087120F91FF90EF900895DF92EF92FF9269
S1130C200F931F93CF93DF937C0181E00E94981F61
S1130C3062E070E080E090E00E94471580E00E944E
S1130C40981F66E970E080E090E00E9447150E94DA
S1130C504E1F81E00E94A61D0E94AC1F0E94292203
S1130C609F938F938AEC93E09F938F930E942E2CF3
S1130C700E942A210E9429229F938F938DED93E055
S1130C809F938F930E942E2C86ED98E00E94BE1FA6
S1130C900E942922C6EDD8E0DF93CF939F938F93D0
S1130CA086EF93E09F938F930E942E2CCE010E9497
S1130CB0DA1F0E9429229F938F93DF93CF938AE0B8
S1130CC094E09F938F930E942E2CAE016FE174E009
S1130CD080E494E00E9408220E9429229F938F932B
S1130CE0DF93CF938FE194E09F938F9380E494E01C
S1130CF09F938F9381E594E09F938F930E942E2C72
S1130D000E940D200E9429229F938F9387E894E0EC
S1130D109F938F930E942E2C8DB79EB782960FB609
S1130D20F8949EBF0FBE8DBF81E00E9407210E94F0
S1130D3029229F938F9386E994E09F938F930E9437
S1130D402E2C84EF91E00E9412210E9429229F936D
S1130D508F9381E08F9384EF8F9387EB94E09F933D
S1130D608F930E942E2C8DB79EB70A960FB6F894D7
S1130D709EBF0FBE8DBFCAE0D0E007ED14E080E057
S1130D800E941320D82E0E9429229F938F93DF93D1
S1130D90CF931F930F930E942E2C0F900F900F90C0
S1130DA00F900F900F9088E0D81609F45CC080E093
S1130DB00E94121E66E371E080E090E00E944715F5
S1130DC02197E9F649C072D4FECF83E00E94241E25
S1130DD0C0ECD8E08A811F928F9387EF94E09F93B1
S1130DE08F930E942E2C8B811F928F9389E195E023
S1130DF09F938F930E942E2C8C811F928F938CE350
S1130E0095E09F938F930E942E2C8D811F928F9338
S1130E108BE595E09F938F930E942E2CBE0180E07A
S1130E200E943C200E9429229F938F938BE795E098
S1130E309F938F930E942E2C8DB79EB744960FB626
S1130E40F8949EBF0FBE8DBF1EC060ED77E080E0BA
S1130E5090E00E94471517C081E00E94031E80E0C5
S1130E600E94CD1DB0CF81E00E94F41D00E010E08F
S1130E70980142E350E060EC78E0C7010E9446111B
S1130E80039718F3A2CFDF91CF911F910F91FF9099
S1130E90EF90DF900895EC01CE01BFDE68EB7BE0BC
S1130EA080E090E00E944715F7CFE7E0F1E0808111
S1130EB08F6080830895E8E0F1E09081907F9083D3
S1130EC090818F70982B90830895E8E0F1E0808101
S1130ED0807F80830895CF93DF9380E190E0B4D145
S1130EE0EC01009739F0FC011192119211921192C8
S1130EF0CF0194D2CE01DF91CF9108952F923F92EA
S1130F004F925F926F927F928F929F92AF92BF9215
S1130F10CF92DF92EF92FF920F931F93CF93DF93C1
S1130F20EC014A015B01622E702E0E94E2132880BC
S1130F3039804A805B8001110DC081E0B201A101BA
S1130F40482159216A217B21452B462B472B79F4D3
S1130F5080E00DC081E0B201A101482159216A213C
S1130F607B21481559056A057B0509F080E0882333
S1130F7081F0662009F46BC080949094A094B0949E
S1130F8082209320A420B52088829982AA82BB82E1
S1130F905EC0C114D104E104F10409F458C0662010
S1130FA029F040E050E060E071E003C040E050E030
S1130FB0BA0171107460482959296A297B2997015B
S1130FC08601CE0104960E94F6150E94CB1481116D
S1130FD001C06CD30E94831791FD35C00FB6F894FD
S1130FE00F92688179818A819B8171100DC021E003
S1130FF075016401C622D722E822F922CD28CE2821
S1131000CF2879F420E00DC021E075016401C622E7
S1131010D722E822F922C814D904EA04FB0409F00F
S113102020E0222371F0662061F080949094A094D3
S1131030B09486229722A822B92288829982AA8211
S1131040BB820F900FBE1B012C01552402C00E94CD
S1131050CB14C201B101DF91CF911F910F91FF9089
S1131060EF90DF90CF90BF90AF909F908F907F9044
S11310706F905F904F903F902F9008954F925F92A2
S11310806F927F928F929F92AF92BF92CF92DF9294
S1131090EF92FF920F931F93CF93DF93EC016A01BA
S11310A07B018C01095F1F4F0E94E213EB85FC85D5
S11310B088819981AA81BB81C82AD92AEA2AFB2A74
S11310C0C882D982EA82FB820E171F0709F445C041
S11310D0C12CD12C760199249394812CA480B580C1
S11310E080819181A281B381AC01BD017727B2FDDA
S11310F00FC0488059806A807B8044225522662232
S11311007722292D45284628472889F4282D0FC001
S1131110488059806A807B80442255226622772247
S1131120292D441655066606770609F0282D222334
S113113071F0B0FF04C0C42AD52AE62AF72A4881F0
S113114059816A817B817260CF010E947C16EA2DED
S1131150FB2D0E171F0711F603C0C12CD12C7601ED
S1131160C094D094E094F09488819981AA81BB8141
S1131170C822D922EA22FB22C882D982EA82FB82CF
S11311800E94CB14688179818A819B81DF91CF9100
S11311901F910F91FF90EF90DF90CF90BF90AF9091
S11311A09F908F907F906F905F904F900895CF9312
S11311B0DF93DC01E2E4F9E001C0F901208131812F
S11311C02A173B07D0F382819381AF01480F591F3F
S11311D0A417B50749F412964D915C911397840FA7
S11311E0951F93838283DF0112968D919C911397AF
S11311F0ED01C80FD91F2C173D07D9F420914009E0
S113120030914109C217D30781F02A813B81820FB3
S1131210931F13969C938E931297C081D1818881DA
S1131220998111969C938E9307C01196DC93CE936B
S113123003C011963C932E93AE17BF0711F0B183F0
S1131240A083DF91CF910895CF92DF92EF92FF9226
S11312500F931F93CF93DF93EC010E94E2138091CD
S1131260400990914109892B41F5E2E4F9E0A6E4B3
S1131270B9E0B183A08313821282E2EEF8E1F09325
S11312804109E093400913821282118210828CE991
S11312909FE013969C938E931297ED93FC939093F7
S11312A03D0980933C0990933F0980933E0980E077
S11312B090E890933B0980933A09E0903A09F090C2
S11312C03B09C7018C239D23892B09F066C0209715
S11312D009F466C0AE014C5F5F4F09F45EC0009133
S11312E03E0910913F090417150708F456C0C09130
S11312F04209D0914309E2E4F9E002C0FE01E901A8
S11313002A813B812417350728F428813981211546
S11313103105A1F78091400990914109C817D90777
S1131320E1F1C080D18084E0C80ED11C888199810C
S1131330918380832A813B81241B350B293031051D
S113134048F0CE01840F951FFC01338322835B8315
S11313504A832DDF8A819B81081B190B10933F0957
S113136000933E0920913C0930913D09021713076F
S113137020F410933D0900933C09E82AF92AFB82E2
S1131380EA82198218820E94CB14C114D10459F440
S11313900E94D11AC12CD12C06C00E94CB14F8CFC4
S11313A00E94CB14F5CFC601DF91CF911F910F910D
S11313B0FF90EF90DF90CF900895CF93DF93009745
S11313C051F1FC0134972281338140913A095091C3
S11313D03B09B90164237523672BE9F060817181AE
S11313E0672BC9F4EF0140955095242335233383AB
S11313F022830E94E21320913E0930913F098A81A1
S11314009B81820F931F90933F0980933E09CE01E5
S1131410CEDE0E94CB14DF91CF910895FC01039698
S1131420928381834FEF5FEFBA01438354836583D3
S11314307683908787839287818710820895FC0141
S1131440138612860895CF93DF939C01FB01DC0180
S11314501196CD91DC911297D583C4838E819F819F
S1131460978386838E819F81DC0115967C936E938E
S113147014977F836E8333872287F90180818F5F7E
S11314808083DF91CF9108950F931F93CF93DF93C0
S1131490EB01088119812A813B810F3F4FEF14072B
S11314A02407340721F4FC01A185B28511C0DC01B5
S11314B0139601C0DF011496ED91FC9115974081BC
S11314C0518162817381041715072607370790F746
S11314D01496ED91FC911597FD83EC83D783C68315
S11314E0BF83AE831596DC93CE9314979B878A872C
S11314F0FC0120812F5F2083DF91CF911F910F91F9
S11315000895CF93DF93FC01A285B385C481D5816F
S1131510868197819F838E83C681D78184819581BB
S11315209D838C8311968D919C911297E817F907EE
S113153031F48681978112969C938E93119713862A
S113154012868C9181508C938C91DF91CF91089568
S113155031E1FC013083319722E220833197A3E308
S1131560A0833197608331977083319710823197CC
S11315701082319760E8608331971082319710822E
S113158031971082319762E06083319763E0608322
S1131590319764E06083319765E06083319766E05A
S11315A06083319767E06083319768E060833197A7
S11315B069E06083319760E16083319730833197CC
S11315C032E13083319733E13083319734E1308332
S11315D0319735E13083319736E13083319737E104
S11315E03083319738E13083319739E13083319753
S11315F030E23083319731E2308331972083319761
S113160023E220833197408331975083319726E238
S11316102083319727E22083319728E22083319772
S113162029E22083319720E32083319721E320832B
S113163089970895A89590EC88E10FB6F894A89539
S1131640809360000FBE90936000A0916019B091E8
S11316506119CD91CDBFDD91DEBFFF91EF91DF9197
S1131660CF91BF91AF919F918F917F916F915F9136
S11316704F913F912F911F910F91FF90EF90DF9029
S1131680CF90BF90AF909F908F907F906F905F901E
S11316904F903F902F901F900F900CBE0F900BBE59
S11316A00F900FBE0F90089581E008950F920FB62A
S11316B0F8940F920BB60F920CB60F921F9211244E
S11316C02F923F924F925F926F927F928F929F924E
S11316D0AF92BF92CF92DF92EF92FF920F931F933C
S11316E02F933F934F935F936F937F938F939F9326
S11316F0AF93BF93CF93DF93EF93FF93A0916019C0
S1131700B09161190DB60D920EB60D920E9460153E
S1131710A0916019B0916119CD91CDBFDD91DEBF6B
S1131720FF91EF91DF91CF91BF91AF919F918F91F5
S11317307F916F915F914F913F912F911F910F91E5
S1131740FF90EF90DF90CF90BF90AF909F908F90DD
S11317507F906F905F904F903F902F901F900F90CD
S11317600CBE0F900BBE0F900FBE0F9008950F92FA
S11317700FB6F8940F920BB60F920CB60F921F92FD
S113178011242F923F924F925F926F927F928F9289
S11317909F92AF92BF92CF92DF92EF92FF920F93FC
S11317A01F932F933F934F935F936F937F938F93E5
S11317B09F93AF93BF93CF93DF93EF93FF93A09146
S11317C06019B09161190DB60D920EB60D9213BE4B
S11317D00E94F61381110E946015A0916019B091C6
S11317E06119CD91CDBFDD91DEBFFF91EF91DF9106
S11317F0CF91BF91AF919F918F917F916F915F91A5
S11318004F913F912F911F910F91FF90EF90DF9097
S1131810CF90BF90AF909F908F907F906F905F908C
S11318204F903F902F901F900F900CBE0F900BBEC7
S11318300F900FBE0F9008959ADF18950FB6F89485
S11318400F92FC01968D0F900FBE81E0911180E004
S113185008950F931F93CF93DF93EC01042F1E8DF4
S113186048A141110CC088819981892B09F042C09B
S11318708C819D810E9443171D821C8242C00111EC
S113188017C050E08A819B810E94CF2B28A18A81B6
S11318909B81820F911D9B838A832C813D818217BA
S11318A0930750F1888199819B838A8380E029C0C2
S11318B050E08E819F810E94CF2B88A190E091956A
S11318C0819591092E813F81280F391F3F832E83F3
S11318D0488159812417350730F42C813D81820FCA
S11318E0931F9F838E83023049F4112349F01150D2
S11318F080E007C080E005C080E003C080E001C054
S113190080E01F5F1E8FDF91CF911F910F9108958B
S1131910FC0140A14423A9F050E026813781240F23
S1131920351F37832683848195812817390720F052
S11319308081918197838683CB01668177810C9422
S1131940CF2B0895EF92FF920F931F93CF938C01A7
S11319500FB6F8940F92FC01C2A11C16ACF4838953
S1131960811106C011C0F8018389811105C00CC022
S11319707801F3E1EF0EF11CC7010E943A168111C0
S11319800E942C17C15079F78FEFF80182A30F90B2
S11319900FBE0FB6F8940F92C1A11C16ACF480854B
S11319A0811106C011C0F8018085811105C00CC0E9
S11319B07801F8E0EF0EF11CC7010E943A1681117C
S11319C00E942C17C15079F78FEFF80181A30F9073
S11319D00FBECF911F910F91FF90EF900895CF9379
S11319E0DF93EC010FB6F8940F92E881F9818F8DA3
S11319F028A190E030E0829FA001839F500D929F28
S1131A00500D11244E0F5F1F5D834C831E8EFB838C
S1131A10EA830197829FA001839F500D929F500DEE
S1131A201124CF01840F951F9F838E838FEF89A389
S1131A308AA361110BC08885882371F0CE010896B2
S1131A400E943A16882341F031DE06C0CE01089682
S1131A50E5DCCE014396E2DC0F900FBE81E0DF911E
S1131A60CF910895FF920F931F93CF93DF93082F85
S1131A70162FF42E6623B9F0869FC0011124859693
S1131A80E3DBEC01009741F414C00F8F18A361E06D
S1131A90CE01A5DFFCA20DC0859699838883F5CF7E
S1131AA0D983C883F2CF85E290E0CEDBEC01892BA9
S1131AB0B9F7CE01DF91CF911F910F91FF90089557
S1131AC09F92AF92BF92CF92DF92EF92FF920F93C9
S1131AD01F93CF93DF93CDB7DEB729970FB6F89452
S1131AE0DEBF0FBECDBF7C015B012E833F834887E1
S1131AF0598710E0992493946C0188E0C80ED11C96
S1131B000FB6F8940F92F701968D878D981710F001
S1131B100230B1F4402FB501C7019BDEF701938970
S1131B20992341F0C70143960E943A16882321F075
S1131B30BDDD02C08111BADD0F900FBE81E04EC041
S1131B408E819F81A885B985892B8A2B8B2B21F4C3
S1131B500F900FBE80E042C0111105C0CE01019666
S1131B600E94C616192D0F900FBE2CD60FB6F894EE
S1131B700F92F70181A18F3F09F411A2F70182A10D
S1131B808F3F09F412A20F900FBEBE016A5F7F4F10
S1131B90CE0101960E94D71681111CC00FB6F8948D
S1131BA00F92F701968D878D0F900FBE98130EC07C
S1131BB04E815F8168857985C6010E94DF15C70162
S1131BC0C1DEE9D681119CCF71DD9ACFC701BADE9F
S1131BD0E2D696CFC701B6DEDED680E029960FB6F0
S1131BE0F894DEBF0FBECDBFDF91CF911F910F914F
S1131BF0FF90EF90DF90CF90BF90AF909F900895AB
S1131C000F93CF93DF93482F60E081E02BDFEC014B
S1131C10009761F01D821C82198218821E8200E0E6
S1131C2020E030E0A90160E070E04ADFCE01DF91FE
S1131C30CF910F910895EF92FF920F931F93CF933B
S1131C40DF938A01FC01568D378D531710F0223033
S1131C50E9F4422F7801EC011AA1FBDD1F3F81F466
S1131C608B898823A9F0CE0143960E943A168823D3
S1131C7089F0E114F10481F081E0F70180830DC063
S1131C80FF24F394F10EFAA281E007C080E005C0BE
S1131C9081E003C081E001C081E0DF91CF911F9119
S1131CA00F91FF90EF9008959F92AF92BF92CF92C1
S1131CB0DF92EF92FF920F931F93CF93DF93CDB7F1
S1131CC0DEB729970FB6F894DEBF0FBECDBF8C01E7
S1131CD05B012E833F8348875987E12C9924939491
S1131CE06C0183E1C80ED11C0FB6F8940F92F80171
S1131CF0F68CFF2091F0B501C8010ADEFA94F801D0
S1131D00F68E8085882329F0C8010896B3D78111FF
S1131D10CDDC0F900FBE81E04CC08E819F81A885E1
S1131D20B985892B8A2B8B2B21F40F900FBE80E071
S1131D3040C0E11005C0CE0101960E94C616E92CF0
S1131D400F900FBE3FD50FB6F8940F92F80181A102
S1131D508F3F09F411A2F80182A18F3F09F412A266
S1131D600F900FBEBE016A5F7F4FCE0101960E94A5
S1131D70D716811115C0C80161DD882369F04E8131
S1131D805F8168857985C6011AD7C801DBDD03D672
S1131D908111AACF8BDCA8CFC801D4DDFCD5A4CF98
S1131DA0C801D0DDF8D5C80149DD882309F49CCFEA
S1131DB080E029960FB6F894DEBF0FBECDBFDF9149
S1131DC0CF911F910F91FF90EF90DF90CF90BF9034
S1131DD0AF909F900895CF93DF93EC010FB6F894E2
S1131DE00F9289A18F3F09F419A28AA18F3F09F4A8
S1131DF01AA20F900FBE8E8D811103C0CE0143969F
S1131E0019D7CE019FDDDF91CF910895FC01448164
S1131E10558122813381240F351F80819181B9013D
S1131E20681B790BCB016417750710F0841B950BA5
S1131E300895AF92BF92CF92DF92EF92FF920F93E9
S1131E401F93CF93DF936C015B017A01FC01C28184
S1131E50D381048115810C1B1D0B4017510708F415
S1131E608A01F60184859585A801B5018C0F9D1F13
S1131E700E94CF2B0E151F0558F4A701401B510BD0
S1131E80B501600F711FF601848595850E94CF2BE3
S1131E90CE018E0D9F1DF601248135818217930793
S1131EA010F0821B930BF60193838283C701DF91A9
S1131EB0CF911F910F91FF90EF90DF90CF90BF9043
S1131EC0AF900895CF92DF92EF92FF920F931F93FA
S1131ED0CF93DF931F921F92CDB7DEB75A83498306
S1131EE021153105C9F06B017C01FC01868580FD5B
S1131EF008C0CA012417350708F4C9019A838983E5
S1131F0011C02017310758F042E050E0BE016F5F66
S1131F107F4FC7018EDF06C080E090E008C080E0FC
S1131F2090E005C049815A81B601C70182DF0F9054
S1131F300F90DF91CF911F910F91FF90EF90DF9061
S1131F40CF900895AF92BF92CF92DF92EF92FF921B
S1131F500F931F93CF93DF937C015B01E901421739
S1131F60530708F4EA01209779F1F7010081118100
S1131F70C480D580C01AD10ACC15DD0508F46E01E1
S1131F80F70164857585600F711FA601C5010E9464
S1131F90CF2BCC16DD0658F4AE014C195D09F701C0
S1131FA064857585C5018C0D9D1D0E94CF2B0C0F7A
S1131FB01D1FF701848195810817190710F0081B6C
S1131FC0190BF70111830083CE01DF91CF911F918B
S1131FD00F91FF90EF90DF90CF90BF90AF90089556
S1131FE0EF92FF921F93CF93DF93EB0111E0413007
S1131FF009F010E0209711F4C1E0D0E07C012FEF4C
S1132000E21AF20A419620D9009781F020E1FC01FE
S113201011922A95E9F79C01205F3F4FFC01358717
S11320202487F582E482D783C6831687DF91CF9114
S11320301F91FF90EF900895CF93DF93FC012785C4
S11320400FB6F8940F9280859185892BD1F48285FF
S11320509385892BC1F48685468157816481758176
S1132060A485B58590E1EF0119929A95E9F7B587B2
S1132070A48775836483578346838687278781E093
S113208003C080E001C080E00F900FBEDF91CF91CC
S11320900895FC012481358180819181428153819D
S11320A0820F931F0197841B950B8217930710F0DF
S11320B0821B930B08952F923F924F925F926F92DF
S11320C07F928F929F92AF92BF92CF92DF92EF92C4
S11320D0FF920F931F93CF93DF93CDB7DEB729976A
S11320E00FB6F894DEBF0FBECDBF5C011B012A0101
S11320F00E831F8328873987FC01868580FF05C0EE
S11321003A01F2E06F0E711C01C03A018E819F8189
S1132110A885B985892B8A2B8B2B09F434C0CE0171
S113212001961ED60FB6F8940F92C501B2DF4C018A
S11321308615970518F580E090E00E94361990D630
S1132140F501938782870F900FBECE80DF80E884ED
S1132150F98400E010E020E030E0A90160E070E0E4
S1132160CB01F9D6F50113861286BE016A5F7F4F53
S1132170CE0101961CD68823A9F202C00F900FBE8F
S11321808114910419F4C50184DF4C018301940185
S1132190A201B101C50196DE7C01892BD9F0C501EC
S11321A035DEF501268137818217930798F00AD32B
S11321B0F50180859185892B61F08085918500E00A
S11321C010E020E040E050E0BA014FD7F50111865D
S11321D01086E1D3C70129960FB6F894DEBF0FBE6F
S11321E0CDBFDF91CF911F910F91FF90EF90DF90C2
S11321F0CF90BF90AF909F908F907F906F905F90A3
S11322004F903F902F900895AF92BF92CF92DF925C
S1132210EF92FF920F931F93CF93DF93EC015B0137
S11322206A0179018E8580FF04C08A010E5F1F4F09
S113223001C08A01CE012DDF9C01A601B501CE01AA
S113224041DE6C01892BB1F0CE01E0DD2E813F81AE
S11322508217930778F088859985892B59F08885AA
S1132260998500E010E020E040E050E0BA0175D725
S113227019861886C601DF91CF911F910F91FF90A7
S1132280EF90DF90CF90BF90AF9008954F925F9200
S11322906F927F928F929F92AF92BF92CF92DF9272
S11322A0EF92FF920F931F93CF93DF931F921F928E
S11322B0CDB7DEB75C012B013A0168017901FC015D
S11322C0868580FD03C0812C912C04C068948824E9
S11322D081F8912CC114D104E104F10429F10FB661
S11322E0F8940F92C50192DD8C018816990638F096
S11322F080E090E0BBD7B4D5F501918780870F903B
S11323000FBE80169106B0F000E010E020E030E04F
S1132310A90160E070E0CB011ED6F501118610869C
S1132320C50174DD8C0103C0C50170DD8C0180160C
S11323309106B8F581149104C1F0F501E080F180B3
S11323409801A401BE016F5F7F4FC501FBDD898148
S11323509A81081919096816790630F4F501F18291
S1132360E082612C712C01C03C019801A301B201EF
S1132370C501E8DD7C01892BB1F024D2F501828509
S11323809385892B61F08285938500E010E020E03D
S113239040E050E0BA0169D6F50113861286FBD2FB
S11323A002C0E12CF12CC7010F900F90DF91CF9167
S11323B01F910F91FF90EF90DF90CF90BF90AF905F
S11323C09F908F907F906F905F904F900895E091D1
S11323D01C19F0911D19808181110CC08FEF9FEFA2
S11323E0DC018093E9189093EA18A093EB18B0935A
S11323F0EC180895E0911C19F0911D190780F085DF
S1132400E02D0084F185E02D82819381A481B58142
S11324108093E9189093EA18A093EB18B093EC1802
S113242008958F929F92AF92BF92CF92DF92EF92D4
S1132430FF92CF936B017C01C42F8090F31890908E
S1132440F418A090F518B090F61880916019909146
S11324506119029656D88FEFC816D806E806F80612
S113246069F4CC2359F060916019709161196E5F21
S11324707F4F88EF98E10E94230A3FC0C80CD91C03
S1132480EA1CFB1CE0916019F0916119C282D382AD
S1132490E482F582C814D904EA04FB0468F4609168
S11324A060197091611980911A1990911B196E5FCE
S11324B07F4F0E94440A21C0609160197091611994
S11324C080911C1990911D196E5F7F4F0E94440AE0
S11324D08091E9189091EA18A091EB18B091EC184A
S11324E0C816D906EA06FB0640F4C092E918D09251
S11324F0EA18E092EB18F092EC18CF91FF90EF906D
S1132500DF90CF90BF90AF909F908F9008954F929F
S11325105F926F927F928F929F92AF92BF92CF926F
S1132520DF92EF92FF920F93CF93DF934C016B01F5
S11325305A012901CA010E9424093C01892B09F48A
S1132540F4C080E390E00E942409EC01892B99F007
S11325507C8E6B8EA50165EA70E0C3010E94D82BC6
S113256021E0A21AB1088B8D9C8DA80EB91EC1144E
S1132570D10429F420C0C3010E94DD09D6C0D601CC
S11325808C918D8F8C918823A1F0AE01425E5F4FB8
S1132590F6013196B8E0CB0ED11CCF012191DA01BE
S11325A02D93AD01DC018C91882319F0EC15FD0508
S11325B0A1F71CA201C01D8E043008F003E00A8FAD
S11325C00FA318A66E01B2E0CB0ED11CC6010E9467
S11325D01F0ACE010E960E941F0ADB87CA8784E079
S11325E090E0A0E0B0E0801B9109A109B1098E87B9
S11325F09F87A88BB98BDF8BCE8B1AA619A61BA637
S11326001CA61DA61EA61FA6A201B401C5010E94F8
S1132610A80A99838883E114F10419F0F701D1839E
S1132620C0830FB6F8940F928091F7188F5F809350
S1132630F7188091601990916119892BD1F5D09385
S11326406119C09360198091F718813009F041C075
S113265084E399E10E940E0A8FE399E10E940E0A35
S11326608AE499E10E940E0A85E599E10E940E0A26
S113267089E299E10E940E0A8EE199E10E940E0A14
S11326808FE099E10E940E0A84E099E10E940E0A0B
S113269088EF98E10E940E0A89E299E190931D194E
S11326A080931C198EE199E190931B1980931A1958
S11326B010C08091F11881110CC0E0916019F09163
S11326C06119928D8A8D891720F0D0936119C09376
S11326D060198091ED188F5F8093ED188DA38A8D1A
S11326E09091F218981710F48093F218FBE08F9FE2
S11326F0C0011124B6018C5C964E0E94230A0F90EF
S11327000FBE8091F118882361F0E0916019F09177
S11327106119928D8A8D981730F40E94560B81E0CE
S113272005C081E003C081E001C08FEFDF91CF914C
S11327300F91FF90EF90DF90CF90BF90AF909F905C
S11327408F907F906F905F904F900895EF92FF92DB
S11327500F930F2EF7EEEF2EF8E1FF2EF02D00E091
S113276020E030E040EC50E060E975E08DEC90E072
S1132770CEDE813019F500D6813001F5F8948FEF63
S11327809FEFDC018093E9189093EA18A093EB186B
S1132790B093EC1881E08093F1181092F318109222
S11327A0F4181092F5181092F618E0916019F0914F
S11327B0611981A50E945B070E941A0B0F91FF907B
S11327C0EF9008958091E6188F5F8093E61808953E
S11327D00FB6F8940F926091F3187091F4188091E9
S11327E0F5189091F6180F900FBE08959F92AF922E
S11327F0BF92CF92DF92EF92FF920F931F93CF93EA
S1132800DF938091E6188111ADC0C090F318D09089
S1132810F418E090F518F090F6188FEFC81AD80A5B
S1132820E80AF80AC092F318D092F418E092F51866
S1132830F092F618C114D104E104F104B1F48091CA
S11328401C1990911D1920911A1930911B1930935C
S11328501D1920931C1990931B1980931A198091A8
S1132860EE188F5F8093EE18B2DD8091E918909195
S1132870EA18A091EB18B091EC18C816D906EA062C
S1132880FB0610F4B12C5DC0B12C0F2EFBE0AF2E73
S1132890F02D99249394E0911C19F0911D198081D5
S11328A081110CC08FEF9FEFDC018093E9189093A6
S11328B0EA18A093EB18B093EC1843C0E0911C19EC
S11328C0F0911D190780F085E02DC085D1858A819E
S11328D09B81AC81BD81C816D906EA06FB0648F483
S11328E08093E9189093EA18A093EB18B093EC182E
S11328F028C08E010E5F1F4FC8010E94810A888D77
S1132900998D892B21F0CE010E960E94810A8A8D21
S11329109091F218981710F48093F218A89EC001B1
S11329201124B8018C5C964E0E94230AE091601930
S1132930F09161199A8D828D981708F4ACCFB92C57
S1132940AACFE0916019F0916119E28D8BE0E89FC4
S1132950F0011124EC5CF64E8081823048F0BB24F7
S1132960B39406C08091F0188F5F8093F018B12C57
S11329708091EF18882311F0BB24B3948B2DDF9141
S1132980CF911F910F91FF90EF90DF90CF90BF9068
S1132990AF909F900895CF92DF92EF92FF920F93A2
S11329A01F93CF93DF930FB6F8940F928091E6189C
S11329B081508093E6188091E61881115AC0809165
S11329C0F71881112CC058C0D7011796ED91FC91CE
S11329D01897C085D185CE010E960E94810A8E017A
S11329E00E5F1F4FC8010E94810A8A8D9091F218D0
S11329F0981710F48093F218D89EC0011124B801DE
S1132A008C5C964E0E94230AE0916019F091611942
S1132A109A8D828D981788F0C092EF180EC0C0E08E
S1132A20D0E00F2EFFE0EF2EF9E1FF2EF02D0F2E58
S1132A30FBE0DF2EF02DCC24C394F70180818111BB
S1132A40C3CFCD2B09F0C3DCC091F018CC2349F0DF
S1132A50D1E0CCDE8111D093EF18C150D1F71092A0
S1132A60F0188091EF18882331F00E94560B81E012
S1132A7003C080E001C080E00F900FBEDF91CF91D2
S1132A801F910F91FF90EF90DF90CF900895CF9218
S1132A90DF92EF92FF926B017C01672B682B692B0D
S1132AA041F090DE40E0C701B601BBDC74DF811168
S1132AB002C00E94560BFF90EF90DF90CF900895D4
S1132AC08091E618882321F081E08093EF1808951F
S1132AD01092EF18E0916019F091611981A50E949C
S1132AE06507A0916019B0916119E0916019F091A6
S1132AF061192D913C91838D948D8217930758F021
S1132B0060916019709161198091601990916119B7
S1132B10635E7F4F53D58091F218282F30E09BE0FD
S1132B20899FF0011124EC5CF64E908191110EC046
S1132B304BE08150282F30E0429FF001439FF00D7D
S1132B401124EC5CF64E9081992399F39BE0929FBB
S1132B50A001939F500D1124DA01AC5CB64E11967E
S1132B60ED91FC9112970480F581E02D1296FC936F
S1132B70EE931197495C564EE417F50729F4448106
S1132B805581FD01528341839BE0929FF001939F05
S1132B90F00D1124EC5CF64E0180F281E02D2085CD
S1132BA0318530936119209360198093F218E09174
S1132BB06019F091611981A50C945B070895CF9277
S1132BC0DF92EF92FF926A017B016091601970912C
S1132BD06119625F7F4F0E94440A41E0C701B60158
S1132BE020DCFF90EF90DF90CF900895CF92DF929A
S1132BF0EF92FF920F931F9368017901E09160199E
S1132C00F0916119706846875787608B718B60916A
S1132C10601970916119625F7F4F0E94230A41E03D
S1132C20C701B601FEDB1F910F91FF90EF90DF907B
S1132C30CF900895CF92DF92EF92FF92CF936A01E3
S1132C407B01C22F6091601970916119625F7F4F9F
S1132C500E94230ACC2321F0CC24CA94DC2C7601D4
S1132C604C2FC701B601DDDBCF91FF90EF90DF90D1
S1132C70CF9008950F931F93CF93DF93DC011796A2
S1132C80ED91FC911897C085D1858E01025F1F4F8D
S1132C90C8010E94810A8091E618811116C00C5067
S1132CA01109C8010E94810A8A8D9091F21898171F
S1132CB010F48093F218BBE08B9FC0011124B8017B
S1132CC08C5C964E0E94230A05C0B8018FE099E1FE
S1132CD00E94230AE0916019F09161199A8D828D06
S1132CE0891720F481E08093EF1801C080E0DF9120
S1132CF0CF911F910F9108950F931F93CF93DF935B
S1132D007068FC014083518362837383C085D185DD
S1132D100E94810A8E010E5F1F4FC8010E94810A22
S1132D208A8D9091F218981710F48093F218FBE0B2
S1132D308F9FC0011124B8018C5C964E0E94230A17
S1132D40E0916019F09161199A8D828D891718F4B8
S1132D5081E08093EF18DF91CF911F910F91089537
S1132D600FB6F8940F922091EE18FC012083409145
S1132D70F3185091F4186091F5187091F618418386
S1132D805283638374830F900FBE08952091EE18CD
S1132D90FC0120834091F3185091F4186091F518C8
S1132DA07091F61841835283638374830895CF929C
S1132DB0DF92EF92FF920F931F93CF93DF93FB0168
S1132DC00FB6F8940F924091F3185091F418609153
S1132DD0F5187091F61800811181228133810F3F1B
S1132DE0AFEF1A072A073A0749F1EC01C980DA80E4
S1132DF0EB80FC80A091EE18B881BA1729F04C152D
S1132E005D056E057F05E0F44C195D096E097F09C7
S1132E10401751076207730758F4041B150B260B60
S1132E20370B0083118322833383B0DF80E009C032
S1132E30108211821282138281E003C080E001C0FB
S1132E4081E00F900FBEDF91CF911F910F91FF9002
S1132E50EF90DF90CF90089581E08093EF1808956C
S1132E60809160199091611908958091F1188823D7
S1132E7031F08091E618882321F080E0089581E004
S1132E80089582E008950F931F93CF93DF93FC017D
S1132E90892B79F180A5815080A7228D97A12917CC
S1132EA051F181112AC0EF018F010E5F1F4FC8013C
S1132EB00E94810A8FA18A8F44E050E060E070E0B4
S1132EC0481B5109610971094E875F87688B798BAB
S1132ED09091F218981710F48093F2182BE0829FC7
S1132EE0C0011124B8018C5C964E0E94230A81E033
S1132EF005C080E003C080E001C080E0DF91CF9195
S1132F001F910F910895CF92DF92EF92FF92E0917B
S1132F106019F09161196685778580899189E091BE
S1132F206019F0916119A0916019B09161195A96D4
S1132F302C91C12CD12C76016894C2F8C21AD10804
S1132F40E108F108C686D786E08AF18AFF90EF90FF
S1132F50DF90CF9008954F925F926F927F928F92FD
S1132F609F92AF92BF92CF92DF92EF92FF920F9314
S1132F701F9349015A010FB6F8940F92E09160191A
S1132F80F091611927A5223039F1E0916019F0918F
S1132F90611943A454A465A476A4DC01CB018095F3
S1132FA09095A095B09584219521A621B72183A75A
S1132FB094A7A5A7B6A7E0916019F091611981E0E3
S1132FC087A7C114D104E104F10431F041E0C70141
S1132FD0B60127DA0E94560B0F900FBE0FB6F89475
S1132FE00F920115110569F0E0916019F0916119D2
S1132FF083A594A5A5A5B6A5F80180839183A28392
S1133000B383E0916019F091611987A58230B1F41E
S1133010E0916019F091611983A594A5A5A5B6A5C1
S113302080949094A094B09488229922AA22BB22DE
S113303083A694A6A5A6B6A681E001C080E0E0918F
S11330406019F091611917A60F900FBE1F910F918F
S1133050FF90EF90DF90CF90BF90AF909F908F90B4
S11330607F906F905F904F9008950F931F93CF932D
S1133070DF93FC010FB6F8940F920115110549F086
S113308083A594A5A5A5B6A5E80188839983AA83F9
S1133090BB8387A592E097A72230B1F018F42130C2
S11330A031F02AC02330E9F0243001F125C003A512
S11330B014A525A536A5402B512B622B732B43A7B2
S11330C054A765A776A718C043A554A565A576A5FA
S11330D04F5F5F4F6F4F7F4F43A754A765A776A7F6
S11330E00BC043A754A765A776A706C0823049F151
S11330F043A754A765A776A7813029F5EF018F016F
S11331000E5F1F4FC8010E94810A8A8D9091F218A8
S1133110981710F48093F2182BE0829FC0011124B9
S1133120B8018C5C964E0E94230AE0916019F091DC
S113313061199A8D828D891740F40E94560B81E0A3
S113314005C080E003C081E001C081E00F900FBEA4
S1133150DF91CF911F910F910895EF92FF920F93FA
S11331601F93CF93DF93FC010115110549F083A54B
S113317094A5A5A5B6A5E80188839983AA83BB83F2
S113318087A592E097A72230B1F018F4213031F0EE
S11331902AC02330E9F0243001F125C003A514A589
S11331A025A536A5402B512B622B732B43A754A77F
S11331B065A776A718C043A554A565A576A54F5F56
S11331C05F4F6F4F7F4F43A754A765A776A70BC0E8
S11331D043A754A765A776A706C08230D9F143A7B1
S11331E054A765A776A78130B9F5EF018091E61859
S11331F0811117C08F010E5F1F4FC8010E94810A01
S11332008A8D9091F218981710F48093F218EBE0DD
S11332108E9FC0011124B8018C5C964E0E94230A33
S113322007C0BF01625F7F4F8FE099E10E94230ACC
S1133230E0916019F09161199A8D828D891770F46B
S1133240E114F10419F081E0E701888381E08093BF
S1133250EF1805C080E003C081E001C081E0DF9188
S1133260CF911F910F91FF90EF900895009721F453
S113327080916019909161190FB6F8940F92FC0136
S113328027A5223019F417A681E001C080E00F9031
S11332900FBE0895CF92DF92EF92FF920F931F9388
S11332A0FC01428353836483758393878287041765
S11332B0150726073707C0F00C191D092E093F0909
S11332C086859785A089B189081719072A073B07BE
S11332D000F5BF016E5F7F4F80916A1990916B1961
S11332E00E94440A80E018C00C151D052E053F05F8
S11332F028F44C155D056E057F0568F4BF016E5F0B
S11333007F4F80916C1990916D190E94440A80E05E
S113331003C081E001C081E01F910F91FF90EF9005
S1133320DF90CF9008950FB6F8940F9280916819AA
S113333090916919892BE9F489E799E10E940E0AB1
S11333408EE699E10E940E0A89E799E190936D193E
S113335080936C198EE699E190936B1980936A19A6
S113336040E067E08AE00E94320D909369198093EF
S113337068190F900FBE0895EF92FF920F93D3DF59
S11333808091681990916919892B89F00F2EF6E6BE
S1133390EF2EF9E1FF2EF02D03E020E030E045E5CB
S11333A050E065E975E087E091E0B1D801C080E0C4
S11333B00F91FF90EF9008958F929F92AF92BF92DA
S11333C0CF92DF92EF92FF920F931F93CF93DF93ED
S11333D0CDB7DEB727970FB6F894DEBF0FBECDBFCB
S11333E0E0916819F0916919309781F169832A8312
S11333F03B834C835D839F838E836630F4F435DD99
S1133400823069F400E0A7019601BE016F5F7F4F2F
S113341080916819909169190E94600D18C000E0AC
S113342020E030E0A901BE016F5F7F4F80916819F1
S1133430909169190E94600D0AC020E0A801BE01A4
S11334406F5F7F4FCF010E941B0E01C080E0279663
S11334500FB6F894DEBF0FBECDBFDF91CF911F91A1
S11334600F91FF90EF90DF90CF90BF90AF909F901F
S11334708F9008952F923F924F925F926F927F9216
S11334808F929F92AF92BF92CF92DF92EF92FF9270
S11334900F931F93CF93DF931C019AD92B013C0107
S11334A08091621990916319A0916419B091651982
S11334B0481659066A067B0608F053C03BC00780CD
S11334C0F085E02D80809180A280B380C085D18575
S11334D08E010E5F1F4FC8010E94810AEC89FD898D
S11334E0CE0119958F8982FF25C08E859F85A88975
S11334F0B989880D991DAA1DBB1D88169906AA06AF
S1133500BB0670F48A839B83AC83BD83DB87CA8745
S1133510B80180916C1990916D190E94440A0AC0F7
S1133520C12CD12C760100E010E0A501940160E0EB
S1133530CE0142DFE0916C19F0916D198081811107
S1133540BECF80916A1990916B1990936D198093F5
S11335506C19F0936B19E0936A1981E0F10180838F
S113356002C0F10110824092621950926319609274
S1133570641970926519C301B201DF91CF911F9153
S11335800F91FF90EF90DF90CF90BF90AF909F90FE
S11335908F907F906F905F904F903F902F90089501
S11335A00895279A2F9A2FEF80E792E021508040C8
S11335B09040E1F700C000001F9AF5CF279A2F9A98
S11335C02FEF87EA91E6215080409040E1F700C058
S11335D000001F9AF5CF8F929F92AF92BF92CF9225
S11335E0DF92EF92FF920F931F93CF93DF9380911B
S11335F0D91A9091DA1A892B89F481E00E94000E7D
S11336009093DA1A8093D91A009741F000E020E0F1
S113361030E0A90160E070E00E94600D0E946B0739
S11336209093F21A8093F11A0E946B079093D81A20
S11336308093D71A41E060E070E084E690E00E9455
S1133640F00F9093D61A8093D51ABC0181E00E94A2
S1133650FA05E090D71AF090D81A4091F11A5091D7
S1133660F21AA12CB12C65016894A4F801E010E0D1
S113367020E030E060EC81E00E940605C82FD92FDD
S1133680E090D71AF090D81A4091F11A5091F21A9A
S1133690A12CB12C65016894A5F802E010E020E0AB
S11336A030E060EC81E00E947202E090D71AF09062
S11336B0D81A4091F11A5091F21A2091D61A2F93E8
S11336C02091D51A2F93DF93CF934C010F2EF0E363
S11336D0AF2EB12CC12CD12CF02D03E010E020E052
S11336E030E060EC82E00E9470030F900F900F9026
S11336F00F90DF91CF911F910F91FF90EF90DF908A
S1133700CF90BF90AF909F908F90089581B18168C2
S113371081B90E94550780E00E94942685E00ED06E
S113372060E070E081E0C1D368C00895EFDF8DE907
S113373095E00E94412C4FDF09D8FFCFE3EFFAE177
S11337402AEA32E2318320832DEA32E23383228370
S113375028EB32E2358324832CEB32E23783268351
S113376022EC32E2318720872EEC32E23387228743
S113377023ED32E2358724872FED32E2378726871F
S11337802FEB32E2318B208B24EE32E2338B228B0F
S113379021EF32E2358B248B682FCF0152C108957B
S11337A06530F1F4FA0180818F7390E0982F8827B7
S11337B02181822B90930B0280930A028281F0E490
S11337C08F9FC0011124FA01238126952695822B0F
S11337D0909309028093080281E0809384190895EC
S11337E0643051F080E090E49093090280930802E1
S11337F090930B0280930A0208950F931F9300ED98
S11338001BE120E034E244EF50E060E087E20E94F4
S1133810CE26909386198093851921E0892B09F08F
S113382020E0822F1F910F910895809184190895AB
S11338308091851990918619009759F040E060E0D5
S113384070E00E941F27843031F41092841980E0C4
S1133850089582E0089583E00895809185199091F8
S11338608619009739F064E00E946B27853021F0B7
S113387083E0089582E0089580E0089560910A024B
S113388070910B0280E090E00E94752920E030E006
S113389048EC52E40E94032A20E038EF4FE756E454
S11338A00C94DC280895EADF20E030E040E251E4A3
S11338B00E94032A0E944929CB01089560910802BD
S11338C07091090280E090E00E94752920E030E0C8
S11338D045E253E40E94032A20E038EF4FE756E420
S11338E00E94DC2820E030E040E252E40C94772887
S11338F00895E4DF20E030E040E251E40E94032A2E
S11339000E944429CB010895CF93DF9390E0FC01FA
S1133910EE0FFF1FE80FF91FEE0FFF1FE957F64EDA
S1133920238121110AC0EF01E091FB1AF091FC1AE6
S11339306A8188819981199512C0DC01AA0FBB1F85
S1133940ED01C80FD91FCC0FDD1FC957D64EE0912A
S1133950051BF091061B6A81888199811995DF9175
S1133960CF910895CF93DF9390E0FC01EE0FFF1FFA
S1133970E80FF91FEE0FFF1FE957F64E23812111BF
S11339800AC0EF01E091051BF091061B6A81888152
S11339909981199512C0DC01AA0FBB1FED01C80F54
S11339A0D91FCC0FDD1FC957D64EE091FB1AF091F9
S11339B0FC1A6A81888199811995DF91CF910895C4
S11339C00F2EF3EFCF2EFAE1DF2EF02D04E0C7E83F
S11339D0D9E110E08C81813069F0E8F0823039F56A
S11339E0D6011C96ED91FC911D976A81888199817D
S11339F019951DC08D818F5F8A3010F48D8317C097
S1133A001D82D6011C96ED91FC911D976A818881D7
S1133A10998119950CC08D81882331F0812FA2DF03
S1133A208D8181508D8303C00C83812F6DDF1F5FD7
S1133A302696143079F665E070E080E090E027D8AF
S1133A40C6CFCF92DF92EF92FF920F931F93CF9343
S1133A50DF93062F0F2EF3EFEF2EFAE1FF2EF02D5A
S1133A60D7011896ED91FC91199766E087E290E0F2
S1133A701995C7E8D9E10F2EF8E2CF2ED12CF02DFD
S1133A80D982C88286E08A831B8214E01C8380E08A
S1133A903BDFD7011896ED91FC91199767E087E217
S1133AA090E01995DF82CE8287E0888719861A878D
S1133AB081E02ADFD7011896ED91FC91199765E012
S1133AC083E390E01995D7011896ED91FC9119972D
S1133AD061E084E390E0199584E390E09D878C870E
S1133AE085E08E871F86188B82E00EDFD70118963B
S1133AF0ED91FC91199764E081E091E01995D7016B
S1133B001896ED91FC91199761E082E091E0199586
S1133B1082E091E09B8B8A8B1C8B1D8A1E8B83E039
S1133B20F3DEE12CF12C20E030E040EC50E06FEAD1
S1133B3075E080EE9CE10E948712DF91CF911F9186
S1133B400F91FF90EF90DF90CF9008950F931F9304
S1133B50CF93DF93C82FD0E08E01000F111FD8013F
S1133B60AC0FBD1FAA0FBB1FA957B64EE091FF1A99
S1133B70F091001B12966C9112978D919C9119955E
S1133B80C00FD11FCC0FDD1FC957D64E81E08C83E7
S1133B90DF91CF911F910F9108950F931F93CF93AE
S1133BA0DF93C82FD0E08E01000F111FD801AC0F96
S1133BB0BD1FAA0FBB1FA957B64EE091FF1AF09183
S1133BC0001B12966C9112978D919C911995C00FC0
S1133BD0D11FCC0FDD1FC957D64E82E08C83DF91F5
S1133BE0CF911F910F910895282F30E0F901EE0F26
S1133BF0FF1FE20FF31FEE0FFF1FE957F64E93E08E
S1133C009483B0CE0895282F30E0F901EE0FFF1F02
S1133C10E20FF31FEE0FFF1FE957F64E94E0948373
S1133C2073CE089590E0FC01EE0FFF1FDF01A80F93
S1133C30B91FAA0FBB1FA957B64E24E015962C93A3
S1133C401597FD011482089590E0FC01EE0FFF1F0B
S1133C50DF01A80FB91FAA0FBB1FA957B64E21E059
S1133C6015962C931597FD01148208950F931F93B5
S1133C70CF93DF931F921F92CDB7DEB78C011982C9
S1133C802DC0E091031AEC3250F481E08E0F809342
S1133C90031AF0E0EB5CF54E8A81808302C0109237
S1133CA0031A8A818A30D1F44091031A50E0FA0150
S1133CB0ED5CF54E1082415051099E012F5F3F4F3C
S1133CC065E37AE18091061A9091071A0E94041123
S1133CD0898181110E94560B1092031ABE016E5FF6
S1133CE07F4FC8018FD5882361F20F900F90DF9129
S1133CF0CF911F910F9108950F931F93CF93DF934B
S1133D008C01EB018091061A9091071A0E941C10F5
S1133D10B8018FE999E10E940F2C209779F0EFE91F
S1133D20F9E101900020E9F7319780E290E0918376
S1133D308083BE018FE999E10E94042CEFE9F9E147
S1133D40DF010D900020E9F711978DE09AE01196BC
S1133D509C938E9312961C9201900020E9F7319760
S1133D60EF59F941AE2F8FE999E1AC016A2F8091A7
S1133D70081A9091091AF6D4811111C008E215E0CD
S1133D8020E030E04DE250E06FE87AE18091061ADD
S1133D909091071A0E9446118FE89AE102C080E0D0
S1133DA090E0DF91CF911F910F9108952F923F9250
S1133DB04F925F926F927F928F929F92AF92BF9237
S1133DC0CF92DF92EF92FF920F931F93CF93DF93E3
S1133DD05C01FC0101900020E9F731976F01C81ADA
S1133DE0D90A5C2C0F2EF0E58F2EF8E09F2EF02DD3
S1133DF0E12CF12C4C2C3701F40101811281E801F2
S1133E0009900020E9F72197C01BD10B3C2EF9E063
S1133E10CF16D10458F0F4012080FEE02F1206C022
S1133E20B801C5010E94DF2B892B09F5442D3514F7
S1133E3008F44C2F50E0B801C5010E94162C892BC0
S1133E4049F4F301EE0FFF1FE60DF71DE05BF74F9A
S1133E5020800DC08FEFE81AF80AE3E08E0E911C63
S1133E60F1E1EF16F10439F66894222424F8822D46
S1133E70DF91CF911F910F91FF90EF90DF90CF9042
S1133E80BF90AF909F908F907F906F905F904F9076
S1133E903F902F90089530DF89CF08958091061ABE
S1133EA09091071A0C941C1008958F929F92AF92D0
S1133EB0CF92EF920F931F93CF93C82F8B0141E0C2
S1133EC060E070E088EC90E00E94F00F9093071A95
S1133ED08093061A1093051A0093041A0F2EF6E322
S1133EE08F2EFEE19F2EF02D6894AA24A6F86894E4
S1133EF0CC24C6F8E12C00E023E040E051EE60E081
S1133F0070E08C2F74D39093091A8093081AE0916F
S1133F10FB1AF091FC1A64E087E091E01995CF91C7
S1133F201F910F91EF90CF90AF909F908F90089535
S1133F30882349F0E091051BF091061B64E088E0BA
S1133F4091E019950895E091FB1AF091FC1A64E050
S1133F5088E091E01995089560E070E086ED95E0C1
S1133F60CBDEEFE8FAE101900020E9F73197EF5852
S1133F70FA4181E0759708F080E00895CF93DF93CC
S1133F80EC0160E070E087EE95E0B6DEEFE8FAE180
S1133F9001900020E9F7E05AFA4139F46FE87AE138
S1133FA0CE010E940F2C80E002C0188281E0DF91D4
S1133FB0CF910895FC0101900020E9F79F01215160
S1133FC031092817390729F4BC0185E196E063CF4C
S1133FD0089589E00895FC0101900020E9F79F010C
S1133FE0215131092817390729F4BC0184E296E0EC
S1133FF052CF089589E00895FC0101900020E9F76B
S11340009F01215231092817390729F4BC0183E3A0
S113401096E041CF089589E0089560E070E082E77A
S113402096E039CF08950F931F93E82FF0E0EE0F39
S1134030FF1FE45BF74F608171818BE796E02BDF14
S1134040811114C008E215E020E030E04DE250E0B8
S11340506FE87AE18091061A9091071A0E9446113E
S1134060882321F08FE89AE1A1DE03C08FE89AE16A
S11340709DDE1F910F9108950F931F93CF93DF93AC
S11340801F92CDB7DEB7DB0111969C911197953144
S113409008F0B4C0992381F160E070E0272F30E08C
S11340A0462F50E0FD01E40FF51F928192959F7019
S11340B09A3010F0995C01C0905DF901E05EF54E14
S11340C090832F5F3F4FFD01E40FF51F92819F7096
S11340D0492F50E04A30510514F0995C01C0905DBD
S11340E0F901E05EF54E90837E5F6F5F11969C91BF
S11340F01197691798F201C070E0E72FF0E0E05ED5
S1134100F54E10824C91811103C084E896E002C000
S113411086E896E020E23AE13F932F931F924F9373
S11341209F938F938AE896E09F938F9382E69AE118
S11341309F938F930E94712C60E070E082E69AE175
S1134140AADE0FB6F894DEBF0FBECDBF811159C0F1
S113415008E215E020E030E04DE250E06FE87AE15B
S11341608091061A9091071A0E944611882309F437
S113417047C08FE89AE11ADE8E3009F042C087E02A
S113418089838091041A9091051A892BA9F1BE01A3
S11341906F5F7F4F8FE89AE168D180930A1AE981B3
S11341A0F0E0E157F54EDF010D900020E9F711979B
S11341B0AE1BBF0BAA2391F0BB27CD0101979C0135
S11341C012F42F5F3F4F3595279520930B1AAF01BB
S11341D04F5F5F4F64E18CE09AE173D101E010E03E
S11341E020E030E046E150E06AE07AE18091041A90
S11341F09091051A0E945B108EE003C084E101C017
S113420080E00F90DF91CF911F910F91089581303D
S113421019F06AE976E002C063E777E08EE996E098
S11342203ACE08959F938F938FEC96E09F938F934C
S113423082E69AE19F938F930E94712C60E070E074
S113424082E69AE128DE0F900F900F900F900F9066
S11342500F9008952F923F924F925F926F927F92A8
S11342608F929F92AF92BF92CF92DF92EF92FF9282
S11342700F931F93CF93DF93CDB7DEB7A0970FB6FD
S1134280F894DEBF0FBECDBF6CEF76E088E097E018
S113429033DD8CDD8111A3C080E2E3E2F2E0DE01D4
S11342A0119601900D928A95E1F79E012F5F3F4F81
S11342B06901E12CF12C0F2EF4E1AF2EF7E0BF2EB3
S11342C0F02D02E61AE10F2EFDE24F2EF7E05F2EED
S11342D0F02D0F2EF4E48F2EF7E09F2EF02D0F2EED
S11342E0FEE56F2EF7E07F2EF02D3E2C2F2CFF9253
S11342F0EF92BF92AF921F930F930E94712C60E0D4
S113430070E0C801F9DC52DD0F900F900F900F9010
S11343100F900F90811163C032E03E15E8F4F6016E
S113432083818F9382818F9381818F9380818F93F7
S1134330FF92EF925F924F921F930F930E94712C02
S113434060E070E0C801D8DC31DD0FB6F894DEBF60
S11343500FBECDBF811143C02F923F929F928F9287
S11343601F930F930E94712C60E070E0C801C4DCBD
S11343701DDD0F900F900F900F900F900F908111F3
S11343802EC02F923F927F926F921F930F930E94A1
S1134390712C60E070E0C801AFDC08DD0F900F9075
S11343A00F900F900F900F90811119C03FEFE31AF7
S11343B0F30A84E0C80ED11C98E0E916F10409F070
S11343C094CF60E070E086E797E096DCEFDC811143
S11343D006C060E070E087E897E08EDCE7DCA0963A
S11343E00FB6F894DEBF0FBECDBFDF91CF911F9102
S11343F00F91FF90EF90DF90CF90BF90AF909F9080
S11344008F907F906F905F904F903F902F90089582
S1134410EF92FF920F931F93CF93DF93EC018B01E5
S11344207A0181E0F4DE81110DC0CE01D4DD811169
S113443009C0C801E1DD811105C0C701BBDD8111DF
S113444001C0EBDDDF91CF911F910F91FF90EF90B1
S1134450089590E0FC01EE0FFF1F8E0F9F1FFC01DB
S1134460E05BF74F818192810895DC01009729F187
S1134470FB012081FC0101900020E9F73197E81B42
S1134480F90B822F90E0E817F907C8F080E008C024
S1134490880F382F330F330F830F8053890F2F5F0B
S11344A0FD01E20FF11D908130ED390F3A3010F427
S11344B09111EECFFB012083089580E0089580E000
S11344C008950F931F93CF93DF93DC01EA012097A4
S11344D0E1F1FA0101900020E9F73197E41BF50BB3
S11344E0329710F532C08D01040F151F30E0AE0174
S11344F0420F531FFA019081913428F09753592F9A
S11345005295507F03C0592F5295507F2C0F3D1F59
S1134510F9019181913410F0975301C09053950F94
S1134520F80190838F5F01C080E0282F220F482F6D
S113453050E0FE0101900020E9F73197EC1BFD0BE0
S11345404E175F0710F48613CECFDF91CF911F91E2
S11345500F910895FC0180810895FC01208181E080
S113456090E002C0880F991F6A95E2F782230895AC
S1134570FC01808186230895FC0160830895FC0179
S113458010820895FC01408121E030E002C0220F36
S1134590331F6A95E2F7242B20830895FC012081C0
S11345A0622B60830895FC01408121E030E002C069
S11345B0220F331F6A95E2F7242720830895FC0114
S11345C02081622760830895FC01908121E030E01E
S11345D002C0220F331F6A95E2F720952923208316
S11345E00895FC01908160956923608308952F925A
S11345F03F924F925F926F927F928F929F92AF926F
S1134600CF92EF92FF920F931F93CF93DF93CDB787
S1134610DEB7F82E2A013B0188E090E09BD78C019D
S11346208F2D90E0880F991FFC01E454F54E1183FF
S11346300083FC01E45FFD4F80819181D8018D935B
S11346409C936C2D70E084E090E06AD71C0161E0DB
S113465070E086E090E064D77C014C2DB1012BD54D
S1134660F801F582E4826A2D70E084E090E058D786
S11346701C0161E070E086E090E052D77C014A2D95
S1134680B10119D5D8011396FC92EE9212971796A0
S11346909C928E921697FFB6F894ED91FC91119727
S11346A036978081826080838D909C90C301B20193
S11346B01CD620E030E040E051E4A5D69B01AC01DB
S11346C060E074E284E79BE477D520E030E040E8E2
S11346D05FE30DD5DED5F40132976083D801ED9107
S11346E0FC911197359788E98083ED91FC9134977B
S11346F086E08083FFBEC801DF91CF911F910F91A7
S1134700FF90EF90CF90AF909F908F907F906F909D
S11347105F904F903F902F900895CF93DF93EC01DB
S1134720EA81FB81938182812581981B9223848174
S11347309817A1F0938126952923A081B181A20F16
S1134740B11D6C939F5F258192239383E881F98146
S1134750359780818062808380E001C082E0DF91B0
S1134760CF910895EF92FF920F931F93CF93DF930E
S11347707C01DC011296ED91FC9113979381828167
S1134780981B858198238481891B861798F1662359
S113479041F1842F952FDC016150462F50E04F5F8B
S11347A05F4F480F591FE701EA81FB8193818281A2
S11347B02581981B92238481981779F08C91938199
S11347C026952923608171818B01020F111DE80157
S11347D088839F5F8581982393831196A417B507D7
S11347E011F7D701ED91FC91359780818062808328
S11347F080E001C082E0DF91CF911F910F91FF9083
S1134800EF900895DC011496ED91FC911597938136
S11348108281981789F09281858186958923A08168
S1134820B181A80FB11D8C91DB018C939F5F8581B1
S11348309823928380E0089583E008951F920F9255
S11348400FB60F9211240BB60F922F933F934F93F1
S11348505F936F937F938F939F93AF93BF93CF9304
S1134860DF93EF93FF93A091BC1AB091BD1A1097F8
S113487011F16091C6001496ED91FC911597938106
S113488082812581981B92238481981761F083810A
S113489026952823C081D181C20FD11D68838F5FE3
S11348A09581892383831696ED91FC911797309710
S11348B011F0CD011995FF91EF91DF91CF91BF9147
S11348C0AF919F918F917F916F915F914F913F91A4
S11348D02F910F900BBE0F900FBE0F901F90189545
S11348E01F920F920FB60F9211240BB60F922F93B3
S11348F08F939F93AF93BF93EF93FF93E091BC1A71
S1134900F091BD1A3097B9F00280F381E02D9381C4
S113491082819817B1F092818581282F26952923C9
S1134920A081B181A20FB11D2C919F5F8923828345
S11349302093C6000BC0E1ECF0E080818F7D808382
S113494005C0E1ECF0E080818F7D8083FF91EF91E1
S1134950BF91AF919F918F912F910F900BBE0F90AC
S11349600FBE0F901F9018951F920F920FB60F92C3
S113497011240BB60F922F933F934F935F936F9332
S11349807F938F939F93AF93BF93CF93DF93EF93D3
S1134990FF93A091BE1AB091BF1A109711F16091C4
S11349A0CE001496ED91FC91159793818281258117
S11349B0981B92238481981761F08381269528237C
S11349C0C081D181C20FD11D68838F5F95818923F6
S11349D083831696ED91FC911797309711F0CD01D2
S11349E01995FF91EF91DF91CF91BF91AF919F9175
S11349F08F917F916F915F914F913F912F910F9084
S1134A000BBE0F900FBE0F901F9018951F920F9220
S1134A100FB60F9211240BB60F922F938F939F937F
S1134A20AF93BF93EF93FF93E091BE1AF091BF1A37
S1134A303097B9F00280F381E02D93818281981739
S1134A40B1F092818581282F26952923A081B181F7
S1134A50A20FB11D2C919F5F892382832093CE00E6
S1134A600BC0E9ECF0E080818F7D808305C0E9EC28
S1134A70F0E080818F7D8083FF91EF91BF91AF91B2
S1134A809F918F912F910F900BBE0F900FBE0F909F
S1134A901F9018951F920F920FB60F9211240BB608
S1134AA00F922F933F934F935F936F937F938F93C3
S1134AB09F93AF93BF93CF93DF93EF93FF93A09113
S1134AC0C01AB091C11A109711F16091D6001496D2
S1134AD0ED91FC911597938182812581981B9223F6
S1134AE08481981761F0838126952823C081D18120
S1134AF0C20FD11D68838F5F9581892383831696A6
S1134B00ED91FC911797309711F0CD011995FF9114
S1134B10EF91DF91CF91BF91AF919F918F917F9151
S1134B206F915F914F913F912F910F900BBE0F901A
S1134B300FBE0F901F9018951F920F920FB60F92F1
S1134B4011240BB60F922F938F939F93AF93BF9320
S1134B50EF93FF93E091C01AF091C11A3097B9F026
S1134B600280F381E02D938182819817B1F09281C4
S1134B708581282F26952923A081B181A20FB11DFB
S1134B802C919F5F892382832093D6000BC0E1ED93
S1134B90F0E080818F7D808305C0E1EDF0E08081CD
S1134BA08F7D8083FF91EF91BF91AF919F918F9102
S1134BB02F910F900BBE0F900FBE0F901F90189562
S1134BC01F920F920FB60F9211240BB60F922F93D0
S1134BD03F934F935F936F937F938F939F93AF9381
S1134BE0BF93CF93DF93EF93FF93A091C21AB09139
S1134BF0C31A109711F1609136011496ED91FC914E
S1134C001597938182812581981B9223848198171B
S1134C1061F0838126952823C081D181C20FD11DE3
S1134C2068838F5F9581892383831696ED91FC9128
S1134C301797309711F0CD011995FF91EF91DF91FE
S1134C40CF91BF91AF919F918F917F916F915F9120
S1134C504F913F912F910F900BBE0F900FBE0F906D
S1134C601F9018951F920F920FB60F9211240BB636
S1134C700F922F938F939F93AF93BF93EF93FF93D1
S1134C80E091C21AF091C31A3097B9F00280F3810F
S1134C90E02D938182819817B1F092818581282F2C
S1134CA026952923A081B181A20FB11D2C919F5F6C
S1134CB089238283209336010BC0E1E3F1E08081F4
S1134CC08F7D808305C0E1E3F1E080818F7D808367
S1134CD0FF91EF91BF91AF919F918F912F910F9081
S1134CE00BBE0F900FBE0F901F901895CF93DF93BC
S1134CF01F92CDB7DEB7BE016F5F7F4F8091C41A9C
S1134D009091C51A7FDD8111F6CF898190E00F90D3
S1134D10DF91CF910895682F8091C41A9091C51A9C
S1134D20FCDC80E090E008958F929F92AF92CF9246
S1134D30EF920F93812C912C6894AA24A7F868947D
S1134D40CC24C7F8E12C00E023E040E051EE60E021
S1134D5070E04DDC9093C51A8093C41AEDE0FBE13A
S1134D6084E192E091838083938382830F91EF9017
S1134D70CF90AF909F908F9008958091D41A811115
S1134D800CC08CE08093B8008FEF8093BB0084E06C
S1134D908093BC0081E08093D41A0895AF92BF92AF
S1134DA0CF92DF92EF92FF920F931F93CF93DF93F3
S1134DB0A82EB62E69017A0184E090E0CBD3EC01F1
S1134DC0892B61F1A88281E0B81212C0C701B60133
S1134DD020EA36E841E050E079D3DA01C90140978E
S1134DE0A109B109B695A79597958795898311C0AF
S1134DF0C701B60120E83AE146E050E067D3DA01A2
S1134E00C9014097A109B109B695A79597958795CA
S1134E1089831B830A838C2F9D2F02C080E090E03E
S1134E20DF91CF911F910F91FF90EF90DF90CF9082
S1134E30BF90AF9008958091BC0081700895FF9257
S1134E400F931F93CF93DF930097D1F14A30D0F59E
S1134E50F42E8B01EC01EFDF811136C08091C71A6B
S1134E609091C81AC817D90741F087DF89818093C8
S1134E70B800D093C81AC093C71A81E08F0D8093ED
S1134E80C91A8881880F8093CA1AFF2089F0F80113
S1134E90ABECBAE14FEF4F0D642F70E0CB010196FC
S1134EA0B801680F791F81918D93E617F707D9F739
S1134EB088EF8093220285EA8093BC0084E005C0D9
S1134EC086E003C087E001C082E0DF91CF911F91AB
S1134ED00F91FF9008951F93CF93DF93009729F1CB
S1134EE06B3028F5162FEC01A6DF811122C08091CA
S1134EF0C71A9091C81AC817D90741F03EDF8981B3
S1134F008093B800D093C81AC093C71A1093C91AD3
S1134F108881880F81608093CA1A88EF8093220267
S1134F2085EA8093BC0085E005C086E003C087E085
S1134F3001C082E0DF91CF911F9108951F920F92DB
S1134F400FB60F9211240BB60F922F933F934F93EA
S1134F505F936F937F938F939F93AF93BF93EF93DD
S1134F60FF93E091B9008E2F90E0FC013897E13572
S1134F70F10508F075C08827E458FF4F8F4FC8C269
S1134F801092C61AE091C61A8091C91AE81770F4F3
S1134F9081E08E0F8093C61AF0E0E653F54E8081CF
S1134FA08093BB0085E88093BC0072C084E9809341
S1134FB0BC008091C71A9091C81ADC011296ED9139
S1134FC0FC911397309709F463C020E040E050E06F
S1134FD064E019955DC0E091C61A81E08E0F80935C
S1134FE0C61A8091BB00F0E0E653F54E80838091B1
S1134FF0B900803411F41092C61A2091C61A30E018
S11350008091C91A90E001972817390724F485EC98
S11350108093BC003DC085E88093BC0039C080917A
S1135020BB00E091C61AF0E0E653F54E808384E9B4
S11350308093BC008091C71A9091C81ADC01129623
S1135040ED91FC911397309719F12091C91A4AEC0C
S11350505AE165E019951CC085EA8093BC0018C02C
S11350608091B9008093220284E08093BC008091F7
S1135070C71A9091C81ADC011296ED91FC9113970E
S1135080309731F020E040E050E060912202199521
S1135090FF91EF91BF91AF919F918F917F916F910C
S11350A05F914F913F912F910F900BBE0F900FBEC8
S11350B00F901F901895FC01411101C06CD3842FEF
S11350C090E09C012150310982239323892B09F01C
S11350D062D3413808F05FD3128213824483440FB1
S11350E0415045837183608380E090E00895505877
S11350F0BB27AA270ED04DC13ED130F043D120F0BA
S113510031F49F3F11F41EF433C10EF4E095E7FB34
S113511029C1E92F4FD180F3BA17620773078407B7
S1135120950718F071F49EF567C10EF4E0950B2E07
S1135130BA2FA02D0B01B90190010C01CA01A001E5
S11351401124FF27591B99F0593F50F4503E68F140
S11351501A16F040A22F232F342F4427585FF3CF81
S1135160469537952795A795F0405395C9F77EF452
S11351701F16BA0B620B730B840BBAF09150A1F09B
S1135180FF0FBB1F661F771F881FC2F70EC0BA0F21
S1135190621F731F841F48F4879577956795B795A9
S11351A0F7959E3F08F0B3CF9395880F08F09927A1
S11351B0EE0F9795879508950CD0EBC0E3D040F09F
S11351C0DAD030F021F45F3F19F0CCC0511115C191
S11351D0CFC0F0D098F39923C9F35523B1F3951BAD
S11351E0550BBB27AA2762177307840738F09F5F04
S11351F05F4F220F331F441FAA1FA9F333D00E2E73
S11352003AF0E0E830D091505040E695001CCAF7DF
S113521029D0FE2F27D0660F771F881FBB1F2617A4
S113522037074807AB07B0E809F0BB0B802DBF0177
S1135230FF2793585F4F2AF09E3F510568F092C0B4
S1135240DCC05F3FECF3983EDCF386957795679579
S1135250B795F7959F5FC9F7880F911D9695879528
S113526097F90895E1E0660F771F881FBB1F621747
S113527073078407BA0720F0621B730B840BBA0B05
S1135280EE1F88F7E095089504D06894B111B5C075
S1135290089598D088F09F5790F0B92F9927B75167
S11352A0A0F0D1F0660F771F881F991F1AF0BA95E6
S11352B0C9F712C0B13081F09FD0B1E008959CC00D
S11352C0672F782F8827B85F39F0B93FCCF38695DC
S11352D077956795B395D9F73EF490958095709539
S11352E061957F4F8F4F9F4F0895E89409C097FBB6
S11352F03EF490958095709561957F4F8F4F9F4FA9
S11353009923A9F0F92F96E9BB279395F6958795EC
S113531077956795B795F111F8CFFAF4BB0F11F4AF
S113532060FF1BC06F5F7F4F8F4F9F4F16C0882356
S113533011F096E911C0772321F09EE8872F762F8C
S113534005C0662371F096E8862F70E060E02AF0CD
S11353509A95660F771F881FDAF7880F96958795B9
S113536097F9089597F99F6780E870E060E00895E1
S11353709FEF80EC089500240A9416161706180669
S11353800906089500240A94121613061406050645
S11353900895092E0394000C11F4882352F0BB0FD6
S11353A040F4BF2B11F460FF04C06F5F7F4F8F4F39
S11353B09F4F089557FD9058440F551F59F05F3F74
S11353C071F04795880F97FB991F61F09F3F79F023
S11353D087950895121613061406551FF2CF4695A5
S11353E0F1DF08C0161617061806991FF1CF869527
S11353F07105610508940895E894BB27662777270B
S1135400CB0197F908950BD0C4CFB5DF28F0BADFEC
S113541018F0952309F0A6CFABCF1124EECFCADF45
S1135420A0F3959FD1F3950F50E0551F629FF001B3
S1135430729FBB27F00DB11D639FAA27F00DB11D0C
S1135440AA1F649F6627B00DA11D661F829F222795
S1135450B00DA11D621F739FB00DA11D621F839F1C
S1135460A00D611D221F749F3327A00D611D231FF2
S1135470849F600D211D822F762F6A2F11249F5740
S113548050408AF0E1F088234AF0EE0FFF1FBB1F63
S1135490661F771F881F91505040A9F79E3F510502
S11354A070F060CFAACF5F3FECF3983EDCF38695B3
S11354B077956795B795F795E7959F5FC1F7FE2BAD
S11354C0880F911D9695879597F90895A1E21A2E54
S11354D0AA1BBB1BFD010DC0AA1FBB1FEE1FFF1F94
S11354E0A217B307E407F50720F0A21BB30BE40BE4
S11354F0F50B661F771F881F991F1A9469F760952B
S11355007095809590959B01AC01BD01CF010895E4
S1135510EE0FFF1F881F8BBF0790F691E02D1994A3
S11355200F931F93CF93DF93869F8001879F100D66
S1135530969F100D1124C8010DD0EC01009721F0A5
S1135540A80160E070E034D1CE01DF91CF911F91CA
S11355500F9108950F931F93CF93DF93823091059A
S113556010F482E090E0E0910B1BF0910C1B20E022
S113557030E0A0E0B0E0309719F140815181028120
S1135580138148175907C8F08417950769F41097D1
S113559031F012960C93129713961C9327C0009324
S11355A00B1B10930C1B22C02115310519F0421757
S11355B0530718F49A01BD01EF01DF01F801DBCFB5
S11355C021153105F9F0281B390B2430310580F4FD
S11355D08A819B816115710521F0FB01938382838C
S11355E004C090930C1B80930B1BFE01329644C0A5
S11355F0FE01E20FF31F8193919322503109398305
S113560028833AC02091091B30910A1B232B41F4B3
S1135610209102023091030230930A1B2093091B4C
S113562020910002309101022115310541F42DB77A
S11356303EB74091040250910502241B350BE091C2
S1135640091BF0910A1BE217F307A0F42E1B3F0B72
S11356502817390778F0AC014E5F5F4F24173507E0
S113566048F04E0F5F1F50930A1B4093091B819310
S1135670919302C0E0E0F0E0CF01DF91CF911F9160
S11356800F910895CF93DF93009709F481C0FC0133
S1135690329713821282A0910B1BB0910C1B1097AE
S11356A081F420813181820F931F2091091B309155
S11356B00A1B2817390751F5F0930A1BE093091BBD
S11356C067C0ED0120E030E0CE17DF0740F44A81E7
S11356D05B819E0141155105F1F0EA01F5CFD383B9
S11356E0C28340815181840F951FC817D90759F48B
S11356F088819981840F951F0296918380838A8182
S11357009B81938382832115310529F4F0930C1B2B
S1135710E0930B1B3DC0E901FB83EA834991599156
S1135720C40FD51FEC17FD0761F480819181840FAC
S1135730951F0296E90199838883828193819B83D3
S11357408A83E0E0F0E012968D919C911397009784
S113575019F0FD01DC01F7CF8D919C9111979D010A
S11357602E5F3F4F820F931F2091091B30910A1B1C
S11357702817390769F4309729F410920C1B1092FA
S11357800B1B02C013821282B0930A1BA093091B45
S1135790DF91CF91089581E090E0F8947DC3FB01FF
S11357A0DC0102C001900D9241505040D8F7089599
S11357B0DC0101C06D9341505040E0F70895FB01B6
S11357C051915523B1F0BF01DC01052E4D914423C5
S11357D069F010D0D9F7CD010190002049F04D9126
S11357E0411108D0C9F3FB014111EECF81E090E0F3
S11357F001970895402539F0403229F440294B5748
S1135800465E08F018940895FB01DC010D90002019
S1135810E9F7119701900D920020E1F70895FB013B
S1135820DC0101900D920020E1F70895FB01DC01F9
S11358304150504088F08D9181341CF08B350CF42C
S1135840805E619161341CF06B350CF4605E861BE4
S1135850611171F3990B0895881BFCCFCF93DF93EB
S1135860CDB7DEB7AE014A5F5F4FFA016191719126
S1135870AF0180910F1B9091101B61D0DF91CF91EC
S113588008950F931F93CF93DF93E0910F1BF09133
S1135890101B238121FF1BC08C01D0E0C0E0F80164
S11358A081918F0160910F1B7091101BDB01189681
S11358B0ED91FC911997882331F01995892B79F38F
S11358C0DFEFCFEFECCF8AE01995892B19F08FEF3A
S11358D09FEF02C08D2F9C2FDF91CF911F910F91CD
S11358E008950F931F93CF93DF93CDB7DEB72E9711
S11358F00FB6F894DEBF0FBECDBF0E891F8986E0B8
S11359008C831A8309838FEF9FE79E838D83AE0177
S1135910465E5F4F688D798DCE01019610D0EF8180
S1135920F885E00FF11F10822E960FB6F894DEBFB3
S11359300FBECDBFDF91CF911F910F9108952F928C
S11359403F924F925F926F927F928F929F92AF920B
S1135950BF92CF92DF92EF92FF920F931F93CF9358
S1135960DF93CDB7DEB72B970FB6F894DEBF0FBE2B
S1135970CDBF6C017B018A01FC01178216828381F1
S113598081FFBFC1CE0101963C01F6019381F7016D
S113599093FD859193FF81917F01882309F4ADC123
S11359A0853239F493FD859193FF81917F0185328E
S11359B021F4B60190E0D6D1E8CF912C212C312CE2
S11359C0FFE1F315D8F08B3279F038F4803279F0B6
S11359D08332A1F4232D20611DC08D3261F0803308
S11359E069F4232D216016C0832D8260382EE32DA7
S11359F0E4603E2E2AC0F32DF8601DC037FC2DC094
S1135A0020ED280F2A3040F08E32B9F436FC75C1EF
S1135A10232D2064322E19C036FE06C08AE0989EDB
S1135A20200D1124922E11C0EAE02E9E200D112487
S1135A30222EF32DF0623F2E08C08C3621F4832DE4
S1135A408068382E02C0883641F4F70193FD8591B1
S1135A5093FF81917F018111B3CF982F9F7D95543E
S1135A60933028F40C5F1F4F9FE399830DC0833656
S1135A7031F0833771F0833509F055C020C0F80147
S1135A80808189830E5F1F4F88248394912C530156
S1135A9012C02801F2E04F0E511CF801A080B18021
S1135AA036FE03C0692D70E002C06FEF7FEFC501C1
S1135AB04ED14C018201F32DFF773F2E15C02801F2
S1135AC022E0420E511CF801A080B18036FE03C0D2
S1135AD0692D70E002C06FEF7FEFC5012DD14C013D
S1135AE0F32DF0683F2E820133FC19C0822D90E023
S1135AF088169906A0F4B60180E290E033D12A9486
S1135B00F5CFF50137FC859137FE81915F01B60130
S1135B1090E028D121102A9421E0821A910881145E
S1135B20910479F7E1C0843611F0893639F5F8012A
S1135B3037FE07C060817181828193810C5F1F4FA2
S1135B4008C060817181072E000C880B990B0E5FD1
S1135B501F4FF32DFF763F2E97FF09C09095809538
S1135B60709561957F4F8F4F9F4FF0683F2E2AE0CD
S1135B7030E0A30133D1882E861844C0853731F430
S1135B80232D2F7EB22E2AE030E025C0932D997F5D
S1135B90B92E8F36C1F018F4883579F0AEC080374D
S1135BA019F0883721F0A9C0E92FE061BE2EB4FEB8
S1135BB00DC0FB2DF460BF2E09C034FE0AC0292F8E
S1135BC02660B22E06C028E030E005C020E130E0B7
S1135BD002C020E132E0F801B7FE07C060817181A4
S1135BE0828193810C5F1F4F06C06081718180E0C8
S1135BF090E00E5F1F4FA301F1D0882E8618FB2D75
S1135C00FF773F2E36FE0DC0232D2E7FA22E891442
S1135C1058F434FE0BC032FC09C0832D8E7EA82EAE
S1135C2005C0B82CA32C03C0B82C01C0B92CA4FE09
S1135C300FC0FE01E80DF11D8081803321F49A2DFF
S1135C40997EA92E09C0A2FE06C0B394B39404C0E1
S1135C508A2D867809F0B394A3FC10C0A0FE06C078
S1135C60B21480F4280C922C9B180DC0B21458F472
S1135C70B60180E290E076D0B394F8CFB21418F471
S1135C802B1802C0982C212CA4FE0FC0B60180E36F
S1135C9090E068D0A2FE16C0A1FC03C088E790E0A3
S1135CA002C088E590E0B6010CC08A2D867851F0D8
S1135CB0A1FE02C08BE201C080E2A7FC8DE2B60126
S1135CC090E050D0891430F4B60180E390E04AD0DB
S1135CD09A94F8CF8A94F301E80DF11D8081B601FE
S1135CE090E040D08110F6CF222009F44ECEB601C8
